S0110000637562657361745F52582E733337F3
S21400000000200020F1480000D1D20100D1D201002A
S214000010CBE90100D1D20100D1D20100D1D201003A
S214000020D1D20100D1D20100D1D20100D1D201003B
S214000030D1D2010094420200D1D20100D1D20100F7
S214000040D1D201000D8C0100C5B40000D1D2010050
S2140000503D8401000B190200071902002D8C0100D7
S214000060FF1802000956000071570000D1D20100A7
S214000070C1450000B1450000D1D20100D1D2010037
S214000080D1D20100D1D2010091570000D1D2010097
S214000090D1D20100D1D20100D1D20100D1D20100CB
S2140000A0D1D20100D1D20100D1D20100D1D20100BB
S2140000B0618C010003190200B1A900009D8C0100AB
S2140000C0D1D20100C56F0100D1D20100D1D201000A
S2140000D0D1D20100D1D20100D1D20100D1D201008B
S2140000E0D1D20100D1D20100D1D20100D1D201007B
S2140000F0D1D20100D1D20100D1D20100D1D201006B
S214000100D1D20100D1D20100D1D2010000000000FE
S214000110013800D0FCE77047000000000000000037
S21400012001F0FF01102A2BDB10F0070F08D010F8A3
S214000130013B013A8B422DD010F0070F42B3F6D1A7
S214000140F0B441EA012141EA014122F007047FF0C0
S21400015000070023F0E80256083C85EA010586EA17
S214000160010685FA47F5A3FA87F586FA47F6A5FA53
S21400017087F68EB9EED1F0BC01F0FF0102F007025F
S21400018032B110F8013B013A83EA010313B1F8D10A
S2140001900020704701387047002D06BF35460338EB
S2140001A0073815F0010F07D1013015F4807F02BF24
S2140001B0013015F4C03F0130F0BC0138704700BF75
S2140001C02DE9F04F2DED028B91B082460C469346FA
S2140001D01D46DDE91C23104619461BF093F800283F
S2140001E000F007814FF0FF32B14BDDE91C011BF038
S2140001F0B1F8002840F0FD804FF0FF326FF4801316
S214000200DDE91C011BF088F8002840F0F28000228F
S2140002100023DDE91C011BF07FF8002840F0FE807B
S2140002209DED1C7B8DED067B209B13F480630F9366
S21400023001D106231E93DDE906010246C1F30A50EA
S214000240C1F31303904643F07F5949F44019A0F2D6
S214000250FF301AF085FD84A3D3E900231AF0EAFDE7
S21400026083A3D3E900231AF02FFC06460F4600228C
S214000270904B404649461AF025FC7FA3D3E900235D
S2140002801AF0D8FD02460B46304639461AF01CFCDA
S2140002901BF06AF806461AF063FD8046894678A386
S2140002A0D3E900231AF0C6FD0022834B1AF00CFC9B
S2140002B01BF05AF8074674A3D3E900234046494684
S2140002C01AF0B8FD8046894638461AF049FD70A3F4
S2140002D0D3E900231AF0AEFD02460B4640464946D7
S2140002E01AF0F0FB8046894602460B461AF0A2FD3D
S2140002F0CDE90A0107F2FF3700210022CDE90812F6
S2140003003B0509930023089342464B464046494620
S2140003101AF0DAFBCDE90C0142464B4600204FF0BE
S21400032080411AF0CFFB804689460022634BDDE908
S2140003300A011AF0A9FE0022614B1AF0C5FB02461C
S2140003400B46DDE90A011AF09FFE00225D4B1AF00B
S214000350BBFB02460B46DDE90A011AF095FE024693
S2140003600B46404649461AF0AFFB02460B46DDE90F
S2140003700C011AF089FE0022534B1AF0A5FBDDE9AA
S21400038008231AF057FD8046894649EC188BDDE9AC
S21400039006231AF0DFFF40B1013E0022484B4046DC
S2140003A049461AF071FE41EC180B06F16303C62BA2
S2140003B03FD80427209B13F4006F44D036A3D3E91C
S2140003C00023DDE90689404649461AF0B9FF0028B1
S2140003D03FD033A3D3E90023404649461AF09CFF9A
S2140003E0002836D01E9BB34225DD9E1B731E1E932F
S2140003F023E0209B04931F9B03931E9B02939DED7B
S2140004001C7B8DED007B2B465A462146504600F05D
S214000410CFF811B0BDEC028BBDE8F08F9FED227BCC
S2140004208DED067B1C9B06931D9B03F100430793F3
S214000430FAE60527BEE700231E93209B43F480635D
S214000440209300273E461F9B9F423FD2A3EB070800
S2140004503EE01E9B002BF6D00F9B002BF3D01E9B7E
S214000460013B1E93EFE700BFFB799F501344D33F39
S214000470B3C8608B288AC63F61436F63A787D23FA5
S21400048071A379094F930A401655B5BBB16B02406C
S214000490EF39FAFE422EE63F2D431CEBE2361A3FBA
S2140004A00000000080842E410000000000000000D4
S2140004B0FFFFEF7F0000F83F0000E03F00002C4009
S2140004C000002440000018400000F03F4FF00008F5
S2140004D0209B13F0020902D00FB14FF000083EB186
S2140004E053EC182BDDE906011AF0CEFDCDE9060126
S2140004F000220023DDE91C011AF00EFF00283DD182
S214000500209B23F400630493CDF80C801E9B02937B
S2140005109DED067B8DED007B2B465A4621465046C8
S21400052000F046F8002F3FF474AF209B13F0200F26
S2140005302CD04FF0450C00F101082B460246214610
S2140005406046D04786EAE672A2EBE672052305937C
S214000550013F0497002303930A230293F30F0193AA
S21400056000922B464246214650461FF0A8FBB9F1A2
S214000570000F3FF44EAF02461F9F10E0DDE9060174
S214000580024601F10043CDE90623B9E74FF0650CBA
S214000590D1E7561C2B4621462020D0473246A2EBF8
S2140005A00B03BB42F5D3104633E700BF0000000044
S2140005B02DE9F04F2DED028B95B007900A919246EB
S2140005C09B46DDE92089229D42464B4640464946E9
S2140005D01AF098FE002840D04FF0FF326FF48013D8
S2140005E0404649461AF098FE002845D14FF0FF32A3
S2140005F09F4B404649461AF0ADFE00284BD198A3C3
S214000600D3E90023404649461AF0A4FE00285AD1F2
S21400061095A3D3E90023404649461AF07DFE0028FC
S21400062051D100220023404649461AF075FE0028A4
S21400063057D100230B93249B13F4806F5CD00024C7
S2140006401F2C5BD8092D59D904F150036B44302276
S21400065003F8202C013D0134F2E7249B0393239BEF
S214000660029303230193834B00935B4652460A99F9
S21400067007981FF04AFA2CE1249B0393239B0293CE
S214000680042301937C4B00935B4652460A990798D5
S2140006901FF03BFA1DE1249B13F004030FD0774AAA
S2140006A07BB104232499039123990291019300922C
S2140006B05B4652460A9907981FF027FA09E1704AE6
S2140006C0EEE70323EEE7249B0493239B0393029514
S2140006D0CDE900895B4652460A990798FFF770FDF8
S2140006E0F7E042464B46002000211AF0EBF9804620
S2140006F0894601230B939EE70625A0E74046494618
S2140007001AF032FE06461AF02BFB02460B4640460F
S21400071049461AF0D7F95B4B03EBC50393ED008B04
S21400072053EC182B1AF086FB02460B46CDE908233D
S2140007301AF042FE07461AF003FB02460B46DDE9B6
S21400074008011AF0BFF902460B46CDE9082300223D
S2140007504D4B1AF0FFFD50B3013738461AF0F0FA49
S21400076002460B4651EC180B1AF0E0FD08B10136B4
S214000770002755BB30461AF0F3FA02460B464046B1
S21400078049461AF09FF90746884600223E4B1AF063
S214000790C3FD38B100223C4B384641461AF0DAFD1C
S2140007A0002842D016F0010F3FD001363DE000226F
S2140007B0354BDDE908011AF0AFFD0028D9D117B195
S2140007C017F0010FD5D00137D3E71F2C17D8013DFE
S2140007D02E4BA3FB0723DB08194603EB8303A7EB8B
S2140007E04303621C303304F150000DEB000404F8A0
S2140007F0203C092F02D90F461446E6E714461F2C64
S2140008000AD86B1E45B104F150026A44302102F842
S214000810201C1D460134F2E71F2C06D804F15003B5
S2140008206B442E2203F8202C01341F2C33D8184A90
S21400083082FB0632F317C3EBA2031A4603EB8303CD
S214000840A6EB4303611C303304F150000DEB0004AB
S21400085004F8203C1646EAB10C46E6E7AFF3008003
S2140008600000000065CDCD410000000065CDCDC183
S214000870FFFFEF7FC8490200CC490200BC490200D6
S214000880C4490200D84902000000E03FCDCCCCCCE1
S214000890676666660C46249B03F00303012B1DD097
S2140008A01F2C09D80B9B002B35D004F150036B444A
S2140008B02D2203F8202C0134249B0393239B0293C0
S2140008C001940CAB00935B4652460A9907981FF0BA
S2140008D01CF915B0BDEC028BBDE8F08F239BB3B1BD
S2140008E00B9B1BB9249B13F00C0F12D0239B013BD0
S2140008F02393194606E004F150036B44302203F8B4
S214000900202C01348C42CBD21F2CF4D9C8E7239973
S214000910F8E72399F6E7249B13F0040F07D004F1B9
S21400092050036B442B2203F8202C0134C4E7249B8D
S21400093013F0080FC0D004F150036B44202203F8D4
S214000940202C0134B8E700BF7FB54E6802A90446E4
S21400095020F0C0FC9DF808300E2B19D1134BB3F9CC
S2140009600050134B9E4218D806F0CEFF0346006890
S21400097000909B88ADF804306946204620F097FC2E
S21400098070B10C490C4840F21C620BF0C5FDFEE746
S214000990204613F00FFE0546E3E706F0B1FFE5E755
S2140009A02946204620F098FC04B070BD584E002022
S2140009B0FFC99A3B254D02004C4A020038B5044652
S2140009C00D461CF09CFD064A13889BB22DB12343AE
S2140009D01380BDE838401CF098BD23EA0403F7E70F
S2140009E0C8480020034B002201214FF480709A7003
S2140009F0E4E700BFC84800207FB50023134C0393EC
S214000A00CDE90133FF238DF804301CF078FD2288F1
S214000A1063880F4E9A4205460DD061887068218023
S214000A2001AA13F0B5FB58B10A490B4840F2976289
S214000A300BF072FDFEE7706820F0FBFA0128ECD0A0
S214000A4028461CF062FD04B070BD00BFE020002008
S214000A50C8480020254D02004C4A020038B50F4C0D
S214000A60A56835B90E490F4840F27C720BF054FD6C
S214000A70FEE71FF0F9F928440FF0C0F900F0070070
S214000A80032809D1A468092120461FF009FB205C31
S214000A90031F5842584138BD0020FCE7C8480020D4
S214000AA0254D02004C4A020010B5114CA378042BC9
S214000AB006D01049104840F244520BF02DFDFEE7D8
S214000AC023881B0706D40B490B4840F245520BF00F
S214000AD023FDFEE700210820FFF770FF074B606844
S214000AE002221A7113F022FBBDE810401EF08AB9EC
S214000AF0C8480020254D02004C4A0200E020002095
S214000B0010B5084C606813F011FB606820F091FA8D
S214000B10012806D0012260681146BDE8104020F08A
S214000B208ABA10BDC848002038B5194DAB7833B125
S214000B30184919484FF4DC620BF0EEFCFEE71CF097
S214000B40DEFC298811F00601044609D001214FF485
S214000B508070FFF733FF2046BDE838401CF0D5BC58
S214000B604FF48070FFF72AFF10F0B6FE012805D07C
S214000B7010F0FD0F05D1FFF73FFFECE7FFF7C0FFD2
S214000B80E9E70449044840F2F6620BF0C5FCFEE7CC
S214000B90C8480020254D02004C4A020070B5074D9B
S214000BA095F90C600446FFF7BFFF10F095FDAA68A4
S214000BB031462046BDE8704010F0CCBBC848002047
S214000BC008B50A4B1B88DB0606D40949094840F2DB
S214000BD069520BF0A1FCFEE700211020FFF7EEFEA5
S214000BE010F0F6FEBDE808401EF00CB9C84800201C
S214000BF0254D02004C4A02000D4B1B889B0710B582
S214000C00044613D500210220FFF7D8FE094B5A7977
S214000C10FF2A06D00849094840F29A420BF07CFCAD
S214000C20FEE75C71BDE810401EF0ECB810BD00BFDA
S214000C30C8480020E0200020254D02004C4A020053
S214000C407047704710B50E4CA37833B10D490E4867
S214000C5040F2C5120BF060FCFEE7A06019B1A17C63
S214000C60003918BF01212020FFF7A8FE074B0848CF
S214000C709B7923770223A370BDE810400DF028BFB0
S214000C80C8480020254D02004C4A0200E020002003
S214000C90E848002008B50EF01DFD80F00100C0B247
S214000CA008BD0A4B9A780AB1062A0CD11B8803F4B1
S214000CB08B7343B9064B5A79FF2A04D11879FF384B
S214000CC018BF012070470120704700BFC8480020A9
S214000CD0E020002008B50EF0EDFC0028FBD108BD92
S214000CE00C4B42881A8242789A740278DA748288A8
S214000CF09A82C288DA82C2689A61074A017A91713A
S214000D00028A198D914204D001214FF400701A8591
S214000D1054E67047C8480020E0200020094B1A8A95
S214000D2042809A7C4270DA7C02709A8A8280DA8AE2
S214000D30C2809A69C260044A1B8D9279027203824D
S214000D40704700BFC8480020E02000204B1E012B43
S214000D5070B50C4606D91B491B484FF42A720BF097
S214000D60DBFBFEE7194D0A460146686820F0C8FB23
S214000D7030B11449144840F2AA220BF0CDFBFEE72E
S214000D806E680DF019FE22460146304620F0B2FB92
S214000D9030B10C490C4840F2AE220BF0BDFBFEE72A
S214000DA06D680DF015FE22460146284620F0AEFB83
S214000DB030B10449044840F2B2220BF0ADFBFEE726
S214000DC070BD00BF254D02004C4A0200C8480020F6
S214000DD0054BDB791B0913F00E0003D0052B8CBFE7
S214000DE000200120704700BFE0200020044BDB7984
S214000DF01B0913F00E0F0CBF01200020704700BF28
S214000E00E02000202DE9F04F16469A0591B0814665
S214000E101F4603D501218020FFF7D0FDF3014FF0D8
S214000E20000852D59A4C23889D074ED5994D6B796C
S214000E30FF2B06D09849994840F266420BF06CFBAF
S214000E40FEE7A36833B99449944840F267420BF032
S214000E5063FBFEE741460220FFF7B0FDA37885F866
S214000E600580042B03D101210820FFF7A7FD8C4A3B
S214000E706068002120F04FFA30B18749874840F279
S214000E8071420BF049FBFEE7FFF7A2FFA8B9D4F8C2
S214000E9004801EF0E9FF0546A0681EF0F0FF291842
S214000EA07F4A89B2404620F047FA30B17A497B48FB
S214000EB040F277420BF030FBFEE7A378032B02D11B
S214000EC0606813F033F91DF09DFFB80702D50120C6
S214000ED0FFF792FE16F0A84F02D00220FFF78CFE16
S214000EE0B10220D50021402005ACFFF767FD214662
S214000EF0484620F031FBB0B99DF81C30022B0AAAF8
S214000F0022D18DF83030BDF81430ADF828301046B8
S214000F1010F0EAFB38B1484620F01CFB18B9012156
S214000F204020FFF74BFD320752D5594D05AA686899
S214000F30032120F0B0FA804688B95749574840F256
S214000F40B3420BF0E9FAFEE7032B05BFD4E9000134
S214000F508DF830308DF83000C2E90001D7E79DF8F3
S214000F6014306868072B40F022810AAA414620F018
S214000F7096FA824630B14849484840F2B6420BF0ED
S214000F80CBFAFEE7FFF724FFBDF8161090B9FFF77F
S214000F902DFF68B10431686889B20AAA20F081FA88
S214000FA040B13D493D4840F2C7420BF0B5FAFEE776
S214000FB00231F0E7BDF816000730012180B20EF0CE
S214000FC0D3FA039000284AD101210C2011F0CAFA66
S214000FD0B10705D52E4B1B881A0701D5FFF764FD10
S214000FE0B3010AD500210420FFF7E8FC284B9A78C5
S214000FF0012A02D1586813F099F816F0284F03D04A
S21400100000210420FFF7DAFC7E060CD5204C23884E
S2140010101D0701D5FFF748FD2388580703D5002193
S2140010200420FFF7CBFCF90540F1CF8048461FF0BF
S214001030FEFF022802D0032840F0C080144C23880C
S2140010405A0703D500210420FFF7B8FC23889B0726
S21400105040F1BB80012011B0BDE8F04FCCE50EF0AA
S21400106059F94FF0000BCDF800B0BDF81630024627
S21400107004464146686820F02EFABDF816308342D2
S21400108010D0054905484FF49B620BF045FAFEE781
S214001090C8480020E0200020254D02004C4A0200EF
S2140010A0F44800201EF0E0FE20440EF0A7FE00F0FC
S2140010B00700022823D1AB78042B89D11EF0D4FE7A
S2140010C0434B20441B7882789A4281D159460820A7
S2140010D0FFF774FC1EF0C8FE20440EF08FFE3D4B5A
S2140010E0C0F3001018719DF836302B73FFF7B6FC6E
S2140010F000287FF46DAF686813F018F868E71EF0F4
S214001100B3FE20440EF07AFE830649D51EF0ACFEF0
S21400111020440EF073FE00F00700032828D00121BB
S2140011200420FFF74BFC20F0E0F92863BDF81630EA
S2140011309DF83620E254BDF816309DF8372023443B
S21400114001209A71BDF816100A9A013121440EF05A
S21400115063FEBDF8163003981C4484F805A00EF014
S21400116097FA1D4B18780DF0B9FD1DF04BFE2FE7D2
S214001170092120461EF094FF205C04284FF0010150
S214001180CED1FFF71BFC20F0B0F928632B88580659
S214001190CCD559464020FFF711FC4FF0010AC5E7B1
S2140011A0AB78012BC2D1686812F0C0FFBEE720F012
S2140011B06CF96868414620F08BF909E7074908484A
S2140011C040F2B5520BF0A8F9FEE711B0BDE8F08F7B
S2140011D035490020E020002038480020254D020038
S2140011E04C4A020008B50246FFF7F2FD30B1072A66
S2140011F006D8044B002083F8342008BD7020FCE796
S2140012000220FAE7C848002008B50246FFF7E0FDCE
S21400121028B1044B93F834301370002008BD7020BA
S214001220FCE700BFC848002008B5074B014600226F
S214001230586820F065F930B1044905484FF4377214
S2140012400BF06AF9FEE708BDC8480020254D0200ED
S2140012504C4A020008B5074B01460022586820F0A9
S21400126049F930B10449054840F2E2220BF054F93E
S214001270FEE708BDC8480020254D02004C4A020083
S21400128008B5074B0146586820F046F930B10549C5
S21400129005484FF43A720BF03FF9FEE708BD00BF71
S2140012A0C8480020254D02004C4A020008B5064BEF
S2140012B09B7833B10549064840F2F2220BF02CF930
S2140012C0FEE7BDE808402FE4C8480020254D020090
S2140012D04C4A020008B5044B014658681FF0FCFF54
S2140012E0002818BF8B2008BDC8480020014B58684E
S2140012F013F060B9C8480020014B5888704700BFFB
S214001300E02000207FB50123ADF80E3009484FF6E7
S214001310FE7300930DF10E02002304A940681FF02F
S2140013205AFF012894BFBDF810004FF6FF7007B0B3
S2140013305DF804FBC848002008B5044B0146586811
S2140013401FF0CFFEB0FA80F0400908BDC848002064
S21400135038B50B4DAB78012B04460DD8FFF7ECFFE4
S21400136060B1084B5C80AB781BB9FFF7DDFB002053
S21400137038BDFFF741FBFAE73E20F9E78A20F7E79A
S214001380C8480020E0200020024B9B780BB9FFF7EE
S214001390CBBB7047C8480020014BD874704700BFCD
S2140013A0C848002008B5054B012158681FF066FEA6
S2140013B00028B8BF033040F3870008BDC8480020A7
S2140013C008B5044B58681FF088FE034BB3FBF0F0DB
S2140013D080B208BDC848002040420F0030B58DB02E
S2140013E02C220446002101A820F0FEFD0123264DF4
S2140013F08DF808304FF002326423CDE903230693BC
S2140014000B238DF82C302B8DADF80A30FFF7E0FC5F
S214001410A0B140F2F23307934FF47A7305930CB9F8
S214001420FFF76EFB686801A913F098F9B8B1174981
S214001430174840F269620BF06FF8FEE7FFF7C0FF4F
S2140014400C234343902BA3F10A0207930592DCBFBB
S21400145091230793059B8B2BE1D88C23DEE7FFF7C0
S214001460C5FC60B101226868114620F063F830B10F
S2140014700649074840F26C620BF04EF8FEE70CB9DE
S214001480FFF752FB0DB030BDC8480020254D0200C6
S2140014904C4A0200F8B5574C1CF031F82388D905A1
S2140014A0064603D5A37843BBFFF73EFB524D6B7948
S2140014B0FF2B13D06B7903F0FF0723BBFF236B7161
S2140014C0A378032B0AD100233046A3701CF01DF826
S2140014D03846FFF763FB1CF012F80646A378042B89
S2140014E008D12B79FF2B05D02B79022B14D143483A
S2140014F00DF0EEFAFF232B7128E000214FF48070E8
S214001500FFF75CFAD2E76B79012B4FF0FF036B71A4
S21400151014BF89278D27D6E72B7913B12B79012B9A
S2140015201FD1FFF79BFA2B790022FF212971DBB22E
S21400153084F820200546002848D0012B0AD12F48E1
S214001540A37064210DF0CFFAFFF756FA30461BF071
S214001550DCFF06E03046A2701BF0D7FF3120FFF715
S2140015601DFB23881A0608D500218020FFF726FADF
S21400157060681FF024FF10F00CFA23889B0507D53F
S2140015804FF400700021FFF719FA0020FFF726FF3E
S2140015900EF090F8E08628B30DF0BCFE012105465B
S2140015A0002010F0DFFFA678012E15D1002684F863
S2140015B02060A670FFF7B8FA28460FF005FEA3785D
S2140015C0E6867BB9BDE8F84010F086B8A0703046D5
S2140015D01BF09BFF2846C2E72EB128460FF0F4FD0D
S2140015E00023E386F8BDFFF79FFA28460FF0ECFDD0
S2140015F0E686F7E7C8480020E0200020E8480020FC
S2140016007FB5794C2388DB0700F1E7800121774D11
S2140016100846FFF7D3F905237549A37005F10800BE
S21400162012F056FD606028B972497348F3220AF03A
S21400163073FFFEE771481FF03DFD69A3D3E9002361
S214001640CDE900234FF0FF324FF0FF3360681FF004
S214001650C0FD4FF48811606813F00AF8014630B1F7
S2140016606449654840F20B120AF056FFFEE7644BE9
S2140016701B78012B0ED1634A606812F085FF606804
S21400168013F09AF8E0B15B495B4840F217120AF093
S21400169043FFFEE75C4E316831B9564956484FF471
S2140016A08D720AF039FFFEE7564A606812F06CFF4A
S2140016B033689B6823B1DB6913B15B7803B1EB71C8
S2140016C0FFF720FE514B68801B78C3EB431203EBF9
S2140016D08203DB0001202385FFF780FE65680DF09E
S2140016E077F90022014628461FF010FF054630B164
S2140016F04049414840F22D120AF00EFFFEE740F244
S21400170003532382424B04261B78E374A674FFF728
S21400171057FE00EB80039B00A382FFF751FEC0003C
S214001720E08231466068A5611FF0D5FC30B13149D2
S21400173031484FF49E720AF0EFFEFEE760683246CC
S21400174003A91FF06EFD042806D02A492A484FF444
S214001750A0720AF0E1FEFEE703A901200EF06AFB84
S21400176009F0D4FE606808224FF0FF311FF03BFD01
S21400177030B12049204840F249120AF0CDFEFEE77B
S21400178013F088F930B11B491B4840F24F120AF09B
S214001790C3FEFEE7FFF71CFB68B11CF0C6F8014667
S2140017A060681FF084FD30B11249134840F25312AE
S2140017B00AF0B2FEFEE76468FFF7A4FD154B01468B
S2140017C003F10C02204612F0F1FC30B109490A4838
S2140017D04FF4AD720AF0A0FEFEE704B070BD00BF85
S2140017E00A0020FF42030000C8480020E020002036
S2140017F0E5090000254D02004C4A0200690345EC4D
S2140018001A4900204909000018200020E321002082
S214001810E2210020504D020008B5044B58681FF026
S2140018205EFC034BB3FBF0F080B208BDC848002056
S21400183040420F002DE9F043864D2B889B0787B06A
S21400184006D48549854840F201720AF065FEFEE737
S214001850AB78033B012B06D97F49804840F20372E0
S2140018600AF05AFEFEE7AA6832B97B497B4840F286
S21400187006720AF051FEFEE7794E2C88F77914F0CE
S214001880200418BF4FF47A744FEA1718FFF7A0FA2F
S214001890002872D0B8F1020F0AD0A8F10303022B79
S2140018A069D96D496D4840F21A720AF035FEFEE7B6
S2140018B0032795F8343008EBC8089844694B03EBC7
S2140018C048031046B3F81C801EF0D9FA4FF4FA53BA
S2140018D043437822B3FBF8F37733B3FBF2F31F44AA
S2140018E0C7EB0717AB78FF00BFB204F5347417FADE
S2140018F084F4042BA4B203D107F6E8072744BCB24D
S214001900D5F808801EF0B0FA0746A8681EF0B7FAA9
S21400191007441EF0CFFABFB23F1A1EF0A5FA4044A5
S2140019200EF06CFA64238DF80C304F4BD5F804900B
S214001930CDE90434C0F340141EF0C8FABFB2034623
S21400194041463A4648461FF0A2FD2B8871883180F2
S21400195013F0200F03AB75D000936868434B224604
S21400196012F0FAFB002872D03B493C4840F2D9629C
S2140019700AF0D2FDFEE706279BE7FFF737FA0028B6
S21400198044D0384B07F00F0708EBC801394403EB87
S21400199041031046B3F81C901EF071FAB8F1000F20
S2140019A02AD0B8F1010F2AD1400080B24FF00408C7
S2140019B0F3191B7E4BB10233034443449BB24FF4EE
S2140019C0FA525343B3FBF9F39CB2AB78042B97D18E
S2140019D03744FFF7F5FC3B7E053398448146FFF716
S2140019E01BFF0C2308FB00F003FB09F909EBC009F9
S2140019F0A1441FFA89F483E74FF00208D8E7164996
S214001A00164840F23B720AF087FDFEE7FFF704FF38
S214001A100746A8681EF033FAAB780930784304EB23
S214001A20C000042B84B27FF46BAFFFF7C9FC0746F7
S214001A30FFF7F2FE602358430C2303FB0700204405
S214001A4084B25DE76868224612F078FB8AE707B042
S214001A50BDE8F083C8480020254D02004C4A02002D
S214001A60E0200020504D020020A10700D8480020AA
S214001A70F8B5484C258815F0020506D04649474873
S214001A804FF4B3720AF048FDFEE784F820501BF0CE
S214001A9036FD23885A0706460AD51FF026FD236B17
S214001AA0C01A238D984203D929460420FEF786FFE4
S214001AB030461BF02AFDA778022F37D11BF01FFDFA
S214001AC0238813F00405064607D035480DF000F8C5
S214001AD03046BDE8F8401BF018BD1BF016FDA068A8
S214001AE00FF032FE20B1A570BDE8F840FFF756B8FB
S214001AF01BF005FDA66805461EF0B6F930440EF04C
S214001B007DF910F0200F0CBF032304230121384673
S214001B10A370FEF753FFFFF78DFE28461BF0F5FC7B
S214001B2001210846BDE8F84010F01CBD042F27D15F
S214001B301C4B1B79FF2B2CD1237FF3B11BF0DFFC52
S214001B4023885B07054604D515480CF0C1FF2846D8
S214001B50BFE71BF0DAFC237F013B23771BF0CFFCAB
S214001B60012104460220FEF729FFFFF763FE204608
S214001B701BF0CBFC01210820D4E7A3704020B3E77C
S214001B80012F06D160680023A37012F0CFFA31202F
S214001B90AAE7F8BDC8480020254D02004C4A0200BE
S214001BA0E8480020E020002038B501210446102037
S214001BB0FEF704FF064B5D68FFF702FC054B00FBD3
S214001BC004F1012228461FF03AFA002038BD00BF73
S214001BD0C8480020C10B000010B50A4C2388DB065D
S214001BE006D40949094840F275320AF095FCFEE72A
S214001BF010200021FEF7E2FE6068BDE810401FF0EE
S214001C002CBA00BFC8480020254D02004C4A0200EE
S214001C1038B50D4DE88E30B90C490D4840F2823289
S214001C200AF07AFCFEE70DF075FB0446E88E0DF030
S214001C308DFB811F214401200EF0FCF804461FF0A6
S214001C4054FC001B38BD00BFC8480020254D0200CC
S214001C504C4A020010B5074CA36833B9064907483A
S214001C6040F291320AF058FCFEE71FF03EFCE36AB1
S214001C70C01A10BDC8480020254D02004C4A02007C
S214001C8038B50A4DE88E30B909490A4840F29B3209
S214001C900AF042FCFEE70DF03DFB0446E88E0DF030
S214001CA055FB044414F8020C38BD00BFC848002099
S214001CB0254D02004C4A020038B50A4DE88E30B970
S214001CC009490A4840F2AA320AF026FCFEE70DF05F
S214001CD021FB0446E88E0DF039FB044414F9070C8A
S214001CE038BD00BFC8480020254D02004C4A0200FF
S214001CF038B50A4DE88E30B909490A4840F2B9327B
S214001D000AF00AFCFEE70DF005FB0446E88E0DF02F
S214001D101DFB044414F9010C38BD00BFC848002060
S214001D20254D02004C4A0200024B1888C0F3C01032
S214001D30704700BFC848002030B50F4B05460FCB94
S214001D4085B06C4684E80F000DB12B6800930B4BF2
S214001D5021465868002212F043FC044630B1084978
S214001D60084840F2D7320AF0D7FBFEE7FEF744FEFB
S214001D70204605B030BD00BFD84D0200C848002040
S214001D80254D02004C4A020008B5074B014658682C
S214001D901FF017FB30B10549054840F2E5320AF05E
S214001DA0BBFBFEE708BD00BFC8480020254D02006B
S214001DB04C4A020008B5064B58681FF019FB30B1B4
S214001DC0044905484FF47C720AF0A6FBFEE708BDFE
S214001DD0C8480020254D02004C4A0200024B012252
S214001DE0586811461FF027B9C84800207047F8B554
S214001DF0054604200C461EF019F803061DD5104EA5
S214001E00B778D7B91DB1012D02D00220F8BD012741
S214001E102046FFF791FA0028F7D070683A46214628
S214001E201FF022F930B1074907484FF486620AF0DE
S214001E3073FBFEE70623B370E8E77020E6E700BF13
S214001E40C8480020254D02004C4A020010B5042068
S214001E501DF0ECFF030610D5094CA378062B0CD119
S214001E6060681FF004F930B10649074840F249425D
S214001E700AF052FBFEE7A07010BD7020FCE700BF22
S214001E80C8480020254D02004C4A020008B5034908
S214001E90034840F261520AF03FFBFEE7254D020080
S214001EA04C4A02000348044B834202D0034B03B162
S214001EB01847704710220020102200200000000063
S214001EC00548064B1B1AD90F01EBA301491002D097
S214001ED0034B03B118477047102200201022002041
S214001EE00000000010B5064C237843B9FFF7DAFF70
S214001EF0044B13B10448AFF300800123237010BDD8
S214001F00084F002000000000606E020008B5054B78
S214001F101BB105490548AFF30080BDE80840FFF750
S214001F20CFBF00BF0000000040240020606E02000B
S214001F30A3F5803A704700BF174B002B08BF134B22
S214001F409D46FFF7F5FF00218B460F461348144ABF
S214001F50121A20F049F80E4B002B00D098470D4B74
S214001F60002B00D098470020002104000D000D48EB
S214001F70002802D00C48AFF3008019F069FD20005D
S214001F8029001BF083F819F0AFFB00BF0000080023
S214001F9000000000000000000020002010220020AA
S214001FA0644F00200000000000000000BFF34F8FC9
S214001FB00549CA6802F4E062044B1343CB60BFF3E2
S214001FC04F8F00BFFDE700BF00ED00E00400FA05FC
S214001FD038B504461DF051F8A04201D8012038BD9E
S214001FE00546032002F004FB08B90020F7E71BF0C3
S214001FF01DF91BF01CF92B462246034903480068CE
S2140020001CF049FAF1E700BF80240200B028002047
S21400201030B583B08368C26853F822301C78631EDC
S214002020DBB2032B16D8019404230DEB0302012127
S2140020302348006811F0B4FC0546D8B9214B1C7043
S214002040032002F0D5FA28BB032002F0D1FA60BBC9
S21400205003B030BD012002F0CBFA0028F8D01BF008
S214002060E5F81BF0E4F822461749184B18681CF0F0
S21400207012FAEDE7012002F0BBFA0028E8D01BF0C8
S214002080D5F81BF0D4F82A461149104B18681CF0F6
S21400209002FADDE71BF0CAF81BF0C9F822460D4924
S2140020A00A4B18681CF0F7F9CEE71BF0BFF81BF0D8
S2140020B0BEF80949054B18681CF0EDF9C8E700BFE3
S2140020C098200020D6210020B8240200B028002046
S2140020D0E0240200042502003C25020030B583B04F
S2140020E004468368C26853F822301D782846FFF7F6
S2140020F06FFF08B903B030BD00230093ADF804307D
S214002100164B1B88ADF80230ADF804506368E268E1
S2140021109B1A012B1DDDA368013253F822301B8861
S214002120ADF800301CF099FF694603201CF099FFBB
S2140021300446032002F05CFA0028DBD01BF076F899
S2140021401BF075F822460649064B18681CF0A3F9E2
S214002150D0E740F2FF13ADF80030E3E7464E00202C
S21400216058250200B028002030B583B004468368A6
S214002170C26853F822301D782846FFF729FF08B9B1
S21400218003B030BD00230093ADF80430154B1B8818
S214002190ADF80230ADF804506368E2689B1A012B74
S2140021A01BDDA368013253F822301B88ADF80030DF
S2140021B0694604201CF055FF0446032002F018FA76
S2140021C00028DDD01BF032F81BF031F82246064915
S2140021D0064B18681CF05FF9D2E740F2FF13ADF823
S2140021E00030E5E7464E002078250200B0280020A3
S2140021F030B583B004468368C26853F822301D7831
S2140022002846FFF7E5FE08B903B030BD002300936B
S214002210ADF80430154B1B88ADF80230ADF804500D
S2140022206368E2689B1A012B1BDDA368013253F832
S21400223022301B88ADF80030694602201CF011FFE2
S2140022400446032002F0D4F90028DDD01AF0EEFF91
S2140022501AF0EDFF22460649064B18681CF01BF9DB
S214002260D2E740F2FF13ADF80030E5E7464E002017
S2140022708C250200B028002030B583B08368C26881
S21400228053F822301C780023019343689B1A012BD5
S21400229019DD01AA01211BF0E4FB01469DF80400AC
S2140022A01CF0D7FE054680B1022002F0A1F960B10D
S2140022B01AF0BCFF1AF0BBFF2A460F490F4B1868EE
S2140022C01CF0E9F801E01CF0C8FE20461CF0CDFE2C
S2140022D0044608B903B030BD032002F089F900288F
S2140022E0F8D01AF0A3FF1AF0A2FF22460449034BC7
S2140022F018681CF0D0F8EDE7A8250200B0280020EA
S214002300C02502002DE9F04182B01CF06BFE0546A8
S214002310854B1B7813F0020F3ED0844E13F0010F4E
S2140023203CD0824F13F0040F3AD0DFF8008203202F
S21400233002F05EF9002836D1032002F059F9002891
S2140023403BD1032002F054F9002845D1032002F0C7
S2140023504FF900284ED1032002F04AF9002857D141
S214002360032002F045F9002860D1032002F040F96E
S214002370002869D1032002F03BF9002872D103201F
S21400238002F036F900287BD1032002F031F900284C
S21400239040F08780082490E0654EBFE7644FC1E7B1
S2140023A0DFF88C81C3E71AF041FF1AF040FF61495D
S2140023B0614B18681CF06FF8BEE71AF037FF1AF08A
S2140023C036FF5D4B1C6805F0C7F802460B465B49B6
S2140023D020461CF060F8B4E71AF028FF1AF027FF32
S2140023E0554B1C681CF0D6FD0246554920461CF08D
S2140023F052F8ABE71AF01AFF1AF019FF4E4B1C689A
S2140024001CF0FCFD02464F4920461CF044F8A2E7AB
S2140024101AF00CFF1AF00BFF474B1C681CF0E6FD89
S2140024200246494920461CF036F899E71AF0FEFEA7
S2140024301AF0FDFE404B1C681CF0DCFD02464349CA
S21400244020461CF028F890E71AF0F0FE1AF0EFFE8F
S214002450394B1C681CF0B2FD02463D4920461CF074
S2140024601AF887E71AF0E2FE1AF0E1FE324B1C6813
S2140024701CF0ACFD0246374920461CF00CF87EE7FF
S2140024801AF0D4FE1AF0D3FE2B4B1868324B1A788B
S214002490FF2A04D0314B32491BF0FDFF74E7314B65
S2140024A0F9E71AF0C3FE1AF0C2FE2F49224B18684D
S2140024B01BF0F1FF6EE7013CE4B28CB1032002F0A2
S2140024C097F80028F7D01AF0B1FE1AF0B0FE2B19D4
S2140024D013F8012C2549184B18681BF0DCFFEAE7B7
S2140024E0032002F085F830B9032002F081F860B9C5
S2140024F002B0BDE8F0811AF099FE1AF098FE1C4969
S2140025000D4B18681BF0C7FFEEE71AF08FFE1AF0A7
S2140025108EFECDF800803B463246164906480068D7
S2140025201BF0B9FFE4E700BFD7210020DC2502003E
S214002530E42502000C260200B02800201426020023
S214002540302602004C26020068260200842602007E
S214002550A0260200B8260200D6210020042602008B
S214002560D0260200F0250200E8260200FC26020023
S214002570A04802000427020030B583B08368C26812
S21400258053F822301C7801A920461CF013FD88B9A8
S214002590032002F02DF808B903B030BD1AF046FE4D
S2140025A01AF045FE019B22460B490C4800681BF0BA
S2140025B072FFF1E70546012002F01AF80028EBD07A
S2140025C01AF034FE1AF033FE2A460549034B186803
S2140025D01BF061FFE0E700BF3C270200B0280020A8
S2140025E05827020070B58268C36852F823100C782A
S2140025F0013352F823301D78294620461CF025FD6D
S21400260080B9032001F0F4FF00B970BD1AF00EFE89
S2140026101AF00DFE2B4622460B490C4800681BF0AC
S2140026203AFFF2E70646012001F0E2FF0028ECD070
S2140026301AF0FCFD1AF0FBFD32460549034B1868FC
S2140026401BF029FFE1E700BF7C270200B02800202E
S214002650AC27020008B5022001F0CAFF10B91CF032
S21400266008FD08BD1AF0E2FD1AF0E1FD0249034B31
S21400267018681BF010FFF2E7DC270200B0280020E5
S21400268000B583B08368C26853F822301A78144BBA
S2140026901A70032001F0ACFF10B903B05DF804FB1C
S2140026A01AF0C4FD1AF0C3FD0E4B18680C4B1978CF
S2140026B011F0020F0DD00C4A11F0010F0BD00A4B8F
S2140026C011F0040F09D00849009108491BF0E3FEF9
S2140026D0E3E7074AF0E7064BF2E70549F4E700BFF1
S2140026E0D7210020B0280020DC2502002028020088
S2140026F0E425020008B58368C26853F822301A88B9
S214002700094B1A80032001F073FF00B908BD1AF0C8
S2140027108DFD1AF08CFD044B1A880449044B18688A
S2140027201BF0B9FEF2E700BFA021002054280200EB
S214002730B028002008B50A4B186810B10CF0C8F98C
S21400274008BD012001F054FF0028F9D01AF06EFDF4
S2140027501AF06DFD0349044B18681BF09CFEEFE76A
S214002760D824002070280200B028002010B50346A8
S2140027708168C26851F82200B0F900001A4C208027
S2140027805B689B1A012B0FDD013251F8223093F95A
S2140027900010003918BF01211CF014FCA0B903205A
S2140027A001F026FF10B910BD0021F5E71AF03EFD36
S2140027B01AF03DFD0D4B1C681CF008FC02460C4947
S2140027C020461BF068FEEEE7012001F011FF00280E
S2140027D0E9D01AF02BFD1AF02AFD0649034B1868BB
S2140027E01BF059FEDFE700BF464E0020B028002051
S2140027F098280200AC28020030B595B004460D4675
S21400280068461AF0B5FB0DF12C0EEC46BCE80F003E
S214002810AEE80F00BCE80F00AEE80F00DCF80030B2
S214002820CEF800300BA94D4B18681CF072FE10F164
S214002830880F54D00BA81CF0FAFE484B18681CF002
S21400284050FE68461AF094FB0DF12C0EEC46BCE8E0
S2140028500F00AEE80F00BCE80F00AEE80F00DCF893
S2140028600030CEF800304FF410510BA81AF0A0FB41
S2140028708023ADF82E304FF440730A930AA81AF05E
S21400288088FB0A9B0E93364B0F93344B1A680C9BAF
S2140028900D9213F0FF0F04D123F0FF0343F0010362
S2140028A00C9301230C932D4B2A4621460BA81CF0B3
S2140028B053FE04460BA81CF0BAFE04BB032001F02E
S2140028C097FE80B9254B18681CF06CFB054680BB4C
S2140028D0032001F08DFE044608BB01242EE00BA861
S2140028E01CF0A5FEADE71AF0A1FC1AF0A0FC1B4BED
S2140028F01A681C491C4B18681BF0CDFDE2E7032044
S21400290001F076FE0028DDD01AF090FC1AF08FFC5D
S21400291022461649144B18681BF0BDFDD2E71AF084
S21400292085FC1AF084FC12490F4B18681BF0B3FDA7
S21400293004E0032001F05CFE044610B9204615B002
S21400294030BD1AF073FC1AF072FC2A460949064B91
S21400295018681BF0A0FD0024F0E700BF58240020F4
S21400296000444004C4280200B0280020F4280200D6
S214002970182902003829020000B583B00021019111
S21400298001AA1BF06EF8019910290ED0032001F061
S2140029902FFE60B11AF04AFC1AF049FC10220549D5
S2140029A0054B18681BF077FD01E0FFF725FF03B025
S2140029B05DF804FB58290200B028002008B51CF07A
S2140029C0F5FA032001F014FE00B908BD1AF02EFC3B
S2140029D01AF02DFC0249034B18681BF05CFDF4E767
S2140029E080290200B028002010B582B00023019391
S2140029F004230DEB030201212148006811F01AF8A8
S214002A0028B9019BCBB1042B19D9002300E0002381
S214002A101BB19DF80430012B22D001210091042324
S214002A206A461748006810F0BBFF0446032001F012
S214002A30DFFD30B9012002B010BD0023E8E7012316
S214002A40E6E71AF0F3FB1AF0F2FB0E4B18682CB907
S214002A500D4B01220D491BF01EFDEBE70C4BF8E772
S214002A60032001F0C5FD0028E4D01AF0DFFB1AF0C1
S214002A70DEFB01220749034B18681BF00CFDD9E763
S214002A8098200020B0280020A0290200B8290200C3
S214002A90A8290200E829020008B51CF0EAFA0C484A
S214002AA008F09CFA00230B4A13700B4A137003209D
S214002AB001F09EFD10B900F099FF08BD1AF0B6FBB4
S214002AC01AF0B5FB0549064B18681BF0E4FCF2E764
S214002AD0A08601000A4F0020094F0020142A020099
S214002AE0B028002010B582B06946002002F030F809
S214002AF088B9032001F07CFD08B902B010BD1AF0B9
S214002B0095FB1AF094FB019B009A0B490B48006852
S214002B101BF0C1FCF1E70446012001F069FD002826
S214002B20EBD01AF083FB1AF082FB22460449034BD3
S214002B3018681BF0B0FCE0E7382A0200B028002036
S214002B40682A020010B58AB009F042F801F080FF4A
S214002B50002859D101F04EFAFFF746FF5F4B187078
S214002B60FF2862D0032001F043FD00287AD101201F
S214002B705B4B18601CF0B5FC01A81AF026FA03207F
S214002B8001F036FD002879D1554B1A68029B039256
S214002B9013F0FF0F04D123F0FF0343F00103029369
S214002BA0504B05934FF44073009368461AF01EFA94
S214002BB0009B04934FF4105101A81AF026FA8023C4
S214002BC0ADF8063001230293454B1022464901A872
S214002BD01CF0C2FC044601A81CF029FD002C63D1A1
S214002BE0032001F005FD002852D13D4B18681CF06B
S214002BF0D9F9FFF751FFFFF775FF032001F0F8FC46
S214002C00002861D10AB010BD0446012001F0F0FC96
S214002C1000289FD01AF00AFB1AF009FB2246334917
S214002C20334B18681BF037FC94E7012001F0E0FCFA
S214002C3070B9012001F0DCFC002893D01AF0F6FAF7
S214002C401AF0F5FA2B492A4B18681BF024FC89E782
S214002C501AF0ECFA1AF0EBFA2749254B18681BF025
S214002C601AFCE6E71AF0E2FA1AF0E1FA1B4B1A78B9
S214002C7022491F4B18681BF00EFC78E71AF0D6FAAC
S214002C801AF0D5FA1E491A4B18681BF004FC7BE7AD
S214002C901AF0CCFA1AF0CBFA114B1A681949144BF1
S214002CA018681BF0F8FBA0E7012001F0A1FC002843
S214002CB09BD01AF0BBFA1AF0BAFA224612490C4B0D
S214002CC018681BF0E8FB90E71AF0B0FA1AF0AFFAB3
S214002CD00E49074B18681BF0DEFB93E7D621002051
S214002CE05824002000444004002000208C2A0200C3
S214002CF0B0280020E82A0200C42A02000C2B02009A
S214002D00382B0200602B0200842B0200A42B02004A
S214002D10BFF34F8F0549CA6802F4E062044B1343C1
S214002D20CB60BFF34F8F00BFFDE700BF00ED00E0B4
S214002D300400FA0570B50546C388052B1DD98368BF
S214002D405E789C78DA7844EA02241A7944EA0244E7
S214002D505B7944EA0364032001F04AFCE8B96A8818
S214002D60144B1A80144B1E70144B1C60144B00221C
S214002D701A70144B01221A7070BD012001F038FC45
S214002D800028F9D01AF052FA1AF051FAEA880E49D9
S214002D900E4B18681BF07FFBEEE71AF047FA1AF0A6
S214002DA046FA234632460A49084800681BF073FB79
S214002DB0D5E700BF484E00200B4F0020C02400205F
S214002DC0134F00200C4F0020BC2B0200B028002020
S214002DD0DC2B020030B585B0044601F087FA48BB0C
S214002DE0002501F07BFA08B145F0020501F086FAED
S214002DF008B145F00405B1238DF80C301E4B1B7846
S214002E008DF80D3001238DF80E308DF80F501B4BCA
S214002E101B78019303AB0093042300220221204673
S214002E201CF004F90546B0B9032001F0E1FB18B91F
S214002E3005B030BD0125D4E71AF0F8F91AF0F7F915
S214002E40012300930C4B1B7822460D490D48006861
S214002E501BF021FBECE7012001F0CAFB0028E7D0BD
S214002E601AF0E4F91AF0E3F92A460749054B186800
S214002E701BF011FBDCE700BFD6210020D721002085
S214002E801C2C0200B02800204C2C020008B5C38879
S214002E90012B05D983685B78044A12789A4200D0E1
S214002EA008BD4088FFF796FFFAE700BFD62100204E
S214002EB030B585B00446F1238DF80C30164B1B78E0
S214002EC0019303AB00930123002202211CF0AEF80D
S214002ED080B9032001F08CFB08B905B030BD1AF0AC
S214002EE0A5F91AF0A4F922460C490D4B18681BF0F8
S214002EF0D2FAF2E70546012001F07AFB0028ECD072
S214002F001AF094F91AF093F92A460649044B186801
S214002F101BF0C1FAE1E700BFD72100206C2C0200AD
S214002F20B02800208C2C020008B51BF0B7FD014B22
S214002F30186008BDD024002010B586B0284B1B783A
S214002F40FF2B21D01CF04EF8A0238DF80C30244B1C
S214002F501B788DF80D3002684368CDF80E20CDF84A
S214002F601230204B1B78019303AB00930A230022F8
S214002F70022110461CF05AF8044600BB032001F05C
S214002F8037FB80B906B010BD012001F031FB0028E8
S214002F90F8D01AF04BF91AF04AF91349134B18688F
S214002FA01BF079FAEEE71AF041F91AF040F90C4BEB
S214002FB01A780F490D4B18681BF06DFAE2E70120EE
S214002FC001F016FB0028DDD01AF030F91AF02FF9C0
S214002FD022460849054B18681BF05DFAD2E700BF89
S214002FE0D6210020D7210020A82C0200B0280020DF
S214002FF0DC2C0200FC2C0200094B1B7803B970473E
S21400300000B583B0FFF798FF002301930093054AAD
S21400301042F2107104481AF003F803B05DF804FB9E
S2140030200A4F0020F92F00006024002000B583B06E
S214003030A8B1124B1B7813B103B05DF804FB012056
S2140030401AF00AF80D4B01221A7000230193009320
S2140030500B4A4FF47A710B481BF02CFDECE7074B3C
S2140030601B78002BE8D001201AF003F8034B00224F
S2140030701A70044807F018F9DEE700BF144F002066
S2140030801FD00100DC24002010B582B01BF082FFA8
S214003090022802D0D0B102B010BD032001F0A8FA79
S2140030A050B91BF0E6FF264B4FF4FA621A601BF08D
S2140030B0F5FC244B1860EEE71AF0B8F81AF0B7F8EB
S2140030C02149224B18681BF0E6F9EAE70023009333
S2140030D0ADF804304FF6FF73ADF800301BF0DEFCA1
S2140030E0184B1860694603201BF0BBFF044698B9CE
S2140030F0174B01221A70032001F07AFA0028CAD072
S2140031001AF094F81AF093F8BDF8042011490F4B02
S21400311018681BF0C0F9BEE70D4B00221A7001209C
S21400312001F066FA0028B6D01AF080F81AF07FF898
S21400313022460949054B18681BF0ADF9ABE700BFFE
S21400314010200020D0240020182D0200B0280020D7
S214003150094F00205C2D0200782D020010B50021DA
S214003160084601F0C7FD98B901F06AFD124B01222E
S2140031701A70032001F03CFA00B910BD1AF056F898
S2140031801AF055F80D490E4B18681BF084F9F4E751
S2140031900446094B00221A70012001F029FA002883
S2140031A0EBD01AF043F81AF042F822460549044BD1
S2140031B018681BF070F9E0E7114F0020AC2D0200F4
S2140031C0B0280020C82D020008B500F0E9FF032053
S2140031D001F00EFA10B901F08DFC08BD1AF026F8C1
S2140031E01AF025F80249034B18681BF054F9F2E769
S2140031F0EC2D0200B0280020C38843B330B583B05E
S214003200044683681D780379022B07D00D2B03D064
S214003210032001F0EDF958B903B030BDB02D04D04D
S214003220F02DF3D1FFF786FDF6E7FFF72FFEF3E765
S21400323019F0FCFF19F0FBFFE38801930095237952
S21400324062880349034800681BF025F9E4E77047E5
S214003250182E0200B028002018B9204B00221A7041
S214003260704710B582B00446032001F0C1F958B982
S2140032701B4B1B7833B1194A13780133DBB213703A
S214003280022B11D802B010BD19F0D0FF19F0CFFFF5
S214003290124B1B7803220092013322461149124832
S2140032A000681BF0F8F8E3E7012001F0A1F958B92F
S2140032B000230A4A13700A4A13700C4B4FF4FA6242
S2140032C01A60FFF731FEDDE719F0B0FF19F0AFFF27
S2140032D00749054B18681BF0DEF8E9E7104F002099
S2140032E00A4F0020442E0200B028002010200020A4
S2140032F0602E020030B583B0902812D00446912884
S21400330068D0032001F074F9002840F08680484B0E
S2140033101B78002B75D0464B00221A70FFF704FE70
S2140033206FE0032001F064F9A0B91BF05FFE58BB04
S214003330012001F05DF9E8B900233E4A13703C4ACB
S21400334013703D4A13603D4806F0AEFF3C4B012229
S2140033501A7056E019F06AFF19F069FF394B1C68BD
S2140033601BF044FE0246384B1B78384920461BF0BB
S21400337092F8DAE719F05AFF19F059FF3449314B41
S21400338018681BF088F8D7E72A4B01221A70002429
S214003390274B1C702F4B4FF4FA621A602E4B1C7092
S2140033A02046FFF743FE1BF079FB234B1860234DA6
S2140033B0284606F079FF019400942346274A4FF4E6
S2140033C07A71284619F02CFE254B1B6913F0200F46
S2140033D0FAD016E0032001F00BF9A0B90023154A35
S2140033E01370134A1370144A13601A4B4FF4FA62A0
S2140033F01A600120FFF71AFE104806F055FFFFF787
S21400340093FD03B030BD19F011FF19F010FF1549F8
S2140034100C4B18681BF03FF8E0E719F007FF19F0AF
S21400342006FF22461049074B18681BF034F86EE773
S214003430094F00200A4F0020C424002060240020EA
S2140034400D4F0020B0280020D6210020842E020038
S214003450B02E020010200020104F0020F92F000090
S21400346000000140002F0200102F020010B500F0EF
S2140034704BFF924B1B7893B9914B1B7823B3914B20
S2140034801B784BB3904B1B78002B57D08F4B0022EA
S2140034901A608F4B1B78002B40F0C48010BD874B02
S2140034A000221A70012001F0A3F818B91BF0E1FD04
S2140034B0FFF72EFC19F0BAFE19F0B9FE8549864BC7
S2140034C018681AF0E8FFF1E71BF0E8FA834B18607B
S2140034D07B4B01221A70D2E71BF0E0FA04467A4BC7
S2140034E01B7813B17E4B186888B900F0F7FE0028E9
S2140034F0C8D07A4B1868201A07F03AF8794B9842E9
S214003500C0D9012001F074F870B9FFF701FC201A49
S21400351007F02EF843F697239842E6D900F070FE9F
S214003520684B01221A70ADE719F080FE19F07FFE95
S2140035306D49694B18681AF0AEFFE6E70120FFF701
S21400354075FD1BF0ABFA0446604B1868F8B91C60B2
S214003550664B1868201A07F00BF80446644B1B7875
S214003560002B3ED043F69823984297D9012001F0CD
S2140035703FF840BB5E4B00221A701BF00BFD68BB89
S2140035805C4B4FF4FA621A60FFF7CEFC86E7201A0F
S21400359006F0EEFF584B9842DAD9012001F028F8E1
S2140035A030B9564B1B6913F0200FFAD0FFF7B0FB6B
S2140035B019F03CFE19F03BFE4F4A5149464B18683D
S2140035C01AF069FFEDE719F031FE19F030FE2246D9
S2140035D04C49414B18681AF05EFFCBE71BF049FDDB
S2140035E0CEE7444B1B6883423FF658AF032000F0FB
S2140035F0FFFF58B9FFF748FD3E4A13685B0044F6E4
S21400360020618B4228BF0B46136047E719F00EFE79
S21400361019F00DFE374B1A683B492F4B18681AF005
S2140036203AFFE7E72A4B1A70032000F0E1FFE0B903
S214003630002001F0E7FA044608BB344B1A88344BE6
S2140036401A80344B1A78344B1A70344B1A68344B41
S2140036501A60344B01221A70032000F0C9FFF8B933
S2140036602B4B1888FFF724FC18E719F0DFFD19F03C
S214003670DEFD2D49184B18681AF00DFFD8E701201B
S21400368000F0B6FF00283FF409AF19F0CFFD19F09F
S214003690CEFD22462549104B18681AF0FCFEFDE6C2
S2140036A019F0C4FD19F0C3FD1D4B1B681A4A1278A9
S2140036B01F49094800681AF0EEFED1E70D4F0020BA
S2140036C00E4F00200F4F00200A4F0020CC24002071
S2140036D00C4F0020282F0200B0280020C82400200D
S2140036E0C42400201FBF0200642F0200D024002044
S2140036F0094F002010200020E09304000000014045
S214003700A42F0200E02F02000C300200484E0020DA
S2140037104A4E00200B4F0020124F0020C0240020ED
S214003720D4240020134F002028300200403002002E
S21400373074300200F0B583B006460F4614461D46A8
S214003740032000F055FF40B90A4A17700A4B1C6068
S21400375000232B60012003B0F0BD19F067FD19F0BF
S21400376066FD00943B4632460449054800681AF058
S21400377092FEE9E7124F0020D4240020AC3002006D
S214003780B028002070B582B00D461446531A013397
S214003790069A002001F018FAC8B9214B1B68DBB165
S2140037A0651C642204FB0222B2FBF3F41D4AA2FB52
S2140037B004311D4B1B68A2FB0323DB08B3EBD10FC0
S2140037C018D3632C08D9184B00221A6004E006466A
S2140037D0012000F00DFF08B902B070BD19F026FDFB
S2140037E019F025FD33462A461049114800681AF09C
S2140037F052FEF1E7032000F0FBFE10B90A4B1C60F6
S214003800DFE719F013FD19F012FD054B1B68009356
S2140038102B4622460749064800681AF03CFEEDE7AC
S214003820D4240020CDCCCCCC5C240020E030020098
S214003830B02800200831020070B582B0E8B90C4606
S2140038401546032000F0D4FE58B90023154A13701D
S21400385001930093144A6421144819F0E1FB02B066
S21400386070BD19F0E3FC19F0E2FC2B462246104925
S214003870104800681AF00FFEE7E70646012000F041
S214003880B7FE18B9074B00221A70E8E719F0CEFC0D
S21400389019F0CDFC32460849064B18681AF0FBFDB5
S2140038A0F0E700BF114F00205D31000080240020AB
S2140038B028310200B02800205831020070B582B0CE
S2140038C005461446032000F093FEA0B91D4B1E7853
S2140038D0EEB1032000F08CFE40BB0025019500955C
S2140038E02B46194A2146194819F09AFB154B1D70AC
S2140038F0304602B070BD19F099FC19F098FC2346CA
S2140039002A461349134800681AF0C5FDDEE7012071
S21400391000F06EFE0028EBD019F088FC19F087FC4A
S2140039200D490C4B18681AF0B6FDE1E719F07EFC5D
S21400393019F07DFC22460949064B18681AF0ABFDC3
S214003940CBE700BF114F0020C9310000A0240020A3
S21400395080310200B0280020B4310200D8310200C5
S21400396010B580B10446012000F042FE00B910BD3B
S21400397019F05CFC19F05BFC22460A490A4B1868F1
S2140039801AF089FDF3E7032000F032FE0028EED09F
S21400399019F04CFC19F04BFC0449034B18681AF05C
S2140039A07AFDE4E7F4310200B02800201432020069
S2140039B0F0B583B004460D4616461F46032000F0B9
S2140039C017FE08B903B0F0BD19F030FC19F02FFC53
S2140039D0019700962B4622460249034800681AF0D3
S2140039E05AFDEFE72C320200B028002010B5012067
S2140039F0FFF71CFB084B4FF4FA621A60074B0022D5
S214003A001A601BF04BF8044640F2A46006F046FD30
S214003A10241A034B1C6010BD10200020CC2400206C
S214003A20D024002010B584B00D4BEC460FCBACE88C
S214003A3007008CF8003001238DF803308DF8043031
S214003A4000238DF808300E238DF80930054C6946A2
S214003A50204619F017FF204619F005FF04B010BDE8
S214003A60B838020000200540044B00221A605A6055
S214003A709A60DA60024A1A60704700BFFC24002091
S214003A803152474610B58EB001A801F049F8059AA4
S214003A900AB3D3680BB94FF4805329490B601469F5
S214003AA04CB3B4F5E01F26D3B4F5001F23D34FF470
S214003AB0C012B2FBF3F203FB02F2B2F5C01F2CD128
S214003AC04FF4E012B2FBF3F202FB03F3B3F5E01F90
S214003AD023D1012014E0012000F08AFD08B900205F
S214003AE00EE019F0A3FB19F0A2FB1649164B186856
S214003AF01AF0D1FCF3E7012000F07AFD10B900209F
S214003B000EB010BD19F092FB19F091FB22460F493A
S214003B100D4B18681AF0BFFCF1E7012000F068FDB5
S214003B2008B90020ECE719F081FB19F080FB044B84
S214003B301A680749044B18681AF0ADFCF1E700BF95
S214003B401420002058320200B028002088320200DC
S214003B50D032020008B51023044A03210448006846
S214003B600FF01EFFB0FA80F0400908BDFC240020CC
S214003B709820002008B510230F4A03210F4800683C
S214003B800FF058FF20B90C4B1A680D4B9A4207D01D
S214003B90032000F02DFD20B9FFF766FFFFF7DAFFE0
S214003BA008BD19F043FB19F042FB0649064B18689E
S214003BB01AF071FCF0E700BFFC24002098200020DB
S214003BC03152474618330200B02800202DE9F04154
S214003BD0ADF5007D674BD979674A52F821809E681B
S214003BE0731EB3F5802F33D2002001F00BF80028A7
S214003BF042D1033626F003060024B4427FD2351B9A
S214003C00B5F5807F28BF4FF4807504EB08072A4679
S214003C1040A9384601F098F800283DD12B4640AA26
S214003C202146002000F0D0FF002846D12B466A46E9
S214003C302146002000F0AAFF00284FD12A466946F8
S214003C4040A81EF0A7F9002848D104F58074D4E7F0
S214003C50012000F0CDFC20B900200DF5007DBDE868
S214003C60F08119F0E3FA19F0E2FA32464349444B80
S214003C7018681AF010FCEFE7012000F0B9FC08B94C
S214003C800020EAE719F0D2FA19F0D1FA3D493C4B88
S214003C9018681AF000FCF3E7012000F0A9FC08B948
S214003CA00020DAE719F0C2FA19F0C1FA3A463649A6
S214003CB0334B18681AF0EFFBF2E7012000F098FC8F
S214003CC008B90020C9E719F0B1FA19F0B0FA22468F
S214003CD02E492B4B18681AF0DEFBF2E7012000F0A5
S214003CE087FC08B90020B8E719F0A0FA19F09FFA87
S214003CF022462749224B18681AF0CDFBF2E700212E
S214003D00084600F0F7FF58B9002000F099FFB8B950
S214003D10032000F06DFC18BB00F0ECFE01209CE7D1
S214003D20012000F065FC08B9002096E719F07EFA3D
S214003D3019F07DFA1749124B18681AF0ACFBF3E736
S214003D40012000F055FC08B9002086E719F06EFA4D
S214003D5019F06DFA10490A4B18681AF09CFBF3E745
S214003D6019F064FA19F063FA0C49054B18681AF052
S214003D7092FBD1E7FC240020B03802004833020052
S214003D80B02800206C3302008C330200B0330200EF
S214003D90D0330200F833020020340200443402001C
S214003DA02DE9F047ADF5047D0021084600F0A2FF9E
S214003DB000283AD182A9002000F0CAFE002847D188
S214003DC0002404F10803839A934251D808236A46D4
S214003DD02146002000F0DAFE002840F090809DF892
S214003DE000309DF8012043EA02239DF8022043EAB2
S214003DF002439DF8032043EA02629DF804309DF8D2
S214003E00051043EA01239DF8061043EA01439DF896
S214003E10071043EA01638399994272D3234403F15E
S214003E200804694B9A42CCD123E0012000F0E0FB65
S214003E3020B900200DF5047DBDE8F08719F0F6F9ED
S214003E4019F0F5F96149624B18681AF024FBF0E79F
S214003E50012000F0CDFB08B90020EBE719F0E6F9E9
S214003E6019F0E5F95B495A4B18681AF014FBF3E7AA
S214003E700024631EB3F5802F45D2574B93F807A056
S214003E80BAFA8AFA4FEA5A1A544B53F82A904FF461
S214003E908021484600F094FF002847D104F103082B
S214003EA028F003080026464580F08480A8EB060527
S214003EB0B5F5807F28BF4FF480752B4642AA314661
S214003EC0002000F063FE002841D106EB09072A46D1
S214003ED042A9384600F056FF002849D12A4602A9D2
S214003EE0384600F031FF002853D12A4602A942A8DE
S214003EF01EF050F800284CD106F58076D3E7002453
S214003F00B7E70024B5E7012000F072FB08B90020EF
S214003F1090E719F08BF919F08AF94FF480232246BE
S214003F202F492B4800681AF0B6FAF0E7012000F097
S214003F305FFB08B900207DE719F078F919F077F9EA
S214003F404A462849224B18681AF0A5FAF2E70120DB
S214003F5000F04EFB08B900206CE719F067F919F07D
S214003F6066F9324620491A4B18681AF094FAF2E7B6
S214003F70012000F03DFB08B900205BE719F056F978
S214003F8019F055F93A461949114B18681AF083FA90
S214003F90F2E7012000F02CFB08B900204AE719F0F0
S214003FA045F919F044F93A461149094B18681AF0D0
S214003FB072FAF2E7084B83F807A09C6001221A7396
S214003FC0FFF7C8FD36E700BFFC0404FC78340200A7
S214003FD0B0280020B0340200FC240020B0380200D4
S214003FE0D43402000C350200343502005435020089
S214003FF07835020010B584B0FFF714FDFFF7BAFD60
S214004000FFF740FD5B4B1870032000F0F1FA20B973
S214004010594B9B79BBB904B010BD19F007F919F0DC
S21400402006F9554AD379117B9068524C247803944C
S2140040300290019100939388927950495048006805
S2140040401AF029FAE4E74C4A938801339380FFF785
S21400405081FD08B3032000F0CBFA60BB464B9B887B
S214004060042BD8D9434B1B781BB1434B1B7B002B2F
S21400407042D1012000F0BCFA50BB012000F0B8FA93
S21400408000282FD13C4B9B88052BC4D93A4B0522E0
S2140040909A80FFF75FFDBEE7012000F0A9FA00282E
S2140040A0D8D019F0C3F819F0C2F83649344B18685E
S2140040B01AF0F1F9CEE719F0B9F819F0B8F80523B7
S2140040C02D4A928830492E4800681AF0E4F9C5E770
S2140040D019F0ACF819F0ABF82C49294B18681AF00F
S2140040E0DAF9CAE719F0A2F819F0A1F82849244B22
S2140040F018681AF0D0F9C5E7032000F079FAC8B9B5
S2140041001D4B00229A8001229A71FFF723FDFFF7CC
S2140041105DFDF8B1012000F06BFA00283FF47BAF9C
S21400412019F084F819F083F81A49154B18681AF034
S214004130B2F970E719F07AF819F079F8104B1868A8
S2140041400D4BDB7923B1422213491AF0A4F9D7E7C5
S2140041504122F9E7012000F04BFA00283FF45BAF5C
S21400416019F064F819F063F80C49054B18681AF052
S21400417092F950E7154F0020FC240020A4350200D9
S214004180B0280020F0350200243602004436020033
S2140041908C360200F4360200CC3602002C370200C1
S2140041A008B5134B01229A7100229A80FFF7D2FCC1
S2140041B070B9012000F01CFA00B908BD19F036F8F5
S2140041C019F035F80B490C4B18681AF064F9F4E747
S2140041D0032000F00DFA0028EFD019F027F819F0A8
S2140041E026F80649044B18681AF055F9E5E700BFAB
S2140041F0FC24002064370200B0280020A03702000C
S21400420008B52F4B9B792BB92D4A127B12B12C4A3D
S214004210928892B113B92A4B1B7B13B9294B1B7892
S21400422063B9274B00229A719A80FFF793FC002807
S21400423037D1012000F0DCF948BB08BDFFF7B0FD20
S214004240B0B1032000F0D4F90028EAD018F0EEFF51
S21400425018F0EDFF1C4B1868194BDB7933B142227E
S214004260174B9B6819491AF016F9DAE74122F7E767
S214004270012000F0BDF90028D3D018F0D7FF18F0C1
S214004280D6FF1349104B18681AF005F9C9E718F05D
S214004290CDFF18F0CCFF0F490B4B18681AF0FBF84F
S2140042A0CBE7032000F0A4F90028C6D018F0BEFF24
S2140042B018F0BDFF0849044B18681AF0ECF8BCE784
S2140042C0FC240020154F0020B0280020D83702001C
S2140042D0183802005438020080380200024B9879E1
S2140042E0003818BF01207047FC240020024B187BC2
S2140042F0003818BF01207047FC240020014BD879F5
S214004300704700BFFC24002008B5024819F0ABFA3D
S21400431008BD00BF0020054008B5024B1B6803B16E
S214004320984708BD3C25002008B5024B5B6803B1E2
S214004330984708BD3C25002008B5024B9B6803B192
S214004340984708BD3C25002008B5024BDB6803B142
S214004350984708BD3C25002008B5024B1B6903B1F1
S214004360984708BD3C25002008B5024B5B6903B1A1
S214004370984708BD3C25002030B585B0094C22681A
S214004380094B1A60094D0A4B2B600A4B019304F047
S214004390D9FE02902B68039301A9206819F083FBCD
S2140043A005B030BD34200020843300208033002048
S2140043B0282000200842020008B5024B186819F0B1
S2140043C086FB08BD3420002038B504F0BBFE04464A
S2140043D0064D2B68D3F8B00204F0A8FE286819F042
S2140043E090FB204604F0A2FE38BD00BF342000201B
S2140043F038B501F0F9FE01210D4801F0C7FA012297
S2140044001146002001F034FE0A4C0225C4F8805004
S21400441001221146002001F02BFEC4F88450012230
S2140044201146002001F024FEC4F88850002038BD54
S21400443030253E0000400E4008B5164B01225A6457
S21400444003F092F8024668B9134B4AF6E851C3F8EF
S2140044509011D3F8981141F00401C3F89811002187
S214004460C3F89011012A0DD90C4A136A23F4441399
S21400447043F488131362A2F58042136843F48073F2
S214004480136008BD044AD2F8643143F40053C2F8FE
S2140044906431E9E700000E4000300E4000400E4058
S2140044A008B50121034801F071FA034800F0FEFD4B
S2140044B008BD00BF00350A0038200020012900D9B9
S2140044C0704708B5034B1B68186808B1436A9847DD
S2140044D008BD00BF5020002030B599B0284D11AC63
S2140044E0AC46BCE80F000FC49CE8070084E8070051
S2140044F000240B940C940D940E940F941094214B5E
S2140045000B93214B0C9301228DF8372002238DF854
S214004510393003238DF83B301E238DF83F308DF85D
S214004520403009AB1C3595E8030083E803000DF125
S2140045300C0C0394049405940694079408948CE851
S21400454003000C238DF814300D238DF815300F4B17
S2140045500693202307938DF820208DF821200C4BFE
S21400456000930BAB11AA61460A4804F0C3FF054648
S21400457021464FF4E13018F099FE284619B030BDB8
S21400458020420200000001400042040010280020E3
S214004590302800208428002008B50349034805F089
S2140045A011FBFFF799FF08BD54200020A828002023
S2140045B008B502481AF083F908BD00BF8428002019
S2140045C008B502481AF07BF908BD00BF8428002011
S2140045D008B5024B1A6A1868904708BD8428002060
S2140045E008B5024818F0C6FE08BD00BF44420200E7
S2140045F003460B4A107828B10A4A12789A4202D229
S214004600002000E00120084A12783AB1074A1278E2
S21400461042FA03F313F0010F00D10020704700BFE9
S214004620DA210020D9210020164F0020D8210020B2
S21400463008B5084B01221A70074B00221A70074B68
S21400464004221A70064B1F221A7004F07BFD054BDD
S214004650186008BDDA210020164F0020D92100205E
S214004660D8210020B028002000B591B000F0F0F965
S21400467050B903A800F054FA069BABB901200F4BC3
S214004680187011B05DF804FB0120FFF7B1FF08B900
S2140046900020F6E718F0CAFD18F0C9FD0849094BD6
S2140046A0186819F0F8FEF3E701A9002000F050FAA8
S2140046B00028E3D1019A044B1A60DFE7174F002069
S2140046C05C420200B0280020B428002008B5064B43
S2140046D01B782BB100F0E6F9034B00221A7008BDD8
S2140046E0FFF7C2FFF6E700BF174F002008B501210D
S2140046F0054801F04BF918F0FAFC012018F0AEFD61
S21400470000F076F808BD00BF00350A0008B50121A4
S214004710014801F03BF908BD00350A002DE9F041DB
S21400472080460F4601F109050026344604E05B2169
S214004730082000F093FC0134AC4233D2052C1BD881
S21400474001A353F824F000BF2F4700006147000084
S21400475095470000694700006D470000714700005C
S214004760FBB20433D9B2E3E78021E1E70021DFE7BB
S214004770731C3146DEB2DBE7BB1DA3420CD0FB1D2B
S214004780A3420BD007F10803A34209D0A31F18F8D1
S2140047900310CDE7D121CBE75A21C9E75A21C7E755
S2140047A05D21C5E70020BDE8F08100BF00B583B0FD
S2140047B000220092019202218DF80010054818F0A0
S2140047C05FFD019008216846FFF7A8FF03B05DF87B
S2140047D004FB00BF006A1800014B1022DA60704725
S2140047E000A00044014B1022DA60704700A000468B
S2140047F070B588B00DF1040C374C0FCCACE80F0048
S21400480094E807008CE807000121344801F0BEF860
S214004810334E0121304601F0B9F801258DF81250CB
S214004820304B0393304C01A9204618F0C0FF2B46AE
S21400483004220621022002F045FB00232A46072117
S214004840022002F03FFB2B4604220821022002F041
S21400485039FB2B4604221146002002F033FB234B83
S214004860A3670B2363674FF4487006F0B7FBFFF7A8
S214004870B3FF142006F0B2FBFFF7B4FF232006F0C8
S214004880ADFBFFF7A9FFB921204618F0DAFFFFF7C6
S214004890A9FF00231A460621022002F013FB00237C
S2140048A01A460721022002F00DFB2B4600220821A3
S2140048B0022002F007FB2B4600220421104602F0DD
S2140048C001FB204602F0AAFE0021A1676167304680
S2140048D001F05CF808B070BD7842020000350A00AE
S2140048E00052040000127A00000401400B0B000B7B
S2140048F008B500F087F8124A0AE01068516850F8C8
S214004900230041F82300013391688B42F5D30C3223
S2140049100C4B9A4201D20023F6E70B4A08E01168D6
S214004920002041F82300013351688B42F7D3083248
S214004930064B9A4201D20023F6E7FDF7FDFA00BFC8
S214004940686E0200746E0200746E0200746E0200DE
S2140049500048704700F04902114BD3F8943003F03A
S2140049600703023B032B0DD8DFE803F0050F020810
S2140049700C4B18680BE00C4B186808E00B4B1868DB
S214004980400804E0094B186801E04FF40040044B6F
S214004990D3F80031C3F304230133B0FBF3F07047C0
S2140049A000400E406C200020702000206420002074
S2140049B008B5FFF7D1FF054BD3F80831C3F308233A
S2140049C00133B0FBF3F0024B186008BD00400E4008
S2140049D068200020014B1868704700BF7020002038
S2140049E008B5064B1860064BD3F8943003F007035F
S2140049F0022B00D008BDFFF7DBFFFBE7702000208E
S214004A0000400E40044B054A9A60D3F8882042F4D2
S214004A107002C3F88820704700ED00E00000000038
S214004A20014B1868704700BF6C200020BFF34F8F03
S214004A300549CA6802F4E062044B1343CB60BFF337
S214004A404F8F00BFFDE700BF00ED00E00400FA0551
S214004A5008B5114BD3F82828A2F17E63A3F584335A
S214004A60B3F5104F11D211680C4B994210D10C4B74
S214004A701B781BB1022B01D0002008E0D3699847B1
S214004A8028B9074B01221A7001E04FF4817008BD67
S214004A904FF48170FBE700BF0000E10F07B0CD5E6A
S214004AA0184F002008B5104BD3F82828A2F17E63D3
S214004AB0A3F58433B3F5104F10D211680B4B99420F
S214004AC00FD10B4B1B78012B01D0002008E0136A96
S214004AD0984728B9064B02221A7001E04FF48170FD
S214004AE008BD4FF48170FBE70000E10F07B0CD5E14
S214004AF0184F002008B54FF0005340F202221A80EB
S214004B004FF20F025A80054A01239360136823F47C
S214004B10E06343F480631360FFF788FF00500E40A5
S214004B2008B50A4BD3F82828A2F17E63A3F5843390
S214004B30B3F5104F09D2126BA2F17E63A3F584334E
S214004B40B3F5104F01D25368984708BD0000E10F37
S214004B5008B50D4BD3F82828A2F17E63A3F584335D
S214004B60B3F5104F0AD2126BA2F17E63A3F584331D
S214004B70B3F5104F05D29368984701E04FF4817063
S214004B8008BD4FF48170FBE70000E10F38B50D4C0F
S214004B90D4F82848A4F17E6CACF5843CBCF5104FE4
S214004BA00AD2256BA5F17E64A4F58434B4F5104FC3
S214004BB005D2EC68A04701E04FF4817038BD4FF491
S214004BC08170FBE70000E10F38B50D4CD4F828489B
S214004BD0A4F17E6CACF5843CBCF5104F0AD2256B74
S214004BE0A5F17E64A4F58434B4F5104F05D22C6983
S214004BF0A04701E04FF4817038BD4FF48170FBE7A9
S214004C000000E10F08B50D4BD3F82828A2F17E630B
S214004C10A3F58433B3F5104F0AD2126BA2F17E636C
S214004C20A3F58433B3F5104F05D25369984701E0D6
S214004C304FF4817008BD4FF48170FBE70000E10F70
S214004C4000B583B001900F4BD3F82828A2F17E63FD
S214004C50A3F58433B3F5104F0CD2126BA2F17E632A
S214004C60A3F58433B3F5104F09D29369012101A847
S214004C70984701E04FF4817003B05DF804FB4FF4F1
S214004C808170F9E70000E10F10B50A4BD3F8284809
S214004C90A4F17E63A3F58433B3F5104F04D2236BDF
S214004CA02BB15B6A984701E04FF4017010BD4FF4DA
S214004CB00170FBE70000E10F08B50D4BD3F828287C
S214004CC0A2F17E63A3F58433B3F5104F0AD2126BBC
S214004CD0A2F17E63A3F58433B3F5104F05D2936A31
S214004CE0984701E04FF4017008BD4FF40170FBE7F0
S214004CF00000E10F30B5E1B0124BD3F82838A3F12D
S214004D007E63A3F58433B3F5104F15D20C464FF4EB
S214004D10C0726946FFF7B8FF054678B9214668466F
S214004D20FFF7CAFF40F201239842F7D040F2032370
S214004D30984203D0054601E04FF40175284661B05D
S214004D4030BD00BF0000E10F10B50D4BD3F828486A
S214004D50A4F17E63A3F58433B3F5104F0AD2246B17
S214004D60A4F17E63A3F58433B3F5104F05D2636BCD
S214004D70984701E040F2011010BD40F20110FBE739
S214004D800000E10F10B50D4BD3F82848A4F17E6360
S214004D90A3F58433B3F5104F0AD2246BA4F17E63D7
S214004DA0A3F58433B3F5104F05D2A36B984701E003
S214004DB040F2011010BD40F20110FBE70000E10FC9
S214004DC008B50D4BD3F82828A2F17E63A3F58433EB
S214004DD0B3F5104F0AD2126BA2F17E63A3F58433AB
S214004DE0B3F5104F05D2D36B984701E040F201109F
S214004DF008BD40F20110FBE70000E10FF0B1844669
S214004E00F1B110B409E004F120000FE02033C01A1D
S214004E1018D1BCB10CF1010C01319CF800400B4BD1
S214004E201B5D03F00303012BEDD020460B78074AE9
S214004E30D25C02F00302012AE9D1E7E701207047BD
S214004E40012070475DF8044B704700BF036D0200F9
S214004E500346064A10680344054A934202D8034AAA
S214004E60136070474FF0FF30704700BF742000207B
S214004E70000004200B681A78022A00D1704710B58B
S214004E8008461A79597902EB42021201064C14447C
S214004E9001EBC40292001268B2FA82F252091A704A
S214004EA018F06FFA10BD00BF1CA0100230B583B01A
S214004EB0054604680121174800F068FD002301221A
S214004EC06179207901F0FEFF2379627903EB4303D1
S214004ED01B011149194402EBC1039B001B68B3FA7E
S214004EE083F35B092370A379022B02D0002003B062
S214004EF030BD00F0E9FB2A460849607900F00CFC5A
S214004F0002466179207901230193009301F084FF22
S214004F10ECE700BF00350A001CA01002754E00002A
S214004F2002681378022B15D01379517903EB4303EB
S214004F301B011548184401EBC0039B0019680B1EA3
S214004F4018BF01239079012805D018B9B1FA81F16C
S214004F504909117070475188490089B20B4343F4E0
S214004F607F4343F0C0034FF6E0718B4205D04FF607
S214004F70DF718B4204D05380704701211170FAE72D
S214004F8000211170F7E700BF1CA0100208B5012130
S214004F90294800F0FBFC012304220221052001F031
S214004FA091FF002001F02CFF0121244BC3F81018BC
S214004FB00A46042001F05CF8214800F0A5FE214BCB
S214004FC0D3F8F02042F00102C3F8F020D3F8FC201A
S214004FD042F08072C3F8FC20A3F55D431A4A1A60BB
S214004FE000F5D52000F2FC40C008184BA3FB0030AB
S214004FF0800A0138164B18610222C3F8F0204FF4DD
S2140050008072C3F804234FF06043124AC3F8B02FEF
S214005010114AC3F8802ED3F8002E42F48072C3F8EB
S214005020002EFF2283F82020D3F8002E22F4807270
S214005030C3F8002E002008BD00350A000080144288
S21400504006000E0000ED00E0FF0300401791650229
S214005050000004E055CEACC5090001004FF06043E7
S214005060D3F8803E13F0010F01D1112070470E4A8D
S214005070D2F8FC3043F08073C2F8FC304FF0604347
S214005080D3F8002E4FF0010C0CFA00FC42EA0C029A
S214005090C3F8002E53F82030002BE8D04FF06043C2
S2140050A003F820100020704700ED00E070B584B0D3
S2140050B0044601212A4800F069FC2368294A9342E5
S2140050C015D002F58062934247D12748012100F0AF
S2140050D05DFC01230A226179207901F0F3FE0123A9
S2140050E00A22E179A07901F0EDFE00251AE01F48BA
S2140050F0ECE72379617903EB43031B01012606FAEB
S21400510001F11B4AD150642005F068FF23796279CB
S21400511003EB43031B019640164AD650642005F065
S2140051205DFF0135092DE4DD236803225A64637AA6
S214005130227A43EA02232268936401238DF8003022
S2140051408DF8013023690293E3680193237D8DF87F
S2140051500C306946206801F047FF04B070BD00BF00
S2140051604041050000C00040009204000082040098
S2140051700CA000440CA00046F0B585B00C46944642
S2140051809DF83410664A1278002A00F0BD80054665
S214005190BCF1070F00F2BA800A9A002A00F0B88025
S2140051A00B9A002A00F0B6800E9AB2F5006F00F354
S2140051B0B38001285BD05B4A02EB0C12127B002AFC
S2140051C000F0AC8000220092019202920392564AAE
S2140051D002EB4C1E002C4FD14FEA4C16002090518B
S2140051E0CEF80400CEF80800CEF80C009EF80200B8
S2140051F040F010008EF802009EF8030040F03000E9
S2140052008EF8030021B9C1B241F003018EF80310F5
S21400521000930E9B013B444A4FEA4C1002EB4C11A4
S214005220165A63F30E1616520A9B8B600B9B4B6046
S214005230CB789DF83C2062F38303CB70012D36D0EB
S214005240109B002B56D0374A4FEA0C1102EB0C137A
S21400525010985050119A5A6000249C605D737246F4
S2140052606946604601F02AFF204605B0F0BD0C9A5C
S214005270002AA0D12D48F8E72B4F4FEA4C1607EB33
S2140052804C120020B85150609060D060907840F08A
S21400529010009070D07840F00300D0700029B7D18D
S2140052A007EB4C12C1B241F03001D170B0E70E46A8
S2140052B00A7B42F001020A73D2B242F002020A737B
S2140052C0CA68042161F39F02F26006F1100796E8AF
S2140052D00F0087E80F00F2696FF0030161F39F0289
S2140052E0F2610C9B7361012CAAD10B9AB2610C9AE5
S2140052F07260A5E7002DA6D10B4B03EB4C139A78F2
S2140053006FF304129A709EE70948AEE70748ACE7C9
S2140053100648AAE70548A8E70448A6E70548A4E71C
S214005320194F0020B8290020B8280020018000F07E
S214005330028000F0078000F0134B1B78FBB110B51D
S2140053400446F0B118F0DBF80023072B13D80F4AF9
S21400535002EB0312127B0AB10133F6E723600B4A15
S214005360190102EB031301241C730024545018F097
S214005370CCF8204602E018F0C8F8054810BD0548ED
S21400538070470548FAE700BF194F0020B8290020EB
S214005390048000F0028000F0018000F038B518F0BC
S2140053A0AEF804460023072B06DC0C4A02EB031279
S2140053B0127B12B90133F6E7002222B1204618F01C
S2140053C0A4F8074838BD01F02DFE0025054B1D70DA
S2140053D0204618F09AF82846F4E700BFB8290020BF
S2140053E0058000F0194F00200F4B1B78BBB110B59D
S2140053F00446072815D818F082F80C4B03EB041364
S2140054001B7B1BB918F081F809480BE0074B03EB30
S214005410041300241C7318F078F8204602E00548B0
S2140054207047054810BD00BF194F0020B82900205E
S214005430068000F0028000F0018000F000B583B026
S214005440144B1B68019300238DF8043018F057F8AE
S214005450114B1B7833B9104B01221A7018F055F80F
S214005460002309E018F051F80C480FE00C4A02EB54
S2140054700312002111730133072BF7DD04238DF887
S21400548007300DEB030001F0EFFD002003B05DF8E0
S21400549004FB00BFE4420200194F0020038000F026
S2140054A0B829002008B50A4B1B785BB107280BD833
S2140054B0084B03EB00131B7B43B1002101F0CAFD30
S2140054C0002008BD0448FCE70448FAE70448F8E76B
S2140054D0194F0020B8290020028000F0018000F05B
S2140054E0078000F008B50A4B1B785BB107280BD87D
S2140054F0084B03EB00131B7B43B1012101F0AAFD0F
S214005500002008BD0448FCE70448FAE70448F8E72A
S214005510194F0020B8290020028000F0018000F01A
S214005520078000F008B50A4B1B7853B107280AD845
S214005530084B03EB00131B7B3BB101F013FE00206E
S21400554008BD0548FCE70548FAE70548F8E700BF48
S214005550194F0020B8290020028000F0018000F0DA
S214005560078000F0104B1B78ABB1072815D8B1B1F7
S2140055700E4B03EB00131B7B9BB10D4B1B6E0122E6
S214005580824013EA020003D001230B70002070470C
S21400559000230B7070470748704707487047064857
S2140055A070470648704700BF194F0020B8290020F2
S2140055B000200E40028000F0018000F0078000F01E
S2140055C00C4B1B7873B110B50C4607280CD869B184
S2140055D0094B03EB00131B7B53B101F0D7FD207082
S2140055E0002010BD054870470548FAE70448F8E76C
S2140055F00448F6E7194F0020B8290020028000F082
S214005600018000F0078000F0F8B5194B1F6EDB6EC6
S2140056101F4002D40125002402E0FEE701346D009D
S214005620072C24D83D42F9D0114B9D662301114A20
S214005630D358002BF2D002EB0416B1680131B160EA
S21400564072682046984780F00100C0B2737B012B39
S214005650E4D10028E2D0084B03EB44131A7B6FF327
S21400566041021A731A7F6FF341021A77D6E7F8BD24
S21400567000200E40B8290020B828002010B50446A7
S21400568002E0202007E09047DCB194FAA4F000285E
S214005690F7D0B0FA80F00123834024EA0304094BD4
S2140056A003EB00135A68002AEED0064B03EB0013F8
S2140056B01B7B002BE7D0034B03EB00139968904746
S2140056C0E2E710BD382A002008B5122000F046FE9A
S2140056D028B1084B4FF48022C3F880211A600A20B4
S2140056E000F03CFE28B1034B4FF48062C3F88021E3
S2140056F01A6008BD00E100E038B505460C4617F014
S214005700FEFE044B03EB05135C6000221A7317F0D1
S214005710FCFE38BD382A0020F8B505460F4616466A
S21400572017F0EDFE05F0FC0C0F4BD3F82814002301
S214005730032B0BD85C1904F00304644421FA04F22A
S21400574012F0010F03D00133DBB2F1E7FF24FF2C88
S21400575006D0064B03EB04135F609E6001221A73AB
S21400576017F0D3FE2046F8BD00A00040382A0020DF
S21400577008B5064BD3F82804D3F81C24104000F0D4
S2140057805530C3F82404FFF779FF08BD00A0004099
S21400579008B5064BD3F82804D3F81C24104000F0B4
S2140057A0AA30C3F82404FFF769FF08BD00A0004034
S2140057B008B5034B1968034B18680EF017F808BDB8
S2140057C07820002098200020B0F1FF3F01D010B9CB
S2140057D07047024870470248704700BF21E000F05B
S2140057E024E000F0F8B505460E469400224617F071
S2140057F08FFFFFF7E9FF074628B9224631462846BD
S2140058001CF0C8FB08B93846F8BD014FFBE700BFDF
S21400581010E000F038B5044601F08CFDFFF7D4FF29
S214005820054608B1284638BD01F0A6FE01462046CA
S21400583017F002FE0028F5D1004DF3E70EE000F069
S21400584008B517F04DFE014B186008BD2833002040
S21400585008B5024B186817F047FE08BD283300202D
S214005860074BDB6B13F0400F04D1064BD3F8C83060
S214005870002BFAD1024B5868C0F30140704700BFB6
S21400588000300E400000C6430C4B984205D90C4B26
S214005890984210D801210A4601E000210A46094B29
S2140058A01A64094AD2F8003123F0807343EA016390
S2140058B0C2F80031704702210122F0E70048E801F3
S2140058C00090D0030000C84300400E40014B18680B
