S01500007261696C5F736F635F656D7074792E73333705
S113000000080020C9050000E36A0000E36A00005C
S1130010D96E0000E36A0000E36A0000E36A0000AE
S1130020E36A0000E36A0000E36A0000E36A000098
S1130030E36A0000E36A0000E36A0000E36A000088
S1130040E36A00000D550000E36A0000E36A000063
S11300504D4D0000237300001F7300002D55000058
S113006017730000E36A0000E36A0000E36A00001B
S1130070E36A0000E36A0000E36A0000E36A000048
S1130080E36A0000E36A0000E36A0000E36A000038
S1130090E36A0000E36A0000E36A0000E36A000028
S11300A0E36A0000E36A0000E36A0000E36A000018
S11300B0615500001B730000E36A00009D550000B9
S11300C0E36A0000A13C0000E36A0000E36A000068
S11300D0E36A0000E36A0000E36A0000E36A0000E8
S11300E0E36A0000E36A0000E36A0000E36A0000D8
S11300F0E36A0000E36A0000E36A0000E36A0000C8
S1130100E36A0000E36A0000E36A00000000000004
S1130110013800D0FCE770470348044B834202D007
S1130120034B03B118477047AC080020AC0800200B
S1130130000000000548064B1B1AD90F01EBA30170
S1130140491002D0034B03B118477047AC08002094
S1130150AC0800200000000010B5064C237843B919
S1130160FFF7DAFF044B13B10448AFF30080012317
S1130170237010BDA20D002000000000D4A60000D2
S113018008B5054B1BB105490548AFF30080BDE830
S11301900840FFF7CFBF00BF00000000900A002016
S11301A0D4A60000A3F5803A704700BF174B002B7C
S11301B008BF134B9D46FFF7F5FF00218B460F4602
S11301C01348144A121A07F069FA0E4B002B00D098
S11301D098470D4B002B00D09847002000210400C5
S11301E00D000D48002802D00C48AFF3008006F043
S11301F0CBFB2000290000F013F806F0B3FB00BF8E
S113020000000800000000000000000000080020BA
S1130210AC080020C00D0020000000000000000019
S113022008B506F05DFE06F0D3FB044B186006F03B
S113023063FE024B186806F0DEFBF8E7A80A00200C
S113024038B500F071FF01210D4800F081FB012257
S11302501146002000F0D8FE0A4C0225C4F8805054
S113026001221146002000F0CFFEC4F88450012280
S11302701146002000F0C8FEC4F88850002038BDA4
S113028030253E0000400E4008B5164B01225A644A
S113029001F012FC024668B9134B4AF6E851C3F860
S11302A09011D3F8981141F00401C3F8981100217A
S11302B0C3F89011012A0DD90C4A136A23F444138C
S11302C043F488131362A2F58042136843F48073E5
S11302D0136008BD044AD2F8643143F40053C2F8F1
S11302E06431E9E700000E4000300E4000400E404B
S11302F010B58AB000230693079308930993254BFE
S11303000693254906A801F0CBFF244B186030B1B1
S11303100023059305A906F012FF08B1FEE7FEE7E6
S11303201E4C1F4A1F4B1968206802F0C9F90021AE
S1130330206806F060FD00B1FEE71B49174B186802
S113034002F0EAF900B1FEE74FF0FF3240F2FF336A
S1130350CDE900234FF0FF324FF0FF330F49086817
S113036006F05BFE00B1FEE7104B1B88ADF81030C1
S1130370ADF80C3004A9094B186806F036FE00B13C
S1130380FEE703A9054B186806F045FE00B1FEE739
S11303900AB010BD916A0000736A000010080020C2
S11303A07D6A00000008002007001100B4790000F5
S11303B082B0054B019302AB03EB800050F8043C80
S11303C0186802B0704700BF1008002008B501216A
S11303D0034800F0BDFA06F013FB00F075F808BD01
S11303E000350A0008B50121014800F0B1FA08BD42
S11303F000350A002DE9F04180460F4601F1090558
S11304000026344604E05B21082000F0E3F90134BF
S1130410AC4233D2052C1BD801A353F824F000BFFF
S113042007040000390400006D04000041040000CA
S11304304504000049040000FBB20433D9B2E3E7E9
S11304408021E1E70021DFE7731C3146DEB2DBE700
S1130450BB1DA3420CD0FB1DA3420BD007F1080324
S1130460A34209D0A31F18F80310CDE7D121CBE78D
S11304705A21C9E75A21C7E75D21C5E70020BDE835
S1130480F08100BF00B583B00022009201920221E6
S11304908DF80010054806F00EFB0190082168460F
S11304A0FFF7A8FF03B05DF804FB00BF006A180063
S11304B0014B1022DA60704700A00044014B102267
S11304C0DA60704700A0004670B588B00DF1040CE6
S11304D0374C0FCCACE80F0094E807008CE8070019
S11304E00121344800F034FA334E0121304600F043
S11304F02FFA01258DF81250304B0393304C01A98B
S1130500204606F03AFB2B4604220621022001F085
S113051065FA00232A460721022001F05FFA2B46E0
S113052004220821022001F059FA2B460422114624
S1130530002001F053FA234BA3670B2363674FF4A6
S1130540487001F089FEFFF7B3FF142001F084FE28
S1130550FFF7B4FF232001F07FFEFFF7A9FFB921C5
S1130560204606F054FBFFF7A9FF00231A46062194
S1130570022001F033FA00231A460721022001F079
S11305802DFA2B4600220821022001F027FA2B46DF
S113059000220421104601F021FA204601F0A8FAB5
S11305A00021A1676167304600F0D2F908B070BD40
S11305B0B879000000350A000052040000127A00E5
S11305C0000401400B0B000B08B500F087F8124A39
S11305D00AE01068516850F8230041F82300013301
S11305E091688B42F5D30C320C4B9A4201D2002312
S11305F0F6E70B4A08E01168002041F823000133B4
S113060051688B42F7D30832064B9A4201D2002339
S1130610F6E7FFF7CBFD00BFDCA60000E8A600006C
S1130620E8A60000E8A600000048704700F0490270
S1130630114BD3F8943003F00703023B032B0DD87E
S1130640DFE803F0050F02080C4B18680BE00C4BB5
S1130650186808E00B4B1868400804E0094B186858
S113066001E04FF40040044BD3F80031C3F30423FA
S11306700133B0FBF3F0704700400E401C0800202B
S1130680200800201408002008B5FFF7D1FF054B0F
S1130690D3F80831C3F308230133B0FBF3F0024B62
S11306A0186008BD00400E4018080020014B18686F
S11306B0704700BF2008002008B5064B1860064BA1
S11306C0D3F8943003F00703022B00D008BDFFF7E2
S11306D0DBFFFBE72008002000400E40044B054AE6
S11306E09A60D3F8882042F47002C3F888207047D7
S11306F000ED00E000000000014B1868704700BFE7
S11307001C08002008B50121294800F021F9012323
S113071004220221052001F061F9002001F052F9C0
S11307200121244BC3F810180A46042000F06CFC85
S1130730214800F0CBFA214BD3F8F02042F001021B
S1130740C3F8F020D3F8FC2042F08072C3F8FC20F8
S1130750A3F55D431A4A1A6000F5D52000F2FC4067
S1130760C008184BA3FB0030800A0138164B1861EF
S11307700222C3F8F0204FF48072C3F804234FF030
S11307806043124AC3F8B02F114AC3F8802ED3F83D
S1130790002E42F48072C3F8002EFF2283F820203A
S11307A0D3F8002E22F48072C3F8002E002008BD76
S11307B000350A000080144206000E0000ED00E03F
S11307C0FF03004017916502000004E055CEACC55C
S11307D0090001004FF06043D3F8803E13F0010F8D
S11307E001D1112070470E4AD2F8FC3043F08073D7
S11307F0C2F8FC304FF06043D3F8002E4FF0010CE8
S11308000CFA00FC42EA0C02C3F8002E53F8203024
S1130810002BE8D04FF0604303F82010002070470D
S113082000ED00E0074BDB6B13F0400F04D1064BE7
S1130830D3F8C830002BFAD1024B5868C0F30140FA
S1130840704700BF00300E400000C6430C4B984276
S113085005D90C4B984210D801210A4601E0002129
S11308600A46094B1A64094AD2F8003123F080730E
S113087043EA0163C2F80031704702210122F0E724
S11308800048E8010090D0030000C84300400E4037
S1130890014B1868704700BF24080020114B5B68A7
S11308A0002300E00133042B0CD80F4A02EBC302EF
S11308B092F804C0CAB29445F4D10B4A52F83320DA
S11308C08242EFD3052B0BD0074A02EBC3035979BD
S11308D0044A536823F0407343EA0163536070474A
S11308E00321F5E700000E40D479000008B5FFF7B6
S11308F09FFE044BD3F80031C3F3042303FB000031
S113090008BD00BF00400E4010B5084B1C6CA4B2DB
S113091041F671321A64FFF787FE0021FFF7BEFF2C
S113092014B1024B00221A6410BD00BF00000E4037
S113093010B5064B1C6CA4B241F671321A64FFF771
S1130940ADFF14B1014B00221A6410BD00000E402B
S113095010B4C0F30323013B092B21D8DFE803F0D3
S11309600508202030232620292D0024164A01E0E2
S11309700024164AC0F3043054B1134BD3F8443165
S113098013F0010F04D1104BD3F840311C42FAD1BB
S113099002F1424303F5801300EBC30080000160C1
S11309A05DF8044B70470124094AE3E71024094A1F
S11309B0E0E74FF48034084ADCE70024074AD9E72B
S11309C00024074AD6E700BF00400E40C0400E4056
S11309D0E0400E40E8400E40F0400E4050410E40D2
S11309E0B0400E40C0F30313013B092B6BD8DFE882
S11309F003F0050B111B6A6A2127415F334BD3F8BF
S1130A000001C0F304207047304BD3F81401C0F345
S1130A10042070472D4BD3F80031C3F30063013336
S1130A200120984001387047284BD3F80C01C0F3DB
S1130A3008207047254BD3F80801C0F308207047FD
S1130A40234B984204D0234B98420AD0002070478D
S1130A501E4BD3F8203103F00F03012098400138D6
S1130A6070471A4BD3F82031C3F301130120984087
S1130A7001387047184B984207D003F5B01303F5BB
S1130A80805398420AD000207047104BD3F8283185
S1130A90C3F3011301209840013870470B4BD3F87E
S1130AA02831C3F3012304330120984001387047EF
S1130AB00A4B984201D000207047044BD3F8300110
S1130AC000F0030070470020704700BF00400E4054
S1130AD08006160080162E0090171A00A009140034
S1130AE000F00F000138072865D8DFE800F0041B88
S1130AF02A643E4D64553B4BD3F8943003F007030E
S1130B00023B052B0CD8DFE803F0055803070B095B
S1130B1002207047042070470B2070470C20704758
S1130B20052070472F4BD3F8803003F00703022BC6
S1130B3045D0042B45D0012B01D001207047032060
S1130B407047284BD3F8843003F00703013B032B91
S1130B5009D8DFE803F002380604032070470A20AE
S1130B60704706207047012070471E4BD3F8883029
S1130B7003F00703022B28D0042B28D0012B01D02B
S1130B800120704703207047164B1B6F13F00103BD
S1130B901FD003B309207047124BD3F85C3103F024
S1130BA03003202B19D0302B19D0102B01D0012069
S1130BB070470720704700207047032070470220C9
S1130BC070470A20704702207047022070470A20AD
S1130BD070470720704701207047042070470820A1
S1130BE0704700BF00400E4010B50446FFF778FF81
S1130BF01B4B9C4212D01B4B9C4215D01A4B9C425F
S1130C0006D00138032828D8DFE800F014171D1A8D
S1130C10164BD3F8800000F00700F2E7134BD3F82B
S1130C20840000F00700ECE7104BD3F8880000F0D4
S1130C300700E6E705F056FF10BDFFF75DFDFBE793
S1130C4005F053FFF8E7FFF7F3FC084BD3F8003146
S1130C50C3F300630133D840EEE70020ECE700BFA4
S1130C60030020000500240002001E0000400E4086
S1130C7008B50748FFF734FF072804D0092805D131
S1130C80FFF7D6FC03E0FFF703FE00E0002008BDF9
S1130C9006000E0008B10020704710B504460A484B
S1130CA0FFF71EFF072805D0082809D0042804D020
S1130CB0204610BDFFF7ECFDFBE7FFF7F7FCF8E774
S1130CC0FFF714FEF5E700BFB800320038B500F4B2
S1130CD07813B3F5B01F00F0938005463BD8B3F505
S1130CE0402F00F0828010D9B3F5801F00F0AA8055
S1130CF0B3F5A01F27D15748FFF776FF564BD3F81B
S1130D00303103F00303D8401CE0B3F5802F61D0E9
S1130D1005D9B3F5202F14D1FFF78AFC12E0002B7C
S1130D2055D0B3F5003F0AD1FFF782FC4A4BD3F804
S1130D300831C3F308230133B0FBF3F002E00020D1
S1130D4000E0002038BDB3F5602F02D1FFF790FF1B
S1130D50F8E70020F6E7B3F5381F5BD00ED9B3F5FA
S1130D60481F72D0B3F5781F21D1FFF761FC044608
S1130D70284605F0DBFEB4FBF0F0E3E7B3F5001F13
S1130D8052D006D9B3F5101F0FD13248FFF72CFF0C
S1130D90D8E7B3F5D01F4BD0B3F5F01F03D12F48DC
S1130DA0FFF722FFCEE70020CCE70020CAE7B3F527
S1130DB0401F0AD12A48FFF717FF274BD3F82831E1
S1130DC0C3F301230433D840BCE70020BAE7FFF79C
S1130DD02FFCB7E7FFF72CFC1F4BD3F80C31C3F300
S1130DE008230133B0FBF3F0ACE7FFF721FC1A4B07
S1130DF0D3F81431C3F304230133B0FBF3F0A1E7B8
S1130E001648FFF7F1FE144BD3F8203103F00F031B
S1130E10D84097E71148FFF7E7FE0F4BD3F820318E
S1130E20C3F30113D8408DE70D48FFF7DDFE89E7D2
S1130E300B48FFF7D9FE084BD3F82831C3F301134D
S1130E40D8407FE7FFF724FD7CE70020FFF722FF6F
S1130E5078E700BF0500240000400E4002001E0099
S1130E6003002000014B1880704700BF9208002047
S1130E70014B1880704700BF9008002004281ED83A
S1130E80DFE800F0180312080D000E4B186AC0F3D7
S1130E90080070470B4B186900F07F007047094B3E
S1130EA0986900F07F007047064BD3F89C00C0F3AC
S1130EB00A007047034B986B00F07F0070470020D6
S1130EC0704700BF00400E4038B50C46042813D8C4
S1130ED0DFE800F043032F132100C1F30804274B7C
S1130EE0D3F86838002BFAD1254A136A23F4FF7328
S1130EF023F001032343136238BD01F07F041F4B29
S1130F00D3F86038002BFAD11D4A136923F07F030C
S1130F1023431361F0E701F07F04184BD3F86438DE
S1130F20002BFAD1164A936923F07F03234393617C
S1130F30E2E7134DD5F890306B6A23F0300343F0A9
S1130F4010036B62C1F3C31005F0EAFD2A6B0D4B6D
S1130F501340234303432B63CEE74F2928BF4F2479
S1130F60064BD3F87438002BFAD1054A936B23F05F
S1130F707F03E4B21C439463BEE700BF0020C84370
S1130F8000400E4000F8FF0F134B5B6A13F0300F64
S1130F9009D0202914D0302915D009B10F4A04E012
S1130FA04FF4400201E04FF440020B4BD3F8903071
S1130FB032EA0303F9D112F4800F07D101207047FC
S1130FC04FF40002F1E74FF44002EEE7024BD3F88E
S1130FD0A000C0F38020704700400E40FF33E107BB
S1130FE0022801D00120704710B529B1054B4FF4F8
S1130FF08064C3F8A84059660AB9012010BDFFF700
S1131000C3FFFBE700400E4070B5042800F2858062
S1131010DFE800F0484250033C000223012500248D
S1131020AC46002967D002284AD000213B4B1D66FC
S11310303B4B23449B001B68002BF9D0002A6CD047
S1131040374C6444A4002368002BF9D0022864D1EF
S1131050002962D0314B5B6A13F0010F46D00122A4
S11310602021FFF7BDFF0220FFF708FF06460122FB
S113107000210220FFF7C8FF31460220FFF724FFBA
S1131080264B1D662368002BFCD046E02023102548
S113109004244FF0050CC4E78023402506244FF0B8
S11310A0070CBEE74FF400734FF4807508244FF02B
S11310B0090CB6E70823042502244FF0030CB0E71B
S11310C0164B5B6A13F0300F0ED1164BDB6B134BD0
S11310D05B6A13F0010FA9D0104E736A23F030033A
S11310E043F010037362A1E700219FE7002102206F
S11310F0FFF74AFFB7E709490B66084BD3F890108E
S11311000123A3401942F8D13AB1044BD3F89020FB
S1131110012303FA0CF31A42F7D170BD00400E40CC
S11311208004F21000300E4038B5FFF7BFFA0446D1
S1131130002100F003FA1648FFF788FB012211464C
S11311400220FFF761FFFFF7DFFB4CB1114BDB6BB4
S113115013F0400F04D1104BD3F8C830002BFAD150
S11311600E4B02225A67FFF763FAFFF76FFBFFF794
S11311708BFA0546FFF756FB01462846FFF7D8FBD6
S113118004B138BD0121002000F0D8F9F9E700BF0F
S11311900148E80100300E400000C64300400E4004
S11311A070B504461120FFF79BFC012200210220A8
S11311B0FFF72AFF237C022B2AD00022154E736AE4
S11311C023F00103134373622278134BC3F8A02462
S11311D0A288637A43EAC223F362356B05F07F6524
S11311E0E38845EAC325A37A1D43207A45EAC0155E
S11311F005F096FC05433563627BA37B1B0143EA40
S11312000233E27B1343227B43EA0243736370BDE0
S11312100122D3E700400E400000C84338B505461C
S11312201120FFF75DFC0D4A916B0D4C0C402978A1
S11312300C436B7844EAC324AB7844EA0364EB7848
S113124044EA0324936BA34200D138BD0122002158
S11312500846FFF7D9FE014B9C63F6E700400E40B9
S113126080E4FFF8074BDB6B13F0400F04D1064B0F
S1131270D3F8C830002BFAD1024B5868C0F30140B0
S1131280704700BF00300E400000C6431A48C26CCD
S1131290C2F30322194B1B8803F1280103EB51030A
S11312A02833013202EB8201B3FBF1F3013B072B3C
S11312B028BF0723C16C21F0EE6141EA036343F4C4
S11312C08013C3640E4BB3F90030002B13DB9BB2C5
S11312D003F1280103EB51032833510801EB4202C7
S11312E0B3FBF2F3072B28BF0723026D22F0700231
S11312F042EA03130365704700300E409C0D002042
S1131300980D0020024B1880024B1980704700BFD3
S11313109C0D0020980D002010B1012804D07047C6
S1131320034B044A9A657047014B034A9A65704718
S113133000300E4077402057372110B71A4BD3F8AE
S11313403032032929D8DFE801F002121518DBB284
S11313504AB91B0333F4704121D11448C16E21F4FE
S113136070411943C166012A09D001207047C3F3B3
S11313700723EDE7C3F30743EAE71B0EE8E71B0384
S113138033F470420DD10949D1F8EC2022F47042B3
S11313901343C1F8EC30012070470020704700204F
S11313A070470020704700BF0081E00F00300E40FE
S11313B01B02A2B101221343B3F5007F4DD022D802
S11313C0B3F5807F42D00CD940F20112934215D17B
S11313D0294BD3F824321A0EC3F3074310E000223A
S11313E0E9E763B3012B06D1234BD3F82432C3F3CB
S11313F00722DBB204E00022134601E00022134678
S113140003600A607047B3F5407F2DD040F201328B
S1131410934206D1184BD3F828321A0EC3F307436C
S1131420EEE740F20122934206D1134BD3F828325F
S1131430C3F30722DBB2E3E700221346E0E70E4BD7
S1131440D3F81C32C3F30722DBB2D9E70A4BD3F833
S11314501C321A0EC3F30743D2E7074BD3F82032EA
S1131460C3F30722DBB2CBE7034BD3F820321A0EC7
S1131470C3F30743C4E700BF0081E00F134B9A692D
S113148022F03F020378D3B104234178C9B1022189
S11314900B438178B9B108210B43C178012900D0ED
S11314A000210B4301790B431343084A93611368EA
S11314B023F44033417943EA014313607047002326
S11314C0E3E70021E4E70021E6E700BF00300E4037
S11314D0174BDB6B13F0400F29D170B504460D4652
S11314E0FFF7C0FEA04218D0124BD3F80031FFF72B
S11314F09FF80646022C11D0C4F102021023934037
S11315000B4A136145B1D36B13F0400F04D10A4B5E
S1131510D3F8C830002BFAD124B170BD0221FFF7F3
S113152007FAE9E700213046FFF702FAF5E77047CA
S113153000300E4000400E400000C64338B5114B49
S1131540DB6B13F0400F0BD10C4650B10E4B1B78E4
S113155013B10E4B98420FD921460020FFF7B8FF74
S113156038BD0B4BD3F80051C5F304250135FFF703
S11315705FF805FB00F0E9E721460220FFF7A8FF2A
S1131580EEE700BF00300E40AC0A0020002D310110
S113159000400E4010B42C4B5A6B4AF6E851596384
S11315A0294B9B6F13F0010FFAD1274B1B6C13F0DF
S11315B0030303D025490124C1F8B44AD9B28142B6
S11315C021D0032B00D01BB9431EDBB2012B21D940
S11315D01D4B9B6F13F0010FFAD11B490B6C23F0C9
S11315E0030303430B64184B9B6F13F0010FFAD1F1
S11315F0003818BF0120154BC3F8B40A012A1FD0C4
S11316005DF8044B70470028FAD1104B0022C3F850
S1131610B42AF5E70C4B4FF40021D9620A4B9B6FB7
S113162013F0010FFAD108490B6C23F0030343F0C4
S113163001030B64044B5B6A13F4002FFAD0C7E771
S1131640014B00225A63DBE700300E400000C64322
S11316502DE9F04F8DB000910192002309930A9374
S11316600B93069307930893039304930593654A96
S11316701288ADF808208DF80A30A0F5E163B3F5BF
S1131680966F00F2AE800646B0F5E16F8CBF4FF066
S113169001094FF000096DD94FF4966A4FF4E164E3
S11316A0B6F5E16F6BD9584BD3F8183208931A0E7C
S11316B00592C3F307430893544DEF6CC7F30177C6
S11316C08DF808703B464A4603A906A8FFF770FE4A
S11316D0D5F8EC30C3F301288DF8098043464A4617
S11316E004A907A8FFF764FE321B089B0599C91AD1
S11316F002FB01F1B1FBFAF10B9119440B91DDF8F6
S11317000CB0DDF818C0ABEB0C0502FB05F5B5FB1E
S1131710FAF5099565440995DDF810E00798AEEBF4
S1131720000404FB02F2B2FBFAF20A9284180A944F
S1131730059A8A4259D38B4259D8A64559D3A04217
S113174059D8AB4559D3AC4559D8019B73B12F4BEC
S1131750DB6D23F4FE4323F0020343EA0123B6F5D1
S1131760E16F16D902221343284AD365009B93B92B
S1131770012037E04FF4167A4FF4966490E7224B39
S1131780D3F818320893C3F307220592DBB2089307
S113179092E70022E7E7002239464846FFF7CEFDEC
S11317A000B3012241464846FFF7C8FDD0B1A54227
S11317B038BF25460995E72D28BFE7250995134B22
S11317C05B6E23F4FF7323F0010343EA4503B6F58C
S11317D0E16F04D9012213430C4A536602E000224C
S11317E0F9E700200DB0BDE8F08F0020FAE70020F3
S11317F0F8E70020F6E70020F4E70020F2E70020F5
S1131800F0E700BFFC7900000081E00F00300E40DB
S113181008B5214B1A6FDB6C13F0010F09D012F0DD
S1131820060F06D013281FD9143813281ED80823EE
S113183023E0194BDB6C13F0010F09D112F0060FF2
S113184006D1092814D90A38092813D8082314E022
S1131850114BDB6C13F001030FD012F0060F0BD108
S1131860272817D8082308E0042306E0102304E0FF
S1131870042302E0102300E00023013B1A0342EAA0
S113188003220549CB6C23F47F431343CB64FFF756
S1131890FDFC08BD1023F0E700300E4008B5074BEF
S11318A0D3F88039064A136F23F007030343136701
S11318B0044B1888FFF7ACFF08BD00BF0000C64307
S11318C000300E409A0D002008B5084AD36E43F04C
S11318D08073D366064BD3F880391BB10420FFF71D
S11318E0DDFF08BD0020FFF7D9FFFAE700300E4006
S11318F00000C64338B5304B02229A639B6B03F059
S11319000F03934254D10446B0F90C10C3884A2BF8
S113191009D9B3F5FA7F41D340F6C312934240D8B4
S11319204FF0005200E00022234BDB6C23F04053C5
S113193023F00103002937DB01210A4313431E4A24
S1131940D364D2F8EC3043F44073C2F8EC30A2888C
S11319501A4B1A80FFF7B8FFB4F90C102089FFF76F
S1131960D1FCA088FFF754FFA07BFFF7D5FC012230
S113197011466088FFF76CFE0546D0B10E4AD36B62
S113198043F48063D3636078FFF704FEA37A202BCB
S11319900CD000220A4BC3F894270AE04FF080527F
S11319A0C2E74FF04052BFE70021C6E70122F1E74A
S11319B00025284638BD00BF00300E409A0D002097
S11319C00000C643044AD2F8443423F0030303431B
S11319D0C2F84434704700BF00A00040F8B5044684
S11319E00D461E4617463AB1FBB100EB4001090112
S11319F00122AA401D4B5A50072D1ED8A90004EB02
S1131A0044031B0107FA01F20F2000FA01F1184800
S1131A10184405F0A0F83FB9FEB104EB44042401D6
S1131A200122AA40114B1A51F8BD00EB40010901F3
S1131A300122AA400F4B5A50DEE7A5F108039B0090
S1131A4004EB440C4FEA0C1C07FA03F20F219940F3
S1131A500948604405F07FF8DDE704EB4404240101
S1131A600122AA40034B1A51DEE700BF0CA0004636
S1131A7004A000400CA0004408A000400D4AD2F885
S1131A80E4309B0003F03C03D2F8E010C1F3811171
S1131A900B438370D2F8E03003F03F034370D2F875
S1131AA0E83003F0F003D2F8EC20C2F3031213433E
S1131AB00370704700FF0FE0024BD3F8FC00000EE8
S1131AC0704700BF0081E00F38B5054614460B4649
S1131AD031B1013B6400B3FBF4F31B026B6138BD0D
S1131AE00248FFF7F3F80346F3E700BF404105005F
S1131AF040F6AA63C3600023036041F2050242601A
S1131B0083604361C364134A8264036643678367E3
S1131B10C367114B98420BD003F58063984207D0FA
S1131B2003F58063984203D003F58063984201D1A2
S1131B30002303650023836503F1804303F58233A7
S1131B40984203D003F50063984201D10023C36592
S1131B50704700BFF9FF01000000014038B504469A
S1131B6005F0A4FA054DA446BCE80F000FC59CE897
S1131B700F0085E80F00002038BD00BFB00A002028
S1131B8047F6FF739A4200F08480062900F28380AE
S1131B9070B5444B13F801E0BEF1020F7DD8424BFF
S1131BA003EBCE0191F802C0BCF1010F38BF4FF036
S1131BB0010C604613F83E30012B26D03A4B03EB60
S1131BC0CE035C68002C6AD0B4F90030934204DB85
S1131BD0B4F90230934200DC1346A288FF2A2CD0C9
S1131BE000212826C8221D46D21A92FBF6F20A4486
S1131BF012B22D4B03EBCE0393F801E0964501DDC1
S1131C00002A2FDA0EF1FF322CE0CB78A3EB0C0381
S1131C1000249C420ED2191BA3EB5101224800EB75
S1131C20CE00406830F91100904201DC0C46F0E728
S1131C304B1EEEE76344D8B230E0B4F90620B4F9A1
S1131C4008600121CFE75C331849A1FB03139B090A
S1131C50013212B2164696450FDD04EBC2018988A3
S1131C6099420AD304EBC2018B68B1F9061001FB57
S1131C700533002BE7DA0023E5E7013E04EBC60455
S1131C80A2889A4200D31A46624500D31046C0B2D5
S1131C9004E0FF20704700207047002070BD002042
S1131CA0FCE700BF007A0000B00A0020D34D6210A8
S1131CB0062975D83E4B5B5C022B73D83D4911F85D
S1131CC03310012923D0002A6ED010B4394901EB16
S1131CD0C3014C68002C69D0201D364901EBC301B7
S1131CE0897891422FD2334901EBC301C9789142DB
S1131CF02ED9304901EBC30393F801C00CF1FF3C2A
S1131D005FFA8CFCA388FF2B25D0002327E0294908
S1131D1001EBC301C978914200D20A46254800EB81
S1131D20C300807801282CBF121A02F1FF32D2B20C
S1131D30091A8A4200DD00221E4901EBC3035B68D5
S1131D4033F912007047B4F902005DF8044B704790
S1131D50B4F90000F9E7012301E00133DBB2634584
S1131D6004D2591C30F831109142F6D24FF47A71F2
S1131D7001FB02F200EBC3004368D31AB0F902205E
S1131D8002EBD27103EB610393FBF2F3B4F90000AD
S1131D909842DADBB4F902009842D6DC18B2D4E7F0
S1131DA00548704704487047044870470248CCE728
S1131DB0007A0000B00A00200080FFFF0CFEFFFF45
S1131DC008B50348FFF7CAFE012005F092F908BDE3
S1131DD0087A000070B582B005460C4605F08BF910
S1131DE008B102B070BD6946284605F061F900B13A
S1131DF0FEE762680F4B9A420ED80F4C9DF80030F4
S1131E0022789342EDD00E2B08D164262146284631
S1131E1005F03BF938B1FEE7084CEFE7284600F03F
S1131E2065FC0646F2E73146284605F043F90028EA
S1131E30D7D0FEE7FFC99A3B2808002030080020CD
S1131E4070B58AB004460D4628220021684605F084
S1131E5025FC032300934FF41653ADF806300222F9
S1131E608DF8082001238DF809308DF80A208DF8AB
S1131E700B30642303934FF47A7306936946204628
S1131E8005F0A1F90646C0B90C3D102D7CD8DFE859
S1131E9005F0091B21272D33393F454B51575D630D
S1131EA0696F75003949204605F093F906462EB945
S1131EB0FF21204605F08BF9064616B1204605F0B1
S1131EC084F930460AB070BD3149204605F081F9E5
S1131ED00646ECE72F49204605F07BF90646E6E77F
S1131EE02D49204605F075F90646E0E72B492046C2
S1131EF005F06FF90646DAE72949204605F069F945
S1131F000646D4E72749204605F063F90646CEE79E
S1131F102549204605F05DF90646C8E723492046D1
S1131F2005F057F90646C2E72149204605F051F964
S1131F300646BCE71F49204605F04BF90646B6E7BE
S1131F401D49204605F045F90646B0E71B492046E1
S1131F5005F03FF90646AAE71949204605F039F984
S1131F600646A4E71749204605F033F906469EE7DE
S1131F701549204605F02DF9064698E713492046F1
S1131F8005F027F9064692E7012697E7A87C0000AA
S1131F90A87B0000E87C0000887C0000487C0000EE
S1131FA0E87B0000287C0000C87B0000687C0000FF
S1131FB0087C0000C87C0000887B0000687B00006F
S1131FC0487B0000287B0000087B0000E87A0000C2
S1131FD000B587B000230193029303930493059300
S1131FE002238DF804300D4B029306228DF80C2049
S1131FF001238DF80D300C218DF80E108DF8122070
S11320008DF813300D238DF8143001A94FF0FF30F3
S113201005F099F807B05DF804FB00BF006A1800EA
S113202000B585B0054BEC460FCB8CE80F0060463D
S1132030FFF760FC002005B05DF804FBC07A0000E7
S113204010B586B00DF1040C144C0FCCACE80F00A5
S11320502368ACF80030124BD3F8B43013F4002FDB
S113206008D0104B1B884FF6FF72934207D140F201
S1132070431304E00A4BD3F8B830C3F30803ADF8B4
S11320800A300948FEF718FB01A8FFF789F8322047
S1132090FEF7EEFE002006B010BD00BFD07A0000AF
S11320A00081E00F0001E00F00F0490200B583B0A9
S11320B0074B1B68019320238DF8043001A8FFF718
S11320C0ADF83220FEF7CEFE002003B05DF804FB2D
S11320D0E47A00006FF0040307E003F00F010A4AFA
S11320E00A44A021117601335BB2322B09DC002BA8
S11320F0F3DB03F1604202F56142A02182F8001390
S1132100F1E70020704700BFFCEC00E0BFF34F8F05
S11321100549CA6802F4E062044B1343CB60BFF381
S11321204F8F00BFFDE700BF00ED00E00400FA059B
S1132130BFF35F8F074B5A6A22F480325A62D3F896
S1132140942022F00102C3F89420BFF34F8FBFF311
S11321506F8F704700ED00E070B586B000230593E3
S11321600493FFF7E5FF4FF0005004F0A9FE364951
S11321700B68400000F03E0040F0985040F0011021
S1132180324AC2F898304FF00054C2F89C40C2F86A
S1132190A00001330B602E4D2E4CA54213D1BFF38A
S11321A05F8F2A4B0522C3F894205A6A42F4803286
S11321B05A62BFF34F8FBFF36F8FBFF34F8FBFF3DD
S11321C06F8F06B070BD03AB019304AB009305ABF6
S11321D02A1B2946204604F057FE0398C208072804
S11321E000D82022049B5B1BB3FBF2F3012101FA0C
S11321F003F3DBB2013BDBB2059E013DAD1BB5FB36
S1132200F2F50D44AB40DBB2A41BB4FBF2F401FACB
S113221004F4013CE4B21C4304F052FE0A4D2A6863
S1132220430003F03E0343EA042343F0407343F0C6
S113223001130649C1F89820C1F89C60C1F8A03088
S113224001322A60ABE700BFD00A002000ED00E0B5
S1132250A4080020A408002010B50446FEF714FAD0
S11322600C4BA3FB0023B0F57A7F0FD39B090A4ADA
S1132270B2FBF3F2094B984208D84FF47A7304FB8B
S113228003F3B3FBF2F39808032B00D810BDFDF75A
S11322903FFFFBE7D34D621040420F00E7CD9A3B6E
S11322A0F8B50D4610B900242046F8BD0E4F3E681F
S11322B0002EF8D100F036F804460028F3D0386038
S11322C000F07CF8204604F037FE38B130463E601A
S11322D000F074F8204604F02AFEE4E7002DE3D071
S11322E02046A847E0E700BFD40A002010B504F058
S11322F096FE044618B9034B01215B6898472046B3
S113230010BD00BF44080020431E033306D8044B0D
S1132310984228BF1846642838BF6420704700BF1D
S113232040420F00F8B5054604F005FC0F4B1E684B
S1132330074626B9384604F002FC344611E0B46876
S11323408CB194F810C01CF0010F0CD195E80F006B
S11323504CF0010C84E80F0084F810C0384604F0F7
S1132360EEFB2046F8BD3668E3E700BF3C080020DA
S113237038B505460C4641B10B6833B11B680133CF
S113238003D0CB680BB18B684BB904F03CFFBDE8BC
S113239038404FF492724121002000F0E1B9084620
S11323A000F080FC0023044A85F8DC30C5E92343AF
S11323B0C2E9003338BD00BFB008002010B50446A0
S11323C018B9054B054A136010BD03F043FAD4F85D
S11323D09830002BF6D1F4E71B6F0000380800207A
S11323E010B50C4603F074FA054B00215B6803201A
S11323F098471CB104F000F80128FBD110BD00BFC0
S11324004408002008B502460868FFF77DFF08600D
S11324104868FFF779FF48608868FFF775FF8860B0
S1132420C868FFF771FF0B69C860581C03D00B48DC
S1132430834228BF03460B614B69581C03D00748ED
S1132440834228BF034688694B61FFF75DFFBDE8FF
S113245008408861104603F029BF00BF40420F00C6
S11324602DE9F84FD0F8903006460F4613B1038B90
S11324708B4244D0D6F88CB0BBF1000F42D0DBF8CD
S11324800830002B3ED0DBF80C1000293AD0D6F8E7
S1132490A0A0BAF1000F38D04FF000094D46C8464D
S11324A001E0DBF8083005EBC50203EB82040135DB
S11324B0E389BB4214D8238ABB42304610D3B4F913
S11324C01220B6F924309342A04653DD96F8D0107A
S11324D0FFF756FB337D834281464BD9DBF80C1062
S11324E08D42DED3B8F1000F3ED000234246194698
S11324F03046D0473783C6F8908086F8D9900020BC
S1132500BDE8F88F0320BDE8F88FD1465446524603
S113251047F6FF7504EBC40803EB8808B8F80E30DF
S1132520BB421BD8B8F81030BB4217D3B8F91220FD
S1132530AA4207D14FF0FF093783C6F8908086F886
S1132540D990DCE796F8D0103046FFF719FB337DBD
S1132550834281464246EFD9DBF80C100134A14294
S113256004D9DBF80830D5E70120C9E7002AFBD0FD
S11325709046E1E7A046B8E72DE9F04782B004466B
S11325808946164603F02AFF3B4D08B100236B60D1
S11325902B68D4F88CA0D4F890700BB153454BD071
S11325A04FF00008C5F8089003F026FF012836D143
S11325B02B68DAF800103A6813B11868884246D0DC
S11325C0204604F071FFC5E900A7D4F8A0508DF8A7
S11325D00760002D42D000220DF10703114620466A
S11325E0A847204603F0C4FB0546B8F1000F00D00D
S11325F08EB1B5FA85F040F2DE324009332100F0A5
S1132600AFF83146204603F00FFD1C4B05461B680E
S1132610394620469847284602B0BDE8F087012095
S113262003F056F9164B00215B680320984703F02A
S1132630E3FE0128FBD1BBE76B68002BB0D0BB42A3
S1132640AED1AB68994514D04FF00108AAE7696888
S113265011B109689142B6D05968B1E7217D94F867
S1132660D930994228BF19463246204603F054FB1C
S1132670B7E70025CFE700BFB008002038080020E6
S113268044080020F8B505460E4604F054FA3146D5
S113269007462846FFF7E4FE044620B1384604F016
S11326A04EFA2046F8BD03F081FE22463146284604
S11326B0FFF762FF0446384604F041FA2046F8BDAD
S11326C0084B10B4002A14BF14461C46064B1C6069
S11326D019B15DF8044B04F03BBC08465DF8044BAB
S11326E0704700BF1B6F00003808002013B5044674
S11326F0694604F0DDFC204604F07EFEFF28024615
S113270006D09DF800102046FFF7D2FA02B010BDA3
S11327100048FBE70080FFFF08B50B46024919405B
S113272004F0EFFC002008BD0700110007B54FF4CA
S113273000730A49ADF806300DF1060204F001FDFC
S1132740BDF80630B3F5007F05D1022808BF00208C
S113275003B05DF804FB0120FAE700BFD80A0020AB
S113276008B550B90548064B01601A60054B1A6854
S1132770054B1A60186804F077F908BD400800207A
S1132780DC0C0020D40A0020D80C00202DE9F041F4
S11327901B4A8AB001AC05460B4602F1200C2746C1
S11327A010685168264603C6083262453446F7D19C
S11327B0002B08BF3B4610683060002703F10C066D
S11327C01C46384690B95FFA87F821884246284665
S11327D004F0A4FE50B9E1884246284604F0AFFE56
S11327E020B942463146284604F0BBFE0137032F88
S11327F006F1080604F10204E4D10AB0BDE8F08150
S11328001C7D0000F0B589B005460E4604F0B8FE04
S1132810044600BB06F10C070FCF01AC0FC497E8C8
S1132820070084E8070001A92846FFF7EBFD311DE6
S1132830284604F0E2FE044648B90849284603F055
S1132840F7FC044618B9284603F076FE04463168BE
S11328502846FFF79BFF204609B0F0BD147D000019
S1132860014904F078BC00BFA9640000014904F0E8
S113287072BC00BFB9640000014904F06CBC00BF25
S1132880D9640000014904F066BC00BFC9640000BB
S1132890014904F072BC00BFDD750000014904F079
S11328A06CBC00BF19660000014904F066BC00BF9F
S11328B0ED6500000D4BD3F8E020D20314D50C498C
S11328C04FF48032C3F8E820C1F8EC209A6BD1B2FF
S11328D0C2F3072299679A6704229A6700229A67CB
S11328E09A679A679A679A67704700BF0010084012
S11328F000100846054B1860054B01229A6540F606
S1132900FF72196358635A65704700BFE40C0020D6
S1132910001008402DE9F04F042A83B0054639D948
S11329200B7883614B7883618B788361CB78836187
S11329300068D5F808B06E6800F00700012306307F
S113294003FA00F808F1FF3909EA0B07A2F1040AB7
S1132950A8EB0702924501F1040446F000560DD895
S1132960F0192146524604F08BFE0AEB0B0248EAAA
S113297009031A40AA6003B0BDE8F08F2146F0199C
S1132980019204F07DFE019AA118AAEB08023046D8
S11329903A44E8E7013A032AEDD8DFE802F00B08ED
S11329A0050211F8013B836111F8013BAB6111F899
S11329B0013BAB610B78AB6103B0BDE8F08F00BFA6
S11329C038B50C46104B1546014668B10122C3F8D0
S11329D0B8200E482246FFF79DFF1DB10A4B042282
S11329E0C3F8B820002038BD64B1D3F89C20A242BB
S11329F084BF0122C3F8B820C3F898400222C3F868
S1132A00B820EAE70122FAE70010084090100840D5
S1132A1010B504F090F8184B184901229A65C3F8D0
S1132A2088201A66164A5A660722C3F884200A8048
S1132A30144900220A804FF4A021C3F8E81003F1DE
S1132A40C0630446C3F8EC100F4B1A600F4BD3F865
S1132A5088305B020AD50E4B18680E4B4FF4800287
S1132A60C3F88820416BA43001F058F82046BDE833
S1132A70104004F064B800BF00100840A00D00200E
S1132A80080A00209E0D0020E00C002000400840B1
S1132A90D40A0020004008440D4B07221A800D4B35
S1132AA000221A800C4B0121C3F8B810C3F89020FF
S1132AB04FF40052C3F89400C3F8B420074BF0223B
S1132AC01A6403F10073A0221A64FFF7A1BF00BFC8
S1132AD0A00D00209E0D00200010084000000844B6
S1132AE02DE9F041044688B1394E3A4F04F023F8F9
S1132AF03388394A03F07801032C054603F07F0C30
S1132B00114453D13C6824B904F019F80320BDE8FA
S1132B10F08124F00104386820F00100A0424AD179
S1132B2000223A6022886FEA42426FEA52428C42A3
S1132B30228036D1294CDFF8B8C02788ACF1800850
S1132B403A46083A92B201F10800604528BF40466F
S1132B50082A04D9B0F900E0BEF1000F36DB228068
S1132B603B440C8888781E499B1ADBB2C4F30C04DE
S1132B70CC6300F007003380CB66C1F88420FFF7F4
S1132B8099FE04280DD1174BD3F88830164B1868DA
S1132B90164B4FF48002C3F88820416BA43000F038
S1132BA0BDFF284603F0CBFF0020B0E7601E0128DC
S1132BB098BF0C46AFE7094862440088A21A48BF90
S1132BC0803208389042ADDC28469DE70146B8E7DC
S1132BD09E0D0020E00C0020080A0020A00D00201B
S1132BE00010084000400840D40A00200040084477
S1132BF0880A00200E490F4B0A881B880E4813448C
S1132C00073B03F0780303440832987892B20A80B1
S1132C1000F0070009490428C1F8842004D101F513
S1132C2040514A681203FCD4054A1360704700BF40
S1132C30A00D00209E0D0020080A0020001008406E
S1132C40E00C002010B5054C206828B1C30701D45E
S1132C50FFF746FF0023236010BD00BFE00C0020F7
S1132C60084B4FF48032C3F8EC2003F17C43C3F8E3
S1132C70E420D3F88030C3F30C03782B01D8FFF79A
S1132C8019BE704700100844431C08D0044AD2F807
S1132C903C311B0C1B0480B20343C2F83C31704727
S1132CA000400840054BD3F8B400431C14BFC0F3E4
S1132CB080700120A6223121FFF752BD0081E00F70
S1132CC0034B1A689B88026083800020704700BF12
S1132CD0940800200F4B0628D3F8883104D183F4DC
S1132CE00013C3F340507047022805D113F4400F7A
S1132CF00CBF01200020704750B9074AD2F8D40015
S1132D0010F0010005D083F48003C3F380507047B2
S1132D100020704700400E400081E00F0C4A5288AA
S1132D20B2F5E16F94BFC8225A2210B594BF78243B
S1132D30502490428CBF172210220A70054A034681
S1132D40107818B19C422CBF0020012010BD00BF98
S1132D50940800209F08002013B5234B1B780E2BEA
S1132D6004463ED00DF10701FFF7D8FF1E2C8CBF9F
S1132D701E4C1F4C9DF807304FF001028CBF0121FF
S1132D800021C4F8082170B1194A4DF60174C2F843
S1132D9004411B0202F1007243F44043C2F80431BF
S1132DA0144AA2F8D430134A134C92F8D83023F0C2
S1132DB00103034323F0020343EA4103DBB282F835
S1132DC0D83024786CB923F0040343EA800323F059
S1132DD00803B2F8D440A2F8D64043EAC10382F80B
S1132DE0D83002B010BD00BF94080020004008464F
S1132DF000400844001F0021A50D0020084B094A8B
S1132E00D3F88831DB4303F4FE1343F40053B3FADD
S1132E1083F30E33A3EB4313013B1370704700BFDE
S1132E2000400E409E08002002280CD0062802D044
S1132E3020B100207047054B18787047034B187871
S1132E400430C0B270470720704700BF9E080020BE
S1132E502DE9F7433A4E3B4F96F8009015463A4A0F
S1132E60D2F8C820B9F1020F0446884607EA0207DF
S1132E701AD147EA006788F80000002372882B60A3
S1132E80B2F5E16F94BFC8225A2227F47F579442C7
S1132E9027F008079ABF380A00F47F5043F6C87039
S1132EA0384303B0BDE8F083284A1278904228BF23
S1132EB0144604EB83030B70F4B1013CE4B24FF00D
S1132EC030632B606A4601A9204604F0C0F9DDE9AD
S1132ED0002347EA03671E4B98F800101B7847EA63
S1132EE0823747F47F5747F008073BB90029194B4D
S1132EF018BF4FF07F43C1E7164BE2E7164B174864
S1132F00B9F1060F08BF03462AB90029114B18BFAF
S1132F104FF07F43B2E7B2FA82F2C2F11F02D2B29B
S1132F209B5CDBB239B15A1ED2B2FD2A05D81B060E
S1132F3043F00403A2E7074BA0E74FF07F439DE76C
S1132F40940800203F00C0E0001F00219E080020DC
S1132F50A60D00200400000BB883E00FB083E00F3F
S1132F602DE9F3410446C820FFF7F6FE2B4B2C4E07
S1132F7018780E2801D0FF2C05D1FF243470204688
S1132F8002B0BDE8F08102282DD1072C204628BFCD
S1132F90072001284FF0000301AA0DF1030138BFF7
S1132FA00120FFF755FF05461E4B1F4FDDF8048037
S1132FB0C3F85881C7F8C8509DF8034034702046C0
S1132FC0FFF7CAFE194A4FEA082303F4E0631278B4
S1132FD043EA1863A7F8D030002AD0D1C7F8CC5000
S1132FE0A7F8D230CBE7A0B9052C32BF00270127C0
S1132FF00420201A3B4601AA0DF10301C0B2FFF7D9
S113300027FF4FF48003054637B1094AC2F8083157
S1133010CAE700273846ECE7064AF7E79408002099
S1133020A008002000400840001F0021A50D00203A
S1133030004008460040084408B500F067FF094B0B
S1133040094A002818BF1A46136823F47F115B0845
S113305003F4FE130B431360044B4FF00072DA6168
S113306008BD00BF00410840184108400040084026
S113307008B500F04BFF064B4FF4001228B1C3F81B
S113308000214FF000621A6208BDC3F81821F8E766
S113309000400844014B1868704700BFE80C00204A
S11330A0436C012B38BF01232DE9F0479A46464B68
S11330B0464F9B69464E474D03F4E073A3F5C07237
S11330C0804645485142514102685245434A0FD116
S11330D014788C420CD198F8D0C03C78A44507D120
S11330E098F815C03478A44502D1A888BDE8F087C3
S11330F0B3F5C07FC0F800A011704AD1D8F894404D
S113310024B12368082B58D994F838400F2120465D
S113311004F07FF8BAFA8AF3002852D0B0FA80F2A9
S11331209B1A002BC6BFD840C3F10F094FF00F09FB
S1133130504501D909F1FF39234B2004C3F8BC00E1
S113314003F1806340F6FF72C3F8B82003F1007303
S11331504FEA0921C3F8B81004F08CF8A88000F0F5
S1133160D1FB09F01F094FF4FA7304FA09F45C4324
S113317041F66A03B0FBF3F00A23B4FBF0F45C43BA
S1133180174B1C6098F8D0303B7098F815303370AA
S1133190ABE798F8D030062B06D1124B1B78002BE6
S11331A00CBF9624C824B1E7022B08D00D4B1B7822
S11331B0002B0CBFB424F024A8E70024A6E7322493
S11331C0A4E74FF00F09B7E7006008409D0800200E
S11331D09C080020940800204C080020A80D002022
S11331E0E80C0020A60D0020FF290DD00F4B10483D
S11331F0C3F850010B04090501F0F87103F4E0234E
S11332000B430C49C1F85031FF2A0DD0074B40F253
S1133210F711C3F85011130103F4F87302F0070215
S11332201343044AC2F85031002070470040084458
S11332300000F70100400846F8B5134B134E1F6811
S1133240134D384600F04EFE3378C4B2A34201D188
S11332502B78A3B1092C14D80E4B012C195D05D180
S11332600D4B1B78022B01D141F0400101F00F02FC
S113327038460909FFF7B8FF002334702B7000208B
S1133280F8BD0024FA21F1E7D40A0020A40D00209F
S1133290A30D0020407D00009408002038B50446AA
S11332A000F0D8FA142200212E4804F0F7F92E4B2E
S11332B025781A782D49521B18BF01220A702268FA
S11332C01A60C820A2889A80FFF746FD284BD3F8DD
S11332D0C820284BFF211970274B2849062D03EAE3
S11332E00203274A1AD14FF4EE40C2F824014FF4E6
S11332F08A42C1F82421012243F08043C1F82021ED
S11333001B4AC2F8C8301E4B0322C3F85821FFF7EA
S113331093FF1C4B01221A70002038BD022D4FF080
S113332007000ED1C2F80C010620C1F80C011649A1
S1133330C2F808114FF4404143F00303C2F80411EA
S1133340DEE7C2F80C010520C1F80C01C020C2F868
S1133350080143F08043812243F00403C1F80821AB
S1133360CEE700BFC81F002194080020A30D002051
S1133370001F0021A00800202800C0A0004008462B
S113338000400844A70D0020C1004000014B187004
S1133390704700BFA60D00202DE9F0472D4C2E4BA1
S11333A0236000F0AFFA4FF4FA7307464FF47A76CD
S11333B0B0FBF6F629482A4A7343190E1B02181863
S11333C041F10001002303F055F9A0F5807305468F
S11333D0A36220B966222B21FFF7C2F901254FF41D
S11333E07A726A434FF0000A53465008310203F0E0
S11333F041F91C4B19601C4BB7F57A7F4FEA0568FD
S11334008946044618604FEA152505D276222B21F9
S11334105046FFF7A5F901264FF47A73A8FB030180
S113342003FB05117308C01841F100010023324663
S113343003F020F90D4B023419600D4B49F10009DA
S1133440A408186044EA8974024B013C1C63BDE87B
S1133450F08700BF005008400211010020A10700BE
S113346040420F00F80C0020F40C0020F00C002067
S1133470EC0C0020044B4FF00052C3F880211A607A
S1133480024B01225A60704700E100E000500840FE
S113349038B502010A4B01259D500A4A4FF4807346
S11334A083405366044603F046FB074A1378A5405D
S11334B023EA05031370BDE8384003F040BB00BFA6
S11334C00051084400500840A90D00201030044B5E
S11334D001F46001000141F003011950704700BF7D
S11334E00050084038B503F02DFB084B084A9D698D
S11334F0547DDA6D520748BF9D69E4B248BF013478
S113350003F026FB284604F0030138BD00500840B0
S1133510600D002008B5222000F00EF9024B4FF494
S113352080225A6008BD00BF00500840064B1B684B
S1133530434303EB8171054B1B68A3FB003013F17C
S1133540004341EB00007047F00C0020EC0C00201D
S11335500D4A10B5146820F0404301464FF0004274
S11335600020E4FB0320094A126802FB0300084B15
S11335701B6B98424FEA917104D901330131C01A8F
S113358001F0030110BD00BFF40C0020F80C002072
S1133590005008403B4B082270B501210546C3F892
S11335A0C8203948394CFDF7D3F9394B1D702378BD
S11335B0013B012B0CD8237CE07B01229A400C2197
S11335C0302313FB001303F1884303F520431A60EF
S11335D0304B00225A677DB92F4A4FF6FF71D167ED
S11335E002F10072F821D1675D672C4B4FF08042E5
S11335F0C3F89420002070BD636853B300F082F9CF
S1133600626800EB5203B3FBF2F3013B1B0243F08D
S1133610F80326782049224A022E1CD0032E1D4886
S11336204FF6FF7521D0012E27D143F00203CD6759
S1133630D36707234367237CE07B01229A400C2154
S1133640302313FB001303F18C4303F520431A606A
S113365011E0F823DDE743F001034FF6FF70C8677C
S1133660D3670C4B05225A67E5E743F00503CD67A2
S1133670D367012343670B4BB8E7CD67D3670023B8
S1133680F8E700BF00400E4600350A00FC0C00209D
S1133690AF0D00200000084000000844004008442A
S11336A00000084600400846F8B5064604460FCE1A
S11336B01C4F3D460FC533682B601B4B1B4808222B
S11336C0C3F8C8200121FDF743F9194A00235367C1
S11336D0A37BE17A1B0443EA0123217A0B4393671A
S11336E03B78032B1BD8DFE803F01402080E617B40
S11336F0207B00230422FEF771F9217CE07B002368
S11337000422FEF76BF9A17A607A01230422FEF702
S113371065F9084B1878BDE8F840FFF73BBF012076
S1133720F8BD00BFFC0C002000400E4600350A0026
S113373000000840AF0D0020044BD3F89430002B58
S1133740BCBF034BC3F88000704700BF0040084073
S1133750000008404FF0006318B1034AC2F89430E7
S11337607047024AFAE700BF004008460040084498
S113377008B5064B06491A684FF00450920003F04E
S11337807FFFBDE8084000F0F9BD00BF847D000064
S1133790887D000007B501A8FEF770F9134B144AA1
S11337A0C3F8442148F2E672C3F838214FF40862A2
S11337B0C3F834210F4AC3F8A0200F4A4AF63F4108
S11337C0916002F580424FF0C07191620022C3F80B
S11337D0FC200A4AC3F89C20094B7F225A6203F159
S11337E0007323225A6203B05DF804FB00400840D2
S11337F0C0E653517A27000F00300840806D630300
S1133800003008440F4B002210B5C3F88820C3F8D9
S11338108C20C3F890200C4A0121D1605A6812F020
S1133820706FFBD14FF00452DA67012402F5FD52A8
S1133830C3F880401A66054B1B689847044BDC604C
S113384010BD00BF0040084000400846500800205A
S113385000400844034BFD22C3F8C8200122C3F8EA
S1133860CC20704700400E4638B5FFF7F3FF1B4BE2
S11338701B481C4C1C490222C3F8C8201B4B1A6865
S113388042B102EA0005A54204BF5D681560083331
S11338908B42F4D1164B0222C3F8C820154B164AAA
S11338A0D3F83C111160154AC3F8942000F0CCFB06
S11338B0FFF770FF124B0322C3F8D820A3F500537F
S11338C00122C3F894204FF46072DA604FF0407222
S11338D0C3F8F820C3F8102138BD00BF00400E46DD
S11338E00000FFFF00000840B081E00F0080E00FFF
S11338F000400E4400400840540800200048F000F6
S11339000060084608B5FCF793FE044BD3F8103169
S1133910C3F308230133B0FBF3F008BD00400E40AD
S113392070B5044618B1284D2268531C00D170BDEF
S1133930C2F30063110C35F8130011F0FE0F93B2BB
S113394043EA0043606818D00434CAB2022A2168EA
S113395008D9D4E90160033AC3E9001698600C342D
S11339600C33F3E704D16268C3E900120834DBE7DF
S1133970012AD9D104341960D6E7120F072AF5D8E1
S1133980DFE802F00704090D1013181DC04303F10A
S113399080631860EAE71A6842401A60E6E703F1B8
S11339A0C063F6E703F085FCE0E70122824003F1FF
S11339B0C063F2E70122824003F18063EDE71A68F5
S11339C030EA0202FBD1D1E74A7D0000024B01221A
S11339D0C3F89420704700BF00400846024B012200
S11339E0C3F89420704700BF00400844024B4022B3
S11339F0C3F89420704700BF00400844024B4022A3
S1133A00C3F89420704700BF00400846064B5B682B
S1133A10C3F30363984206D1044A936B23F0F00383
S1133A2043EA01119163704700400840001F0021E0
S1133A302DE9F0470E4603F035FCDFF8B090DFF8CF
S1133A40B0A08046002503F076F8D9F80430C3F31B
S1133A500363012B07460BD1711C1AD003F022FC1F
S1133A60A0EB0805384603F06AF8AE42EBD80DE047
S1133A70052BF1D00B2BEFD0023B012B0CD90136D7
S1133A8002D003F00FFC384603F059F81648BDE89D
S1133A90F08703F054F8D6E7DAF808301A04C3F3D1
S1133AA089140FD4013602D003F0FCFB384603F02E
S1133AB046F824B2A4F1C8006FF4FF739842B8BF6B
S1133AC01846E4E7731C03D003F0ECFBA0EB0805F5
S1133AD06FEA84546FEA9454384603F030F814F5CE
S1133AE0007FC2D0E6E700BF00FEFFFF00400840B1
S1133AF000700840084910B5D1F8703140B11C4637
S1133B004A68D1F870319C42F9D1C2F30362027061
S1133B1003F00F0010BD00BF00400840094BD3F86C
S1133B20883001F0800103F480030B4309D1064B74
S1133B304FF400129A61837F1BB1044B0122C3F836
S1133B40F8207047004008400060084400600846C0
S1133B50144B197829BB144A90695860D2F8800034
S1133B609860D26DDA60114A50681861506B5861E0
S1133B70D2F8A0009861D2F8A400D861906A1862C3
S1133B80D06A5862126B9A62094AD2F8B820DA6293
S1133B9001221A70074B084AD3F8BC0E1060C3F810
S1133BA0BC1E7047140D002000600840000008404F
S1133BB00040084000100021100D002020B9144BD3
S1133BC04FF47002C3F8B820124A936903F4E07109
S1133BD0C02913D003F0C003802B15D10E4B0F4A1C
S1133BE0DA6503F17E433022DA650D4B05225A6013
S1133BF00C4A012313640C4A9360704723F4E07366
S1133C0043F080039361E9E70023C2F88030E5E7DD
S1133C100040084400600840006008460F00FFFFB1
S1133C20000008400000084600400840012801D078
S1133C30042823D1154BD3F8A02022F48042C3F8E2
S1133C40A020D3F8A42022F48042C3F8A4200122A7
S1133C505A6324229A624FF48072DA624FF49C729F
S1133C601A6303F180631022DA67084B05225A6055
S1133C70074A01231364074A93607047064B3F22A7
S1133C80DA6503F10073054ADA65EEE700000840DF
S1133C900000084600400840006008441200FFFF8E
S1133CA010B502F048FF084B1B6804463BB1984727
S1133CB028B1002200204FF4806100F091FC2046DE
S1133CC0BDE8104002F03BBF440D00202DE9F04157
S1133CD01F4CDFF89080069F0646A2FB03502C1968
S1133CE060F1000E9C46A0454FF0000373EB0E0EEE
S1133CF007D24FF4B4720E211846FEF731FD0220AC
S1133D001BE00029FBD0C6F3130601EB5C04B4FBF3
S1133D10FCF4A4FB0646E40C44EA46340D4E34603D
S1133D200D4C22600D4A914209D10D4AA5FB025364
S1133D3002FB00339B093B600020BDE8F081C40412
S1133D400A46E80444EA553102F094FC3860F3E78B
S1133D5000C9E876480D00204C0D002000F049020F
S1133D600A3BB2DF0046C32338B5164D2B780C4608
S1133D7023B9154B1B6D03F03F032B70134BD3F882
S1133D8094305B051CD5124BB0FBF3F040F24D535D
S1133D904343A3F546430C3B584300F5C91000F5D3
S1133DA0556028B940F21B322B21FEF7D9FC0120C3
S1133DB02B78084A5343B3FBF0F30020236038BD4B
S1133DC00220FCE7B30D002000300840004008400A
S1133DD000366E018096980070B5374C374B256BD2
S1133DE0374C1B682468ED024CBF1B191B1BB3F135
S1133DF0804F04D8002B3AD1324E1C460AE0B3FA65
S1133E0083F4314EC4F10204E340304DAB4201D996
S1133E1001345B0803EB5605B5FBF6F52C4EB342B3
S1133E2034BF002601262403013D44EA86242C43A2
S1133E300C60D8B1B3FBF0F1642400FB113363438D
S1133E40984288BF01F1FF31480801380139072839
S1133E50204D214C4FEA510311D90021297006212C
S1133E60C4F894101B0243EA0013136070BDB3FA44
S1133E7083F4D4F10204134EC6D50024C5E71029F7
S1133E80EBD068B1012129700621C4F894101349BC
S1133E9009780029E6D012490224C1F89440E1E7E8
S1133EA0012914BF0121002129704FF00601C4F833
S1133EB09410ECD1D6E700BF003008404C0D002030
S1133EC0480D0020E0673500C0CF6A003FBE4025A2
S1133ED0401B5F13B00D002000400844B10D0020CA
S1133EE000400846084B5B6B03F00700C3F3C202B3
S1133EF013F0380F18BF5043C3F3821213F4E07F5A
S1133F0018BF5043704700BF00300840034BD3F83C
S1133F10380180F01000C0F30010704700400840E2
S1133F20174B4FF4002210B5C3F89420154C164BD0
S1133F30B0F1804F88BF1C46144BDA6CD2071DD5F4
S1133F401B6F134A04F5F42404F59074B4FBF2F4E3
S1133F50033CE4B203F00703A34202D02046FDF77A
S1133F609DFC0C4B1B784BB10B4B4FF47022C3F8E8
S1133F70942003F100732404C3F8944010BD00BFDF
S1133F8000400846E0673500C0CF6A0000300E40AC
S1133F9040420F00B20D0020004008447FB50446A3
S1133FA0FCF784FB1C4B06462C3358680093A3791A
S1133FB022683146FFF78AFE054648BBA379012BE8
S1133FC014BF164916491022C1F838212068154932
S1133FD05843FFF7C9FE03AA02A93046FFF7FCFEC7
S1133FE00F4A43F6FF53C2F8A4300C4B0299C3F8AE
S1133FF0A4104FF4EE611163039A1A632068FFF76B
S11340008FFF094BA2881A6203F5405300229A637A
S1134010284604B070BD00BF003008400040084688
S113402000400844503008400000084008B5044BE4
S113403001221A70034B1868FFF772FF002008BDB5
S1134040B20D00204C0D0020024B4FF48062C3F8E7
S113405094207047004008460D4BD3F80421D3F850
S1134060B030D2B2FF2A03D043F30743591C01D125
S113407090221923074903EBD37302EB6302022353
S113408081F84630232381F8472081F84530704772
S11340900081E00F001F002140B10368012B05D906
S11340A00069034B002808BF184670470048704752
S11340B0507D000038B5054614480C46FFF748FA11
S11340C02DB1C30103EB5503B3FBF5F32360104A91
S11340D05368D80217D40F4B1B68D2F8A810C3F347
S11340E0810311F4806203F10103C9B218BFDA003D
S11340F0FF2906D00649D1F8AC10490501D502EBD9
S1134100C302626038BD0022FBE700BF40420F00DB
S11341100000084000200840084B1A68C117A2FBA1
S1134120000310F1807002FB013343F10003400EE1
S113413040EAC310803820EAE0707047540D002034
S1134140174B072270B5C3F88420FFF7DBFB154B30
S1134150154A164EC408010B0546E005C01841F186
S11341600001002302F086FA114B18604EF660201D
S1134170FFF7D2FF4042C6F89C000E48FFF7E8F96B
S1134180024658B1E301500818184FEA15714FF070
S1134190000341F1000102F06DFA706770BD00BFC9
S11341A000400840B2E60E0065CD1D00001F00214E
S11341B0540D002040420F002DE9F84305460846FF
S11341C09846FFF769FF16460746002D00F0A980C0
S11341D018F0050F5DD02C69002C00F0A480FEF7C8
S11341E059FF4FF47A735C43201A7B68A0F6AC50F5
S11341F0C01AFFF791FFAC8B3062002C00F0968060
S1134200FEF748FF4FF47A735C43201A7B68A0F6EC
S1134210AC50C01AFFF780FF70614A4BEC68D3F8CA
S11342200090002C00F08580FEF734FF4FF47A7381
S11342305C43241A7B68A4F6AC54E41A3B68E41A81
S1134240414B1A68E117A2FB044314F1807402FB8A
S1134250013343F10003640E44EAC314803C3B4B36
S1134260B4613B4CD3F88430F36123684BB14846C6
S113427003F051F928B12368D9F848003246394689
S11342809847AC69FEF706FF0146204603F037F86D
S1134290F06218F0020F29D06B684FF47A7058431B
S11342A05BB13B6803F51C5310331844AB7F002B00
S11342B046F2A81308BF00231844FFF72DFF6B69CB
S11342C0B062002B38D078684FF47A7202FB030096
S11342D0AB7FA0F50350002BA0F1100046F2A81309
S11342E008BF0023C01AFFF717FF706218F0040F0D
S11342F017D0A86818B34FF47A735843A0F5035045
S11343001038FFF709FFF0602B684FF47A705843B8
S113431023B13B6803F51C5310331844FFF7FCFE2C
S11343203061BDE8F8834CF2503062E74CF2503013
S113433070E74CF2503483E747F23050D3E747F24A
S11343403050DEE7D40A0020540D0020001F002165
S1134350500D0020074BD3F8D8304FF604014FF628
S113436005029BB28B4208BF1346034A01209365A2
S1134370704700BF0081E00F0050084070B5194C31
S11343800FCC86B001AD0FC5C822236816482B6038
S1134390002103F083F97C220021144803F07EF904
S11343A0134B144AC3F8F020FFF756FE124B1B7848
S11343B02BB101AD0FCD0B4E0FC62B6823600F4BF5
S11343C00F4AC3F8DC2F0F4AC3F8E02F0E4AC3F894
S11343D0E42F02F1957202F27112C3F8E82F06B0CD
S11343E070BD00BFC81F0021381F0021BC1E002162
S11343F0001F00213F003700A70D002000100021FE
S11344000200620209C805780708DC060A4B19781D
S113441001F0FF0229B10021197008499202C1F884
S1134420A020597801F0FF0229B1002159709302AC
S1134430024AC2F8A4307047B40D002000000846B8
S1134440074BD3F8E40E074BD3F88C301A0103D48E
S1134450054B1B6E1B0401D500F58070704700BF2F
S113446000100021004008400000084008B502F098
S113447062FB0F4B1A78B2B90E4A126812F4843FE9
S113448011D10D4A1021C2F894101B786BB9094B55
S11344901B68DB0509D4084B2022C3F89420BDE82F
S11344A0084002F04CBB054AECE7044BF4E700BFBC
S11344B0B80D0020880A0020004008440040084647
S11344C010B502F038FB0E2104460320FFF79EFAD4
S11344D0044B40F2012220465A62BDE8104002F02B
S11344E02EBB00BF00000840044B00221A70044B8E
S11344F0197811B11A70FFF7B9BF7047B70D0020D2
S1134500B80D002008B502F016FB244B4FF0805282
S1134510C3F88020BFF34F8FBFF36F8F4FF48072C7
S1134520C3F88020BFF34F8FBFF36F8F0222C3F80D
S11345308020BFF34F8FBFF36F8F1022C3F880200A
S1134540BFF34F8FBFF36F8F2022C3F88020BFF3D8
S11345504F8FBFF36F8F4FF00052C3F88020BFF32B
S11345604F8FBFF36F8F8022C3F88020BFF34F8F2C
S1134570BFF36F8F4022C3F88020BFF34F8FBFF388
S11345806F8F4FF00042C3F88020BFF34F8FBFF30B
S11345906F8FBDE8084002F0D2BA00BF00E100E02E
S11345A008B502F0C8FA0D4B4FF080521A604FF470
S11345B080721A6002221A60002283F801231022FA
S11345C01A6020221A604FF000521A6080221A608A
S11345D040221A60BDE8084002F0B1BA00E100E0F0
S11345E070B5084C01232370074B1E68074BD3E9B1
S11345F0005332401940284001F072F80023237020
S113460070BD00BFB60D00205C0D0020880A00209C
S11346102DE9F047DDF820A003EA0108099B0646CE
S11346200D4602EA000703EA0A09BAF1000F40F056
S11346304981031F0B4300F00F81052871F100032A
S113464080F0E38050EA010300F05C81431E0B43D9
S113465000F01D81FFF756FFAB4AD2E9004323EA7D
S1134660050324EA06043C4343EA0807A74BA84D84
S11346701E68DFF8EC8226EA0A0646EA09061E608E
S1134680C2E90047FFF7F2FE14F02A4F14BF48F2C4
S113469002034FF40043B0079E48C26E48BF43F480
S11346A0005383EA020122EA0302EA669A4A816617
S11346B00B40D366C4F380421203210348BF42F483
S11346C08072E30648BF42F40052A50648BF42F494
S11346D0007260069148924DD0F80C3248BF42F403
S11346E08062210648BF42F4006282EA030123EAA1
S11346F00203C5F80C328B4BC0F808120A40C7F30A
S11347004025AD04C3F80C22E20448BF45F48035CB
S1134710A30348BF45F48015A00748BF45F400151E
S113472014F4001F06D0D8F8000002F064FF08B9A2
S113473045F40025E1027C497C4848BF45F4003536
S1134740FA0648BF45F480050A6A730748BF45F076
S1134750040585EA020323F001031A4002621D40A6
S1134760CB61734B73481D62734B744A16F0010F8F
S113477018BF1A46836E7D0748BF42F40012704D7D
S113478082EA030123EA0203AB666E4B41660A40E8
S113479000F500509A66C16B04F0010305F500555D
S11347A081EA030221EA0301E96382631A40664B4A
S11347B0DA63D8F80020200248BF644B92F8E9205D
S11347C058BF634B610748BF43F4806322B114F4BC
S11347D0C06F18BF43F480735E485F4CD0F8EC1090
S11347E0320748BF43F0004383EA010222F4A022C7
S11347F01140C4F8EC101340C0F8E820574ABDE853
S1134800F047C2F8EC30FFF7CBBEA0F580630B4352
S113481006D020F48063A3F500730B437FF41AAF32
S113482002F089F93849D1E9003223EA060322EA81
S1134830050242EA08023B43C1E90032484A1268D1
S113484092F8E9200AB313F4C06F1ED0434B4FF41F
S11348508072C3F8EC2014E002F06DF92A4AD2E920
S1134860003123F004033B4341EA080157EA0807F7
S1134870C2E9003114BF394A374A4FF48063C2F8A1
S1134880EC30BDE8F04702F05AB9334BDFE702F0F1
S113489052F91D4AD2E9003123F001033B4341EAB6
S11348A00801C2E900312F4A57EA08074FF0010313
S11348B015BF93632C4902F1C062CB6314BFD36369
S11348C09363DEE750EA01037FF4C4AEBAF1010F4B
S11348D07FF4C0AE02F02FF90C4A136823F00103F1
S11348E043EA09031360134A4FF48063B9F1000FDC
S11348F004D0536602F1C0629366C2E710498B6626
S11349005366BEE7BDE8F087880A00205C0D0020EE
S11349100000084400000840000008460060084009
S11349200060084400600846004008400040084415
S11349300040084600500840041C50000418500071
S11349400050084400500846007008460D0A0A0941
S1134950090A0A090010084000100844001008461B
S1134960D40A00200070084000700844024B5868C4
S1134970C0F3C000704700BF880A0020024B1868CB
S113498000F00100704700BF880A0020024B5868FD
S1134990C0F3C030704700BF880A0020034B1B6877
S11349A013F4C06F14BF012000207047880A002050
S11349B010B50446FEF758FFFFF7A4FD04F14C00C0
S11349C0FEF76AF8FEF71EFFFEF7E6FCFEF752FD5F
S11349D0FFF7B6FB1049114AD1F8F810072304F188
S11349E0A400FFF7E9FB4FF440010020FEF76EFD41
S11349F04FF400110120FEF769FDFFF7ABFC20B96D
S1134A0040F2E7221421FDF7ABFEFFF70FFBBDE8F0
S1134A1010400120FEF7BEBD001F00216C1F0021C5
S1134A20F8B50B4C0B4DD4F888300B4F0423C5F864
S1134A308830D4F888305B0300D4F8BD0426C7F866
S1134A408860022002F035FCC5F88860F1E700BFF9
S1134A500040084000400846004008441C4B70B524
S1134A60D3F888601B4D03F18063A822C3F8882023
S1134A7010221A60184A194B93666B66FFF7C6FC3E
S1134A80174B1B7813B90320FEF702FD00242C6793
S1134A90FFF7C6FF134A144BD2F8E41E0B40C2F8CA
S1134AA0E43E124B0422C3F88820114BB206C3F82B
S1134AB0C44008D503F580739B6CB3F5817F22BF96
S1134AC0034B80229A60BDE8704001F04FBC00BFE8
S1134AD00040084000500840005008441000000204
S1134AE0BB0D002000100021DF0000FF004008443F
S1134AF0001E002110B549B918B3144A53681B0E9F
S1134B0013F00E0F1DD113689A061AD4FFF7D8FCC0
S1134B100E4C0020FEF7EEFF032801D0092806D131
S1134B20D4F88C30DB03F4D4636F0C2BF1D9FFF78A
S1134B3077FF074B0122DA6003F17E430422C3F8B6
S1134B408820044B4FF4C0625A6210BD00400840F4
S1134B50004008460060084408B503210920FEF718
S1134B6055FF024B20229A6008BD00BF0040084058
S1134B7038B5054601F0DFFF0446FDF749FF35B1BE
S1134B80FFF7B2FC2046BDE8384001F0D8BF084B1F
S1134B901B78002BF6D0074B1D78002DF2D1FFF7C0
S1134BA0A3FC2A464FF480400021FFF719FDE9E7F2
S1134BB0B70D0020B60D00202DE9F84F564B0646E0
S1134BC0D3F888300D461446002A40F0A28013F032
S1134BD0A00F14BF4FF001094FF00009DFF8548112
S1134BE04E4F01F0C3FBA023C8F888300320FEF722
S1134BF04FFC0420FEF74CFC4FF0000AFFF774FC56
S1134C00474BFB66C7F870A0FFF70AFF454BD3F884
S1134C10BC2E42F02002C3F8BC2EFF22C8F80020AC
S1134C203D4A4FF480719160D3F8E42E3E494FF031
S1134C30040B1140C3F8E41EC8F888B0C3F8C4AE2E
S1134C40FB6813F0060F04D0FEF764FC5846FEF729
S1134C501FFCB9F1000F08D0344B4FF40062C3F8C5
S1134C608820334B4FF400425A6666B1304B5B6C7C
S1134C70180701D4FFF724FCFFF76EFF0420FEF7AA
S1134C8007FCFFF7C3FB244BDA68D1073FD55A680A
S1134C9012F0706FFBD1274B274AC3F88820274AAC
S1134CA0936B23F0F003936315B12046FFF760FF85
S1134CB0234BD3F8B4305A1C01D05B0002D51D4BF2
S1134CC00122DA601CB31A4BDA6E9A66124A136A2E
S1134CD023F00103D3611B4BD3F80C22C3F8082241
S1134CE0A3F54053DA6F9A67A3F50053D3F8EC2089
S1134CF0C3F8E82003F5C043DA6B9A63A3F50053C5
S1134D00114A5A660B4B4FF60842C3F88820BDE897
S1134D10F88F4FF0000961E7004008400050084058
S1134D200000010100100021DF0000FF00400846E0
S1134D30000008400040084410003000001F00211B
S1134D400081E00F006008405000F0029A4B196E99
S1134D50DA6E2DE9F04F01EA0209C3F8689003F511
S1134D60805385B0D3F8E060D3F8EC201640C3F844
S1134D70E86003F5A043D3F80012D3F80C2201EA4B
S1134D80020AC3F808A2A3F5005359691A6A01EA92
S1134D9002088A4A08EA0202DA61894BD3F800223F
S1134DA0910006D4D3F800319A00C3F3407740F160
S1134DB0E18001F0C0FE834BDA68DF6D12F0060F6C
S1134DC09A6E07EA020727F4800222F4006214BFF5
S1134DD04FF0010B4FF0000B5A667B0704D57A4A5B
S1134DE0537D0133DBB2537501F0A9FEB9F1000F15
S1134DF000F0DF8019F4004427D001F09CFE014646
S1134E00FFF71EFB6F4D0446AA69AB699A42FCD0BA
S1134E10AA699342FCD0FFF713FBA04240F0AC8098
S1134E20084601F08CFE694B1C60694BD3F888502E
S1134E3015F4E05240F0A28024F07F4424F0DF0413
S1134E400CB9FFF70BFE4FF0807419F0020F4FF00E
S1134E50000516D05E4B5F49D3F8883003F46042F6
S1134E60C1F88820002A00F09E801D0400F19E8075
S1134E7013F4005F0CBF4FF000534FF000631C436A
S1134E800025C9F340394FEA4909534B3340002BFD
S1134E904AD016F4206F0AD040F60F0206210020F3
S1134EA0FDF75EFC0020FFF763FE26F48026F00584
S1134EB006D5484BFF221A6044F4C064FFF700FB98
S1134EC016F0090F0AD040F6240208210020FDF74D
S1134ED047FCFFF741FE414B01229A6216F0106F26
S1134EE00CD040F62D0209210020FDF739FCFFF714
S1134EF033FE002211461046FDF762FD16F4202F02
S1134F000AD040F6350207210020FDF729FC0020D5
S1134F10FFF72EFE26F48026F10301D5FDF7A0FE4F
S1134F20002EB8BF49F0080972070DD52B4B5B6AF8
S1134F3013F4005F14BF2A4A2A4A4FF400531ABFDD
S1134F40536244F400045362730548BF44F00404FC
S1134F5016F4802600F0AA80FDF74CFE01380628DE
S1134F6042D8DFE810F021012401210127012A01A0
S1134F702D012D01BB4639E7044645E70192FFF7B1
S1134F806DFD144B019AC3F8882015F4805307D1A2
S1134F9015F4806F0CBF4FF080544FF0806454E7D9
S1134FA04FF0804451E74FF0007368E74FF000433F
S1134FB065E74C464D4668E7000008400000F7FFEF
S1134FC000E100E000500840600D0020580D002072
S1134FD00040084000400844090B0B8900100840B9
S1134FE0001008440010084640F666020321002021
S1134FF0FDF7B6FB7C4A136ED2F8800003F007037A
S11350000633012101FA03F3C0F30C001B1A9BB20F
S1135010072B13D9754BD3F8883058020ED4744833
S1135020136B126DC06C58B103F00703063399403B
S1135030C2F30C03C91A89B2072901D844F40074D5
S11350406C4B1B78002B31D0674BD3F8E03013F452
S1135050A02F2BD1684B694A1B7893B9FB0410D459
S1135060137873B1E308664943EA457383F0010397
S1135070D1F8E41E03F001035B0021FA03F398075F
S113508014D10420FEF704FA5E4B5F49D966FFF79A
S11350902BFA5A4A13782BB95C4B5D4A1B682340A0
S11350A0134201D144F4804427F48057BAF1000F2D
S11350B01DD01AF4805F18BF44F480241AF4807F52
S11350C018BF44F400241AF4005F18BF44F010041D
S11350D01AF4007F18BF44F020041AF4806F18BF3C
S11350E044F040041AF4006F18BF44F08004B8F18F
S11350F0000F3BD018F4802F18BF45F4007518F446
S1135100803F18BF44F4805418F4801F18BF44F43F
S1135110003418F4001F18BF44F0020418F4003FD0
S113512018BF44F4801418F4800F18BF45F010051C
S113513018F4002F1AD0324BD3F8BC3E13F0C00F32
S113514014D02A4B5A68C2F30362032A01D0072AF7
S113515007D1D3F88C20D10603D4D3F890201207BA
S113516031D54FF40022DA6128F40028002F00F032
S11351700D81380540F18180264ADFF888A0D37874
S1135180002B4DD0013B4FF40061DBB2CAF8641030
S1135190D37033B9204B1B78C3B1204B40F6014286
S11351A0DA660023002266E044F4803422E744F403
S11351B000641FE744F480641CE744F4807419E736
S11351C044F0080416E744F40014CFE7DAF870302A
S11351D013F4A05F15BF4FF4807340F60143CAF87F
S11351E05030CAF87030DCE7001008400040084036
S11351F000000840B80D0020B70D0020B90D0020B4
S1135200001000210050084000000101880A00201D
S1135210088D0100AA0D0020BB0D00200050084697
S11352200320FEF735F9DAF80C30A848A84913F042
S1135230060F02BFA74B41F61F72DA664FF40063F4
S1135240CAF86430DAF80C3013F0060308BFCAF861
S11352507030C38A13F4006260D023F40063C38205
S11352600B7803F0FF0A002B5CD1FEF753F9FFF72C
S1135270F5FB534620221C431543B9010BD52E20C0
S1135280FEF75AFA934A4FF00073936602F17C4298
S113529045F008055366FA0608D52B20FEF74CFAAC
S11352A08C4A1023936602F17C42536617F4E00F94
S11352B005D1FB045ED5BBF1000F00F0AC80B80251
S11352C010D52920FEF738FAFFF750FB40B1824988
S11352D0824A834B53668B6682494968490424D4C5
S11352E045F0040517F4800BDFF8F0A129D0042061
S11352F0FEF7CEF82720FEF71FFAFFF7AFFB4FF4B7
S11353008003CAF86430784BD3F8E42E50067CD47A
S1135310764B02221A6045F0020528E00B784FF420
S11353200053A8E74FF400433CE76A4920208B660A
S11353305366FEF701FA2D2045F00C05FEF7FCF943
S1135340D0E7FA024CD50420FEF7A2F82820FEF795
S1135350F3F9DAF87030002B3FD1FFF77FFB5D4A99
S11353605F4B936602F17C4245F0010553665B4B4B
S113537000221A657B0509D55D4A9378002B00F05D
S11353809880013B9370002349EA03094A4620466A
S11353902946FFF725F90EB1FDF754FC18F4002F48
S11353A000F08C804F4B4FF40022DA6118F0206F2C
S11353B000F0888018F0007F01D0FDF73DFE18F062
S11353C0006F01D0FDF754FE002200204FF400616D
S11353D005B0BDE8F04FFFF703B9CAF870B0BEE7F7
S11353E0FB04C4D50420FEF753F8424BCAF86C30D2
S11353F0FEF790F8DAF85C3013F4A00FB7D12A2046
S1135400FEF79AF9FFF72AFB7DE7D3F8BC3E99062D
S113541081D4394B7DE7364A13794BB1013BDBB27A
S1135420137113B92C4B354ADA6600231C43A1E7E8
S11354300420FEF72DF80320FEF72AF8274B2D4A07
S1135440DA6601F078FB82460DF10F00FEF752FB9D
S11354502B4B1B7883460BB1FFF732F8BBF1030FDC
S11354600ED1DFF880B00020FEF744FB032807D1FB
S1135470DBF88C30DA03F6D4DBF874300C2BF2D979
S11354809DF80F30032B06D11E4B012250461A7093
S113549001F055FBC9E71C4BD3F8E03013F4A02FFF
S11354A0F2D1FFF721F8504601F049FB4FF4804355
S11354B0BCE70220FDF7ECFF012365E7B8F1000F1C
S11354C07FF474AF05B0BDE8F08F00BF600D00201D
S11354D0BB0D00200050084400500846005008400E
S11354E01000000200400840001000210040084461
S11354F0AA0D002000000101004008460000010D33
S1135500BA0D0020B70D002000100840014B1B68A5
S1135510184700BF64080020034A0123136202F104
S11355207C42D361704700BF004008440B4B10B568
S11355305C691A6A1440A2B2DA61E20704D55868B9
S1135540C0F30360FFF7E8FF630706D5BDE810402A
S1135550042200200021FFF743B810BD004008409A
S11355600C4A08B5136BD16B0B409363DB070FD563
S1135570094B187840F6AC22122100F00100FDF727
S1135580EFF8BDE80840002201200021FFF728B809
S113559008BD00BF00700840880A0020044BDA6F81
S11355A0D207FCD41A6FD96F0A409A67704700BFBC
S11355B00030084070B50D46144601F0BCFA064BA5
S11355C0D3F8BC6E74402C407440C3F8BC4E01F058
S11355D0B6FA05EA060070BD00100021034BD3F8AB
S11355E0BC3E99430CBF01200020704700100021ED
S11355F02DE9F04117460A43012A9DF818409DF809
S11356001C60DDF820801D4629D8B44227D2082E1C
S113561025D8032B23D8B8F1000F20D00A46002147
S113562000F02AFEEB00FF219940DFF838C0C9439F
S113563008F1FF38FF00E2B2964202D80020BDE82C
S1135640F0813D190CEB850518F8010FD5F8EC2015
S113565098400A401043C5F8EC000134EBE7012000
S1135660EDE700BF001E002109490A4AD1F8EC0009
S113567010B504230124C2F8EC308C624FF40051BD
S11356805162410744BF02F10072C2F8EC3010BD10
S11356900010084000100844431C07D0044B6FF06E
S11356A0FF029A6103F1007310409861704700BFD4
S11356B00070084400F01803182B0AD003070AD41A
S11356C010F0100040F2011318BF1846034BD864C1
S11356D070470020FAE70120F8E700BF001F00210F
S11356E0344B2DE9F7431E6801F4007900F00103FF
S11356F0174653EA090205460C462ED04FF000081F
S113570003B30023002201200021CDE90088FEF725
S11357107FFF41463046FEF78BF9414670830120F6
S1135720FCF75EFE716B06F1A400FEF7F7F922495F
S11357300868FFF7B1FF4FF0FF330B60337C43F091
S113574004033374B9F1000F07D00121304601F08E
S1135750E4FC24F4007405430C43D6E93E232A40B8
S1135760234052EA030103D01449304609688847AC
S1135770FB070FD51249134A08681368002111600A
S1135780114A0121117003B19847104B00215B6845
S11357900220984717F00E0F08D040F2F3123B2175
S11357A0002003B0BDE8F043FCF7DABF03B0BDE866
S11357B0F08300BFD40A0020680800206C08002091
S11357C0840D0020880D0020BE0D00204408002018
S11357D0F7B50446D4E93EC71046DDE908268CEA4D
S11357E0020587EA06010540194085EA0C0579405F
S11357F0C4E93E5123F4004106EA010320F001000C
S1135800002543F40073024043F00203CDE9005540
S1135810FEF7FEFE237C9A0717D5D4F8FC309B05CF
S113582013D54FF48811204601F077FC237C65F3EF
S113583041032374D4E93E2302400B4052EA03019E
S113584003D00349204609688847002003B0F0BD0F
S11358506C08002038B10368044A002B08BF1346C3
S1135860034A13607047014BFAE700BF2773000037
S11358706C080020024B986B00F00F00704700BFCB
S1135880001F00210F2938B505460C460ED800F03C
S1135890B3FD01280CD1074A936B23F00F03234374
S11358A09363284601F07BFE002038BD0120FCE70D
S11358B00220FAE7001F0021014BD86B704700BF9C
S11358C0001F0021014B0020D9637047001F0021F5
S11358D003282DE9F7434CD8274B13F80080274BB6
S11358E01E5C274B13F8009001F025F90746FFF7DB
S11358F045F8054640B10023CDE9003300220023DA
S113590001200021FEF784FEFFF740F848B1002390
S1135910CDE900330022002300204FF40041FEF7BC
S113592077FE26B3174B5C6C04F00804164B314623
S11359305C644046FFF7DEF84A4631464046FFF7CE
S11359403BF9124B5C6465B1114B1868416BA43090
S1135950FEF7E4F80F490868FFF79EFE4FF0FF33A7
S11359600B60384603B0BDE8F04301F0E8B83446B4
S1135970DCE703B0BDE8F083607D00005C7D0000DF
S1135980587D00000000084000000844000008465C
S1135990D40A002068080020104AD2F8883013F096
S11359A0A00F16D1D2F88C0010F0040013D10C4BC8
S11359B0D3F8E43E23F07F4323F0FF035BB1536845
S11359C0C3F30362092A07D0B2F10C0018BF012007
S11359D07047002070470120704700BF0040084016
S11359E00010002170B50D46064620B9194B1B68FE
S11359F0A3B1032011E000F0FFFC012828D1164BCD
S1135A0093F90040C4F11C04641BC4F11C03002B73
S1135A10B8BF5B42232B0CDD012070BD81EAE1732A
S1135A20A3EBE173DBB2232BF6D80B4B19700020E8
S1135A30F3E7B57401F07FF8084A5369E40223F4EC
S1135A40FF2304F4FF241C43546101F078F8EEE7CB
S1135A500220E2E7D40A0020BC0D002000700840B8
S1135A6090F8C23053B9074BDA69920208D49B6F9D
S1135A7013F4706F14BF012000207047002070479A
S1135A800120704700600840F8B5436B02EA010545
S1135A9023EA01032B434363344A01F00B030C460E
S1135AA023EA0501516402F100722B4061070646A6
S1135AB0536411D50121FFF7D3FF68B1FEF7B0FF9E
S1135AC015F0040F14BF2A4A2A4A4FF40073D36115
S1135AD0294B0422C3F88820E20606D515F0100FDE
S1135AE0264B14BF00221B22DA6423061DD52F0681
S1135AF016D51F4B4FF400129A6103F17E43012225
S1135B00C3F8F82001F017F80E2107460320FDF72B
S1135B107DFF1A4B40F201225A62384601F00FF819
S1135B20294606F1A400FDF7F9FFE00503D5E905D0
S1135B3016D5FDF753FFA20503D5AB0513D5FDF725
S1135B405DFF14F0600F09D0D6F89410304601F0D0
S1135B50EBFB0B4B98640B4B80229A600020F8BD42
S1135B60FDF734FFE7E7FDF741FFEAE700000844EB
S1135B7000600846006008440040084400000840F3
S1135B80001F00210040084070B50E4600F0D3FF0E
S1135B90054600F055FC044620B1284600F0CFFF2E
S1135BA0204670BDFEF73CFF114B3278D3F8E43E3B
S1135BB0022A23F0F00316D0101F42424241520041
S1135BC043EA02137278022A0FD0111F4A424A4153
S1135BD0520043EA8213064AC2F8E43E054B04220B
S1135BE0C3F88820D9E70122EAE70122F1E700BFE0
S1135BF0001000210040084470B50E4600F09BFFE1
S1135C00054600F035FC044620B1284600F097FF15
S1135C10204670BDFEF704FF104B3278D3F8E43E03
S1135C20022A23F00F0315D0101F424242415200B2
S1135C3013437278022A0FD0111F4A424A4152007C
S1135C4043EA8203054AC2F8E43E054B0422C3F842
S1135C508820DAE70122EBE70122F1E700100021B6
S1135C6000400844F8B50E7890F8D07004463046E9
S1135C700D46FDF72FF8002844D094F8D030B342F5
S1135C8008D1AA88636C9A4204D16A88B4F8D230E5
S1135C909A4235D084F8D060AB88A4F8D4306B88AD
S1135CA0A4F8D230AB886364FF236375304601F0F7
S1135CB0C0FA04F1D00520752846FDF7EFFA10BBB1
S1135CC02846FCF7FDFFF0B9D4F8903053B194F8AE
S1135CD0D010B94206D0B3F912202046FBF750FF8A
S1135CE084F8D9002046FDF7DBF90949A4F8D4006B
