:020000040FE10A
:1008000008100020AF2AE10FAD2AE10F392BE10FCC
:10081000AD2AE10FAD2AE10FAD2AE10FAD2AE10FBC
:10082000AD2AE10FAD2AE10F4447E10FAD2AE10FF8
:10083000AD2AE10FF446E10FAD2AE10FAD2AE10F39
:10084000AD2AE10FAD2AE10FAD2AE10FAD2AE10F8C
:10085000AD2AE10FAD2AE10FAD2AE10FAD2AE10F7C
:10086000AD2AE10FAD2AE10FAD2AE10FAD2AE10F6C
:10087000AD2AE10FAD2AE10FAD2AE10FAD2AE10F5C
:10088000AD2AE10FAD2AE10FAD2AE10FAD2AE10F4C
:10089000AD2AE10FAD2AE10FAD2AE10FAD2AE10F3C
:1008A000AD2AE10FAD2AE10FAD2AE10FAD2AE10F2C
:1008B000AD2AE10FAD2AE10FAD2AE10FAD2AE10F1C
:1008C000AD2AE10FAD2AE10FAD2AE10FAD2AE10F0C
:1008D000AD2AE10FAD2AE10FAD2AE10FAD2AE10FFC
:1008E000AD2AE10FAD2AE10FAD2AE10FAD2AE10FEC
:1008F000AD2AE10FAD2AE10FAD2AE10FAD2AE10FDC
:10090000AD2AE10FAD2AE10FAD2AE10F0348044BF8
:10091000834202D0034B03B11847704718100020E0
:1009200018100020000000000548064B1B1AD90FC4
:1009300001EBA301491002D0034B03B118477047E4
:1009400018100020181000200000000010B5064C00
:10095000237843B9FFF7DAFF044B13B10448AFF330
:1009600000800123237010BDAC5D0020000000005A
:100970009449E10F08B5054B1BB105490548AFF394
:100980000080BDE80840FFF7CFBF00BF00000000B7
:10099000181000209449E10F064B0748DA1C121A80
:1009A000C11E22F00302994288BF0022034903F0CE
:1009B00035BE00BF1810002008100020A049E10F2C
:1009C000064B0748DA1C121AC11E22F00302994294
:1009D00088BF0022002103F059BE00BFB05D002097
:1009E00018100020044B054A9A60D3F8882042F47E
:1009F0007002C3F88820704700ED00E00008E10FA6
:100A000070B4084DD5F828582E698642034606D89A
:100A10006C6913449C4202D370BC02F053B870BCA2
:100A2000704700BF0000E10F37B51446144A936ABF
:100A30000D461968134B994220D100F5004310F57B
:100A4000004F01931AD2019BB3F5801F16D2019B70
:100A5000C3F58013A34211D340B9D2F828385A699C
:100A6000B2F5004F02D9186902F007F90198224641
:100A7000294603B0BDE8304002F024B803B030BDD1
:100A80000000E10FAD1007B0F0B5421ED11C85B0DB
:100A9000034618D80D4C6E4604F1100720686168B3
:100AA000354603C50834BC422E46F7D104A90F339E
:100AB00011F8014D12F8010F844204D19A42F7D186
:100AC000012005B0F0BD0020FBE700BFE046E10FCC
:100AD000F0B5036803F16043B3F5802F9FB004467F
:100AE0005DD8314A4368D2F8282816699E4256D804
:100AF000B3F5801F53D8456B06F14003AB4250D885
:100B0000B5F5801F4DD82846FFF7BEFF002848D016
:100B1000284601F0F9FF80B16F6977B1022F0ED13D
:100B2000AB69C4F1040119444FF0FF32204600F0D4
:100B30000DFF1E4BC31A584258411FB0F0BD40F282
:100B4000046328460393FFF79FFF0028F5D0012F89
:100B500025D1AD69AE4222D8AC4220D8B5F5801F70
:100B60001DD804A803F044FA2A1B214604A803F068
:100B700049FA04A803F048FA00F042FF044600F0E6
:100B800043FF2346009005F12002294604A800F007
:100B9000F7FE03900398B0FA80F04009CDE70020FB
:100BA000CBE70120C9E700BF0000E10FE320BBDE77
:100BB00008B54FF0FF3200F0C9FE044B984203D154
:100BC00040F2092000F008F9002008BDE320BBDE58
:100BD000314B012213B55A6401F03CFF2F4B90B901
:100BE0004AF6E852C3F89021D3F8982142F0040263
:100BF000C3F89821C3F89001D3F8642142F400525D
:100C0000C3F8642101E00128F6D0254A136A23F4D1
:100C1000441343F488131362A2F58042136843F42B
:100C2000807313601D4B5B6801F078FF00F09CF847
:100C300008B900F081F803F042FA044658B900F010
:100C400093F808B100F088F840F2012000F0C4F8F1
:100C50004FF4017018E000F087F808B900F074F85C
:100C600000F09CF8012802D900F066F8FEE700F0D9
:100C7000A1F80C4B0193019B002B0ADC40F20543C9
:100C80009C42E5D140F2032000F0A6F8002002B01B
:100C900010BD019B013BEDE700000E4000300E400F
:100CA00000400E4000350C0013B501238DF80630CE
:100CB0008DF807301E4B5B685A050FD500F0AAF877
:100CC000A0F2022080B2072808D8C923C340DB075E
:100CD00042BF00238DF806308DF80730002463688A
:100CE000013307D14FF4027000F04CF88DF8064044
:100CF0008DF807409DF807305BB10020FFF7E8FE54
:100D00008DF806009DF806301BB94FF4027000F014
:100D100039F89DF806304BB100F026F808B100F024
:100D20001BF8044B0020986001F0FCFE02B010BDDF
:100D300000500E4000ED00E0024B4CF23C325A8075
:100D4000704700BF00000020024B4AF6C0325A80B4
:100D5000704700BF00000020024B4FF20F025A8084
:100D6000704700BF00000020054B5B8823F00F0395
:100D70004AF6C0309BB21B1A58425841704700BF18
:100D800000000020044A08B51080FFF7EDFF10B9FD
:100D90004FF20F03538008BD0000002008B5FFF795
:100DA000E3FF18B1024B588800F00F0008BD00BFE8
:100DB0000000002008B5FFF7D7FF48B1054A538867
:100DC00003F00F010F2914BF013323F00F035380E9
:100DD00008BD00BF0000002008B5FFF7D3FF0A4A96
:100DE000136823F4E06343F400731360BFF34F8F81
:100DF0000649074BCA6802F4E0621343CB60BFF3B5
:100E00004F8F00BFFDE700BF00500E4000ED00E037
:100E10000400FA05094B5A884FF20F018A4201D1AA
:100E2000188870473AB91B88012B40F2022018BF7E
:100E30004FF4007070474FF40070704700000020BE
:100E40000A4B186830B9B1F5205F0DD80122084867
:100E50001A607047012806D1B1F5005F03D802225D
:100E600004481A6070470020704700BF301000200F
:100E7000AC350020AC15002031B1044A1368002BBA
:100E8000C4BF03F1FF331360704700BF3010002070
:100E90002DE9F04F8BB00223DFF8C890DFF8C8A02F
:100EA0000590884616468DF81F3000279DF81F20B4
:100EB000022A07D0002E48D041F20231012A18BF81
:100EC0000F4642E0D9F80010234D2448C1F5407385
:100ED0000893DAF8003009930DF11F030293002301
:100EE000019309AB009308AA1D4B294402F0D7FED9
:100EF0009DF81F3038BB63B3089BD9F800400598B4
:100F00001C4424F0030B43465A46294600F068F976
:100F100014F00304074605D0224605EB0B012846D2
:100F200003F09AFBDAF800200999C9F800408A42D8
:100F3000A2EB010404D90A482246014403F08CFBC9
:100F4000CAF80040B2E741F2033738460BB0BDE8BB
:100F5000F08F41F20237F8E7A8100020341000208B
:100F6000AC130020A4100020A813002008B57022A4
:100F70000021064803F08AFB054B01221A70054B3D
:100F800000201860044B186008BD00BF341000201A
:100F9000AD5D0020A4100020A81300202DE9F84327
:100FA00099465B6880460F46144613B31B4B1D7869
:100FB00075B100221A7051F8043B03660522184BE4
:100FC000184800F061F830BB164802F055FD1125B5
:100FD000154E3368641BC3F50073A3420CD3D6F8D7
:100FE00000801248224679194044444403F016FB1D
:100FF00034600020BDE8F883002249464046FFF7F0
:1010000047FF0028F6D13368C3F50073A342E6D248
:1010100041F20430EEE741F20530EBE7AD5D002030
:101020000810002034100020A8130020AC1300206A
:101030004B6870B505460C46E3B10122FFF728FF67
:10104000C8B90D4B186888B10C4E0428C0F10402D1
:101050004FF0FF0188BF0022304403F017FB234606
:1010600004223146284600F0BBF820B9044905485F
:1010700002F091FE002070BDA4100020A8100020F6
:1010800008100020341000202DE9FF41E8460446F6
:1010900040461E4602F08BFE054660BB3246414686
:1010A000204602F057FE054628BB039AB2F1804F56
:1010B00025D2174940F6FF73B2F5800F28BF0B46C3
:1010C0009F1827EA03076169974238BF174611B195
:1010D000A36ABB4215D0736830469847002363610A
:1010E0003946336830469847606150B931462046EA
:1010F00002F027FE0225284604B0BDE8F081054B2A
:10110000DEE798E80F00A76284E80F00F3E700BF6E
:10111000FFFF0F00FFFF3F000068024BC31A584259
:1011200058417047FD0707FD034A044B90420CBF2E
:1011300018460020704700BFFD0707FD8C47E10FF0
:10114000074930B5024600230C2505FB03F460185F
:101150000C59944203D001330B2BF6D1002030BD43
:10116000A047E10FF0B587B000230827CDE9013390
:1011700015463B46009704AA044602F05BFE41F286
:1011800003039842064623D194F8433053B1E06CF0
:101190003A4604A902F036FF04AAA06C3B46114669
:1011A00002F015FF059A6A6094F84320049B2B60B7
:1011B00052B9094A934207D0084A934204D0E06CDE
:1011C000082204A902F01EFF6B68236500236365F3
:1011D000304607B0F0BD00BFF70A0AF7FC0404FC74
:1011E0002DE9F04799465B6804460F469046002B70
:1011F00041D08B0742D1234B006ED3F828381B69AE
:1012000081181D1DA9421BD31C33984218D2A84235
:10121000024638BF2A46101A3E18C5F168009942A6
:1012200094BFC2EB010AC2EB030A10443146524696
:10123000204403F0F3F95246FF21304603F026FA2A
:10124000226E48F204039A420CD802EB080048F2DE
:101250000701884206D99B1AFA58C4F880204FF03B
:10126000FF32FA50D9E90035206E42463946A84788
:10127000236E434423660020BDE8F08741F202005C
:10128000FAE700BF0000E10F2DE9F04FA7B0CDE96C
:1012900013230593309D002304460E4615934FF00B
:1012A0000109159A059B9A4201D30020CAE094F8DF
:1012B0004630112BF6D8DFE813F05D00AA00A40039
:1012C00043002A002F01B0012A00A8012A00A8012A
:1012D000CD02420312002501970227024003002796
:1012E000636D0F2B00F291801023009316AA402308
:1012F000CDE9019713A9204602F09CFD0A900A9AB5
:1013000041F203039A4200F0EF800A9B3EE04FF067
:101310000108D4E914739F4277D9FF1ADDE914322A
:101320009B1A94F84020032F134440F27A81032B38
:1013300000F28E8113A9204602F05BFD002325E018
:10134000A24FDFF89482636D072B00F2F28008232E
:10135000009316AA4023CDE9019913A9204602F073
:1013600069FD0C900C9A41F203039A4200F00B8144
:101370000C9B0BE016AA13A92046FFF7F3FE07907B
:10138000079B41F20302934207D0079B0693069AFC
:1013900041F203039A4284D053E0179A2265002257
:1013A000169962658A4A914240F0FE80022284F8D2
:1013B0004620EBE70823009316AA4023CDE90197C6
:1013C00013A9204602F036FD0890089A41F2030363
:1013D0009A4201D0089BD9E7169B03F07F43B3F1F3
:1013E000407F05D0112384F8463041F20903CDE750
:1013F000179BDB0706D594F8423043F0010384F8CD
:1014000042300027636D072BD4D9012302E116AACD
:1014100013A92046FFF7A6FE0990DDF8248041F2CB
:101420000303984511D0DDF82480CDF81880069A82
:1014300041F203039A423FF434AF069B0BB1002301
:10144000F370069827B0BDE8F08F1698FFF778FE86
:10145000074628B9112384F8463041F20808E4E72A
:10146000437994F890209A4205D9112384F84630A4
:1014700041F20E08D9E70168564A914205D0028927
:10148000D00748BF013384F8903094F84230D90730
:101490000DD53A8994F84330920706D53BB1112314
:1014A00084F8463041F20108BFE7002BF7D016A8B8
:1014B000FFF732FE18B93B7984F84630B5E7169845
:1014C000C4F88C00FFF730FE94F842309B06F2D54A
:1014D0000028F0D04368002BEDD0204698470990B3
:1014E000099B002BE7D0DDE7D4F8488000F090FAA4
:1014F0008023CDE9000317AA01230221404602F010
:1015000046FDEDE6226DA2650123002284F84330FA
:10151000E26584F84630C4E600213C2217A8169103
:1015200003F0B4F80127D4E91432934204D884F8C4
:10153000467041F2030329E7009316AA4023CDE940
:10154000017713A9204602F075FC0B900B9A41F22B
:1015500003039A4201D00B9B18E70DF1580C06F1DA
:1015600008030DF1700E624603CA72451860596097
:10157000944603F10803F6D110681860337843F0FD
:1015800001033370CFE73378179A43F002033370C7
:10159000169B7360236D083B7362BB6A19684145F3
:1015A00005D1DB68934205D0112384F8463041F21F
:1015B0000103EBE6042384F8463094F8453043F009
:1015C000010384F8453000236366BCE60000E10FA8
:1015D000EB17A603F90707F9AD1007B00423009332
:1015E00016AA4023CDE9017713A9204602F022FC78
:1015F0000D900D9A41F203039A4201D00D9BC5E66E
:10160000226D169B042A01D923660127636D032BE3
:10161000E4D9092384F846308BE700236366072367
:1016200077E79F423FF686AE9F4228BF1F46402382
:1016300016AACDE90188009713A9204602F0FAFB0B
:101640000E900E9A41F203039A420AD00E9B9DE639
:10165000402F28BF40279F4228BF1F4627F003077F
:10166000E5E794F846B0BBF1070F1BD0042FC7F194
:10167000040A16AB88BF4FF0000A5246FF21D81962
:1016800003F004F8BBF1090FBA4419D12B465246B6
:1016900016A92046FFF7A4FD0E900E9B002B3FF4E9
:1016A00038AED3E7D5F808A0BAF1000FDED02B682A
:1016B000606E3A4616A9D047636E3B44636628E6DF
:1016C000BBF1040F7FF425AE737898077FF521AE48
:1016D000EB68002B3FF41DAE626E042A0BD80AEBB8
:1016E0000203062B07D917AB9B1A1A68C4F884208B
:1016F0004FF0FF321A602B68EF68606E524616A9F1
:10170000B847636E5344D9E794F8427017F0200746
:1017100007D0D4F88C00FFF707FD074600283FF4F8
:1017200046AF4FF0010A44E05BB357B33B6943B3A4
:1017300020469847DDE914329B1A94F84020134460
:101740008342FFF4F7ADD4E91421A2EB0108B8F10C
:10175000400F28BF4FF04008984528BF984616AA6A
:101760004023CDE901AACDF8008013A9204602F05C
:1017700061FB0F900F9A41F203039A4203D00F9B33
:1017800004E60120D6E794F84230990611D5002FDF
:101790003FF40DAFD7F808B0BBF1000F3FF407AF2F
:1017A0002B46424616A92046D8470F900F9B002B88
:1017B000E5D1D4E9142194F84230914203F020039A
:1017C000B2D3002B3FF421AE002F3FF41EAEFB68D6
:1017D000002B3FF41AAE2946204698470F900F9BE6
:1017E000002B3FF412AECAE794F84470002F7FF448
:1017F0000CAE4023009316AACDE9017713A9204629
:1018000002F018FB1090109A41F203039A4201D0A3
:10181000109BBBE5E06C02F0F7FBD4F84C8000F0C5
:10182000EFF8824600F0F0F8534600901EAA16A981
:10183000404600F0A5F81090109B33B11123F770CB
:1018400084F8463041F20603A0E50123F37084F8E2
:101850004430DAE500234FF00408CDE9013316AA3D
:101860004023CDF8008013A9204602F0E3FA11903E
:10187000119A41F203039A4202D0119B0693E0E5CC
:10188000D4F888202F4B9A4205D0112384F8463093
:1018900041F20503F2E70123F37094F84530DA07CB
:1018A00007D5EF682FB12B68424604F1840140460A
:1018B000B84794F845309B0707D5EF682FB104224D
:1018C0002B6804F184011046B847236E73B36F6828
:1018D00067B304F180084FF0FF330422414612A899
:1018E000129302F0A9FE28B12B680422414648F267
:1018F0000400B84704F168090422494612A802F01E
:101900009BFE98B1104BD3F82838D3F810801422DE
:10191000D5E9003704F16C0108F10800B84704224A
:10192000D5E90037494608EB0200B8470123B370F8
:101930000C2384F846300023A0E70023F37041F223
:1019400007007FE5E320BBDE0000E10F10B50A4C85
:10195000D4F8B03043F04003C4F8B030074B012452
:101960001C6001449A605C60884201D1D86910BD56
:1019700010F8012B9A61F7E700400E4000C00140CB
:101980002DE9F041A2B00E46DDF8A08015461F46B5
:10199000044670B369B362B35BB3B8F1000F28D0EB
:1019A0001548012100F0CEFE4022002102A802F0DD
:1019B0006DFE394602A802F039FB12AF41460AA873
:1019C00002F034FB40220021384602F05FFE31462F
:1019D000384602F02BFB29461AA802F027FB0748DD
:1019E000009702AB2022214600F0BAFA22B0BDE8EF
:1019F000F08140F20160F9E700050A0000000F40A5
:101A0000004870474A43E00F004870476A43E00FC0
:101A1000004870478642E00F2DE9F04104461D461C
:101A20000F46904600211C22181D02F02FFE0123B4
:101A30002B6002F01FFC4146064604F5807002F060
:101A400086FC394604F5827004F5847702F07FFC49
:101A50002946384602F07BFC304602F00FFC0D4E62
:101A60000D4B0E4A0E490F4823656369DB010BD508
:101A700002F000FC29460446384602F070FC20467D
:101A8000BDE8F04102F0FABB22656165A065E6653C
:101A9000EBE700BF3938010039398401D02484FCD8
:101AA0001C82FED88B1C81A02DE9F04F8DB004461E
:101AB00017460D461E4602F0DDFB04F5827805F15F
:101AC000400B81465946404602F041FC04F58673BE
:101AD000184604F5887A3946039302F038FC07F17A
:101AE0002001504602F033FC484602F0C7FB414A51
:101AF0002265414A62650127404AA265E76502F016
:101B0000B9FB29460190404602F021FC04F5847996
:101B100005F1200211464846029202F018FC59468F
:101B2000504602F014FC019802F0A8FB34492165EC
:101B300034496165A76502F09DFB04F5807B824610
:101B400006F14001584602F00AFC04A9484602F09A
:101B500006FC504602F092FB02F08CFB039B2946E8
:101B60008246184602F0F3FB504602F087FB264BF4
:101B70002365264B63656FF42672A3F5FE23134499
:101B8000A365E76502F076FB029A054611464046DA
:101B900002F0DDFB284602F071FB1D4B23651D4B57
:101BA0006365A76502F066FB31460546484602F0CC
:101BB000D6FB284602F062FB02F05CFB04A9054656
:101BC000404602F0C4FB284602F058FB124B236546
:101BD000124B6365A76502F04DFB06F12001044638
:101BE000584602F0BCFB204602F048FB0DB0BDE8B1
:101BF000F08F00BF8AD11C81D91C83D11C81E11CCC
:101C0000D01482CB1481E11C8CE11C811C84D91C72
:101C1000E014D8141482E11C84D31482D11CE01483
:101C20002DE9F041044690B00F46244E0521904620
:101C300002F002FC00232360236363630FCE08AD30
:101C40000FC596E80F0085E80F0008AA6B4607F15C
:101C500040012046FFF7E0FE02F00CFB04F586761B
:101C60000546694604F5827002F071FB394630463C
:101C700002F06DFB07F1200104F5887002F067FBAC
:101C8000284602F0FBFA0E4B23650E4B63650E4BA4
:101C9000A3650123E36502F0EDFA08F12001054692
:101CA00004F5807002F05BFB4146304602F057FBC2
:101CB000284602F0E3FA10B0BDE8F0813048E10FA9
:101CC0008AD11C81D91C83D11C81E11C2DE9F04FE4
:101CD000A5B01D460446CDE9021205A81C2200212C
:101CE00002F0D4FC4FF0010820220021284605F123
:101CF0002007CDF8108002F0C9FC202200213846D0
:101D000002F0C4FC05F14003184620220021009394
:101D100002F0BCFC0521204602F08EFB002323606C
:101D200023636363039BDB69002B4FF0FF060BDB30
:101D3000013E09D00399721106F01F0351F82220C9
:101D400008FA03F31342F3D002F094FA04F5827315
:101D5000394680461846019302F0F9FA404602F0EF
:101D60008DFA734B2365734B6365734BA36502F068
:101D700081FA04F5807914A98046484602F0EFFA0A
:101D8000404602F07BFA02F075FA29468046484642
:101D900002F0DDFA404602F071FA684B2365684BA9
:101DA00063654FF48673A36502F064FA04F58678E0
:101DB00082460CA9404602F0D2FA1CA9484602F01D
:101DC000CEFA504602F05AFA02F054FA8246DDE9A1
:101DD000001002F0BCFA504602F050FA594B23654D
:101DE0000123636502F046FA04F5847A29468346A6
:101DF000504602F0ACFA584602F040FA524A2265C8
:101E000002F1D94202F5DE1202F595626265A2F591
:101E100086120123A2F2BA42A265E36502F02AFA11
:101E20001CA98346504602F092FA0CA9404602F0E3
:101E30008EFA584602F022FA444A2265444A626504
:101E4000444AA26502F016FA2946834604F58870D2
:101E500002F085FA584602F011FA02F00BFA394600
:101E60008346019802F073FA5046009902F06FFA27
:101E700014A9404602F06BFA584602F0FFF9364AC0
:101E80002265364A626502F0F5F9009982464846B5
:101E900002F065FA3946404602F061FA504602F017
:101EA000EDF906F01F0101238B407211039951F8DF
:101EB0002220134211D0284602F0A9F838B1384642
:101EC00002F0A5F818B1009802F0A1F858B9029AEA
:101ED0002B4629462046FFF7E7FD013EBFF434AF0D
:101EE00025B0BDE8F08F029BAC4603F1200E1868C8
:101EF0005968624603C2083373459446F7D1BC461D
:101F000003F1200E18685968624603C2083373450E
:101F10009446F7D10DF1100EBEE80F0005F1400C0C
:101F2000ACE80F009EE80F008CE80F00D5E700BF7B
:101F30008AD11C81821CC00C0C0C0100C00C0C83CB
:101F4000D91C83D88AD11C83DA0C81148CE11CD073
:101F50001484E31482D11C01D81483D11CC00C0159
:101F60002DE9F04FBBB00F460446002115460AA8E4
:101F70006022449E9A4602F089FB6022002122A83A
:101F800002F084FB002F00F01981BAF1000F00F07D
:101F90001581002E00F01281002D40F30F810023E7
:101FA000236023636363636843F0100363600C2161
:101FB000204602F041FA6368DFF820E223F4406330
:101FC00043F400636360636823F4407343F4007375
:101FD0006360BEE80F000DF1A80CACE80F009EE8AE
:101FE0000F008CE80F0002F045F904F58479834670
:101FF0003146484604F5867802F0A9F92AA94046F8
:1020000002F0A5F9584602F039F96E4A226501231B
:1020100063656369DA0104D440F202603BB0BDE855
:10202000F08F311F082351F8040F002800F0BE8004
:1020300002F020F906F1200B01905946484602F0C3
:1020400086F92AA9404602F082F9019802F016F9B1
:1020500001235C4A226563656369DB01DCD506F117
:102060001C02082352F8041F002900F0A38020223C
:10207000002132A802F00AFB202DA8BF2025013D37
:10208000013F25F0030303F594736B4405F003014E
:1020900017F8012FC9008A4053F8601C013D42EA3D
:1020A000010243F8602CECD202F0E4F832A90546B4
:1020B000484602F04CF9284602F0E0F8424B23650E
:1020C00002F0D8F804F58077054632A9384602F0C8
:1020D00046F9284602F0D2F82AAA02AB5946204611
:1020E000FFF79AFC02F0C6F804F5887B054602A9C2
:1020F00004F5827002F02BF932A9584602F027F954
:102100003146404602F023F9284602F0B7F82F4B3B
:10211000236503F1FA43A3F50063636502F0AAF8AF
:1021200032A90546584602F01AF902A9384602F0CB
:1021300016F9284602F0A2F825490AAB32AA204631
:10214000FFF7C4FD22AB02AA51462046FFF7BEFDB1
:102150000AAA11462046FFF763FD22AB19460AAAD8
:102160002046FFF7A1FC22AA11462046FFF758FDA2
:1021700002F080F80C210546204602F05DF922A904
:10218000484602F0E4F83146404602F0E0F82846BE
:1021900002F074F80F4B23650F4B6365636913F00E
:1021A000807F40F2046018BF002037E7013B7FF4D6
:1021B0003AAF31E7013B7FF455AF2DE740F20160C4
:1021C0002CE700BF3035DA1030D00C0130E11C8430
:1021D0007048E10F3035DA14393801005048E10F0A
:1021E0002DE9F34714460D46DDE90A921F46002803
:1021F0004DD14CB313683F2B2AD8516851B32549B0
:10220000002F14BFB846884603F03F061B19136021
:1022100022BF536801335360FEB93F2C0ED9A30986
:1022200000932A463B464146002000F083F824F004
:102230003F031D4404F03F0434B1002622462946E2
:1022400009EB060002F0EAF9002002B0BDE8F087D1
:10225000B846D9E7DFF83C80D6E7C6F1400A5445D6
:10226000ECD32946524609EB060002F0D7F9264482
:10227000012300934A463B4641460020A6F1400414
:1022800000F058F83F2C5544D6D9B846C7E7024865
:10229000DBE700BFF048E10F80AFFFFF2DE9F04121
:1022A000146886B01E46E3008DF80F3063098DF880
:1022B0000E30630B8DF80D30630D8DF80C305368C4
:1022C0001746DA0002EB54728DF80B2004F03F043D
:1022D0005A09372C8DF80A204FEA53324FEA5353EC
:1022E00005468DF80920CDE9001794BFC4F13802E6
:1022F000C4F1780288468DF808300D490346002065
:10230000FFF76EFF08222B46CDE900870DEB020197
:102310000020FFF765FF284605F1200350F8042B45
:1023200046F8042B9842F9D1002006B0BDE8F081B0
:10233000B048E10F2DE9F04F99B005468846924626
:102340001E4600F08FFB0446002D7ED1042303605F
:102350004560C5644368694623F440634360A8F15F
:102360000402056308F11C034563884652F8040F14
:1023700000BA9A4241F8040BF8D101F07BFF4146C4
:10238000054604F5827001F0E2FF284601F076FF71
:102390002F4B23654FF000090AF00307229B994554
:1023A00027D1B30704F5807744D001F063FF41469D
:1023B0000546384601F0D3FF284601F05FFF08AD1F
:1023C0003246434603CBAB4210605160984602F15F
:1023D0000802F6D1204600F04FFB331F1C3653F89D
:1023E000042F12BAB3421A60F9D1002019B0BDE827
:1023F000F08F0AEB89156FB10DF1200E05F1400B3E
:1024000028686968F446ACE8030008355D45E6468F
:10241000F6D108AD01F02EFF2946834604F5D270AF
:1024200001F0A5FF584601F029FF0A4A226509F18B
:102430000109B3E701F01EFF31460546384601F0B9
:102440008EFF284601F01AFFC4E76FF07100CDE758
:10245000888AC801070D810110B5E0B04FF4BE7243
:1024600001A9002001F076FE40F20124002101A81C
:1024700001F047FEA042F9D040F20323984203D076
:1024800040F2054060B010BD9DF8043003F0030237
:10249000022AF5D09A0711D50D4A0299D2F82828B8
:1024A000926891420AD95C9800F0EAF80028E7D0D7
:1024B0000A994FF40040FEF77BFBE1E7DB07DFD52D
:1024C00004995C9800F000F90028D9D00020D9E7E1
:1024D0000000E10F31B10A4B5A68824205D800234F
:1024E000C1E9003340F201407047013053F8302019
:1024F0000A6003EBC00300205B684B60704700BFBD
:102500007449E10F70B40C4611461A460D4B5D68D4
:10251000854210D9013003EBC005A6186D68AE42A4
:102520000DD8A5420BD3954209D353F8300020446F
:1025300070BC01F040BE40F2014070BC704740F2F8
:102540000240FAE77449E10F70B586B00DF1070358
:102550000D46029300211E4B116004461646284684
:102560001C22CDE903338DF80710059302F08EF895
:102570009DF8072052B994F86E30102B06D0D4F88D
:1025800078311BB9D4E95C31994219D32378990782
:1025900044BF61683160DB0709D504F1080304F129
:1025A000240153F8040B45F8040B8B42F9D162B9AE
:1025B0002378002B40F2064018BF002006B070BD03
:1025C00002A9204601F080FDD2E70020F6E700BF17
:1025D000C340E10F70B40C4611461A460D4B5D68BE
:1025E000854210D9013003EBC005A6186D68AE42D4
:1025F0000DD8A5420BD3954209D353F8300020449F
:1026000070BC01F0EEBD40F2014070BC704740F27A
:102610000240FAE77449E10F074B5A68824207D932
:10262000013003EBC00253F83000516801F0FBBDEC
:1026300040F20140704700BF7449E10F70B5054694
:1026400088B0C0B14FF440320023C0E900230B4BE7
:102650001A785B680272C3606C46684600F050F8F6
:102660000FCC05F114060FC694E80F0086E80F00A2
:1026700005F114032B6108B070BD00BF7449E10F70
:102680000F4B00B5D3F828389B688B42E5B003D3D5
:10269000002065B05DF804FB4FF4BE7205A901F09F
:1026A00059FD0028F4D10223CDE901008DF8153041
:1026B0000390044B049301A905A801F05FFDE8E72E
:1026C0000000E10F290AE10F00B5E5B04FF4BE723A
:1026D00005A901F03FFD70B901238DF81530074BB6
:1026E0000190CDE90230049001A905A801F046FD52
:1026F00065B05DF804FB0020FAE700BF010AE10FB6
:1027000070B5054D064604460FCD0FC495E80F0081
:1027100084E80F00304670BD5449E10F024BD86980
:1027200000F00100704700BF00000E40044BD3F8DA
:102730004421D20703D4D3F840211042FBD1704783
:1027400000400E4038B5C0F30323013B092B11D8DC
:10275000DFE803F0052710102B221D101511154D71
:10276000C0F3043405F1424505F5801504EBC500BE
:102770008000016038BD104DC0F30434F2E70F4D06
:10278000C0F304344FF48030FFF7D0FFEAE7C0F322
:1027900004340B4D1020F7E7C0F30434094D012039
:1027A000F2E7094DC0F30434DCE7084DC0F304340C
:1027B000D8E700BF00400E4050410E40F0400E40B0
:1027C000E8400E40E0400E40C0400E40B0400E4099
:1027D000094A0A4BD969C90705D512B96FF0020039
:1027E0007047013AF6E7002AF8D001221861DA6052
:1027F000D86940F3800070478096980000000E4032
:1028000070B509B9002070BD0E4A0023082550F8A4
:10281000234094610C4CD5600133D669F60705D589
:1028200014B96FF00200EEE7013CF6E7002CF8D097
:10283000D469A40702D49942E9D1E3E76FF001001B
:10284000E1E700BF00000E40809698002DE9F843B4
:102850001C4B0D4641F671311E6C19641A498046B5
:1028600048684968996841F00101B6B299609708D3
:102870004FF00009B94501D3002005E008EB8904B9
:102880002046FFF7A5FF48B10E4B9A6822F00102DF
:102890009A600EB100221A64BDE8F883C4F30A01FD
:1028A000C1F500618908A7EB0903994228BF1946C1
:1028B0002846FFF7A5FF0028E6D1894405EB8105EE
:1028C000D8E700BF00000E4000300E40234B41F619
:1028D00071311A6C10B5196421494C6849689968BE
:1028E00041F00101996001211861D960D9694C0753
:1028F00092B209D5996821F0010199600AB10022CC
:102900001A644FF0FF3010BD0221D9601549D86913
:10291000C00700D569B9D86910F002000BD09968DA
:1029200021F0010199600AB100221A646FF00100E0
:10293000E9E70139EBE741B9986820F001009860B8
:1029400002B119646FF00200DDE7996821F001011E
:1029500099600AB90020D6E71864FBE700000E4032
:1029600000300E40809698002DE9F04F02F160444F
:10297000B4F5802F03D94FF0FF30BDE8F08FDFF8BA
:10298000C8C0DFF8C890DFF8C880302606FB00C654
:102990004FF44014C6F880400024C6F88440C6F8BE
:1029A0008840C6F89840264C41F67135D4F840A0CE
:1029B0002564A5684FF0010E45F00105A5600EFAEB
:1029C00000F053B90422E260A26822F00102A26082
:1029D0001FFA8AF28ABB0020CFE701F5006521616A
:1029E00005EA0905C4F80CE06D1AD4F81CB09D4244
:1029F00028BF1D461BF0040F4FEA9507BBD1013FCE
:102A00003F0147F06057C6F88C700E4FC6F8902013
:102A1000C6F89470DCF820700743CCF820701027BB
:102A2000E760DCF828703842FBD0C8F82800294459
:102A3000C8F820002A445B1BC3E72364CBE700BF30
:102A400000000E4018000E4000200E4000F8FFFF6E
:102A500000200E44024BD3F8FC00000E704700BF6C
:102A60000081E00F024B03480122C3F800267047A3
:102A70000010C84300000F40094B98420ED003F5E8
:102A80008063984209D10122064B03EBC2035A68C6
:102A9000054B13449B0000221A6070470022F3E7A5
:102AA00000000F408449E10F8005F210FEE708B5F1
:102AB000FDF798FFFEF7F8F8FDF76EFFFDF780FFD2
:102AC000FEF786F8C0F30A032DE9F04105460F46EC
:102AD00016460BB900F0D1F805F5006424F4FF6444
:102AE00024F0070405EB0608A04507D8324639460E
:102AF00028460223BDE8F04100F0C6B8204600F0A9
:102B0000BCF804F50064EFE7036913F0FE0F0CBF97
:102B10000120002070474FF40040704701F049BB8E
:102B200001F0A6BB03461846016881F3088881F3CB
:102B3000098840688746FEE74FF40170FEF74CB9FC
:102B4000B1F5BE7F10B504460FD34FF4BE7200211D
:102B500001F09CFD04F5827204F1BC0104F128002F
:102B60000023BDE8104001F0E6B940F2052010BD99
:102B700013B50446009101462830FEF785FBC4F8E2
:102B8000780118B141F20703984204D1A37823B128
:102B9000E07800F2022002B010BD40F20120FAE716
:102BA0002DE9F04387B00DF108090446DDF83880BF
:102BB0000E4617460021102248461D4601F066FDCC
:102BC0000021C8F800101C22284601F05FFD3246A3
:102BD0003B46CDF80090214604F12800FEF754FB57
:102BE00023789A0744BF6268C8F80020DB0709D53C
:102BF00004F1080304F1240253F8041B45F8041BF4
:102C00009342F9D12378002B40F2064018BF0020F0
:102C100007B0BDE8F0834FF4BE70704713B50446AB
:102C20000B461046A20753BF6FEA03434FF6FF72ED
:102C300042EA03436FEA13430193042324F00301A0
:102C40000DEB0302FFF790FE02B010BD07B503467F
:102C50009B0753BF6FEA01414FF6FF7343EA0141FF
:102C60006FEA11410422019120F003000DEB0201F3
:102C700001F0F8FB03B05DF804FB08B5FFF726FE92
:102C8000B0FA80F0400908BD072B2DE9F041054658
:102C90000E4614461F4602D90020BDE8F0810121EE
:102CA0004FF4AA40FFF74EFD0CB90120F5E744EAC6
:102CB0000503DA07F0D4AB0726D531883A46284613
:102CC000FFF7ACFF0028E7D1023C032C05F1020519
:102CD00006F102060DD924F0030843463246294680
:102CE0003846FFF741FE0028D6D146444544A4EBC0
:102CF0000804002CD9D031883A462846FFF78EFFC9
:102D0000B0FA80F04009C8E7032CE4D8F3E7F8B53F
:102D100005460E4614460AB90120F8BD42EA0003F2
:102D2000DA0701D50020F8E7830721D50988FFF7E6
:102D30008DFF0028F6D1023C032C05F1020506F1B7
:102D400002060BD924F003073A463146284601F023
:102D500089FB0028E6D13E443D44E41B002CDBD037
:102D600031882846FFF772FFB0FA80F04009D4E7B7
:102D7000032CE7D8F4E7436D002B14BF012011208A
:102D80007047826C531EB3F5887FF0B518D8D0E930
:102D9000093CD0E90B47C91A91424569866B28BFA7
:102DA00011462FB9C768A7EB040E8E4598BF07637D
:102DB0000C44521AC462826419448B4201D14362AA
:102DC000F0BD9A1BB34234BF644600242A44125D0E
:102DD000EA540133F1E72DE9F04F95B008910D92D7
:102DE000036B0793C36A0193079B416A002B40F072
:102DF000AA80019AC3689B1A089A521A9A4240F212
:102E0000A2800B44856809934FF0FF3707FA05F558
:102E1000ED430E954568C36B04690293AF40036CA4
:102E20000393FD43436C0F95002504930B950368B2
:102E30000C9304F668254369119504F264650593C3
:102E40001295836A0C9D0693D0E90DBAD0E9063637
:102E5000C5F10805026A13950E9D019F05EA070852
:102E6000B6F1807F08EB0B1C38BF13F8015B34F818
:102E70001C703CBF360245EA0222F50A7D439542AA
:102E80004FEA0B1E40F2C280C7F5006607EB5616EC
:102E900024F81C60019F079E3E4304F66C6C12D020
:102EA0003E460F9F37400C9E07FA06FE00294CD184
:102EB000069E013E059FBE5D139F3E4176444FF442
:102EC000C06707FB06CC019EBBF1060F06F10106A9
:102ED000019647D8BBF1030F4FF0010694BFABEB4F
:102EE0000B0BABF1030B0096009EB5F1807F4FEA10
:102EF000460638BF13F801EB3CF8067000963CBF5D
:102F00002D024EEA02224FEAD52E07FB0EFE964511
:102F10000CEB06081BD9C7F5006507EB5515AFB2DA
:102F20007546009EA8F80070FF2EDDD9059E009F13
:102F300077542E460131099D8D4240F22D830D9D1F
:102F40009D4289D828E3089B5CE74E1EB2E7009EAD
:102F5000A7EB57170136A5EB0E05A2EB0E02BFB289
:102F60000096DEE7069F514528BF0027BE46059F15
:102F7000A1EB0A063E44BBF10A0F16F80E9034BFCF
:102F800003260626ABEB060B01264FF4807800964D
:102F90004FEA4909009E09EA08070A9708EB060765
:102FA0000A9EB5F1807F374438BF13F801EB0CEB74
:102FB000470638BF2D023CF81770109638BF4EEA0E
:102FC0000222009E4FEAD52E07FB0EFE76009645A4
:102FD00000960ED9C7F5006507EB5515AFB20A9DEF
:102FE00028EA05087546109E3780009EFF2ECFD92F
:102FF0009CE7009EDDF82880A7EB57170136A5EB6C
:103000000E05A2EB0E02BFB20096ECE7A7EB571736
:10301000761B24F81C70B6F1807F0BF1C009A2EB7F
:10302000050238BF13F8015B34F819703CBF360253
:1030300045EA0222F50A7D4395424FEA490C40F2E7
:10304000FF80C7F5006607EB561624F81960049E4A
:103050000A96039E0496029E129FCDE902A60BF1EA
:103060000C0BB5F1807F38BF13F8016BB7F800C0C7
:103070003CBF2D0246EA0222EE0A0CFB06F69642FF
:1030800040F29B81CCF500650CEB55153D8007EBBC
:10309000081704374FF0000E4FF008094FF0010CED
:1030A000B6F1807F4FEA4C0C38BF13F8018B37F82C
:1030B0000C503CBF360248EA02224FEAD62805FBF4
:1030C00008F8904507EB0C0A40F2A781C5F50066A9
:1030D00005EB5616B5B24646CC45AAF80050DFD3EC
:1030E000AEEB090E0EEB0C05BBF10B0F009540F299
:1030F000AD82032D9ABF4FEAC51E0EF5587E4FF4E0
:103100009C6E01256D00B6F1807F05EB0E0838BF7F
:1031100013F801CB34F808703CBF36024CEA0222A7
:103120004FEAD62C07FB0CFC944540F28081C7F592
:10313000006607EB5616B7B266463F2D24F80870B6
:10314000E0D9403D032D3ED905F0010C0D2D4FEA8D
:1031500055074CF0020C00F28081013FC5F1004E92
:103160000CFA07FC0EF2AF2EE6444FEA4E054FF084
:1031700001080B950A976546C2460B9F4FEA48081F
:10318000B6F1807F07EB080E38BF13F8019B34F8C7
:103190000EC03CBF360249EA02224FEAD6290CFB98
:1031A00009F9914540F24C81CCF500660CEB5616BE
:1031B0001FFA86FC4E460A9F24F80EC0013F4FEAD4
:1031C0004A0A0A97D9D1079F05F1010A002F40F05A
:1031D0003B82019FAF4240F25682BBF1130F34BFD6
:1031E0004FF0070B4FF00A0B009F099D0237B5EB1C
:1031F000010CB84600F04782BC4528BFBC46069F7C
:10320000A1EB0A05514528BF00273D44019F6744B3
:103210000197A8EB0C070B97069F7F1BBC45059FEA
:103220000F4400F21B82A5EB0108059D614405EBEC
:10323000010C17F808E007F801EBBC45F9D17AE674
:10324000A7EB571724F81970761B019F521B079D97
:103250003D4303D1012015B0BDE8F08FB6F1807F6A
:103260000CF1180938BF13F8015B34F809703CBF42
:10327000360245EA0222F50A7D4395424FD9C7F549
:10328000006607EB561624F809600EF1F00EB5F152
:10329000807FC64438BF13F8016B34F81E703CBF02
:1032A0002D0246EA0222EE0A7E4396421FD9C7F556
:1032B000006507EB5515069F24F81E50514528BFA1
:1032C0000027BC46059FA1EB0A053D44BBF1060F54
:1032D00015F80C507D54019D05F1010501F1010126
:1032E00001958CBF4FF00B0B4FF0090B23E6AD1B84
:1032F000921BA7EB5717029E24F81E70CDF808A06A
:10330000B246049E0A96039E119FBBF1060FCDE9BB
:1033100003A68CBF4FF00B0B4FF0080BA1E6A7EBF9
:103320005717761B24F80970B6F1807F0CF1300E28
:10333000A2EB050238BF13F8015B34F80E703CBFF6
:10334000360245EA0222F50A7D43954206D9C7F5C1
:10335000006607EB561624F80E60D2E7A7EB571766
:10336000761B24F80E70B6F1807F0CF1480CA2EBAE
:10337000050238BF13F8015B34F80C703CBF36020D
:1033800045EA0222F50A7D4395420AD9C7F500664F
:1033900007EB561624F80C60DDE9026702970396E6
:1033A000AFE7A7EB571724F80C70049F521B751B4F
:1033B000029E0297039F0497F1E7AD1BACEB5C1CE8
:1033C000B5F1807FA7F800C0A2EB060238BF13F862
:1033D000016BB7F802C03CBF2D0246EA0222EE0A9A
:1033E0000CFB06F696420BD9CCF500650CEB551597
:1033F00007EB08187D804FF0080E08F582774BE642
:10340000ACEB5C1C921BA7F802C0AE1B07F5017762
:103410004FF0100E4FF4807940E6A5EB5515A6EB62
:103420000806A2EB0802ADB20CF1010C54E6A7EBC2
:103430005717A6EB0C06A2EB0C02BFB201357CE6D7
:10344000ACEB5C1CA6EB0906A2EB09021FFA8CFC94
:1034500008F1010845EA0A05ADE6053FB6F1807FAF
:103460003EBF13F8015B360245EA02227608921B42
:10347000D51705F1010E013F05EA06050EEB4C0CD0
:103480002A44EBD1B6F1807F3CBF13F8017B3602B2
:103490004FEA0C15B4F846C638BF47EA0222F70ACD
:1034A0000CFB07F7974204F2446E40F2AD80CCF576
:1034B00000660CEB56161FFA86FC0226B7F1807FD9
:1034C000A4F846C63EF816A04FEA460C0EEB460995
:1034D0003EBF13F8016B3F0246EA0222FE0A0AFBD6
:1034E00006F6964240F29A80CAF500680AEB581830
:1034F0001FFA88F8A9F80080B6F1807F38BF13F86A
:10350000017B3EF81CA03CBF360247EA0222F70AC4
:103510000AFB07F797424FEA4C080EEB4C0940F2C2
:103520008880CAF5006C0AEB5C1C1FFA8CFCB7F1B2
:10353000807FA9F800C038BF13F8016B3EF81890DF
:103540003CBF3F0246EA0222FE0A09FB06F696420B
:103550004FEA480C87BFC9F5006809EB5818A9EB7A
:10356000591845F008058FBF1FFA88F8921B1FFAFB
:1035700088F8BE1B6F1C2EF80C807FF424AE009CD4
:1035800004F589740B94DDE902A40294049C03946D
:103590000A9C0494ABF10C0BB6F1807F38BF13F892
:1035A000014B416238BF3602C0E906360B9B83648B
:1035B000019BC362029BC363039B0364049B43643C
:1035C000036BC0F838A038BF44EA02220262C0F898
:1035D00034B023B9C368019A934298BF0363089932
:1035E000FFF7CFFB436A089A9342836C07D2826944
:1035F0000D998A4203D2B3F5897FFFF4F1ABB3F59D
:10360000897F3CD8002026E6ACEB5C1CD21B1FFA5D
:103610008CFCF71B45F0010503264FE7AAEB5A186F
:10362000921B1FFA88F80CF1010C45F00205BE1B35
:1036300060E7AAEB5A1CD21B1FFA8CFC08F10108A8
:1036400045F00405F71B72E7079FC3E5DDE902A516
:103650000295049D03950A9D0495C5E5B9460CEBBA
:10366000070E059F17F8058009F8018B069F0135A5
:10367000AF4208BF0025CE45F3D161445BE44FF46F
:1036800089738364BEE74162E4E52DE9F04784680D
:10369000D0F82C80D0F834C006690127A740D0E9C3
:1036A0000753013F07EA080707EB0C1EB5F1807FBF
:1036B00036F81E900A4407D2914280F0DB8111F85F
:1036C000014B2D0244EA0323EC0A09FB04F4A34254
:1036D00079D2056B58EA050506F66C6619D0D0E973
:1036E00000E70125BD40013D05EA080505FA0EF792
:1036F000456AD0F8148005B9856A013DCEF1080EFF
:1037000018F8055045FA0EF53D444FF4C06707FB25
:103710000566BCF1060F20D801204000B4F1807F7F
:10372000375A07D2914280F0A58111F8015B24023B
:1037300045EA0323E50A7D43AB4223BF0130641B06
:103740005B1B2C46FF28E8D90120B4F1807F80F074
:103750002181914228BF00201CE1876BD0F824C052
:103760004569ACEB070EBC4534BF876A002705EB03
:103770000E0010F807C001204FF480774FEA4C0C80
:1037800007EA0C0E3D187544B4F1807F36F81580B9
:1037900007D2914280F06E8111F8015B240245EA64
:1037A0000323E50A08FB05F5AB424FEA40002DBFB5
:1037B000013027EA0E072C46641B24BF5B1B7746AB
:1037C000FF28DBD9C0E7281B0CF1C00CB0F1807FCB
:1037D000A3EB04034FEA4C0436F81CC007D2914215
:1037E00080F0488111F8015B000245EA0323C50A15
:1037F0000CFB05F5AB4280F09E8006F2646C022063
:103800004FF0000EB5F1807FBCF8008007D29142E6
:1038100080F0308111F8014B2D0244EA0323EC0AB9
:1038200008FB04F4A34280F0E9800CEB071C0CF1C8
:10383000040C00274FF008094FF001084FEA480830
:10384000B4F1807F3CF808A007D2914280F0128149
:1038500011F8015B240245EA0323E50A0AFB05F59A
:10386000AB4223BF08F10108641B5B1B2C46C84513
:10387000E4D3BEF1030F3FF668AFA7EB0907474457
:10388000032F9ABFFF0107F558774FF49C67012576
:103890006D0006EB050CB4F1807F3CF807E007D221
:1038A000914280F0E78011F801CB24024CEA032317
:1038B0004FEAD42C0EFB0CFC634523BF0135A4EB6F
:1038C0000C04A3EB0C0364463F2DE1D9403D032DCE
:1038D0007FF63BAF0D2D4FEA550700F2B18005F0A2
:1038E000010C013F4CF0020CC5F100450CFA07FC3D
:1038F00005F2AF25654406EB45064FF0010C4FEA93
:103900004C0CB4F1807F36F80CE007D2914280F085
:10391000B18011F8015B240245EA0323E50A0EFB9E
:1039200005F5AB4223BF641B5B1B0CF1010C2C465D
:10393000013FE4D109E7401B3444B0F1807FB4F883
:1039400018C0A3EB050307D2914280F0938011F8D1
:10395000015B000245EA0323C50A0CFB05F5AB42F7
:1039600022D20EF1F00EB5F1807F36F81E4006D25D
:1039700091427FD211F8010B2D0240EA0323E80A9D
:103980006043834208D2B0F1807F71D2914234BF4C
:1039900003200020BDE8F0872D1A1B1A06F6682CBC
:1039A00003204FF00C0E2DE7401BB0F1807FB4F8E0
:1039B00030C0A3EB050306D291425BD211F8015B44
:1039C000000245EA0323C50A0CFB05F5AB42E5D32B
:1039D000401BB0F1807FB4F84840A3EB050306D24A
:1039E000914247D211F8015B000245EA0323C50A60
:1039F0006543AB4224BF5B1B451BCFE72D1BB5F1D5
:103A0000807FBCF80280A3EB040306D2914231D23E
:103A100011F8014B2D0244EA0323EC0A08FB04F4DD
:103A2000A34205D20CEB071707F5827C082701E7B4
:103A30001B1B0CF5017C2C1B10274FF48079FBE637
:103A4000053FB4F1807F06D2914213D211F8015B99
:103A5000240245EA032364081D1BED0F013D2540A8
:103A6000013FA3EB0503ECD106F24466042744E7CB
:103A700003208FE700208DE700230122C0E91232E6
:103A8000C0E90B3343628365026570472DE9F74F48
:103A9000984600279DF83030D8F80060C8F80070CC
:103AA00000938B461546FFF76CF90D9B04461F707B
:103AB000A36CB3F5897F09D1236A13B90D9A012349
:103AC0001370206A003818BF01201EE0E36C8BB130
:103AD000A36D5EB3042B1BD994F85C30002B40F02F
:103AE000D780D4F85D20E36412BA22624FF0FF322F
:103AF000E261A365636A5B4555D3A36CD3B9236ABE
:103B0000F3B904230D9A0020137003B0BDE8F08FC1
:103B10005A1CA265234415F8012B83F85C20D8F8C1
:103B200000300133C8F80030013ED1E7042BD3D870
:103B30000323E7E7009B002B40F0A7800223E1E787
:103B4000009B002BFAD00123226D9AB1D4E9002109
:103B500011444FF440728A40206902F2367200210B
:103B60008A4222D80122C4E91022C4E90E2200228E
:103B700062632265A76D002F68D1132E1BD943B352
:103B8000324629462046FFF780FDF0B932462946E5
:103B900004F15C0000F042FDA665D8F80030334423
:103BA000C8F80030C4E70023CEE74FF4806720F860
:103BB00011700131D4E73246294620460193FFF7C0
:103BC00064FD019B0028E1D00BB102285DD12A469B
:103BD00002E0A6F114022A44A56159462046FFF7E7
:103BE000FAF8002854D1A369D8F800205D1B2A44B4
:103BF000C8F80020761B1D465AE7013715F8091052
:103C0000D15509F10109132F25D9A76504F15C0AE3
:103C100093BBC4F818A0524659462046FFF7DBF87C
:103C2000B0BBA369A3EB0A039F4236D3FA1A9145AE
:103C300033D3D8F8001009EB0302D31B19443744DF
:103C4000C8F800102B44BE1AA065D4E74FF0000955
:103C500004F15B02D7E7B145CFD104F15C0AA76557
:103C60003A46514620460193FFF70FFD019B88B964
:103C7000D8F800304B4493E73A4651462046FFF7C8
:103C800004FD0028F4D00228C3D00D9A022313703B
:103C900001203AE7002BBCD0F5E70B2035E72DE9F2
:103CA000F04F89B09A46DDF848809DF84C30049377
:103CB000D8F80030029300231768136004468B463F
:103CC0001646C8F80030029B0793D4E909318B42AD
:103CD00004BF00236362656A149A4B1BBB422ABF70
:103CE000049B00237919CDE900322046524607ABE8
:103CF000FFF7CCFE079A029B616903909B1A02931F
:103D0000D8F800301344C8F80030636A0593A3EB79
:103D100005092944584692444A4600F07FFC059B19
:103D2000ED1A33684B443360039BCB442F4423B9D3
:103D3000B9F1000F01D0002FC5D1039809B0BDE83B
:103D4000F08F10B504464B68084621699847002358
:103D5000236110BD70B51646D1E900324FF44075AD
:103D600013449D400369044605F2367513B1436D53
:103D7000AB420ED031462046FFF7E3FF33686900BF
:103D8000304698472061B0FA80F0400965654000F0
:103D900070BD0020FCE738B504460D46FFF7D1FFA3
:103DA0006B686169284698470023636138BD042A1F
:103DB00001D804207047D1F80130B3F5805F38BFD7
:103DC0004FF48053C3600A78E02AF2D80923B2FB8B
:103DD000F3F303EBC301521AD2B202600522B3FB24
:103DE000F2F2826002EB82029B1ADBB24360002097
:103DF000704770B5D1E90152AA4205D290F840301F
:103E00002B449B1A402B10D9002012E00A6890F82E
:103E10004040D65C90F84120224402F03F0201333A
:103E2000013486548B6080F840408B689D42EDD809
:103E3000012070BD2DE9F84317469E46D1E90123C4
:103E400090F840C0089D9DF824909DF82880D21AD3
:103E50006244954204460E460AD9FFF7CAFF00287D
:103E600067D1112384F8463041F20200BDE8F8839F
:103E7000754555D8002394F840200AB19D4235D1AC
:103E8000D6E90121914201D29D4241D89D424DD1B6
:103E9000D4F8882029463846FDF758FDC4F8880034
:103EA000B9F1000F04D0E06C2A46394600F0AAF8B8
:103EB00094F84330B8F1000F06D08BB1A06C2B46BC
:103EC0003A46394600F083F894F8433043B1E36D45
:103ED000A26D2B449342E36524BF002384F8433052
:103EE000636D2B44636541F20300BFE794F8412002
:103EF000A25CFA5494F84120013202F03F0284F8A7
:103F0000412094F84020013A84F840200133B2E780
:103F10003268525CFA54B2680132B2600133AFE7E2
:103F200041F20100112384F846309FE741F202007C
:103F3000F8E700209AE72DE9F04103F0200300257F
:103F400004464FF0FF38C0E918550F461646A0F852
:103F5000405080F84350A0F8445080F8465080F814
:103F60004230C0F888801822FF21683000F08EFBB4
:103F7000C4E91276C4F88080C4F8848084F8905034
:103F800016B1304600F034F80020BDE8F081F8B5F5
:103F9000044616461D460F4600F066FADDE9061295
:103FA000204600F065FA0023636284F838703368B5
:103FB000C4F839307368C4F83D30B368C4F8413090
:103FC0002B0C6DBA84F84530A4F84650F8BD30B5D6
:103FD00085B00D46194600F12803CDE90152009342
:103FE00000F1240200F1380300F060FA05B030BDA2
:103FF00010B5044600F02BF820460021BDE8104023
:1040000000F029B800F02CB8014600F036B803687B
:1040100053B91C2350F8042F0AB9043BFAD1002BE2
:10402000CCBF0020012070470020704738B5202207
:1040300004460D46002100F029FB05F12003601E17
:1040400013F8012D00F8012FAB42F9D138BD6822D9
:10405000002100F01BBB03460020C3E900007047AD
:1040600007B500F128030190009300F10803002038
:10407000FEF7B6F803B05DF804FB02460B4600F10C
:1040800028010830FEF70AB910B50024A14201F159
:10409000FF324FEA820240F8044B08BF2246FF215C
:1040A00000F0F4FA204610BD03680133012B40F202
:1040B000045098BF0020704740F202507047FEF74E
:1040C000CBB901221A70704730B5A3B004460D4633
:1040D00002AAD0F87411D0F86C018023FEF712FA0E
:1040E0000095802302AA214604F12800FDF7CCF8B0
:1040F000D4F87431C4F878018033C4F8743123B033
:1041000030BD1FB50023CDE90033CDE90213D0F84F
:104110007831044693B9D0E95C329A420ED26946AE
:10412000FFF7D2FFD4F8780170B141F2070240F2F4
:104130000123904208BF184604B010BDA37833B1E4
:10414000E07800F20220F7E740F20120F4E740F2C5
:104150000220F1E737B50C46054611462046FEF72A
:10416000EFFC48B969462846FEF7B4F920B9019B2F
:10417000C4F86C51C4F8703103B030BD38B500F5E7
:10418000827204460D46202300F1BC012830FFF75F
:10419000D2FED4F878311BB9D4E95C329A4203D309
:1041A000A07800B1E07838BD29462046FFF78CFFA3
:1041B000EFE700207047B2F5801F10B513460446A4
:1041C00008460BD8B4F5801F08D82344B3F5801FE8
:1041D00004D8214600F022FA002010BD40F202402F
:1041E000FBE7B2F5801F10B506D8B0F5801F03D8E5
:1041F0008318B3F5801F0ED940F2024010BDC45899
:1042000001340AD104339A42F9D8FEF780FD002820
:10421000F2D00020F2E70023F5E740F20340EDE79B
:104220004FF0FF30704738B541EA0003C3F30A038B
:104230000446D3B9B1F5801F06D8B0F5801F03D866
:104240000D18B5F5801F02D940F2024038BD204656
:1042500004F50064FEF711FDAC4202D00028F6D14F
:10426000F2E70028F0D00020F0E740F20440EDE74C
:1042700000207047EFF3108072B6704700B962B645
:10428000704784B00B6800934B6801938B6802936E
:10429000CB680393009B0360019B0360029B036058
:1042A000039B03600023009301930293039304B0E4
:1042B000704730B5D1E90223D1E9005405600460AC
:1042C0000260036030BD30B50568046802680368A9
:1042D000C1E90054C1E9022330BD7FB58A07044615
:1042E0000B4610D06D4601F11006186859682A4631
:1042F00003C20833B3421546F7D169462046FFF79B
:10430000D8FF04B070BD0091009904B0BDE87040C2
:10431000FFF7CFBF30B58B0785B00C4610D069468C
:10432000FFF7D1FF0D46234604AC2A4603CAA2423A
:1043300018605960154603F10803F6D105B030BD89
:104340000091009905B0BDE83040FFF7BCBF10B543
:10435000FFF7AFFFBDE810401031FFF7AABF10B55F
:10436000FFF7B1FFBDE810401031FFF7ACBF10B54B
:10437000FFF79FFF0C461031FFF79BFF04F1200170
:10438000FFF797FF04F13001BDE81040FFF791BF40
:1043900000F1424303F58013102A10B54FEA43138E
:1043A0000AD101221A6000F58870FFF76AFF103108
:1043B000BDE81040FFF765BF00221A602430F7E720
:1043C000F0B50B46990789B0044615462DD0082A4A
:1043D00019D16D4603F11006186859682A4603C2C0
:1043E0000833B3421546F7D1082269462046FFF745
:1043F000CFFF03226B460020013A186003F104034B
:10440000FAD209B0F0BD6E4603F12007186859686A
:10441000324603C20833BB421646F7D12A466946E4
:104420002046FFF7B5FF0722E4E70093009909B0A3
:10443000BDE8F040FFF7ACBF436823F01F030E292F
:104440000BD8DFE801F008080808080B0B0B080878
:1044500008080B0B0B00194341607047194341F0EA
:104460001001F9E7FEF7F2B92422002100F00EB99D
:1044700070B515460E4624220021044600F006F9C8
:10448000C02D0DD0B5F5807F01D0802D0BD12046F9
:10449000EA0840F8045B314600F0C0F8002070BD27
:1044A0006FF07100FBE76FF01F00F8E72DE9F04FA8
:1044B00087B08B460290039390467AB11568029BB1
:1044C0001B68802B0CD100265E450FD3B8F1000F7E
:1044D00040F0A180002007B0BDE8F08F1546EEE760
:1044E000B3F5807FEFD06FF02000F4E75DB1119B52
:1044F000109A9B5D525D5340129A0135935505F019
:104500000F050136E0E7FEF7ADFA4FF44043456092
:1045100003600446FFF7AEFE029951F8043B802B7E
:10452000074614BF102208222046FFF749FF04F176
:104530008403184603990193FFF7CFFE3846FFF72F
:104540009DFE119BABEB060703EB0609129B27F0C0
:104550000F0703EB060A09EB070305930599894545
:104560004FF005034FF0030219D1119B3744DE19B8
:10457000129B1F44119B03EB0B0A032356452AD1C0
:10458000FFF778FE039906460198FFF7C3FE304611
:10459000FFF774FE2046FEF76FFA5E4694E7482167
:1045A000A160A36021698907FCD4A260FFF762FEC5
:1045B0004946049004F1A000FFF78FFE514604F134
:1045C0008000FFF7A7FE0498FFF758FE09F11009D5
:1045D0000AF1100AC2E79DB94822A2600522A26032
:1045E00022699207FCD4A360FFF744FE109981462C
:1045F00004F18000FFF78EFE4846FFF73FFE0323DD
:10460000109916F8012B495D01354A4007F8012B36
:1046100005F00F05B2E7C8F800505BE70A44914285
:1046200000F1FF3300D1704710B511F8014B03F8CA
:10463000014F9142F9D110BD10B5013902449042A9
:1046400001D1002005E0037811F8014FA34201D009
:10465000181B10BD0130F2E7884210B501EB0204CF
:1046600002D98442234607D8431EA14208D011F83C
:10467000012B03F8012FF8E7024401468A4200D1DA
:1046800010BD13F8014D02F8014DF7E7024403464F
:10469000934200D1704703F8011BF9E700000000C6
:1046A000F8B500BFF8BC08BC9E467047F8B500BF1F
:1046B000F8BC08BC9E4670470000000000000000E7
:1046C00000000000000000000000000000000000EA
:1046D00000000000000000000000000000000000DA
:1046E000B814B6F1E0CFF3ADB7DD25C9FA79B71349
:1046F0000000000013B779FAC925DDB7ADF3CFE0AC
:10470000F1B614B80102000000000000B041000042
:104710004000000002000402000000000000000051
:104720000000000000000000000000000000000089
:104730000000000000000000000000000000000079
:104740000000000007B0CD5E02000000020004027D
:10475000B44100000000000000001000F000010063
:104760001D2BE10F212BE10FD10AE10F412BE10FAE
:10477000712BE10F1049E10FA12BE10F172CE10F75
:104780000000000000000000172BE10FFD0707FDEF
:104790006D0FE10F9D0FE10F3110E10F772DE10F4C
:1047A000EB17A6030201000003000000FA0606FA58
:1047B0000D04000003000000F40A0AF405050000DF
:1047C00001000000F50909F50307000001000000E1
:1047D000F60808F60608000000000000FE0101FED1
:1047E0000808000000000000FD0303FD0A080000A7
:1047F00000000000FD0707FD100800000000000099
:10480000F90707F90E09000002000000F70A0AF78D
:104810000F0B000003000000FC0404FC0B0C000064
:10482000030000002000000000010000050C000053
:10483000FFFFFFFFFFFFFFFFFFFFFFFF0000000084
:10484000000000000000000001000000FFFFFFFF6B
:10485000512563FCC2CAB9F3849E17A7ADFAE6BC22
:10486000FFFFFFFFFFFFFFFF00000000FFFFFFFF54
:1048700096C298D84539A1F4A033EB2D817D0377FA
:10488000F240A463E5E6BCF847422CE1F2D1176B95
:10489000F551BF376840B6CBCE5E316B5733CE2B68
:1048A000169E0F7C4AEBE78E9B7F1AFEE242E34F97
:1048B0008000000000000000000000000000000078
:1048C00000000000000000000000000000000000E8
:1048D00000000000000000000000000000000000D8
:1048E00000000000000000000000000000000000C8
:1048F0006A09E667BB67AE853C6EF372A54FF53A71
:10490000510E527F9B05688C1F83D9AB5BE0CD199C
:10491000000100003D26E10FD524E10F0525E10F40
:10492000D525E10F1926E10FA940E10F8940E10FDC
:10493000B940E10F5541E10F0341E10F4925E10F76
:104940001D27E10FB741E10FE341E10F2742E10FDE
:104950002142E10F1002030028000000280000009F
:10496000000800000000100000000000020000002D
:1049700000000040010000000100000000400800AD
:104980000000070000000F400000000000040F407E
:044990000100000022
:0C499400A049E10F081000200400000002
:1049A000410EE10F790EE10F7509E10F4D09E10F9D
:040000050FE12AAF2E
:00000001FF
