:1000000000000420C90400000B05000009050000E1
:100010000B0500000B0500000B0500000B050000A0
:100020000B0500000B0500000B0500000B05000090
:100030000B0500000A0500000B0500000B05000081
:100040000B0500000B0500000B0500000B05000070
:100050000B0500000B0500000B0500000B05000060
:100060000B0500000B050000913000000B0500009F
:100070000B0500000B0500000B0500000B05000040
:100080000B050000013000000B0500000B0500000F
:100090000B0500000B0500000B0500000B05000020
:1000A0000B0500000B0500000B0500000B05000010
:1000B0000B0500000B0500000B0500000B05000000
:1000C0000B0500000B0500000B0500000B050000F0
:1000D0000B0500000B0500000B0500000B050000E0
:1000E0000B0500000B0500000B0500000B050000D0
:1000F0000B0500000B0500000B0500000B050000C0
:100100000B0500000B0500000B05000000000000BF
:1001100000000000000000000000000000000000DF
:1001200000000000000000000000000000000000CF
:1001300000000000000000000000000000000000BF
:1001400000000000000000000000000000000000AF
:1003C0000348044B834202D0034B03B118477047E4
:1003D0005000002050000020000000000548064B9F
:1003E0001B1AD90F01EBA301491002D0034B03B133
:1003F0001847704750000020500000200000000007
:1004000010B5064C237843B9FFF7DAFF044B13B15C
:100410000448AFF300800123237010BD500000207A
:1004200000000000B440000008B5054B1BB10549B1
:100430000548AFF30080BDE80840FFF7CFBF00BF1D
:100440000000000054000020B4400000A3F5803AF2
:10045000704700BF174B002B08BF134B9D46FFF79B
:10046000F5FF00218B460F461348144A121A03F079
:10047000E9FD0E4B002B00D098470D4B002B00D010
:1004800098470020002104000D000D48002802D0EC
:100490000C48AFF3008003F0A3FD2000290002F018
:1004A00015FE03F08BFD00BF0000080000000000F7
:1004B000000000000000042050000020A8000020E0
:1004C000000000000000000000F0A2F80F4C104DEA
:1004D000AC420ADA21686268A3689B00043BA2BFB1
:1004E000C858D050FAE70C34F2E70A4B0A4CA34242
:1004F00008DA19685A680020043AA4BF8850FBE75C
:100500000833F4E7FFF7A6FFFEE7FEE750410000DF
:100510005C4100005C4100005C41000080B582B09D
:1005200000AF00F025F878600A4BD3F808311B0AB9
:10053000C3F308033B603B6801337A68B2FBF3F313
:100540007B60054A7B6813607B6818460837BD46A8
:1005500080BD00BF00400E400800002080B400AF06
:10056000024B1846BD465DF8047B704700F0490217
:1005700080B483B000AF1C4BD3F8943003F0070372
:10058000023B032B1BD801A252F823F0AD0500005B
:10059000A50500009D050000B5050000134B1B6874
:1005A0007B6010E04FF400437B600CE0104B1B6855
:1005B0007B6008E00F4B1B685B087B6003E00D4B22
:1005C0001B687B6000BF084BD3F800311B0A03F0A7
:1005D0001F0301337A68B2FBF3F318460C37BD46AC
:1005E0005DF8047B704700BF00400E40040000200F
:1005F000000000200C00002080B400AF034B1B68FB
:100600001846BD465DF8047B704700BF000000201F
:1006100080B400AF074B084A9A60064BD3F8883085
:10062000044A43F47003C2F8883000BFBD465DF849
:10063000047B704700ED00E00000000080B400AFD4
:100640004FF400431846BD465DF8047B704780B404
:1006500000AF4FF47A731846BD465DF8047B7047CF
:1006600080B400AF034B1B681846BD465DF8047BA1
:10067000704700BF0400002080B483B000AF7860F2
:1006800001227B6802FA03F318460C37BD465DF879
:10069000047B704780B487B000AFF860B9607A60BF
:1006A000FB6803F1424303F58013DA00BB6813448F
:1006B0009B007B617B697A681A6000BF1C37BD466E
:1006C0005DF8047B704780B485B000AF7860396016
:1006D0007B6803F1424303F58013DA003B6813445F
:1006E0009B00FB60FB681B6818461437BD465DF82D
:1006F000047B704780B400AF064B1B6803F04003D7
:10070000002B01D1012300E000231846BD465DF80F
:10071000047B70473C300E4080B500AFFFF7EAFF26
:10072000034683F00103DBB2002B08D100BF122186
:100730000448FFF7C8FF0346002BF8D100E000BFD4
:1007400080BD00BF04300E4080B500AFFFF7E4FF6E
:10075000034B5B681B0C03F00303DBB2184680BD40
:1007600000300E4080B400AF064B1B6C9BB2002BD8
:1007700014BF01230023DBB21846BD465DF8047B9D
:10078000704700BF00000E4080B400AF034B002252
:100790001A6400BFBD465DF8047B704700000E4040
:1007A00080B400AF044B41F671321A6400BFBD46FD
:1007B0005DF8047B704700BF00000E4080B400AFBE
:1007C000034B5B681846BD465DF8047B704700BF6D
:1007D00000000E4080B483B000AF7860044A7B68AC
:1007E000536000BF0C37BD465DF8047B704700BF07
:1007F00000000E4080B584B000AF78600123FB603C
:100800007B68124A934204D80023FB600023BB603C
:1008100008E07B680E4A934202D80123BB6001E0E6
:100820000223BB60FA6810210A48FFF733FF094B27
:10083000D3F8003123F08072BB681B0605491343CF
:10084000C1F8003100BF1037BD4680BD0048E80147
:100850000090D00300400E4080B483B000AF054B41
:100860001B687B607B6818460C37BD465DF8047BCF
:10087000704700BF1000002080B582B000AFFFF7C6
:1008800077FE7860064BD3F800311B0A03F01F0394
:1008900001337A6802FB03F318460837BD4680BD72
:1008A00000400E4080B582B000AF0D4800F044FC1F
:1008B0000346FB70FB78072B05D0092B07D1FFF708
:1008C00057FE786006E0FFF7C7FF786002E000237C
:1008D0007B6000BF7B6818460837BD4680BD00BFFF
:1008E00006000E0080B584B000AF78607B68002BF6
:1008F0001CD11B4800F020FC0346FB7200BFFB7AB2
:10090000013B072B23D801A252F823F03109000044
:100910004F0900004F0900003F0900004F09000087
:100920004F0900003709000047090000002312E0CA
:100930000023FB600EE0FFF78FFFF8600AE0FFF78F
:100940005BFEF86006E0FFF797FFF86002E0002327
:10095000FB6000BFFB6818461037BD4680BD00BF76
:10096000B800320080B584B000AF78603960FFF71E
:1009700025FF034603F04073FB600023BB6012E0D9
:100980001A4ABB68DB0013441A793B68DBB29A420F
:1009900006D1164ABB6852F833307A689A4206D9B3
:1009A000BB680133BB60BB68042BE9D900E000BF22
:1009B000BB68052B02D10323FB6005E00B4ABB6833
:1009C000DB0013445B79FB60FB681B06FB60FFF7F1
:1009D000F5FE034623F04073FA681343FB60F868A2
:1009E000FFF7F8FE00BF1037BD4680BD784000001D
:1009F00080B582B000AFFFF7B5FE0346FB71FFF78D
:100A0000CFFEFFF7ABFD034600211846FFF7AAFF14
:100A1000FB79002B01D0FFF7B7FE00BF0837BD46BA
:100A200080BD80B584B000AF78603960FFF79AFE72
:100A30000346FB73FFF7B4FE39687868FFF792FF4F
:100A4000FB7B002B01D0FFF79FFE00BF1037BD4698
:100A500080BD80B487B000AF78600F237B617B6876
:100A600003333B617B69FB60FA683B69934228BFB3
:100A70001346BB60BB681B07BB60BB6818461C37CE
:100A8000BD465DF8047B704780B400AF044B5B6AE1
:100A90001B0903F003031846BD465DF8047B70474D
:100AA00000400E4080B483B000AF7860074B5B6AB3
:100AB00023F030027B681B01044913434B6200BFE3
:100AC0000C37BD465DF8047B704700BF00400E4008
:100AD00090B585B000AF78600023BB607B683C4A6E
:100AE00093420BD07B683A4A934209D87B68394AD3
:100AF000934203D07B68384A934201E000BF00E094
:100B000000BF786800F018FB0346FB607B68304A42
:100B100093421AD07B682E4A93421DD87B682D4A97
:100B2000934204D07B682C4A934207D014E02B4BAD
:100B3000D3F8803003F00703FB600EE0274BD3F8B7
:100B4000843003F00703FB6007E0244BD3F88830C0
:100B500003F00703FB6000E000BFFB68042B2ED806
:100B600001A252F823F000BFB90B00007D0B00007A
:100B7000850B0000950B00008D0B0000FFF75EFD5C
:100B8000B8601FE0FFF76CFDB8601BE0FFF75FFD8A
:100B9000B86017E0FFF7ECFC0446104BD3F80031C7
:100BA0001B0E03F0010301331846FFF765FD0346F2
:100BB000B4FBF3F3BB6005E00023BB6002E000235D
:100BC000BB6000BFBB6818461437BD4690BD00BF70
:100BD0000500240002001E000300200000400E401B
:100BE00080B483B000AF78600A4BD3F8443103F08F
:100BF0000103002B08D100BF064BD3F840217B68CE
:100C00001340002BF8D100E000BF0C37BD465DF863
:100C1000047B704700400E4080B400AF00BFBD466B
:100C20005DF8047B704780B400AF00BFBD465DF83F
:100C3000047B704780B582B000AF7860786800F0C0
:100C4000AFF90346013318460837BD4680BD0000A2
:100C500080B586B000AF78600B46FB7000233B6127
:100C60007B681B0A03F00F03013B092B44D801A248
:100C700052F823F09D0C0000A90C0000F90C0000B4
:100C8000F90C0000A30C0000AF0C0000B90C000030
:100C9000F90C0000C30C0000CF0C0000184B7B6166
:100CA00018E0184B7B6115E0174B7B6112E0174B86
:100CB0007B6101233B610DE0154B7B6110233B61A0
:100CC00008E0144B7B614FF480333B6102E0124B30
:100CD0007B6100BF7B681B0B03F01F03FB603B695C
:100CE000002B02D03869FFF77BFFFB781A46F968C2
:100CF0007869FFF7CFFC00E000BF1837BD4680BD24
:100D000000400E40B0400E40C0400E40E0400E405B
:100D1000E8400E40F0400E4050410E4090B585B086
:100D200000AF78607B6803F47813B3F5781F00F0A8
:100D30001B81B3F5781F00F22281B3F5481F00F044
:100D40000E81B3F5481F00F21A81B3F5401F00F081
:100D5000E580B3F5401F00F21281B3F5381F00F0B3
:100D6000B680B3F5381F00F20A81B3F5101F00F00A
:100D7000E980B3F5101F00F20281B3F5001F00F007
:100D8000B580B3F5001F00F2FA80B3F5F01F79D0FB
:100D9000B3F5F01F00F2F380B3F5D01F00F0AB8085
:100DA000B3F5D01F00F2EB80B3F5B01F7DD0B3F5E3
:100DB000B01F00F2E480B3F5A01F68D0B3F5A01F08
:100DC00000F2DD80B3F5801F00F0C580B3F5801F11
:100DD00000F2D580B3F5602F00F0B980B3F5602F35
:100DE00000F2CD80B3F5402F3DD0B3F5402F00F297
:100DF000C680B3F5202F23D0B3F5202F00F2BF809B
:100E0000B3F5802F0DD0B3F5802F00F2B880002B02
:100E100003D0B3F5003F17D0B1E0FFF7A9FBF860AE
:100E2000B0E0FFF7A5FBF860594BD3F80C311B0A73
:100E3000C3F308030133FA68B2FBF3F3FB60A1E0EC
:100E4000FFF796FBF8609DE0FFF792FBF860504BD0
:100E5000D3F808311B0AC3F308030133FA68B2FB65
:100E6000F3F3FB608EE0FFF783FBF860484BD3F8A9
:100E700014311B0A03F01F030133FA68B2FBF3F3CA
:100E8000FB607FE04348FFF723FEF8607AE04248CA
:100E9000FFF71EFEF8603E4BD3F8303103F003033A
:100EA000FA6822FA03F3FB606CE03A48FFF710FEA1
:100EB000F860374BD3F8203103F00F031846FFF7E3
:100EC000DBFB0246FB68B3FBF2F3FB605AE0314800
:100ED000FFF7FEFDF8602E4BD3F820311B0903F01D
:100EE0000303FA6822FA03F3FB604BE02B48FFF799
:100EF000EFFDF86046E02948FFF7EAFDF860244B73
:100F0000D3F828311B0903F003031846FFF7B4FB9D
:100F10000246FB68B3FBF2F3FB6033E01F48FFF7C8
:100F2000D7FDF8601A4BD3F828311B0A03F00303EE
:100F300004331846FFF7A0FB0246FB68B3FBF2F34D
:100F4000FB601FE01448FFF7C3FDF8601AE0FFF7ED
:100F5000A9FCF86016E0FFF77FFCF86012E00020C3
:100F6000FFF7C0FCF8600DE0FFF702FB044678686D
:100F7000FFF760FE0346B4FBF3F3FB6002E00023DF
:100F8000FB6000BFFB6818461437BD4690BD00BF2C
:100F900000400E4002001E00050024000300200057
:100FA00080B584B000AF78607B681B0903F00F0345
:100FB000BB60BB68013B092B00F2AA8001A252F87A
:100FC00023F000BFED0F0000FD0F00000D1000002A
:100FD0002D10000011110000111100003D10000043
:100FE0004D1000009D100000F31000004C4BD3F892
:100FF00000311B0A03F01F03FB608CE0484BD3F861
:1010000014311B0A03F01F03FB6084E0444BD3F848
:1010100000311B0E03F00103FB60FB68013318462F
:10102000FFF72AFB0346013BFB6074E03C4BD3F81F
:101030000C311B0AC3F30803FB606CE0384BD3F898
:1010400008311B0AC3F30803FB6064E07B68354A80
:10105000934204D07B68344A93420DD01AE0304B5F
:10106000D3F8203103F00F03FB60F868FFF704FBAF
:101070000346013BFB6010E0294BD3F820311B09EC
:1010800003F00303FB60F868FFF7F6FA0346013B41
:10109000FB6002E00023FB6000BF3CE07B68234A6A
:1010A000934204D07B68224A93420ED01DE01C4B31
:1010B000D3F828311B0903F00303FB60F868FFF73E
:1010C000DBFA0346013BFB6012E0154BD3F82831F5
:1010D0001B0A03F00303FB60FB6804331846FFF7A9
:1010E000CBFA0346013BFB6002E00023FB6000BF3C
:1010F00011E07B680F4A934206D1094BD3F8303197
:1011000003F00303FB6002E00023FB6000BF02E08A
:101110000023FB6000BFFB6818461037BD4680BD4A
:1011200000400E408006160080162E0090171A0010
:1011300090273000A009140080B485B000AF78601B
:101140000123FB737B6803F00F03BB60BB68013BAB
:10115000072B00F2CC8001A252F823F07D11000091
:10116000D311000009120000EF120000511200001C
:1011700087120000EF120000AB120000614BD3F8A1
:10118000943003F00703023B052B1ED801A252F84E
:1011900023F000BFB9110000B3110000AD11000031
:1011A000BF110000CB110000C51100000223FB732A
:1011B0000EE00323FB730BE00423FB7308E00B2317
:1011C000FB7305E00C23FB7302E00523FB7300BFF8
:1011D00090E04C4BD3F8803003F00703042B0CD085
:1011E000042B0DD8012B02D0022B03D008E00323DF
:1011F000FB7308E00223FB7305E00A23FB7302E0A4
:101200000123FB7300BF75E03E4BD3F8843003F03D
:101210000703013B032B17D801A252F823F000BFAC
:101220003112000037120000431200003D1200008E
:101230000323FB730BE00223FB7308E00A23FB7319
:1012400005E00623FB7302E00123FB7300BF51E0BE
:101250002C4BD3F8883003F00703042B0CD0042B5D
:101260000DD8012B02D0022B03D008E00323FB731F
:1012700008E00223FB7305E00A23FB7302E001236D
:10128000FB7300BF36E01F4B1B6F03F00103002B05
:1012900004D0012B05D10923FB7305E00723FB7361
:1012A00002E00123FB7300BF24E0164BD3F85C314E
:1012B00003F03003302B13D0302B14D8202B0CD05C
:1012C000202B10D8002B02D0102B03D00BE00123D1
:1012D000FB730BE00723FB7308E00423FB7305E0BB
:1012E0000823FB7302E00123FB7300BF02E000232D
:1012F000FB7300BFFB7B18461437BD465DF8047BCB
:10130000704700BF00400E4090B583B000AF034669
:10131000FB71FB79002B05D101220121002000F097
:10132000B7F807E0FB79012B04D10122012101204C
:1013300000F0AEF8FFF75CFBFFF76EFCFB79002BCB
:1013400003D1104B04225A6705E0FB79012B02D12F
:101350000C4B03225A67FFF70BF903461846FFF7B9
:1013600049FAFFF7DBF80446FFF7EEF903461946A2
:101370002046FFF756FBFFF756FC00BF0C37BD4673
:1013800090BD00BF00400E4090B583B000AFFFF7A6
:1013900033F978600021786800F0E4FC1848FFF722
:1013A00029FA01220121022000F072F8FFF720FB48
:1013B000FFF732FC7B68002B01D0FFF7ADF9114B32
:1013C00002225A67FFF7D4F803461846FFF712FACD
:1013D000FFF7A4F80446FFF7B7F90346194620467D
:1013E000FFF71FFB7B68002B03D10121002000F0D9
:1013F000B9FCFFF718FC00BF0C37BD4690BD00BF1D
:101400000148E80100400E4098B500AF01220121DB
:10141000032000F03DF8FFF7EBFAFFF7FDFB0B4B65
:1014200005225A67FFF7A4F803461846FFF7E2F9CA
:10143000FFF774F80446FFF787F90346194620467C
:10144000FFF7EFFAFFF7EFFB00BF98BD00400E403B
:1014500098B500AFFFF7CCFAFFF7DEFB0B4B072286
:101460005A67FFF785F803461846FFF7C3F9FFF7F9
:1014700055F80446FFF768F9034619462046FFF77A
:10148000D0FAFFF7D0FB00BF98BD00BF00400E4070
:1014900080B588B000AF0346FB710B46BB711346A5
:1014A0007B71FB79042B00F2B88001A252F823F083
:1014B0000D150000FB140000D7140000C514000037
:1014C000E914000001237B6102233B610123FB61DE
:1014D0000023BB6125E004237B6108233B610323D8
:1014E000FB610223BB611CE010237B6120233B6175
:1014F0000523FB610423BB6113E040237B61802350
:101500003B610723FB610623BB610AE04FF4807354
:101510007B614FF400733B610923FB610823BB61CE
:1015200000BFBB79002B5BD00023FB73FB79022B40
:1015300011D1FFF7A9FA0346002B0CD1394BDB6B15
:101540000123FB73384B5B6A03F00103012B02D1CB
:101550000120FFF7A7FA344A7B69136600BFB96917
:101560003248FFF7B0F80346002BF8D07B79002B08
:1015700054D000BFF9692D48FFF7A5F80346002BAA
:10158000F8D0FB79022B49D1FB7B002B46D0264BB0
:101590005B6A03F00103012B05D101222021022007
:1015A00000F074F903E00021022000F023F902208A
:1015B00000F03EF8B860012200210220FFF768FF2A
:1015C000B968022000F076F8174A7B69136600BFFD
:1015D000F9691648FFF777F80346002BF8D01DE0AD
:1015E000114A3B69136600BF0F4BD3F890300121BD
:1015F000BA6901FA02F21340002BF5D17B79002B76
:101600000CD000BF084BD3F890300121FA6901FAE1
:1016100002F21340002BF5D100E000BF2037BD4699
:1016200080BD00BF00300E4000400E4090400E4094
:1016300080B485B000AF0346FB71FB79042B2CD836
:1016400001A252F823F000BF8F1600005D160000C3
:10165000811600006916000075160000144B1B6A05
:10166000C3F30803FB601BE0114B1B6903F07F030E
:10167000FB6015E00E4B9B6903F07F03FB600FE0FE
:101680000B4BD3F89C30C3F30A03FB6008E0084B14
:101690009B6B03F07F03FB6002E00023FB6000BF55
:1016A000FB6818461437BD465DF8047B704700BFE1
:1016B00000400E4080B586B000AF03463960FB7134
:1016C0000023FB75FB79042B00F2888001A252F8FD
:1016D00023F000BFA7170000E91600006B170000F9
:1016E00017170000411700003B68C3F308033B6075
:1016F00000BF1A213C48FEF7E6FF0346002BF8D155
:101700003A4B1B6A23F4FF7323F0010337493A680D
:1017100013430B6263E03B6803F07F033B6000BF51
:1017200018213148FEF7CFFF0346002BF8D12F4B8D
:101730001B6923F07F022D493B6813430B614EE088
:101740003B6803F07F033B6000BF19212648FEF78A
:10175000BAFF0346002BF8D1244B9B6923F07F028C
:1017600022493B6813438B6139E0204BD3F890301A
:101770001E4B5B6A23F030031C4A43F01003536294
:101780003B68DB0903F00F031846FFF762F9386185
:10179000164B1A6B164B13403A681A4313493B69B0
:1017A00013430B631BE04F23FB603B68BB60BA68CD
:1017B000FB68934228BF1346FB7500BF1D210A48F2
:1017C000FEF781FF0346002BF8D1084B9B6B23F0FB
:1017D0007F02FB7D054913438B6300E000BF00BF20
:1017E0001837BD4680BD00BF40410E4000400E404E
:1017F00000F8FF0F80B584B000AF03463960FB717D
:10180000FFF742F90346002B03D14FF44003FB607E
:101810001AE03B68302B10D03B68302B11D83B6866
:10182000002B06D03B68202B0BD14FF40003FB604C
:101830000AE04FF44003FB6006E04FF44003FB6016
:1018400002E0104BFB6000BF00BF0F4BD3F89020AD
:10185000FB681340FA689A42F7D1FB6803F48003EF
:10186000002B0AD0084BD3F8A03003F48063002B80
:1018700014BF01230023DBB200E001231846103718
:10188000BD4680BDFF33E10700400E4080B582B009
:1018900000AF03463960FB711346BB71FB79022B25
:1018A00014D13B68002B07D00C4B4FF48062C3F877
:1018B000A8200A4A3B685366BB79002B08D0FB7905
:1018C00039681846FFF796FF034603E000BF00E0C3
:1018D00000BF012318460837BD4680BD00400E40BA
:1018E00080B483B000AFEFF310833B603B687B6054
:1018F00072B600BF7B6818460C37BD465DF8047BA6
:10190000704780B483B000AF78607B68002B01D152
:1019100062B600BF00BF0C37BD465DF8047B704760
:1019200080B500AFFEF7FAFD00BF80BD80B485B082
:1019300000AF786039607B6803F1424303F58013A0
:10194000DA003B6813449B00FB60FB681B68184689
:101950001437BD465DF8047B7047000080B400AFCB
:10196000064B1B6803F04003002B01D1012300E06C
:1019700000231846BD465DF8047B70473C300E409E
:1019800080B500AFFFF7EAFF034683F00103DBB247
:10199000002B08D100BF12210448FFF7C7FF034600
:1019A000002BF8D100E000BF80BD00BF04300E4026
:1019B00080B500AFFFF7E4FF034B5B681B0C03F03F
:1019C0000303DBB2184680BD00300E4080B483B004
:1019D00000AF7860044A7B68C2F8243400BF0C373B
:1019E000BD465DF8047B704700A0004080B400AFA6
:1019F000044B0022C3F8802100BFBD465DF8047B84
:101A0000704700BF00400E4080B400AF044B45F665
:101A10000E02C3F8802100BFBD465DF8047B70470D
:101A200000400E4080B483B000AF0346FB71FB79E9
:101A3000C3F10203102202FA03F318460C37BD4625
:101A40005DF8047B7047000090B585B000AF034699
:101A5000FB71FB79002B1BD15D4BD3F890305D4AB5
:101A600013601120FFF768FB03461A465A4B1A70A1
:101A7000FFF786FF594B5B681B0CDBB203F00303D7
:101A8000DAB2574B1A70524B1B69564A13609AE0F0
:101A9000FFF764FF0346002B07D0514B1B784F4CD8
:101AA0001846FFF7BFFF03462361494BD3F8803147
:101AB00003F00103FB60FFF7A7FF0023BB60454B6A
:101AC0001B6803F00103BA681343BB60414B1B68FA
:101AD00003F01003BA681343BB603E4B1B6803F06E
:101AE0004003BA681343BB603A4B1B6803F004031E
:101AF000BA681343BB60374B1B6803F48073BA6842
:101B00001343BB60324ABB681366FFF739FF334BA0
:101B10001B6803F01003002B18D000BF2C4BD3F828
:101B2000403103F08073002BF8D1294A2D4B1B68FC
:101B30001361294B1B78052B08D12B4B1C68FFF731
:101B400037FF034619462046FEF76BFF224B1B78F2
:101B5000023B0A2B29D801A252F823F0891B00006E
:101B6000911B0000991B0000AB1B0000AB1B000089
:101B7000AB1B0000AB1B0000AB1B0000AB1B00004D
:101B80009F1B0000A51B00000020FFF7BDFB0CE021
:101B90000120FFF7B9FB08E0FFF7F6FB05E0FFF7D0
:101BA00033FC02E0FFF754FC00BF0A4B1B6803F054
:101BB0000103002B02D1064B02221A66FB68002BA0
:101BC00001D0FFF713FF00BF1437BD4690BD00BF23
:101BD00000400E40700000207400002000300E40D5
:101BE00075000020780000200C00002080B582B035
:101BF00000AFFFF7B3FE034683F00103DBB2002B17
:101C00001FD1FFF7BDFE114B1B681B0A03F0030336
:101C10007B600E4B5B681B0C03F003033B607A6830
:101C20003B689A4206D9094B1B68084A43F01003E7
:101C3000136007E0054B1B68044A23F01003136090
:101C400000E000BF0837BD4680BD00BF00300E4039
:101C500080B483B000AF0C4B1B6803F01003002B63
:101C60000BD00A4B1B691B0C03F01F037B607B68C6
:101C7000082B02D1064B074A1A6000BF0C37BD463D
:101C80005DF8047B704700BF00300E4000400E40FE
:101C90000C000020C0EA210180B400AF00BFBD46A7
:101CA0005DF8047B704780B400AF00BFBD465DF8AF
:101CB000047B704780B400AF00BFBD465DF8047B75
:101CC000704780B400AF00BFBD465DF8047B70472D
:101CD00080B584B000AF0346FB71FB79002B02D0C6
:101CE0000020FFF7B1FEFFF781FF1B4B1B691A4A6B
:101CF00043F004031361FFF7CFFFFFF7D4FF17484A
:101D0000FFF764FE164B1B6803F01003002B08D08E
:101D1000FFF7E6FDF86002F0ABF9F868FFF7F1FDB8
:101D200000E030BFFFF7CDFFFFF7C4FFFB79002BCA
:101D300003D00120FFF788FE01E0FFF789FFFB7960
:101D400083F00103DBB2002B01D0FFF7E9FD00BFF8
:101D50001037BD4680BD00BF00ED00E00000FFFF72
:101D600000300E4080B584B000AF78600B46FB7049
:101D7000FFF7F4FD034683F00103DBB2002B28D10B
:101D80007B68002B0FD1154BD3F800311B0A03F0F1
:101D90001F030133BB60FEF7EBFB0246BB6802FB8F
:101DA00003F3FB6001E07B68FB600D4B1B78002BAD
:101DB00009D0FB680B4A934205D8FB7819460220EC
:101DC00000F012F806E0FB781946002000F00CF84D
:101DD00000E000BF1037BD4680BD00BF00400E4090
:101DE0006C000020002D310190B587B000AF034694
:101DF0000A46FB711346BB71FFF7B0FD034683F043
:101E00000103DBB2002B31D1FFF7D2FD03461A46A6
:101E1000FB7993422CD0184BD3F800311B0A03F006
:101E20001F0301337B61FEF7A3FB38613B697A69CD
:101E300002FB03F3FB60FB79022B03D1022138691B
:101E4000FEF7EFFD0D4CFB791846FFF7EBFD03465F
:101E50002361BB79002B01D0FFF792FDFB79002BAA
:101E600007D100213869FEF7DCFD02E000BF00E089
:101E700000BF1C37BD4690BD00400E4000300E40F4
:101E800080B487B000AFF860B9607A60FB6803F196
:101E9000424303F58013DA00BB6813449B007B6167
:101EA0007B697A681A6000BF1C37BD465DF8047B09
:101EB000704780B485B000AF786039607B6803F10B
:101EC000C063FB60FB683A681A6000BF1437BD4608
:101ED0005DF8047B704780B485B000AF78603960EE
:101EE0007B6803F18063FB60FB683A681A6000BF9F
:101EF0001437BD465DF8047B704780B586B000AFEF
:101F0000F860B9607A60FFF7EBFC7861FB681A68EB
:101F1000BB68DB431A407968BB680B401A43FB6817
:101F20001A607869FFF7EDFC00BF1837BD4680BD29
:101F300080B483B000AF7860044A7B68C2F8243470
:101F400000BF0C37BD465DF8047B704700A0004021
:101F500080B582B000AF03463960FB71FB79002B7E
:101F60001CD0FB79012B19D0FB79022B16D0FB7901
:101F7000032B13D0FB79042B10D0FB79052B0DD04C
:101F8000FB79062B0AD0FB79072B07D0FB79082BAE
:101F900004D0FB79092B01D0FB790A2BFA7913467F
:101FA0005B0013441B010C3303F1804303F5204312
:101FB00001213A6801FA02F211461846FFF78BFF39
:101FC00000BF0837BD4680BD80B582B000AF034674
:101FD0003960FB71FB79002B1CD0FB79012B19D0E8
:101FE000FB79022B16D0FB79032B13D0FB79042B42
:101FF00010D0FB79052B0DD0FB79062B0AD0FB798D
:10200000072B07D0FB79082B04D0FB79092B01D0D3
:10201000FB790A2BFA7913465B0013441B010C333E
:1020200003F1804303F5204301213A6801FA02F2EB
:1020300011461846FFF73DFF00BF0837BD4680BD7B
:1020400080B586B000AFB9607A601A460346FB736C
:102050001346BB7300237B61FB7B002B1CD0FB7BF7
:10206000012B19D0FB7B022B16D0FB7B032B13D04B
:10207000FB7B042B10D0FB7B052B0DD0FB7B062BB1
:102080000AD0FB7B072B07D0FB7B082B04D0FB7B04
:10209000092B01D0FB7B0A2B7B68072B0ED87B68B2
:1020A0009B000F2202FA03F1FA7B7B689B0002FA85
:1020B00003F31A462B48FFF720FF10E07B68083B2C
:1020C0007B617B699B000F2202FA03F1FA7B7B693B
:1020D0009B0002FA03F31A462348FFF70EFF7B68C2
:1020E000072B10D87B689B00032202FA03F1BB6820
:1020F00003F003027B689B0002FA03F31A461B48B5
:10210000FFF7FBFE0FE07B699B00032202FA03F15D
:10211000BB6803F003027B699B0002FA03F31A46D3
:102120001348FFF7EAFEBB7B1A4679681148FFF7B0
:10213000A7FE97F820301A4679680F48FFF7A0FEEF
:1021400001227B6802FA03F31846FFF7F1FE97F8C5
:1021500024301A4679680948FFF792FE00BF183705
:10216000BD4680BD00A4004004A4004008A4004077
:102170000CA4004010A4004014A4004028A4004077
:1021800080B584B000AFB9607A603B600346FB73F2
:10219000FB7B002B1CD0FB7B012B19D0FB7B022B84
:1021A00016D0FB7B032B13D0FB7B042B10D0FB7BC7
:1021B000052B0DD0FB7B062B0AD0FB7B072B07D012
:1021C000FB7B082B04D0FB7B092B01D0FB7B0A2B6C
:1021D0007B68002B0DD03B68002B05D0FB7BB968DA
:1021E0001846FFF7F1FE04E0FB7BB9681846FFF7DD
:1021F000AFFEBB68072B18D8FA7B13465B0013446D
:102200001B01043303F1804303F52043BA689200B5
:102210000F2101FA02F0BA689200796801FA02F21D
:1022200001461846FFF769FE19E0FA7B13465B008A
:1022300013441B01083303F1804303F52043BA68BC
:10224000083A92000F2101FA02F0BA68083A9200A7
:10225000796801FA02F201461846FFF74EFE7B68E4
:10226000002B0DD13B68002B05D0FB7BB9681846CD
:10227000FFF7AAFE04E0FB7BB9681846FFF768FE8B
:1022800000BF1037BD4680BD80B483B000AF78601A
:1022900039607B683A68DA6300BF0C37BD465DF889
:1022A000047B704780B487B000AFF860B9607A6093
:1022B000FB6803F1424303F58013DA00BB68134463
:1022C0009B007B617B697A681A6000BF1C37BD4642
:1022D0005DF8047B704780B586B000AFF860B960E8
:1022E0007A60FFF7FDFA7861FB681A68BB68DB4328
:1022F0001A407968BB680B401A43FB681A6078691A
:10230000FFF7FFFA00BF1837BD4680BD80B483B029
:1023100000AF786001E07B68DB697B68DB6803F411
:102320008073002BF7D100BF00BF0C37BD465DF8AE
:10233000047B704780B588B000AFF860B9607A6000
:10234000FB707B68002B7ED0FB7803F00303FB70EF
:10235000FB681B6823F44072FB681A60F868FB781E
:102360001B021A464FF44071FFF7B5FFBB68002B04
:1023700010D1FB68374A934204D13748FEF7CEFCB0
:10238000B86007E0FB68354A934203D13448FEF752
:10239000C5FCB8604FF0FF33BB61FB681B6803F0FE
:1023A0000203002B12D0FB78022B0CD0022B20DC76
:1023B000002B02D0012B03D01BE02A4BBB611BE09A
:1023C000294BBB6118E0294BBB6115E0FB78022B60
:1023D0000CD0022B0FDC002B02D0012B03D00AE023
:1023E000204BBB6108E0224BBB6105E0214BBB6188
:1023F00002E000BF00E000BFFB781F4AD35C7B61B6
:102400007B697A6802FB03F33B613B69002B1CD0BC
:102410007B68DB00BA68D21A3B6913445A1E3B69D9
:10242000B2FBF3F3013BFB61FB681B6803F00203A3
:10243000002B04D0FB69002B01D10123FB61FA6959
:10244000FB681A6102E000BF00E000BF2037BD4614
:1024500080BD00BF00C000400082040000C40040F6
:102460000092040080841E00404B4C00809FD500E9
:1024700040548900002D3101A040000080B582B099
:1024800000AF78600B46FB707B68084A934202D02D
:102490007B68074A93427B68FA7800211846FFF769
:1024A00001FF00BF0837BD4680BD00BF00C000402F
:1024B00000C4004080B582B000AF786039607B68AE
:1024C000144A934202D07B68134A93427B680022ED
:1024D0001A6412497868FFF7D7FE78683B685B7822
:1024E00083F00103DBB21A460121FFF7DBFE3B68F4
:1024F00059683B689A683B681B7B7868FFF71AFF4E
:102500003B681B7819467868FFF7B8FF00BF0837AB
:10251000BD4680BD00C0004000C40040FFFF070072
:1025200080B58AB000AF78600023FB777B689D4A56
:10253000934202D07B689C4A93427B68994A9342BB
:1025400002D19A4B3B6209E07B68974A934202D1E1
:10255000974B3B6202E06FF003032AE23B6A9B6801
:10256000BB610AE27B685B6B7B617B6903F4C063E0
:10257000002B14D07B6903F40073002B03D03B6A5B
:10258000FD225A7007E07B6903F48063002B02D0C0
:102590003B6AFE225A703B6A09221A70F4E13B6AD8
:1025A0001B78082B00F2DF8101A252F823F000BF54
:1025B000D52500002B260000B926000013270000B7
:1025C0007F270000E927000079280000BF280000CD
:1025D00047290000BB695B8803F01003002B09D07A
:1025E000BB691B881B0A9BB203F0060343F0F00390
:1025F0007B620EE0BB691B8803F0FE037B62BB6954
:102600005B8803F00203002B03D07B6A43F00103D5
:102610007B623B6A01221A707B687A6ADA627B68A5
:1026200001225A600123FB77A7E17B6903F0800355
:10263000002B0DD080217868FFF726FE3B6AFF2231
:102640005A703B6A08221A707B6802225A6030E096
:102650007B6903F04003002B2BD040217868FFF703
:1026600013FEBB695B8803F01003002B08D03B6AA4
:1026700002221A70BB691B88DAB27B68DA6218E042
:10268000BB695B8803F00203002B0ED03B6A072274
:102690001A703B6A1B79BA69DB0013441B89012B52
:1026A00007D17B6808225A6003E03B6A05221A7052
:1026B00063E10123FB7760E17B6903F08003002B7A
:1026C0000DD080217868FFF7DFFD3B6AFF225A704A
:1026D0003B6A08221A707B6802225A6016E07B6906
:1026E00003F04003002B11D040217868FFF7CCFDA8
:1026F000BB695B8803F00203002B03D03B6A032213
:102700001A703AE13B6A05221A7036E10123FB7721
:1027100033E1BB695B8803F01003002B09D0BB6970
:102720001B881B0A9BB203F0060343F0F0037B6295
:1027300004E0BB691B8803F0FE037B62BB695B8816
:1027400003F00403002B0ED07B6A43F001037B628D
:102750003B6A1B79BA69DB0013441B89012B02D148
:102760007B6808225A603B6A04221A707B68012247
:102770005A607B687A6ADA620123FB77FDE07B6945
:1027800003F08003002B15D080217868FFF77CFDD3
:102790003B6AFF225A703B6A08221A707B68022249
:1027A0005A601EE000C0004000C400407C000020D1
:1027B000880000207B6903F04003002B11D04021EA
:1027C0007868FFF761FDBB695B8803F00403002BA9
:1027D00003D03B6A07221A7003E03B6A05221A7095
:1027E000CBE00123FB77C8E03B6A5A883B6A1B7940
:1027F000B969DB000B441B899A4226D33B6A00224D
:102800005A803B6A1B790133DAB23B6A1A71BB69A1
:102810005B8803F00403002B03D03B6A03221A7089
:10282000ABE0BB695B8803F00103002B04D13B6A7A
:102830001B79012B40F2A0803B6A08221A707B684A
:1028400002225A600123FB7797E03B6A1B79BA6941
:10285000DB0013445A683B6A5B88591C88B2396AAA
:10286000488013441B781A467B68DA623B6A06226A
:102870001A700123FB7780E07B6903F08003002B53
:102880000DD080217868FFF7FFFC3B6AFF225A7069
:102890003B6A08221A707B6802225A600CE07B694E
:1028A00003F04003002B07D040217868FFF7ECFCD1
:1028B0003B6A05221A7060E00123FB775DE07B69CB
:1028C00003F02003002B3BD03B6A1B79BA69DB0085
:1028D00013441B893B617B68DB69FB733B6A5B8844
:1028E0001A463B6993420ED93B6A1B79BA69DB00F1
:1028F00013445A683B6A5B88591C88B2396A48801D
:102900001344FA7B1A703B6A5B881A463B69934210
:1029100006D83B6A08221A707B6802225A600FE0D0
:102920007B6804225A603B69012B09D93B6A5B88AA
:102930001A463B69013B9A4202D17B6808225A60E1
:102940000123FB7719E07B6903F48073002B07D028
:102950004FF480717868FFF797FC3B6A09221A7080
:102960000123FB7709E03B6AFB225A703B6A09228C
:102970001A700123FB7700E000BFFB7F83F00103A7
:10298000DBB2002B7FF4EEAD3B6A1B78092B0BD139
:102990007B6800221A643B6A93F90130012B05D150
:1029A0003B6A00225A7001E0012302E03B6A93F97E
:1029B000013018462837BD4680BD00BF80B584B0C1
:1029C00000AF786039607B682E4A934202D07B6802
:1029D0002D4A93427B682B4A934202D12B4BFB60DA
:1029E00009E07B68284A934202D1294BFB6002E050
:1029F0006FF0030342E07B689B6803F00103002B48
:102A000002D07B6820225A603B685B8803F0020397
:102A1000002B03D03B681B89002B09D03B685B88E7
:102A200003F00403002B06D03B681B8A002B02D165
:102A30006FF0030322E0FB6800221A70FB6801229A
:102A40005A70FB6800225A80FB6800221A71FB68EA
:102A50003A689A607B68C0225A607868FFF756FC33
:102A60000C497868FFF710FC7B681B6C43F4FC6230
:102A70007B681A647868FFF753FD034618461037E1
:102A8000BD4680BD00C0004000C400407C00002066
:102A900088000020FFFF070080B400AF044BDB6C10
:102AA0001B0EDBB21846BD465DF8047B704700BFC5
:102AB000B081E00F80B483B000AF0346FB7197F99B
:102AC0000730002B0BDBFB7903F01F02074997F956
:102AD00007305B09012000FA02F241F8232000BF11
:102AE0000C37BD465DF8047B704700BF00E100E095
:102AF00080B483B000AF0346FB7197F90730002B19
:102B000012DBFB7903F01F020A4997F907305B09D2
:102B1000012000FA02F2203341F82320BFF34F8F47
:102B200000BFBFF36F8F00BF00BF0C37BD465DF81D
:102B3000047B704700E100E080B483B000AF03463F
:102B4000FB7197F90730002B0CDBFB7903F01F02B8
:102B5000074997F907305B09012000FA02F2603358
:102B600041F8232000BF0C37BD465DF8047B704759
:102B700000E100E080B485B000AF786039607B6828
:102B800003F1C063FB60FB683A681A6000BF14374A
:102B9000BD465DF8047B704780B485B000AF7860B7
:102BA00039607B6803F18063FB60FB683A681A60F8
:102BB00000BF1437BD465DF8047B704780B582B016
:102BC00000AF194B01225A64FFF766FF0346FB7101
:102BD000FB79002B0CD1154B4AF6E8521A60144BC6
:102BE0001B68134A43F004031360104B00221A6061
:102BF000FB79012B05D80F4B1B680E4A43F4005399
:102C000013600D4B1B6A23F444130B4A43F48813DF
:102C10001362054B1B68044A43F48073136000BFC2
:102C20000837BD4680BD00BF00000E4090310E4009
:102C300098310E4064310E4000400E4080B483B0A5
:102C400000AF786039607B683A68DA6300BF0C37A0
:102C5000BD465DF8047B704780B483B000AF7860F8
:102C600039607B681A6C3B68DB431A407B681A64E6
:102C700000BF0C37BD465DF8047B704780B483B05D
:102C800000AF786039607B681A6C3B681A437B68D8
:102C90001A6400BF0C37BD465DF8047B7047000026
:102CA00080B483B000AF7860044A7B68C2F82434F3
:102CB00000BF0C37BD465DF8047B704700A00040A4
:102CC00080B400AF034BD3F81C341846BD465DF802
:102CD000047B704700A0004080B582B000AF03467F
:102CE0003960FB71FB79002B1CD0FB79012B19D0CB
:102CF000FB79022B16D0FB79032B13D0FB79042B25
:102D000010D0FB79052B0DD0FB79062B0AD0FB796F
:102D1000072B07D0FB79082B04D0FB79092B01D0B6
:102D2000FB790A2BFA7913465B0013441B010C3321
:102D300003F1804303F5204301213A6801FA02F2CE
:102D400011461846FFF728FF00BF0837BD4680BD73
:102D500080B582B000AF03463960FB71FB79002B70
:102D60001CD0FB79012B19D0FB79022B16D0FB79F3
:102D7000032B13D0FB79042B10D0FB79052B0DD03E
:102D8000FB79062B0AD0FB79072B07D0FB79082BA0
:102D900004D0FB79092B01D0FB790A2BFA79134671
:102DA0005B0013441B010C3303F1804303F5204304
:102DB00001213A6801FA02F211461846FFF7DAFEDD
:102DC00000BF0837BD4680BD80B400AF054B1B690E
:102DD000044A23F00403136130BF00BFBD465DF811
:102DE000047B704700ED00E080B500AF0121094889
:102DF000FDF72EFF01210848FDF72AFF01210748B2
:102E0000FDF726FF012201210020FEF741FB00BF54
:102E100080BD00BF0082040000350A0030253E005E
:102E200080B582B002AF0123022206210520FFF700
:102E3000A7F9012301930123009300230622062111
:102E40000520FFF7FDF80023042204210520FFF7E9
:102E500097F90023042205210520FFF791F90A20A4
:102E6000FFF76AFE0A20FFF725FE00BFBD4680BDC2
:102E700080B500AF06490748FFF7E0FE0449054862
:102E8000FFF7FCFE1120FFF715FE00BF80BD00BF5D
:102E90002400010000C0004080B500AF1120FFF702
:102EA00027FE05490548FFF7D7FE03490348FFF70A
:102EB000C5FE00BF80BD00BF2400010000C000406F
:102EC00090B585B000AF244B3C460FCB84E80F0093
:102ED000224BBB6001233B7301230B220A210220FA
:102EE000FFF74EF901230B220B210220FFF748F9CF
:102EF0001B4B03225A641A4B9B6C23F01F03184A86
:102F000043F010039364164B9B6C23F4F853144A5C
:102F100043F4606393643B4619461148FFF7CAFACD
:102F2000104B00221A70104B00221A700F4B002217
:102F30001A700B4BE2225A61094BFE229A61084B30
:102F40001B68074A43F016031360FFF791FF00BFA9
:102F50001437BD4690BD00BFA4400000DDFB050056
:102F600000C000409F000020A00000209E00002024
:102F700080B586B000AF05210520FFF7E9FEE2230A
:102F80003B8001237B80124B7B60124B1B783B8183
:102F9000114BFB600A233B823B4619460F48FFF763
:102FA0000DFD0346FB7504E00C48FFF7B9FA034634
:102FB000FB7597F91730012BF6D005210520FFF797
:102FC0008BFEFFF755FF00BF1837BD4680BD00BF21
:102FD000140000201A0000209400002000C00040CF
:102FE00080B500AF01E0FFF7EFFE044B1B78DBB2CA
:102FF000002BF8D100BF00BF80BD00BF9F000020A4
:1030000080B582B000AF1E4B5B6B7B607B6803F0CA
:103010000403002B0CD01B4B01221A70184BDB69E8
:10302000194B00221A7004211548FFF707FE12E021
:103030007B6803F02003002B0DD0114BD969124B94
:103040001B781A46C9B2114B99540F4B1B780133A8
:10305000DAB20D4B1A707B6803F48033002B0AD070
:103060004FF480310648FFF7E9FD064B00221A7045
:10307000054B00221A7000BF0837BD4680BD00BF57
:1030800000C000409F0000209E000020940000200F
:1030900080B582B000AFFFF713FE78607868FFF765
:1030A000FFFD084B1B78DBB283F00103DBB2002B82
:1030B00004D0FFF7F1FE044B01221A7000BF08375D
:1030C000BD4680BD9F000020A000002080B500AF5D
:1030D000FFF774FDFFF788FEFFF7A2FEFFF7F0FE93
:1030E00004210520FFF734FE0A4B1B78DBB2002BCE
:1030F00002D0FFF775FF09E0074B1B78DBB2002B0E
:1031000004D0FFF735FF044B00221A700020FEF7B1
:10311000DFFDE9E79F000020A000002080B483B01D
:1031200000AF786000BFFDE703685A004CBF43F072
:10313000004323F000431844704700BF2DE9F843D3
:1031400049B34F1E044615463E464FF0000909EBB1
:10315000060101EBD171491004EBC1084046FFF7AD
:10316000E3FF8F4203464FEAC1000FD00830AB4265
:10317000204407D8FFF7D8FF0138A84208D201F150
:103180000109E4E7894506D04E1EE0E7AB42F9D8D5
:103190004046BDE8F8834FF000084046BDE8F8839C
:1031A000012807D0022807D0044B00280CBF18467E
:1031B00000207047024870470248704745380000B9
:1031C0004D3800005538000030B5214B83B004461F
:1031D0008D1E1BB301A92846AFF3008088B3019967
:1031E0002A46FFF7ABFF014658B3FFF79DFF4B6838
:1031F000A064012B28D0002B01F104001FDBFFF796
:1032000093FF002323650368E064002B0DDBFFF7C9
:103210008BFF03460020236103B030BD0D4B0E49E8
:10322000C91AC91018460191DAE7C3F30360FFF722
:10323000B7FF034628B10020236103B030BD01234E
:10324000E0E700230920E6E700230520E3E700BFCD
:1032500000000000B8400000504100000368DA0799
:1032600010B5044606D49B0700F1480009D500F0CC
:103270005DFC2368590709D51A070ED5DB0613D55F
:1032800010BD00F04BFC23685907F5D404F1D000C1
:1032900000F054FC23681A07F0D404F5A87000F07D
:1032A00055FC2368DB06EBD404F5E870BDE810405C
:1032B00000F090BC0346006800B11844704700BF9E
:1032C000704700BF70B504460E46316C2046FFF7CC
:1032D0007BFF054688B9326C62612369324621461C
:1032E000012098470828F0D0072806D12846316CDD
:1032F000FFF7E6FF301D00F005FCFFDE2DE9F0478B
:103300000D1DD0F80C80D0F81890074614460FCD4C
:10331000ADF5727D0DF10C0CACE80F000FCDACE8F3
:103320000F000FCDACE80F0095E80F0002AE4FF094
:10333000000E8CE80F00C6F800E020E0336C7B61E3
:103340004FF4F07231467AA800F06EFE3B697AAA1B
:10335000394650469847889B73642146CDE90069F9
:1033600005463B463A460120C047044618BB4FF489
:10337000F0727AA9304600F057FE082D19D1316C51
:103380003846FFF721FF09345FFA84FA0546002822
:10339000D4D0B36B73643A46CDE900693B464AF03A
:1033A00010010120C04730B928460DF5727DBDE8F7
:1033B000F087072D05D0092528460DF5727DBDE85B
:1033C000F0872046316CFFF77BFF03A800F09AFBE3
:1033D000F0B5CB6B0B6401F1040C0E460546BCE85E
:1033E0000F00F9B001AC0FC4BCE80F000FC4BCE87B
:1033F0000F000FC49CE80F004FF0FF3784E80F0068
:10340000009706E02B696A46294698470828044633
:1034100008D110992846FFF7D7FE0028F2D00920DE
:1034200079B0F0BD6846FFF719FF062CF7D1314699
:103430002846FFF747FF00BFC160D96B826119645E
:1034400000221946FFF75ABF70B5C66843690B647E
:10345000AEB903690A4604460D4601460220984764
:10346000072805D008280ED129462046FFF72AFF55
:103470003046296CFFF724FF281D00F043FB012292
:10348000FFF73CFFFFDEFFDEC26822B1CA6B0A64B1
:103490000022FFF733BFFFF79BBF00BF012910D009
:1034A00009D883B90F2A0ED800EB82021846536858
:1034B000009A13607047033901298CBF0220012054
:1034C0007047084670470220704700BF00B585B0BE
:1034D0000A46002303A900911946FFF7DFFF03986E
:1034E00005B05DF804FB00BF012910D009D883B9ED
:1034F0000F2A0ED8009900EB820209685160184625
:103500007047033901298CBF02200120704708460B
:1035100070470220704700BF10B584B0002303AC91
:10352000039200940A461946FFF7DEFF04B010BD6F
:1035300070B5D36B136402F1040C05460C46BCE86D
:103540000F00ADF50E7D0DF15C0EAEE80F00BCE88E
:103550000F00AEE80F00BCE80F00AEE80F009CE8DB
:103560000F004FF0FF368EE80F00169610E0FFF7C1
:10357000D3FF214616A8A847034616AA6946082085
:1035800083B9049B9847052806460CD0092809D022
:1035900026996846FFF718FE03466A460C2116A8CE
:1035A000002BE4D0092616A8FFF758FE30460DF58B
:1035B0000E7D70BD2DE9F04F9346CA6C89B00D4663
:1035C00052F8041B069200F0030C002B79D00C0C6F
:1035D0008DF81D400904E4B2059102EB840202213A
:1035E0002F6D8DF81C10BCF1020F08BFAA6B17F0ED
:1035F00001070CD005A9584600F076FB18B9082041
:1036000009B0BDE8F08F092009B0BDE8F08F166859
:10361000002EEFD000F008010191B14602976446F8
:103620009A46BAF1020F48D0B2F80090568802F1DB
:103630000408AA6C26F001030F2158469F18FFF7D3
:1036400045FF874237D829F001023A44824294BFAD
:1036500000220122730003F0020309F0010943EA8A
:103660000903012B47D0022B31D0002BCBD114B151
:10367000002A40F0C68008F10402D2F80090B9F1A7
:10368000000FCED105A95846029F00F02DFB00285F
:10369000B9D1002FB3D00F215846FFF717FF0E21E5
:1036A00002465846FFF738FF654A0F215846FFF794
:1036B00033FF0720A8E70022CCE7566802F108088C
:1036C000B7E7090205918DF81D30032188E7D8F886
:1036D000006026F00043002C44D122B1019A002A58
:1036E0005AD0002B58D0002E01DA08F1040801331B
:1036F00008EB8302C1E7ECB9CAB1D8F80430D8F8B6
:103700000020991C4FEAD2723FF47DAF05F15801B9
:103710000133049100F0888008F10400FFF7CAFD2E
:1037200004AB01462846AFF30080002856D108F1CB
:103730000802A2E70D215846FFF7C8FE2B6A834214
:10374000F5D1AB6A9845F2D14046FFF7EDFC0F2169
:1037500002465846FFF7E0FE2A4600215846FFF78A
:10376000DBFEA6E70D2158460393FFF7AFFE2A6A5A
:10377000039B8242B7D1AA6A9045B4D100270422A4
:10378000C5E90B724244AB626A63D8F80020BA42C2
:1037900052DB01220292AAE7039408F104090026F1
:1037A00005F158071C460DE048460497FFF782FDD7
:1037B0000022014604AB2846013609F10409AFF3A3
:1037C0000080C8B9A642EFD10D215846FFF77EFE12
:1037D000049B2862C5E90938062015E704460D2137
:1037E0005846FFF773FE022CDDF81090286221D1B5
:1037F0002B4643F82C9FEDE72346D8F80060039C46
:1038000071E74046FFF790FC08F104020446AA6302
:103810002846AFF3008000283FF4F5AE22460F2182
:103820005846FFF779FE44E7894658460D21FFF7D1
:103830004DFE28624B46CDE7581C08EB800084E71C
:10384000000000000023FFF7B5BE00BF0123FFF713
:10385000B1BE00BF0223FFF7ADBE00BF2DE9F043AC
:103860000646C3B015461C46042900F2D180DFE8A5
:1038700001F0AC51CF2A0300002C40F0C980102A7F
:1038800000F2C6800368DC0600F1E78020AF38460E
:1038900000F0AAF9B46B394600234FF0010C0CFA82
:1038A00003F22A42204603F1010303D050F8042B0F
:1038B0000A600446042B01F10401F0D1B4633846D8
:1038C00000F088F999E0032C40F0A28094B204EB58
:1038D0001243102B4FEA124500F29A8003681F072B
:1038E00000F1C38020AF384600F052F9B26B07EB0D
:1038F000C50154B10B46D01A01EBC401E4001D58B8
:1039000043F8045B8B42FAD12244B263384600F09C
:103910001DF972E0012C4FEA124895B271D0052CC6
:1039200076D108EB0509B9F1200F71D8B8F10F0F66
:1039300072D8B9F1100F036800F29F80D90708D53B
:1039400023F00103304643F0020340F8483B00F007
:10395000F1F820AF384600F0EDF8B36B002D00F021
:10396000B9806D006A1E07EBC801002501320439D9
:1039700003EB820253F8040B41F8040F9342F9D190
:10398000002D00F0A1804146102938BF10216B00A6
:1039900010396F46013B07EBC1010133043902EBDB
:1039A000830352F8040B41F8040F9A42F9D1012C19
:1039B00000F08880B8F10F0FB26302D820A800F0A1
:1039C000B5F8384600F0BAF817E00CBB806B234618
:1039D0001FFA82FC0124371D04FA03F111EA0C0FCF
:1039E000024604D052F8041B47F823101046013356
:1039F000102BF1D1AC0400D4B063002043B0BDE87B
:103A0000F08308EB0503102B02D8B8F1100F14D186
:103A1000022043B0BDE8F083002DEED003685A07C2
:103A20005CD46F46384600F08DF8B26B6B00A8F19D
:103A30001001013B07EBC101AFE70368DA0759D476
:103A400020AF384600F06EF8B36B002D89D10433F7
:103A5000B363384600F062F8CFE723F01003036049
:103A600000F5E87000F0C0F810E723F008030360E9
:103A700000F5A87000F08CF834E7D90708D523F0DA
:103A8000010343F0020340F8483B00F053F8336869
:103A9000580706D5304623F0040340F8D03B00F029
:103AA00051F820AF384600F045F8684600F04AF873
:103AB000C8F110025200B36BA9F11005013A07EBEF
:103AC000C80153E720AFC2E7012CC0D0B8F10F0FF7
:103AD000B36392D8384600F029F88EE723F0040348
:103AE00040F8D03B6F4600F02DF8384600F02AF839
:103AF000B26B9BE7304623F0030340F8483B00F0ED
:103B000011F89DE700F1340191E838009C46A64683
:103B10004CF8045D90E8FF0FE54600BD90EC210BEA
:103B2000704700BF80EC210B704700BF90EC200B6A
:103B3000704700BF80EC200B704700BFD0EC200B1B
:103B4000704700BFC0EC200B704700BFF0EC0201D3
:103B5000F0EC0211F0EC0221F0EC0231F0EC024149
:103B6000F0EC0251F0EC0261F0EC0271F0EC028139
:103B7000F0EC0291F0EC02A1F0EC02B1F0EC02C129
:103B8000F0EC02D1F0EC02E1F0EC02F1704700BF82
:103B9000E0EC0201E0EC0211E0EC0221E0EC023189
:103BA000E0EC0241E0EC0251E0EC0261E0EC027179
:103BB000E0EC0281E0EC0291E0EC02A1E0EC02B169
:103BC000E0EC02C1E0EC02D1E0EC02E1E0EC02F159
:103BD000704700BFB0FC0181B0FC0191B0FC01A1B5
:103BE000B0FC01B1704700BFA0FC0181A0FC0191B5
:103BF000A0FC01A1A0FC01B1704700BFEC4600B5DC
:103C00002DE900502DE9FF1F4FF000032DE90C00B6
:103C100001A9FFF7DDFBDDF840E012B0704700BFFF
:103C2000EC4600B52DE900502DE9FF1F4FF00003D1
:103C30002DE90C0001A9FFF707FCDDF840E012B008
:103C4000704700BFEC4600B52DE900502DE9FF1F7D
:103C50004FF000032DE90C0001A9FFF715FCDDF87A
:103C600040E012B0704700BFEC4600B52DE90050AF
:103C70002DE9FF1F4FF000032DE90C0001ABFFF70A
:103C8000DBFBDDF840E012B0704700BFEC4600B54A
:103C90002DE900502DE9FF1F4FF000032DE90C0026
:103CA00001AAFFF745FCDDF840E012B0704700BF05
:103CB000027A03467AB9427AA2B14168013A10B455
:103CC0004272086803220C1D1A7202025C60000E28
:103CD00010BC1A6070470068013A1A7202021A603A
:103CE000000E7047B02070472DE9F043064685B0BE
:103CF0000D464FF000082846FFF7DAFFB0280446CB
:103D000000F0DA80070646D500F0F003802B5ED085
:103D1000B02B73D01BD8902B00F09B80A02B12D11E
:103D2000C34303F007034FF47F621A41010702F413
:103D30007F6201D542F48042002319463046FFF7E6
:103D40008DFD0028D7D0092005B0BDE8F083C02B39
:103D50006DD1C62800F09380C72800F0B28000F033
:103D6000F803C02B00F0D280C82800F0DD80C928FD
:103D7000E9D12846FFF79CFF020300F00F0002F490
:103D8000702201300243012105233046FFF766FD12
:103D90000028B0D0D7E78300DBB21F1D0DF10C095E
:103DA00000231946CDF800900D223046FFF776FB30
:103DB000039BCDF8009060064CBFDF1BFF1800236B
:103DC0000D22194630460397FFF78EFB93E72846EE
:103DD000FFF76EFF24022043B0F5004FB3D004017B
:103DE0000023A2B219463046FFF738FD0028AAD1B9
:103DF00014F4004F18BF4FF001087CE7B12851D0F0
:103E0000B22800F0AD80B3286DD000F0FC03B42BD5
:103E100099D000F007020132012342F40022194632
:103E20003046FFF71BFD00283FF465AF8BE700F03D
:103E3000F803D02B87D100F007020132052342F4AA
:103E4000002201213046FFF709FD00283FF453AF5F
:103E500079E700F00D030D2B3FF475AF03AF00239E
:103E600000F00F02194600973046FFF717FB0023BA
:103E700000970D2219463046FFF736FB3BE72846F0
:103E8000FFF716FF020300F00F00013002F470226A
:103E90000323024319463046FFF7E0FC00283FF4B5
:103EA0002AAF50E72846FFF703FF431EDBB20E2B75
:103EB00002467FF641AF46E7B8F1000F40D0002040
:103EC00042E72846FFF7F4FE431EDBB20E2B024604
:103ED0003FF639AF002304213046FFF7BFFC00282E
:103EE0003FF409AF2FE72846FFF7E2FE020300F098
:103EF0000F00013002F470220123024319463046BC
:103F0000FFF7ACFC00283FF4F6AE1CE700F00F0210
:103F10000132032342F4202219463046FFF79EFC6B
:103F200000283FF4E8AE0EE72846FFF7C1FE00F098
:103F3000F00200F00F031032013343EA023222E7AD
:103F400003AC434641460E2200943046FFF7A6FAE2
:103F5000009443460F2241463046FFF7C5FAAEE7CC
:103F600000230DF10C090D221946CDF800903046C2
:103F7000FFF794FA2846FFF79BFE0206039C4FF0DA
:103F800002070BD500F07F00B84004442846039494
:103F9000FFF78EFE030607F10707F3D400FA07F2D6
:103FA00004F50174224400230392CDF800900D2201
:103FB00019463046FFF798FA9DE600BF08B5064B54
:103FC000044613B10021AFF30080044B1B6803B11A
:103FD00098472046FFF7A2F800000000A400002048
:103FE00070B50D4D0D4C641BA4100026A64209D1DE
:103FF0000B4D0C4C00F02EF8641BA4100026A642BA
:1040000005D170BD55F8043B98470136EEE755F8E9
:10401000043B98470136F2E74800002048000020A2
:10402000480000204C0000200A44914200F1FF3378
:1040300000D1704710B511F8014B03F8014F9142C0
:10404000F9D110BD02440346934200D1704703F8F2
:10405000011BF9E7F8B500BFF8BC08BC9E467047E5
:10406000F8B500BFF8BC08BC9E46704700000000D1
:104070005FF800F01D00002040787D010000000086
:10408000005A620200010000C0CF6A000200000076
:10409000809FD50002010000002D310102020000C6
:1040A000080911080101000000000000606701001C
:0840B000000000000000000008
:1040B80094C3FF7F0100000008C4FF7FB0B0B08048
:1040C80054C4FF7F01000000F8F0FF7FB0A9028010
:1040D80084F1FF7FB0B0A880D4F1FF7F0100000019
:1040E800DCF1FF7FB0B0AA800CF2FF7FAE71B28026
:1040F800D8F2FF7FAB3F388038F3FF7F0100000024
:1041080040F3FF7FB0B0AA8078F3FF7F0100000082
:1041180018F4FF7FAA0DB28094F4FF7FB0AF088037
:104128001CF7FF7F010000002CF7FF7FAD3F0280E6
:10413800CCF9FF7F01000000A8FBFF7FB0AD048031
:0841480074FEFF7F010000007E
:0C4150005C410000000000201400000092
:10415C0000F0490200800000C0EA2101C0EA210100
:10416C00C0EA21014765636B6F00060080B400AFA5
:10417C0030BF4223013BFDD100BF064B5B6803F00F
:10418C008053002BF9D100BF00BFBD465DF8047B06
:10419C00704700BF00300E402904000001040000ED
:04000003000004C92C
:00000001FF
