:100000000020002009570000EDE40100EDE40100AC
:100010001FFC0100EDE40100EDE40100EDE401004E
:10002000EDE40100EDE40100EDE40100EDE4010088
:10003000EDE40100105E0200EDE40100EDE40100DA
:10004000EDE401006D9E010025C70000EDE4010014
:100050009D9601002F2A02002B2A02008D9E01008E
:10006000232A0200CD63000035650000EDE40100A5
:100070005554000045540000EDE40100EDE401009A
:10008000EDE40100B52C000055650000EDE4010031
:10009000EDE40100EDE40100EDE40100EDE4010018
:1000A000EDE40100EDE40100EDE40100EDE4010008
:1000B000C19E0100272A02004DB70000FD9E0100ED
:1000C000EDE4010025820100EDE40100EDE4010012
:1000D000EDE40100EDE40100EDE40100EDE40100D8
:1000E000EDE40100EDE40100EDE40100EDE40100C8
:1000F000EDE40100EDE40100EDE40100EDE40100B8
:10010000EDE40100EDE40100EDE401000000000079
:10011000013800D0FCE7704700000000000000003C
:1001200001F0FF01102A2BDB10F0070F08D010F8A8
:10013000013B013A8B422DD010F0070F42B3F6D1AC
:10014000F0B441EA012141EA014122F007047FF0C5
:1001500000070023F0E80256083C85EA010586EA1C
:10016000010685FA47F5A3FA87F586FA47F6A5FA58
:1001700087F68EB9EED1F0BC01F0FF0102F0070264
:1001800032B110F8013B013A83EA010313B1F8D10F
:100190000020704701387047002D06BF35460338F0
:1001A000073815F0010F07D1013015F4807F02BF29
:1001B000013015F4C03F0130F0BC0138704700BF7A
:1001C0002DE9F04F2DED028B91B082460C469346FF
:1001D0001D46DDE91C23104619461CF0C3F9002812
:1001E00000F007814FF0FF32B14BDDE91C011CF03C
:1001F000E1F9002840F0FD804FF0FF326FF48013EA
:10020000DDE91C011CF0B8F9002840F0F280002262
:100210000023DDE91C011CF0AFF9002840F0FE804E
:100220009DED1C7B8DED067B209B13F480630F936B
:1002300001D106231E93DDE906010246C1F30A50EF
:10024000C1F31303904643F07F5949F44019A0F2DB
:10025000FF301BF0B5FE84A3D3E900231BF01AFF87
:1002600083A3D3E900231BF05FFD06460F4600225F
:10027000904B404649461BF055FD7FA3D3E9002330
:100280001BF008FF02460B46304639461BF04CFD7A
:100290001CF09AF906461BF093FE8046894678A327
:1002A000D3E900231BF0F6FE0022834B1BF03CFD3C
:1002B0001CF08AF9074674A3D3E900234046494657
:1002C0001BF0E8FE8046894638461BF079FE70A395
:1002D000D3E900231BF0DEFE02460B4640464946AA
:1002E0001BF020FD8046894602460B461BF0D2FEDD
:1002F000CDE90A0107F2FF3700210022CDE90812FB
:100300003B0509930023089342464B464046494625
:100310001BF00AFDCDE90C0142464B4600204FF090
:1003200080411BF0FFFC804689460022634BDDE9DB
:100330000A011BF0D9FF0022614B1BF0F5FC0246BD
:100340000B46DDE90A011BF0CFFF00225D4B1BF0DD
:10035000EBFC02460B46DDE90A011BF0C5FF024635
:100360000B46404649461BF0DFFC02460B46DDE9E2
:100370000C011BF0B9FF0022534B1BF0D5FCDDE94B
:1003800008231BF087FE8046894649EC188BDDE97F
:1003900006231CF00FF940B1013E0022484B4046B5
:1003A00049461BF0A1FF41EC180B06F16303C62B75
:1003B0003FD80427209B13F4006F44D036A3D3E921
:1003C0000023DDE90689404649461CF0E9F800288B
:1003D0003FD033A3D3E90023404649461CF0CCF874
:1003E000002836D01E9BB34225DD9E1B731E1E9334
:1003F00023E0209B04931F9B03931E9B02939DED80
:100400001C7B8DED007B2B465A462146504600F062
:10041000CFF811B0BDEC028BBDE8F08F9FED227BD1
:100420008DED067B1C9B06931D9B03F100430793F8
:10043000FAE60527BEE700231E93209B43F4806362
:10044000209300273E461F9B9F423FD2A3EB070805
:100450003EE01E9B002BF6D00F9B002BF3D01E9B83
:10046000013B1E93EFE700BFFB799F501344D33F3E
:10047000B3C8608B288AC63F61436F63A787D23FAA
:1004800071A379094F930A401655B5BBB16B024071
:10049000EF39FAFE422EE63F2D431CEBE2361A3FBF
:1004A0000000000080842E410000000000000000D9
:1004B000FFFFEF7F0000F83F0000E03F00002C400E
:1004C00000002440000018400000F03F4FF00008FA
:1004D000209B13F0020902D00FB14FF000083EB18B
:1004E00053EC182BDDE906011BF0FEFECDE90601F9
:1004F00000220023DDE91C011CF03EF800283DD15C
:10050000209B23F400630493CDF80C801E9B029380
:100510009DED067B8DED007B2B465A4621465046CD
:1005200000F046F8002F3FF474AF209B13F0200F2B
:100530002CD04FF0450C00F101082B460246214615
:100540006046D04786EAE672A2EBE6720523059381
:10055000013F0497002303930A230293F30F0193AF
:1005600000922B4642462146504620F03AFCB9F113
:10057000000F3FF44EAF02461F9F10E0DDE9060179
:10058000024601F10043CDE90623B9E74FF0650CBF
:10059000D1E7561C2B4621462020D0473246A2EBFD
:1005A0000B03BB42F5D3104633E700BF0000000049
:1005B0002DE9F04F2DED028B95B007900A919246F0
:1005C0009B46DDE92089229D42464B4640464946EE
:1005D0001BF0C8FF002840D04FF0FF326FF48013AB
:1005E000404649461BF0C8FF002845D14FF0FF3276
:1005F0009F4B404649461BF0DDFF00284BD198A396
:10060000D3E90023404649461BF0D4FF00285AD1C5
:1006100095A3D3E90023404649461BF0ADFF0028CF
:1006200051D100220023404649461BF0A5FF002877
:1006300057D100230B93249B13F4806F5CD00024CC
:100640001F2C5BD8092D59D904F150036B4430227B
:1006500003F8202C013D0134F2E7249B0393239BF4
:10066000029303230193834B00935B4652460A99FE
:10067000079820F0DCFA2CE1249B0393239B029340
:10068000042301937C4B00935B4652460A990798DA
:1006900020F0CDFA1DE1249B13F004030FD0774A1C
:1006A0007BB1042324990391239902910193009231
:1006B0005B4652460A99079820F0B9FA09E1704A58
:1006C000EEE70323EEE7249B0493239B0393029519
:1006D000CDE900895B4652460A990798FFF770FDFD
:1006E000F7E042464B46002000211BF01BFB8046F2
:1006F000894601230B939EE70625A0E7404649461D
:100700001BF062FF06461BF05BFC02460B464046B0
:1007100049461BF007FB5B4B03EBC50393ED008BD6
:1007200053EC182B1BF0B6FC02460B46CDE9082310
:100730001BF072FF07461BF033FC02460B46DDE957
:1007400008011BF0EFFA02460B46CDE90823002210
:100750004D4B1BF02FFF50B3013738461BF020FCE8
:1007600002460B4651EC180B1BF010FF08B1013686
:10077000002755BB30461BF023FC02460B46404683
:1007800049461BF0CFFA0746884600223E4B1BF035
:10079000F3FE38B100223C4B384641461BF00AFFBD
:1007A000002842D016F0010F3FD001363DE0002274
:1007B000354BDDE908011BF0DFFE0028D9D117B168
:1007C00017F0010FD5D00137D3E71F2C17D8013D03
:1007D0002E4BA3FB0723DB08194603EB8303A7EB90
:1007E0004303621C303304F150000DEB000404F8A5
:1007F000203C092F02D90F461446E6E714461F2C69
:100800000AD86B1E45B104F150026A44302102F847
:10081000201C1D460134F2E71F2C06D804F15003BA
:100820006B442E2203F8202C01341F2C33D8184A95
:1008300082FB0632F317C3EBA2031A4603EB8303D2
:10084000A6EB4303611C303304F150000DEB0004B0
:1008500004F8203C1646EAB10C46E6E7AFF3008008
:100860000000000065CDCD410000000065CDCDC188
:10087000FFFFEF7F486502004C6502003C65020007
:1008800044650200586502000000E03FCDCCCCCCAE
:10089000676666660C46249B03F00303012B1DD09C
:1008A0001F2C09D80B9B002B35D004F150036B444F
:1008B0002D2203F8202C0134249B0393239B0293C5
:1008C00001940CAB00935B4652460A99079820F0BE
:1008D000AEF915B0BDEC028BBDE8F08F239BB3B130
:1008E0000B9B1BB9249B13F00C0F12D0239B013BD5
:1008F0002393194606E004F150036B44302203F8B9
:10090000202C01348C42CBD21F2CF4D9C8E7239978
:10091000F8E72399F6E7249B13F0040F07D004F1BE
:1009200050036B442B2203F8202C0134C4E7249B92
:1009300013F0080FC0D004F150036B44202203F8D9
:10094000202C0134B8E700BF7FB54E6802A90446E9
:1009500021F052FD9DF808300E2B19D1134BB3F93D
:100960000050134B9E4218D807F0B0FE03460068B3
:1009700000909B88ADF804306946204621F029FD9F
:1009800070B10C490C4840F21C620CF0F5FEFEE719
:10099000204614F03FFF0546E3E707F093FEE5E746
:1009A0002946204621F02AFD04B070BD4C4F00209E
:1009B000FFC99A3BA5680200CC65020038B5044621
:1009C0000D461DF0C6FE064A13889BB22DB1234387
:1009D0001380BDE838401DF0C2BE23EA0403F7E7E8
:1009E000BC490020034B002201214FF480709A7013
:1009F000E4E700BFBC4900207FB50023134C0393FC
:100A0000CDE90133FF238DF804301DF0A2FE2288CA
:100A100063880F4E9A4205460DD061887068218028
:100A200001AA14F0E5FC58B10A490B4840F297625C
:100A30000CF0A2FEFEE7706821F08DFB0128ECD0DF
:100A400028461DF08CFE04B070BD00BFC8200020F9
:100A5000BC490020A5680200CC65020038B50F4CE7
:100A6000A56835B90E490F4840F27C720CF084FE3F
:100A7000FEE720F08BFA284410F0F0FA00F00700AF
:100A8000032809D1A4680921204620F09BFB205CA3
:100A9000031F5842584138BD0020FCE7BC490020E4
:100AA000A5680200CC65020010B5114CA378042B98
:100AB00006D01049104840F244520CF05DFEFEE7AB
:100AC00023881B0706D40B490B4840F245520CF013
:100AD00053FEFEE700210820FFF770FF074B606818
:100AE00002221A7114F052FCBDE810401FF0B4BA93
:100AF000BC490020A5680200CC650200C820002087
:100B000010B5084C606814F041FC606821F023FBCC
:100B1000012806D0012260681146BDE8104021F08E
:100B20001CBB10BDBC49002038B5194DAB7833B1A2
:100B3000184919484FF4DC620CF01EFEFEE71DF068
:100B400008FE298811F00601044609D001214FF45E
:100B50008070FFF733FF2046BDE838401DF0FFBD31
:100B60004FF48070FFF72AFF11F0E6FF012805D04F
:100B700010F0FD0F05D1FFF73FFFECE7FFF7C0FFD7
:100B8000E9E70449044840F2F6620CF0F5FDFEE79F
:100B9000BC490020A5680200CC65020070B5074D75
:100BA00095F90C600446FFF7BFFF11F0C5FEAA6877
:100BB00031462046BDE8704011F0FCBCBC49002025
:100BC00008B50A4B1B88DB0606D40949094840F2E0
:100BD00069520CF0D1FDFEE700211020FFF7EEFE78
:100BE00012F026F8BDE808401FF036BABC490020D4
:100BF000A5680200CC6502000D4B1B889B0710B551
:100C0000044613D500210220FFF7D8FE094B5A797C
:100C1000FF2A06D00849094840F29A420CF0ACFD80
:100C2000FEE75C71BDE810401FF016BA10BD00BFB2
:100C3000BC490020C8200020A5680200CC65020045
:100C40007047704710B50E4CA37833B10D490E486C
:100C500040F2C5120CF090FDFEE7A06019B1A17C36
:100C6000003918BF01212020FFF7A8FE074B0848D4
:100C70009B7923770223A370BDE810400FF058B88A
:100C8000BC490020A5680200CC650200C8200020F5
:100C9000DC49002008B50FF04DFE80F00100C0B225
:100CA00008BD0A4B9A780AB1062A0CD11B8803F4B6
:100CB0008B7343B9064B5A79FF2A04D11879FF3850
:100CC00018BF012070470120704700BFBC490020B9
:100CD000C820002008B50FF01DFE0028FBD108BD7C
:100CE0000C4B42881A8242789A740278DA748288AD
:100CF0009A82C288DA82C2689A61074A017A91713F
:100D0000028A198D914204D001214FF400701A8596
:100D100054E67047BC490020C8200020094B1A8ABD
:100D200042809A7C4270DA7C02709A8A8280DA8AE7
:100D3000C2809A69C260044A1B8D92790272038252
:100D4000704700BFBC490020C82000204B1E012B6B
:100D500070B50C4606D91B491B484FF42A720CF09B
:100D60000BFDFEE7194D0A460146686821F05AFC62
:100D700030B11449144840F2AA220CF0FDFCFEE701
:100D80006E680EF049FF22460146304621F044FCD1
:100D900030B10C490C4840F2AE220CF0EDFCFEE7FD
:100DA0006D680EF045FF22460146284621F040FCC2
:100DB00030B10449044840F2B2220CF0DDFCFEE7F9
:100DC00070BD00BFA5680200CC650200BC490020D0
:100DD000054BDB791B0913F00E0003D0052B8CBFEC
:100DE00000200120704700BFC8200020044BDB79A1
:100DF0001B0913F00E0F0CBF01200020704700BF2D
:100E0000C82000202DE9F04F16469A0591B0814682
:100E10001F4603D501218020FFF7D0FDF3014FF0DD
:100E2000000852D59A4C23889D074ED5994D6B7971
:100E3000FF2B06D09849994840F266420CF09CFC82
:100E4000FEE7A36833B99449944840F267420CF036
:100E500093FCFEE741460220FFF7B0FDA37885F83A
:100E60000580042B03D101210820FFF7A7FD8C4A40
:100E70006068002121F0E1FA30B18749874840F2EB
:100E800071420CF079FCFEE7FFF7A2FFA8B9D4F895
:100E9000048020F07BF80546A06820F082F829182D
:100EA0007F4A89B2404621F0D9FA30B17A497B486D
:100EB00040F277420CF060FCFEE7A378032B02D1EE
:100EC000606814F063FA1FF0C7F8B80702D5012074
:100ED000FFF792FE16F0A84F02D00220FFF78CFE1B
:100EE000B10220D50021402005ACFFF767FD214667
:100EF000484621F0C3FBB0B99DF81C30022B0AAA6A
:100F000022D18DF83030BDF81430ADF828301046BD
:100F100011F01AFD38B1484621F0AEFB18B9012195
:100F20004020FFF74BFD320752D5594D05AA68689E
:100F3000032121F042FB804688B95749574840F2C7
:100F4000B3420CF019FCFEE7032B05BFD4E9000106
:100F50008DF830308DF83000C2E90001D7E79DF8F8
:100F600014306868072B40F022810AAA414621F01C
:100F700028FB824630B14849484840F2B6420CF05E
:100F8000FBFBFEE7FFF724FFBDF8161090B9FFF753
:100F90002DFF68B10431686889B20AAA21F013FBF9
:100FA00040B13D493D4840F2C7420CF0E5FBFEE749
:100FB0000231F0E7BDF816000730012180B20FF0D2
:100FC00003FC039000284AD101210C2012F0FAFB07
:100FD000B10705D52E4B1B881A0701D5FFF764FD15
:100FE000B3010AD500210420FFF7E8FC284B9A78CA
:100FF000012A02D1586814F0C9F916F0284F03D01D
:1010000000210420FFF7DAFC7E060CD5204C238853
:101010001D0701D5FFF748FD2388580703D5002198
:101020000420FFF7CBFCF90540F1CF80484621F0C2
:1010300090F8022802D0032840F0C080144C238886
:101040005A0703D500210420FFF7B8FC23889B072B
:1010500040F1BB80012011B0BDE8F04FCCE50FF0AE
:1010600089FA4FF0000BCDF800B0BDF816300246FB
:1010700004464146686821F0C0FABDF81630834244
:1010800010D0054905484FF49B620CF075FBFEE754
:10109000BC490020C8200020A5680200CC650200E1
:1010A000E84900201FF072FF20440FF0D7FF00F046
:1010B0000700022823D1AB78042B89D11FF066FFEB
:1010C000434B20441B7882789A4281D159460820AC
:1010D000FFF774FC1FF05AFF20440FF0BFFF3D4B99
:1010E000C0F3001018719DF836302B73FFF7B6FC73
:1010F00000287FF46DAF686814F048F968E71FF0C6
:1011000045FF20440FF0AAFF830649D51FF03EFF9C
:1011100020440FF0A3FF00F00700032828D001218E
:101120000420FFF74BFC21F072FA2863BDF816305B
:101130009DF83620E254BDF816309DF83720234440
:1011400001209A71BDF816100A9A013121440FF05E
:1011500093FFBDF8163003981C4484F805A00FF0E7
:10116000C7FB1D4B18780EF0E9FE1EF075FF2FE748
:101170000921204620F026F8205C04284FF00101C8
:10118000CED1FFF71BFC21F042FA28632B885806CA
:10119000CCD559464020FFF711FC4FF0010AC5E7B6
:1011A000AB78012BC2D1686814F0F0F8BEE721F0EB
:1011B000FEF96868414621F01DFA09E70749084829
:1011C00040F2B5520CF0D8FAFEE711B0BDE8F08F4E
:1011D000294A0020C82000202C490020A5680200D0
:1011E000CC65020008B50246FFF7F2FD30B1072AD0
:1011F00006D8044B002083F8342008BD7020FCE79B
:101200000220FAE7BC49002008B50246FFF7E0FDDE
:1012100028B1044B93F834301370002008BD7020BF
:10122000FCE700BFBC49002008B5074B014600227F
:10123000586821F0F7F930B1044905484FF4377286
:101240000CF09AFAFEE708BDBC490020A568020030
:10125000CC65020008B5074B01460022586821F012
:10126000DBF930B10449054840F2E2220CF084FA7F
:10127000FEE708BDBC490020A5680200CC6502005D
:1012800008B5074B0146586821F0D8F930B1054937
:1012900005484FF43A720CF06FFAFEE708BD00BF44
:1012A000BC490020A5680200CC65020008B5064BC9
:1012B0009B7833B10549064840F2F2220CF05CFA03
:1012C000FEE7BDE808402FE4BC490020A568020005
:1012D000CC65020008B5044B0146586821F08EF831
:1012E000002818BF8B2008BDBC490020014B58685E
:1012F00014F090BABC490020014B5888704700BFD9
:10130000C82000207FB50123ADF80E3009484FF604
:10131000FE7300930DF10E02002304A9406820F033
:10132000ECFF012894BFBDF810004FF6FF7007B026
:101330005DF804FBBC49002008B5044B0146586821
:1013400020F061FFB0FA80F0400908BDBC490020E0
:1013500038B50B4DAB78012B04460DD8FFF7ECFFE9
:1013600060B1084B5C80AB781BB9FFF7DDFB002058
:1013700038BDFFF741FBFAE73E20F9E78A20F7E79F
:10138000BC490020C8200020024B9B780BB9FFF716
:10139000CBBB7047BC490020014BD874704700BFDD
:1013A000BC49002008B5054B0121586820F0F8FE23
:1013B0000028B8BF033040F3870008BDBC490020B7
:1013C00008B5044B586820F01AFF034BB3FBF0F04C
:1013D00080B208BDBC49002040420F0030B58DB03E
:1013E0002C220446002101A821F090FE0123264D65
:1013F0008DF808304FF002326423CDE903230693C1
:101400000B238DF82C302B8DADF80A30FFF7E0FC64
:10141000A0B140F2F23307934FF47A7305930CB9FD
:10142000FFF76EFB686801A914F0C8FAB8B1174954
:10143000174840F269620CF09FF9FEE7FFF7C0FF22
:101440000C234343902BA3F10A0207930592DCBFC0
:1014500091230793059B8B2BE1D88C23DEE7FFF7C5
:10146000C5FC60B101226868114621F0F5F830B181
:101470000649074840F26C620CF07EF9FEE70CB9B1
:10148000FFF752FB0DB030BDBC490020A56802003B
:10149000CC650200F8B5574C1DF05BF92388D905DF
:1014A000064603D5A37843BBFFF73EFB524D6B794D
:1014B000FF2B13D06B7903F0FF0723BBFF236B7166
:1014C000A378032B0AD100233046A3701DF047F9FF
:1014D0003846FFF763FB1DF03CF90646A378042B62
:1014E00008D12B79FF2B05D02B79022B14D143483F
:1014F0000EF01EFCFF232B7128E000214FF48070BA
:10150000FFF75CFAD2E76B79012B4FF0FF036B71A9
:1015100014BF89278D27D6E72B7913B12B79012B9F
:101520001FD1FFF79BFA2B790022FF212971DBB233
:1015300084F820200546002848D0012B0AD12F48E6
:10154000A37064210EF0FFFBFFF756FA30461DF042
:1015500006F906E03046A2701DF001F93120FFF7D0
:101560001DFB23881A0608D500218020FFF726FAE4
:10157000606820F0B6FF11F03CFB23889B0507D57F
:101580004FF400700021FFF719FA0020FFF726FF43
:101590000FF0C0F9E08628B30EF0ECFF01210546FC
:1015A000002012F00FF9A678012E15D1002684F83C
:1015B0002060A670FFF7B8FA284610F035FFA37830
:1015C000E6867BB9BDE8F84011F0B6B9A0703046A8
:1015D0001DF0C5F82846C2E72EB1284610F024FFBA
:1015E0000023E386F8BDFFF79FFA284610F01CFFA2
:1015F000E686F7E7BC490020C8200020DC4900202F
:101600007FB5794C2388DB0700F1E7800121774D16
:101610000846FFF7D3F905237549A37005F10800C3
:1016200013F086FE606028B972497348F3220CF00B
:10163000A3F8FEE7714820F0CFFD69A3D3E90023AA
:10164000CDE900234FF0FF324FF0FF33606820F008
:1016500052FE4FF48811606814F03AF9014630B137
:101660006449654840F20B120CF086F8FEE7644BC3
:101670001B78012B0ED1634A606814F0B5F86068DE
:1016800014F0CAF9E0B15B495B4840F217120CF064
:1016900073F8FEE75C4E316831B9564956484FF44D
:1016A0008D720CF069F8FEE7564A606814F09CF8F9
:1016B00033689B6823B1DB6913B15B7803B1EB71CD
:1016C000FFF720FE514B68801B78C3EB431203EBFE
:1016D0008203DB0001202385FFF780FE65680EF0A2
:1016E000A7FA00220146284620F0A2FF054630B1A5
:1016F0004049414840F22D120CF03EF8FEE740F21E
:1017000003532382424B04261B78E374A674FFF72D
:1017100057FE00EB80039B00A382FFF751FEC00041
:10172000E08231466068A56120F067FD30B1314943
:1017300031484FF49E720CF01FF8FEE760683246A5
:1017400003A920F000FE042806D02A492A484FF4B5
:10175000A0720CF011F8FEE703A901200FF09AFC2B
:101760000BF004F8606808224FF0FF3120F0CDFD47
:1017700030B12049204840F249120BF0FDFFFEE74E
:1017800014F0B8FA30B11B491B4840F24F120BF06D
:10179000F3FFFEE7FFF71CFB68B11DF0F0F901460F
:1017A000606820F016FE30B11249134840F253121F
:1017B0000BF0E2FFFEE76468FFF7A4FD154B01465E
:1017C00003F10C02204613F021FE30B109490A480A
:1017D0004FF4AD720BF0D0FFFEE704B070BD00BF58
:1017E0000A0020FF42030000BC490020C82000205E
:1017F000E5090000A5680200CC650200690345EC1C
:101800000E4A00204909000014200020CE210020AB
:10181000CD210020D068020008B5044B586820F0A4
:10182000F0FC034BB3FBF0F080B208BDBC490020D4
:1018300040420F002DE9F043864D2B889B0787B06F
:1018400006D48549854840F201720BF095FFFEE70A
:10185000AB78033B012B06D97F49804840F20372E5
:101860000BF08AFFFEE7AA6832B97B497B4840F259
:1018700006720BF081FFFEE7794E2C88F77914F0A1
:10188000200418BF4FF47A744FEA1718FFF7A0FA34
:10189000002872D0B8F1020F0AD0A8F10303022B7E
:1018A00069D96D496D4840F21A720BF065FFFEE789
:1018B000032795F8343008EBC8089844694B03EBCC
:1018C00048031046B3F81C801FF06BFB4FF4FA532B
:1018D00043437822B3FBF8F37733B3FBF2F31F44AF
:1018E000C7EB0717AB78FF00BFB204F5347417FAE3
:1018F00084F4042BA4B203D107F6E8072744BCB252
:10190000D5F808801FF042FB0746A8681FF049FB86
:1019100007441FF061FBBFB23F1A1FF037FB404482
:101920000FF09CFB64238DF80C304F4BD5F80490DE
:10193000CDE90434C0F340141FF05AFBBFB2034694
:1019400041463A46484620F034FE2B887188318063
:1019500013F0200F03AB75D000936868434B224609
:1019600013F02AFD002872D03B493C4840F2D9626E
:101970000BF002FFFEE706279BE7FFF737FA002888
:1019800044D0384B07F00F0708EBC801394403EB8C
:1019900041031046B3F81C901FF003FBB8F1000F91
:1019A0002AD0B8F1010F2AD1400080B24FF00408CC
:1019B000F3191B7E4BB10233034443449BB24FF4F3
:1019C000FA525343B3FBF9F39CB2AB78042B97D193
:1019D0003744FFF7F5FC3B7E053398448146FFF71B
:1019E0001BFF0C2308FB00F003FB09F909EBC009FE
:1019F000A1441FFA89F483E74FF00208D8E716499B
:101A0000164840F23B720BF0B7FEFEE7FFF704FF0B
:101A10000746A8681FF0C5FAAB780930784304EB95
:101A2000C000042B84B27FF46BAFFFF7C9FC0746FC
:101A3000FFF7F2FE602358430C2303FB070020440A
:101A400084B25DE76868224613F0A8FC8AE707B015
:101A5000BDE8F083BC490020A5680200CC65020007
:101A6000C8200020D068020020A10700CC49002037
:101A7000F8B5484C258815F0020506D04649474878
:101A80004FF4B3720BF078FEFEE784F820501CF0A0
:101A900060FE23885A0706460AD520F0B8FD236B5E
:101AA000C01A238D984203D929460420FEF786FFE9
:101AB00030461CF054FEA778022F37D11CF049FEA7
:101AC000238813F00405064607D035480EF030F998
:101AD0003046BDE8F8401CF042BE1CF040FEA06855
:101AE00010F062FF20B1A570BDE8F840FFF756B8CE
:101AF0001CF02FFEA66805461FF048FA30440FF090
:101B0000ADFA10F0200F0CBF032304230121384647
:101B1000A370FEF753FFFFF78DFE28461CF01FFE53
:101B200001210846BDE8F84011F04CBE042F27D132
:101B30001C4B1B79FF2B2CD1237FF3B11CF009FE2A
:101B400023885B07054604D515480EF0F1F82846B2
:101B5000BFE71CF004FE237F013B23771CF0F9FD57
:101B6000012104460220FEF729FFFFF763FE20460D
:101B70001CF0F5FD01210820D4E7A3704020B3E755
:101B8000012F06D160680023A37013F0FFFB312002
:101B9000AAE7F8BDBC490020A5680200CC65020098
:101BA000DC490020C820002038B50121044610205F
:101BB000FEF704FF064B5D68FFF702FC054B00FBD8
:101BC00004F10122284620F0CCFA002038BD00BFE5
:101BD000BC490020C10B000010B50A4C2388DB066D
:101BE00006D40949094840F275320BF0C5FDFEE7FD
:101BF00010200021FEF7E2FE6068BDE8104020F0F2
:101C0000BEBA00BFBC490020A5680200CC65020036
:101C100038B50D4DE88E30B90C490D4840F282328E
:101C20000BF0AAFDFEE70EF0A5FC0446E88E0EF0D0
:101C3000BDFC811F214401200FF02CFA044620F046
:101C4000E6FC001B38BD00BFBC490020A5680200AF
:101C5000CC65020010B5074CA36833B906490748A4
:101C600040F291320BF088FDFEE720F0D0FCE36AF1
:101C7000C01A10BDBC490020A5680200CC65020056
:101C800038B50A4DE88E30B909490A4840F29B320E
:101C90000BF072FDFEE70EF06DFC0446E88E0EF0D0
:101CA00085FC044414F8020C38BD00BFBC49002078
:101CB000A5680200CC65020038B50A4DE88E30B93F
:101CC00009490A4840F2AA320BF056FDFEE70EF031
:101CD00051FC0446E88E0EF069FC044414F9070C2C
:101CE00038BD00BFBC490020A5680200CC650200D9
:101CF00038B50A4DE88E30B909490A4840F2B93280
:101D00000BF03AFDFEE70EF035FC0446E88E0EF0CF
:101D10004DFC044414F9010C38BD00BFBC4900203F
:101D2000A5680200CC650200024B1888C0F3C01001
:101D3000704700BFBC49002030B50F4B05460FCBA4
:101D400085B06C4684E80F000DB12B6800930B4BF7
:101D500021465868002213F073FD044630B108494B
:101D6000084840F2D7320BF007FDFEE7FEF744FECD
:101D7000204605B030BD00BF58690200BC490020B4
:101D8000A5680200CC65020008B5074B01465868FB
:101D900020F0A9FB30B10549054840F2E5320BF0CF
:101DA000EBFCFEE708BD00BFBC490020A5680200AF
:101DB000CC65020008B5064B586820F0ABFB30B18B
:101DC000044905484FF47C720BF0D6FCFEE708BDD1
:101DD000BC490020A5680200CC650200024B01222C
:101DE0005868114620F0B9B9BC4900207047F8B5D1
:101DF000054604200C461FF0ABF803061DD5104E17
:101E0000B778D7B91DB1012D02D00220F8BD012746
:101E10002046FFF791FA0028F7D070683A4621462D
:101E200020F0B4F930B1074907484FF486620BF04F
:101E3000A3FCFEE70623B370E8E77020E6E700BFE7
:101E4000BC490020A5680200CC65020010B5042042
:101E50001FF07EF8030610D5094CA378062B0CD191
:101E6000606820F096F930B10649074840F24942CF
:101E70000BF082FCFEE7A07010BD7020FCE700BFF5
:101E8000BC490020A5680200CC65020008B50349E2
:101E9000034840F261520BF06FFCFEE7A5680200B8
:101EA000CC6502000348044B834202D0034B03B1CC
:101EB00018477047FC210020FC2100200000000092
:101EC0000548064B1B1AD90F01EBA301491002D09C
:101ED000034B03B118477047FC210020FC21002070
:101EE0000000000010B5064C237843B9FFF7DAFF75
:101EF000044B13B10448AFF300800123237010BDDD
:101F0000FC4F002000000000E089020008B5054BEE
:101F10001BB105490548AFF30080BDE80840FFF755
:101F2000CFBF00BF0000000030240020E089020085
:101F3000A3F5803A704700BF174B002B08BF134B27
:101F40009D46FFF7F5FF00218B460F461348144AC4
:101F5000121A21F0DBF80E4B002B00D098470D4BE6
:101F6000002B00D098470020002104000D000D48F0
:101F7000002802D00C48AFF300801AF099FE200030
:101F800029001CF0A1F91AF0DFFC00BF00000800D6
:101F9000000000000000000000200020FC210020C4
:101FA0005C5000200000000000000000BFF34F8FD5
:101FB0000549CA6802F4E062044B1343CB60BFF3E7
:101FC0004F8F00BFFDE700BF00ED00E00400FA0501
:101FD00070B582B004468368C26853F822301E7818
:101FE0001EF0DDF8864222D300230093ADF80430C2
:101FF000204B1B88ADF80230A168E36851F823201C
:102000001278ADF804206268D21A012A21DD01336A
:1020100051F823301B88ADF8003068461EF0B3F845
:102020000446032003F036FAC0B902B070BD05467D
:10203000032003F02FFA0028F7D01CF012FA1CF04E
:1020400011FA2B4632460C490C4800681DF04DFB36
:10205000EBE740F2FF13ADF80030DEE71CF001FAC9
:102060001CF000FA22460649044B18681DF03DFB9F
:10207000DBE700BF3A4F0020A0350200AC2900206A
:10208000D835020010B582B08368C26853F8223098
:102090001C780023019343689B1A012B0FDD01AAD2
:1020A00001211CF008FE01469DF804001EF063F8B3
:1020B00020461EF06CF8044620B902B010BD1EF098
:1020C0005EF8F5E7032003F0E5F90028F5D01CF0F1
:1020D000C8F91CF0C7F922460249034B18681DF0E5
:1020E00004FBEAE7E8350200AC29002010B50346FE
:1020F0008168C26851F82200B0F900001A4C2080B3
:102100005B689B1A012B0FDD013251F8223093F9E5
:102110000010003918BF01211DF0DEFFA0B9032017
:1021200003F0B8F910B910BD0021F5E71CF099F9DA
:102130001CF098F90D4B1C681DF0D2FF02460C49AB
:1021400020461DF0D2FAEEE7012003F0A3F90028A3
:10215000E9D01CF086F91CF085F90649034B186894
:102160001DF0C3FADFE700BF3A4F0020AC29002082
:10217000043602001836020010B584B00023009324
:102180008268C36852F8232012788DF80C20022A46
:1021900010D18268013352F823301B78ADF8043037
:1021A00001A81DF0DCFF0446032003F073F958B9C1
:1021B00004B010BD6A4601211CF07DFD0146009A65
:1021C00001A820F0DCFEEBE71CF04BF91CF04AF90B
:1021D00022460349034B18681DF087FAE8E700BF61
:1021E0007C360200AC2900202DE9F04186B01DF0BC
:1021F00083FF0446894B1B7813F0020F2CD0884EC6
:1022000013F0010F2AD0864F13F0040F28D0DFF807
:102210001082032003F03EF928BB032003F03AF9B3
:1022200058BB032003F036F9002835D1032003F012
:1022300031F900283ED1032003F02CF9002847D1C2
:10224000032003F027F900285ED1032003F022F9D0
:10225000002867D1002471E0724ED1E7714FD3E7B7
:10226000DFF8C081D5E71CF0FCF81CF0FBF86E49E4
:102270006E4B18681DF039FACFE71CF0F2F81CF02D
:10228000F1F86A4B1D6806F049F802460B466849AA
:1022900028461DF02AFAC4E71CF0E3F81CF0E2F827
:1022A000624B1D681DF0FCFE0246624928461DF087
:1022B0001CFABBE71CF0D5F81CF0D4F85B4B1D688A
:1022C0001DF026FF02465C4928461DF00EFAB2E7D3
:1022D0001CF0C7F81CF0C6F8E279A379617920797F
:1022E000E57894F802C094F801E024780594CDF8DC
:1022F00010E0CDF80CC00295019000914F494B4879
:1023000000681DF0F2F99BE71CF0ABF81CF0AAF88E
:10231000464B1C681DF0F4FE0246494920461DF05C
:10232000E4F992E71CF09DF81CF09CF845493F4BFE
:1023300018681DF0DAF98DE70134E4B2072C12D8E1
:10234000032003F0A7F80028F6D01CF08AF81CF050
:1023500089F8364B1D681DF0CFFE025D3A492846CC
:102360001DF0C3F9E8E7032003F094F898B90320BF
:1023700003F090F8C8B9032003F08CF818BB0320D1
:1023800003F088F868BB032003F084F8002836D1F6
:1023900006B0BDE8F0811CF064F81CF063F82B492E
:1023A000224B18681DF0A1F9E1E71CF05AF81CF067
:1023B00059F81E4B1C681DF0A7FE02462449204612
:1023C0001DF093F9D7E71CF04CF81CF04BF8174BB5
:1023D0001C681DF07DFE02461E4920461DF085F951
:1023E000CDE71CF03EF81CF03DF8104B1C681DF0CA
:1023F00077FE0246184920461DF077F9C3E71CF026
:1024000030F81CF02FF8CDF800803B4632461349D7
:10241000064800681DF069F9BAE700BFC221002034
:10242000303602003836020094360200AC29002013
:102430009C360200B8360200D4360200F0360200A4
:1024400014370200303702004437020020640200D3
:102450004C370200683702008037020098370200CC
:1024600010B58368C26853F8223018781DF02CFE2E
:10247000044678B9032003F00DF800B910BD1BF035
:10248000F0FF1BF0EFFF22460A490B4B18681DF0C6
:102490002CF9F3E7012002F0FDFF0028EED01BF03D
:1024A000E0FF1BF0DFFF22460449034B18681DF0D4
:1024B0001CF9E3E7D0370200AC290020F437020012
:1024C00070B582B08368C26853F822301B78134A13
:1024D000137013F0020F0ED0114C13F0010F0CD03B
:1024E0000F4D13F0040F0AD00D4E032002F0D2FF5F
:1024F00038B902B070BD0B4CEFE70A4DF1E7094E59
:10250000F3E71BF0AEFF1BF0ADFF00962B46224613
:102510000549064800681DF0E8F8EAE7C2210020F6
:10252000303602003836020044360200AC29002062
:1025300070B58268C36852F823100C78013352F8E2
:1025400023301D78294620461DF011FE80B9032056
:1025500002F0A0FF00B970BD1BF083FF1BF082FFEB
:102560002B4622460B490C4800681DF0BEF8F2E7E6
:102570000646012002F08EFF0028ECD01BF071FF10
:102580001BF070FF32460549034B18681DF0ADF88B
:10259000E1E700BF24380200AC29002054380200D3
:1025A00008B51DF089FD032002F074FF00B908BDD5
:1025B0001BF057FF1BF056FF0249034B18681DF034
:1025C00094F8F4E784380200AC29002030B583B0D9
:1025D0008368C26853F822301C7801A920461DF098
:1025E0006FFD88B9032002F055FF08B903B030BD74
:1025F0001BF037FF1BF036FF019B22460B490C48AE
:1026000000681DF072F8F1E70546012002F042FF74
:102610000028EBD01BF025FF1BF024FF2A460549BC
:10262000034B18681DF061F8E0E700BFA438020012
:10263000AC290020C038020010B58368C26853F886
:1026400022301C78631EDBB2032B03D8204601F036
:10265000BFFF10BD012002F01DFF0028F9D01BF0C4
:1026600000FF1BF0FFFE04232246034903480068D5
:102670001DF03BF8EDE700BFE4380200AC29002074
:1026800030B595B004460D4668461BF0A1FD0DF12E
:102690002C0EEC46BCE80F00AEE80F00BCE80F00C3
:1026A000AEE80F00DCF80030CEF800300BA9494B43
:1026B00018681DF0C0FF10F1880F4BD168461BF061
:1026C00087FD0DF12C0EEC46BCE80F00AEE80F00C4
:1026D000BCE80F00AEE80F00DCF80030CEF80030A8
:1026E0004FF410510BA81BF093FD8023ADF82E3052
:1026F0004FF440730A930AA81BF07BFD0A9B0E93CC
:10270000354B0F93334B1A680C9B0D9213F0FF0F50
:1027100004D123F0FF0343F001030C9301230C9336
:102720002C4B2A4621460BA81DF0A8FF044610BBDF
:10273000032002F0AFFE90B9264B18681DF0B8FCDC
:102740000546002831D1032002F0A4FE044610BB48
:1027500001242FE01F4B18681DF055FFAEE71BF05A
:1027600080FE1BF07FFE1B4B1A681C491C4B18682F
:102770001CF0BBFFE0E7032002F08CFE0028DBD05A
:102780001BF06FFE1BF06EFE22461649144B1868B4
:102790001CF0ABFFD0E71BF064FE1BF063FE124998
:1027A0000F4B18681CF0A1FF04E0032002F072FE3A
:1027B000044610B9204615B030BD1BF052FE1BF088
:1027C00051FE2A460949064B18681CF08EFF00246A
:1027D000F0E700BF48240020004440041C390200F8
:1027E000AC2900204C3902007039020090390200F7
:1027F00000B583B00021019101AA1CF05CFA019997
:1028000010290ED0032002F045FE60B11BF029FE16
:102810001BF028FE10220549054B18681CF065FFC7
:1028200001E0FFF72DFF03B05DF804FBB0390200B3
:10283000AC29002010B582B000240094ADF804400B
:102840001DF0ADFCC0B2ADF804004FF6FF73ADF85B
:102850000030ADF8024068461DF095FCB0B9032089
:1028600002F018FE20B9FF201DF091FC02B010BD4F
:102870001BF0F7FD1BF0F6FDBDF80030BDF804209D
:102880000B490C4800681CF030FFECE704460120BF
:1028900002F000FE0028E9D01BF0E3FD1BF0E2FD92
:1028A00022460549034B18681CF01FFFDEE700BFF6
:1028B000D8390200AC290020003A020010B582B0DD
:1028C0006946002003F028F860B9032002F0E2FD19
:1028D000C8B9184B00221A70032002F0DBFDF0B9D2
:1028E00002B010BD0446012002F0D4FD0028F7D04C
:1028F0001BF0B7FD1BF0B6FD22460F490F4B1868C1
:102900001CF0F3FEECE71BF0ACFD1BF0ABFD019BF4
:10291000009A0B49094800681CF0E7FED9E71BF054
:10292000A0FD1BF09FFD0749044B18681CF0DDFE5D
:10293000D6E700BFFE4F0020243A0200AC29002059
:10294000483A0200783A020030B585B001212648A5
:1029500003F0FEFE0121254803F0FAFE01230B22BD
:102960000A21022005F090F901230B2211460220D2
:1029700005F08AF91E4C4FF46163A3640325656476
:102980001C4BEC460FCB8CE80F0000238DF8003079
:102990006146204605F00AFAE2236361FE23A36143
:1029A000154BE363236C43F4833343F02403236424
:1029B000124B4FF40032C3F880211A6001212046E7
:1029C0001BF0C9FF284602F065FD08B905B030BD0F
:1029D0001BF047FD1BF046FD71220949094B1868A1
:1029E0001CF083FEF2E700BF00350A0000820400FD
:1029F00000C00040DC3C0200FFFF070000E100E0F7
:102A0000C03A0200AC29002010B594B00AF010FAC8
:102A1000032002F03FFD002843D102F025FF0446C9
:102A2000002848D102F04EFA01248F4B1C600BA8FD
:102A30001BF003FC0BA920461DF0FDFD10F1880FD3
:102A400049D00BA81DF085FE032002F023FD0028CD
:102A500040F0B380844B18681DF02AFB1DF083FB07
:102A60000446032002F016FD002840F0B080932CAD
:102A700000F0B880002C40F0B880032002F00AFD7E
:102A8000002800F0B8801BF0ECFC1BF0EBFC774B4F
:102A90001C681DF035FB0246754920461CF025FEDA
:102AA000A9E01BF0DEFC1BF0DDFC72496F4B1868DF
:102AB0001CF01BFEB1E7012002F0ECFC0028B1D0B5
:102AC0001BF0CFFC1BF0CEFC22466B49674B18680D
:102AD0001CF00BFEA6E7032002F0DCFC002851D11D
:102AE0000BA81DF036FE68461BF0A7FB0DF12C0C61
:102AF000EE46BEE80F00ACE80F00BEE80F00ACE801
:102B00000F00DEF80030CCF80030574B1A680C9BF1
:102B10000D9213F0FF0F04D123F0FF0343F00103E4
:102B20000C93564B0F934FF440730A930AA81BF073
:102B300095FB0A9B0E934FF410510BA81BF09DFBC5
:102B40008023ADF82E3001230C93474B10224C49C3
:102B50000BA81DF093FD04460BA81DF0FAFDDCB98F
:102B6000032002F097FC00283FF474AF1BF079FCBF
:102B70001BF078FC3C4B1A6842493C4B18681CF02F
:102B8000B4FD67E71BF06DFC1BF06CFC3E49374B56
:102B900018681CF0AAFDA3E7012002F07BFC0028C6
:102BA0003FF458AF1BF05DFC1BF05CFC224637493C
:102BB0002E4B18681CF099FD4CE71BF052FC1BF0E3
:102BC00051FC3349294B18681CF08FFD42E71BF07C
:102BD00048FC1BF047FC22462E49244B18681CF089
:102BE00084FD44E7FFF726FE05E0012002F052FCD9
:102BF000D0B9FFF71FFE0023274A1370274A13603E
:102C0000274A1360274B4FF6FF721A80FFF756FED4
:102C1000FFF79AFE032002F03DFC80B9032002F08A
:102C200039FCB0B914B010BD1BF01BFC1BF01AFC32
:102C300022461D490D4B18681CF057FDD9E71BF0C3
:102C400010FC1BF00FFC1949084B18681CF04DFDD7
:102C5000E4E71BF006FC1BF005FC1549034B186864
:102C60001CF043FDDEE700BF48240020AC29002013
:102C70001C3C0200043B02003C3B020000444004B8
:102C8000002000209C3B0200743B0200C03B02007D
:102C9000E03B0200003C0200FE4F002050240020D8
:102CA0004C24002088210020443C0200783C020093
:102CB000903C0200394B596B11F4C06F0DD110B428
:102CC00083B011F0040F14D0344BDA69344A002079
:102CD00010800422DA635A600BE020225A60D96324
:102CE0002F4B00221A8070472C4BDB692B4B0422A0
:102CF0005A602A4BDB6813F4807F10D0284B1B8866
:102D00009BB2872BF0D8254BDA69254C23889BB2E0
:102D1000581C80B22080D2B22248C254E6E711F497
:102D2000803F30D000230193019B632B0ADC1B4BB7
:102D3000DB6813F4807F05D1019B01330193F3E736
:102D4000164BDB69154BDB6813F4807F10D0144BF6
:102D50001B889BB2872BF3D8104BDA69104C238861
:102D60009BB2581C80B22080D2B20E48C254E9E710
:102D70000A4B4FF48032DA63094B1B889BB213B1C4
:102D8000094B01221A7021F4803121F00401034B18
:102D9000D96303B05DF8044B704700BF00C000402A
:102DA0003C4F002054240020FD4F0020BFF34F8FE4
:102DB0000549CA6802F4E062044B1343CB60BFF3D9
:102DC0004F8F00BFFDE700BF00ED00E00400FA05F3
:102DD000002301E00133DBB2032B10D81946094A66
:102DE00002EBC3021279002AF4D0064A12F833200B
:102DF0008242EFD1034B03EBC103588870474FF673
:102E0000FF707047AC250020014B01221A707047FB
:102E1000095000200023184601E00133DBB2032BE8
:102E200010D8094A02EBC3021279002AF5D0064AEB
:102E300002EBC30251884FF6FF729142EDD0013090
:102E4000C0B2EAE7704700BFAC25002000B583B0F0
:102E5000032002F01FFB10B903B05DF804FB1BF068
:102E600000FB1BF0FFFA084B1A78084B1B78019304
:102E7000074B1B680093074B1B680749074800680E
:102E80001CF033FCE8E700BFFE4F0020C12100200A
:102E9000502400204C240020EC3C0200AC290020EF
:102EA00010B582B00023019306E0002108326A4485
:102EB00002F8041C0133DBB2032B0AD81A4613496B
:102EC00001EBC30109790029EFD0104911F8331043
:102ED000ECE704230DEB030202210D48006811F01A
:102EE0008FFE044608B902B010BD012002F0D2FAEC
:102EF0000028F8D01BF0B5FA1BF0B4FA22460549B9
:102F0000054B18681CF0F1FBEDE700BFAC25002075
:102F100080200020203D0200AC29002070B582B046
:102F20000446431EDBB2032B03D80D464FF0000CC2
:102F300034E0012002F0AEFA002800F087801BF098
:102F400090FA1BF08FFA22464649474B18681CF04E
:102F5000CCFB7BE01BF085FA1BF084FA434B03EBC0
:102F6000C60300955B88224641493F4800681CF033
:102F7000BCFB2CE0032002F08DFA70B31BF071FA59
:102F80001BF070FA2B4622463A49374800681CF07D
:102F9000ACFB22E00CF1010C5FFA8CFCBCF1030FDE
:102FA00021D86646314B03EBCC0E9EF80430002B43
:102FB000F0D02E4B13F83C30A342EBD1BEF80230D8
:102FC000AB42D7D0032002F065FA0028C2D1274BCC
:102FD00003EBC6035D80FFF763FF244B03EBC603DF
:102FE00001225A7132E04FF0000C10E01BF039FA68
:102FF0001BF038FA00962B4622461F491A480068F3
:103000001CF073FB1BE00CF1010C5FFA8CFCBCF1B3
:10301000030F17D86646154B03EBCC031B79002B27
:10302000F1D1124B03F83C4003EBCC035D8001224D
:103030001A715A71032002F02DFA0028D6D1FFF739
:103040002FFF03E0012002F025FA08B902B070BD9D
:103050001BF007FA1BF006FA0849034B18681CF02E
:1030600044FBF3E7483D0200AC290020AC250020DA
:10307000703D0200983D0200C43D0200F43D020094
:1030800030B585B00446F0238DF80830184B1B7816
:103090008DF80930174B1B688DF80A30C3F30722EF
:1030A0008DF80B20C3F307428DF80C201B0E8DF812
:1030B0000D30114B1B78019302AB009306230022C5
:1030C00002211DF03DF808B905B030BD05460120CC
:1030D00002F0E0F90028F7D01BF0C3F91BF0C2F9A9
:1030E0002B4622460549064800681CF0FEFAEBE72D
:1030F000C021002050240020C2210020143E0200E4
:10310000AC2900200023032B70D830B585B029E00E
:103110001BF0A7F91BF0A6F9364A02EBC4035B8843
:1031200012F834203449354800681CF0DEFA50E0CB
:10313000012002F0AFF918B9314B00221A704FE0AC
:103140001BF08FF91BF08EF92B462A4A12F8342017
:103150002C492A4800681CF0C8FAEDE70133DBB2BD
:10316000032B3FD8284A14781C4404F00304214A56
:1031700002EBC4021279002AF0D01E4A02EBC4020C
:1031800050884FF6FF729042E8D0631C03F00303AF
:103190001D4A1370174B03EBC40100224A7113F848
:1031A00034301A490B70B0218DF80C108DF80D30A9
:1031B000174B1B78019303AB0093022319461CF0B5
:1031C000BFFF05460028B3D1032002F063F90028B1
:1031D0009ED10B4B01221A701CF08AFD0D4B18601A
:1031E00005B030BD064B00221A70F9E7044B0022EF
:1031F0001A707047AC250020403E0200AC29002028
:1032000001500020603E02000450002002500020C7
:10321000C2210020A025002000B583B0032002F0C9
:1032200039F9A0B90023144A1360144A1370144AE0
:103230001370144B1888FFF723FF1CF059FD124B35
:103240001860124B04221A7003B05DF804FB1BF0E7
:1032500008F91BF007F90E4B1B6801930D4B1B7807
:1032600000930D4B1B78074A12880C490C480068E4
:103270001CF03BFAD6E700BFA82500200A5000202A
:103280000650002088210020F4250020FE4F002059
:1032900050240020C0210020C1210020843E0200D3
:1032A000AC29002000B583B00023154A1370154ADD
:1032B0001370154A1370FFF7ADFD38B1134B01229F
:1032C0001A70FFF71FFF03B05DF804FB032002F044
:1032D000E1F848B90023019300930D4A41F2883187
:1032E0000C481AF0D5FFEEE71BF0BBF81BF0BAF85C
:1032F00041F288320849094B18681CF0F6F9E9E7F1
:1033000004500020035000200150002000500020F5
:10331000A532000080250020B83E0200AC29002024
:1033200030B583B0284B1B78DBB9284B1C780134AF
:10333000E4B21C70FFF76EFD054608B184423FD32E
:10334000032002F0A7F858BB0023214A1370019311
:103350000093204A41F288311F481AF099FF03B0C8
:1033600030BD1CF0C5FC1D4B1B68C01A07F0CEFF1A
:1033700040F2DB539842F2D9032002F08BF818B9DF
:10338000114B00221A70D0E71BF06BF81BF06AF8A3
:10339000134B1A781349144B18681CF0A6F9EFE781
:1033A0001BF05FF81BF05EF841F2883300932B4668
:1033B000064A12780D490C4800681CF096F9C3E7DC
:1033C000FFF7A0FECBE700BF015000200350002014
:1033D00000500020A532000080250020A0250020FC
:1033E00002500020E83E0200AC290020043F020009
:1033F00030B583B00023019304230DEB03020221B7
:103400003348006811F046FC08B9002423E003208B
:1034100002F040F808B903B030BD1BF022F81BF0F1
:1034200021F82C492C4B18681CF05FF9F3E70133A5
:10343000DBB2032B0BD8294A02EBC3021279002A14
:10344000F5D0264911F83310A942F0D100E000224E
:10345000AAB10134E4B2032CDDD804F108036B44B3
:1034600013F8045C6B1EDBB2032BF2D82846FFF77F
:10347000AFFC4FF6FF739842EBD10023D9E700234E
:10348000032BE6D8154A02EBC302127912B10133BD
:10349000DBB2F5E7114A02F8335002EBC3034FF6F3
:1034A000FF725A8001221A7100225A719A71032008
:1034B00001F0F0FF0028CCD01AF0D3FF1AF0D2FFB1
:1034C0002A460749044B18681CF00FF9C1E700BFF2
:1034D00080200020383F0200AC290020AC250020CD
:1034E000703F0200F0B585B00D46032940F282809E
:1034F0004678837846EA0326C778041D3B1D8B4235
:1035000000F288807B1E13F0800F40F09480994B6E
:103510001B78DBB2012B15D0974B1B68002B00F0FA
:103520009A800023954A1360954A1380954BAA22EE
:103530001A70904B01221A70032001F0ABFF002893
:1035400040F094804FF6FF739E4204D08C4B1B8852
:10355000B34240F09580884B1A682AB1874B1B68AC
:103560003B449A42C0F09F803B462246834909680B
:10357000002002F00DFA0546002840F0AC803B46E2
:10358000814A7E490968002002F0E4F938B93A46D8
:1035900021467D481FF090FD002840F0B280774A18
:1035A00013683B44136076490A8801320A804FF65B
:1035B000FF72964200F0B980744BA3FB06231B09EF
:1035C000322202FB13639BB2002B40F08B8003205E
:1035D00001F060FF002800F085801AF042FF1AF029
:1035E00041FF664B1B68324669496A4800681CF017
:1035F0007CF877E0012001F04DFF002872D01AF02E
:1036000030FF1AF02FFF2A466349624B18681CF0FE
:103610006CF867E0012001F03DFF002862D01AF04D
:1036200020FF1AF01FFF2B1F3A465C4959480068DB
:103630001CF05BF856E0012001F02CFF002851D06F
:103640001AF00FFF1AF00EFF3A465549514B186811
:103650001CF04BF846E002A9002002F05DF90028BA
:103660007FF45FAF039A444B1A605AE71AF0F9FEF1
:103670001AF0F8FE4B49474B18681CF036F861E722
:10368000022001F007FF00283FF465AF1AF0E9FEC1
:103690001AF0E8FE3A4B1B88324643493D48006821
:1036A0001CF023F857E7012001F0F4FE18B9314B64
:1036B00008221A7016E01AF0D4FE1AF0D3FE2E4B30
:1036C0001B6800933B462D4A126838493148006810
:1036D0001CF00BF8EBE7012001F0DCFE20B9254BD4
:1036E00008221A7005B0F0BD1AF0BBFE1AF0BAFE3F
:1036F0002B46224A12682E49264800681BF0F5FF27
:10370000EDE7012001F0C6FE18B91A4B08221A7025
:10371000E8E71AF0A6FE1AF0A5FE184B1A6825492C
:103720001C4B18681BF0E1FFEFE7234A1360114BB5
:1037300002221A70032001F0ADFE78B9032001F0D7
:10374000A9FE0028CED01AF08CFE1AF08BFE0422BF
:103750001A49104B18681BF0C8FFC3E71AF081FE26
:103760001AF080FE144B1A6815490A4B18681BF0B2
:10377000BCFFE3E7FE4F0020A42500204C240020DE
:103780003E4F0020C0210020DC2400201F85EB518B
:1037900060410200AC290020B03F0200CC3F020093
:1037A000FC3F02001840020044400200704002004A
:1037B00098400200BC400200502400201841020042
:1037C000E440020030B583B0012924D94478694629
:1037D000204602F0A1F800282DD114B9019A364BE9
:1037E0001A60032001F056FE002839D1204602F06D
:1037F000EDF8054600283ED1032001F04BFE0028DD
:103800004ED1002C3ED100232C4A13602C4A138049
:103810002C4A137036E00C46012001F03BFE88B3C1
:103820001AF01FFE1AF01EFE22462749274B186881
:103830001BF05BFF26E0022001F02CFE28B9002CD3
:10384000CFD11D4B00221A60CBE71AF00AFE1AF006
:1038500009FE22461E491D4B18681BF046FFEEE785
:103860001AF0FFFD1AF0FEFD22461A49174B1868A0
:103870001BF03BFFBAE7012001F00CFE20B9114B11
:1038800008221A7003B030BD1AF0EBFD1AF0EAFD01
:103890002B46224610490D4800681BF026FFEEE734
:1038A0001AF0DFFD1AF0DEFD22460C49074B1868BE
:1038B0001BF01BFFA5E700BFA42500204C2400201F
:1038C0003E4F0020FE4F00207C410200AC2900202A
:1038D0009C410200D8410200F84102001842020057
:1038E00038B5012922D94478614B1B78DBB2022B11
:1038F0002BD1002C3AD0631EDBB2032B00F289805F
:103900002046FFF765FA05464FF6FF73984200F030
:103910009180584B1C70584B1880032001F0BAFD61
:10392000002840F09880FFF777FC38BD012001F0B7
:10393000B1FD0028F9D01AF094FD1AF093FD4F491B
:103940004F4B18681BF0D1FEEFE7012001F0A2FDFC
:103950000028EAD01AF085FD1AF084FD444B1A784D
:103960004849474B18681BF0C0FEDEE7032001F012
:1039700091FD80B90021084602F0A0F8A8B9002006
:1039800002F042F868B3012001F084FDF8B9384B29
:1039900002221A70C9E71AF064FD1AF063FD3A4971
:1039A000374B18681BF0A1FEE4E7012001F072FD1F
:1039B00018B92F4B02221A70B7E71AF052FD1AF00D
:1039C00051FD32492E4B18681BF08FFEF1E71AF0BB
:1039D00048FD1AF047FD2E49294B18681BF085FE5B
:1039E000D5E701F045FB032001F054FD38B9294B20
:1039F0001B6913F0200FFAD001F060FF95E71AF071
:103A000030FD1AF02FFD24491D4B18681BF06DFE88
:103A1000EDE7012001F03EFD002886D01AF021FDDF
:103A20001AF020FD042322461C49154800681BF0AB
:103A30005CFE7AE7012001F02DFD00283FF475AF10
:103A40001AF00FFD1AF00EFD224615490C4B1868AE
:103A50001BF04BFE69E71AF004FD1AF003FD2B463C
:103A600022461049064800681BF03FFE5BE700BF96
:103A7000FE4F0020C1210020882100202C4202009E
:103A8000AC2900205842020090420200B8420200D5
:103A9000F8420200000001402043020050430200AF
:103AA00080430200B443020030B5A3B01D4B1C8814
:103AB000A4B2882C00D9882422461B4968461FF0EE
:103AC0005EFA64B19DF80050042D19D8DFE805F0C6
:103AD0000703090E130021466846FFF7B7F923B024
:103AE00030BD21466846FFF7FDFCF8E721466846F1
:103AF000FFF768FEF3E721466846FFF7F1FEEEE7C1
:103B0000012001F0C7FC0028E9D01AF0AAFC1AF045
:103B1000A9FC23462A460549054800681BF0E5FD37
:103B2000DDE700BF3C4F002054240020FC4302008E
:103B3000AC29002010B59A4B1B78043B042B00F2F3
:103B40002381DFE813F005009200B300EF001501B8
:103B5000944B1B78002B40D0032001F09BFCA8B9AC
:103B6000914B1A78914B1968914B188808F0F6FB25
:103B70000446F8B9032001F08DFC88B91CF0B8F8B0
:103B80008C4B1860864B05221A70FDE01AF069FC18
:103B90001AF068FC8849894B18681BF0A6FDDFE71E
:103BA0001AF05FFC1AF05EFC8549844B18681BF024
:103BB0009CFDE3E7012001F06DFC18B9784B082269
:103BC0001A70E1E01AF04DFC1AF04CFC22467D49D7
:103BD0007A4B18681BF089FDF0E71CF089F8754BEB
:103BE0001B68C01A07F092FB42F21073984240F231
:103BF000CB80754A13780133DBB21370032B1AD9CB
:103C0000012001F047FC50B9704BFF221A70684B3D
:103C10004FF6FF721A80624B02221A70B4E01AF05B
:103C200020FC1AF01FFC684B1A786949634B18682E
:103C30001BF05BFDE8E7012001F02CFC40B95C4B78
:103C40001888FFF71DFA1CF053F85A4B18609BE0D8
:103C50001AF007FC1AF006FC03235B4A12785D4950
:103C6000564800681BF041FDE9E71CF041F8514B54
:103C70001B68C01A07F04AFB0446574B984240F2B3
:103C80008380012001F006FC28B908F0D9FB444BE1
:103C900008221A7078E01AF0E4FB1AF0E3FB2246DF
:103CA0004E49464B18681BF020FDEEE74C4B1B7845
:103CB000002B69D04A4B00221A70032001F0EAFB66
:103CC00088B93B4B1A88384B19784FF4FA6008F0E2
:103CD00081FB044698B91CF00BF8364B1860304B4A
:103CE00007221A7050E01AF0BCFB1AF0BBFB4FF42D
:103CF000FA623C49314B18681BF0F7FCE1E7012000
:103D000001F0C8FB18B9264B08221A703CE01AF0E3
:103D1000A8FB1AF0A7FB22463349284B18681BF072
:103D2000E4FCF0E71BF0E4FF224B1B68C01A07F02D
:103D3000EDFA044647F23053984225D9012001F0AC
:103D4000A9FB50B9214BFF221A70194B4FF6FF7295
:103D50001A80134B02221A7016E01AF082FB1AF036
:103D600081FB22462149154B18681BF0BEFCE9E790
:103D7000012001F08FFB40B9144BFF221A70002381
:103D80001B4A1380064A137010BD1AF06AFB1AF022
:103D900069FB1849094B18681BF0A7FCECE700BF4A
:103DA000FE4F00200A500020C02100205024002097
:103DB00088210020F425002020440200AC290020A6
:103DC000504402007044020006500020C12100202F
:103DD00090440200D044020020BF0200FC440200D4
:103DE0000950002028450200544502007845020091
:103DF0003E4F0020B04502000279531EDBB2012B7A
:103E000000F225812DE9F04184B00446C3884BB30C
:103E100080680178A02917D0B1296FD0F12900F06E
:103E20009E80012A1ED18A4B1B7813F0010F03D00C
:103E3000237813F0010F15D0032001F02BFB00288D
:103E400040F0A0800025A9E0012B0ED961884078C0
:103E5000FFF764F8E388092B17D87E4B1B6913F032
:103E6000200FFAD004B0BDE8F081012001F012FB70
:103E70000028F7D01AF0F5FA1AF0F4FA62887649B9
:103E8000764B18681BF031FCECE7032001F002FBD5
:103E900008B9022510E01AF0E4FA1AF0E3FAA36870
:103EA0005A786F496D4B18681BF01FFCF1E76D4B9A
:103EB0006D491BF01AFC0135092D10DC032001F0BF
:103EC000E9FA0028F7D01AF0CCFA1AF0CBFA634BD3
:103ED0001868A3685A5D082DE9DC644BE8E7032005
:103EE00001F0D8FA0028B8D01AF0BBFA1AF0BAFAE2
:103EF0005F495A4B18681BF0F8FBAEE7022BB1D9AB
:103F000045788678002301E00133DBB2032B11D81A
:103F10001946584A02EBC3021279002AF4D0554AD6
:103F200012F83320AA42EFD1524B03EBC103012216
:103F30005A719E71032001F0ADFA18B94E4B002260
:103F40001A708FE71AF08DFA1AF08CFA00966388CF
:103F50002A464A49414800681BF0C7FBEEE70320A8
:103F600001F098FA18B9464B01221A707AE71AF054
:103F700078FA1AF077FA62884249384B18681BF0D1
:103F8000B4FBF0E71AF06DFA1AF06CFA62883E4959
:103F9000324B18681BF0A9FB54E70135E388AB42AC
:103FA00010DD032001F076FA0028F6D01AF059FA55
:103FB0001AF058FAA3685A5D3449284B18681BF068
:103FC00094FBEAE7A16801200DF064F80546A168BA
:103FD000043101200DF05EF8002D34DB002685EA67
:103FE000E572A2EBE5722A4B83FB0241D417C4EBC6
:103FF000A1144FF47A7101FB142483FB0572ED17B1
:10400000C5EBA215002DB8BF6D42A3FB00234FEAFC
:10401000931801FB18089F09032001F03BFA0028C0
:104020003FF420AF1AF01DFA1AF01CFA0B4B186877
:104030005EB1184ACDF80880019700942B461649C6
:104040001BF053FB0EE70126C9E7144AF2E770475D
:10405000C221002000000140D8450200AC29002008
:10406000FC4502007461020028460200CC450200B3
:1040700034460200AC2500200150002038460200E2
:104080000A5000206C4602008C460200A446020042
:10409000D34D6210D0450200AC460200D445020068
:1040A00000B9704710B50446032001F0F3F900B9D8
:1040B00010BD1AF0D6F91AF0D5F922460249034B81
:1040C00018681BF012FBF3E7D4460200AC2900206D
:1040D00030B583B0902811D00446912835D0032004
:1040E00001F0D8F908B31AF0BCF91AF0BBF922466E
:1040F0002049214B18681BF0F8FA16E0032001F064
:10410000C9F9A0B9FF201CF042F800241B4B1C7019
:104110001B4D284606F0AAFF019400942346194A35
:1041200040F6B83128461AF0B3F803B030BD1AF0A3
:1041300098F91AF097F9104B1C681BF0E1FF024642
:10414000114920461BF0D1FADCE7032001F0A2F967
:1041500030B90A4B00221A70094806F087FFE4E7DD
:104160001AF07FF91AF07EF90849034B18681BF022
:10417000BCFAEEE714470200AC29002000500020F2
:1041800080250020A5320000E84602000447020016
:1041900038B505460C46032001F07CF900B938BD5E
:1041A0001AF05FF91AF05EF92B46224602490348DD
:1041B00000681BF09AFAF2E72C470200AC290020B5
:1041C00010B582B000F0F8FF574B1B78002B50D091
:1041D000564B1B78002B5BD0554B1B78A3B91BF0BB
:1041E00087FD04461BF060FF00285FD0514B1B6821
:1041F0000BB9504B1C604F4B1868201A07F086F81B
:1042000043F6972398424BD81BF04EFF002871D0FD
:1042100049481AF009FA1BF06BFD04461BF044FFF5
:1042200098B1464B1B7843B1454B1868201A07F0EC
:104230006DF847F23053984207D9FF201BF0A7FFD3
:104240003F4B1C603D4B01221A703E4B1B78002BEC
:1042500054D13D4B1B78002B58D03B4B1B78DBB225
:10426000032B5CD0384B1B78DBB2022B4CD00123E4
:104270004DE02D4B01221A70FFF7BAF8002301938D
:104280000093324A4FF4FA6131481BF03DFD9FE73D
:104290001BF02EFD2F4B1860244B01221A709BE758
:1042A00000F016FF224B01221A70ADE7214B0022CD
:1042B0001A6000F079FF0028A6D0264B1868201A53
:1042C00007F024F8244B98429ED9012001F0E2F82F
:1042D00030B9224B1B6913F0200FFAD0FEF766FDB0
:1042E0001AF0BFF81AF0BEF81D491E4B18681BF0F3
:1042F000FCF9EEE710481AF09CF98CE7114B00220C
:104300001A70FFF7D1FBA4E7002300E00023164A50
:10431000127802B12BB1FFF70DFC02B010BD0023E3
:10432000F5E7FEF7FDFFF6E70550002007500020F7
:1043300008500020CC250020DC5D0200FF4F00204B
:104340005C250020FD4F0020FE4F00208FE2010081
:1043500060250020D02500201FBF02000000014082
:104360006C470200AC2900200050002070B582B0DC
:1043700004460D461A460B1A01330146002001F08F
:10438000E9FAB0B9214B1C68002C3CD06E1C6422A9
:1043900005FB0222B2FBF4F41D4AA2FB04311D4BC3
:1043A0001B68A2FB0323DB08B3EBD10F14D301205E
:1043B0002AE00646012001F06DF808B9002023E04C
:1043C0001AF04FF81AF04EF83346224612491348B5
:1043D00000681BF08AF9F1E7032001F05BF818B9D7
:1043E0000C4B1C6001200FE01AF03BF81AF03AF871
:1043F000064B1B680093334622460949074800686C
:104400001BF073F9ECE7012002B070BD50240020CE
:10441000CDCCCCCCA8250020AC470200AC29002094
:10442000D847020010B582B0E8B9032001F032F895
:1044300078B90023164A137001930093154A4FF47C
:10444000FA71154819F024FF144B06221A7002B0B5
:1044500010BD1AF006F81AF005F81149114B18684A
:104460001BF043F9E5E70446012001F013F818B901
:104470000A4B08221A70EAE719F0F3FF19F0F2FF6D
:1044800022460949074B18681BF02FF9F0E700BFD7
:1044900009500020092E0000D4250020FE4F0020E6
:1044A000F8470200AC2900203848020010B550BB84
:1044B000032000F0EFFF70B9032000F0EBFFC0B95C
:1044C000194BFF221A70194B4FF6FF721A80184BC6
:1044D00002221A7010BD19F0C4FF19F0C3FF124B6D
:1044E0001B78124A12881349134800681BF0FDF824
:1044F000E2E719F0B6FF19F0B5FF10490E4B186846
:104500001BF0F3F8DCE70446012000F0C3FF0028AD
:10451000D6D019F0A6FF19F0A5FF22460849064B90
:1045200018681BF0E2F8CBE7C121002088210020A9
:10453000FE4F002064480200AC2900209848020089
:10454000CC48020010B580B10446012000F0A2FF63
:1045500000B910BD19F085FF19F084FF22460A4901
:104560000A4B18681BF0C1F8F3E7032000F092FF34
:104570000028EED019F075FF19F074FF0449034BC1
:1045800018681BF0B2F8E4E7FC480200AC290020F0
:104590001C490200F0B583B004460D4616461F467E
:1045A000032000F077FF08B903B0F0BD19F059FF00
:1045B00019F058FF019700962B46224602490348FE
:1045C00000681BF092F8EFE734490200AC290020A4
:1045D00038B50546FEF7FCFB4FF6FF7398420ED048
:1045E0000446294B1D70032000F054FF30BB03200C
:1045F00000F050FF044668BB0124204638BD01206E
:1046000000F048FF28B9032000F044FF60B90024FF
:10461000F3E719F026FF19F025FF2A461B491C4B2A
:1046200018681BF062F8EEE719F01BFF19F01AFF8B
:104630001849174B18681BF058F8E8E719F011FFF4
:1046400019F010FF23462A461349114800681BF051
:104650004CF8CCE719F005FF19F004FF0C4B186873
:104660000E4B1B78DBB2032B0BD00C4B1B78DBB251
:10467000022B04D00A4A0B491BF037F8BDE70A4A5F
:10468000F9E7094AF7E700BFC12100207449020099
:10469000AC290020B4490200E8490200FE4F002086
:1046A00068490200144A0200604902002DE9F04105
:1046B00084B0032000F0EEFE50B9032000F0EAFEC3
:1046C00080B9032000F0E6FEB0B9002425462DE0B5
:1046D00019F0C7FE19F0C6FE7149724B18681BF03D
:1046E00004F8EAE719F0BDFE19F0BCFE6E496D4B07
:1046F00018681AF0FAFFE4E719F0B3FE19F0B2FEF9
:104700006A49684B18681AF0F0FFDEE72A271EE0B6
:10471000DFF8D88125E0664B3FE0032000F0BAFEC9
:10472000002844D10135EDB20134E4B2032C50D855
:104730002646604B03EBC4031B79002BF4D05D4B82
:1047400013F834205C4B1B789A42DFD02027594B5A
:1047500003EBC6035B884FF6FF729342D8D0DFF8B5
:1047600090814FF6FF718B42D7D0032000F092FE6C
:104770000028D7D019F075FE19F074FE494B18685F
:104780003A464C4B13F8361003EBC6035F8893F898
:1047900006C05B79002BBED0484B0393CDF808C010
:1047A00001970091334646491AF09FFFBAE719F086
:1047B00058FE19F057FE3F4B13F83630CDF8048001
:1047C000009333463A463F49364800681AF08DFF59
:1047D000A8E7A5B1032000F05DFEF8B9032000F0C2
:1047E00059FE28BB032000F055FE002830D10320DD
:1047F00000F050FE002849D104B0BDE8F08103204C
:1048000000F048FE0028E5D019F02BFE19F02AFE32
:104810002D49244B18681AF068FFDBE719F021FED8
:1048200019F020FE21491F4B18681AF05EFFD5E7EA
:1048300019F017FE19F016FE1A4B18681E4B1A785D
:10484000FF2A03D021491AF050FFCBE70022F9E7F5
:1048500019F007FE19F006FE124B18681C4B1B7866
:10486000DBB2032B09D01A4B1B78DBB2022B09D029
:10487000174B1B7843B9174A00E0174A17491AF03B
:1048800034FFB4E7164AF9E7164AF7E719F0E9FDED
:1048900019F0E8FD1449034B18681AF026FFABE73E
:1048A0008C4A0200AC2900202C4B0200684B02000D
:1048B000504A0200AC250020C1210020484A0200D5
:1048C000084C02003C4C02006C4C0200A84C020058
:1048D000FE4F0020684902006C4A0200E44C0200CE
:1048E000584A0200804A0200004D0200344A020089
:1048F0007461020010B584B00D4BEC460FCBACE8F0
:1049000007008CF8003001238DF803308DF8043057
:1049100000238DF808300E238DF80930054C6946C8
:1049200020461AF0D9F820461AF0C7F804B010BD96
:104930000054020000200540044B00221A605A6017
:104940009A60DA60024A1A60704700BFF8250020BA
:104950003152474610B58EB001A800F0C5FF059A48
:104960000AB3D3680BB94FF4805329490B6014691B
:104970004CB3B4F5E01F26D3B4F5001F23D34FF496
:10498000C012B2FBF3F203FB02F2B2F5C01F2CD14E
:104990004FF4E012B2FBF3F202FB03F3B3F5E01FB6
:1049A00023D1012014E0012000F074FD08B900209B
:1049B0000EE019F056FD19F055FD1649164B186812
:1049C0001AF093FEF3E7012000F064FD10B9002017
:1049D0000EB010BD19F045FD19F044FD22460F49F7
:1049E0000D4B18681AF081FEF1E7012000F052FD2E
:1049F00008B90020ECE719F034FD19F033FD044B41
:104A00001A680749044B18681AF06FFEF1E700BFF7
:104A100010200020A04D0200AC290020D04D020043
:104A2000184E020008B51023044A03210448006808
:104A300010F0E6F8B0FA80F0400908BDF825002033
:104A40008020002008B510230F4A03210F4800687A
:104A500010F020F920B90C4B1A680D4B9A4207D080
:104A6000032000F017FD20B9FFF766FFFFF7DAFF1C
:104A700008BD19F0F6FC19F0F5FC0649064B18685C
:104A80001AF033FEF0E700BFF82500208020002058
:104A900031524746604E0200AC2900202DE9F0411A
:104AA000ADF5007D674BD979674A52F821809E6841
:104AB000731EB3F5802F33D2002000F087FF00284B
:104AC00042D1033626F003060024B4427FD2351BC0
:104AD000B5F5807F28BF4FF4807504EB08072A46A0
:104AE00040A9384601F014F800283DD12B4640AAD1
:104AF0002146002000F04CFF002846D12B466A4694
:104B00002146002000F026FF00284FD12A466946A2
:104B100040A81EF0D1FA002848D104F58074D4E7EB
:104B2000012000F0B7FC20B900200DF5007DBDE8A4
:104B3000F08119F096FC19F095FC32464349444B3C
:104B400018681AF0D2FDEFE7012000F0A3FC08B9C5
:104B50000020EAE719F085FC19F084FC3D493C4B44
:104B600018681AF0C2FDF3E7012000F093FC08B9C1
:104B70000020DAE719F075FC19F074FC3A46364962
:104B8000334B18681AF0B1FDF2E7012000F082FC07
:104B900008B90020C9E719F064FC19F063FC22464B
:104BA0002E492B4B18681AF0A0FDF2E7012000F007
:104BB00071FC08B90020B8E719F053FC19F052FC59
:104BC00022462749224B18681AF08FFDF2E7002190
:104BD000084600F073FF58B9002000F015FFB8B97F
:104BE000032000F057FC18BB00F068FE01209CE792
:104BF000012000F04FFC08B9002096E719F031FCC5
:104C000019F030FC1749124B18681AF06EFDF3E7E3
:104C1000012000F03FFC08B9002086E719F021FCD4
:104C200019F020FC10490A4B18681AF05EFDF3E7F2
:104C300019F017FC19F016FC0C49054B18681AF00E
:104C400054FDD1E7F8250020F8530200904E0200F1
:104C5000AC290020B44E0200D44E0200F84E0200EF
:104C6000184F0200404F0200684F02008C4F0200B4
:104C70002DE9F047ADF5047D0021084600F01EFF48
:104C800000283AD182A9002000F046FE002847D132
:104C9000002404F10803839A934251D808236A46FA
:104CA0002146002000F056FE002840F090809DF83C
:104CB00000309DF8012043EA02239DF8022043EAD8
:104CC00002439DF8032043EA02629DF804309DF8F8
:104CD000051043EA01239DF8061043EA01439DF8BD
:104CE000071043EA01638399994272D3234403F185
:104CF0000804694B9A42CCD123E0012000F0CAFBA2
:104D000020B900200DF5047DBDE8F08719F0A9FB5E
:104D100019F0A8FB6149624B18681AF0E6FCF0E74D
:104D2000012000F0B7FB08B90020EBE719F099FB70
:104D300019F098FB5B495A4B18681AF0D6FCF3E758
:104D40000024631EB3F5802F45D2574B93F807A07C
:104D5000BAFA8AFA4FEA5A1A544B53F82A904FF487
:104D60008021484600F010FF002847D104F10308D5
:104D700028F003080026464580F08480A8EB06054D
:104D8000B5F5807F28BF4FF480752B4642AA314687
:104D9000002000F0DFFD002841D106EB09072A467C
:104DA00042A9384600F0D2FE002849D12A4602A97D
:104DB000384600F0ADFE002853D12A4602A942A889
:104DC0001EF07AF900284CD106F58076D3E700244E
:104DD000B7E70024B5E7012000F05CFB08B900202C
:104DE00090E719F03EFB19F03DFB4FF4802322467B
:104DF0002F492B4800681AF078FCF0E7012000F0FA
:104E000049FB08B900207DE719F02BFB19F02AFBBC
:104E10004A462849224B18681AF067FCF2E701203D
:104E200000F038FB08B900206CE719F01AFB19F004
:104E300019FB324620491A4B18681AF056FCF2E763
:104E4000012000F027FB08B900205BE719F009FBFF
:104E500019F008FB3A461949114B18681AF045FC3D
:104E6000F2E7012000F016FB08B900204AE719F02C
:104E7000F8FA19F0F7FA3A461149094B18681AF08E
:104E800034FCF2E7084B83F807A09C6001221A73F8
:104E9000FFF7C8FD36E700BFFC0404FCC04F02006A
:104EA000AC290020F84F0200F8250020F85302003A
:104EB0001C500200545002007C5002009C50020022
:104EC000C050020010B584B0FFF714FDFFF7BAFD23
:104ED000FFF740FD5B4B1870032000F0DBFA20B9B0
:104EE000594B9B79BBB904B010BD19F0BAFA19F04F
:104EF000B9FA554AD379117B9068524C24780394BF
:104F0000029001910093938892795049504800682B
:104F10001AF0EBFBE4E74C4A938801339380FFF7E8
:104F200081FD08B3032000F0B5FA60BB464B9B88B7
:104F3000042BD8D9434B1B781BB1434B1B7B002B55
:104F400042D1012000F0A6FA50BB012000F0A2FAE5
:104F500000282FD13C4B9B88052BC4D93A4B052206
:104F60009A80FFF75FFDBEE7012000F093FA00286A
:104F7000D8D019F076FA19F075FA3649344B18681A
:104F80001AF0B3FBCEE719F06CFA19F06BFA0523AF
:104F90002D4A928830492E4800681AF0A6FBC5E7D2
:104FA00019F05FFA19F05EFA2C49294B18681AF0CB
:104FB0009CFBCAE719F055FA19F054FA2849244B1A
:104FC00018681AF092FBC5E7032000F063FAC8B92D
:104FD0001D4B00229A8001229A71FFF723FDFFF7F3
:104FE0005DFDF8B1012000F055FA00283FF47BAFD9
:104FF00019F037FA19F036FA1A49154B18681AF0F1
:1050000074FB70E719F02DFA19F02CFA104B1868A0
:105010000D4BDB7923B1422213491AF066FBD7E727
:105020004122F9E7012000F035FA00283FF45BAF98
:1050300019F017FA19F016FA0C49054B18681AF00E
:1050400054FB50E70B500020F8250020EC500200E4
:10505000AC290020385102006C5102008C51020032
:10506000D45102003C520200145202007452020059
:1050700008B5134B01229A7100229A80FFF7D2FCE7
:1050800070B9012000F006FA00B908BD19F0E9F97D
:1050900019F0E8F90B490C4B18681AF026FBF4E7F5
:1050A000032000F0F7F90028EFD019F0DAF919F031
:1050B000D9F90649044B18681AF017FBE5E700BF59
:1050C000F8250020AC520200AC290020E852020072
:1050D00008B52E4B9B792BB92C4A127B12B12B4A67
:1050E00092887AB113B12A4B1B7863B9274B0022FF
:1050F0009A719A80FFF796FC002837D1012000F0C2
:10510000C9F948BB08BDFFF7B3FDB0B1032000F0FB
:10511000C1F90028EAD019F0A4F919F0A3F91D4B40
:1051200018681A4BDB7933B14222184B9B681A4935
:105130001AF0DBFADAE74122F7E7012000F0AAF9DA
:105140000028D3D019F08DF919F08CF91349114BBF
:1051500018681AF0CAFAC9E719F083F919F082F948
:105160000F490C4B18681AF0C0FACBE7032000F087
:1051700091F90028C6D019F074F919F073F90949AA
:10518000044B18681AF0B1FABCE700BFF8250020FC
:105190000B500020AC290020205302006053020075
:1051A0009C530200C8530200024B9879003818BF84
:1051B00001207047F825002008B5024819F07DFC51
:1051C00008BD00BF0020054008B5024B1B6803B1B5
:1051D000984708BD3826002008B5024B5B6803B12C
:1051E000984708BD3826002008B5024B9B6803B1DC
:1051F000984708BD3826002008B5024BDB6803B18C
:10520000984708BD3826002008B5024B1B6903B13A
:10521000984708BD3826002008B5024B5B6903B1EA
:10522000984708BD3826002030B585B0094C226863
:10523000094B1A60094D0A4B2B600A4B019304F08D
:1052400063FE02902B68039301A9206819F055FDB5
:1052500005B030BD302000207C34002078340020A0
:1052600024200020885D020008B5024B186819F060
:1052700058FD08BD3020002038B504F045FE044636
:10528000064D2B68D3F8B00204F032FE286819F0FE
:1052900062FD204604F02CFE38BD00BF3020002007
:1052A00038B501F083FE01210D4801F051FA0122C9
:1052B0001146002001F0BEFD0A4C0225C4F88050C2
:1052C00001221146002001F0B5FDC4F884500122EE
:1052D0001146002001F0AEFDC4F88850002038BD12
:1052E00030253E0000400E4008B5164B01225A649E
:1052F00003F01CF8024668B9134B4AF6E851C3F8AC
:105300009011D3F8981141F00401C3F898110021CD
:10531000C3F89011012A0DD90C4A136A23F44413DF
:1053200043F488131362A2F58042136843F4807338
:10533000136008BD044AD2F8643143F40053C2F844
:105340006431E9E700000E4000300E4000400E409E
:10535000012900D9704708B5034B1B68186808B1CC
:10536000436A984708BD00BF3420002030B599B08B
:10537000284D11ACAC46BCE80F000FC49CE80700F8
:1053800084E8070000240B940C940D940E940F9461
:105390001094214B0B93214B0C9301228DF8372055
:1053A00002238DF8393003238DF83B301E238DF80E
:1053B0003F308DF8403009AB1C3595E8030083E899
:1053C00003000DF10C0C03940494059406940794C7
:1053D00008948CE803000C238DF814300D238DF80D
:1053E00015300F4B0693202307938DF820208DF85E
:1053F00021200C4B00930BAB11AA61460A4804F024
:105400005BFF054621464FF4E13019F05DF8284670
:1054100019B030BDA05D0200000001400042040050
:105420000C2900202C2900208029002008B50349E0
:10543000034805F0A9FAFFF799FF08BD38200020BE
:10544000A429002008B502481AF063FB08BD00BF7C
:105450008029002008B502481AF05BFB08BD00BF98
:105460008029002008B5024B1A6A1868904708BDC9
:105470008029002008B5024819F08AF808BD00BF4D
:10548000C45D020008B5024819F0C9F808BD00BFA4
:10549000DC5D020003460B4A107828B10A4A1278F4
:1054A0009A4202D2002000E00120084A12783AB164
:1054B000074A127842FA03F313F0010F00D10020DB
:1054C000704700BFC5210020C42100200C500020DF
:1054D000C321002008B5084B01221A70074B002297
:1054E0001A70074B04221A70064B1F221A7004F020
:1054F0000BFD054B186008BDC52100200C50002095
:10550000C4210020C3210020AC29002008B50121BE
:10551000034801F01DF918F005FF00F075F808BD0B
:1055200000350A0008B50121014801F011F908BD54
:1055300000350A002DE9F04180460F4601F10905CA
:105540000026344604E05B21082000F06BFC0134A7
:10555000AC4233D2052C1BD801A353F824F000BF72
:105560004755000079550000AD55000081550000F9
:105570008555000089550000FBB20433D9B2E3E73A
:105580008021E1E70021DFE7731C3146DEB2DBE773
:10559000BB1DA3420CD0FB1DA3420BD007F1080397
:1055A000A34209D0A31F18F80310CDE7D121CBE700
:1055B0005A21C9E75A21C7E75D21C5E70020BDE8A8
:1055C000F08100BF00B583B0002200920192022159
:1055D0008DF80010054818F061FF01900821684619
:1055E000FFF7A8FF03B05DF804FB00BF006A1800D6
:1055F000014B1022DA60704700A00044014B1022DA
:10560000DA60704700A0004670B588B00DF1040C58
:10561000374C0FCCACE80F0094E807008CE807008B
:105620000121344801F094F8334E0121304601F055
:105630008FF801258DF81250304B0393304C01A99F
:10564000204619F0DEF92B4604220621022002F042
:105650001BFB00232A460721022002F015FB2B46E4
:1056600004220821022002F00FFB2B4604221146DF
:10567000002002F009FB234BA3670B2363674FF461
:10568000487006F079FBFFF7B3FF142006F074FBB7
:10569000FFF7B4FF232006F06FFBFFF7A9FFB92146
:1056A000204619F0F8F9FFF7A9FF00231A46062152
:1056B000022002F0E9FA00231A460721022002F034
:1056C000E3FA2B4600220821022002F0DDFA2B46E5
:1056D00000220421104602F0D7FA204602F080FE94
:1056E0000021A1676167304601F032F808B070BD53
:1056F000F45D020000350A000052040000127A0036
:10570000000401400B0B000B08B500F087F8124AAB
:105710000AE01068516850F8230041F82300013373
:1057200091688B42F5D30C320C4B9A4201D2002384
:10573000F6E70B4A08E01168002041F82300013326
:1057400051688B42F7D30832064B9A4201D20023AC
:10575000F6E7FCF7F1FB00BFE8890200F4890200DC
:10576000F4890200F48902000048704700F0490201
:10577000114BD3F8943003F00703023B032B0DD8F1
:10578000DFE803F0050F02080C4B18680BE00C4B28
:10579000186808E00B4B1868400804E0094B1868CB
:1057A00001E04FF40040044BD3F80031C3F304236D
:1057B0000133B0FBF3F0704700400E40542000204E
:1057C000582000204C20002008B5FFF7D1FF054BE2
:1057D000D3F80831C3F308230133B0FBF3F0024BD5
:1057E000186008BD00400E4050200020014B186892
:1057F000704700BF5820002008B5064B1860064BC4
:10580000D3F8943003F00703022B00D008BDFFF754
:10581000DBFFFBE75820002000400E40044B054A08
:105820009A60D3F8882042F47002C3F88820704749
:1058300000ED00E000000000014B1868704700BF59
:1058400054200020BFF34F8F0549CA6802F4E0627C
:10585000044B1343CB60BFF34F8F00BFFDE700BF86
:1058600000ED00E00400FA0508B5114BD3F8282834
:10587000A2F17E63A3F58433B3F5104F11D2116802
:105880000C4B994210D10C4B1B781BB1022B01D051
:10589000002008E0D369984728B9074B01221A7005
:1058A00001E04FF4817008BD4FF48170FBE700BF49
:1058B0000000E10F07B0CD5E0D50002008B54FF09D
:1058C000005340F202221A804FF20F025A80054A1A
:1058D00001239360136823F4E06343F4806313604F
:1058E000FFF7B0FF00500E4008B50A4BD3F8282848
:1058F000A2F17E63A3F58433B3F5104F09D2126B86
:10590000A2F17E63A3F58433B3F5104F01D253683F
:10591000984708BD0000E10F08B50D4BD3F82828C3
:10592000A2F17E63A3F58433B3F5104F0AD2126B54
:10593000A2F17E63A3F58433B3F5104F05D29368CB
:10594000984701E04FF4817008BD4FF48170FBE788
:105950000000E10F38B50D4CD4F82848A4F17E6C56
:10596000ACF5843CBCF5104F0AD2256BA5F17E64E2
:10597000A4F58434B4F5104F05D2EC68A04701E0DB
:105980004FF4817038BD4FF48170FBE70000E10FE8
:1059900038B50D4CD4F82848A4F17E6CACF5843CA5
:1059A000BCF5104F0AD2256BA5F17E64A4F58434B2
:1059B000B4F5104F05D22C69A04701E04FF4817077
:1059C00038BD4FF48170FBE70000E10F08B50D4BC7
:1059D000D3F82828A2F17E63A3F58433B3F5104FE2
:1059E0000AD2126BA2F17E63A3F58433B3F5104F94
:1059F00005D25369984701E04FF4817008BD4FF418
:105A00008170FBE70000E10F00B583B001900F4B00
:105A1000D3F82828A2F17E63A3F58433B3F5104FA1
:105A20000CD2126BA2F17E63A3F58433B3F5104F51
:105A300009D29369012101A8984701E04FF48170D0
:105A400003B05DF804FB4FF48170F9E70000E10F4B
:105A500010B50A4BD3F82848A4F17E63A3F584332C
:105A6000B3F5104F04D2236B2BB15B6A984701E06A
:105A70004FF4017010BD4FF40170FBE70000E10F1F
:105A800008B50D4BD3F82828A2F17E63A3F5843323
:105A9000B3F5104F0AD2126BA2F17E63A3F58433E3
:105AA000B3F5104F05D2936A984701E04FF40170A7
:105AB00008BD4FF40170FBE70000E10F30B5E1B025
:105AC000124BD3F82838A3F17E63A3F58433B3F5E2
:105AD000104F15D20C464FF4C0726946FFF7B8FF5D
