:1000000000200020B14B00007BD801007BD801000C
:10001000E9EE01007BD801007BD801007BD801000C
:100020007BD801007BD801007BD801007BD8010080
:100030007BD80100244902007BD801007BD8010055
:100040007BD80100FD910100B5BA00007BD801000A
:100050002D8A01007D1C0200791C02001D92010006
:10006000711C020091570000F95800007BD8010074
:10007000FD480000ED4800007BD801007BD801005E
:100080007BD80100D12C0000195900007BD8010059
:100090007BD801007BD801007BD801007BD8010010
:1000A0007BD801007BD801007BD801007BD8010000
:1000B00051920100751C020011AB00008D920100ED
:1000C0007BD80100B57501007BD801007BD8010009
:1000D0007BD801007BD801007BD801007BD80100D0
:1000E0007BD801007BD801007BD801007BD80100C0
:1000F0007BD801007BD801007BD801007BD80100B0
:100100007BD801007BD801007BD8010000000000F3
:10011000013800D0FCE7704700000000000000003C
:1001200001F0FF01102A2BDB10F0070F08D010F8A8
:10013000013B013A8B422DD010F0070F42B3F6D1AC
:10014000F0B441EA012141EA014122F007047FF0C5
:1001500000070023F0E80256083C85EA010586EA1C
:10016000010685FA47F5A3FA87F586FA47F6A5FA58
:1001700087F68EB9EED1F0BC01F0FF0102F0070264
:1001800032B110F8013B013A83EA010313B1F8D10F
:100190000020704701387047002D06BF35460338F0
:1001A000073815F0010F07D1013015F4807F02BF29
:1001B000013015F4C03F0130F0BC0138704700BF7A
:1001C0002DE9F04F2DED028B91B082460C469346FF
:1001D0001D46DDE91C23104619461BF08BFB002849
:1001E00000F007814FF0FF32B14BDDE91C011BF03D
:1001F000A9FB002840F0FD804FF0FF326FF4801320
:10020000DDE91C011BF080FB002840F0F280002299
:100210000023DDE91C011BF077FB002840F0FE8085
:100220009DED1C7B8DED067B209B13F480630F936B
:1002300001D106231E93DDE906010246C1F30A50EF
:10024000C1F31303904643F07F5949F44019A0F2DB
:10025000FF301BF07DF884A3D3E900231BF0E2F804
:1002600083A3D3E900231AF027FF06460F46002296
:10027000904B404649461AF01DFF7FA3D3E9002367
:100280001BF0D0F802460B46304639461AF014FFF0
:100290001BF062FB06461BF05BF88046894678A39C
:1002A000D3E900231BF0BEF80022834B1AF004FFB1
:1002B0001BF052FB074674A3D3E90023404649468E
:1002C0001BF0B0F88046894638461BF041F870A311
:1002D000D3E900231BF0A6F802460B4640464946E8
:1002E0001AF0E8FE8046894602460B461BF09AF853
:1002F000CDE90A0107F2FF3700210022CDE90812FB
:100300003B0509930023089342464B464046494625
:100310001AF0D2FECDE90C0142464B4600204FF0C8
:1003200080411AF0C7FE804689460022634BDDE912
:100330000A011BF0A1F90022614B1AF0BDFE024632
:100340000B46DDE90A011BF097F900225D4B1AF01C
:10035000B3FE02460B46DDE90A011BF08DF90246A9
:100360000B46404649461AF0A7FE02460B46DDE919
:100370000C011BF081F90022534B1AF09DFEDDE9C0
:1003800008231BF04FF88046894649EC188BDDE9BD
:1003900006231BF0D7FA40B1013E0022484B4046ED
:1003A00049461BF069F941EC180B06F16303C62BB3
:1003B0003FD80427209B13F4006F44D036A3D3E921
:1003C0000023DDE90689404649461BF0B1FA0028C2
:1003D0003FD033A3D3E90023404649461BF094FAAB
:1003E000002836D01E9BB34225DD9E1B731E1E9334
:1003F00023E0209B04931F9B03931E9B02939DED80
:100400001C7B8DED007B2B465A462146504600F062
:10041000CFF811B0BDEC028BBDE8F08F9FED227BD1
:100420008DED067B1C9B06931D9B03F100430793F8
:10043000FAE60527BEE700231E93209B43F4806362
:10044000209300273E461F9B9F423FD2A3EB070805
:100450003EE01E9B002BF6D00F9B002BF3D01E9B83
:10046000013B1E93EFE700BFFB799F501344D33F3E
:10047000B3C8608B288AC63F61436F63A787D23FAA
:1004800071A379094F930A401655B5BBB16B024071
:10049000EF39FAFE422EE63F2D431CEBE2361A3FBF
:1004A0000000000080842E410000000000000000D9
:1004B000FFFFEF7F0000F83F0000E03F00002C400E
:1004C00000002440000018400000F03F4FF00008FA
:1004D000209B13F0020902D00FB14FF000083EB18B
:1004E00053EC182BDDE906011BF0C6F8CDE9060137
:1004F00000220023DDE91C011BF006FA00283DD193
:10050000209B23F400630493CDF80C801E9B029380
:100510009DED067B8DED007B2B465A4621465046CD
:1005200000F046F8002F3FF474AF209B13F0200F2B
:100530002CD04FF0450C00F101082B460246214615
:100540006046D04786EAE672A2EBE6720523059381
:10055000013F0497002303930A230293F30F0193AF
:1005600000922B464246214650461FF061FDB9F1EC
:10057000000F3FF44EAF02461F9F10E0DDE9060179
:10058000024601F10043CDE90623B9E74FF0650CBF
:10059000D1E7561C2B4621462020D0473246A2EBFD
:1005A0000B03BB42F5D3104633E700BF0000000049
:1005B0002DE9F04F2DED028B95B007900A919246F0
:1005C0009B46DDE92089229D42464B4640464946EE
:1005D0001BF090F9002840D04FF0FF326FF48013E9
:1005E000404649461BF090F9002845D14FF0FF32B4
:1005F0009F4B404649461BF0A5F900284BD198A3D4
:10060000D3E90023404649461BF09CF900285AD103
:1006100095A3D3E90023404649461BF075F900280D
:1006200051D100220023404649461BF06DF90028B5
:1006300057D100230B93249B13F4806F5CD00024CC
:100640001F2C5BD8092D59D904F150036B4430227B
:1006500003F8202C013D0134F2E7249B0393239BF4
:10066000029303230193834B00935B4652460A99FE
:1006700007981FF003FC2CE1249B0393239B029318
:10068000042301937C4B00935B4652460A990798DA
:100690001FF0F4FB1DE1249B13F004030FD0774AF5
:1006A0007BB1042324990391239902910193009231
:1006B0005B4652460A9907981FF0E0FB09E1704A31
:1006C000EEE70323EEE7249B0493239B0393029519
:1006D000CDE900895B4652460A990798FFF770FDFD
:1006E000F7E042464B46002000211AF0E3FC80462A
:1006F000894601230B939EE70625A0E7404649461D
:100700001BF02AF906461AF023FE02460B46404625
:1007100049461AF0CFFC5B4B03EBC50393ED008B0E
:1007200053EC182B1AF07EFE02460B46CDE9082347
:100730001BF03AF907461AF0FBFD02460B46DDE9CD
:1007400008011AF0B7FC02460B46CDE90823002247
:100750004D4B1BF0F7F850B3013738461AF0E8FD5F
:1007600002460B4651EC180B1BF0D8F808B10136C5
:10077000002755BB30461AF0EBFD02460B464046BB
:1007800049461AF097FC0746884600223E4B1BF06C
:10079000BBF838B100223C4B384641461BF0D2F83A
:1007A000002842D016F0010F3FD001363DE0002274
:1007B000354BDDE908011BF0A7F80028D9D117B1A6
:1007C00017F0010FD5D00137D3E71F2C17D8013D03
:1007D0002E4BA3FB0723DB08194603EB8303A7EB90
:1007E0004303621C303304F150000DEB000404F8A5
:1007F000203C092F02D90F461446E6E714461F2C69
:100800000AD86B1E45B104F150026A44302102F847
:10081000201C1D460134F2E71F2C06D804F15003BA
:100820006B442E2203F8202C01341F2C33D8184A95
:1008300082FB0632F317C3EBA2031A4603EB8303D2
:10084000A6EB4303611C303304F150000DEB0004B0
:1008500004F8203C1646EAB10C46E6E7AFF3008008
:100860000000000065CDCD410000000065CDCDC188
:10087000FFFFEF7F5C50020060500200505002000A
:1008800058500200685002000000E03FCDCCCCCCB4
:10089000676666660C46249B03F00303012B1DD09C
:1008A0001F2C09D80B9B002B35D004F150036B444F
:1008B0002D2203F8202C0134249B0393239B0293C5
:1008C00001940CAB00935B4652460A9907981FF0BF
:1008D000D5FA15B0BDEC028BBDE8F08F239BB3B108
:1008E0000B9B1BB9249B13F00C0F12D0239B013BD5
:1008F0002393194606E004F150036B44302203F8B9
:10090000202C01348C42CBD21F2CF4D9C8E7239978
:10091000F8E72399F6E7249B13F0040F07D004F1BE
:1009200050036B442B2203F8202C0134C4E7249B92
:1009300013F0080FC0D004F150036B44202203F8D9
:10094000202C0134B8E700BF7FB54E6802A90446E9
:1009500020F079FE9DF808300E2B19D1134BB3F916
:100960000050134B9E4218D807F092F803460068D7
:1009700000909B88ADF804306946204620F050FE78
:1009800070B10C490C4840F21C620CF0BDF8FEE757
:10099000204614F007F90546E3E707F075F8E5E7A8
:1009A0002946204620F051FE04B070BD084F0020BB
:1009B000FFC99A3BB5530200DC50020038B504462B
:1009C0000D461DF08DF8064A13889BB22DB12343C6
:1009D0001380BDE838401DF089B823EA0403F7E727
:1009E00078490020034B002201214FF480709A7057
:1009F000E4E700BF784900207FB50023134C039340
:100A0000CDE90133FF238DF804301DF069F8228809
:100A100063880F4E9A4205460DD061887068218028
:100A200001AA13F0ADFE58B10A490B4840F2976293
:100A30000CF06AF8FEE7706820F0B4FC0128ECD0F6
:100A400028461DF053F804B070BD00BFC42000203C
:100A500078490020B5530200DC50020038B50F4C35
:100A6000A56835B90E490F4840F27C720CF04CF87D
:100A7000FEE71FF0B2FB28440FF0B8FC00F00700BF
:100A8000032809D1A468092120461FF0C2FC205C7C
:100A9000031F5842584138BD0020FCE77849002028
:100AA000B5530200DC50020010B5114CA378042BA2
:100AB00006D01049104840F244520CF025F8FEE7E9
:100AC00023881B0706D40B490B4840F245520CF013
:100AD0001BF8FEE700210820FFF770FF074B606856
:100AE00002221A7113F01AFEBDE810401EF0DBBBA3
:100AF00078490020B5530200DC500200C4200020D9
:100B000010B5084C606813F009FE606820F04AFCDC
:100B1000012806D0012260681146BDE8104020F08F
:100B200043BC10BD7849002038B5194DAB7833B1BE
:100B3000184919484FF4DC620BF0E6FFFEE71CF0A1
:100B4000CFFF298811F00601044609D001214FF496
:100B50008070FFF733FF2046BDE838401CF0C6BF69
:100B60004FF48070FFF72AFF11F0AEF9012805D08D
:100B700010F0FD0F05D1FFF73FFFECE7FFF7C0FFD7
:100B8000E9E70449044840F2F6620BF0BDFFFEE7D6
:100B900078490020B5530200DC50020070B5074DC3
:100BA00095F90C600446FFF7BFFF11F08DF8AA68B5
:100BB00031462046BDE8704010F0C4BE78490020A0
:100BC00008B50A4B1B88DB0606D40949094840F2E0
:100BD00069520BF099FFFEE700211020FFF7EEFEAF
:100BE00011F0EEF9BDE808401EF05DBB7849002029
:100BF000B5530200DC5002000D4B1B889B0710B55B
:100C0000044613D500210220FFF7D8FE094B5A797C
:100C1000FF2A06D00849094840F29A420BF074FFB7
:100C2000FEE75C71BDE810401EF03DBB10BD00BF8B
:100C300078490020C4200020B5530200DC50020097
:100C40007047704710B50E4CA37833B10D490E486C
:100C500040F2C5120BF058FFFEE7A06019B1A17C6D
:100C6000003918BF01212020FFF7A8FE074B0848D4
:100C70009B7923770223A370BDE810400EF020BAC1
:100C800078490020B5530200DC500200C420002047
:100C90009849002008B50FF015F880F00100C0B2A7
:100CA00008BD0A4B9A780AB1062A0CD11B8803F4B6
:100CB0008B7343B9064B5A79FF2A04D11879FF3850
:100CC00018BF012070470120704700BF78490020FD
:100CD000C420002008B50EF0E5FF0028FBD108BDB8
:100CE0000C4B42881A8242789A740278DA748288AD
:100CF0009A82C288DA82C2689A61074A017A91713F
:100D0000028A198D914204D001214FF400701A8596
:100D100054E6704778490020C4200020094B1A8A05
:100D200042809A7C4270DA7C02709A8A8280DA8AE7
:100D3000C2809A69C260044A1B8D92790272038252
:100D4000704700BF78490020C42000204B1E012BB3
:100D500070B50C4606D91B491B484FF42A720BF09C
:100D6000D3FEFEE7194D0A460146686820F081FD72
:100D700030B11449144840F2AA220BF0C5FEFEE738
:100D80006E680EF011F922460146304620F06BFDE8
:100D900030B10C490C4840F2AE220BF0B5FEFEE734
:100DA0006D680EF00DF922460146284620F067FDD9
:100DB00030B10449044840F2B2220BF0A5FEFEE730
:100DC00070BD00BFB5530200DC500200784900201E
:100DD000054BDB791B0913F00E0003D0052B8CBFEC
:100DE00000200120704700BFC4200020044BDB79A5
:100DF0001B0913F00E0F0CBF01200020704700BF2D
:100E0000C42000202DE9F04F16469A0591B0814686
:100E10001F4603D501218020FFF7D0FDF3014FF0DD
:100E2000000852D59A4C23889D074ED5994D6B7971
:100E3000FF2B06D09849994840F266420BF064FEB9
:100E4000FEE7A36833B99449944840F267420BF037
:100E50005BFEFEE741460220FFF7B0FDA37885F870
:100E60000580042B03D101210820FFF7A7FD8C4A40
:100E70006068002120F008FC30B18749874840F2C3
:100E800071420BF041FEFEE7FFF7A2FFA8B9D4F8CC
:100E900004801FF0A2F90546A0681FF0A9F92918DF
:100EA0007F4A89B2404620F000FC30B17A497B4845
:100EB00040F277420BF028FEFEE7A378032B02D125
:100EC000606813F02BFC1EF0EEF9B80702D5012084
:100ED000FFF792FE16F0A84F02D00220FFF78CFE1B
:100EE000B10220D50021402005ACFFF767FD214667
:100EF000484620F0EAFCB0B99DF81C30022B0AAA43
:100F000022D18DF83030BDF81430ADF828301046BD
:100F100010F0E2FE38B1484620F0D5FC18B90121A6
:100F20004020FFF74BFD320752D5594D05AA68689E
:100F3000032120F069FC804688B95749574840F2A0
:100F4000B3420BF0E1FDFEE7032B05BFD4E900013E
:100F50008DF830308DF83000C2E90001D7E79DF8F8
:100F600014306868072B40F022810AAA414620F01D
:100F70004FFC824630B14849484840F2B6420BF037
:100F8000C3FDFEE7FFF724FFBDF8161090B9FFF789
:100F90002DFF68B10431686889B20AAA20F03AFCD2
:100FA00040B13D493D4840F2C7420BF0ADFDFEE780
:100FB0000231F0E7BDF816000730012180B20EF0D3
:100FC000CBFD039000284AD101210C2011F0C2FD75
:100FD000B10705D52E4B1B881A0701D5FFF764FD15
:100FE000B3010AD500210420FFF7E8FC284B9A78CA
:100FF000012A02D1586813F091FB16F0284F03D054
:1010000000210420FFF7DAFC7E060CD5204C238853
:101010001D0701D5FFF748FD2388580703D5002198
:101020000420FFF7CBFCF90540F1CF80484620F0C3
:10103000B7F9022802D0032840F0C080144C23885E
:101040005A0703D500210420FFF7B8FC23889B072B
:1010500040F1BB80012011B0BDE8F04FCCE50EF0AF
:1010600051FC4FF0000BCDF800B0BDF81630024631
:1010700004464146686820F0E7FBBDF8163083421D
:1010800010D0054905484FF49B620BF03DFDFEE78B
:1010900078490020C4200020B5530200DC50020033
:1010A000A44900201FF099F820440FF09FF900F0A8
:1010B0000700022823D1AB78042B89D11FF08DF8CB
:1010C000434B20441B7882789A4281D159460820AC
:1010D000FFF774FC1FF081F820440FF087F93D4BB7
:1010E000C0F3001018719DF836302B73FFF7B6FC73
:1010F00000287FF46DAF686813F010FB68E71FF0FD
:101100006CF820440FF072F9830649D51FF065F89A
:1011100020440FF06BF900F00700032828D00121CC
:101120000420FFF74BFC20F099FB2863BDF8163034
:101130009DF83620E254BDF816309DF83720234440
:1011400001209A71BDF816100A9A013121440FF05E
:101150005BF9BDF8163003981C4484F805A00EF026
:101160008FFD1D4B18780EF0B1F81EF09CF82FE79C
:10117000092120461FF04DF9205C04284FF00101A1
:10118000CED1FFF71BFC20F069FB28632B885806A3
:10119000CCD559464020FFF711FC4FF0010AC5E7B6
:1011A000AB78012BC2D1686813F0B8FABEE720F023
:1011B00025FB6868414620F044FB09E707490848D9
:1011C00040F2B5520BF0A0FCFEE711B0BDE8F08F85
:1011D000E5490020C4200020E8480020B553020063
:1011E000DC50020008B50246FFF7F2FD30B1072AD5
:1011F00006D8044B002083F8342008BD7020FCE79B
:101200000220FAE77849002008B50246FFF7E0FD22
:1012100028B1044B93F834301370002008BD7020BF
:10122000FCE700BF7849002008B5074B01460022C3
:10123000586820F01EFB30B1044905484FF437725E
:101240000BF062FCFEE708BD78490020B5530200B0
:10125000DC50020008B5074B01460022586820F018
:1012600002FB30B10449054840F2E2220BF04CFC8D
:10127000FEE708BD78490020B5530200DC500200AB
:1012800008B5074B0146586820F0FFFA30B1054910
:1012900005484FF43A720BF037FCFEE708BD00BF7B
:1012A00078490020B5530200DC50020008B5064B17
:1012B0009B7833B10549064840F2F2220BF024FC3A
:1012C000FEE7BDE808402FE478490020B55302004E
:1012D000DC50020008B5044B0146586820F0B5F90F
:1012E000002818BF8B2008BD78490020014B5868A2
:1012F00013F058BC78490020014B5888704700BF54
:10130000C42000207FB50123ADF80E3009484FF608
:10131000FE7300930DF10E02002304A9406820F033
:1013200013F9012894BFBDF810004FF6FF7007B005
:101330005DF804FB7849002008B5044B0146586865
:1013400020F088F8B0FA80F0400908BD7849002004
:1013500038B50B4DAB78012B04460DD8FFF7ECFFE9
:1013600060B1084B5C80AB781BB9FFF7DDFB002058
:1013700038BDFFF741FBFAE73E20F9E78A20F7E79F
:1013800078490020C4200020024B9B780BB9FFF75E
:10139000CBBB704778490020014BD874704700BF21
:1013A0007849002008B5054B0121586820F01FF846
:1013B0000028B8BF033040F3870008BD78490020FB
:1013C00008B5044B586820F041F8034BB3FBF0F02C
:1013D00080B208BD7849002040420F0030B58DB082
:1013E0002C220446002101A820F0B7FF0123264D3E
:1013F0008DF808304FF002326423CDE903230693C1
:101400000B238DF82C302B8DADF80A30FFF7E0FC64
:10141000A0B140F2F23307934FF47A7305930CB9FD
:10142000FFF76EFB686801A913F090FCB8B117498B
:10143000174840F269620BF067FBFEE7FFF7C0FF59
:101440000C234343902BA3F10A0207930592DCBFC0
:1014500091230793059B8B2BE1D88C23DEE7FFF7C5
:10146000C5FC60B101226868114620F01CFA30B159
:101470000649074840F26C620BF046FBFEE70CB9E8
:10148000FFF752FB0DB030BD78490020B553020084
:10149000DC500200F8B5574C1CF022FB2388D9051C
:1014A000064603D5A37843BBFFF73EFB524D6B794D
:1014B000FF2B13D06B7903F0FF0723BBFF236B7166
:1014C000A378032B0AD100233046A3701CF00EFB37
:1014D0003846FFF763FB1CF003FB0646A378042B9A
:1014E00008D12B79FF2B05D02B79022B14D143483F
:1014F0000DF0E6FDFF232B7128E000214FF48070F2
:10150000FFF75CFAD2E76B79012B4FF0FF036B71A9
:1015100014BF89278D27D6E72B7913B12B79012B9F
:101520001FD1FFF79BFA2B790022FF212971DBB233
:1015300084F820200546002848D0012B0AD12F48E6
:10154000A37064210DF0C7FDFFF756FA30461CF07A
:10155000CDFA06E03046A2701CF0C8FA3120FFF741
:101560001DFB23881A0608D500218020FFF726FAE4
:10157000606820F0DDF810F004FD23889B0507D596
:101580004FF400700021FFF719FA0020FFF726FF43
:101590000EF088FBE08628B30EF0B4F90121054671
:1015A000002011F0D7FAA678012E15D1002684F874
:1015B0002060A670FFF7B8FA284610F0FDF8A3786F
:1015C000E6867BB9BDE8F84010F07EBBA0703046DF
:1015D0001CF08CFA2846C2E72EB1284610F0ECF831
:1015E0000023E386F8BDFFF79FFA284610F0E4F8E1
:1015F000E686F7E778490020C420002098490020BB
:101600007FB5794C2388DB0700F1E7800121774D16
:101610000846FFF7D3F905237549A37005F10800C3
:1016200013F04EF8606028B972497348F3220BF04A
:101630006BFAFEE771481FF0F6FE69A3D3E90023B9
:10164000CDE900234FF0FF324FF0FF3360681FF009
:1016500079FF4FF48811606813F002FB014630B146
:101660006449654840F20B120BF04EFAFEE7644BFA
:101670001B78012B0ED1634A606813F07DFA606815
:1016800013F092FBE0B15B495B4840F217120BF09C
:101690003BFAFEE75C4E316831B9564956484FF483
:1016A0008D720BF031FAFEE7564A606813F064FA67
:1016B00033689B6823B1DB6913B15B7803B1EB71CD
:1016C000FFF720FE514B68801B78C3EB431203EBFE
:1016D0008203DB0001202385FFF780FE65680DF0A3
:1016E0006FFC00220146284620F0C9F8054630B1BB
:1016F0004049414840F22D120BF006FAFEE740F255
:1017000003532382424B04261B78E374A674FFF72D
:1017100057FE00EB80039B00A382FFF751FEC00041
:10172000E08231466068A5611FF08EFE30B131491C
:1017300031484FF49E720BF0E7F9FEE760683246DD
:1017400003A91FF027FF042806D02A492A484FF48E
:10175000A0720BF0D9F9FEE703A901200EF062FE9A
:101760000AF0CCF9606808224FF0FF311FF0F4FE58
:1017700030B12049204840F249120BF0C5F9FEE78C
:1017800013F080FC30B11B491B4840F24F120BF0A4
:10179000BBF9FEE7FFF71CFB68B11CF055FB0146E7
:1017A00060681FF03DFF30B11249134840F25312F8
:1017B0000BF0AAF9FEE76468FFF7A4FD154B01469C
:1017C00003F10C02204612F0E9FF30B109490A4842
:1017D0004FF4AD720BF098F9FEE704B070BD00BF96
:1017E0000A0020FF4203000078490020C4200020A6
:1017F000E5090000B5530200DC500200690345EC26
:10180000CA4900204909000010200020CA210020F8
:10181000C9210020E053020008B5044B58681FF0AE
:1018200017FE034BB3FBF0F080B208BD78490020EF
:1018300040420F002DE9F043864D2B889B0787B06F
:1018400006D48549854840F201720BF05DF9FEE748
:10185000AB78033B012B06D97F49804840F20372E5
:101860000BF052F9FEE7AA6832B97B497B4840F297
:1018700006720BF049F9FEE7794E2C88F77914F0DF
:10188000200418BF4FF47A744FEA1718FFF7A0FA34
:10189000002872D0B8F1020F0AD0A8F10303022B7E
:1018A00069D96D496D4840F21A720BF02DF9FEE7C7
:1018B000032795F8343008EBC8089844694B03EBCC
:1018C00048031046B3F81C801EF092FC4FF4FA5304
:1018D00043437822B3FBF8F37733B3FBF2F31F44AF
:1018E000C7EB0717AB78FF00BFB204F5347417FAE3
:1018F00084F4042BA4B203D107F6E8072744BCB252
:10190000D5F808801EF069FC0746A8681EF070FC38
:1019100007441EF088FCBFB23F1A1EF05EFC404434
:101920000EF064FD64238DF80C304F4BD5F8049015
:10193000CDE90434C0F340141EF081FCBFB203466D
:1019400041463A4648461FF05BFF2B88718831803C
:1019500013F0200F03AB75D000936868434B224609
:1019600012F0F2FE002872D03B493C4840F2D962A6
:101970000BF0CAF8FEE706279BE7FFF737FA0028C7
:1019800044D0384B07F00F0708EBC801394403EB8C
:1019900041031046B3F81C901EF02AFCB8F1000F6A
:1019A0002AD0B8F1010F2AD1400080B24FF00408CC
:1019B000F3191B7E4BB10233034443449BB24FF4F3
:1019C000FA525343B3FBF9F39CB2AB78042B97D193
:1019D0003744FFF7F5FC3B7E053398448146FFF71B
:1019E0001BFF0C2308FB00F003FB09F909EBC009FE
:1019F000A1441FFA89F483E74FF00208D8E716499B
:101A0000164840F23B720BF07FF8FEE7FFF704FF49
:101A10000746A8681EF0ECFBAB780930784304EB6E
:101A2000C000042B84B27FF46BAFFFF7C9FC0746FC
:101A3000FFF7F2FE602358430C2303FB070020440A
:101A400084B25DE76868224612F070FE8AE707B04C
:101A5000BDE8F08378490020B5530200DC50020055
:101A6000C4200020E053020020A107008849002084
:101A7000F8B5484C258815F0020506D04649474878
:101A80004FF4B3720BF040F8FEE784F820501CF0DE
:101A900027F823885A0706460AD51FF0DFFE236B76
:101AA000C01A238D984203D929460420FEF786FFE9
:101AB00030461CF01BF8A778022F37D11CF010F825
:101AC000238813F00405064607D035480DF0F8FAD0
:101AD0003046BDE8F8401CF009B81CF007F8A068D3
:101AE00010F02AF920B1A570BDE8F840FFF756B80C
:101AF0001BF0F6FFA66805461EF06FFB30440EF0A3
:101B000075FC10F0200F0CBF03230423012138467D
:101B1000A370FEF753FFFFF78DFE28461BF0E6FF8C
:101B200001210846BDE8F84011F014B8042F27D170
:101B30001C4B1B79FF2B2CD1237FF3B11BF0D0FF63
:101B400023885B07054604D515480DF0B9FA2846E9
:101B5000BFE71BF0CBFF237F013B23771BF0C0FFC8
:101B6000012104460220FEF729FFFFF763FE20460D
:101B70001BF0BCFF01210820D4E7A3704020B3E78D
:101B8000012F06D160680023A37012F0C7FD312039
:101B9000AAE7F8BD78490020B5530200DC500200E6
:101BA00098490020C420002038B5012104461020A7
:101BB000FEF704FF064B5D68FFF702FC054B00FBD8
:101BC00004F1012228461FF0F3FB002038BD00BFBE
:101BD00078490020C10B000010B50A4C2388DB06B1
:101BE00006D40949094840F275320AF08DFFFEE734
:101BF00010200021FEF7E2FE6068BDE810401FF0F3
:101C0000E5BB00BF78490020B5530200DC5002005C
:101C100038B50D4DE88E30B90C490D4840F282328E
:101C20000AF072FFFEE70DF06DFE0446E88E0DF03F
:101C300085FE811F214401200EF0F4FB04461FF0B5
:101C40000DFE001B38BD00BF78490020B5530200CF
:101C5000DC50020010B5074CA36833B906490748A9
:101C600040F291320AF050FFFEE71FF0F7FDE36A01
:101C7000C01A10BD78490020B5530200DC500200A4
:101C800038B50A4DE88E30B909490A4840F29B320E
:101C90000AF03AFFFEE70DF035FE0446E88E0DF03F
:101CA0004DFE044414F8020C38BD00BF78490020F2
:101CB000B5530200DC50020038B50A4DE88E30B949
:101CC00009490A4840F2AA320AF01EFFFEE70DF069
:101CD00019FE0446E88E0DF031FE044414F9070C99
:101CE00038BD00BF78490020B5530200DC50020027
:101CF00038B50A4DE88E30B909490A4840F2B93280
:101D00000AF002FFFEE70DF0FDFD0446E88E0DF03F
:101D100015FE044414F9010C38BD00BF78490020B9
:101D2000B5530200DC500200024B1888C0F3C0100B
:101D3000704700BF7849002030B50F4B05460FCBE8
:101D400085B06C4684E80F000DB12B6800930B4BF7
:101D500021465868002212F03BFF044630B1084982
:101D6000084840F2D7320AF0CFFEFEE7FEF744FE05
:101D7000204605B030BD00BF6854020078490020FD
:101D8000B5530200DC50020008B5074B0146586805
:101D90001FF0D0FC30B10549054840F2E5320AF0A9
:101DA000B3FEFEE708BD00BF78490020B55302002E
:101DB000DC50020008B5064B58681FF0D2FC30B169
:101DC000044905484FF47C720AF09EFEFEE708BD08
:101DD00078490020B5530200DC500200024B01227A
:101DE000586811461FF0E0BA784900207047F8B5EE
:101DF000054604200C461EF0D2F903061DD5104EF0
:101E0000B778D7B91DB1012D02D00220F8BD012746
:101E10002046FFF791FA0028F7D070683A4621462D
:101E20001FF0DBFA30B1074907484FF486620AF029
:101E30006BFEFEE70623B370E8E77020E6E700BF1D
:101E400078490020B5530200DC50020010B5042090
:101E50001EF0A5F9030610D5094CA378062B0CD16A
:101E600060681FF0BDFA30B10649074840F24942A8
:101E70000AF04AFEFEE7A07010BD7020FCE700BF2C
:101E800078490020B5530200DC50020008B5034930
:101E9000034840F261520AF037FEFEE7B5530200F4
:101EA000DC5002000348044B834202D0034B03B1D1
:101EB00018477047F8210020F8210020000000009A
:101EC0000548064B1B1AD90F01EBA301491002D09C
:101ED000034B03B118477047F8210020F821002078
:101EE0000000000010B5064C237843B9FFF7DAFF75
:101EF000044B13B10448AFF300800123237010BDDD
:101F0000B84F002000000000F074020008B5054B37
:101F10001BB105490548AFF30080BDE80840FFF755
:101F2000CFBF00BF0000000028240020F074020092
:101F3000A3F5803A704700BF174B002B08BF134B27
:101F40009D46FFF7F5FF00218B460F461348144AC4
:101F5000121A20F002FA0E4B002B00D098470D4BBE
:101F6000002B00D098470020002104000D000D48F0
:101F7000002802D00C48AFF300801AF061F820006E
:101F800029001BF068FB19F0A7FE00BF0000080045
:101F9000000000000000000000200020F8210020C8
:101FA000145000200000000000000000BFF34F8F1D
:101FB0000549CA6802F4E062044B1343CB60BFF3E7
:101FC0004F8F00BFFDE700BF00ED00E00400FA0501
:101FD00070B582B004468368C26853F822301E7818
:101FE0001DF004FA864222D300230093ADF804309A
:101FF000204B1B88ADF80230A168E36851F823201C
:102000001278ADF804206268D21A012A21DD01336A
:1020100051F823301B88ADF8003068461DF0DAF91E
:102020000446032002F08AFCC0B902B070BD054628
:10203000032002F083FC0028F7D01BF0D9FB1BF033
:10204000D8FB2B4632460C490C4800681CF0B2FC09
:10205000EBE740F2FF13ADF80030DEE71BF0C8FB02
:102060001BF0C7FB22460649044B18681CF0A2FC73
:10207000DBE700BFF64E0020E027020068290020C1
:102080001828020010B582B08368C26853F8223065
:102090001C780023019343689B1A012B0FDD01AAD2
:1020A00001211BF06DFF01469DF804001DF08AF927
:1020B00020461DF093F9044620B902B010BD1DF072
:1020C00085F9F5E7032002F039FC0028F5D01BF074
:1020D0008FFB1BF08EFB22460249034B18681CF055
:1020E00069FCEAE7282802006829002010B50346A9
:1020F0008168C26851F82200B0F900001A4C2080B3
:102100005B689B1A012B0FDD013251F8223093F9E5
:102110000010003918BF01211DF005F9A0B90320F6
:1021200002F00CFC10B910BD0021F5E71BF060FBBC
:102130001BF05FFB0D4B1C681DF0F9F802460C49C3
:1021400020461CF037FCEEE7012002F0F7FB0028E8
:10215000E9D01BF04DFB1BF04CFB0649034B186804
:102160001CF028FCDFE700BFF64E002068290020A5
:10217000442802005828020010B584B000230093C0
:102180008268C36852F8232012788DF80C20022A46
:1021900010D18268013352F823301B78ADF8043037
:1021A00001A81DF003F90446032002F0C7FB58B94B
:1021B00004B010BD6A4601211BF0E2FE0146009A00
:1021C00001A820F003F8EBE71BF012FB1BF011FB5A
:1021D00022460349034B18681CF0ECFBE8E700BFFC
:1021E000BC280200682900202DE9F04186B01DF0CE
:1021F000AAF80446894B1B7813F0020F2CD0884EA6
:1022000013F0010F2AD0864F13F0040F28D0DFF807
:102210001082032002F092FB28BB032002F08EFB09
:1022200058BB032002F08AFB002835D1032002F0BE
:1022300085FB00283ED1032002F080FB002847D117
:10224000032002F07BFB00285ED1032002F076FB26
:10225000002867D1002471E0724ED1E7714FD3E7B7
:10226000DFF8C081D5E71BF0C3FA1BF0C2FA6E4954
:102270006E4B18681CF09EFBCFE71BF0B9FA1BF001
:10228000B8FA6A4B1D6805F02BFA02460B466849FE
:1022900028461CF08FFBC4E71BF0AAFA1BF0A9FA32
:1022A000624B1D681DF023F80246624928461CF067
:1022B00081FBBBE71BF09CFA1BF09BFA5B4B1D6894
:1022C0001DF04DF802465C4928461CF073FBB2E74E
:1022D0001BF08EFA1BF08DFAE279A37961792079EF
:1022E000E57894F802C094F801E024780594CDF8DC
:1022F00010E0CDF80CC00295019000914F494B4879
:1023000000681CF057FB9BE71BF072FA1BF071FA98
:10231000464B1C681DF01BF80246494920461CF03C
:1023200049FB92E71BF064FA1BF063FA45493F4B07
:1023300018681CF03FFB8DE70134E4B2072C12D87B
:10234000032002F0FBFA0028F6D01BF051FA1BF034
:1023500050FA364B1D681CF0F6FF025D3A492846DC
:102360001CF028FBE8E7032002F0E8FA98B9032004
:1023700002F0E4FAC8B9032002F0E0FA18BB032027
:1023800002F0DCFA68BB032002F0D8FA002836D14C
:1023900006B0BDE8F0811BF02BFA1BF02AFA2B499E
:1023A000224B18681CF006FBE1E71BF021FA1BF03A
:1023B00020FA1E4B1C681CF0CEFF02462449204622
:1023C0001CF0F8FAD7E71BF013FA1BF012FA174BC0
:1023D0001C681CF0A4FF02461E4920461CF0EAFAC5
:1023E000CDE71BF005FA1BF004FA104B1C681CF03B
:1023F0009EFF0246184920461CF0DCFAC3E71BF09A
:10240000F7F91BF0F6F9CDF800803B463246134948
:10241000064800681CF0CEFABAE700BFBE210020D3
:102420007028020078280200D428020068290020C1
:10243000DC280200F82802001429020030290200DA
:10244000542902007029020084290200344F02003E
:102450008C290200A8290200C0290200D829020004
:1024600010B58368C26853F8223018781CF053FF07
:10247000044678B9032002F061FA00B910BD1BF0E0
:10248000B7F91BF0B6F922460A490B4B18681CF045
:1024900091FAF3E7012002F051FA0028EED01BF088
:1024A000A7F91BF0A6F922460449034B18681CF053
:1024B00081FAE3E7102A020068290020342A02008A
:1024C00070B582B08368C26853F822301B78134A13
:1024D000137013F0020F0ED0114C13F0010F0CD03B
:1024E0000F4D13F0040F0AD00D4E032002F026FA10
:1024F00038B902B070BD0B4CEFE70A4DF1E7094E59
:10250000F3E71BF075F91BF074F900962B46224691
:102510000549064800681CF04DFAEAE7BE21002094
:102520007028020078280200842802006829002010
:1025300070B58268C36852F823100C78013352F8E2
:1025400023301D78294620461CF038FF80B903202F
:1025500002F0F4F900B970BD1BF04AF91BF049F91B
:102560002B4622460B490C4800681CF023FAF2E780
:102570000646012002F0E2F90028ECD01BF038F901
:102580001BF037F932460549034B18681CF012FA64
:10259000E1E700BF642A020068290020942A0200B3
:1025A00008B51CF0B0FE032002F0C8F900B908BD60
:1025B0001BF01EF91BF01DF90249034B18681CF0B3
:1025C000F9F9F4E7C42A02006829002030B583B085
:1025D0008368C26853F822301C7801A920461CF099
:1025E00096FE88B9032002F0A9F908B903B030BDFE
:1025F0001BF0FEF81BF0FDF8019B22460B490C482E
:1026000000681CF0D7F9F1E70546012002F096F9C1
:102610000028EBD01BF0ECF81BF0EBF82A4605493C
:10262000034B18681CF0C6F9E0E700BFE42A02007B
:1026300068290020002B020010B58368C26853F897
:1026400022301C78631EDBB2032B03D8204601F036
:102650007DFE10BD012002F071F90028F9D01BF0B9
:10266000C7F81BF0C6F80423224603490348006854
:102670001CF0A0F9EDE700BF242B02006829002020
:1026800030B595B004460D4668461AF069FF0DF165
:102690002C0EEC46BCE80F00AEE80F00BCE80F00C3
:1026A000AEE80F00DCF80030CEF800300BA9494B43
:1026B00018681DF0E7F810F1880F4BD168461AF042
:1026C0004FFF0DF12C0EEC46BCE80F00AEE80F00FA
:1026D000BCE80F00AEE80F00DCF80030CEF80030A8
:1026E0004FF410510BA81AF05BFF8023ADF82E3089
:1026F0004FF440730A930AA81AF043FF0A9B0E9303
:10270000354B0F93334B1A680C9B0D9213F0FF0F50
:1027100004D123F0FF0343F001030C9301230C9336
:102720002C4B2A4621460BA81DF0CFF8044610BBBF
:10273000032002F003F990B9264B18681CF0DFFD66
:102740000546002831D1032002F0F8F8044610BBFA
:1027500001242FE01F4B18681DF07CF8AEE71BF03A
:1027600047F81BF046F81B4B1A681C491C4B1868AD
:102770001CF020F9E0E7032002F0E0F80028DBD0AD
:102780001BF036F81BF035F822461649144B186832
:102790001CF010F9D0E71BF02BF81BF02AF81249B7
:1027A0000F4B18681CF006F904E0032002F0C6F88D
:1027B000044610B9204615B030BD1BF019F81BF0C7
:1027C00018F82A460949064B18681CF0F3F800244B
:1027D000F0E700BF40240020004440045C2B0200CE
:1027E000682900208C2B0200B02B0200D02B0200A5
:1027F00000B583B00021019101AA1BF0C1FB019932
:1028000010290ED0032002F099F860B11AF0F0FF01
:102810001AF0EFFF10220549054B18681CF0CAF8A2
:1028200001E0FFF72DFF03B05DF804FBF02B020081
:102830006829002010B582B000240094ADF804404F
:102840001CF0D4FDC0B2ADF804004FF6FF73ADF834
:102850000030ADF8024068461CF0BCFDB0B9032062
:1028600002F06CF820B9FF201CF0B8FD02B010BDDA
:102870001AF0BEFF1AF0BDFFBDF80030BDF804200D
:102880000B490C4800681CF095F8ECE70446012061
:1028900002F054F80028E9D01AF0AAFF1AF0A9FFB4
:1028A00022460549034B18681CF084F8DEE700BF98
:1028B000182C020068290020402C020010B582B0BC
:1028C00002F026FAC0B9032002F038F828BB6946A6
:1028D000002002F05DFA044648BB032002F02EF807
:1028E000002834D1254B00221A70032002F026F86C
:1028F000002838D102B010BD0446012002F01EF8B5
:102900000028F7D01AF074FF1AF073FF22461C4912
:102910001C4B18681CF04EF8ECE71AF069FF1AF02F
:1029200068FF1949174B18681CF044F8CFE70120DD
:1029300002F004F80028DDD01AF05AFF1AF059FF0F
:10294000224612490F4B18681CF034F8D2E71AF0EF
:102950004FFF1AF04EFF019B009A0D49094800688D
:102960001CF028F8BEE71AF043FF1AF042FF0949AD
:10297000044B18681CF01EF8BCE700BFBA4F0020DB
:10298000642C020068290020882C0200AC2C020074
:10299000D02C0200002D020030B585B00121264860
:1029A00003F0B8F80121254803F0B4F801230B2205
:1029B0000A21022004F04AFB01230B2211460220C7
:1029C00004F044FB1E4C4FF46163A364032565646B
:1029D0001C4BEC460FCB8CE80F0000238DF8003029
:1029E0006146204604F0C4FBE2236361FE23A36139
:1029F000154BE363236C43F4833343F024032364D4
:102A0000124B4FF40032C3F880211A600121204696
:102A10001BF068F9284601F091FF08B905B030BDF8
:102A20001AF0E6FE1AF0E5FE71220949094B186812
:102A30001BF0C0FFF2E700BF00350A00008204006F
:102A400000C00040482F0200FFFF070000E100E047
:102A5000482D02006829002010B594B009F0B0FBA1
:102A6000032001F06BFF00283CD10124864B1C6041
:102A70000BA81AF0AAFD0BA920461CF003FF10F1C9
:102A8000880F39D00BA81CF08BFF032001F056FFF4
:102A9000002840F0A2807C4B18681CF030FC1CF031
:102AA00089FC0446032001F049FF002840F09F8084
:102AB000932C00F0A780002C40F0A780032001F0A9
:102AC0003DFF002800F0A7801AF092FE1AF091FE58
:102AD0006E4B1C681CF03BFC02466D4920461BF007
:102AE00069FF98E01AF084FE1AF083FE6949674B8B
:102AF00018681BF05FFFB8E7032001F01FFF0028F4
:102B000050D10BA81CF04CFF68461AF05EFD0DF189
:102B10002C0CEE46BEE80F00ACE80F00BEE80F003C
:102B2000ACE80F00DEF80030CCF80030564B1A68E5
:102B30000C9B0D9213F0FF0F04D123F0FF0343F021
:102B400001030C93544B0F934FF440730A930AA85C
:102B50001AF04CFD0A9B0E934FF410510BA81AF07B
:102B600054FD8023ADF82E3001230C93464B1022E8
:102B70004A490BA81CF0A9FE04460BA81CF010FF44
:102B8000D4B9032001F0DAFE002884D01AF030FE18
:102B90001AF02FFE3C4B1A6841493C4B18681BF059
:102BA00009FF78E71AF024FE1AF023FE3D49374B5F
:102BB00018681BF0FFFEA4E7012001F0BFFE00280B
:102BC0003FF469AF1AF014FE1AF013FE224636499C
:102BD0002E4B18681BF0EEFE5DE71AF009FE1AF0A6
:102BE00008FE3249294B18681BF0E4FE53E71AF03F
:102BF000FFFD1AF0FEFD22462D49244B18681BF0FC
:102C0000D9FE55E7FFF716FE05E0012001F096FE1C
:102C1000D0B9FFF70FFE0023264A1370264A13602F
:102C2000264A1360264B4FF6FF721A80FFF746FEC6
:102C3000FFF7B2FE032001F081FE80B9032001F00E
:102C40007DFEB0B914B010BD1AF0D2FD1AF0D1FD5E
:102C500022461C490D4B18681BF0ACFED9E71AF050
:102C6000C7FD1AF0C6FD1849084B18681BF0A2FEF4
:102C7000E4E71AF0BDFD1AF0BCFD1449034B1868D7
:102C80001BF098FEDEE700BF4024002068290020EA
:102C90006C2E02008C2D0200004440040020002015
:102CA000EC2D0200C42D0200102E0200302E020076
:102CB000502E0200BA4F0020482400204424002057
:102CC00084210020B02E0200E42E0200FC2E02001F
:102CD000394B596B11F4C06F0DD110B483B011F0A2
:102CE000040F14D0344BDA69344A002010800422D7
:102CF000DA635A600BE020225A60D9632F4B00221E
:102D00001A8070472C4BDB692B4B04225A602A4BEC
:102D1000DB6813F4807F10D0284B1B889BB2872B75
:102D2000F0D8254BDA69254C23889BB2581C80B219
:102D30002080D2B22248C254E6E711F4803F30D05E
:102D400000230193019B632B0ADC1B4BDB6813F40C
:102D5000807F05D1019B01330193F3E7164BDB69BB
:102D6000154BDB6813F4807F10D0144B1B889BB28B
:102D7000872BF3D8104BDA69104C23889BB2581C70
:102D800080B22080D2B20E48C254E9E70A4B4FF419
:102D90008032DA63094B1B889BB213B1094B0122C5
:102DA0001A7021F4803121F00401034BD96303B080
:102DB0005DF8044B704700BF00C00040F84E002093
:102DC0004C240020B94F0020002301E00133DBB286
:102DD000032B10D81946094A02EBC3021279002AC4
:102DE000F4D0064A12F833208242EFD1034B03EBB2
:102DF000C103588870474FF6FF7070478025002048
:102E0000014B01221A707047C24F00200023184660
:102E100001E00133DBB2032B10D8094A02EBC302F5
:102E20001279002AF5D0064A02EBC30251884FF608
:102E3000FF729142EDD00130C0B2EAE7704700BFA7
:102E40008025002000B583B0032001F077FD10B984
:102E500003B05DF804FB1AF0CBFC1AF0CAFC084B77
:102E60001A78084B1B780193074B1B680093074B9C
:102E70001B680749074800681BF09CFDE8E700BF96
:102E8000BA4F0020BD210020482400204424002007
:102E9000582F02006829002010B582B0002301934A
:102EA00006E0002108326A4402F8041C0133DBB258
:102EB000032B0AD81A46134901EBC30109790029EB
:102EC000EFD0104911F83310ECE704230DEB0302A7
:102ED00002210D48006811F05BF8044608B902B001
:102EE00010BD012001F02AFD0028F8D01AF080FC66
:102EF0001AF07FFC22460549054B18681BF05AFD65
:102F0000EDE700BF802500207C2000208C2F0200F0
:102F10006829002070B582B00446431EDBB2032B43
:102F200003D80D464FF0000C34E0012001F006FDFF
:102F3000002800F087801AF05BFC1AF05AFC224649
:102F40004649474B18681BF035FD7BE01AF050FCF2
:102F50001AF04FFC434B03EBC60300955B882246F7
:102F600041493F4800681BF025FD2CE0032001F09B
:102F7000E5FC70B31AF03CFC1AF03BFC2B462246F1
:102F80003A49374800681BF015FD22E00CF1010CAE
:102F90005FFA8CFCBCF1030F21D86646314B03EB82
:102FA000CC0E9EF80430002BF0D02E4B13F83C30A2
:102FB000A342EBD1BEF80230AB42D7D0032001F0E0
:102FC000BDFC0028C2D1274B03EBC6035D80FFF791
:102FD00063FF244B03EBC60301225A7132E04FF02A
:102FE000000C10E01AF004FC1AF003FC00962B46CB
:102FF00022461F491A4800681BF0DCFC1BE00CF15C
:10300000010C5FFA8CFCBCF1030F17D86646154B18
:1030100003EBCC031B79002BF1D1124B03F83C409E
:1030200003EBCC035D8001221A715A71032001F079
:1030300085FC0028D6D1FFF72FFF03E0012001F027
:103040007DFC08B902B070BD1AF0D2FB1AF0D1FBBA
:103050000849034B18681BF0ADFCF3E7B42F0200DE
:103060006829002080250020DC2F020004300200A7
:10307000303002006030020030B585B00446F023E5
:103080008DF80830184B1B788DF80930174B1B68EA
:103090008DF80A30C3F307228DF80B20C3F30742E3
:1030A0008DF80C201B0E8DF80D30114B1B78019301
:1030B00002AB00930623002202211CF068F908B934
:1030C00005B030BD0546012001F038FC0028F7D0DE
:1030D0001AF08EFB1AF08DFB2B4622460549064856
:1030E00000681BF067FCEBE7BC21002048240020AF
:1030F000BE21002080300200682900200023032B1D
:1031000070D830B585B029E01AF072FB1AF071FB67
:10311000364A02EBC4035B8812F834203449354840
:1031200000681BF047FC50E0012001F007FC18B9D3
:10313000314B00221A704FE01AF05AFB1AF059FB7B
:103140002B462A4A12F834202C492A4800681BF0E2
:1031500031FCEDE70133DBB2032B3FD8284A14786A
:103160001C4404F00304214A02EBC4021279002A31
:10317000F0D01E4A02EBC40250884FF6FF72904214
:10318000E8D0631C03F003031D4A1370174B03EBD5
:10319000C40100224A7113F834301A490B70B0216F
:1031A0008DF80C108DF80D30174B1B78019303AB85
:1031B0000093022319461CF0EAF805460028B3D113
:1031C000032001F0BBFB00289ED10B4B01221A709B
:1031D0001BF0F3FE0D4B186005B030BD064B00220E
:1031E0001A70F9E7044B00221A70704780250020FE
:1031F000AC30020068290020BC4F0020CC30020017
:10320000BF4F0020BD4F0020BE21002074250020AC
:1032100000B583B0032001F091FBA0B90023144A4C
:103220001360144A1370144A1370144B1888FFF774
:1032300023FF1BF0C2FE124B1860124B04221A70BF
:1032400003B05DF804FB1AF0D3FA1AF0D2FA0E4B71
:103250001B6801930D4B1B7800930D4B1B78074A9D
:1032600012880C490C4800681BF0A4FBD6E700BF8D
:103270007C250020C34F0020C14F00208421002066
:10328000C0250020BA4F002048240020BC21002087
:10329000BD210020F03002006829002000B583B075
:1032A0000023154A1370154A1370154A1370FFF75F
:1032B000ADFD38B1134B01221A70FFF71FFF03B0A9
:1032C0005DF804FB032001F039FB48B900230193AA
:1032D00000930D4A41F288310C481AF0A0F9EEE74C
:1032E0001AF086FA1AF085FA41F288320849094B39
:1032F00018681BF05FFBE9E7BF4F0020BE4F0020BE
:10330000BC4F0020BB4F00209D3200005425002000
:10331000243102006829002030B583B000230193D6
:1033200004230DEB030202213348006810F07AFEFB
:1033300008B9002423E0032001F000FB08B903B022
:1033400030BD1AF055FA1AF054FA2C492C4B186873
:103350001BF030FBF3E70133DBB2032B0BD8294A18
:1033600002EBC3021279002AF5D0264911F8331076
:10337000A942F0D100E00022AAB10134E4B2032C4A
:10338000DDD804F108036B4413F8045C6B1EDBB258
:10339000032BF2D82846FFF717FD4FF6FF7398422C
:1033A000EBD10023D9E70023032BE6D8154A02EB23
:1033B000C302127912B10133DBB2F5E7114A02F808
:1033C000335002EBC3034FF6FF725A8001221A7189
:1033D00000225A719A71032001F0B0FA0028CCD073
:1033E0001AF006FA1AF005FA2A460749044B18683B
:1033F0001BF0E0FAC1E700BF7C200020543102003E
:1034000068290020802500208C310200F0B585B0AD
:103410000D46032940F282804678837846EA0326E7
:10342000C778041D3B1D8B4200F288807B1E13F081
:10343000800F40F09480994B1B78DBB2012B15D0A4
:10344000974B1B68002B00F09A800023954A13606D
:10345000954A1380954BAA221A70904B01221A703C
:10346000032001F06BFA002840F094804FF6FF73C0
:103470009E4204D08C4B1B88B34240F09580884B11
:103480001A682AB1874B1B683B449A42C0F09F8060
:103490003B46224683490968002001F0B5FC0546F9
:1034A000002840F0AC803B46814A7E4909680020F4
:1034B00001F08CFC38B93A4621467D481EF023FFC6
:1034C000002840F0B280774A13683B441360764985
:1034D0000A8801320A804FF6FF72964200F0B980E6
:1034E000744BA3FB06231B09322202FB13639BB21E
:1034F000002B40F08B80032001F020FA002800F020
:1035000085801AF075F91AF074F9664B1B6832461B
:1035100069496A4800681BF04DFA77E0012001F024
:103520000DFA002872D01AF063F91AF062F92A46EF
:103530006349624B18681BF03DFA67E0012001F017
:10354000FDF9002862D01AF053F91AF052F92B1F36
:103550003A465C49594800681BF02CFA56E00120B5
:1035600001F0ECF9002851D01AF042F91AF041F9B3
:103570003A465549514B18681BF01CFA46E002A91F
:10358000002001F005FC00287FF45FAF039A444B54
:103590001A605AE71AF02CF91AF02BF94B49474BED
:1035A00018681BF007FA61E7022001F0C7F900284C
:1035B0003FF465AF1AF01CF91AF01BF93A4B1B885F
:1035C000324643493D4800681BF0F4F957E70120B3
:1035D00001F0B4F918B9314B08221A7016E01AF04C
:1035E00007F91AF006F92E4B1B6800933B462D4A4B
:1035F00012683849314800681BF0DCF9EBE701201C
:1036000001F09CF920B9254B08221A7005B0F0BDD5
:103610001AF0EEF81AF0EDF82B46224A12682E49FD
:10362000264800681BF0C6F9EDE7012001F086F995
:1036300018B91A4B08221A70E8E71AF0D9F81AF0EC
:10364000D8F8184B1A6825491C4B18681BF0B2F9BA
:10365000EFE7234A1360114B02221A70032001F096
:103660006DF978B9032001F069F90028CED01AF07D
:10367000BFF81AF0BEF804221A49104B18681BF064
:1036800099F9C3E71AF0B4F81AF0B3F8144B1A68B2
:1036900015490A4B18681BF08DF9E3E7BA4F002073
:1036A0007825002044240020FA4E0020BC21002070
:1036B000D42400201F85EB517C33020068290020B0
:1036C000CC310200E831020018320200343202002C
:1036D000603202008C320200B4320200D8320200A2
:1036E00048240020343302000033020030B583B098
:1036F000012924D944786946204601F049FB002875
:103700002DD114B9019A364B1A60032001F016F935
:10371000002839D1204601F095FB054600283ED10E
:10372000032001F00BF900284ED1002C3ED10023DC
:103730002C4A13602C4A13802C4A137036E00C4636
:10374000012001F0FBF888B31AF052F81AF051F892
:1037500022462749274B18681BF02CF926E0022047
:1037600001F0ECF828B9002CCFD11D4B00221A60D3
:10377000CBE71AF03DF81AF03CF822461E491D4BE3
:1037800018681BF017F9EEE71AF032F81AF031F862
:1037900022461A49174B18681BF00CF9BAE70120AA
:1037A00001F0CCF820B9114B08221A7003B030BDDB
:1037B0001AF01EF81AF01DF82B46224610490D4843
:1037C00000681BF0F7F8EEE71AF012F81AF011F89B
:1037D00022460C49074B18681BF0ECF8A5E700BF20
:1037E0007825002044240020FA4E0020BA4F002003
:1037F0009833020068290020B8330200F433020035
:10380000143402003434020038B5012922D9447836
:103810005D4B1B78DBB2022B2BD1002C3AD0631E00
:10382000DBB2032B00F282802046FFF7CDFA05467B
:103830004FF6FF73984200F08A80544B1C70544B33
:103840001880032001F07AF8002840F09180FFF7FB
:10385000DFFC38BD012001F071F80028F9D019F023
:10386000C7FF19F0C6FF4B494B4B18681BF0A2F875
:10387000EFE7012001F062F80028EAD019F0B8FF64
:1038800019F0B7FF404B1A784449434B18681BF0B6
:1038900091F8DEE7032001F051F880B900210846D5
:1038A00001F048FBA8B9002001F0EAFA68B3012052
:1038B00001F044F8F8B9344B02221A70C9E719F044
:1038C00097FF19F096FF3649334B18681BF072F8D2
:1038D000E4E7012001F032F818B92B4B02221A70EC
:1038E000B7E719F085FF19F084FF2E492A4B1868B5
:1038F0001BF060F8F1E719F07BFF19F07AFF2A4915
:10390000254B18681BF056F8D5E7032001F016F890
:1039100010B901F027FA9CE719F06AFF19F069FF66
:1039200022491D4B18681BF045F8F2E7012001F011
:1039300005F800288DD019F05BFF19F05AFF042319
:1039400022461B49144800681BF034F881E7012027
:1039500000F0F4FF00283FF47CAF19F049FF19F0A4
:1039600048FF224613490C4B18681BF023F870E7F8
:1039700019F03EFF19F03DFF2B4622460E4906483E
:1039800000681BF017F862E7BA4F0020BD21002045
:103990008421002048340200682900207434020089
:1039A000AC340200D4340200143502003C3502006D
:1039B0006C3502009C350200D035020030B5A3B052
:1039C0001D4B1C88A4B2882C00D9882422461B4990
:1039D00068461EF0FBFB64B19DF80050042D19D819
:1039E000DFE805F00703090E130021466846FFF7DC
:1039F00029FA23B030BD21466846FFF707FDF8E7F6
:103A000021466846FFF772FEF3E721466846FFF756
:103A1000FBFEEEE7012000F091FF0028E9D019F04D
:103A2000E7FE19F0E6FE23462A46054905480068E8
:103A30001AF0C0FFDDE700BFF84E00204C24002044
:103A4000183602006829002030B583B0284B1B7857
:103A5000DBB9284B1C780134E4B21C70FFF7D6F9AF
:103A6000054608B184423FD3032000F067FF58BBEE
:103A70000023214A137001930093204A41F28831B8
:103A80001F4819F0CCFD03B030BD1BF096FA1D4B5A
:103A90001B68C01A06F01CFE40F2DB539842F2D9B4
:103AA000032000F04BFF18B9114B00221A70D0E729
:103AB00019F09EFE19F09DFE134B1A781349144B12
:103AC00018681AF077FFEFE719F092FE19F091FEEF
:103AD00041F2883300932B46064A12780D490C4870
:103AE00000681AF067FFC3E7FFF708FBCBE700BFEA
:103AF000BC4F0020BE4F0020BB4F00209D32000075
:103B00005425002074250020BD4F00203C360200C3
:103B1000682900205836020010B5724B1B78DBB2C2
:103B2000062B00F08E80082B00F0C480042B00D000
:103B300010BD6D4B1B78002B3CD0032000F0FEFE27
:103B400088B96A4B1A786A4B19686A4B188807F06B
:103B5000E7FD0446D8B9032000F0F0FE68B9614BD8
:103B600005221A70E4E719F043FE19F042FE62499B
:103B7000624B18681AF01EFFE3E719F039FE19F0DE
:103B800038FE5F495D4B18681AF014FFE7E7012023
:103B900000F0D4FE18B9534B08221A70C8E719F088
:103BA00027FE19F026FE22465649544B18681AF093
:103BB00001FFF0E71BF001FA534B1B68C01A06F037
:103BC00087FD42F210739842B2D9504A13780133FC
:103BD000DBB21370032B1AD9012000F0AFFE50B9ED
:103BE0004B4BFF221A70434B4FF6FF721A803D4B2E
:103BF00002221A709CE719F0FBFD19F0FAFD434B05
:103C00001A7844493D4B18681AF0D4FEE8E70120C1
:103C100000F094FE40B9374B1888FFF72DFA1BF0DF
:103C2000CCF9394B186083E719F0E2FD19F0E1FD9A
:103C30000323364A12783849304800681AF0BAFE31
:103C4000E9E7364B1B78002B3FF472AF334B002271
:103C50001A70032000F072FE68B9264B1A88234BB5
:103C600019784FF4FA6007F097FD044678B91D4BB8
:103C700007221A705CE719F0BBFD19F0BAFD4FF48A
:103C8000FA6227491D4B18681AF094FEE5E70120F7
:103C900000F054FE18B9134B08221A7048E719F0C7
:103CA000A7FD19F0A6FD22461E49144B18681AF00C
:103CB00081FEF0E7012000F041FE40B9144BFF22E5
:103CC0001A700023184A1380064A137030E719F05F
:103CD0008FFD19F08EFD1549084B18681AF06AFE21
:103CE000ECE700BFBA4F0020C34F0020BC210020EA
:103CF00048240020842100208C36020068290020FE
:103D0000BC360200DC360200C0250020C14F002076
:103D1000BD210020FC3602003C370200C24F0020CB
:103D20006837020094370200FA4E0020B8370200CC
:103D30000279531EDBB2012B00F2E2802DE9F04143
:103D400084B00446C388FBB180680178A02915D0EF
:103D5000B1292CD0F1295BD0012A15D1694B1B78F0
:103D600013F0010F03D0237813F0010F0CD00320C0
:103D700000F0E4FD00285ED1002568E0012B06D9A3
:103D800061884078FFF7C6F804B0BDE8F0810120F3
:103D900000F0D4FD0028F7D019F02AFD19F029FD14
:103DA00062885949594B18681AF004FEECE7022B57
:103DB000EAD945788678002301E00133DBB2032B92
:103DC00011D81946524A02EBC3021279002AF4D0E4
:103DD0004F4A12F83320AA42EFD14D4B03EBC103F7
:103DE00001225A719E71032000F0A8FD18B9494BB9
:103DF00000221A70C8E719F0FBFC19F0FAFC0096D3
:103E000063882A464449414800681AF0D3FDEEE72A
:103E1000032000F093FD18B9404B01221A70B3E75C
:103E200019F0E6FC19F0E5FC62883D49374B18684B
:103E30001AF0C0FDF0E719F0DBFC19F0DAFC62883B
:103E40003849324B18681AF0B5FD95E70135E3881B
:103E5000AB4210DD032000F071FD0028F6D019F010
:103E6000C7FC19F0C6FCA3685A5D2F49274B186898
:103E70001AF0A0FDEAE7A16801200CF0D3FA05468C
:103E8000A168043101200CF0CDFA002D34DB0026AE
:103E900085EAE572A2EBE572244B83FB0241D4175D
:103EA000C4EBA1144FF47A7101FB142483FB057257
:103EB000ED17C5EBA215002DB8BF6D42A3FB002383
:103EC0004FEA931801FB18089F09032000F036FD04
:103ED00000283FF459AF19F08BFC19F08AFC0B4B0A
:103EE00018685EB1124ACDF80880019700942B46FD
:103EF00010491AF05FFD47E70126C9E70E4AF2E7CD
:103F0000704700BFBE210020DC3702006829002076
:103F100080250020BC4F002000380200C34F002045
:103F200034380200543802006C380200D34D62105D
:103F3000D437020074380200D837020000B9704745
:103F400010B50446032000F0F9FC00B910BD19F0CB
:103F50004FFC19F04EFC22460249034B18681AF038
:103F600029FDF3E7983802006829002030B583B0B6
:103F7000902811D00446912835D0032000F0DEFCB3
:103F800008B319F035FC19F034FC22462049214BC6
:103F900018681AF00FFD16E0032000F0CFFCA0B95E
:103FA000FF201BF01BFA00241B4B1C701B4D2846E6
:103FB00006F03EFA019400942346194A40F6B831BF
:103FC000284619F02CFB03B030BD19F011FC19F094
:103FD00010FC104B1C681BF0BAF902461149204630
:103FE0001AF0E8FCDCE7032000F0A8FC30B90A4B2B
:103FF00000221A70094806F01BFAE4E719F0F8FBF2
:1040000019F0F7FB0849034B18681AF0D3FCEEE7E8
:10401000D838020068290020BB4F0020542500201A
:104020009D320000AC380200C838020038B50546A1
:104030000C46032000F082FC00B938BD19F0D8FB13
:1040400019F0D7FB2B4622460249034800681AF0B4
:10405000B1FCF2E7F03802006829002008B51D4BDA
:104060001B78BBB11BF047F9D0B11B4819F0A3FC7A
:104070001A4B1B78C3B91A4B1B78EBB1184B1B7842
:10408000DBB2032B20D0164B1B78DBB2022B11D0F6
:10409000012312E00F4B01221A70FFF73DF9E1E70F
:1040A0000D4819F08DFCE3E70C4B00221A70FFF766
:1040B00085FCE0E7002300E000230A4A127802B101
:1040C00023B1FFF729FD08BD0023F6E7FFF7BCFC8D
:1040D000F7E700BFC04F0020F0480200B94F0020B2
:1040E000BA4F0020BB4F002070B582B004460D4689
:1040F0001A460B1A01330146002000F067FEB0B9E2
:10410000214B1C68002C3CD06E1C642205FB022253
:10411000B2FBF4F41D4AA2FB04311D4B1B68A2FB49
:104120000323DB08B3EBD10F14D301202AE00646AA
:10413000012000F003FC08B9002023E019F058FB2F
:1041400019F057FB334622461249134800681AF00B
:1041500031FCF1E7032000F0F1FB18B90C4B1C60B7
:1041600001200FE019F044FB19F043FB064B1B68DC
:104170000093334622460949074800681AF01AFCA2
:10418000ECE7012002B070BD48240020CDCCCCCC9F
:104190007C25002030390200682900205C390200AB
:1041A00010B582B0E8B9032000F0C8FB78B900234D
:1041B000164A137001930093154A4FF4FA7115488B
:1041C00019F02DFA144B06221A7002B010BD19F026
:1041D0000FFB19F00EFB1149114B18681AF0EAFB9E
:1041E000E5E70446012000F0A9FB18B90A4B0822B4
:1041F0001A70EAE719F0FCFA19F0FBFA22460949AD
:10420000074B18681AF0D6FBF0E700BFC24F00203A
:10421000012E0000A0250020BA4F00207C390200AA
:1042200068290020BC39020010B550BB032000F003
:1042300085FB70B9032000F081FBC0B9194BFF2248
:104240001A70194B4FF6FF721A80184B02221A701F
:1042500010BD19F0CDFA19F0CCFA124B1B78124AA6
:1042600012881349134800681AF0A4FBE2E719F01A
:10427000BFFA19F0BEFA10490E4B18681AF09AFBF3
:10428000DCE70446012000F059FB0028D6D019F0E5
:10429000AFFA19F0AEFA22460849064B18681AF030
:1042A00089FBCBE7BD21002084210020BA4F0020EC
:1042B000E8390200682900201C3A0200503A020046
:1042C00010B580B10446012000F038FB00B910BDE4
:1042D00019F08EFA19F08DFA22460A490A4B18682D
:1042E0001AF068FBF3E7032000F028FB0028EED06B
:1042F00019F07EFA19F07DFA0449034B18681AF098
:1043000059FBE4E7803A020068290020A03A020045
:10431000F0B583B004460D4616461F46032000F054
:104320000DFB08B903B0F0BD19F062FA19F061FA9B
:10433000019700962B4622460249034800681AF06E
:1043400039FBEFE7B83A02006829002038B5054686
:10435000FEF73AFD4FF6FF7398420ED00446294B04
:104360001D70032000F0EAFA30BB032000F0E6FAEB
:10437000044668BB0124204638BD012000F0DEFA67
:1043800028B9032000F0DAFA60B90024F3E719F045
:104390002FFA19F02EFA2A461B491C4B18681AF0FE
:1043A00009FBEEE719F024FA19F023FA1849174B24
:1043B00018681AF0FFFAE8E719F01AFA19F019FA72
:1043C00023462A461349114800681AF0F3FACCE74D
:1043D00019F00EFA19F00DFA0C4B18680E4B1B78F9
:1043E000DBB2032B0BD00C4B1B78DBB2022B04D0BF
:1043F0000A4A0B491AF0DEFABDE70A4AF9E7094A08
:10440000F7E700BFBD210020F83A0200682900202C
:10441000383B02006C3B0200BA4F0020EC3A02002D
:10442000983B0200E43A02002DE9F04184B00320F9
:1044300000F084FA50B9032000F080FA80B903201C
:1044400000F07CFAB0B9002425462DE019F0D0F92F
:1044500019F0CFF97149724B18681AF0ABFAEAE714
:1044600019F0C6F919F0C5F96E496D4B18681AF0C4
:10447000A1FAE4E719F0BCF919F0BBF96A49684BF5
:1044800018681AF097FADEE72A271EE0DFF8D881CD
:1044900025E0664B3FE0032000F050FA002844D1AD
:1044A0000135EDB20134E4B2032C50D82646604BFE
:1044B00003EBC4031B79002BF4D05D4B13F83420BD
:1044C0005C4B1B789A42DFD02027594B03EBC60385
:1044D0005B884FF6FF729342D8D0DFF890814FF699
:1044E000FF718B42D7D0032000F028FA0028D7D0E4
:1044F00019F07EF919F07DF9494B18683A464C4B92
:1045000013F8361003EBC6035F8893F806C05B7997
:10451000002BBED0484B0393CDF808C00197009103
:10452000334646491AF046FABAE719F061F919F02C
:1045300060F93F4B13F83630CDF8048000933346D2
:104540003A463F49364800681AF034FAA8E7A5B160
:10455000032000F0F3F9F8B9032000F0EFF928BBCD
:10456000032000F0EBF9002830D1032000F0E6F939
:10457000002849D104B0BDE8F081032000F0DEF945
:104580000028E5D019F034F919F033F92D49244BFE
:1045900018681AF00FFADBE719F02AF919F029F96F
:1045A00021491F4B18681AF005FAD5E719F020F9D0
:1045B00019F01FF91A4B18681E4B1A78FF2A03D0FE
:1045C00021491AF0F7F9CBE70022F9E719F010F9C1
:1045D00019F00FF9124B18681C4B1B78DBB2032B38
:1045E00009D01A4B1B78DBB2022B09D0174B1B7872
:1045F00043B9174A00E0174A17491AF0DBF9B4E744
:10460000164AF9E7164AF7E719F0F2F819F0F1F847
:104610001449034B18681AF0CDF9ABE7103C0200BF
:1046200068290020B03C0200EC3C0200D43B0200B0
:1046300080250020BD210020CC3B02008C3D0200E3
:10464000C03D0200F03D02002C3E0200BA4F0020A7
:10465000EC3A0200F03B0200683E0200DC3B020044
:10466000043C0200843E0200B83B0200884C020079
:1046700008B5024B1B6803B1984708BDF42500201C
:1046800008B5024B5B6803B1984708BDF4250020CC
:1046900008B5024B9B6803B1984708BDF42500207C
:1046A00008B5024BDB6803B1984708BDF42500202C
:1046B00008B5024B1B6903B1984708BDF4250020DB
:1046C00008B5024B5B6903B1984708BDF42500208B
:1046D00030B585B0094C2268094B1A60094D0A4B68
:1046E0002B600A4B019304F0F1FD02902B680393B9
:1046F00001A9206819F066FC05B030BD2C2000200F
:104700003834002034340020202000209C4802004F
:1047100008B5024B186819F069FC08BD2C20002070
:1047200038B504F0D3FD0446064D2B68D3F8B0022B
:1047300004F0C0FD286819F073FC204604F0BAFDAF
:1047400038BD00BF2C20002038B501F011FE01213A
:104750000D4801F0DFF901221146002001F04CFD67
:104760000A4C0225C4F8805001221146002001F0B5
:1047700043FDC4F8845001221146002001F03CFDA5
:10478000C4F88850002038BD30253E0000400E405F
:1047900008B5164B01225A6402F0AAFF024668B916
:1047A000134B4AF6E851C3F89011D3F8981141F031
:1047B0000401C3F898110021C3F89011012A0DD902
:1047C0000C4A136A23F4441343F488131362A2F5CA
:1047D0008042136843F48073136008BD044AD2F822
:1047E000643143F40053C2F86431E9E700000E403D
:1047F00000300E4000400E40012900D9704708B536
:10480000034B1B68186808B1436A984708BD00BF8E
:104810003020002030B599B0284D11ACAC46BCE832
:104820000F000FC49CE8070084E8070000240B94E5
:104830000C940D940E940F941094214B0B93214BD8
:104840000C9301228DF8372002238DF83930032391
:104850008DF83B301E238DF83F308DF8403009AB8A
:104860001C3595E8030083E803000DF10C0C03945C
:10487000049405940694079408948CE803000C2390
:104880008DF814300D238DF815300F4B069320232F
:1048900007938DF820208DF821200C4B00930BAB53
:1048A00011AA61460A4804F0E9FE054621464FF484
:1048B000E13018F0D0FF284619B030BDB4480200EE
:1048C0000000014000420400C8280020E828002021
:1048D0003C29002008B50349034805F037FAFFF7E3
:1048E00099FF08BD342000206029002008B5024847
:1048F0001AF074FA08BD00BF3C29002008B5024830
:104900001AF06CFA08BD00BF3C29002008B5024B24
:104910001A6A1868904708BD3C29002008B502486B
:1049200018F0FDFF08BD00BFD848020008B50248D6
:1049300019F03CF808BD00BFF048020003460B4ADE
:10494000107828B10A4A12789A4202D2002000E078
:104950000120084A12783AB1074A127842FA03F362
:1049600013F0010F00D10020704700BFC1210020CB
:10497000C0210020C44F0020BF21002008B5084BF3
:1049800001221A70074B00221A70074B04221A707A
:10499000064B1F221A7004F099FC054B186008BDE5
:1049A000C1210020C44F0020C0210020BF210020D1
:1049B0006829002008B50121034801F0ABF818F080
:1049C00078FE00F075F808BD00350A0008B5012131
:1049D000014801F09FF808BD00350A002DE9F041BB
:1049E00080460F4601F109050026344604E05B21AC
:1049F000082000F0F9FB0134AC4233D2052C1BD85F
:104A000001A353F824F000BFEF490000214A000041
:104A1000554A0000294A00002D4A0000314A000092
:104A2000FBB20433D9B2E3E78021E1E70021DFE7FD
:104A3000731C3146DEB2DBE7BB1DA3420CD0FB1D6D
:104A4000A3420BD007F10803A34209D0A31F18F813
:104A50000310CDE7D121CBE75A21C9E75A21C7E797
:104A60005D21C5E70020BDE8F08100BF00B583B03F
:104A700000220092019202218DF80010054818F0E2
:104A8000D4FE019008216846FFF7A8FF03B05DF847
:104A900004FB00BF006A1800014B1022DA60704767
:104AA00000A00044014B1022DA60704700A00046CD
:104AB00070B588B00DF1040C374C0FCCACE80F008A
:104AC00094E807008CE807000121344801F022F83F
:104AD000334E0121304601F01DF801258DF81250AA
:104AE000304B0393304C01A9204619F051F92B4665
:104AF00004220621022002F0A9FA00232A460721F7
:104B0000022002F0A3FA2B4604220821022002F020
:104B10009DFA2B4604221146002002F097FA234BFF
:104B2000A3670B2363674FF4487006F007FBFFF79A
:104B3000B3FF142006F002FBFFF7B4FF232006F0BA
:104B4000FDFAFFF7A9FFB921204619F06BF9FFF72D
:104B5000A9FF00231A460621022002F077FA00235B
:104B60001A460721022002F071FA2B460022082182
:104B7000022002F06BFA2B4600220421104602F0BC
:104B800065FA204602F00EFE0021A16761673046FB
:104B900000F0C0FF08B070BD0849020000350A00EF
:104BA0000052040000127A00000401400B0B000BBD
:104BB00008B500F087F8124A0AE01068516850F80A
:104BC000230041F82300013391688B42F5D30C3266
:104BD0000C4B9A4201D20023F6E70B4A08E0116819
:104BE000002041F82300013351688B42F7D308328B
:104BF000064B9A4201D20023F6E7FDF79DF900BF6C
:104C0000F8740200047502000475020004750200C5
:104C10000048704700F04902114BD3F8943003F07C
:104C20000703023B032B0DD8DFE803F0050F020852
:104C30000C4B18680BE00C4B186808E00B4B18681D
:104C4000400804E0094B186801E04FF40040044BB1
:104C5000D3F80031C3F304230133B0FBF3F0704702
:104C600000400E405020002054200020482000200A
:104C700008B5FFF7D1FF054BD3F80831C3F308237C
:104C80000133B0FBF3F0024B186008BD00400E404A
:104C90004C200020014B1868704700BF54200020B2
:104CA00008B5064B1860064BD3F8943003F00703A1
:104CB000022B00D008BDFFF7DBFFFBE754200020EC
:104CC00000400E40044B054A9A60D3F8882042F415
:104CD0007002C3F88820704700ED00E0000000007B
:104CE000014B1868704700BF50200020BFF34F8F62
:104CF0000549CA6802F4E062044B1343CB60BFF37A
:104D00004F8F00BFFDE700BF00ED00E00400FA0593
:104D100008B5114BD3F82828A2F17E63A3F584339C
:104D2000B3F5104F11D211680C4B994210D10C4BB6
:104D30001B781BB1022B01D0002008E0D3699847F3
:104D400028B9074B01221A7001E04FF4817008BDA9
:104D50004FF48170FBE700BF0000E10F07B0CD5EAC
:104D6000C54F002008B54FF0005340F202221A80D0
:104D70004FF20F025A80054A01239360136823F40F
:104D8000E06343F480631360FFF7B0FF00500E4010
:104D900008B50D4BD3F82828A2F17E63A3F5843320
:104DA000B3F5104F0AD2126BA2F17E63A3F58433E0
:104DB000B3F5104F05D29368984701E04FF4817026
:104DC00008BD4FF48170FBE70000E10F38B50D4CD2
:104DD000D4F82848A4F17E6CACF5843CBCF5104FA7
:104DE0000AD2256BA5F17E64A4F58434B4F5104F86
:104DF00005D2EC68A04701E04FF4817038BD4FF454
:104E00008170FBE70000E10F38B50D4CD4F828485D
:104E1000A4F17E6CACF5843CBCF5104F0AD2256B36
:104E2000A5F17E64A4F58434B4F5104F05D22C6945
:104E3000A04701E04FF4817038BD4FF48170FBE76B
:104E40000000E10F08B50D4BD3F82828A2F17E63CE
:104E5000A3F58433B3F5104F0AD2126BA2F17E632F
:104E6000A3F58433B3F5104F05D25369984701E099
:104E70004FF4817008BD4FF48170FBE70000E10F33
:104E800000B583B001900F4BD3F82828A2F17E63C0
:104E9000A3F58433B3F5104F0CD2126BA2F17E63ED
:104EA000A3F58433B3F5104F09D29369012101A80A
:104EB000984701E04FF4817003B05DF804FB4FF4B4
:104EC0008170F9E70000E10F10B50A4BD3F82848CC
:104ED000A4F17E63A3F58433B3F5104F04D2236BA2
:104EE0002BB15B6A984701E04FF4017010BD4FF49D
:104EF0000170FBE70000E10F08B50D4BD3F828283F
:104F0000A2F17E63A3F58433B3F5104F0AD2126B7E
:104F1000A2F17E63A3F58433B3F5104F05D2936AF3
:104F2000984701E04FF4017008BD4FF40170FBE7B2
:104F30000000E10F30B5E1B0124BD3F82838A3F1EF
:104F40007E63A3F58433B3F5104F15D20C464FF4AE
:104F5000C0726946FFF7B8FF054678B92146684632
:104F6000FFF7CAFF40F201239842F7D040F2032333
:104F7000984203D0054601E04FF40175284661B020
:104F800030BD00BF0000E10FF0B18446F1B110B4B4
:104F900009E004F120000FE02033C01A18D1BCB1A1
:104FA0000CF1010C01319CF800400B4B1B5D03F030
:104FB0000303012BEDD020460B78074AD25C02F0A8
:104FC0000302012AE9D1E7E7012070470120704779
:104FD0005DF8044B704700BF937302000346064A16
:104FE00010680344054A934202D8034A136070478D
:104FF0004FF0FF30704700BF582000200000042011
:105000000B681A78022A00D1704710B508461A7941
:10501000597902EB42021201064C144401EBC4021E
:1050200092001268B2FA82F252091A7018F07EFCED
:1050300010BD00BF1CA0100230B583B00546046847
:105040000121174800F066FD0023012261792079D3
:1050500001F0FCFF2379627903EB43031B01114943
:10506000194402EBC1039B001B68B3FA83F35B098D
:105070002370A379022B02D0002003B030BD00F0D2
:10508000E7FB2A460849607900F00AFC024661798C
:10509000207901230193009301F082FFECE700BF28
:1050A00000350A001CA010020150000002681378AD
:1050B000022B15D01379517903EB43031B011548DB
:1050C000184401EBC0039B0019680B1E18BF012395
:1050D0009079012805D018B9B1FA81F14909117008
:1050E00070475188490089B20B4343F47F4343F032
:1050F000C0034FF6E0718B4205D04FF6DF718B4253
:1051000004D05380704701211170FAE7002111701B
:10511000F7E700BF1CA0100208B50121294800F0E4
:10512000F9FC012304220221052001F08FFF002059
:1051300001F02AFF0121244BC3F810180A4604206D
:1051400001F05AF8214800F0A3FE214BD3F8F020DB
:1051500042F00102C3F8F020D3F8FC2042F0807244
:10516000C3F8FC20A3F55D431A4A1A6000F5D52068
:1051700000F2FC40C008184BA3FB0030800A013845
:10518000164B18610222C3F8F0204FF48072C3F866
:1051900004234FF06043124AC3F8B02F114AC3F8FA
:1051A000802ED3F8002E42F48072C3F8002EFF2226
:1051B00083F82020D3F8002E22F48072C3F8002E4A
:1051C000002008BD00350A000080144206000E00D1
:1051D00000ED00E0FF03004017916502000004E0CD
:1051E00055CEACC5090001004FF06043D3F8803EB6
:1051F00013F0010F01D1112070470E4AD2F8FC3094
:1052000043F08073C2F8FC304FF06043D3F8002EB7
:105210004FF0010C0CFA00FC42EA0C02C3F8002E1D
:1052200053F82030002BE8D04FF0604303F82010F3
:105230000020704700ED00E010B504460121094848
:1052400000F068FC0121084800F064FCA378B3FA80
:1052500083F35B0904226178207801F0F7FE0020D7
:1052600010BD00BF4041050000350A0083784BB9EE
:105270000378427803EB43031B0101219140064A66
:10528000D15070470378427803EB43031B0101219F
:105290009140024AD15070470CA000440CA0004637
:1052A00083784BB90378427803EB43031B01012158
:1052B0009140064AD15070470378427803EB43038C
:1052C0001B0101219140024AD15070470CA00046B9
:1052D0000CA0004402460378417803EB43031B0112
:1052E0000648184401EBC0039B001868C0B29378CD
:1052F00013B9B0FA80F04009704700BF0CA010024B
:10530000F0B585B00C4694469DF83410664A127884
:10531000002A00F0BD800546BCF1070F00F2BA80FC
:105320000A9A002A00F0B8800B9A002A00F0B68092
:105330000E9AB2F5006F00F3B38001285BD05B4A90
:1053400002EB0C12127B002A00F0AC8000220092CB
:10535000019202920392564A02EB4C1E002C4FD14E
:105360004FEA4C1600209051CEF80400CEF8080009
:10537000CEF80C009EF8020040F010008EF80200FB
:105380009EF8030040F030008EF8030021B9C1B24E
:1053900041F003018EF8031000930E9B013B444A39
:1053A0004FEA4C1002EB4C11165A63F30E161652CC
:1053B0000A9B8B600B9B4B60CB789DF83C2062F383
:1053C0008303CB70012D36D0109B002B56D0374A6B
:1053D0004FEA0C1102EB0C1310985050119A5A60BE
:1053E00000249C605D7372466946604601F02AFFA6
:1053F000204605B0F0BD0C9A002AA0D12D48F8E750
:105400002B4F4FEA4C1607EB4C120020B85150605E
:105410009060D060907840F010009070D07840F0AC
:105420000300D0700029B7D107EB4C12C1B241F094
:105430003001D170B0E70E460A7B42F001020A73D8
:10544000D2B242F002020A73CA68042161F39F02D9
:10545000F26006F1100796E80F0087E80F00F26986
:105460006FF0030161F39F02F2610C9B7361012CE9
:10547000AAD10B9AB2610C9A7260A5E7002DA6D151
:105480000B4B03EB4C139A786FF304129A709EE760
:105490000948AEE70748ACE70648AAE70548A8E789
:1054A0000448A6E70548A4E7C64F00206C2A002060
:1054B0006C290020018000F0028000F0078000F0DD
:1054C000134B1B78FBB110B50446F0B118F008FB84
:1054D0000023072B13D80F4A02EB0312127B0AB1E9
:1054E0000133F6E723600B4A190102EB0313012491
:1054F0001C730024545018F0F9FA204602E018F00A
:10550000F5FA054810BD054870470548FAE700BFA1
:10551000C64F00206C2A0020048000F0028000F0BA
:10552000018000F038B518F0DBFA04460023072BA1
:1055300006DC0C4A02EB0312127B12B90133F6E7C8
:10554000002222B1204618F0D1FA074838BD01F0F8
:105550002DFE0025054B1D70204618F0C7FA284681
:10556000F4E700BF6C2A0020058000F0C64F002041
:105570000F4B1B78BBB110B50446072815D818F09F
:10558000AFFA0C4B03EB04131B7B1BB918F0AEFAFC
:1055900009480BE0074B03EB041300241C7318F0BD
:1055A000A5FA204602E005487047054810BD00BF37
:1055B000C64F00206C2A0020068000F0028000F018
:1055C000018000F000B583B0144B1B6801930023E9
:1055D0008DF8043018F084FA114B1B7833B9104B56
:1055E00001221A7018F082FA002309E018F07EFAFE
:1055F0000C480FE00C4A02EB031200211173013337
:10560000072BF7DD04238DF807300DEB030001F0C5
:10561000EFFD002003B05DF804FB00BF74490200F9
:10562000C64F0020038000F06C2A002008B50A4B0A
:105630001B785BB107280BD8084B03EB00131B7BCF
:1056400043B1002101F0CAFD002008BD0448FCE779
:105650000448FAE70448F8E7C64F00206C2A002007
:10566000028000F0018000F0078000F008B50A4BCE
:105670001B785BB107280BD8084B03EB00131B7B8F
:1056800043B1012101F0AAFD002008BD0448FCE758
:105690000448FAE70448F8E7C64F00206C2A0020C7
:1056A000028000F0018000F0078000F008B50A4B8E
:1056B0001B7853B107280AD8084B03EB00131B7B58
:1056C0003BB101F013FE002008BD0548FCE705488A
:1056D000FAE70548F8E700BFC64F00206C2A002013
:1056E000028000F0018000F0078000F0104B1B7872
:1056F000ABB1072815D8B1B10E4B03EB00131B7BE0
:105700009BB10D4B1B6E0122824013EA020003D0B5
:1057100001230B700020704700230B70704707486F
:10572000704707487047064870470648704700BFF3
:10573000C64F00206C2A002000200E40028000F09E
:10574000018000F0078000F00C4B1B7873B110B59E
:105750000C4607280CD869B1094B03EB00131B7BDF
:1057600053B101F0D7FD2070002010BD05487047EF
:105770000548FAE70448F8E70448F6E7C64F002072
:105780006C2A0020028000F0018000F0078000F009
:10579000F8B5194B1F6EDB6E1F4002D401250024A3
:1057A00002E0FEE701346D00072C24D83D42F9D019
:1057B000114B9D662301114AD358002BF2D002EB06
:1057C0000416B1680131B16072682046984780F0D4
:1057D0000100C0B2737B012BE4D10028E2D0084B5A
:1057E00003EB44131A7B6FF341021A731A7F6FF3B2
:1057F00041021A77D6E7F8BD00200E406C2A00203F
:105800006C29002010B5044602E0202007E09047F4
:10581000DCB194FAA4F00028F7D0B0FA80F00123AC
:10582000834024EA0304094B03EB00135A68002A5F
:10583000EED0064B03EB00131B7B002BE7D0034B92
:1058400003EB001399689047E2E710BDEC2A0020B3
:1058500008B5122000F046FE28B1084B4FF4802214
:10586000C3F880211A600A2000F03CFE28B1034BE7
:105870004FF48062C3F880211A6008BD00E100E0A7
:1058800038B505460C4618F02BF9044B03EB05130D
:105890005C6000221A7318F029F938BDEC2A002048
:1058A000F8B505460F46164618F01AF905F0FC0C37
:1058B0000F4BD3F828140023032B0BD85C1904F0EA
:1058C0000304644421FA04F212F0010F03D00133FF
:1058D000DBB2F1E7FF24FF2C06D0064B03EB0413E9
:1058E0005F609E6001221A7318F000F92046F8BD2F
:1058F00000A00040EC2A002008B5064BD3F828048D
:10590000D3F81C24104000F05530C3F82404FFF7EE
:1059100079FF08BD00A0004008B5064BD3F8280465
:10592000D3F81C24104000F0AA30C3F82404FFF779
:1059300069FF08BD00A0004008B5034B1968034B80
:1059400018680EF04BFA08BD5C2000207C20002077
:10595000B0F1FF3F01D010B97047024870470248CC
:10596000704700BF21E000F024E000F0F8B50546E4
:105970000E469400224618F0BCF9FFF7E9FF0746EF
:1059800028B92246314628461CF0BDFC08B93846E5
:10599000F8BD014FFBE700BF10E000F038B504464A
:1059A00001F08CFDFFF7D4FF054608B1284638BD4D
:1059B00001F0A6FE0146204618F02FF80028F5D188
:1059C000004DF3E70EE000F008B518F07AF8014B4F
:1059D000186008BDDC33002008B5024B186818F0C9
:1059E00074F808BDDC330020074BDB6B13F0400F6D
:1059F00004D1064BD3F8C830002BFAD1024B5868BB
:105A0000C0F30140704700BF00300E400000C643A5
:105A10000C4B984205D90C4B984210D801210A46EC
:105A200001E000210A46094B1A64094AD2F8003104
:105A300023F0807343EA0163C2F80031704702210A
:105A40000122F0E70048E8010090D0030000C843BD
:105A500000400E40014B1868704700BF80200020B6
:105A6000114B5B68002300E00133042B0CD80F4A74
:105A700002EBC30292F804C0CAB29445F4D10B4AB7
:105A800052F833208242EFD3052B0BD0074A02EBAA
:105A9000C3035979044A536823F0407343EA01630E
:105AA000536070470321F5E700000E409C49020057
:105AB00008B5FFF7B1F8044BD3F80031C3F3042362
:105AC00003FB000008BD00BF00400E4010B5084BAE
:105AD0001C6CA4B241F671321A64FFF799F80021E8
