S01C0000636F6E6E6563745F736F635F656D7074795F5350492E73333771
S21400000000200020192500009B6901009B69010063
S214000010E37301009B6901009B6901009B69010075
S2140000209B6901009B6901009B6901009B690100B7
S2140000309B6901000CA501009B6901009B690100FA
S2140000409B690100F1300100CD8400009B6901002E
S21400005021290100BF960100BB9601001131010065
S214000060B39601007D2C00009B6901009B6901008E
S214000070AD2200009D2200009B6901009B690100E3
S2140000809B6901009B690100AD1F00009B69010090
S214000090512000009B6901009B6901009B690100DB
S2140000A09B6901009B6901009B6901009B69010037
S2140000B045310100B7960100C57C00008131010082
S2140000C09B690100A91401009B6901009B6901005E
S2140000D09B6901009B6901009B6901009B69010007
S2140000E09B6901009B6901009B6901009B690100F7
S2140000F09B6901009B6901009B6901009B690100E7
S2140001009B6901009B6901009B69010000000000DB
S214000110013800D0FCE77047000000000000000037
S21400012001F0FF01102A2BDB10F0070F08D010F8A3
S214000130013B013A8B422DD010F0070F42B3F6D1A7
S214000140F0B441EA012141EA014122F007047FF0C0
S21400015000070023F0E80256083C85EA010586EA17
S214000160010685FA47F5A3FA87F586FA47F6A5FA53
S21400017087F68EB9EED1F0BC01F0FF0102F007025F
S21400018032B110F8013B013A83EA010313B1F8D10A
S2140001900020704701387047002D06BF35460338EB
S2140001A0073815F0010F07D1013015F4807F02BF24
S2140001B0013015F4C03F0130F0BC0138704700BF75
S2140001C02DE9F04F2DED028B91B082460C469346FA
S2140001D01D46DDE91C231046194615F005FB0028D0
S2140001E000F007814FF0FF32B14BDDE91C0115F03E
S2140001F023FB002840F0FD804FF0FF326FF48013A1
S214000200DDE91C0115F0FAFA002840F0F280002221
S2140002100023DDE91C0115F0F1FA002840F0FE800D
S2140002209DED1C7B8DED067B209B13F480630F9366
S21400023001D106231E93DDE906010246C1F30A50EA
S214000240C1F31303904643F07F5949F44019A0F2D6
S214000250FF3014F0F7FF84A3D3E9002315F05CF811
S21400026083A3D3E9002314F0A1FE06460F4600221E
S214000270904B4046494614F097FE7FA3D3E90023EF
S21400028015F04AF802460B463046394614F08EFE04
S21400029015F0DCFA064614F0D5FF8046894678A3AA
S2140002A0D3E9002315F038F80022834B14F07EFEC5
S2140002B015F0CCFA074674A3D3E900234046494616
S2140002C015F02AF880468946384614F0BBFF70A31E
S2140002D0D3E9002315F020F802460B46404649466F
S2140002E014F062FE8046894602460B4615F014F866
S2140002F0CDE90A0107F2FF3700210022CDE90812F6
S2140003003B0509930023089342464B464046494620
S21400031014F04CFECDE90C0142464B4600204FF04F
S214000320804114F041FE804689460022634BDDE999
S2140003300A0115F01BF90022614B14F037FE024645
S2140003400B46DDE90A0115F011F900225D4B14F0A9
S2140003502DFE02460B46DDE90A0115F007F90246B6
S2140003600B464046494614F021FE02460B46DDE9A0
S2140003700C0115F0FBF80022534B14F017FEDDE9D4
S214000380082314F0C9FF8046894649EC188BDDE93E
S214000390062315F051FA40B1013E0022484B404674
S2140003A0494615F0E3F841EC180B06F16303C62B3B
S2140003B03FD80427209B13F4006F44D036A3D3E91C
S2140003C00023DDE906894046494615F02BFA002849
S2140003D03FD033A3D3E900234046494615F00EFA32
S2140003E0002836D01E9BB34225DD9E1B731E1E932F
S2140003F023E0209B04931F9B03931E9B02939DED7B
S2140004001C7B8DED007B2B465A462146504600F05D
S214000410CFF811B0BDEC028BBDE8F08F9FED227BCC
S2140004208DED067B1C9B06931D9B03F100430793F3
S214000430FAE60527BEE700231E93209B43F480635D
S214000440209300273E461F9B9F423FD2A3EB070800
S2140004503EE01E9B002BF6D00F9B002BF3D01E9B7E
S214000460013B1E93EFE700BFFB799F501344D33F39
S214000470B3C8608B288AC63F61436F63A787D23FA5
S21400048071A379094F930A401655B5BBB16B02406C
S214000490EF39FAFE422EE63F2D431CEBE2361A3FBA
S2140004A00000000080842E410000000000000000D4
S2140004B0FFFFEF7F0000F83F0000E03F00002C4009
S2140004C000002440000018400000F03F4FF00008F5
S2140004D0209B13F0020902D00FB14FF000083EB186
S2140004E053EC182BDDE9060115F040F8CDE90601BE
S2140004F000220023DDE91C0115F080F900283DD11B
S214000500209B23F400630493CDF80C801E9B02937B
S2140005109DED067B8DED007B2B465A4621465046C8
S21400052000F046F8002F3FF474AF209B13F0200F26
S2140005302CD04FF0450C00F101082B460246214610
S2140005406046D04786EAE672A2EBE672052305937C
S214000550013F0497002303930A230293F30F0193AA
S21400056000922B4642462146504617F09DFAB9F1B6
S214000570000F3FF44EAF02461F9F10E0DDE9060174
S214000580024601F10043CDE90623B9E74FF0650CBA
S214000590D1E7561C2B4621462020D0473246A2EBF8
S2140005A00B03BB42F5D3104633E700BF0000000044
S2140005B02DE9F04F2DED028B95B007900A919246EB
S2140005C09B46DDE92089229D42464B4640464946E9
S2140005D015F00AF9002840D04FF0FF326FF4801370
S2140005E04046494615F00AF9002845D14FF0FF323B
S2140005F09F4B4046494615F01FF900284BD198A35B
S214000600D3E900234046494615F016F900285AD18A
S21400061095A3D3E900234046494615F0EFF8002895
S21400062051D1002200234046494615F0E7F800283D
S21400063057D100230B93249B13F4806F5CD00024C7
S2140006401F2C5BD8092D59D904F150036B44302276
S21400065003F8202C013D0134F2E7249B0393239BEF
S214000660029303230193834B00935B4652460A99F9
S214000670079817F03FF92CE1249B0393239B0293E2
S214000680042301937C4B00935B4652460A990798D5
S21400069017F030F91DE1249B13F004030FD0774ABE
S2140006A07BB104232499039123990291019300922C
S2140006B05B4652460A99079817F01CF909E1704AFA
S2140006C0EEE70323EEE7249B0493239B0393029514
S2140006D0CDE900895B4652460A990798FFF770FDF8
S2140006E0F7E042464B460020002114F05DFC8046B1
S2140006F0894601230B939EE70625A0E74046494618
S21400070015F0A4F8064614F09DFD02460B4640463A
S214000710494614F049FC5B4B03EBC50393ED008B95
S21400072053EC182B14F0F8FD02460B46CDE90823CF
S21400073015F0B4F8074614F075FD02460B46DDE9E1
S214000740080114F031FC02460B46CDE908230022CE
S2140007504D4B15F071F850B30137384614F062FD72
S21400076002460B4651EC180B15F052F808B101364C
S214000770002755BB304614F065FD02460B46404642
S214000780494614F011FC0746884600223E4B15F0F9
S21400079035F838B100223C4B3846414615F04CF847
S2140007A0002842D016F0010F3FD001363DE000226F
S2140007B0354BDDE9080115F021F80028D9D117B12D
S2140007C017F0010FD5D00137D3E71F2C17D8013DFE
S2140007D02E4BA3FB0723DB08194603EB8303A7EB8B
S2140007E04303621C303304F150000DEB000404F8A0
S2140007F0203C092F02D90F461446E6E714461F2C64
S2140008000AD86B1E45B104F150026A44302102F842
S214000810201C1D460134F2E71F2C06D804F15003B5
S2140008206B442E2203F8202C01341F2C33D8184A90
S21400083082FB0632F317C3EBA2031A4603EB8303CD
S214000840A6EB4303611C303304F150000DEB0004AB
S21400085004F8203C1646EAB10C46E6E7AFF3008003
S2140008600000000065CDCD410000000065CDCDC183
S214000870FFFFEF7F08AA01000CAA0100FCA90100F7
S21400088004AA010018AA01000000E03FCDCCCCCCA1
S214000890676666660C46249B03F00303012B1DD097
S2140008A01F2C09D80B9B002B35D004F150036B444A
S2140008B02D2203F8202C0134249B0393239B0293C0
S2140008C001940CAB00935B4652460A99079817F0C2
S2140008D011F815B0BDEC028BBDE8F08F239BB3B1C9
S2140008E00B9B1BB9249B13F00C0F12D0239B013BD0
S2140008F02393194606E004F150036B44302203F8B4
S214000900202C01348C42CBD21F2CF4D9C8E7239973
S214000910F8E72399F6E7249B13F0040F07D004F1B9
S21400092050036B442B2203F8202C0134C4E7249B8D
S21400093013F0080FC0D004F150036B44202203F8D4
S214000940202C0134B8E700BF7FB54E6802A90446E4
S21400095018F09AFB9DF808300E2B19D1134BB3F9FB
S2140009600050134B9E4218D805F056FD034600680B
S21400097000909B88ADF804306946204618F071FB5D
S21400098070B10C490C4840F21C6208F049F9FEE7C9
S21400099020460EF081F80546E3E705F039FDE5E769
S2140009A02946204618F072FB04B070BDE8440020CB
S2140009B0FFC99A3BA9AC010081AA010038B50446DC
S2140009C00D4616F039F9064A13889BB22DB123431B
S2140009D01380BDE8384016F035B923EA0403F7E77C
S2140009E0F83F0020034B002201214FF480709A70DC
S2140009F0E4E700BFF83F00207FB50023134C0393C5
S214000A00CDE90133FF238DF8043016F015F922885E
S214000A1063880F4E9A4205460DD061887068218023
S214000A2001AA0DF027FE58B10A490B4840F297621A
S214000A3008F0F6F8FEE7706818F0D5F90128ECD053
S214000A40284616F0FFF804B070BD00BF94200020C2
S214000A50F83F0020A9AC010081AA010038B50F4C70
S214000A60A56835B90E490F4840F27C7208F0D8F8F0
S214000A70FEE717F0EEF8284409F0B0FD00F0070096
S214000A80032809D1A4680921204617F0FEF9205C46
S214000A90031F5842584138BD0020FCE7F83F0020AD
S214000AA0A9AC010081AA010010B5114CA378042B53
S214000AB006D01049104840F2445208F0B1F8FEE75C
S214000AC023881B0706D40B490B4840F2455208F012
S214000AD0A7F8FEE700210820FFF770FF074B6068C5
S214000AE002221A710DF094FDBDE8104016F050BEBB
S214000AF0F83F0020A9AC010081AA01009420002044
S214000B0010B5084C60680DF083FD606818F06BF94E
S214000B10012806D0012260681146BDE8104018F092
S214000B2064B910BDF83F002038B5194DAB7833B125
S214000B30184919484FF4DC6208F072F8FEE716F020
S214000B407BF8298811F00601044609D001214FF4EC
S214000B508070FFF733FF2046BDE8384016F072B8C5
S214000B604FF48070FFF72AFF0BF0A6FA012805D095
S214000B7010F0FD0F05D1FFF73FFFECE7FFF7C0FFD2
S214000B80E9E70449044840F2F66208F049F8FEE74F
S214000B90F83F0020A9AC010081AA010070B5074DFE
S214000BA095F90C600446FFF7BFFF0BF085F9AA68BD
S214000BB031462046BDE870400AF0BCBFF83F002032
S214000BC008B50A4B1B88DB0606D40949094840F2DB
S214000BD0695208F025F8FEE700211020FFF7EEFE28
S214000BE00BF0E6FABDE8084016F0D2BDF83F00204C
S214000BF0A9AC010081AA01000D4B1B889B0710B50C
S214000C00044613D500210220FFF7D8FE094B5A7977
S214000C10FF2A06D00849094840F29A4208F000F830
S214000C20FEE75C71BDE8104016F0B2BD10BD00BF17
S214000C30F83F002094200020A9AC010081AA010002
S214000C407047704710B50E4CA37833B10D490E4867
S214000C5040F2C51207F0E4FFFEE7A06019B1A17CE0
S214000C60003918BF01212020FFF7A8FE074B0848CF
S214000C709B7923770223A370BDE8104008F018BBC9
S214000C80F83F0020A9AC010081AA010094200020B2
S214000C901840002008B509F00DF980F00100C0B238
S214000CA008BD0A4B9A780AB1062A0CD11B8803F4B1
S214000CB08B7343B9064B5A79FF2A04D11879FF384B
S214000CC018BF012070470120704700BFF83F002082
S214000CD09420002008B509F0DDF80028FBD108BDF7
S214000CE00C4B42881A8242789A740278DA748288A8
S214000CF09A82C288DA82C2689A61074A017A91713A
S214000D00028A198D914204D001214FF400701A8591
S214000D1054E67047F83F002094200020094B1A8ABA
S214000D2042809A7C4270DA7C02709A8A8280DA8AE2
S214000D30C2809A69C260044A1B8D9279027203824D
S214000D40704700BFF83F0020942000204B1E012B68
S214000D5070B50C4606D91B491B484FF42A7207F09B
S214000D605FFFFEE7194D0A460146686818F0A2FACA
S214000D7030B11449144840F2AA2207F051FFFEE7AA
S214000D806E6808F009FA22460146304618F08CFADA
S214000D9030B10C490C4840F2AE2207F041FFFEE7A6
S214000DA06D6808F005FA22460146284618F088FACB
S214000DB030B10449044840F2B22207F031FFFEE7A2
S214000DC070BD00BFA9AC010081AA0100F83F002059
S214000DD0054BDB791B0913F00E0003D0052B8CBFE7
S214000DE000200120704700BF94200020044BDB79D0
S214000DF01B0913F00E0F0CBF01200020704700BF28
S214000E00942000202DE9F04F16469A0591B08146B1
S214000E101F4603D501218020FFF7D0FDF3014FF0D8
S214000E20000852D59A4C23889D074ED5994D6B796C
S214000E30FF2B06D09849994840F2664207F0F0FE2C
S214000E40FEE7A36833B99449944840F2674207F036
S214000E50E7FEFEE741460220FFF7B0FDA37885F8DF
S214000E600580042B03D101210820FFF7A7FD8C4A3B
S214000E706068002118F029F930B18749874840F2A8
S214000E80714207F0CDFEFEE7FFF7A2FFA8B9D4F83F
S214000E90048016F0DEFE0546A06816F0E5FE29186A
S214000EA07F4A89B2404618F021F930B17A497B482A
S214000EB040F2774207F0B4FEFEE7A378032B02D198
S214000EC060680DF0A5FB16F063FCB80702D501209C
S214000ED0FFF792FE16F0A84F02D00220FFF78CFE16
S214000EE0B10220D50021402005ACFFF767FD214662
S214000EF0484618F00BFAB0B99DF81C30022B0AAA27
S214000F0022D18DF83030BDF81430ADF828301046B8
S214000F100AF0DAFF38B1484618F0F6F918B9012198
S214000F204020FFF74BFD320752D5594D05AA686899
S214000F30032118F08AF9804688B95749574840F285
S214000F40B34207F06DFEFEE7032B05BFD4E90001B0
S214000F508DF830308DF83000C2E90001D7E79DF8F3
S214000F6014306868072B40F022810AAA414618F020
S214000F7070F9824630B14849484840F2B64207F018
S214000F804FFEFEE7FFF724FFBDF8161090B9FFF7F7
S214000F902DFF68B10431686889B20AAA18F05BF9B7
S214000FA040B13D493D4840F2C74207F039FEFEE7F2
S214000FB00231F0E7BDF816000730012180B208F0D4
S214000FC0C3FE039000284AD101210C2016F02EFC07
S214000FD0B10705D52E4B1B881A0701D5FFF764FD10
S214000FE0B3010AD500210420FFF7E8FC284B9A78C5
S214000FF0012A02D158680DF00BFB16F0284F03D0DB
S21400100000210420FFF7DAFC7E060CD5204C23884E
S2140010101D0701D5FFF748FD2388580703D5002193
S2140010200420FFF7CBFCF90540F1CF80484617F0C7
S214001030D8FE022802D0032840F0C080144C238833
S2140010405A0703D500210420FFF7B8FC23889B0726
S21400105040F1BB80012011B0BDE8F04FCCE508F0B0
S21400106049FD4FF0000BCDF800B0BDF81630024633
S21400107004464146686818F008F9BDF81630834201
S21400108010D0054905484FF49B6207F0C9FDFEE7FE
S214001090F83F002094200020A9AC010081AA01009E
S2140010A02440002016F0D5FD204409F097FA00F001
S2140010B00700022823D1AB78042B89D116F0C9FD8E
S2140010C0434B20441B7882789A4281D159460820A7
S2140010D0FFF774FC16F0BDFD204409F07FFA3D4B87
S2140010E0C0F3001018719DF836302B73FFF7B6FC6E
S2140010F000287FF46DAF68680DF08AFA68E716F08E
S214001100A8FD204409F06AFA830649D516F0A1FD29
S214001110204409F063FA00F00700032828D00121D4
S2140011200420FFF74BFC18F0BAF82863BDF8163019
S2140011309DF83620E254BDF816309DF8372023443B
S21400114001209A71BDF816100A9A0131214409F05F
S21400115053FABDF8163003981C4484F805A008F02E
S21400116087FE1D4B187808F0A9F916F011FB2FE73B
S2140011700921204616F089FE205C04284FF0010164
S214001180CED1FFF71BFC18F08AF828632B88580688
S214001190CCD559464020FFF711FC4FF0010AC5E7B1
S2140011A0AB78012BC2D168680DF032FABEE718F0B2
S2140011B046F86868414618F065F809E707490848A0
S2140011C040F2B55207F02CFDFEE711B0BDE8F08FF7
S2140011D06540002094200020683F0020A9AC010054
S2140011E081AA010008B50246FFF7F2FD30B1072AD2
S2140011F006D8044B002083F8342008BD7020FCE796
S2140012000220FAE7F83F002008B50246FFF7E0FDA7
S21400121028B1044B93F834301370002008BD7020BA
S214001220FCE700BFF83F002008B5074B0146002248
S214001230586818F03FF830B1044905484FF4377243
S21400124007F0EEFCFEE708BDF83F0020A9AC010061
S21400125081AA010008B5074B01460022586818F01D
S21400126023F830B10449054840F2E22207F0D8FCE2
S214001270FEE708BDF83F0020A9AC010081AA0100E6
S21400128008B5074B0146586818F020F830B10549F4
S21400129005484FF43A7207F0C3FCFEE708BD00BFEE
S2140012A0F83F0020A9AC010081AA010008B5064B52
S2140012B09B7833B10549064840F2F22207F0B0FCAD
S2140012C0FEE7BDE808402FE4F83F0020A9AC010087
S2140012D081AA010008B5044B0146586817F0D6FEEF
S2140012E0002818BF8B2008BDF83F0020014B586827
S2140012F00DF0D2BBF83F0020014B5888704700BF66
S214001300942000207FB50123ADF80E3009484FF633
S214001310FE7300930DF10E02002304A9406817F037
S21400132034FE012894BFBDF810004FF6FF7007B0DA
S2140013305DF804FBF83F002008B5044B01465868EA
S21400134017F0A9FDB0FA80F0400908BDF83F00206C
S21400135038B50B4DAB78012B04460DD8FFF7ECFFE4
S21400136060B1084B5C80AB781BB9FFF7DDFB002053
S21400137038BDFFF741FBFAE73E20F9E78A20F7E79A
S214001380F83F002094200020024B9B780BB9FFF713
S214001390CBBB7047F83F0020014BD874704700BFA6
S2140013A0F83F002008B5054B0121586817F040FDAE
S2140013B00028B8BF033040F3870008BDF83F002080
S2140013C008B5044B586817F062FD034BB3FBF0F00A
S2140013D080B208BDF83F002040420F0030B58DB007
S2140013E02C220446002101A818F0B2FC0123264D49
S2140013F08DF808304FF002326423CDE903230693BC
S2140014000B238DF82C302B8DADF80A30FFF7E0FC5F
S214001410A0B140F2F23307934FF47A7305930CB9F8
S214001420FFF76EFB686801A90DF00AFCB8B1174912
S214001430174840F2696207F0F3FBFEE7FFF7C0FFCC
S2140014400C234343902BA3F10A0207930592DCBFBB
S21400145091230793059B8B2BE1D88C23DEE7FFF7C0
S214001460C5FC60B101226868114617F03DFF30B137
S2140014700649074840F26C6207F0D2FBFEE70CB95B
S214001480FFF752FB0DB030BDF83F0020A9AC0100BD
S21400149081AA0100F8B5574C15F0CEFB2388D90574
S2140014A0064603D5A37843BBFFF73EFB524D6B7948
S2140014B0FF2B13D06B7903F0FF0723BBFF236B7161
S2140014C0A378032B0AD100233046A37015F0BAFB8D
S2140014D03846FFF763FB15F0AFFB0646A378042BF0
S2140014E008D12B79FF2B05D02B79022B14D143483A
S2140014F007F0DEFEFF232B7128E000214FF48070FA
S214001500FFF75CFAD2E76B79012B4FF0FF036B71A4
S21400151014BF89278D27D6E72B7913B12B79012B9A
S2140015201FD1FFF79BFA2B790022FF212971DBB22E
S21400153084F820200546002848D0012B0AD12F48E1
S214001540A370642107F0BFFEFFF756FA304615F089
S21400155079FB06E03046A27015F074FB3120FFF7E9
S2140015601DFB23881A0608D500218020FFF726FADF
S214001570606817F0FEFD0AF0FCFD23889B0507D582
S2140015804FF400700021FFF719FA0020FFF726FF3E
S21400159008F080FCE08628B308F0ACFA0121054686
S2140015A0002016F043F9A678012E15D1002684F8FF
S2140015B02060A670FFF7B8FA28460AF0F5F9A37877
S2140015C0E6867BB9BDE8F8400AF076BCA0703046E7
S2140015D015F038FB2846C2E72EB128460AF0E4F993
S2140015E00023E386F8BDFFF79FFA28460AF0DCF9E9
S2140015F0E686F7E7F83F00209420002018400020F9
S2140016007FB5794C2388DB0700F1E7800121774D11
S2140016100846FFF7D3F905237549A37005F10800BE
S2140016200CF0C8FF606028B972497348F32207F0CF
S214001630F7FAFEE7714817F017FC69A3D3E9002311
S214001640CDE900234FF0FF324FF0FF33606817F00C
S2140016509AFC4FF4881160680DF07CFA014630B1B0
S2140016606449654840F20B1207F0DAFAFEE7644B6D
S2140016701B78012B0ED1634A60680DF0F7F960689D
S2140016800DF00CFBE0B15B495B4840F2171207F027
S214001690C7FAFEE75C4E316831B9564956484FF4F2
S2140016A08D7207F0BDFAFEE7564A60680DF0DEF967
S2140016B033689B6823B1DB6913B15B7803B1EB71C8
S2140016C0FFF720FE514B68801B78C3EB431203EBF9
S2140016D08203DB0001202385FFF780FE656807F0A4
S2140016E067FD00220146284617F0EAFD054630B1A0
S2140016F04049414840F22D1207F092FAFEE740F2C8
S21400170003532382424B04261B78E374A674FFF728
S21400171057FE00EB80039B00A382FFF751FEC0003C
S214001720E08231466068A56117F0AFFB30B1314901
S21400173031484FF49E7207F073FAFEE7606832464F
S21400174003A917F048FC042806D02A492A484FF473
S214001750A07207F065FAFEE703A9012008F05AFF19
S21400176006F0D8FE606808224FF0FF3117F015FC2F
S21400177030B12049204840F2491207F051FAFEE7FE
S2140017800DF0FAFB30B11B491B4840F24F1207F030
S21400179047FAFEE7FFF71CFB68B115F02BFB014686
S2140017A0606817F05EFC30B11249134840F25312DD
S2140017B007F036FAFEE76468FFF7A4FD154B01460E
S2140017C003F10C0220460CF063FF30B109490A48C9
S2140017D04FF4AD7207F024FAFEE704B070BD00BF08
S2140017E00A0020FF42030000F83F0020942000205B
S2140017F0E5090000A9AC010081AA0100690345ECD7
S2140018004A40002049090000002000207A210020DC
S21400181079210020D4AC010008B5044B586817F0B5
S21400182038FB034BB3FBF0F080B208BDF83F002056
S21400183040420F002DE9F043864D2B889B0787B06A
S21400184006D48549854840F2017207F0E9F9FEE7BB
S214001850AB78033B012B06D97F49804840F20372E0
S21400186007F0DEF9FEE7AA6832B97B497B4840F20A
S214001870067207F0D5F9FEE7794E2C88F77914F052
S214001880200418BF4FF47A744FEA1718FFF7A0FA2F
S214001890002872D0B8F1020F0AD0A8F10303022B79
S2140018A069D96D496D4840F21A7207F0B9F9FEE73A
S2140018B0032795F8343008EBC8089844694B03EBC7
S2140018C048031046B3F81C8016F0CEF94FF4FA53CE
S2140018D043437822B3FBF8F37733B3FBF2F31F44AA
S2140018E0C7EB0717AB78FF00BFB204F5347417FADE
S2140018F084F4042BA4B203D107F6E8072744BCB24D
S214001900D5F8088016F0A5F90746A86816F0ACF9D1
S214001910074416F0C4F9BFB23F1A16F09AF94044CD
S21400192008F05CFE64238DF80C304F4BD5F804901D
S214001930CDE90434C0F3401416F0BDF9BFB2034637
S21400194041463A46484617F07CFC2B887188318021
S21400195013F0200F03AB75D000936868434B224604
S2140019600CF06CFE002872D03B493C4840F2D9622D
S21400197007F056F9FEE706279BE7FFF737FA002839
S21400198044D0384B07F00F0708EBC801394403EB87
S21400199041031046B3F81C9016F066F9B8F1000F34
S2140019A02AD0B8F1010F2AD1400080B24FF00408C7
S2140019B0F3191B7E4BB10233034443449BB24FF4EE
S2140019C0FA525343B3FBF9F39CB2AB78042B97D18E
S2140019D03744FFF7F5FC3B7E053398448146FFF716
S2140019E01BFF0C2308FB00F003FB09F909EBC009F9
S2140019F0A1441FFA89F483E74FF00208D8E7164996
S214001A00164840F23B7207F00BF9FEE7FFF704FFBB
S214001A100746A86816F028F9AB780930784304EB37
S214001A20C000042B84B27FF46BAFFFF7C9FC0746F7
S214001A30FFF7F2FE602358430C2303FB0700204405
S214001A4084B25DE7686822460CF0EAFD8AE707B0D4
S214001A50BDE8F083F83F0020A9AC010081AA010090
S214001A6094200020D4AC010020A1070008400020EC
S214001A70F8B5484C258815F0020506D04649474873
S214001A804FF4B37207F0CCF8FEE784F8205015F058
S214001A90D3F823885A0706460AD517F000FC236BAE
S214001AA0C01A238D984203D929460420FEF786FFE4
S214001AB0304615F0C7F8A778022F37D115F0BCF8D6
S214001AC0238813F00405064607D0354807F0F0FBD8
S214001AD03046BDE8F84015F0B5B815F0B3F8A06884
S214001AE00AF022FA20B1A570BDE8F840FFF756B814
S214001AF015F0A2F8A668054616F0ABF8304408F0D4
S214001B006DFD10F0200F0CBF03230423012138467F
S214001B10A370FEF753FFFFF78DFE284615F092F8E8
S214001B2001210846BDE8F84015F080BE042F27D1F5
S214001B301C4B1B79FF2B2CD1237FF3B115F07CF8BF
S214001B4023885B07054604D5154807F0B1FB2846F1
S214001B50BFE715F077F8237F013B237715F06CF885
S214001B60012104460220FEF729FFFFF763FE204608
S214001B7015F068F801210820D4E7A3704020B3E7E9
S214001B80012F06D160680023A3700CF041FD3120C0
S214001B90AAE7F8BDF83F0020A9AC010081AA010021
S214001BA0184000209420002038B50121044610205B
S214001BB0FEF704FF064B5D68FFF702FC054B00FBD3
S214001BC004F10122284617F014F9002038BD00BFA2
S214001BD0F83F0020C10B000010B50A4C2388DB0636
S214001BE006D40949094840F2753207F019F8FEE7AD
S214001BF010200021FEF7E2FE6068BDE8104017F0F6
S214001C0006B900BFF83F0020A9AC010081AA010078
S214001C1038B50D4DE88E30B90C490D4840F2823289
S214001C2006F0FEFFFEE707F065FF0446E88E07F0C5
S214001C307DFF811F2144012008F0ECFC044617F0CC
S214001C402EFB001B38BD00BFF83F0020A9AC0100EA
S214001C5081AA010010B5074CA36833B906490748A6
S214001C6040F2913206F0DCFFFEE717F018FBE36A5D
S214001C70C01A10BDF83F0020A9AC010081AA0100DF
S214001C8038B50A4DE88E30B909490A4840F29B3209
S214001C9006F0C6FFFEE707F02DFF0446E88E07F0C5
S214001CA045FF044414F8020C38BD00BFF83F00207E
S214001CB0A9AC010081AA010038B50A4DE88E30B9FA
S214001CC009490A4840F2AA3206F0AAFFFEE707F0E2
S214001CD011FF0446E88E07F029FF044414F9070CA8
S214001CE038BD00BFF83F0020A9AC010081AA010062
S214001CF038B50A4DE88E30B909490A4840F2B9327B
S214001D0006F08EFFFEE707F0F5FE0446E88E07F0C5
S214001D100DFF044414F9010C38BD00BFF83F002045
S214001D20A9AC010081AA0100024B1888C0F3C010BC
S214001D30704700BFF83F002030B50F4B05460FCB6D
S214001D4085B06C4684E80F000DB12B6800930B4BF2
S214001D502146586800220CF0B5FE044630B108490A
S214001D60084840F2D73206F05BFFFEE7FEF744FE77
S214001D70204605B030BD00BF5CAD0100F83F002036
S214001D80A9AC010081AA010008B5074B01465868B6
S214001D9017F0F1F930B10549054840F2E53206F092
S214001DA03FFFFEE708BD00BFF83F0020A9AC0100DA
S214001DB081AA010008B5064B586817F0F3F930B150
S214001DC0044905484FF47C7206F02AFFFEE708BD7A
S214001DD0F83F0020A9AC010081AA0100024B0122B5
S214001DE05868114617F001B8F83F00207047F8B55C
S214001DF0054604200C4615F00EFF03061DD5104EB2
S214001E00B778D7B91DB1012D02D00220F8BD012741
S214001E102046FFF791FA0028F7D070683A46214628
S214001E2016F0FCFF30B1074907484FF4866206F00B
S214001E30F7FEFEE70623B370E8E77020E6E700BF8C
S214001E40F83F0020A9AC010081AA010010B50420CB
S214001E5015F0E1FE030610D5094CA378062B0CD12D
S214001E60606816F0DEFF30B10649074840F2494286
S214001E7006F0D6FEFEE7A07010BD7020FCE700BF9F
S214001E80F83F0020A9AC010081AA010008B503496B
S214001E90034840F2615206F0C3FEFEE7A9AC01001B
S214001EA081AA01000348044B834202D0034B03B1CE
S214001EB018477047A4210020A4210020000000003D
S214001EC00548064B1B1AD90F01EBA301491002D097
S214001ED0034B03B118477047A4210020A42100201B
S214001EE00000000010B5064C237843B9FFF7DAFF70
S214001EF0044B13B10448AFF300800123237010BDD8
S214001F00044500200000000068CC010008B5054B21
S214001F101BB105490548AFF30080BDE80840FFF750
S214001F20CFBF00BF00000000D823002068CC01000F
S214001F30A3F5803A704700BF174B002B08BF134B22
S214001F409D46FFF7F5FF00218B460F461348144ABF
S214001F50121A17F0FDFE0E4B002B00D098470D4BC3
S214001F60002B00D098470020002104000D000D48EB
S214001F70002802D00C48AFF3008013F039FE200092
S214001F80290014F00DFC13F021FE00BF000008002D
S214001F90000000000000000000200020A421002017
S214001FA050450020000000000000000010B5204B47
S214001FB04FF40072C3F824241E4BD3F8A433DBB9C5
S214001FC01D4B1A6801321A6001221A741B4C052137
S214001FD0204614F06CFEE36C43F00403E364184BF5
S214001FE01B7863634FF40073164AC2F8283402F174
S214001FF00072C2F8283410BD1048C36C23F00403E6
S214002000C364002114F053FE0E4B4FF40072C3F865
S21400201028240D4B1B68002BEDD0074B9A68013225
S2140020209A60094A1268DA60084B01221A70E2E7E1
S21400203000A0004000001442F023002000040140ED
S2140020400824002000A000440424002005450020A9
S2140020500D4B1B68812B15D80C4BD8690A4B1A6898
S2140020600B4988541A6801321A600A494A680132D4
S2140020704A601B68812B05D8034B1B68064AD25C56
S214002080024B5A63704700BF04240020000401403E
S2140020908C240020F02300200824002008B5024BE2
S2140020A01B6803B1984708BD4025002008B5024BC1
S2140020B05B6803B1984708BD4025002008B5024B71
S2140020C09B6803B1984708BD4025002008B5024B21
S2140020D0DB6803B1984708BD4025002008B5024BD1
S2140020E01B6903B1984708BD4025002008B5024B80
S2140020F05B6903B1984708BD4025002038B502F05B
S214002100C9FE01210D4802F097FA0122114600206F
S21400211002F004FE0A4C0225C4F880500122114643
S214002120002002F0FBFDC4F8845001221146002076
S21400213002F0F4FDC4F88850002038BD30253E007B
S21400214000400E4008B5164B01225A6403F094FF77
S214002150024668B9134B4AF6E851C3F89011D3F813
S214002160981141F00401C3F898110021C3F89011AA
S214002170012A0DD90C4A136A23F4441343F4881336
S2140021801362A2F58042136843F48073136008BD9F
S214002190044AD2F8643143F40053C2F86431E9E7E4
S2140021A000000E4000300E4000400E40012900D9CD
S2140021B0704708B5034B1B68186808B1436A984710
S2140021C008BD00BF1020002030B599B0274D11ACD7
S2140021D0AC46BCE80F000FC49CE8070084E8070084
S2140021E000240B940C940D940E940F941094204B92
S2140021F00B93204B0C9301228DF8372002238DF889
S214002200393003238DF83B301E238DF83F308DF890
S214002210403009AB1C3595E8030083E803000DF158
S2140022200C0C0394049405940694079408948CE884
S21400223003000C238DF814300D238DF815300E4B4B
S2140022400693202307938DF821200C4B00930BABAD
S21400225011AA61460A4804F065FB054621464FF47C
S214002260E13014F088FB284619B030BDCCA401003C
S2140022700000014000420400582500207825002078
S214002280CC25002008B50349034804F0B3FEFFF749
S2140022909BFF08BD14200020F025002008B502484A
S2140022A015F019F808BD00BFCC25002008B5024877
S2140022B015F011F808BD00BFCC25002008B5024B6C
S2140022C01A6A1868904708BDCC25002008B503494F
S2140022D0034B186814F092FC08BD00BF1C200020B9
S2140022E03820002008B5084B01221A70074B002240
S2140022F01A70074B04221A70064B1F221A7004F03D
S21400230039F9054B186008BD7621002006450020E7
S21400231075210020742100207826002008B50121B0
S214002320034802F089F914F066FA00F075F808BD63
S21400233000350A0008B50121014802F07DF908BD04
S21400234000350A002DE9F04180460F4601F10905E7
S2140023500026344604E05B21082000F01FFA013412
S214002360AC4233D2052C1BD801A353F824F000BF8F
S2140023705723000089230000BD230000912300009E
S2140023809523000099230000FBB20433D9B2E3E79B
S2140023908021E1E70021DFE7731C3146DEB2DBE790
S2140023A0BB1DA3420CD0FB1DA3420BD007F10803B4
S2140023B0A34209D0A31F18F80310CDE7D121CBE71D
S2140023C05A21C9E75A21C7E75D21C5E70020BDE8C5
S2140023D0F08100BF00B583B0002200920192022176
S2140023E08DF80010054814F0B0FA019008216846F0
S2140023F0FFF7A8FF03B05DF804FB00BF006A1800F3
S214002400014B1022DA60704700A00044014B1022F6
S214002410DA60704700A0004670B588B00DF1040C75
S214002420374C0FCCACE80F0094E807008CE80700A8
S2140024300121344802F000F9334E0121304602F003
S214002440FBF801258DF81250304B0393304C01A950
S214002450204614F073FC2B4604220621022003F0CB
S21400246021FB00232A460721022003F01BFB2B46F4
S21400247004220821022003F015FB2B4604221146F5
S214002480002003F00FFB234BA3670B2363674FF477
S214002490487005F00FFFFFF7B3FF142005F00AFFA2
S2140024A0FFF7B4FF232005F005FFFFF7A9FFB921CA
S2140024B0204614F08DFCFFF7A9FF00231A460621DC
S2140024C0022003F0EFFA00231A460721022003F049
S2140024D0E9FA2B4600220821022003F0E3FA2B46F5
S2140024E000220421104603F0DDFA204603F01EFE0B
S2140024F00021A1676167304602F09EF808B070BD03
S214002500F0A4010000350A000052040000127A0010
S214002510000401400B0B000B08B500F087F8124AC8
S2140025200AE01068516850F8230041F82300013390
S21400253091688B42F5D30C320C4B9A4201D20023A1
S214002540F6E70B4A08E01168002041F82300013343
S21400255051688B42F7D30832064B9A4201D20023C9
S214002560F6E7FFF7E9FC00BF70CC01007CCC010069
S2140025707CCC01007CCC01000048704700F049028A
S214002580114BD3F8943003F00703023B032B0DD80E
S214002590DFE803F0050F02080C4B18680BE00C4B45
S2140025A0186808E00B4B1868400804E0094B1868E8
S2140025B001E04FF40040044BD3F80031C3F304238A
S2140025C00133B0FBF3F0704700400E40442000207B
S2140025D0482000203C20002008B5FFF7D1FF054B1F
S2140025E0D3F80831C3F308230133B0FBF3F0024BF2
S2140025F0186008BD00400E4040200020014B1868BF
S214002600704700BF4820002008B5064B1860064BF0
S214002610D3F8943003F00703022B00D008BDFFF771
S214002620DBFFFBE74820002000400E40044B054A35
S2140026309A60D3F8882042F47002C3F88820704766
S21400264000ED00E000000000014B1868704700BF76
S2140026504420002008B5114BD3F82828A2F17E6349
S214002660A3F58433B3F5104F11D211680C4B994281
S21400267010D10C4B1B781BB1022B01D0002008E0B8
S214002680D369984728B9074B01221A7001E04FF426
S214002690817008BD4FF48170FBE700BF0000E10FBA
S2140026A007B0CD5E074500200346064A106803447F
S2140026B0054A934202D8034A136070474FF0FF3032
S2140026C0704700BF4C2000200000042008B5012100
S2140026D0294801F0B1FF012304220221052003F05E
S2140026E0E1F9002003F0D2F90121244BC3F81018B9
S2140026F00A46042002F012FB214802F05BF9214B47
S214002700D3F8F02042F00102C3F8F020D3F8FC2002
S21400271042F08072C3F8FC20A3F55D431A4A1A60A3
S21400272000F5D52000F2FC40C008184BA3FB003093
S214002730800A0138164B18610222C3F8F0204FF4C5
S2140027408072C3F804234FF06043124AC3F8B02FD8
S214002750114AC3F8802ED3F8002E42F48072C3F8D4
S214002760002EFF2283F82020D3F8002E22F4807259
S214002770C3F8002E002008BD00350A000080144271
S21400278006000E0000ED00E0FF0300401791650212
S214002790000004E055CEACC5090001004FF06043D0
S2140027A0D3F8803E13F0010F01D1112070470E4A76
S2140027B0D2F8FC3043F08073C2F8FC304FF0604330
S2140027C0D3F8002E4FF0010C0CFA00FC42EA0C0283
S2140027D0C3F8002E53F82030002BE8D04FF06043AB
S2140027E003F820100020704700ED00E0F0B585B03B
S2140027F00C4694469DF83410664A1278002A00F07B
S214002800BD800546BCF1070F00F2BA800A9A002A7E
S21400281000F0B8800B9A002A00F0B6800E9AB2F547
S214002820006F00F3B38001285BD05B4A02EB0C120A
S214002830127B002A00F0AC800022009201920292E5
S2140028400392564A02EB4C1E002C4FD14FEA4C1610
S21400285000209051CEF80400CEF80800CEF80C0008
S2140028609EF8020040F010008EF802009EF803006A
S21400287040F030008EF8030021B9C1B241F00301E8
S2140028808EF8031000930E9B013B444A4FEA4C100F
S21400289002EB4C11165A63F30E1616520A9B8B6007
S2140028A00B9B4B60CB789DF83C2062F38303CB7088
S2140028B0012D36D0109B002B56D0374A4FEA0C110C
S2140028C002EB0C1310985050119A5A6000249C602A
S2140028D05D7372466946604603F080F9204605B08F
S2140028E0F0BD0C9A002AA0D12D48F8E72B4F4FEAEE
S2140028F04C1607EB4C120020B85150609060D06028
S214002900907840F010009070D07840F00300D070BF
S2140029100029B7D107EB4C12C1B241F03001D1709B
S214002920B0E70E460A7B42F001020A73D2B242F0CA
S21400293002020A73CA68042161F39F02F26006F17C
S214002940100796E80F0087E80F00F2696FF00301A2
S21400295061F39F02F2610C9B7361012CAAD10B9A62
S214002960B2610C9A7260A5E7002DA6D10B4B03EB63
S2140029704C139A786FF304129A709EE70948AEE7F4
S2140029800748ACE70648AAE70548A8E70448A6E7CC
S2140029900548A4E7084500207C2700207C26002068
S2140029A0018000F0028000F0078000F0134B1B78D7
S2140029B0FBB110B50446F0B114F03EF90023072B26
S2140029C013D80F4A02EB0312127B0AB10133F6E763
S2140029D023600B4A190102EB031301241C73002425
S2140029E0545014F02FF9204602E014F02BF9054855
S2140029F010BD054870470548FAE700BF08450020A7
S214002A007C270020048000F0028000F0018000F0A7
S214002A1038B514F011F904460023072B06DC0C4ADF
S214002A2002EB0312127B12B90133F6E7002222B141
S214002A30204614F007F9074838BD03F083F8002550
S214002A40054B1D70204614F0FDF82846F4E700BF3D
S214002A507C270020058000F0084500200F4B1B78DF
S214002A60BBB110B50446072815D814F0E5F80C4B92
S214002A7003EB04131B7B1BB914F0E4F809480BE0C6
S214002A80074B03EB041300241C7314F0DBF82046FA
S214002A9002E005487047054810BD00BF0845002005
S214002AA07C270020068000F0028000F0018000F005
S214002AB000B583B0144B1B68019300238DF80430D7
S214002AC014F0BAF8114B1B7833B9104B01221A7068
S214002AD014F0B8F8002309E014F0B4F80C480FE03E
S214002AE00C4A02EB0312002111730133072BF7DDAA
S214002AF004238DF807300DEB030003F045F80020A3
S214002B0003B05DF804FB00BF5CA50100084500208B
S214002B10038000F07C27002008B50A4B1B785BB1C9
S214002B2007280BD8084B03EB00131B7B43B100218F
S214002B3003F020F8002008BD0448FCE70448FAE744
S214002B400448F8E7084500207C270020028000F0B3
S214002B50018000F0078000F008B50A4B1B785BB1D7
S214002B6007280BD8084B03EB00131B7B43B101214E
S214002B7003F000F8002008BD0448FCE70448FAE724
S214002B800448F8E7084500207C270020028000F073
S214002B90018000F0078000F008B50A4B1B7853B19F
S214002BA007280AD8084B03EB00131B7B3BB103F046
S214002BB069F8002008BD0548FCE70548FAE705481F
S214002BC0F8E700BF084500207C270020028000F0C0
S214002BD0018000F0078000F0104B1B78ABB107288F
S214002BE015D8B1B10E4B03EB00131B7B9BB10D4BFD
S214002BF01B6E0122824013EA020003D001230B70F1
S214002C000020704700230B7070470748704707483E
S214002C107047064870470648704700BF08450020C2
S214002C207C27002000200E40028000F0018000F08B
S214002C30078000F00C4B1B7873B110B50C460728C4
S214002C400CD869B1094B03EB00131B7B53B103F09F
S214002C502DF82070002010BD054870470548FAE79B
S214002C600448F8E70448F6E7084500207C270020DB
S214002C70028000F0018000F0078000F0F8B5194BE4
S214002C801F6EDB6E1F4002D40125002402E0FEE723
S214002C9001346D00072C24D83D42F9D0114B9D66B7
S214002CA02301114AD358002BF2D002EB0416B16868
S214002CB00131B16072682046984780F00100C0B2CA
S214002CC0737B012BE4D10028E2D0084B03EB4413BE
S214002CD01A7B6FF341021A731A7F6FF341021A7759
S214002CE0D6E7F8BD00200E407C2700207C2600207A
S214002CF008B5034B1968034B18680BF083F808BD3A
S214002D005020002070200020B0F1FF3F01D010B905
S214002D107047024870470248704700BF21E000F045
S214002D2024E000F0F8B505460E469400224613F05F
S214002D30B6FFFFF7E9FF074628B922463146284680
S214002D4016F0DCFF08B93846F8BD014FFBE700BFB8
S214002D5010E000F038B5044603F07CF8FFF7D4FF27
S214002D60054608B1284638BD03F08EF901462046D0
S214002D7013F053FE0028F5D1004DF3E70EE000F007
S214002D8008B513F04AFF014B186008BDEC2E002072
S214002D9008B5024B186813F044FF08BDEC2E00205F
S214002DA003687A4A934234D0794A934200F0D2823A
S214002DB0784A934200F06685774A934241F07282E1
S214002DC0037A002B01F026805A1E1E2A00F2F28794
S214002DD0DFE812F03A083A0821083A083A083A08B2
S214002DE03A082108F207F407F607F807FA07FC077F
S214002DF0FE07000802080408060808080A080C0867
S214002E000E08100812081408160818081A081C08D5
S214002E101E08037A002B4BD0013B1E2B11D8DFE88F
S214002E2003F04646464646121416181A1C1E202262
S214002E302426282A2C2E30323436383A3C3E40425D
S214002E404400FF2334E0012332E0012330E0012375
S214002E502EE001232CE001232AE0022328E00223AF
S214002E6026E0022324E0022322E0022320E00223BD
S214002E701EE003231CE003231AE0032318E00323C9
S214002E8016E0032314E0032312E0032310E00523D7
S214002E900EE005230CE005230AE0052308E00523E1
S214002EA006E0052304E0052302E0052300E00023F6
S214002EB00B70437A002B4BD0013B1E2B11D8DFE85A
S214002EC003F046464646121416181A1C1E202224E4
S214002ED026282A2C2E30323436383A3C3E4042449D
S214002EE04600FF2334E0012332E0012330E00123D3
S214002EF02EE001232CE001232AE0022328E002230F
S214002F0026E0022324E0022322E0022320E002231C
S214002F101EE003231CE003231AE0032318E0032328
S214002F2016E0032314E0032312E0032310E0052336
S214002F300EE005230CE005230AE0052308E0052340
S214002F4006E0052304E0052302E0052300E0002355
S214002F508B70837A002B54D0013B1E2B11D8DFE8F0
S214002F6003F04F4F4F121D1F21232527292B2D2FEE
S214002F7031333537393B3D3F41434547494B4D4F4C
S214002F804F00FF233DE001233BE000BF000001406F
S214002F900004014000080140000C0140012330E01D
S214002FA001232EE001232CE001232AE0022328E05F
S214002FB0022326E0022324E0022322E0022320E06C
S214002FC002231EE003231CE003231AE0032318E079
S214002FD0032316E0032314E0032312E0032310E088
S214002FE005230EE005230CE005230AE0052308E090
S214002FF0052306E0052304E0052302E0052300E0A0
S21400300000230B71C37A002B4BD0013B1E2B11D82B
S214003010DFE803F04646121416181A1C1E20222457
S21400302026282A2C2E30323436383A3C3E4042444B
S21400303046464600FF2334E0012332E0012330E019
S21400304001232EE001232CE001232AE0022328E0BE
S214003050022326E0022324E0022322E0022320E0CB
S21400306002231EE003231CE003231AE0032318E0D8
S214003070032316E0032314E0032312E0032310E0E7
S21400308005230EE005230CE005230AE0052308E0EF
S214003090052306E0052304E0052302E0052300E0FF
S2140030A000238B71037ABBB15A1E1E2A11D8DFE8A3
S2140030B002F01313131313122D2F31333537393B08
S2140030C03D3F41434547494B4D4F51535557595B3B
S2140030D05D00FF2300E00B234B70437A002B00F0CB
S2140030E08380013B1E2B43D8DFE803F09844464814
S2140030F04A4C4E50525456585A5C5E60626466683B
S2140031006A6C6E7098727476787A7C000C23E3E7AB
S2140031100D23E1E70E23DFE70F23DDE70623DBE7DA
S2140031200723D9E70823D7E70923D5E70A23D3E7F8
S2140031300B23D1E70923CFE70A23CDE70B23CBE701
S2140031400C23C9E70D23C7E70E23C5E70F23C3E704
S2140031500023C1E70123BFE70223BDE70323BBE744
S2140031600423B9E70523B7E70623B5E70723B3E744
S214003170FF233AE0032338E0042336E0052334E057
S2140031800B2332E00C2330E00D232EE00E232CE040
S2140031900F232AE0062328E0072326E0082324E05E
S2140031A0092322E00A2320E00B231EE009231CE06B
S2140031B00A231AE00B2318E00C2316E00D2314E074
S2140031C00E2312E00F2310E000230EE001230CE094
S2140031D003230AE0042308E0052306E0062304E0B0
S2140031E0072302E0002300E00123CB70837A002B44
S2140031F052D0013B1E2B13D8DFE803F068141618D4
S2140032001A1C1E20222426282A2C2E303234363829
S2140032103A3C3E4068424446484A4C000223E4E7B3
S214003220FF233AE0042338E0052336E00B2334E09E
S2140032300C2332E00D2330E00E232EE00F232CE08B
S21400324006232AE0072328E0082326E0092324E0B3
S2140032500A2322E00B2320E009231EE00A231CE0B9
S2140032600B231AE00C2318E00D2316E00E2314E0BF
S2140032700F2312E0002310E001230EE002230CE0EF
S21400328004230AE0052308E0062306E0072304E0FB
S214003290002302E0012300E002234B71C37A002BD7
S2140032A052D0013B1E2B13D8DFE803F05214161839
S2140032B01A1C1E20222426282A2C2E303234363879
S2140032C03A3C3E4052424446484A4C000323E4E718
S2140032D0FF233AE0052338E00B2336E00C2334E0E6
S2140032E00D2332E00E2330E00F232EE006232CE0E1
S2140032F007232AE0082328E0092326E00A2324E0FF
S2140033000B2322E0092320E00A231EE00B231CE007
S2140033100C231AE00D2318E00E2316E00F2314E00A
S214003320002312E0012310E002230EE003230CE04A
S21400333005230AE0062308E0072306E0002304E04E
S214003340012302E0022300E00323CB710020704734
S2140033500423FAE7037A002B4BD0013B1E2B11D82F
S214003360DFE803F04646464646121416181A1C1E98
S21400337020222426282A2C2E30323436383A3C3E58
S21400338040424400FF2334E0012332E0012330E0D2
S21400339001232EE001232CE001232AE0022328E06B
S2140033A0022326E0022324E0022322E0022320E078
S2140033B002231EE003231CE003231AE0032318E085
S2140033C0032316E0032314E0032312E0032310E094
S2140033D005230EE005230CE005230AE0052308E09C
S2140033E0052306E0052304E0052302E0052300E0AC
S2140033F000230B70437A002B4BD0013B1E2B11D8B9
S214003400DFE803F046464646121416181A1C1E201D
S214003410222426282A2C2E30323436383A3C3E4097
S21400342042444600FF2334E0012332E0012330E02B
S21400343001232EE001232CE001232AE0022328E0CA
S214003440022326E0022324E0022322E0022320E0D7
S21400345002231EE003231CE003231AE0032318E0E4
S214003460032316E0032314E0032312E0032310E0F3
S21400347005230EE005230CE005230AE0052308E0FB
S214003480052306E0052304E0052302E0052300E00B
S21400349000238B70837A002B4BD0013B1E2B11D858
S2140034A0DFE803F0464646121416181A1C1E2022A1
S2140034B02426282A2C2E30323436383A3C3E4042D7
S2140034C044464600FF2334E0012332E0012330E087
S2140034D001232EE001232CE001232AE0022328E02A
S2140034E0022326E0022324E0022322E0022320E037
S2140034F002231EE003231CE003231AE0032318E044
S214003500032316E0032314E0032312E0032310E052
S21400351005230EE005230CE005230AE0052308E05A
S214003520052306E0052304E0052302E0052300E06A
S21400353000230B71C37A002B4BD0013B1E2B11D8F6
S214003540DFE803F04646121416181A1C1E20222422
S21400355026282A2C2E30323436383A3C3E40424416
S21400356046464600FF2334E0012332E0012330E0E4
S21400357001232EE001232CE001232AE0022328E089
S214003580022326E0022324E0022322E0022320E096
S21400359002231EE003231CE003231AE0032318E0A3
S2140035A0032316E0032314E0032312E0032310E0B2
S2140035B005230EE005230CE005230AE0052308E0BA
S2140035C0052306E0052304E0052302E0052300E0CA
S2140035D000238B71037ABBB15A1E1E2A11D8DFE86E
S2140035E002F01313131313122D2F31333537393BD3
S2140035F03D3F41434547494B4D4F51535557595B06
S2140036005D00FF2300E00B234B70437A002B00F095
S2140036108380013B1E2B43D8DFE803F098444648DE
S2140036204A4C4E50525456585A5C5E606264666805
S2140036306A6C6E7098727476787A7C000C23E3E776
S2140036400D23E1E70E23DFE70F23DDE70623DBE7A5
S2140036500723D9E70823D7E70923D5E70A23D3E7C3
S2140036600B23D1E70923CFE70A23CDE70B23CBE7CC
S2140036700C23C9E70D23C7E70E23C5E70F23C3E7CF
S2140036800023C1E70123BFE70223BDE70323BBE70F
S2140036900423B9E70523B7E70623B5E70723B3E70F
S2140036A0FF233AE0032338E0042336E0052334E022
S2140036B00B2332E00C2330E00D232EE00E232CE00B
S2140036C00F232AE0062328E0072326E0082324E029
S2140036D0092322E00A2320E00B231EE009231CE036
S2140036E00A231AE00B2318E00C2316E00D2314E03F
S2140036F00E2312E00F2310E000230EE001230CE05F
S21400370003230AE0042308E0052306E0062304E07A
S214003710072302E0002300E00123CB70837A002B0E
S21400372052D0013B1E2B13D8DFE803F0681416189E
S2140037301A1C1E20222426282A2C2E3032343638F4
S2140037403A3C3E4068424446484A4C000223E4E77E
S214003750FF233AE0042338E0052336E00B2334E069
S2140037600C2332E00D2330E00E232EE00F232CE056
S21400377006232AE0072328E0082326E0092324E07E
S2140037800A2322E00B2320E009231EE00A231CE084
S2140037900B231AE00C2318E00D2316E00E2314E08A
S2140037A00F2312E0002310E001230EE002230CE0BA
S2140037B004230AE0052308E0062306E0072304E0C6
S2140037C0002302E0012300E002234B71C37A002BA2
S2140037D052D0013B1E2B13D8DFE803F05214161804
S2140037E01A1C1E20222426282A2C2E303234363844
S2140037F03A3C3E4052424446484A4C000323E4E7E3
S214003800FF233AE0052338E00B2336E00C2334E0B0
S2140038100D2332E00E2330E00F232EE006232CE0AB
S21400382007232AE0082328E0092326E00A2324E0C9
S2140038300B2322E0092320E00A231EE00B231CE0D2
S2140038400C231AE00D2318E00E2316E00F2314E0D5
S214003850002312E0012310E002230EE003230CE015
S21400386005230AE0062308E0072306E0002304E019
S214003870012302E0022300E00323CB7100207047FF
S2140038800423FAE7037A002B4BD05A1E1E2A11D8BF
S214003890DFE802F04646464612141647181A1C1E63
S2140038A020222426282A2C2E30323436383A3C3E23
S2140038B040424400FF2334E0082332E0082330E08F
S2140038C008232EE001232CE001232AE0012328E030
S2140038D0012326E0012324E0052322E0052320E03F
S2140038E005231EE005231CE005231AE0052318E047
S2140038F0052316E0052314E0052312E0052310E057
S21400390005230EE005230CE005230AE0052308E066
S214003910052306E00A2304E00A2302E00A2300E067
S21400392000230B70437A002B4DD0013B1E2B11D881
S214003930DFE803F0484848121416181A1C1E202206
S2140039402426282A2C2E30323436383A3C3E404242
S21400395044464800FF2336E0082334E0082332E0DC
S214003960082330E008232EE001232CE001232AE080
S214003970012328E0012326E0012324E0052322E09A
S214003980052320E005231EE005231CE005231AE09E
S214003990052318E0052316E0052314E0052312E0AE
S2140039A0052310E005230EE005230CE005230AE0BE
S2140039B0052308E0052306E00A2304E00A2302E0C4
S2140039C00A2300E000238B70837A002B4DD0013B46
S2140039D01E2B11D8DFE803F04848121416181A1CDC
S2140039E01E20222426282A2C2E30323436383A3C02
S2140039F03E40424446484800FF2336E0082334E071
S214003A00082332E0082330E008232EE001232CE0D0
S214003A1001232AE0012328E0012326E0012324E0F5
S214003A20052322E0052320E005231EE005231CE0F5
S214003A3005231AE0052318E0052316E0052314E005
S214003A40052312E0052310E005230EE005230CE015
S214003A5005230AE0052308E0052306E00A2304E020
S214003A600A2302E00A2300E000230B71C37A002B2E
S214003A704DD0013B1E2B11D8DFE803F04812141678
S214003A80181A1C1E20222426282A2C2E30323436C1
S214003A90383A3C3E4042444648484800FF2336E019
S214003AA0082334E0082332E0082330E008232EE021
S214003AB001232CE001232AE0012328E0012326E04D
S214003AC0012324E0052322E0052320E005231EE051
S214003AD005231CE005231AE0052318E0052316E05D
S214003AE0052314E0052312E0052310E005230EE06D
S214003AF005230CE005230AE0052308E0052306E07D
S214003B000A2304E00A2302E00A2300E000238B7164
S214003B10037A002B4ED0013B1E2B11D8DFE803F0B2
S214003B2064121416181A1C1E6420222426282A2C16
S214003B302E3064323436383A3C3E404244464800E2
S214003B40FF2338E0072336E0082334E0092332E079
S214003B50002330E001232EE002232CE003232AE09A
S214003B60072328E0082326E0092324E00A2322E08E
S214003B70002320E001231EE003231CE004231AE0B8
S214003B80052318E0072316E0082314E0092312E0B3
S214003B900A2310E00B230EE00C230CE00D230AE0B2
S214003BA00E2308E00F2306E0002304E0012302E0D2
S214003BB0022300E005234B70437A002B50D0013BD4
S214003BC01E2B13D8DFE803F0661416181A1C1E20E6
S214003BD066222426282A2C2E3032663436383A3C82
S214003BE03E40424446484A000623E4E7FF2338E0C6
S214003BF0082336E0092334E0002332E0012330E0D6
S214003C0002232EE003232CE006232AE0082328E0E4
S214003C10092326E00A2324E0002322E0012320E0F3
S214003C2003231EE004231CE005231AE0062318E005
S214003C30082316E0092314E00A2312E00B2310E001
S214003C400C230EE00D230CE00E230AE00F2308E001
S214003C50002306E0012304E0022302E0052300E03F
S214003C600623CB70837A002B50D0013B1E2B13D833
S214003C70DFE803F0661416181A1C1E206622242697
S214003C80282A2C2E3032663436383A3C3E4042449F
S214003C9046484A000723E4E7FF2338E0092336E0D6
S214003CA0002334E0012332E0022330E003232EE039
S214003CB006232CE007232AE0092328E00A2326E02F
S214003CC0002324E0012322E0032320E004231EE057
S214003CD005231CE006231AE0072318E0092316E054
S214003CE00A2314E00B2312E00C2310E00D230EE051
S214003CF00E230CE00F230AE0002308E0012306E071
S214003D00022304E0052302E0062300E007234B71AC
S214003D10C37A002B48D05A1E1E2A13D8DFE802F0BA
S214003D20481416181A45454545451C1E20222426CB
S214003D30282A482C2E30323436383A3C3E40420050
S214003D400823E4E7FF2330E000232EE001232CE0E5
S214003D5002232AE0032328E0002326E0012324E0B0
S214003D60032322E0042320E005231EE006231CE0B4
S214003D7007231AE0082318E00A2316E00B2314E0B2
S214003D800C2312E00D2310E00E230EE00F230CE0B0
S214003D9000230AE0012308E0022306E0052304E0EE
S214003DA0062302E0072300E00823CB7100207047BB
S214003DB00923FAE7FF232EE008232CE001232AE05C
S214003DC0012328E0012326E0012324E0012322E04A
S214003DD0012320E009231EE009231CE002231AE049
S214003DE0022318E0022316E0022314E0022312E066
S214003DF0022310E005230EE005230CE005230AE06D
S214003E00052308E0052306E00A2304E00A2302E06F
S214003E100A2300E003230B70437A002B46D05A1E79
S214003E201E2A13D8DFE802F05C5C435C5C5C14433B
S214003E3016181A1C1E20222426282A2C2E3032342D
S214003E4036383A3C3E405C000323E4E7FF232EE08E
S214003E5008232CE001232AE0012328E0012326E0A2
S214003E60012324E0012322E0012320E009231EE0B1
S214003E7009231CE002231AE0022318E0022316E0BE
S214003E80022314E0022312E0022310E005230EE0D2
S214003E9005230CE005230AE0052308E0052306E0D9
S214003EA00A2304E00A2302E00A2300E003238B70BF
S214003EB0837A002B48D05A1E1E2A13D8DFE802F059
S214003EC05E5E455E5E1416181A1C1E2022242628E6
S214003ED02A2C2E30323436383A3C3E40425E5E0063
S214003EE00323E4E7FF2330E008232EE008232CE03A
S214003EF001232AE0012328E0012326E0012324E011
S214003F00012322E0012320E009231EE009231CE010
S214003F1002231AE0022318E0022316E0022314E02C
S214003F20022312E0022310E005230EE005230CE036
S214003F3005230AE0052308E0052306E00A2304E03B
S214003F400A2302E00A2300E003230B71C37A002B46
S214003F5048D05A1E1E2A13D8DFE802F05E5E455E81
S214003F601416181A1C1E20222426282A2C2E30321C
S214003F703436383A3C3E40425E5E5E000323E4E759
S214003F80FF2330E008232EE008232CE001232AE05C
S214003F90012328E0012326E0012324E0012322E078
S214003FA0012320E009231EE009231CE002231AE077
S214003FB0022318E0022316E0022314E0022312E094
S214003FC0022310E005230EE005230CE005230AE09B
S214003FD0052308E0052306E00A2304E00A2302E09E
S214003FE00A2300E003238B71037A002B52D0013B97
S214003FF01E2B13D8DFE803F0681416181A1C1E20B0
S21400400022242628682A2C2E30323436383A3C3E73
S21400401040424446484A4C000323E4E7FF233AE084
S2140040200A2338E00B2336E00C2334E00D2332E07D
S2140040300E2330E00F232EE002232CE003232AE099
S214004040062328E0072326E0082324E00A2322E0AC
S2140040500B2320E00E231EE00F231CE000231AE0B3
S214004060012318E0022316E0032314E0042312E0E1
S214004070052310E00B230EE00C230CE00D230AE0D2
S2140040800E2308E00F2306E0002304E0012302E0ED
S214004090022300E008234B70437A002B52D0013BEA
S2140040A01E2B13D8DFE803F0681416181A1C1E20FF
S2140040B022242628682A2C2E30323436383A3C3EC3
S2140040C040424446484A4C000923E4E7FF233AE0CE
S2140040D00B2338E00C2336E00D2334E00E2332E0C9
S2140040E00F2330E002232EE003232CE006232AE0F1
S2140040F0072328E0082326E0092324E00B2322E0F8
S2140041000E2320E00F231EE000231CE001231AE00C
S214004110022318E0032316E0042314E0052312E02C
S2140041200B2310E00C230EE00D230CE00E230AE018
S2140041300F2308E0002306E0012304E0022302E048
S214004140082300E00923CB70837A002B4CD05A1E3C
S2140041501E2A13D8DFE802F0621416181A1C1E2056
S214004160222426286249492A2C2E303234623638D8
S2140041703A3C3E40424446000A23E4E7FF2334E04C
S2140041800C2332E00D2330E00E232EE00F232CE02C
S21400419002232AE0032328E0062326E0072324E060
S2140041A0082322E0092320E00A231EE000231CE067
S2140041B001231AE0022318E0032316E0042314E088
S2140041C0052312E00C2310E00D230EE00E230CE076
S2140041D00F230AE0002308E0012306E0022304E0A0
S2140041E0082302E0092300E00A234B71C37A002B60
S2140041F052D0013B1E2B13D8DFE803F052141618DA
S2140042001A1C1E20222426282A2C2E303234363819
S2140042103A523C3E40424446484A4C000B23E4E7B0
S214004220FF233AE00D2338E00E2336E00F2334E078
S214004230022332E0032330E006232EE007232CE09F
S21400424008232AE0092328E00A2326E00B2324E09B
S2140042500E2322E00F2320E000231EE001231CE0B3
S21400426002231AE0032318E0042316E0052314E0D3
S2140042700B2312E00D2310E00E230EE00F230CE0BC
S21400428000230AE0012308E0022306E0082304E0F6
S214004290092302E00A2300E00B23CB7100207047BD
S2140042A00C23FAE700487047022000F070B588B08B
S2140042B006460C460DF1040C814D0FCDACE80F0000
S2140042C095E807008CE80700002E00F0EC803546E5
S2140042D0002C00F0EA8080220021304615F038FDE0
S2140042E0304612F0E3FB2368764A934213D0764AB0
S2140042F0934200F09380754A934200F09780744A88
S214004300934240F0D480734BF364734BB3624FF424
S2140043107023F36206E0714BF364714BB3624FF4A3
S2140043204023F36223682B60002385F8583005F19C
S214004330040CA646BEE80F00ACE80F009EE8070097
S2140043408CE80700637D012B78D0A37D002B78D105
S214004350ADF81430237D012B00F08880A36803930A
S2140043600121604800F068F901215F4800F064F917
S2140043700121E86C00F060F9E3681A1F0C2A00F2CD
S2140043809A80033B8DF8103001A9206812F0D6FC05
S214004390636923F47F0323F47F4323B92A681368F1
S2140043A043F480331360E37D002B66D12A68936F55
S2140043B003F0E033217943EA012361790B43A179C5
S2140043C043EA0163E17943EA014393672B680F22CE
S2140043D05A670121284612F06CFB00286CD112F0B7
S2140043E02BFC424B1B78002B5AD1404B01221A70F3
S2140043F012F028FC03F034F9FEF75AFB002105F111
S2140044002000FEF7D3FA002858D1002105F1240039
S214004410FEF7CCFA00284FD035484DE0354BF36414
S214004420354BB3624FF45023F3627BE7334BF364B0
S214004430334BB3624FF46023F36273E78DF81230A8
S21400444083E7012B08D0022B0BD0032B31D14FF47E
S2140044504073ADF814307DE74FF40073ADF81430B8
S21400446078E74FF48073ADF8143073E700238DF8C7
S21400447011304FF4E133039372E72A68936F23F009
S2140044801F2323F01F03217943EA012361790B439D
S214004490A17943EA016393672B680B225A6798E772
S2140044A012F0D0FBA8E7174806E0174804E01648C5
S2140044B002E0154800E0144808B070BD0C48FBE761
S2140044C084A50100000001400004014000080140EE
S2140044D0000C01400072040001000F0000420400BE
S2140044E001000C004041050000350A000945002087
S2140044F0092000F00052040001000D0000620400D4
S21400450001000E00012000F0022000F0074BDB6BDC
S21400451013F0400F04D1064BD3F8C830002BFAD165
S214004520024B5868C0F30140704700BF00300E4091
S2140045300000C6430C4B984205D90C4B984210D845
S21400454001210A4601E000210A46094B1A64094A7D
S214004550D2F8003123F0807343EA0163C2F80031D9
S214004560704702210122F0E70048E8010090D003DE
S2140045700000C84300400E40014B1868704700BF5B
S21400458074200020114B5B68002300E00133042BED
S2140045900CD80F4A02EBC30292F804C0CAB2944584
S2140045A0F4D10B4A52F833208242EFD3052B0BD0BE
S2140045B0074A02EBC3035979044A536823F0407351
S2140045C043EA0163536070470321F5E700000E409D
S2140045D0A0A5010008B5FDF7D3FF044BD3F80031C2
S2140045E0C3F3042303FB000008BD00BF00400E40D9
S2140045F010B5084B1C6CA4B241F671321A64FDF774
S214004600BBFF0021FFF7BEFF14B1024B00221A6465
S21400461010BD00BF00000E4010B5064B1C6CA4B2C7
S21400462041F671321A64FFF7ADFF14B1014B002258
S2140046301A6410BD00000E4010B4C0F30323013B03
S214004640092B21D8DFE803F0050820203023262098
S214004650292D0024164A01E00024164AC0F304302F
S21400466054B1134BD3F8443113F0010F04D1104B5F
S214004670D3F840311C42FAD102F1424303F58013CD
S21400468000EBC300800001605DF8044B7047012416
S214004690094AE3E71024094AE0E74FF48034084A61
S2140046A0DCE70024074AD9E70024074AD6E700BF1C
S2140046B000400E40C0400E40E0400E40E8400E4035
S2140046C0F0400E4050410E40B0400E40C0F3031381
S2140046D0013B092B6BD8DFE803F0050B111B6A6A58
S2140046E02127415F334BD3F80001C0F30420704705
S2140046F0304BD3F81401C0F3042070472D4BD3F889
S2140047000031C3F30063013301209840013870473D
S214004710284BD3F80C01C0F308207047254BD3F87C
S2140047200801C0F308207047234B984204D0234B5F
S21400473098420AD0002070471E4BD3F8203103F071
S2140047400F0301209840013870471A4BD3F82031E8
S214004750C3F301130120984001387047184B984264
S21400476007D003F5B01303F5805398420AD0002013
S2140047707047104BD3F82831C3F30113012098403B
S214004780013870470B4BD3F82831C3F301230433A9
S21400479001209840013870470A4B984201D000200B
S2140047A07047044BD3F8300100F003007047002038
S2140047B0704700BF00400E408006160080162E0090
S2140047C090171A00A009140000F00F0001380728FF
S2140047D065D8DFE800F0041B2A643E4D64553B4B69
S2140047E0D3F8943003F00703023B052B0CD8DFE820
S2140047F003F0055803070B09022070470420704792
S2140048000B2070470C207047052070472F4BD3F8BD
S214004810803003F00703022B45D0042B45D0012B34
S21400482001D00120704703207047284BD3F884300E
S21400483003F00703013B032B09D8DFE803F0023837
S2140048400604032070470A207047062070470120A0
S21400485070471E4BD3F8883003F00703022B28D08E
S214004860042B28D0012B01D001207047032070476D
S214004870164B1B6F13F001031FD003B309207047BC
S214004880124BD3F85C3103F03003202B19D0302BB9
S21400489019D0102B01D00120704707207047002048
S2140048A0704703207047022070470A207047022096
S2140048B07047022070470A20704707207047012083
S2140048C07047042070470820704700BF00400E4025
S2140048D010B50446FFF778FF1B4B9C4212D01B4BCB
S2140048E09C4215D01A4B9C4206D00138032828D883
S2140048F0DFE800F014171D1A164BD3F8800000F0FE
S2140049000700F2E7134BD3F8840000F00700ECE74B
S214004910104BD3F8880000F00700E6E712F03EF8E8
S21400492010BDFDF791FEFBE712F03BF8F8E7FDF748
S21400493027FE084BD3F80031C3F300630133D84099
S214004940EEE70020ECE700BF03002000050024008F
S21400495002001E0000400E4008B50748FFF734FF6F
S214004960072804D0092805D1FDF70AFE03E0FFF763
S21400497003FE00E0002008BD06000E0008B100207F
S214004980704710B504460A48FFF71EFF072805D0F3
S214004990082809D0042804D0204610BDFFF7ECFDF7
S2140049A0FBE7FDF72BFEF8E7FFF714FEF5E700BF81
S2140049B0B800320038B500F47813B3F5B01F00F035
S2140049C0938005463BD8B3F5402F00F0828010D97F
S2140049D0B3F5801F00F0AA80B3F5A01F27D1574873
S2140049E0FFF776FF564BD3F8303103F00303D84079
S2140049F01CE0B3F5802F61D005D9B3F5202F14D174
S214004A00FDF7BEFD12E0002B55D0B3F5003F0AD1EE
S214004A10FDF7B6FD4A4BD3F80831C3F3082301333C
S214004A20B0FBF3F002E0002000E0002038BDB3F554
S214004A30602F02D1FFF790FFF8E70020F6E7B3F506
S214004A40381F5BD00ED9B3F5481F72D0B3F5781F68
S214004A5021D1FDF795FD0446284612F0D9F8B4FB9F
S214004A60F0F0E3E7B3F5001F52D006D9B3F5101FF8
S214004A700FD13248FFF72CFFD8E7B3F5D01F4BD045
S214004A80B3F5F01F03D12F48FFF722FFCEE7002033
S214004A90CCE70020CAE7B3F5401F0AD12A48FFF743
S214004AA017FF274BD3F82831C3F301230433D8402C
S214004AB0BCE70020BAE7FDF763FDB7E7FDF760FD4A
S214004AC01F4BD3F80C31C3F308230133B0FBF3F0CC
S214004AD0ACE7FDF755FD1A4BD3F81431C3F30423A6
S214004AE00133B0FBF3F0A1E71648FFF7F1FE144BD5
S214004AF0D3F8203103F00F03D84097E71148FFF7AB
S214004B00E7FE0F4BD3F82031C3F30113D8408DE7EF
S214004B100D48FFF7DDFE89E70B48FFF7D9FE084B87
S214004B20D3F82831C3F30113D8407FE7FFF724FDFD
S214004B307CE70020FFF722FF78E700BF050024008F
S214004B4000400E4002001E000300200010B5FFF7D4
S214004B504FFD084B07225A67FDF712FDFFF7EAFCE8
S214004B60FDF73AFD0446FFF7D1FC01462046FFF765
S214004B7053FD10BD00400E40014B1880704700BF2B
S214004B8056210020014B1880704700BF542100209A
S214004B9004281ED8DFE800F0180312080D000E4B9C
S214004BA0186AC0F3080070470B4B186900F07F00C6
S214004BB07047094B986900F07F007047064BD3F8A2
S214004BC09C00C0F30A007047034B986B00F07F0010
S214004BD070470020704700BF00400E4038B50C46B6
S214004BE0042813D8DFE800F043032F132100C1F395
S214004BF00804274BD3F86838002BFAD1254A136AE5
S214004C0023F4FF7323F001032343136238BD01F03E
S214004C107F041F4BD3F86038002BFAD11D4A136966
S214004C2023F07F0323431361F0E701F07F04184B62
S214004C30D3F86438002BFAD1164A936923F07F0321
S214004C4023439361E2E7134DD5F890306B6A23F067
S214004C50300343F010036B62C1F3C31011F0D2FFB0
S214004C602A6B0D4B1340234303432B63CEE74F2998
S214004C7028BF4F24064BD3F87438002BFAD1054AC8
S214004C80936B23F07F03E4B21C439463BEE700BF3C
S214004C900020C84300400E4000F8FF0F134B5B6A2D
S214004CA013F0300F09D0202914D0302915D009B1BF
S214004CB00F4A04E04FF4400201E04FF440020B4B71
S214004CC0D3F8903032EA0303F9D112F4800F07D1FB
S214004CD0012070474FF40002F1E74FF44002EEE780
S214004CE0024BD3F8A000C0F38020704700400E406F
S214004CF0FF33E107022801D00120704710B529B123
S214004D00054B4FF48064C3F8A84059660AB90120E1
S214004D1010BDFFF7C3FFFBE700400E4070B5042848
S214004D2000F28580DFE800F0484250033C00022392
S214004D3001250024AC46002967D002284AD000216D
S214004D403B4B1D663B4B23449B001B68002BF9D056
S214004D50002A6CD0374C6444A4002368002BF9D09A
S214004D60022864D1002962D0314B5B6A13F0010F30
S214004D7046D001222021FFF7BDFF0220FFF708FFE3
S214004D800646012200210220FFF7C8FF3146022016
S214004D90FFF724FF264B1D662368002BFCD046E059
S214004DA02023102504244FF0050CC4E7802340255B
S214004DB006244FF0070CBEE74FF400734FF48075DF
S214004DC008244FF0090CB6E70823042502244FF008
S214004DD0030CB0E7164B5B6A13F0300F0ED1164B80
S214004DE0DB6B134B5B6A13F0010FA9D0104E736A8E
S214004DF023F0300343F010037362A1E700219FE71E
S214004E0000210220FFF74AFFB7E709490B66084B67
S214004E10D3F890100123A3401942F8D13AB1044BBD
S214004E20D3F89020012303FA0CF31A42F7D170BD91
S214004E3000400E408004F21000300E4010B50446CC
S214004E40A8B1012818D0FFF7D3FBDCB9104B042219
S214004E505A67FDF795FBFFF76DFBFDF7BDFB0446B4
S214004E60FFF754FB01462046FFF7D6FB10BD012294
S214004E701146FFF753FFE6E7012211461046FFF7FB
S214004E804DFFE0E7012CE4D1014B03225A67E0E72F
S214004E9000400E4038B5FDF7B1FB0446002100F097
S214004EA0A5FB1648FFF746FB012211460220FFF736
S214004EB035FFFFF79DFB4CB1114BDB6B13F0400F3A
S214004EC004D1104BD3F8C830002BFAD10E4B022277
S214004ED05A67FDF755FBFFF72DFBFDF77DFB0546F3
S214004EE0FFF714FB01462846FFF796FB04B138BDD2
S214004EF00121002000F07AFBF9E700BF0148E80135
S214004F0000300E400000C64300400E4010B501229F
S214004F1011460320FFF702FFFFF76AFB084B052246
S214004F205A67FDF72DFBFFF705FBFDF755FB04461B
S214004F30FFF7ECFA01462046FFF76EFB10BD00BFF8
S214004F4000400E4070B504461120FFF73DFC0122DC
S214004F5000210220FFF7E2FE237C022B2AD000224B
S214004F60154E736A23F00103134373622278134BC2
S214004F70C3F8A024A288637A43EAC223F362356B9F
S214004F8005F07F65E38845EAC325A37A1D43207AAA
S214004F9045EAC01511F036FE05433563627BA37BF8
S214004FA01B0143EA0233E27B1343227B43EA0243BC
S214004FB0736370BD0122D3E700400E400000C84373
S214004FC038B505461120FFF7FFFB0D4A916B0D4CD7
S214004FD00C4029780C436B7844EAC324AB7844EA47
S214004FE00364EB7844EA0324936BA34200D138BDF4
S214004FF0012200210846FFF791FE014B9C63F6E76D
S21400500000400E4080E4FFF8074BDB6B13F0400FC8
S21400501004D1064BD3F8C830002BFAD1024B58689F
S214005020C0F30140704700BF00300E400000C6438A
S214005030114BDB6B13F0400F1DD10F4BDB6B13F0E6
S214005040400F04D10D4BD3F8C830002BFAD10A4BD1
S2140050501A68C2F301225B68C3F301439A4205D97A
S214005060054A136843F0100313607047024A13683A
S21400507023F010031360704700300E400000C64354
S214005080074B1B6813F0100F05D0064B1B69C3F3C4
S2140050900443082B00D07047034B044A1A60FAE713
S2140050A000300E4000400E403C200020C0EA2101A7
S2140050B01A48C26CC2F30322194B1B8803F128015D
S2140050C003EB51032833013202EB8201B3FBF1F309
S2140050D0013B072B28BF0723C16C21F0EE6141EA94
S2140050E0036343F48013C3640E4BB3F90030002B04
S2140050F013DB9BB203F1280103EB5103283351085D
S21400510001EB4202B3FBF2F3072B28BF0723026D25
S21400511022F0700242EA03130365704700300E4027
S214005120E4440020E0440020024B1880024B198023
S214005130704700BFE4440020E044002010B101287E
S21400514004D07047034B044A9A657047014B034AE4
S2140051509A65704700300E4077402057372110B7C9
S2140051601A4BD3F83032032929D8DFE801F00212AF
S2140051701518DBB24AB91B0333F4704121D1144829
S214005180C16E21F470411943C166012A09D001207D
S2140051907047C3F30723EDE7C3F30743EAE71B0EA5
S2140051A0E8E71B0333F470420DD10949D1F8EC202F
S2140051B022F470421343C1F8EC30012070470020FF
S2140051C07047002070470020704700BF0081E00F46
S2140051D000300E401B02A2B101221343B3F5007F3C
S2140051E04DD022D8B3F5807F42D00CD940F20112C0
S2140051F0934215D1294BD3F824321A0EC3F3074332
S21400520010E00022E9E763B3012B06D1234BD3F865
S2140052102432C3F30722DBB204E00022134601E087
S2140052200022134603600A607047B3F5407F2DD016
S21400523040F20132934206D1184BD3F828321A0EA8
S214005240C3F30743EEE740F20122934206D1134B25
S214005250D3F82832C3F30722DBB2E3E70022134673
S214005260E0E70E4BD3F81C32C3F30722DBB2D9E7D4
S2140052700A4BD3F81C321A0EC3F30743D2E7074B88
S214005280D3F82032C3F30722DBB2CBE7034BD3F8C5
S21400529020321A0EC3F30743C4E700BF0081E00FB5
S2140052A038B5002850D04B4BDB6B13F0400F07D1BE
S2140052B0494B1A78C2F1020210239340454A136103
S2140052C0464AD2F8804104F0010445F60E03C2F8BF
S2140052D08031434B1B6803F0010103F010000143CB
S2140052E003F04000084303F00401014303F4807315
S2140052F00B431366374BDB6B13F0400F04D1394B6F
S214005300D3F8C830002BFAD1324B1B6813F0100FBD
S2140053100DD0324BD3F8403113F0807FF9D1324BA9
S2140053201A682E4B1A61314B1B78052B2BD02F4B4E
S2140053301B78023B0A2B32D8DFE803F02E3F4331BE
S2140053403131313131464900244BD3F89020244B7B
S2140053501A601120FFF738FA244B18701D4BDB6BD0
S21400536013F0400F04D11F4BD3F8C830002BFAD1EE
S214005370184B5B68C3F30143174A1370174B1A693F
S214005380194B1A6018E01A4B1D68FFF73DFE0146E0
S2140053902846FFF741F9CAE70020FFF74FFD104BFC
S2140053A01B6813F0010F02D10C4B02221A661CB1C7
S2140053B00A4B0022C3F8802138BD0120FFF73EFDCE
S2140053C0EDE7FFF767FDEAE7FFF7A0FDE7E7FFF782
S2140053D0BDFBE4E700300E400A45002000400E40CA
S2140053E0F42E00200000C643F02E00200B450020BF
S2140053F03C200020074A136823F44073417843EAB0
S214005400012313604378022B00D07047024B5B6A7F
S214005410FBE700BF00300E4000400E4038B50446A3
S214005420F8B9FFF705FE184A136943F00403136141
S21400543011F01AFC11F019FC144B154AC3F8242479
S21400544003F559231B6813F0100F0ED130BF11F06F
S2140054500DFC01F08DFF8CB10120FFF721FF84B118
S21400546038BD0020FFF71CFFDBE711F0D6FB054632
S21400547014F0A2FE284611F0D4FBE8E7FFF700FE82
S214005480EDE7FDF7A9F8EBE700ED00E000A000402F
S2140054900000FFFF38B5044650BBFFF7C9FD1E4BA2
S2140054A0D3F8802145F60E01C3F880114FF4207121
S2140054B0196612F0010F02D00022C3F88021174AA5
S2140054C0136943F004031361154B164AC3F82424EA
S2140054D011F0CAFB144B1B6813F0100F0CD130BF31
S2140054E001F046FF8CB10120FFF7DAFE84B138BD2B
S2140054F00020FFF7D5FED0E711F08FFB054614F02D
S2140055005BFE284611F08DFBEAE7FFF7B9FDEDE7F5
S214005510FDF762F8EBE700BF00400E4000ED00E04C
S21400552000A000400000FFFF00300E40134B9A69B9
S21400553022F03F020378D3B104234178C9B1022197
S2140055400B438178B9B108210B43C178012900D0FB
S21400555000210B4301790B431343084A93611368F8
S21400556023F44033417943EA014313607047002334
S214005570E3E70021E4E70021E6E700BF00300E4045
S214005580174BDB6B13F0400F29D170B504460D4660
S214005590FFF73AFDA04218D0124BD3F80031FCF7C3
S2140055A0EFFF0646022C11D0C4F1020210239340EE
S2140055B00B4A136145B1D36B13F0400F04D10A4B6D
S2140055C0D3F8C830002BFAD124B170BD0221FFF702
S2140055D023F8E9E700213046FFF71EF8F5E77047A5
S2140055E000300E4000400E400000C64338B5114B58
S2140055F0DB6B13F0400F0BD10C4650B10E4B1B78F3
S21400560013B10E4B98420FD921460020FFF7B8FF82
S21400561038BD0B4BD3F80051C5F304250135FCF714
S214005620AFFF05FB00F0E9E721460220FFF7A8FFE1
S214005630EEE700BF00300E40F82E0020002D3101AE
S21400564000400E4008B50278034B1A700121002076
S214005650FFF7CCFF08BD00BFF82E002010B42C4B7F
S2140056605A6B4AF6E8515963294B9B6F13F0010FAA
S214005670FAD1274B1B6C13F0030303D025490124F2
S214005680C1F8B44AD9B2814221D0032B00D01BB94D
S214005690431EDBB2012B21D91D4B9B6F13F0010F6C
S2140056A0FAD11B490B6C23F0030303430B64184B1E
S2140056B09B6F13F0010FFAD1003818BF0120154B6D
S2140056C0C3F8B40A012A1FD05DF8044B70470028BF
S2140056D0FAD1104B0022C3F8B42AF5E70C4B4FF46E
S2140056E00021D9620A4B9B6F13F0010FFAD10849CB
S2140056F00B6C23F0030343F001030B64044B5B6A5B
S21400570013F4002FFAD0C7E7014B00225A63DBE7F9
S21400571000300E400000C6432DE9F04F8DB00091DA
S2140057200192002309930A930B9306930793089319
S214005730039304930593654A1288ADF808208DF804
S2140057400A30A0F5E163B3F5966F00F2AE80064628
S214005750B0F5E16F8CBF4FF001094FF000096DD92D
S2140057604FF4966A4FF4E164B6F5E16F6BD9584B87
S214005770D3F8183208931A0E0592C3F3074308931A
S214005780544DEF6CC7F301778DF808703B464A46D8
S21400579003A906A8FFF71EFDD5F8EC30C3F30128D1
S2140057A08DF8098043464A4604A907A8FFF712FD6C
S2140057B0321B089B0599C91A02FB01F1B1FBFAF1ED
S2140057C00B9119440B91DDF80CB0DDF818C0ABEB6B
S2140057D00C0502FB05F5B5FBFAF509956544099538
S2140057E0DDF810E00798AEEB000404FB02F2B2FB13
S2140057F0FAF20A9284180A94059A8A4259D38B427E
S21400580059D8A64559D3A04259D8AB4559D3AC452B
S21400581059D8019B73B12F4BDB6D23F4FE4323F065
S214005820020343EA0123B6F5E16F16D902221343B9
S214005830284AD365009B93B9012037E04FF4167AC7
S2140058404FF4966490E7224BD3F818320893C3F3CC
S21400585007220592DBB2089392E70022E7E70022D0
S21400586039464846FFF77CFC00B3012241464846CD
S214005870FFF776FCD0B1A54238BF25460995E72D3F
S21400588028BFE7250995134B5B6E23F4FF7323F0BF
S214005890010343EA4503B6F5E16F04D90122134339
S2140058A00C4A536602E00022F9E700200DB0BDE87E
S2140058B0F08F0020FAE70020F8E70020F6E7002047
