S0370000626F6F746C6F616465722D73746F726167652D737069666C6173682D736664702D73696E676C652D636F6D62696E65642E733337F2
S3150FE100000F4880F308880F4800470000D105E10F3C
S3150FE10010D105E10FD105E10FD105E10FD105E10FD2
S3150FE10020D105E10FD105E10FEC05E10FD105E10FA7
S3150FE10030D105E10FD105E10FD105E10FD105E10FB2
S3150FE10040004000208505E10F0348044B834202D0AF
S3150FE10050034B03B118477047140100201401002028
S3150FE10060000000000548064B1B1AD90F01EBA3014F
S3150FE10070491002D0034B03B1184770471401002012
S3150FE10080140100200000000010B5064C237843B997
S3150FE10090FFF7DAFF044B13B10448AFF300800123F6
S3150FE100A0237010BD14010020000000000006E10FCF
S3150FE100B008B5054B1BB105490548AFF30080BDE80F
S3150FE100C00840FFF7CFBF00BF000000001801002076
S3150FE100D00006E10F044B054A9A60D3F8882042F4F3
S3150FE100E07002C3F88820704700ED00E00000E10FD1
S3150FE100F0094A0A4BD969C90705D512B96FF002004A
S3150FE101007047013AF6E7002AF8D001221861DA6062
S3150FE10110D86940F3800070478096980000000E4042
S3150FE1012070B509B9002070BD0E4A0023082550F8B5
S3150FE10130234094610C4CD5600133D669F60705D59A
S3150FE1014014B96FF00200EEE7013CF6E7002CF8D0A8
S3150FE10150D469A40702D49942E9D1E3E76FF001002C
S3150FE10160E1E700BF00000E40809698002DE9F843C5
S3150FE101701C4B0D4641F671311E6C19641A498046C6
S3150FE1018048684968996841F00101B6B299609708E4
S3150FE101904FF00009B94501D3002005E008EB8904CA
S3150FE101A02046FFF7A5FF48B10E4B9A6822F00102F0
S3150FE101B09A600EB100221A64BDE8F883C4F30A010E
S3150FE101C0C1F500618908A7EB0903994228BF1946D2
S3150FE101D02846FFF7A5FF0028E6D1894405EB8105FF
S3150FE101E0D8E700BF00000E4000300E40234B41F62A
S3150FE101F071311A6C10B5196421494C6849689968CF
S3150FE1020041F00101996001211861D960D9694C0763
S3150FE1021092B209D5996821F0010199600AB10022DC
S3150FE102201A644FF0FF3010BD0221D9601549D86924
S3150FE10230C00700D569B9D86910F002000BD09968EB
S3150FE1024021F0010199600AB100221A646FF00100F1
S3150FE10250E9E70139EBE741B9986820F001009860C9
S3150FE1026002B119646FF00200DDE7996821F001012F
S3150FE1027099600AB90020D6E71864FBE700000E4043
S3150FE1028000300E4080969800FFF770BF08B50A4B15
S3150FE102901A680A4B1A600A4B40221A615A685203CE
S3150FE102A0FCD400F07DF80028FBD040F2022000F0EC
S3150FE102B0C9F8002008BD00BF040100200801002095
S3150FE102C000300E4010B5104C104BA36000F0D8F87B
S3150FE102D00F4B5B68B3F5803F09D040F20923984293
S3150FE102E002D0B0F5007F02D100F016F850B9094BF4
S3150FE102F0A3601846016881F3088881F3098840688D
S3150FE103008746FEE710BD00BF00ED00E00000E10FFC
S3150FE1031000500E400008E10F2DE9F041DFF87C8037
S3150FE10320D8F828201069D568836AAB4202D200203B
S3150FE10330BDE8F08105F510429A42F8D95B1BC61864
S3150FE10340C758144B9F42F2D1F1684FF0FF3200F0DC
S3150FE10350FFF8114B98420446E9D1D8F82838A3F1B2
S3150FE103607E62A2F58432B2F5104F10D21A68BA4204
S3150FE103700DD1B1689A68914209D8D9684FF0FF3229
S3150FE10380284600F0E5F8001B18BF0120D0E7012051
S3150FE10390CEE700BF07B0CD5EE320BBDE0000E10F85
S3150FE103A0F8B5194B9B6AD3E90347BB6A1B1BFD18CB
S3150FE103B02646EA68A318B3421DD83946204600F00F
S3150FE103C092F8B8B1104BD3F82838A3F17E62A2F5B3
S3150FE103D08432B2F5104F14D219680C4A914210D1FA
S3150FE103E0D9684FF0FF32204600F0B2F8084BC31A36
S3150FE103F058425841F8BD304600F06EF806F50066F2
S3150FE10400D7E70020F6E700BF0000E10F07B0CD5EAA
S3150FE10410E320BBDE4FF000534AF6C0305B8823F092
S3150FE104200F039BB21B1A5842584170474FF00052C7
S3150FE1043008B51080FFF7EEFF10B94FF20F035380A7
S3150FE1044008BD000008B5FFF7F1FF0A4A136823F468
S3150FE10450E06343F400731360BFF34F8F0649074B15
S3150FE10460CA6802F4E0621343CB60BFF34F8F00BF5C
S3150FE10470FDE700BF00500E4000ED00E00400FA0575
S3150FE104804FF000534FF20F015A888A4201D1188873
S3150FE1049070473AB91B88012B40F2022018BF4FF47F
S3150FE104A0007070474FF40070704707B503469B071E
S3150FE104B053BF6FEA01414FF6FF7343EA01416FEA1A
S3150FE104C011410422019120F003000DEB0201FFF728
S3150FE104D0DBFE03B05DF804FB08B5FFF787FEB0FA64
S3150FE104E080F0400908BDF8B505460E4614460AB92F
S3150FE104F00120F8BD42EA0003DA0701D50020F8E74B
S3150FE10500830721D50988FFF7D0FF0028F6D1023CF2
S3150FE10510032C05F1020506F102060BD924F00307B8
S3150FE105203A4631462846FFF7AFFE0028E6D13E446C
S3150FE105303D44E41B002CDBD031882846FFF7B5FF9D
S3150FE10540B0FA80F04009D4E7032CE7D8F4E70000CE
S3150FE1055010B50A4CD4F8B03043F04003C4F8B030CC
S3150FE10560074B01241C6001449A605C60884201D10B
S3150FE10570D86910BD10F8012B9A61F7E700400E40DC
S3150FE1058000C001400B4880470B4880470B490C4A96
S3150FE105900C4B9A42BEBF51F8040B42F8040BF8E735
S3150FE105A009490A4A00209142BCBF41F8040BFAE718
S3150FE105B0FFF76CFED500E10FC502E10F0406E10F6F
S3150FE105C00401002014010020140100203001002055
S3150FE105D0FEE700BFF8B500BFF8BC08BC9E46704702
S3150FE105E0F8B500BFF8BC08BC9E467047AD1007B022
S3150FE105F00100000000000C010008E10F008000007F
S3150FE1060000000000C0EA2101C0EA2101B100E10FBB
S3090FE106108900E10F77
S3150FE10800081000203729E10F3529E10FC129E10F42
S3150FE108103529E10F3529E10F3529E10F3529E10FAA
S3150FE108203529E10F3529E10FA437E10F3529E10F1D
S3150FE108303529E10F5437E10F3529E10F3529E10F5D
S3150FE108403529E10F3529E10F3529E10F3529E10F7A
S3150FE108503529E10F3529E10F3529E10F3529E10F6A
S3150FE108603529E10F3529E10F3529E10F3529E10F5A
S3150FE108703529E10F3529E10F3529E10F3529E10F4A
S3150FE108803529E10F3529E10F3529E10F3529E10F3A
S3150FE108903529E10F3529E10F3529E10F3529E10F2A
S3150FE108A03529E10F3529E10F3529E10F3529E10F1A
S3150FE108B03529E10F3529E10F3529E10F3529E10F0A
S3150FE108C03529E10F3529E10F3529E10F3529E10FFA
S3150FE108D03529E10F3529E10F3529E10F3529E10FEA
S3150FE108E03529E10F3529E10F3529E10F3529E10FDA
S3150FE108F03529E10F3529E10F3529E10F3529E10FCA
S3150FE109003529E10F3529E10F3529E10F0000000007
S3150FE10910013800D0FCE770470348044B834202D00D
S3150FE10920034B03B118477047101000201010002039
S3150FE10930000000000548064B1B1AD90F01EBA30176
S3150FE10940491002D0034B03B118477047101000202E
S3150FE10950101000200000000010B5064C237843B9B3
S3150FE10960FFF7DAFF044B13B10448AFF3008001231D
S3150FE10970237010BD2810002000000000C839E10FD8
S3150FE1098008B5054B1BB105490548AFF30080BDE836
S3150FE109900840FFF7CFBF00BF000000001010002096
S3150FE109A0C839E10F064B0748DA1C121AC11E22F0AD
S3150FE109B00302994288BF0022034902F075BE00BFC8
S3150FE109C01010002008100020D439E10F064B07481C
S3150FE109D0DA1C121AC11E22F00302994288BF0022C5
S3150FE109E0002102F07FBE00BF2C1000201010002066
S3150FE109F0044B054A9A60D3F8882042F47002C3F893
S3150FE10A008820704700ED00E00008E10F70B4084D53
S3150FE10A10D5F828582E698642034606D86C691344E1
S3150FE10A209C4202D370BC01F091BF70BC704700BF0E
S3150FE10A300000E10F37B51446144A936A0D4619685B
S3150FE10A40134B994220D100F5004310F5004F019366
S3150FE10A501AD2019BB3F5801F16D2019BC3F5801302
S3150FE10A60A34211D340B9D2F828385A69B2F5004FEB
S3150FE10A7002D9186902F02EF801982246294603B0E9
S3150FE10A80BDE8304001F062BF03B030BD0000E10FB9
S3150FE10A90AD1007B0F0B5421ED11C85B0034618D88C
S3150FE10AA00D4C6E4604F1100720686168354603C5A3
S3150FE10AB00834BC422E46F7D104A90F3311F8014D84
S3150FE10AC012F8010F844204D19A42F7D1012005B001
S3150FE10AD0F0BD0020FBE700BF4037E10FF0B503683B
S3150FE10AE003F16043B3F5802F9FB004465DD8314AD9
S3150FE10AF04368D2F8282816699E4256D8B3F5801F67
S3150FE10B0053D8456B06F14003AB4250D8B5F5801F7C
S3150FE10B104DD82846FFF7BEFF002848D0284601F0FA
S3150FE10B2037FF80B16F6977B1022F0ED1AB69C4F18F
S3150FE10B30040119444FF0FF32204600F00DFE1E4B23
S3150FE10B40C31A584258411FB0F0BD40F2046328461C
S3150FE10B500393FFF79FFF0028F5D0012F25D1AD694C
S3150FE10B60AE4222D8AC4220D8B5F5801F1DD804A8D5
S3150FE10B7002F0F9F82A1B214604A802F0FEF804A8B0
S3150FE10B8002F0FDF800F042FE044600F043FE234674
S3150FE10B90009005F12002294604A800F0F7FD039025
S3150FE10BA00398B0FA80F04009CDE70020CBE70120AA
S3150FE10BB0C9E700BF0000E10FE320BBDE08B54FF048
S3150FE10BC0FF3200F0C9FD044B984203D140F20920F0
S3150FE10BD000F008F9002008BDE320BBDE314B01220E
S3150FE10BE013B55A6401F07AFE2F4B90B94AF6E852E3
S3150FE10BF0C3F89021D3F8982142F00402C3F8982163
S3150FE10C00C3F89001D3F8642142F40052C3F864218A
S3150FE10C1001E00128F6D0254A136A23F4441343F47D
S3150FE10C2088131362A2F58042136843F4807313604D
S3150FE10C301D4B5B6801F0B6FE00F09CF808B900F0B9
S3150FE10C4081F802F0F9F8044658B900F093F808B1C3
S3150FE10C5000F088F840F2012000F0C4F84FF401707B
S3150FE10C6018E000F087F808B900F074F800F09CF886
S3150FE10C70012802D900F066F8FEE700F0A1F80C4B67
S3150FE10C800193019B002B0ADC40F205439C42E5D11F
S3150FE10C9040F2032000F0A6F8002002B010BD019B40
S3150FE10CA0013BEDE700000E4000300E4000400E40E4
S3150FE10CB000350C0013B501238DF806308DF807309A
S3150FE10CC01E4B5B685A050FD500F0AAF8A0F2022079
S3150FE10CD080B2072808D8C923C340DB0742BF0023E8
S3150FE10CE08DF806308DF8073000246368013307D19C
S3150FE10CF04FF4027000F04CF88DF806408DF807407E
S3150FE10D009DF807305BB10020FFF7E8FE8DF806008E
S3150FE10D109DF806301BB94FF4027000F039F89DF8D3
S3150FE10D2006304BB100F026F808B100F01BF8044B82
S3150FE10D300020986001F03AFE02B010BD00500E405F
S3150FE10D4000ED00E0024B4CF23C325A80704700BF97
S3150FE10D5000000020024B4AF6C0325A80704700BFAE
S3150FE10D6000000020024B4FF20F025A80704700BF7E
S3150FE10D7000000020054B5B8823F00F034AF6C030D5
S3150FE10D809BB21B1A58425841704700BF0000002022
S3150FE10D90044A08B51080FFF7EDFF10B94FF20F03C4
S3150FE10DA0538008BD0000002008B5FFF7E3FF18B137
S3150FE10DB0024B588800F00F0008BD00BF000000206D
S3150FE10DC008B5FFF7D7FF48B1054A538803F00F017E
S3150FE10DD00F2914BF013323F00F03538008BD00BF62
S3150FE10DE00000002008B5FFF7D3FF0A4A136823F482
S3150FE10DF0E06343F400731360BFF34F8F0649074B6C
S3150FE10E00CA6802F4E0621343CB60BFF34F8F00BFB2
S3150FE10E10FDE700BF00500E4000ED00E00400FA05CB
S3150FE10E20094B5A884FF20F018A4201D11888704750
S3150FE10E303AB91B88012B40F2022018BF4FF400701C
S3150FE10E4070474FF4007070470000002010B504465C
S3150FE10E5000F0C8F8064BB0FBF3F304FB03F00328ED
S3150FE10E6004D9BDE810408008FFF752BD10BD00BFA1
S3150FE10E7040420F0008B50548012101F0EBFBBDE843
S3150FE10E8008400348012101F0E5BB00BF00350A0028
S3150FE10E900052040010B5FFF7EDFF002304220621EF
S3150FE10EA0022001F01DFC022210460023072101F06A
S3150FE10EB017FC002304220821022001F011FC042271
S3150FE10EC0124C01231146002001F00AFC40F6AA63F9
S3150FE10ED0E3600023A360E3640D4BA36440F2014397
S3150FE10EE0236041F20503636000F07CF8094B01389A
S3150FE10EF0B0FBF3F0102300026061E3600B2363673D
S3150FE10F0003F10B23A3670523E36010BD0004014042
S3150FE10F10F9FF01000050C30010B50446FFF7AAFF21
S3150FE10F2021460248BDE8104002F0D5BA000401405F
S3150FE10F3038B50E4C0546FFF79DFFC5F30741204631
S3150FE10F4002F0D3FAC5F30721204602F0CEFAE9B251
S3150FE10F50204602F0CAFA204602F0B7FA204602F01E
S3150FE10F60B4FA2046BDE8384002F0AFBA00040140BA
S3150FE10F7008B5FFF77FFFBDE808400248FF2102F001
S3150FE10F80AABA00BF0004014038B50B4DFFF772FF57
S3150FE10F902846FF2102F0A9FAFF21284602F0A5FA19
S3150FE10FA0284602F092FA0402284602F08EFAA4B21B
S3150FE10FB0204380B238BD00BF0004014008B5FFF7FA
S3150FE10FC059FF024B1022DA6008BD00BF00A00044B2
S3150FE10FD008B5FFF74FFF024B1022DA6008BD00BFDD
S3150FE10FE000A0004630B51B4B87B001AA03F11005EF
S3150FE10FF018685968144603C40833AB422246F7D141
S3150FE110001B78154A2370D2F8943003F00703022BAD
S3150FE110101BD01369C3F30443102B18D818336B4451
S3150FE110200E4913F8143C4B430D498B4203D1126918
S3150FE11030C2F34162D340084AD2F80001C0F304205B
S3150FE110400130B3FBF0F007B030BD064BF3E7064BCB
S3150FE11050F1E700BFEC37E10F00400E4040420F00D1
S3150FE1106000093D0000F04902C0EA2101074930B508
S3150FE11070024600230C2505FB03F460180C59944234
S3150FE1108003D001330A2BF6D1002030BD0038E10F32
S3150FE11090F0B587B000230827CDE9013315463B4666
S3150FE110A0009704AA044601F080FD41F2030398423A
S3150FE110B0064623D194F8433053B1E06C3A4604A97E
S3150FE110C001F05BFE04AAA06C3B46114601F03AFE25
S3150FE110D0059A6A6094F84320049B2B6052B9094A3A
S3150FE110E0934207D0084A934204D0E06C082204A940
S3150FE110F001F043FE6B68236500236365304607B055
S3150FE11100F0BD00BFF70A0AF7FC0404FC2DE9F0472E
S3150FE1111099465B6804460F469046002B41D08B07F4
S3150FE1112042D1234B006ED3F828381B6981181D1D58
S3150FE11130A9421BD31C33984218D2A842024638BFA4
S3150FE111402A46101A3E18C5F16800994294BFC2EBC0
S3150FE11150010AC2EB030A104431465246204402F01B
S3150FE11160A3FA5246FF21304602F0BCFA226E48F24C
S3150FE1117004039A420CD802EB080048F207018842B1
S3150FE1118006D99B1AFA58C4F880204FF0FF32FA506D
S3150FE11190D9E90035206E42463946A847236E4344C6
S3150FE111A023660020BDE8F08741F20200FAE700BFAF
S3150FE111B00000E10F2DE9F04FA7B0CDE913239846D3
S3150FE111C0309F002304460E4615934FF00109159AF9
S3150FE111D0424501D30020C6E094F84630102BF7D8EC
S3150FE111E0DFE813F05C00A900A3004200290011011A
S3150FE111F08A0129008201290082013E02B302110010
S3150FE1120007010802B1020025636D0F2B00F29180F1
S3150FE112101023009316AA4023CDE9019513A9204681
S3150FE1122001F0C3FC0B900B9A41F203039A4200F0D3
S3150FE11230D2800B9B3EE04FF0010AD4E914539D4255
S3150FE1124077D9ED1ADDE914329B1A94F84020032D74
S3150FE11250134440F25D81032B00F2718113A92046FD
S3150FE1126001F082FC002325E0A54DDFF8A0A2636D16
S3150FE11270072B00F2D5800823009316AA4023CDE968
S3150FE11280019913A9204601F090FC0D900D9A41F2B8
S3150FE1129003039A4200F0EE800D9B0BE016AA13A909
S3150FE112A02046FFF7F5FE0890089B41F203029342B1
S3150FE112B007D0089B0793079A41F203039A4286D018
S3150FE112C050E0179A22650022169962658D4A91427E
S3150FE112D040F0E180022284F84620EBE708230093F1
S3150FE112E016AA4023CDE9019513A9204601F05DFC2D
S3150FE112F00990099A41F203039A4201D0099BD9E772
S3150FE11300169B03F07F43B3F1407F05D0102384F89A
S3150FE11310463041F20903CDE7179BD90706D594F875
S3150FE11320423043F0010384F842300025636D072B09
S3150FE11330D4D90123DDE016AA13A92046FFF7A8FEAB
S3150FE113400A900A9D41F203039D420FD00A9D07952C
S3150FE11350079A41F203039A423FF439AF079B0BB168
S3150FE113600023F370079827B0BDE8F08F1698FFF7C3
S3150FE113707DFE28B9102384F8463041F20805E6E7E9
S3150FE11380437994F890209A4205D9102384F8463090
S3150FE1139041F20E05DBE702685B498A4205D0028915
S3150FE113A0D20748BF013384F8903094F84230D90719
S3150FE113B00DD5028994F84330920706D53BB1102338
S3150FE113C084F8463041F20105C1E7002BF7D00379E6
S3150FE113D084F84630BBE7D4F848A000F01FFA802323
S3150FE113E0CDE9000317AA01230221504601F08AFC39
S3150FE113F00AE7226DA2650123002284F84330E265F4
S3150FE1140084F84630E3E600213C2217A8169102F054
S3150FE1141069F90125D4E91432934204D884F8465088
S3150FE1142041F2030346E7009316AA4023CDE901559E
S3150FE1143013A9204601F0B9FB0C900C9A41F2030374
S3150FE114409A4201D00C9B35E70DF1580C06F10803D2
S3150FE114500DF1700E624603CA7245186059609446E3
S3150FE1146003F10803F6D110681860337843F00103EE
S3150FE114703370CFE73378179A43F002033370169B35
S3150FE114807360236D083B7362AB6A1968514505D1E9
S3150FE11490DB68934205D0102384F8463041F201030D
S3150FE114A008E7042384F8463094F8453043F0010306
S3150FE114B084F8453000236366D9E60423009316AA20
S3150FE114C04023CDE9015513A9204601F06EFB0E909D
S3150FE114D00E9A41F203039A4201D00E9BEAE6226D80
S3150FE114E0169B042A01D923660125636D032BE4D9E3
S3150FE114F0092384F8463093E70023636607237FE7E2
S3150FE115000000E10FEB17A603F90707F9AD1007B0D6
S3150FE115109D423FF6A3AE9D4228BF1D46402316AA24
S3150FE11520CDE901AA009513A9204601F03EFB0F90E4
S3150FE115300F9A41F203039A420AD00F9BBAE6402D66
S3150FE1154028BF40259D4228BF1D4625F00305E5E747
S3150FE1155094F84630072B1CD0042DC5F1040B0593E7
S3150FE1156088BF4FF0000B16AB5A465819FF2102F010
S3150FE11570B9F8059B092BAB4419D13B465A4616A937
S3150FE115802046FFF7C3FD0F900F9B002B3FF455AE9F
S3150FE11590D3E7D7F808B0BBF1000FDDD03B68606E3B
S3150FE115A02A4616A9D847636E2B44636645E6042B94
S3150FE115B07FF443AE737899077FF53FAEFB68002B57
S3150FE115C03FF43BAE626E042A0BD80BEB0203062BFC
S3150FE115D007D917AB9B1A1A68C4F884204FF0FF326C
S3150FE115E01A603B68FD68606E5A4616A9A847636E96
S3150FE115F05B44DAE794F84450002D7FF49AAE40232A
S3150FE11600009316AACDE9015513A9204601F0CDFAAB
S3150FE116101090109A41F203039A4201D0109B49E6CA
S3150FE11620E06C01F0ACFBD4F84CA000F0EFF8834688
S3150FE1163000F0F0F85B4600901EAA16A9504600F09E
S3150FE11640A5F81090109B33B11023F57084F846304E
S3150FE1165041F206032EE60123F37084F8443068E67F
S3150FE1166000234FF00408CDE9013316AA4023CDF844
S3150FE11670008013A9204601F098FA1190119A41F2D0
S3150FE1168003039A4202D0119B07936BE6D4F88820A5
S3150FE116902F4B9A4205D0102384F8463041F20503C9
S3150FE116A0F2E70123F37094F84530DA0707D5FD68C1
S3150FE116B02DB13B68424604F184014046A84794F8B0
S3150FE116C045309B0707D5FD682DB104223B6804F130
S3150FE116D084011046A847236E73B37D6865B304F1A1
S3150FE116E080084FF0FF330422414612A8129301F00E
S3150FE116F0E9FF28B13B680422414648F20400A847B6
S3150FE1170004F168090422494612A801F0DBFF98B1FA
S3150FE11710104BD3F82838D3F810801422D7E90035C7
S3150FE1172004F16C0108F10800A8470422D7E9003556
S3150FE11730494608EB0200A8470123B3700C2384F84E
S3150FE1174046300023A0E70023F37041F207000AE6D3
S3150FE11750E320BBDE0000E10F10B50A4CD4F8B03040
S3150FE1176043F04003C4F8B030074B01241C60014439
S3150FE117709A605C60884201D1D86910BD10F8012BDF
S3150FE117809A61F7E700400E4000C001402DE9F041B4
S3150FE11790A2B00E46DDF8A08015461F46044670B38B
S3150FE117A069B362B35BB3B8F1000F28D015480121D5
S3150FE117B000F050FF4022002102A801F093FF3946C5
S3150FE117C002A801F0EEFA12AF41460AA801F0E9FAD2
S3150FE117D040220021384601F085FF3146384601F0B7
S3150FE117E0E0FA29461AA801F0DCFA0748009702AB9E
S3150FE117F02022214600F0BAFA22B0BDE8F08140F28C
S3150FE118000160F9E700050A0000000F400048704744
S3150FE118104A43E00F004870476A43E00F00487047BC
S3150FE118208642E00F2DE9F04104461D460F469046EC
S3150FE1183000211C22181D01F055FF01232B6001F039
S3150FE118403DFD4146064604F5807001F0A4FD39469B
S3150FE1185004F5827004F5847701F09DFD294638463B
S3150FE1186001F099FD304601F02DFD0D4E0D4B0E4A5F
S3150FE118700E490F4823656369DB010BD501F01EFDA8
S3150FE1188029460446384601F08EFD2046BDE8F04173
S3150FE1189001F018BD22656165A065E665EBE700BF5E
S3150FE118A03938010039398401D02484FC1C82FED8F1
S3150FE118B08B1C81A02DE9F04F8DB0044617460D46DE
S3150FE118C01E4601F0FBFC04F5827805F1400B8146DB
S3150FE118D05946404601F05FFD04F58673184604F557
S3150FE118E0887A3946039301F056FD07F120015046F8
S3150FE118F001F051FD484601F0E5FC414A2265414AB6
S3150FE1190062650127404AA265E76501F0D7FC2946E2
S3150FE119100190404601F03FFD04F5847905F120027F
S3150FE1192011464846029201F036FD5946504601F0FE
S3150FE1193032FD019801F0C6FC3449216534496165F0
S3150FE11940A76501F0BBFC04F5807B824606F14001F9
S3150FE11950584601F028FD04A9484601F024FD5046FA
S3150FE1196001F0B0FC01F0AAFC039B2946824618461A
S3150FE1197001F011FD504601F0A5FC264B2365264BE0
S3150FE1198063656FF42672A3F5FE231344A365E7653A
S3150FE1199001F094FC029A05461146404601F0FBFC24
S3150FE119A0284601F08FFC1D4B23651D4B6365A7652B
S3150FE119B001F084FC31460546484601F0F4FC284621
S3150FE119C001F080FC01F07AFC04A90546404601F0DE
S3150FE119D0E2FC284601F076FC124B2365124B636558
S3150FE119E0A76501F06BFC06F120010446584601F0AC
S3150FE119F0DAFC204601F066FC0DB0BDE8F08F00BFC2
S3150FE11A008AD11C81D91C83D11C81E11CD01482CBD4
S3150FE11A101481E11C8CE11C811C84D91CE014D814BF
S3150FE11A201482E11C84D31482D11CE0142DE9F04118
S3150FE11A30044690B00F46244E0521904601F020FD55
S3150FE11A4000232360236363630FCE08AD0FC596E8CA
S3150FE11A500F0085E80F0008AA6B4607F14001204603
S3150FE11A60FFF7E0FE01F02AFC04F5867605466946A6
S3150FE11A7004F5827001F08FFC3946304601F08BFC9C
S3150FE11A8007F1200104F5887001F085FC284601F085
S3150FE11A9019FC0E4B23650E4B63650E4BA3650123B4
S3150FE11AA0E36501F00BFC08F12001054604F58070B2
S3150FE11AB001F079FC4146304601F075FC284601F00C
S3150FE11AC001FC10B0BDE8F0818438E10F8AD11C81A9
S3150FE11AD0D91C83D11C81E11C2DE9F04FA5B01D4620
S3150FE11AE00446CDE9021205A81C22002101F0FAFDF8
S3150FE11AF04FF0010820220021284605F12007CDF8F5
S3150FE11B00108001F0EFFD20220021384601F0EAFDB9
S3150FE11B1005F14003184620220021009301F0E2FD72
S3150FE11B200521204601F0ACFC0023236023636363A8
S3150FE11B30039BDB69002B4FF0FF060BDB013E09D060
S3150FE11B400399721106F01F0351F8222008FA03F3E5
S3150FE11B501342F3D001F0B2FB04F5827339468046A6
S3150FE11B601846019301F017FC404601F0ABFB734BAE
S3150FE11B702365734B6365734BA36501F09FFB04F517
S3150FE11B80807914A98046484601F00DFC404601F0E4
S3150FE11B9099FB01F093FB29468046484601F0FBFB92
S3150FE11BA0404601F08FFB684B2365684B63654FF445
S3150FE11BB08673A36501F082FB04F5867882460CA94C
S3150FE11BC0404601F0F0FB1CA9484601F0ECFB5046FC
S3150FE11BD001F078FB01F072FB8246DDE9001001F0BE
S3150FE11BE0DAFB504601F06EFB594B23650123636522
S3150FE11BF001F064FB04F5847A29468346504601F0E9
S3150FE11C00CAFB584601F05EFB524A226502F1D94200
S3150FE11C1002F5DE1202F595626265A2F586120123DF
S3150FE11C20A2F2BA42A265E36501F048FB1CA983461D
S3150FE11C30504601F0B0FB0CA9404601F0ACFB58460B
S3150FE11C4001F040FB444A2265444A6265444AA26573
S3150FE11C5001F034FB2946834604F5887001F0A3FBB6
S3150FE11C60584601F02FFB01F029FB394683460198CF
S3150FE11C7001F091FB5046009901F08DFB14A9404606
S3150FE11C8001F089FB584601F01DFB364A2265364ABB
S3150FE11C90626501F013FB00998246484601F083FB2A
S3150FE11CA03946404601F07FFB504601F00BFB06F04B
S3150FE11CB01F0101238B407211039951F82220134220
S3150FE11CC011D0284601F05EF838B1384601F05AF8DE
S3150FE11CD018B1009801F056F858B9029A2B462946E1
S3150FE11CE02046FFF7E7FD013EBFF434AF25B0BDE86F
S3150FE11CF0F08F029BAC4603F1200E186859686246D5
S3150FE11D0003C2083373459446F7D1BC4603F1200E5F
S3150FE11D1018685968624603C2083373459446F7D18A
S3150FE11D200DF1100EBEE80F0005F1400CACE80F0007
S3150FE11D309EE80F008CE80F00D5E700BF8AD11C8122
S3150FE11D40821CC00C0C0C0100C00C0C83D91C83D86F
S3150FE11D508AD11C83DA0C81148CE11CD01484E31430
S3150FE11D6082D11C01D81483D11CC00C012DE9F04F8F
S3150FE11D70BBB00F460446002115460AA86022449ED1
S3150FE11D809A4601F0AFFC6022002122A801F0AAFCDD
S3150FE11D90002F00F01981BAF1000F00F01581002E26
S3150FE11DA000F01281002D40F30F810023236023639E
S3150FE11DB06363636843F0100363600C21204601F00F
S3150FE11DC05FFB6368DFF820E223F4406343F40063CB
S3150FE11DD06360636823F4407343F400736360BEE8A2
S3150FE11DE00F000DF1A80CACE80F009EE80F008CE890
S3150FE11DF00F0001F063FA04F58479834631464846CC
S3150FE11E0004F5867801F0C7FA2AA9404601F0C3FA2C
S3150FE11E10584601F057FA6E4A2265012363656369F5
S3150FE11E20DA0104D440F202603BB0BDE8F08F311F16
S3150FE11E30082351F8040F002800F0BE8001F03EFAA6
S3150FE11E4006F1200B01905946484601F0A4FA2AA95A
S3150FE11E50404601F0A0FA019801F034FA01235C4AF9
S3150FE11E60226563656369DB01DCD506F11C02082394
S3150FE11E7052F8041F002900F0A3802022002132A886
S3150FE11E8001F030FC202DA8BF2025013D013F25F0B3
S3150FE11E90030303F594736B4405F0030117F8012F60
S3150FE11EA0C9008A4053F8601C013D42EA010243F83A
S3150FE11EB0602CECD201F002FA32A90546484601F050
S3150FE11EC06AFA284601F0FEF9424B236501F0F6F96D
S3150FE11ED004F58077054632A9384601F064FA2846BB
S3150FE11EE001F0F0F92AAA02AB59462046FFF79AFC10
S3150FE11EF001F0E4F904F5887B054602A904F5827041
S3150FE11F0001F049FA32A9584601F045FA3146404601
S3150FE11F1001F041FA284601F0D5F92F4B236503F17C
S3150FE11F20FA43A3F50063636501F0C8F932A90546E3
S3150FE11F30584601F038FA02A9384601F034FA284634
S3150FE11F4001F0C0F925490AAB32AA2046FFF7C4FDD5
S3150FE11F5022AB02AA51462046FFF7BEFD0AAA114659
S3150FE11F602046FFF763FD22AB19460AAA2046FFF783
S3150FE11F70A1FC22AA11462046FFF758FD01F09EF972
S3150FE11F800C210546204601F07BFA22A9484601F0CD
S3150FE11F9002FA3146404601F0FEF9284601F092F980
S3150FE11FA00F4B23650F4B6365636913F0807F40F237
S3150FE11FB0046018BF002037E7013B7FF43AAF31E702
S3150FE11FC0013B7FF455AF2DE740F201602CE700BFEF
S3150FE11FD03035DA1030D00C0130E11C84C438E10F12
S3150FE11FE03035DA1439380100A438E10F2DE9F3471A
S3150FE11FF014460D46DDE90A921F4600284DD14CB332
S3150FE1200013683F2B2AD8516851B32549002F14BFC6
S3150FE12010B846884603F03F061B19136022BF536883
S3150FE1202001335360FEB93F2C0ED9A30900932A461B
S3150FE120303B464146002000F083F824F03F031D4460
S3150FE1204004F03F0434B100262246294609EB060087
S3150FE1205001F02AFB002002B0BDE8F087B846D9E7C8
S3150FE12060DFF83C80D6E7C6F1400A5445ECD3294662
S3150FE12070524609EB060001F017FB264401230093B4
S3150FE120804A463B4641460020A6F1400400F058F887
S3150FE120903F2C5544D6D9B846C7E70248DBE700BF20
S3150FE120A04439E10F80AFFFFF2DE9F041146886B0A7
S3150FE120B01E46E3008DF80F3063098DF80E30630B82
S3150FE120C08DF80D30630D8DF80C3053681746DA0035
S3150FE120D002EB54728DF80B2004F03F045A09372CAA
S3150FE120E08DF80A204FEA53324FEA535305468DF8DE
S3150FE120F00920CDE9001794BFC4F13802C4F1780283
S3150FE1210088468DF808300D4903460020FFF76EFF2C
S3150FE1211008222B46CDE900870DEB02010020FFF7E0
S3150FE1212065FF284605F1200350F8042B46F8042BEA
S3150FE121309842F9D1002006B0BDE8F0810439E10FEC
S3150FE121402DE9F04F99B00546884692461E4600F0B6
S3150FE12150CDFB0446002D7ED1042303604560C564A3
S3150FE121604368694623F440634360A8F104020563BB
S3150FE1217008F11C034563884652F8040F00BA9A42E8
S3150FE1218041F8040BF8D101F099F84146054604F5FB
S3150FE12190827001F000F9284601F094F82F4B236580
S3150FE121A04FF000090AF00307229B994527D1B307A0
S3150FE121B004F5807744D001F081F84146054638466B
S3150FE121C001F0F1F8284601F07DF808AD32464346B5
S3150FE121D003CBAB4210605160984602F10802F6D18B
S3150FE121E0204600F08DFB331F1C3653F8042F12BA2D
S3150FE121F0B3421A60F9D1002019B0BDE8F08F0AEBAE
S3150FE1220089156FB10DF1200E05F1400B286869684C
S3150FE12210F446ACE8030008355D45E646F6D108AD70
S3150FE1222001F04CF82946834604F5D27001F0C3F864
S3150FE12230584601F047F80A4A226509F10109B3E761
S3150FE1224001F03CF831460546384601F0ACF8284630
S3150FE1225001F038F8C4E76FF07100CDE7888AC8015D
S3150FE12260070D810110B5E0B04FF4BE7201A9002050
S3150FE1227000F02DFE40F20124002101A800F0FEFD41
S3150FE12280A042F9D040F20323984203D040F2054031
S3150FE1229060B010BD9DF8043003F00302022AF5D0B9
S3150FE122A09A0711D50D4A0299D2F8282892689142D8
S3150FE122B00AD95C9800F0E6F80028E7D00A994FF4BE
S3150FE122C00040FEF77BFCE1E7DB07DFD504995C987D
S3150FE122D000F0FCF80028D9D00020D9E70000E10F83
S3150FE122E031B10A4B5A68824205D80023C1E900335E
S3150FE122F040F201407047013053F830200A6003EB9A
S3150FE12300C00300205B684B60704700BFA839E10F3F
S3150FE1231070B40C4611461A460D4B5D68854210D9CD
S3150FE12320013003EBC005A6186D68AE420DD8A54284
S3150FE123300BD3954209D353F83000204470BC00F01B
S3150FE12340D5BE40F2014070BC704740F20240FAE759
S3150FE12350A839E10F70B586B00DF107030D4602936B
S3150FE1236000211C4B11600446164628461C22CDE976
S3150FE1237003338DF80710059301F0B4F99DF80720A3
S3150FE1238032B9D4F878311BB9D4E95C31994219D312
S3150FE123902378990744BF61683160DB0709D504F1FA
S3150FE123A0080304F1240153F8040B45F8040B8B429F
S3150FE123B0F9D162B92378002B40F2064018BF00200D
S3150FE123C006B070BD02A9204600F03BFDD6E700201E
S3150FE123D0F6E700BF3D2EE10F70B40C4611461A46E3
S3150FE123E00D4B5D68854210D9013003EBC005A61888
S3150FE123F06D68AE420DD8A5420BD3954209D353F87A
S3150FE124003000204470BC00F092BE40F2014070BC37
S3150FE12410704740F20240FAE7A839E10F074B5A68D5
S3150FE12420824207D9013003EBC00253F830005168FD
S3150FE1243000F0E5BE40F20140704700BFA839E10F59
S3150FE1244070B5054688B0C0B14FF440320023C0E9FC
S3150FE1245000230B4B1A785B680272C3606C466846C1
S3150FE1246000F086F80FCC05F114060FC694E80F00BD
S3150FE1247086E80F0005F114032B6108B070BD00BFAC
S3150FE12480A839E10F0F4B00B5D3F828389B688B427B
S3150FE12490E5B003D3002065B05DF804FB4FF4BE72DF
S3150FE124A005A900F014FD0028F4D10223CDE90100BE
S3150FE124B08DF815300390044B049301A905A800F09C
S3150FE124C01AFDE8E70000E10F350AE10F00B5E5B0C7
S3150FE124D04FF4BE7205A900F0FAFC70B901238DF82D
S3150FE124E01530074B0190CDE90230049001A905A8FB
S3150FE124F000F001FD65B05DF804FB0020FAE700BFCF
S3150FE125000D0AE10F10B5FEF7C5FC00F093FC42F2A0
S3150FE125101070FEF79BFCFEF751FDAB20FEF7FCFCBE
S3150FE12520FEF756FD47F23050FEF790FCFEF746FDFB
S3150FE12530002000F005FDFEF727FD0404FEF724FD5C
S3150FE125400443FEF745FD094B9C420CD1FEF736FDE0
S3150FE125509F20FEF7E1FCFEF70BFDFEF715FDFEF7FB
S3150FE1256037FD002010BD40F20310FBE75044465300
S3150FE12570F8B5064600F005FD0446FEF71FFD04F12A
S3150FE12580240000F0DDFCFEF7F3FC0446FEF7F0FC59
S3150FE125900443E4B2FEF71CFD04F00F0500F0F1FC75
S3150FE125A0013524116D0004FB05550446FEF706FDC2
S3150FE125B004F1280000F0C4FCFEF7DAFC0446FEF74E
S3150FE125C0E3FCFEF7D5FC04F00F0407460134FEF7F2
S3150FE125D0FFFC07F01F036400013317F0600FC7F329
S3150FE125E0471203FB04F41AD1240100F0E2FC07467B
S3150FE125F000F0F1FC10B900F0FFFC074600F02AFDF0
S3150FE126000D4B3061C6E90035002373610123337643
S3150FE126104FF00043C6E90247F3613046F8BDD107F3
S3150FE1262001D52402E1E793074CBF4FF47A634FF4E8
S3150FE126307A435C43D9E700BF10020300044BD3F89A
S3150FE126404421D20703D4D3F840211042FBD170477E
S3150FE1265000400E4038B5C0F30323013B092B11D8D7
S3150FE12660DFE803F0052710102B221D101511154D6C
S3150FE12670C0F3043405F1424505F5801504EBC500B9
S3150FE126808000016038BD104DC0F30434F2E70F4D01
S3150FE12690C0F304344FF48030FFF7D0FFEAE7C0F31D
S3150FE126A004340B4D1020F7E7C0F30434094D012034
S3150FE126B0F2E7094DC0F30434DCE7084DC0F3043407
S3150FE126C0D8E700BF00400E4050410E40F0400E40AB
S3150FE126D0E8400E40E0400E40C0400E40B0400E4094
S3150FE126E000EB4000F8B50D461F46040116463AB118
S3150FE126F0154801238B402044C7B100F1C060036048
S3150FE12700072D4FF00F0114D8AB00104806FA03F26C
S3150FE127109940204400F0CAFE3EB90B4A0123AB4073
S3150FE12720224477B102F1C0621360F8BD00F1806017
S3150FE12730E5E7A5F108039B00054806FA03F2994080
S3150FE12740E7E702F18062EFE70CA0004004A000404A
S3150FE1275008A00040234B41F671311A6C10B519648C
S3150FE1276021494C684968996841F001019960012155
S3150FE127701861D960D9694C0792B209D5996821F0E8
S3150FE12780010199600AB100221A644FF0FF3010BDC2
S3150FE127900221D9601549D869C00700D569B9D86949
S3150FE127A010F002000BD0996821F0010199600AB18E
S3150FE127B000221A646FF00100E9E70139EBE741B94D
S3150FE127C0986820F00100986002B119646FF0020079
S3150FE127D0DDE7996821F0010199600AB90020D6E792
S3150FE127E01864FBE700000E4000300E40809698001B
S3150FE127F02DE9F04F02F16044B4F5802F03D94FF084
S3150FE12800FF30BDE8F08FDFF8C8C0DFF8C890DFF81A
S3150FE12810C880302606FB00C64FF44014C6F8804048
S3150FE128200024C6F88440C6F88840C6F89840264C7E
S3150FE1283041F67135D4F840A02564A5684FF0010E35
S3150FE1284045F00105A5600EFA00F053B90422E260E6
S3150FE12850A26822F00102A2601FFA8AF28ABB002067
S3150FE12860CFE701F50065216105EA0905C4F80CE03A
S3150FE128706D1AD4F81CB09D4228BF1D461BF0040FFC
S3150FE128804FEA9507BBD1013F3F0147F06057C6F8C5
S3150FE128908C700E4FC6F89020C6F89470DCF8207055
S3150FE128A00743CCF820701027E760DCF82870384230
S3150FE128B0FBD0C8F828002944C8F820002A445B1B3E
S3150FE128C0C3E72364CBE700BF00000E4018000E40BC
S3150FE128D000200E4000F8FFFF00200E44024BD3F814
S3150FE128E0FC00000E704700BF0081E00F024B03486A
S3150FE128F00122C3F8002670470010C84300000F40BD
S3150FE12900094B98420ED003F58063984209D1012213
S3150FE12910064B03EBC2035A68054B13449B00002297
S3150FE129201A6070470022F3E700000F40B839E10F54
S3150FE129308005F210FEE708B5FEF75AF8FEF7BAF989
S3150FE12940FEF730F8FEF742F8FEF748F9C0F30A034F
S3150FE129502DE9F04105460F4616460BB900F0BAF8D8
S3150FE1296005F5006424F4FF6424F0070405EB06087B
S3150FE12970A04507D83246394628460223BDE8F0413D
S3150FE1298000F0AFB8204600F0A5F804F50064EFE7D4
S3150FE12990036913F0FE0F0CBF0120002070474FF4BF
S3150FE129A000407047FFF7AEBD00F07ABC034618460C
S3150FE129B0016881F3088881F3098840688746FEE755
S3150FE129C04FF40170FEF70EBAB1F5BE7F10B50446AE
S3150FE129D00FD34FF4BE72002100F084FE04F582722C
S3150FE129E004F1BC0104F128000023BDE8104000F01A
S3150FE129F05DB940F2052010BD13B5044600910146BD
S3150FE12A002830FEF7D7FBC4F8780118B141F2070376
S3150FE12A10984204D1A37823B1E07800F2022002B004
S3150FE12A2010BD40F20120FAE72DE9F04387B00DF131
S3150FE12A3008090446DDF838800E46174600211022B4
S3150FE12A4048461D4600F04EFE0021C8F800101C2234
S3150FE12A50284600F047FE32463B46CDF80090214628
S3150FE12A6004F12800FEF7A6FB23789A0744BF6268B4
S3150FE12A70C8F80020DB0709D504F1080304F12402A5
S3150FE12A8053F8041B45F8041B9342F9D12378002B25
S3150FE12A9040F2064018BF002007B0BDE8F0834FF4BF
S3150FE12AA0BE70704713B504460B461046A20753BFD7
S3150FE12AB06FEA03434FF6FF7242EA03436FEA1343AA
S3150FE12AC00193042324F003010DEB0302FFF790FEBC
S3150FE12AD002B010BD08B5FFF73DFEB0FA80F0400930
S3150FE12AE008BD072B2DE9F04105460E4614461F4654
S3150FE12AF002D90020BDE8F08101214FF4AA40FFF78A
S3150FE12B00A9FD0CB90120F5E744EA0503DA07F0D48C
S3150FE12B10AB0726D531883A462846FFF7C3FF00288B
S3150FE12B20E7D1023C032C05F1020506F102060DD9A8
S3150FE12B3024F003084346324629463846FFF758FE46
S3150FE12B400028D6D146444544A4EB0804002CD9D03D
S3150FE12B5031883A462846FFF7A5FFB0FA80F04009DB
S3150FE12B60C8E7032CE4D8F3E770B5D1E90152AA42DD
S3150FE12B7005D290F840302B449B1A402B10D90020F8
S3150FE12B8012E00A6890F84040D65C90F84120224462
S3150FE12B9002F03F020133013486548B6080F84040E6
S3150FE12BA08B689D42EDD8012070BD2DE9F84317469C
S3150FE12BB09E46D1E9012390F840C0089D9DF82490E7
S3150FE12BC09DF82880D21A6244954204460E460AD9E8
S3150FE12BD0FFF7CAFF002867D1102384F8463041F288
S3150FE12BE00200BDE8F883754555D8002394F84020D7
S3150FE12BF00AB19D4235D1D6E90121914201D29D42D9
S3150FE12C0041D89D424DD1D4F8882029463846FEF762
S3150FE12C10A3FDC4F88800B9F1000F04D0E06C2A4691
S3150FE12C20394600F0AAF894F84330B8F1000F06D010
S3150FE12C308BB1A06C2B463A46394600F083F894F8EF
S3150FE12C40433043B1E36DA26D2B449342E36524BF59
S3150FE12C50002384F84330636D2B44636541F203002F
S3150FE12C60BFE794F84120A25CFA5494F8412001326F
S3150FE12C7002F03F0284F8412094F84020013A84F8AB
S3150FE12C8040200133B2E73268525CFA54B26801323E
S3150FE12C90B2600133AFE741F20100102384F8463009
S3150FE12CA09FE741F20200F8E700209AE72DE9F041AC
S3150FE12CB003F02003002504464FF0FF38C0E918550D
S3150FE12CC00F461646A0F8405080F84350A0F84450FE
S3150FE12CD080F8465080F84230C0F888801822FF21EC
S3150FE12CE0683000F0FFFCC4E91276C4F88080C4F8BE
S3150FE12CF0848084F8905016B1304600F034F8002005
S3150FE12D00BDE8F081F8B5044616461D460F4600F0BC
S3150FE12D10F1FBDDE90612204600F0F0FB00236362CA
S3150FE12D2084F838703368C4F839307368C4F83D30C5
S3150FE12D30B368C4F841302B0C6DBA84F84530A4F86A
S3150FE12D404650F8BD30B585B00D46194600F128035A
S3150FE12D50CDE90152009300F1240200F1380300F0AE
S3150FE12D60EBFB05B030BD10B5044600F02BF820465D
S3150FE12D700021BDE8104000F029B800F02CB801465B
S3150FE12D8000F036B8036853B91C2350F8042F0AB97B
S3150FE12D90043BFAD1002BCCBF002001207047002065
S3150FE12DA0704738B5202204460D46002100F09AFC03
S3150FE12DB005F12003601E13F8012D00F8012FAB4238
S3150FE12DC0F9D138BD6822002100F08CBC0346002002
S3150FE12DD0C3E90000704707B500F12803019000939E
S3150FE12DE000F108030020FFF701F903B05DF804FBDA
S3150FE12DF002460B4600F128010830FFF755B910B529
S3150FE12E000024A14201F1FF324FEA820240F8044B5E
S3150FE12E1008BF2246FF2100F065FC204610BD03687E
S3150FE12E200133012B40F2045098BF0020704740F266
S3150FE12E300250704770477047FFF714BA01221A70B4
S3150FE12E40704730B5A3B004460D4602AAD0F8741107
S3150FE12E50D0F86C018023FFF75BFA0095802302AA75
S3150FE12E60214604F12800FEF7A5F9D4F87431C4F828
S3150FE12E7078018033C4F8743123B030BD1FB5002318
S3150FE12E80CDE90033CDE90213D0F87831044693B991
S3150FE12E90D0E95C329A420ED26946FFF7D2FFD4F8F7
S3150FE12EA0780170B141F2070240F20123904208BF67
S3150FE12EB0184604B010BDA37833B1E07800F20220D2
S3150FE12EC0F7E740F20120F4E740F20220F1E737B5E8
S3150FE12ED00C46054611462046FFF776FD48B9694689
S3150FE12EE02846FFF7FDF920B9019BC4F86C51C4F8E8
S3150FE12EF0703103B030BD38B500F5827204460D4628
S3150FE12F00202300F1BC012830FFF7D0FED4F8783149
S3150FE12F101BB9D4E95C329A4203D3A07800B1E078C9
S3150FE12F2038BD29462046FFF78CFFEFE708B5FEF7D8
S3150FE12F3045F80620FDF7F0FFBDE80840FEF748B873
S3150FE12F4010B504465A20FDF7E7FF2046FDF7F0FFDF
S3150FE12F50BDE81040FF20FDF7DFBF10B5FEF72EF8F5
S3150FE12F600520FDF7D9FFFEF703F80446FEF730F823
S3150FE12F7004F0010010BD08B5FFF7EFFF0028FBD104
S3150FE12F8008BD70B5FFF7F7FFFEF718F80C20FFF74E
S3150FE12F90D7FFFDF7EDFF0546FDF7EAFF0646FDF71D
S3150FE12FA0E7FF040444EA06242C43FEF711F8204612
S3150FE12FB070BD10B5FFF7E5FF0446FDF7FFFF04F11E
S3150FE12FC01C00FFF7BDFFFDF7D3FF0446FEF700F840
S3150FE12FD00120A04010BD10B5FFF7D3FF0446FDF762
S3150FE12FE0EDFF2046FFF7ACFFFDF7C2FF0446FDF705
S3150FE12FF0EFFF04F0010010BDF8B5FFF7C2FF04467D
S3150FE13000FDF7DCFF04F11C00FFF79AFFFDF7B0FFB8
S3150FE130100746FDF7ADFFFDF7ABFF0446FDF7A8FF4A
S3150FE13020FDF7A6FF0546FDF7A3FFFDF7A1FF064650
S3150FE13030FDF7CEFF012316B103FA06F0F8BD15B180
S3150FE1304003FA05F0FAE714B103FA04F0F6E703FA27
S3150FE1305007F0F3E770B5FFF78EFFFFF792FF044630
S3150FE13060FDF7ACFF201DFFF76BFFFDF781FF05466F
S3150FE13070FDF77EFF0646FDF77BFF0404FDF778FFBC
S3150FE1308044EA06242C4344EA0064FDF7A1FF002C31
S3150FE13090BFBF0123A4B2A3400133AABF601CD80866
S3150FE130A0C00870BD38B50C460546FFF7D3FFA04201
S3150FE130B007D3A84205D32C4484428CBF00200120BC
S3150FE130C038BD0020FCE738B505460C46FFF753FF40
S3150FE130D0FFF72CFFFDF772FF2846FDF71DFF204690
S3150FE130E0FDF726FFBDE83840FDF772BF70B50D4617
S3150FE130F0114606461446FFF7D5FFA8B1FFF73BFF8A
S3150FE13100FDF75CFF0320FDF707FF3046FDF710FFE4
S3150FE131102C44A54203D1FDF75BFF002070BDFDF7FF
S3150FE1312027FF05F8010BF4E740F20240F6E72DE938
S3150FE13130F843884614460646FFF723FF0546FDF793
S3150FE131403DFF05F12800FFF7FBFEFDF711FF0546F1
S3150FE13150FDF73EFF21463046FFF7A4FF002848D092
S3150FE13160FFF709FFFDF72AFF0320FDF7D5FE3046EE
S3150FE13170FDF7DEFE2746AFB9C5F307150127AF40C9
S3150FE13180FDF726FF7B1E334229D07D4235403D4474
S3150FE131903319AB4226BFAD1BADB225465CB920460E
S3150FE131A0BDE8F883FDF7E4FEFF2807F1FF37E2D02C
S3150FE131B040F20340F4E7FFF7DEFEFFF7B7FEFDF758
S3150FE131C0FDFE0220FDF7A8FE3046FDF7B1FE08EB46
S3150FE131D00509C84508D1FDF7FBFE641B2E44BC4229
S3150FE131E0254628BF3D46D9E718F8010BFDF794FEB2
S3150FE131F0EFE740F20240D3E74FF0FF3070472DE99A
S3150FE13200F8430D460446FFF7D4FE0646FFF722FFC5
S3150FE132108046FFF7F1FE074600F1FF39FFF7DBFEC8
S3150FE13220D0B1731E45EA04021A4233D1294620462C
S3150FE13230FFF738FF88B3BCB9A84515D1FFF79BFE59
S3150FE13240FFF774FEFDF7BAFEC720FDF765FEFDF742
S3150FE13250BFFE0020BDE8F8834B46E3E72146202079
S3150FE13260FFF731FF3444AD1B15B114EA090FF5D160
S3150FE13270BD4208D2002DECD021462020FFF723FFD7
S3150FE132803444AD1BF6E72146D820FFF71CFF3C443B
S3150FE13290ED1BEDE740F20440DCE740F20240D9E7EF
S3150FE132A008B5FFF768FEFDF789FEB920FDF734FE95
S3150FE132B0FDF78EFEFFF7BFFD002008BDEFF310808F
S3150FE132C072B6704700B962B6704784B00B68009367
S3150FE132D04B6801938B680293CB680393009B036062
S3150FE132E0019B0360029B0360039B03600023009332
S3150FE132F001930293039304B0704730B5D1E90223EA
S3150FE13300D1E90054056004600260036030BD30B559
S3150FE133100568046802680368C1E90054C1E902233C
S3150FE1332030BD7FB58A0704460B4610D06D4601F1D5
S3150FE133301006186859682A4603C20833B342154680
S3150FE13340F7D169462046FFF7D8FF04B070BD00916B
S3150FE13350009904B0BDE87040FFF7CFBF30B58B07DA
S3150FE1336085B00C4610D06946FFF7D1FF0D462346CF
S3150FE1337004AC2A4603CAA24218605960154603F106
S3150FE133800803F6D105B030BD0091009905B0BDE84F
S3150FE133903040FFF7BCBF10B5FFF7AFFFBDE81040F8
S3150FE133A01031FFF7AABF10B5FFF7B1FFBDE8104027
S3150FE133B01031FFF7ACBF10B5FFF79FFF0C46103189
S3150FE133C0FFF79BFF04F12001FFF797FF04F13001AF
S3150FE133D0BDE81040FFF791BF00F1424303F58013BB
S3150FE133E0102A10B54FEA43130AD101221A6000F5EC
S3150FE133F08870FFF76AFF1031BDE81040FFF765BF30
S3150FE1340000221A602430F7E7F0B50B46990789B029
S3150FE13410044615462DD0082A19D16D4603F110063B
S3150FE13420186859682A4603C20833B3421546F7D1DD
S3150FE13430082269462046FFF7CFFF03226B4600209D
S3150FE13440013A186003F10403FAD209B0F0BD6E46F2
S3150FE1345003F1200718685968324603C20833BB42A5
S3150FE134601646F7D12A4669462046FFF7B5FF0722EA
S3150FE13470E4E70093009909B0BDE8F040FFF7ACBF70
S3150FE13480436823F01F030E290BD8DFE801F0080884
S3150FE134900808080B0B0B080808080B0B0B00194360
S3150FE134A041607047194341F01001F9E770B50546E0
S3150FE134B00E461446FFF702FF2B685C4034405C4032
S3150FE134C02C60BDE87040FFF7FDBE03691B06FCD516
S3150FE134D0C069C0B2704703695A06FCD541630369F7
S3150FE134E09B06FCD5C069C0B2704703695B06FCD584
S3150FE134F0416370472422002100F0F4B870B51546F8
S3150FE135000E4624220021044600F0ECF8C02D0DD022
S3150FE13510B5F5807F01D0802D0BD12046EA0840F822
S3150FE13520045B314600F0C0F8002070BD6FF071000A
S3150FE13530FBE76FF01F00F8E72DE9F04F87B08B46F9
S3150FE135400290039390467AB11568029B1B68802B14
S3150FE135500CD100265E450FD3B8F1000F40F0A180E4
S3150FE13560002007B0BDE8F08F1546EEE7B3F5807F93
S3150FE13570EFD06FF02000F4E75DB1119B109A9B5DE0
S3150FE13580525D5340129A0135935505F00F050136F9
S3150FE13590E0E7FFF7ABF94FF44043456003600446BC
S3150FE135A0FFF78CFE029951F8043B802B074614BFB7
S3150FE135B0102208222046FFF727FF04F1840318465D
S3150FE135C003990193FFF7ADFE3846FFF77BFE119B9B
S3150FE135D0ABEB060703EB0609129B27F00F0703EB8D
S3150FE135E0060A09EB07030593059989454FF005038C
S3150FE135F04FF0030219D1119B3744DE19129B1F4479
S3150FE13600119B03EB0B0A032356452AD1FFF756FE0F
S3150FE13610039906460198FFF7A1FE3046FFF752FEE2
S3150FE136202046FFF76DF95E4694E74821A160A36056
S3150FE1363021698907FCD4A260FFF740FE4946049051
S3150FE1364004F1A000FFF76DFE514604F18000FFF78C
S3150FE1365085FE0498FFF736FE09F110090AF1100A03
S3150FE13660C2E79DB94822A2600522A26022699207AC
S3150FE13670FCD4A360FFF722FE1099814604F1800086
S3150FE13680FFF76CFE4846FFF71DFE0323109916F868
S3150FE13690012B495D01354A4007F8012B05F00F056E
S3150FE136A0B2E7C8F800505BE70A44914200F1FF33F5
S3150FE136B000D1704710B511F8014B03F8014F914254
S3150FE136C0F9D110BD10B501390244904201D1002064
S3150FE136D005E0037811F8014FA34201D0181B10BD85
S3150FE136E00130F2E702440346934200D1704703F8F3
S3150FE136F0011BF9E7000000000000000000000000D8
S3150FE13700F8B500BFF8BC08BC9E467047F8B500BFD8
S3150FE13710F8BC08BC9E4670470000000000000000A0
S3150FE1372000000000000000000000000000000000A3
S3150FE137300000000000000000000000000000000093
S3150FE13740B814B6F1E0CFF3ADB7DD25C9FA79B71302
S3150FE137500000000013B779FAC925DDB7ADF3CFE065
S3150FE13760F1B614B80102000002000000DC39E10FE6
S3150FE13770400000000200040200000000000000000B
S3150FE137800000000000000000000000000000000043
S3150FE137900000000000000000000000000000000033
S3150FE137A00000000007B0CD5E020000000200040237
S3150FE137B0E03100000000000000001000F000010001
S3150FE137C0A529E10FA929E10FDD0AE10FC929E10FCA
S3150FE137D0F929E10F6439E10F292AE10F9F2AE10F58
S3150FE137E000000000000000009F29E10F0400000720
S3150FE137F000000D1013001A20263038404800000053
S3150FE13800EB17A6030201000003000000FA0606FA11
S3150FE138100D04000003000000F40A0AF40505000098
S3150FE1382001000000F50909F503070000010000009A
S3150FE13830F60808F60608000000000000FE0101FE8A
S3150FE138400808000000000000FD0303FD0A08000060
S3150FE1385000000000F90707F90E0900000200000059
S3150FE13860F70A0AF70F0B000003000000FC0404FC43
S3150FE138700B0C000003000000200000000001000017
S3150FE13880050C0000FFFFFFFFFFFFFFFFFFFFFFFF3D
S3150FE138900000000000000000000000000100000031
S3150FE138A0FFFFFFFF512563FCC2CAB9F3849E17A739
S3150FE138B0ADFAE6BCFFFFFFFFFFFFFFFF00000000D1
S3150FE138C0FFFFFFFF96C298D84539A1F4A033EB2D40
S3150FE138D0817D0377F240A463E5E6BCF847422CE12C
S3150FE138E0F2D1176BF551BF376840B6CBCE5E316B70
S3150FE138F05733CE2B169E0F7C4AEBE78E9B7F1AFE34
S3150FE13900E242E34F800000000000000000000000EB
S3150FE1391000000000000000000000000000000000B1
S3150FE1392000000000000000000000000000000000A1
S3150FE139300000000000000000000000000000000091
S3150FE13940000000006A09E667BB67AE853C6EF3725D
S3150FE13950A54FF53A510E527F9B05688C1F83D9AB64
S3150FE139605BE0CD19000100004124E10FE122E10FF7
S3150FE139701123E10FD923E10F1D24E10F1F2EE10FD3
S3150FE13980FF2DE10F2F2EE10FCF2EE10F7D2EE10F50
S3150FE139905523E10F5B2FE10FED30E10F2F31E10FF2
S3150FE139A0FF31E10FF931E10F0000000001000000E6
S3150FE139B0000000000000080000000F4000000000BA
S3150FE139C000040F4001000000D439E10F0810002078
S3150FE139D0020000008109E10F5909E10FBB2A3148C5
S503038079
S70500000000FA
