S0160000637562657361745F52585F495753422E7333375A
S21400000000200020CD540000A7E00100A7E001007A
S214000010A1F70100A7E00100A7E00100A7E00100AA
S214000020A7E00100A7E00100A7E00100A7E00100AB
S214000030A7E0010084500200A7E00100A7E001004D
S214000040A7E0010025980100A1C00000A7E001007C
S214000050559001000F2702000B270200459801006B
S21400006003270200E56100004D630000A7E00100E1
S2140000709D5100008D510000A7E00100A7E001009F
S214000080A7E00100A7E001006D630000A7E0010003
S214000090A7E00100A7E00100A7E00100A7E001003B
S2140000A0A7E00100A7E00100A7E00100A7E001002B
S2140000B079980100072702008DB50000B598010069
S2140000C0A7E00100C97B0100A7E00100A7E001004E
S2140000D0A7E00100A7E00100A7E00100A7E00100FB
S2140000E0A7E00100A7E00100A7E00100A7E00100EB
S2140000F0A7E00100A7E00100A7E00100A7E00100DB
S214000100A7E00100A7E00100A7E001000000000052
S214000110013800D0FCE77047000000000000000037
S21400012001F0FF01102A2BDB10F0070F08D010F8A3
S214000130013B013A8B422DD010F0070F42B3F6D1A7
S214000140F0B441EA012141EA014122F007047FF0C0
S21400015000070023F0E80256083C85EA010586EA17
S214000160010685FA47F5A3FA87F586FA47F6A5FA53
S21400017087F68EB9EED1F0BC01F0FF0102F007025F
S21400018032B110F8013B013A83EA010313B1F8D10A
S2140001900020704701387047002D06BF35460338EB
S2140001A0073815F0010F07D1013015F4807F02BF24
S2140001B0013015F4C03F0130F0BC0138704700BF75
S2140001C02DE9F04F2DED028B91B082460C469346FA
S2140001D01D46DDE91C23104619461BF07DFF00284E
S2140001E000F007814FF0FF32B14BDDE91C011BF038
S2140001F09BFF002840F0FD804FF0FF326FF4801325
S214000200DDE91C011BF072FF002840F0F28000229E
S2140002100023DDE91C011BF069FF002840F0FE808A
S2140002209DED1C7B8DED067B209B13F480630F9366
S21400023001D106231E93DDE906010246C1F30A50EA
S214000240C1F31303904643F07F5949F44019A0F2D6
S214000250FF301BF06FFC84A3D3E900231BF0D4FC13
S21400026083A3D3E900231BF019FB06460F460022A2
S214000270904B404649461BF00FFB7FA3D3E9002373
S2140002801BF0C2FC02460B46304639461BF006FB06
S2140002901BF054FF06461BF04DFC8046894678A3AB
S2140002A0D3E900231BF0B0FC0022834B1BF0F6FAC8
S2140002B01BF044FF074674A3D3E900234046494693
S2140002C01BF0A2FC8046894638461BF033FC70A320
S2140002D0D3E900231BF098FC02460B4640464946ED
S2140002E01BF0DAFA8046894602460B461BF08CFC69
S2140002F0CDE90A0107F2FF3700210022CDE90812F6
S2140003003B0509930023089342464B464046494620
S2140003101BF0C4FACDE90C0142464B4600204FF0D4
S21400032080411BF0B9FA804689460022634BDDE91E
S2140003300A011BF093FD0022614B1BF0AFFA024648
S2140003400B46DDE90A011BF089FD00225D4B1BF020
S214000350A5FA02460B46DDE90A011BF07FFD0246C0
S2140003600B46404649461BF099FA02460B46DDE925
S2140003700C011BF073FD0022534B1BF08FFADDE9D6
S21400038008231BF041FC8046894649EC188BDDE9C2
S21400039006231BF0C9FE40B1013E0022484B4046F2
S2140003A049461BF05BFD41EC180B06F16303C62BB8
S2140003B03FD80427209B13F4006F44D036A3D3E91C
S2140003C00023DDE90689404649461BF0A3FE0028C7
S2140003D03FD033A3D3E90023404649461BF086FEB0
S2140003E0002836D01E9BB34225DD9E1B731E1E932F
S2140003F023E0209B04931F9B03931E9B02939DED7B
S2140004001C7B8DED007B2B465A462146504600F05D
S214000410CFF811B0BDEC028BBDE8F08F9FED227BCC
S2140004208DED067B1C9B06931D9B03F100430793F3
S214000430FAE60527BEE700231E93209B43F480635D
S214000440209300273E461F9B9F423FD2A3EB070800
S2140004503EE01E9B002BF6D00F9B002BF3D01E9B7E
S214000460013B1E93EFE700BFFB799F501344D33F39
S214000470B3C8608B288AC63F61436F63A787D23FA5
S21400048071A379094F930A401655B5BBB16B02406C
S214000490EF39FAFE422EE63F2D431CEBE2361A3FBA
S2140004A00000000080842E410000000000000000D4
S2140004B0FFFFEF7F0000F83F0000E03F00002C4009
S2140004C000002440000018400000F03F4FF00008F5
S2140004D0209B13F0020902D00FB14FF000083EB186
S2140004E053EC182BDDE906011BF0B8FCCDE906013C
S2140004F000220023DDE91C011BF0F8FD00283DD199
S214000500209B23F400630493CDF80C801E9B02937B
S2140005109DED067B8DED007B2B465A4621465046C8
S21400052000F046F8002F3FF474AF209B13F0200F26
S2140005302CD04FF0450C00F101082B460246214610
S2140005406046D04786EAE672A2EBE672052305937C
S214000550013F0497002303930A230293F30F0193AA
S21400056000922B4642462146504620F097FAB9F1B3
S214000570000F3FF44EAF02461F9F10E0DDE9060174
S214000580024601F10043CDE90623B9E74FF0650CBA
S214000590D1E7561C2B4621462020D0473246A2EBF8
S2140005A00B03BB42F5D3104633E700BF0000000044
S2140005B02DE9F04F2DED028B95B007900A919246EB
S2140005C09B46DDE92089229D42464B4640464946E9
S2140005D01BF082FD002840D04FF0FF326FF48013EE
S2140005E0404649461BF082FD002845D14FF0FF32B9
S2140005F09F4B404649461BF097FD00284BD198A3D9
S214000600D3E90023404649461BF08EFD00285AD108
S21400061095A3D3E90023404649461BF067FD002812
S21400062051D100220023404649461BF05FFD0028BA
S21400063057D100230B93249B13F4806F5CD00024C7
S2140006401F2C5BD8092D59D904F150036B44302276
S21400065003F8202C013D0134F2E7249B0393239BEF
S214000660029303230193834B00935B4652460A99F9
S214000670079820F039F92CE1249B0393239B0293DF
S214000680042301937C4B00935B4652460A990798D5
S21400069020F02AF91DE1249B13F004030FD0774ABB
S2140006A07BB104232499039123990291019300922C
S2140006B05B4652460A99079820F016F909E1704AF7
S2140006C0EEE70323EEE7249B0493239B0393029514
S2140006D0CDE900895B4652460A990798FFF770FDF8
S2140006E0F7E042464B46002000211BF0D5F8804636
S2140006F0894601230B939EE70625A0E74046494618
S2140007001BF01CFD06461BF015FA02460B4640463B
S21400071049461BF0C1F85B4B03EBC50393ED008B1A
S21400072053EC182B1BF070FA02460B46CDE9082353
S2140007301BF02CFD07461BF0EDF902460B46DDE9E3
S21400074008011BF0A9F802460B46CDE90823002253
S2140007504D4B1BF0E9FC50B3013738461BF0DAF975
S21400076002460B4651EC180B1BF0CAFC08B10136CA
S214000770002755BB30461BF0DDF902460B464046C7
S21400078049461BF089F80746884600223E4B1BF078
S214000790ADFC38B100223C4B384641461BF0C4FC49
S2140007A0002842D016F0010F3FD001363DE000226F
S2140007B0354BDDE908011BF099FC0028D9D117B1AB
S2140007C017F0010FD5D00137D3E71F2C17D8013DFE
S2140007D02E4BA3FB0723DB08194603EB8303A7EB8B
S2140007E04303621C303304F150000DEB000404F8A0
S2140007F0203C092F02D90F461446E6E714461F2C64
S2140008000AD86B1E45B104F150026A44302102F842
S214000810201C1D460134F2E71F2C06D804F15003B5
S2140008206B442E2203F8202C01341F2C33D8184A90
S21400083082FB0632F317C3EBA2031A4603EB8303CD
S214000840A6EB4303611C303304F150000DEB0004AB
S21400085004F8203C1646EAB10C46E6E7AFF3008003
S2140008600000000065CDCD410000000065CDCDC183
S214000870FFFFEF7FB8570200BC570200AC570200DC
S214000880B4570200C85702000000E03FCDCCCCCCE5
S214000890676666660C46249B03F00303012B1DD097
S2140008A01F2C09D80B9B002B35D004F150036B444A
S2140008B02D2203F8202C0134249B0393239B0293C0
S2140008C001940CAB00935B4652460A99079820F0B9
S2140008D00BF815B0BDEC028BBDE8F08F239BB3B1CF
S2140008E00B9B1BB9249B13F00C0F12D0239B013BD0
S2140008F02393194606E004F150036B44302203F8B4
S214000900202C01348C42CBD21F2CF4D9C8E7239973
S214000910F8E72399F6E7249B13F0040F07D004F1B9
S21400092050036B442B2203F8202C0134C4E7249B8D
S21400093013F0080FC0D004F150036B44202203F8D4
S214000940202C0134B8E700BF7FB54E6802A90446E4
S21400095021F0AFFB9DF808300E2B19D1134BB3F9DD
S2140009600050134B9E4218D807F0BCFD03460068A3
S21400097000909B88ADF804306946204621F086FB3F
S21400098070B10C490C4840F21C620CF0B3FBFEE759
S214000990204614F0FDFB0546E3E707F09FFDE5E77C
S2140009A02946204621F087FB04B070BDDE570020A4
S2140009B0FFC99A3B155B02003C58020038B5044656
S2140009C00D461DF087FC064A13889BB22DB12343C3
S2140009D01380BDE838401DF083BC23EA0403F7E724
S2140009E048540020034B002201214FF480709A7077
S2140009F0E4E700BF485400207FB50023134C039360
S214000A00CDE90133FF238DF804301DF063FC228806
S214000A1063880F4E9A4205460DD061887068218023
S214000A2001AA14F0A3F958B10A490B4840F297629C
S214000A300CF060FBFEE7706821F0EAF90128ECD0C4
S214000A4028461DF04DFC04B070BD00BFE02000201D
S214000A5048540020155B02003C58020038B50F4C85
S214000A60A56835B90E490F4840F27C720CF042FB7F
S214000A70FEE720F0E8F828440FF0AEFF00F007008D
S214000A80032809D1A4680921204620F0F8F9205C43
S214000A90031F5842584138BD0020FCE74854002048
S214000AA0155B02003C58020010B5114CA378042BCD
S214000AB006D01049104840F244520CF01BFBFEE7EB
S214000AC023881B0706D40B490B4840F245520CF00E
S214000AD011FBFEE700210820FFF770FF074B606858
S214000AE002221A7114F010F9BDE810401FF075B814
S214000AF048540020155B02003C580200E02000200D
S214000B0010B5084C606814F0FFF8606821F080F9B2
S214000B10012806D0012260681146BDE8104021F089
S214000B2079B910BD4854002038B5194DAB7833B1AB
S214000B30184919484FF4DC620CF0DCFAFEE71DF0A9
S214000B40C9FB298811F00601044609D001214FF49B
S214000B508070FFF733FF2046BDE838401DF0C0BB6D
S214000B604FF48070FFF72AFF11F0A4FC012805D08F
S214000B7010F0FD0F05D1FFF73FFFECE7FFF7C0FFD2
S214000B80E9E70449044840F2F6620CF0B3FAFEE7DF
S214000B9048540020155B02003C58020070B5074D13
S214000BA095F90C600446FFF7BFFF11F083FBAA68B7
S214000BB031462046BDE8704011F0BAB948540020CE
S214000BC008B50A4B1B88DB0606D40949094840F2DB
S214000BD069520CF08FFAFEE700211020FFF7EEFEB8
S214000BE011F0E4FCBDE808401EF0F7BF48540020B2
S214000BF0155B02003C5802000D4B1B889B0710B586
S214000C00044613D500210220FFF7D8FE094B5A7977
S214000C10FF2A06D00849094840F29A420CF06AFAC0
S214000C20FEE75C71BDE810401EF0D7BF10BD00BFE8
S214000C3048540020E0200020155B02003C580200CB
S214000C407047704710B50E4CA37833B10D490E4867
S214000C5040F2C5120CF04EFAFEE7A06019B1A17C76
S214000C60003918BF01212020FFF7A8FE074B0848CF
S214000C709B7923770223A370BDE810400EF016BDC3
S214000C8048540020155B02003C580200E02000207B
S214000C906854002008B50FF00BFB80F00100C0B2CE
S214000CA008BD0A4B9A780AB1062A0CD11B8803F4B1
S214000CB08B7343B9064B5A79FF2A04D11879FF384B
S214000CC018BF012070470120704700BF485400201D
S214000CD0E020002008B50FF0DBFA0028FBD108BDA5
S214000CE00C4B42881A8242789A740278DA748288A8
S214000CF09A82C288DA82C2689A61074A017A91713A
S214000D00028A198D914204D001214FF400701A8591
S214000D1054E6704748540020E0200020094B1A8A09
S214000D2042809A7C4270DA7C02709A8A8280DA8AE2
S214000D30C2809A69C260044A1B8D9279027203824D
S214000D40704700BF48540020E02000204B1E012BB7
S214000D5070B50C4606D91B491B484FF42A720CF096
S214000D60C9F9FEE7194D0A460146686821F0CAFA35
S214000D7030B11449144840F2AA220CF0BBF9FEE741
S214000D806E680EF007FC22460146304621F0B4FAA3
S214000D9030B10C490C4840F2AE220CF0ABF9FEE73D
S214000DA06D680EF003FC22460146284621F0B0FA94
S214000DB030B10449044840F2B2220CF09BF9FEE739
S214000DC070BD00BF155B02003C580200485400206E
S214000DD0054BDB791B0913F00E0003D0052B8CBFE7
S214000DE000200120704700BFE0200020044BDB7984
S214000DF01B0913F00E0F0CBF01200020704700BF28
S214000E00E02000202DE9F04F16469A0591B0814665
S214000E101F4603D501218020FFF7D0FDF3014FF0D8
S214000E20000852D59A4C23889D074ED5994D6B796C
S214000E30FF2B06D09849994840F266420CF05AF9C2
S214000E40FEE7A36833B99449944840F267420CF031
S214000E5051F9FEE741460220FFF7B0FDA37885F87A
S214000E600580042B03D101210820FFF7A7FD8C4A3B
S214000E706068002121F03EF930B18749874840F28A
S214000E8071420CF037F9FEE7FFF7A2FFA8B9D4F8D5
S214000E9004801FF0D8FE0546A0681FF0DFFE291864
S214000EA07F4A89B2404621F036F930B17A497B480C
S214000EB040F277420CF01EF9FEE7A378032B02D12E
S214000EC0606813F021FF1EF088FEB80702D50120E7
S214000ED0FFF792FE16F0A84F02D00220FFF78CFE16
S214000EE0B10220D50021402005ACFFF767FD214662
S214000EF0484621F033FAB0B99DF81C30022B0AAAF6
S214000F0022D18DF83030BDF81430ADF828301046B8
S214000F1011F0D8F938B1484621F01EFA18B9012167
S214000F204020FFF74BFD320752D5594D05AA686899
S214000F30032121F0A3F9804688B95749574840F263
S214000F40B3420CF0D7F8FEE7032B05BFD4E9000147
S214000F508DF830308DF83000C2E90001D7E79DF8F3
S214000F6014306868072B40F022810AAA414621F017
S214000F7089F9824630B14849484840F2B6420CF0FA
S214000F80B9F8FEE7FFF724FFBDF8161090B9FFF793
S214000F902DFF68B10431686889B20AAA21F074F995
S214000FA040B13D493D4840F2C7420CF0A3F8FEE789
S214000FB00231F0E7BDF816000730012180B20FF0CD
S214000FC0C1F8039000284AD101210C2012F0B8F88D
S214000FD0B10705D52E4B1B881A0701D5FFF764FD10
S214000FE0B3010AD500210420FFF7E8FC284B9A78C5
S214000FF0012A02D1586813F087FE16F0284F03D056
S21400100000210420FFF7DAFC7E060CD5204C23884E
S2140010101D0701D5FFF748FD2388580703D5002193
S2140010200420FFF7CBFCF90540F1CF80484620F0BE
S214001030EDFE022802D0032840F0C080144C23881E
S2140010405A0703D500210420FFF7B8FC23889B0726
S21400105040F1BB80012011B0BDE8F04FCCE50EF0AA
S21400106047FF4FF0000BCDF800B0BDF81630024633
S21400107004464146686821F030F9BDF816308342D0
S21400108010D0054905484FF49B620CF033F8FEE794
S21400109048540020E0200020155B02003C58020067
S2140010A0745400201FF0CFFD20440FF095FC00F094
S2140010B00700022823D1AB78042B89D11FF0C3FD8B
S2140010C0434B20441B7882789A4281D159460820A7
S2140010D0FFF774FC1FF0B7FD20440FF07DFC3D4B7E
S2140010E0C0F3001018719DF836302B73FFF7B6FC6E
S2140010F000287FF46DAF686813F006FE68E71FF0FF
S214001100A2FD20440FF068FC830649D51FF09BFD26
S21400111020440FF061FC00F00700032828D00121CE
S2140011200420FFF74BFC21F0E2F82863BDF81630E8
S2140011309DF83620E254BDF816309DF8372023443B
S21400114001209A71BDF816100A9A013121440FF059
S21400115051FCBDF8163003981C4484F805A00FF027
S21400116085F81D4B18780EF0A7FB1EF036FD2FE70E
S214001170092120461FF083FE205C04284FF0010161
S214001180CED1FFF71BFC21F0B2F828632B88580657
S214001190CCD559464020FFF711FC4FF0010AC5E7B1
S2140011A0AB78012BC2D1686813F0AEFDBEE721F024
S2140011B05BF86868414621F07EF809E70749084869
S2140011C040F2B5520BF096FFFEE711B0BDE8F08F87
S2140011D0B5540020E0200020B8530020155B020024
S2140011E03C58020008B50246FFF7F2FD30B1072A68
S2140011F006D8044B002083F8342008BD7020FCE796
S2140012000220FAE74854002008B50246FFF7E0FD42
S21400121028B1044B93F834301370002008BD7020BA
S214001220FCE700BF4854002008B5074B01460022E3
S214001230586821F067F830B1044905484FF4377212
S2140012400BF058FFFEE708BD48540020155B02006F
S2140012503C58020008B5074B01460022586821F0AA
S2140012604BF830B10449054840F2E2220BF042FF49
S214001270FEE708BD48540020155B02003C580200FB
S21400128008B5074B0146586821F048F830B10549C3
S21400129005484FF43A720BF02DFFFEE708BD00BF7D
S2140012A048540020155B02003C58020008B5064B67
S2140012B09B7833B10549064840F2F2220BF01AFF3C
S2140012C0FEE7BDE808402FE448540020155B020006
S2140012D03C58020008B5044B0146586820F0EBFE67
S2140012E0002818BF8B2008BD48540020014B5868C2
S2140012F013F04EBF48540020014B5888704700BF7B
S214001300E02000207FB50123ADF80E3009484FF6E7
S214001310FE7300930DF10E02002304A9406820F02E
S21400132049FE012894BFBDF810004FF6FF7007B0C5
S2140013305DF804FB4854002008B5044B0146586885
S21400134020F0BEFDB0FA80F0400908BD48540020E9
S21400135038B50B4DAB78012B04460DD8FFF7ECFFE4
S21400136060B1084B5C80AB781BB9FFF7DDFB002053
S21400137038BDFFF741FBFAE73E20F9E78A20F7E79A
S21400138048540020E0200020024B9B780BB9FFF762
S214001390CBBB704748540020014BD874704700BF41
S2140013A04854002008B5054B0121586820F055FD2B
S2140013B00028B8BF033040F3870008BD485400201B
S2140013C008B5044B586820F077FD034BB3FBF0F0EC
S2140013D080B208BD4854002040420F0030B58DB0A2
S2140013E02C220446002101A821F019FD0123264DD8
S2140013F08DF808304FF002326423CDE903230693BC
S2140014000B238DF82C302B8DADF80A30FFF7E0FC5F
S214001410A0B140F2F23307934FF47A7305930CB9F8
S214001420FFF76EFB686801A913F06CFFB8B11749A7
S214001430174840F269620BF05DFEFEE7FFF7C0FF5B
S2140014400C234343902BA3F10A0207930592DCBFBB
S21400145091230793059B8B2BE1D88C23DEE7FFF7C0
S214001460C5FC60B101226868114620F065FF30B106
S2140014700649074840F26C620BF03CFEFEE70CB9EA
S214001480FFF752FB0DB030BD48540020155B02003C
S2140014903C580200F8B5574C1CF01CFF2388D905B1
S2140014A0064603D5A37843BBFFF73EFB524D6B7948
S2140014B0FF2B13D06B7903F0FF0723BBFF236B7161
S2140014C0A378032B0AD100233046A3701CF008FF34
S2140014D03846FFF763FB1CF0FDFE0646A378042B98
S2140014E008D12B79FF2B05D02B79022B14D143483A
S2140014F00EF0DCF8FF232B7128E000214FF48070FB
S214001500FFF75CFAD2E76B79012B4FF0FF036B71A4
S21400151014BF89278D27D6E72B7913B12B79012B9A
S2140015201FD1FFF79BFA2B790022FF212971DBB22E
S21400153084F820200546002848D0012B0AD12F48E1
S214001540A37064210EF0BDF8FFF756FA30461CF083
S214001550C7FE06E03046A2701CF0C2FE3120FFF740
S2140015601DFB23881A0608D500218020FFF726FADF
S214001570606820F013FE10F0FAFF23889B0507D55D
S2140015804FF400700021FFF719FA0020FFF726FF3E
S2140015900EF07EFEE08628B30EF0AAFC012105467A
S2140015A0002011F0CDFDA678012E15D1002684F876
S2140015B02060A670FFF7B8FA284610F0F3FBA37871
S2140015C0E6867BB9BDE8F84010F074BEA0703046E1
S2140015D01CF086FE2846C2E72EB1284610F0E2FB35
S2140015E00023E386F8BDFFF79FFA284610F0DAFBE3
S2140015F0E686F7E748540020E020002068540020E4
S2140016007FB5794C2388DB0700F1E7800121774D11
S2140016100846FFF7D3F905237549A37005F10800BE
S21400162013F044FB606028B972497348F3220BF04C
S21400163061FDFEE7714820F02CFC69A3D3E9002386
S214001640CDE900234FF0FF324FF0FF33606820F003
S214001650AFFC4FF48811606813F0F8FD014630B116
S2140016606449654840F20B120BF044FDFEE7644BFC
S2140016701B78012B0ED1634A606813F073FD606817
S21400168013F06EFEE0B15B495B4840F217120BF0B8
S21400169031FDFEE75C4E316831B9564956484FF485
S2140016A08D720BF027FDFEE7564A606813F05AFD70
S2140016B033689B6823B1DB6913B15B7803B1EB71C8
S2140016C0FFF720FE514B68801B78C3EB431203EBF9
S2140016D08203DB0001202385FFF780FE65680DF09E
S2140016E065FF00220146284620F012FE054630B16E
S2140016F04049414840F22D120BF0FCFCFEE740F258
S21400170003532382424B04261B78E374A674FFF728
S21400171057FE00EB80039B00A382FFF751FEC0003C
S214001720E08231466068A56120F0C4FB30B13149E3
S21400173031484FF49E720BF0DDFCFEE760683246DF
S21400174003A920F05DFC042806D02A492A484FF455
S214001750A0720BF0CFFCFEE703A901200FF058F9AA
S2140017600AF0C2FC606808224FF0FF3120F02AFC25
S21400177030B12049204840F249120BF0BBFCFEE78E
S21400178013F05CFF30B11B491B4840F24F120BF0C0
S214001790B1FCFEE7FFF71CFB68B11CF0B1FF014689
S2140017A0606820F073FC30B11249134840F25312BF
S2140017B00BF0A0FCFEE76468FFF7A4FD154B01469E
S2140017C003F10C02204613F0DFFA30B109490A484B
S2140017D04FF4AD720BF08EFCFEE704B070BD00BF98
S2140017E00A0020FF4203000048540020E0200020AA
S2140017F0E5090000155B02003C580200690345EC51
S2140018009A5400204909000018200020E3210020F7
S214001810E2210020405B020008B5044B586820F027
S2140018204DFB034BB3FBF0F080B208BD48540020DC
S21400183040420F002DE9F043864D2B889B0787B06A
S21400184006D48549854840F201720BF053FCFEE74A
S214001850AB78033B012B06D97F49804840F20372E0
S2140018600BF048FCFEE7AA6832B97B497B4840F299
S21400187006720BF03FFCFEE7794E2C88F77914F0E1
S214001880200418BF4FF47A744FEA1718FFF7A0FA2F
S214001890002872D0B8F1020F0AD0A8F10303022B79
S2140018A069D96D496D4840F21A720BF023FCFEE7C9
S2140018B0032795F8343008EBC8089844694B03EBC7
S2140018C048031046B3F81C801FF0C8F94FF4FA53CB
S2140018D043437822B3FBF8F37733B3FBF2F31F44AA
S2140018E0C7EB0717AB78FF00BFB204F5347417FADE
S2140018F084F4042BA4B203D107F6E8072744BCB24D
S214001900D5F808801FF09FF90746A8681FF0A6F9CB
S21400191007441FF0BEF9BFB23F1A1FF094F94044C7
S2140019200FF05AF864238DF80C304F4BD5F804901E
S214001930CDE90434C0F340141FF0B7F9BFB2034634
S21400194041463A46484620F093FC2B887188318001
S21400195013F0200F03AB75D000936868434B224604
S21400196013F0E8F9002872D03B493C4840F2D962AF
S2140019700BF0C0FBFEE706279BE7FFF737FA0028C9
S21400198044D0384B07F00F0708EBC801394403EB87
S21400199041031046B3F81C901FF060F9B8F1000F31
S2140019A02AD0B8F1010F2AD1400080B24FF00408C7
S2140019B0F3191B7E4BB10233034443449BB24FF4EE
S2140019C0FA525343B3FBF9F39CB2AB78042B97D18E
S2140019D03744FFF7F5FC3B7E053398448146FFF716
S2140019E01BFF0C2308FB00F003FB09F909EBC009F9
S2140019F0A1441FFA89F483E74FF00208D8E7164996
S214001A00164840F23B720BF075FBFEE7FFF704FF4B
S214001A100746A8681FF022F9AB780930784304EB34
S214001A20C000042B84B27FF46BAFFFF7C9FC0746F7
S214001A30FFF7F2FE602358430C2303FB0700204405
S214001A4084B25DE76868224613F066F98AE707B055
S214001A50BDE8F08348540020155B02003C580200A5
S214001A60E0200020405B020020A107005854002020
S214001A70F8B5484C258815F0020506D04649474873
S214001A804FF4B3720BF036FBFEE784F820501CF0E0
S214001A9021FC23885A0706460AD520F028FC236B2B
S214001AA0C01A238D984203D929460420FEF786FFE4
S214001AB030461CF015FCA778022F37D11CF00AFC24
S214001AC0238813F00405064607D035480DF0EEFDD2
S214001AD03046BDE8F8401CF003BC1CF001FCA068D2
S214001AE010F020FC20B1A570BDE8F840FFF756B80E
S214001AF01CF0F0FBA66805461FF0A5F830440EF073
S214001B006BFF10F0200F0CBF03230423012138467F
S214001B10A370FEF753FFFFF78DFE28461CF0E0FB90
S214001B2001210846BDE8F84011F00ABB042F27D172
S214001B301C4B1B79FF2B2CD1237FF3B11CF0CAFB67
S214001B4023885B07054604D515480DF0AFFD2846EB
S214001B50BFE71CF0C5FB237F013B23771CF0BAFBD5
S214001B60012104460220FEF729FFFFF763FE204608
S214001B701CF0B6FB01210820D4E7A3704020B3E791
S214001B80012F06D160680023A37013F0BDF8312042
S214001B90AAE7F8BD48540020155B02003C58020036
S214001BA068540020E020002038B5012104461020AB
S214001BB0FEF704FF064B5D68FFF702FC054B00FBD3
S214001BC004F10122284620F029F9002038BD00BF84
S214001BD048540020C10B000010B50A4C2388DB06D1
S214001BE006D40949094840F275320BF083FAFEE73D
S214001BF010200021FEF7E2FE6068BDE8104020F0ED
S214001C001BB900BF48540020155B02003C58020078
S214001C1038B50D4DE88E30B90C490D4840F2823289
S214001C200BF068FAFEE70EF063F90446E88E0EF055
S214001C307BF9811F214401200EF0EAFE044620F0C5
S214001C4056FB001B38BD00BF48540020155B020041
S214001C503C58020010B5074CA36833B9064907483C
S214001C6040F291320BF046FAFEE720F040FBE36AC2
S214001C70C01A10BD48540020155B02003C580200F4
S214001C8038B50A4DE88E30B909490A4840F29B3209
S214001C900BF030FAFEE70EF02BF90446E88E0EF055
S214001CA043F9044414F8020C38BD00BF4854002021
S214001CB0155B02003C58020038B50A4DE88E30B974
S214001CC009490A4840F2AA320BF014FAFEE70EF071
S214001CD00FF90446E88E0EF027F9044414F9070CB1
S214001CE038BD00BF48540020155B02003C58020077
S214001CF038B50A4DE88E30B909490A4840F2B9327B
S214001D000BF0F8F9FEE70EF0F3F80446E88E0EF056
S214001D100BF9044414F9010C38BD00BF48540020E8
S214001D20155B02003C580200024B1888C0F3C01036
S214001D30704700BF4854002030B50F4B05460FCB08
S214001D4085B06C4684E80F000DB12B6800930B4BF2
S214001D5021465868002213F031FA044630B108498B
S214001D60084840F2D7320BF0C5F9FEE7FEF744FE0E
S214001D70204605B030BD00BFC85B020048540020B6
S214001D80155B02003C58020008B5074B0146586830
S214001D9020F006FA30B10549054840F2E5320BF06E
S214001DA0A9F9FEE708BD00BF48540020155B0200F5
S214001DB03C58020008B5064B586820F008FA30B1C7
S214001DC0044905484FF47C720BF094F9FEE708BD11
S214001DD048540020155B02003C580200024B0122CA
S214001DE05868114620F016B8485400207047F8B5D9
S214001DF0054604200C461EF008FF03061DD5104EAF
S214001E00B778D7B91DB1012D02D00220F8BD012741
S214001E102046FFF791FA0028F7D070683A46214628
S214001E2020F011F830B1074907484FF486620BF0EE
S214001E3061F9FEE70623B370E8E77020E6E700BF27
S214001E4048540020155B02003C58020010B50420E0
S214001E501EF0DBFE030610D5094CA378062B0CD12A
S214001E6060681FF0F3FF30B10649074840F2494268
S214001E700BF040F9FEE7A07010BD7020FCE700BF35
S214001E8048540020155B02003C58020008B5034980
S214001E90034840F261520BF02DF9FEE7155B020095
S214001EA03C5802000348044B834202D0034B03B164
S214001EB01847704710220020102200200000000063
S214001EC00548064B1B1AD90F01EBA301491002D097
S214001ED0034B03B118477047102200201022002041
S214001EE00000000010B5064C237843B9FFF7DAFF70
S214001EF0044B13B10448AFF300800123237010BDD8
S214001F008E58002000000000607C020008B5054BDB
S214001F101BB105490548AFF30080BDE80840FFF750
S214001F20CFBF00BF0000000040240020607C0200FD
S214001F30A3F5803A704700BF174B002B08BF134B22
S214001F409D46FFF7F5FF00218B460F461348144ABF
S214001F50121A20F064FF0E4B002B00D098470D4B52
S214001F60002B00D098470020002104000D000D48EB
S214001F70002802D00C48AFF300801AF053FC200073
S214001F8029001BF06EFF1AF099FA00BF0000080047
S214001F9000000000000000000020002010220020AA
S214001FA0045900200000000000000000BFF34F8F1F
S214001FB00549CA6802F4E062044B1343CB60BFF3E2
S214001FC04F8F00BFFDE700BF00ED00E00400FA05FC
S214001FD038B504461DF040FFA04201D8012038BDA8
S214001FE00546032003F0F2F808B90020F7E71CF0D6
S214001FF008F81CF007F82B462246034903480068F9
S2140020001DF034F9F1E700BFA032020030340020A2
S21400201030B583B004468368C26853F822301D7812
S2140020202846FFF7D5FF08B903B030BD002300935C
S214002030ADF80430164B1B88ADF80230ADF80450EE
S2140020406368E2689B1A012B1DDDA368013253F812
S21400205022301B88ADF800301DF0EEFE69460320E6
S2140020601DF0EEFE0446032003F0B0F80028DBD097
S2140020701BF0C7FF1BF0C6FF22460649064B186832
S2140020801DF0F4F8D0E740F2FF13ADF80030E3E7B8
S214002090C6570020D83202003034002030B583B056
S2140020A004468368C26853F822301D782846FFF736
S2140020B08FFF08B903B030BD00230093ADF804309D
S2140020C0154B1B88ADF80230ADF804506368E26823
S2140020D09B1A012B1BDDA368013253F822301B88A4
S2140020E0ADF80030694604201DF0AAFE0446032021
S2140020F003F06CF80028DDD01BF083FF1BF082FF96
S21400210022460649064B18681DF0B0F8D2E740F2A2
S214002110FF13ADF80030E5E7C6570020F83202009E
S2140021203034002030B583B004468368C26853F864
S21400213022301D782846FFF74BFF08B903B030BDA4
S21400214000230093ADF80430154B1B88ADF8023021
S214002150ADF804506368E2689B1A012B1BDDA36888
S214002160013253F822301B88ADF800306946022051
S2140021701DF066FE0446032003F028F80028DDD094
S2140021801BF03FFF1BF03EFF22460649064B186831
S2140021901DF06CF8D2E740F2FF13ADF80030E5E72B
S2140021A0C65700200C3302003034002030B583B010
S2140021B08368C26853F822301C7800230193436872
S2140021C09B1A012B19DD01AA01211CF035FB0146E3
S2140021D09DF804001DF02CFE054680B1022002F09A
S2140021E0F5FF60B11BF00DFF1BF00CFF2A460F49F0
S2140021F00F4B18681DF03AF801E01DF01DFE204652
S2140022001DF022FE044608B903B030BD032002F0DC
S214002210DDFF0028F8D01BF0F4FE1BF0F3FE22468C
S2140022200449034B18681DF021F8EDE72833020037
S21400223030340020403302002DE9F04182B01DF01A
S214002240C0FD0546854B1B7813F0020F3ED0844E2A
S21400225013F0010F3CD0824F13F0040F3AD0DFF892
S2140022600082032002F0B2FF002836D1032002F0DD
S214002270ADFF00283BD1032002F0A8FF002845D17F
S214002280032002F0A3FF00284ED1032002F09EFF99
S214002290002857D1032002F099FF002860D10320C0
S2140022A002F094FF002869D1032002F08FFF002877
S2140022B072D1032002F08AFF00287BD1032002F0AF
S2140022C085FF002840F08780082490E0654EBFE731
S2140022D0644FC1E7DFF88C81C3E71BF092FE1BF06A
S2140022E091FE6149614B18681CF0C0FFBEE71BF009
S2140022F088FE1BF087FE5D4B1C6805F01BFF024640
S2140023000B465B4920461CF0B1FFB4E71BF079FE94
S2140023101BF078FE554B1C681DF027FD02465549FC
S21400232020461CF0A3FFABE71BF06BFE1BF06AFE1B
S2140023304E4B1C681DF051FD02464F4920461CF0CE
S21400234095FFA2E71BF05DFE1BF05CFE474B1C688A
S2140023501DF03BFD0246494920461CF087FF99E7E1
S2140023601BF04FFE1BF04EFE404B1C681DF031FD6F
S2140023700246434920461CF079FF90E71BF041FED9
S2140023801BF040FE394B1C681DF007FD02463D4918
S21400239020461CF06BFF87E71BF033FE1BF032FE77
S2140023A0324B1C681DF001FD0246374920461CF0E2
S2140023B05DFF7EE71BF025FE1BF024FE2B4B186806
S2140023C0324B1A78FF2A04D0314B32491CF04EFFAC
S2140023D074E7314BF9E71BF014FE1BF013FE2F4990
S2140023E0224B18681CF042FF6EE7013CE4B28CB149
S2140023F0032002F0EBFE0028F7D01BF002FE1BF0D5
S21400240001FE2B1913F8012C2549184B18681CF0EF
S2140024102DFFEAE7032002F0D9FE30B9032002F0D0
S214002420D5FE60B902B0BDE8F0811BF0EAFD1BF0F6
S214002430E9FD1C490D4B18681CF018FFEEE71BF071
S214002440E0FD1BF0DFFDCDF800803B463246164926
S214002450064800681CF00AFFE4E700BFD72100200A
S2140024605C330200643302008C33020030340020F8
S21400247094330200B0330200CC330200E83302008B
S214002480043402002034020038340200D621002032
S21400249084330200503402007033020068340200B5
S2140024A07C340200905602008434020030B583B0BB
S2140024B08368C26853F822301C7801A920461DF0B4
S2140024C064FC88B9032002F081FE08B903B030BD71
S2140024D01BF097FD1BF096FD019B22460B490C480E
S2140024E000681CF0C3FEF1E70546012002F06EFE10
S2140024F00028EBD01BF085FD1BF084FD2A4605491D
S214002500034B18681CF0B2FEE0E700BFBC340200C4
S21400251030340020D834020070B58268C36852F8A0
S21400252023100C78013352F823301D7829462046B4
S2140025301DF07AFC80B9032002F048FE00B970BD99
S2140025401BF05FFD1BF05EFD2B4622460B490C4838
S21400255000681CF08BFEF2E70646012002F036FE0D
S2140025600028ECD01BF04DFD1BF04CFD3246054913
S214002570034B18681CF07AFEE1E700BFFC3402004B
S214002580303400202C35020008B5022002F01EFE72
S21400259010B91DF05DFC08BD1BF033FD1BF032FDCD
S2140025A00249034B18681CF061FEF2E75C35020036
S2140025B03034002000B583B08368C26853F82230F8
S2140025C01A78144B1A70032002F000FE10B903B0FC
S2140025D05DF804FB1BF015FD1BF014FD0E4B186890
S2140025E00C4B197811F0020F0DD00C4A11F0010FA8
S2140025F00BD00A4B11F0040F09D008490091084986
S2140026001CF034FEE3E7074AF0E7064BF2E705491D
S214002610F4E700BFD7210020303400205C330200EE
S214002620A03502006433020008B58368C26853F818
S21400263022301A88094B1A80032002F0C7FD00B921
S21400264008BD1BF0DEFC1BF0DDFC044B1A880449B9
S214002650044B18681CF00AFEF2E700BFA021002019
S214002660D43502003034002008B50A4B186810B183
S2140026700DF01CF808BD012002F0A8FD0028F9D0D6
S2140026801BF0BFFC1BF0BEFC0349044B18681CF093
S214002690EDFDEFE7542E0020F03502003034002028
S2140026A010B503468168C26851F82200B0F90000F0
S2140026B01A4C20805B689B1A012B0FDD013251F803
S2140026C0223093F90010003918BF01211DF069FB74
S2140026D0A0B9032002F07AFD10B910BD0021F5E77D
S2140026E01BF08FFC1BF08EFC0D4B1C681DF05DFB79
S2140026F002460C4920461CF0B9FDEEE7012002F028
S21400270065FD0028E9D01BF07CFC1BF07BFC06492D
S214002710034B18681CF0AAFDDFE700BFC657002071
S21400272030340020183602002C36020030B595B042
S21400273004460D4668461BF005FB0DF12C0EEC46D4
S214002740BCE80F00AEE80F00BCE80F00AEE80F00D4
S214002750DCF80030CEF800300BA94D4B18681DF0A1
S214002760C7FD10F1880F54D00BA81DF04FFE484B44
S21400277018681DF0A5FD68461BF0E4FA0DF12C0E56
S214002780EC46BCE80F00AEE80F00BCE80F00AEE871
S2140027900F00DCF80030CEF800304FF410510BA8D4
S2140027A01BF0F0FA8023ADF82E304FF440730A93F6
S2140027B00AA81BF0D8FA0A9B0E93364B0F93344B9D
S2140027C01A680C9B0D9213F0FF0F04D123F0FF0341
S2140027D043F001030C9301230C932D4B2A4621460C
S2140027E00BA81DF0A8FD04460BA81DF00FFE04BBA9
S2140027F0032002F0EBFC80B9254B18681DF0BDFAEB
S214002800054680BB032002F0E1FC044608BB012419
S2140028102EE00BA81DF0FAFDADE71BF0F2FB1BF057
S214002820F1FB1B4B1A681C491C4B18681CF01EFD5C
S214002830E2E7032002F0CAFC0028DDD01BF0E1FB33
S2140028401BF0E0FB22461649144B18681CF00EFDE0
S214002850D2E71BF0D6FB1BF0D5FB12490F4B1868CE
S2140028601CF004FD04E0032002F0B0FC044610B99E
S214002870204615B030BD1BF0C4FB1BF0C3FB2A4638
S2140028800949064B18681CF0F1FC0024F0E700BF6D
S214002890582400200044400444360200303400200F
S2140028A07436020098360200B836020000B583B0CF
S2140028B00021019101AA1BF0BFFF019910290ED03B
S2140028C0032002F083FC60B11BF09BFB1BF09AFB1D
S2140028D010220549054B18681CF0C8FC01E0FFF7FC
S2140028E025FF03B05DF804FBD83602003034002024
S2140028F008B51DF046FA032002F068FC00B908BDD2
S2140029001BF07FFB1BF07EFB0249034B18681CF094
S214002910ADFCF4E7003702003034002010B582B07A
S2140029200023019304230DEB0302012121480068D4
S21400293011F06EFE28B9019BCBB1042B19D90023E8
S21400294000E000231BB19DF80430042B22D00423A2
S21400295000936A4601211748006811F00FFE0446EE
S214002960032002F033FC30B9042002B010BD00236F
S214002970E8E70123E6E71BF044FB1BF043FB0E4BA6
S21400298018682CB90D4B04220D491CF06FFCEBE7C0
S2140029900C4BF8E7032002F019FC0028E4D01BF0EB
S2140029A030FB1BF02FFB04220749034B18681CF072
S2140029B05DFCD9E798200020303400202037020044
S2140029C038370200283702006837020008B51DF0C5
S2140029D03FFA0C4809F0F0F800230B4A13700B4A34
S2140029E01370032002F0F2FB10B901F069FC08BD79
S2140029F01BF007FB1BF006FB0549064B18681CF08E
S214002A0035FCF2E7A0860100905800208F58002081
S214002A10943702003034002010B582B0694600209A
S214002A2002F084FE88B9032002F0D0FB08B902B099
S214002A3010BD1BF0E6FA1BF0E5FA019B009A0B4965
S214002A400B4800681CF012FCF1E70446012002F077
S214002A50BDFB0028EBD01BF0D4FA1BF0D3FA2246BD
S214002A600449034B18681CF001FCE0E7B837020085
S214002A7030340020E837020010B58AB009F096FE20
S214002A8002F0D4FD002859D101F01EFFFFF746FFE3
S214002A905F4B1870FF2862D0032002F097FB0028D7
S214002AA07AD101205B4B18601DF00AFC01A81BF0D0
S214002AB076F9032002F08AFB002879D1554B1A6874
S214002AC0029B039213F0FF0F04D123F0FF0343F0A1
S214002AD001030293504B05934FF4407300936846EE
S214002AE01BF06EF9009B04934FF4105101A81BF0E5
S214002AF076F98023ADF8063001230293454B102269
S214002B00464901A81DF017FC044601A81DF07EFCEE
S214002B10002C63D1032002F059FB002852D13D4B14
S214002B2018681DF02AF9FFF751FFFFF775FF03201D
S214002B3002F04CFB002861D10AB010BD044601200B
S214002B4002F044FB00289FD01BF05BFA1BF05AFAF9
S214002B5022463349334B18681CF088FB94E7012063
S214002B6002F034FB70B9012002F030FB002893D04D
S214002B701BF047FA1BF046FA2B492A4B18681CF044
S214002B8075FB89E71BF03DFA1BF03CFA2749254BFD
S214002B9018681CF06BFBE6E71BF033FA1BF032FA02
S214002BA01B4B1A7822491F4B18681CF05FFB78E70E
S214002BB01BF027FA1BF026FA1E491A4B18681CF061
S214002BC055FB7BE71BF01DFA1BF01CFA114B1A682D
S214002BD01949144B18681CF049FBA0E7012002F0C5
S214002BE0F5FA00289BD01BF00CFA1BF00BFA2246D5
S214002BF012490C4B18681CF039FB90E71BF001FAE1
S214002C001BF000FA0E49074B18681CF02FFB93E7E1
S214002C10D621002058240020004440040020002034
S214002C200C380200303400206838020044380200B5
S214002C308C380200B8380200E0380200043902007E
S214002C4024390200BFF34F8F0549CA6802F4E062D8
S214002C50044B1343CB60BFF34F8F00BFFDE700BFAD
S214002C6000ED00E00400FA05034B1878034B1B78D0
S214002C70C01A00F0070070479758002096580020AA
S214002C8070B50546C388052B1DD983685E789C7889
S214002C90DA7844EA02241A7944EA02445B7944EA80
S214002CA00364032002F092FAE8B96A88144B1A808B
S214002CB0144B1E70144B1C60144B00221A70144BDD
S214002CC001221A7070BD012002F080FA0028F9D0A7
S214002CD01BF097F91BF096F9EA880E490E4B186818
S214002CE01CF0C4FAEEE71BF08CF91BF08BF92346B8
S214002CF032460A49084800681CF0B8FAD5E700BF13
S214002D00CE570020A75800203C2E0020B0580020A8
S214002D10A85800203C390200303400205C390200FC
S214002D2030B585B0044601F04BFF48BB002501F0E6
S214002D303FFF08B145F0020501F04AFF08B145F033
S214002D400405B1238DF80C301E4B1B788DF80D3022
S214002D5001238DF80E308DF80F501B4B1B78019316
S214002D6003AB009304230022022120461DF04DF8F9
S214002D700546B0B9032002F029FA18B905B030BDEF
S214002D800125D4E71BF03DF91BF03CF90123009325
S214002D900C4B1B7822460D490D4800681CF066FA5D
S214002DA0ECE7012002F012FA0028E7D01BF029F920
S214002DB01BF028F92A460749054B18681CF056FAF6
S214002DC0DCE700BFD6210020D72100209C39020076
S214002DD030340020CC39020008B5C388012B05D951
S214002DE083685B78044A12789A4200D008BD40880F
S214002DF0FFF796FFFAE700BFD6210020072925D95E
S214002E000B46134A12780AB3124A1278F2B900B582
S214002E1099B0582900D95823002208E010F802C0BB
S214002E2002F16001694401F858CC0132D2B29342F3
S214002E30F4D8094A1278019202AA009200220221CE
S214002E4010461CF0E2FF19B05DF804FB704700BFA7
S214002E5090580020AC580020D7210020F0B599B03B
S214002E6000EB80039C00304AB2F800E0BEEB830F14
S214002E7000D87446AEEB040E1FFA8EFEBEF1140F99
S214002E8001D94FF0140EC3238DF80830274B1B785A
S214002E908DF80930264B1B788DF80A30254B1B78A9
S214002EA08DF80B30244B1B788DF80C308DF80D0008
S214002EB004238DF80E305FFA8EF58DF80F50002340
S214002EC01AE0E61803F1020C02AA02EB8C021B4978
S214002ED031F9260018AF07EB8C0C0CF8580CC0F331
S214002EE00720507001EB8601B1F902109170C1F312
S214002EF00721D17001339BB29E45E2D8AB1CDBB2F2
S214002F009B000F4A1278019202AA009203F0FC037B
S214002F100022022110461CF078FF10B1094B012256
S214002F201A7019B0F0BD00BFC8570020A058002086
S214002F309F5800209E580020D6210020CC2C002030
S214002F40D7210020945800202DE9F04198B005467E
S214002F50184601EB8104A6002B79B3EB840F00D84A
S214002F601E469B1B9BB2142B00D914238DF80820F9
S214002F70EA788DF809202A788DF80A20AA788DF844
S214002F800B206A788DF80C208DF80D1004228DF831
S214002F900E20DFB28DF80F7000221DE006EB020C4B
S214002FA0941C02A901EB840105EB8C0CBCF905E02E
S214002FB00DF1600808EB840404F858ECCEF3072EF5
S214002FC081F801E0BCF907C081F802C0CCF3072CF9
S214002FD081F803C0013292B29342DFD84FF6FF73F6
S214002FE0984210D0094B1A78BB1CDBB29B000192AA
S214002FF002AA009203F0FC03002202211CF005FF47
S21400300018B0BDE8F0810022EEE700BFD72100200F
S21400301030B585B00446F1238DF80C30164B1B787E
S214003020019303AB00930123002202211CF0EDFE66
S21400303080B9032002F0CAF808B905B030BD1AF00E
S214003040E0FF1AF0DFFF22460C490D4B18681CF013
S2140030500DF9F2E70546012002F0B8F80028ECD09A
S2140030601AF0CFFF1AF0CEFF2A460649044B18681E
S2140030701CF0FCF8E1E700BFD7210020EC39020085
S214003080303400200C3A020008B51CF0F2FB014B6D
S214003090186008BD4C2E002010B586B0284B1B7853
S2140030A0FF2B21D01CF08DFEA0238DF80C30244B76
S2140030B01B788DF80D3002684368CDF80E20CDF8E9
S2140030C01230204B1B78019303AB00930A23002297
S2140030D0022110461CF099FE044600BB032002F0B5
S2140030E075F880B906B010BD012002F06FF8002810
S2140030F0F8D01AF086FF1AF085FF1349134B1868AC
S2140031001CF0B4F8EEE71AF07CFF1AF07BFF0C4BCD
S2140031101A780F490D4B18681CF0A8F8E2E7012052
S21400312002F054F80028DDD01AF06BFF1AF06AFFA0
S21400313022460849054B18681CF098F8D2E700BFED
S214003140D6210020D7210020283A02003034002063
S2140031505C3A02007C3A02000D4B1B78B3B100B516
S21400316083B00C4B1B7813B90B4B1B785BB1002359
S21400317001930093094A42F2107109481AF03BFE87
S21400318003B05DF804FBFFF787FFF0E7704700BF6A
S21400319090580020AC580020A1580020593100005B
S2140031A0DC2D002000B583B0A8B1124B1B7813B1FC
S2140031B003B05DF804FB01201AF039FE0D4B012226
S2140031C01A700023019300930B4A4FF47A710B4850
S2140031D01CF05BFBECE7074B1B78002BE8D00120CC
S2140031E01AF032FE034B00221A70044807F04AFE1B
S2140031F0DEE700BFB1580020F3DD0100582E0020A6
S21400320000B583B0A0B1114B1B7813B103B05DF8C5
S21400321004FB01201AF00BFE0023019300930C4AD6
S2140032200A210C481CF031FB084B01221A70EDE70E
S214003230064B1B78002BE9D0064807F023FE01203A
S2140032401AF002FE014B00221A70DFE79A5800209F
S214003250F5DD01008024002038B5FFF705FD28B114
S214003260184B1B7813B9184B1B7803B938BD1CF0E4
S21400327000FB0446154B1868201A07F067FF132852
S214003280F4D9124B1C60124B187800EB801300EB3D
S2140032908300104C4FF6FF73C42221780E4D28444D
S2140032A0FFF752FE23780133DBB22370032BDDD900
S2140032B000222270064A1378013303F007031370C6
S2140032C0D4E700BFA158002090580020A02400207A
S2140032D09658002095580020A424002010B582B0EF
S2140032E01CF043FD022802D0D0B102B010BD03206E
S2140032F001F06CFF50B91CF0ABFD264B4FF4FA62A0
S2140033001A601CF0B6FA244B1860EEE71AF079FE45
S2140033101AF078FE2149224B18681BF0A7FFEAE74F
S21400332000230093ADF804304FF6FF73ADF800307D
S2140033301CF09FFA184B1860694603201CF080FDAD
S214003340044698B9174B01221A70032001F03EFF7D
S2140033500028CAD01AF055FE1AF054FEBDF8042014
S21400336011490F4B18681BF081FFBEE70D4B00227A
S2140033701A70012001F02AFF0028B6D01AF041FE8C
S2140033801AF040FE22460949054B18681BF06EFFEE
S214003390ABE700BF102000204C2E0020983A020019
S2140033A0303400208F580020DC3A0200F83A020041
S2140033B0154B1B7803B1704710B582B0044601F078
S2140033C0A3FC80B1104B01221A70002301930093D6
S2140033D00E4A4FF4C8710E481AF00DFD38B90D4B61
S2140033E001221A7003E0012001F0F0FE08B902B0D5
S2140033F010BD1AF006FE1AF005FE22460649074BD7
S21400340018681BF033FFF2E79358002021340000C1
S21400341060240020925800202C3B0200303400200C
S21400342008B501F089FC024B01221A7008BD00BFE6
S2140034309158002008B50C4B1B781BB90B4B1B781A
S2140034403BB908BD0A4807F01DFD074B00221A705D
S214003450F4E7084B187800F07F0001F077FC034B88
S21400346000221A70EDE700BF925800209358002003
S214003470602400209E58002070B582B09E4B1B78BA
S2140034805BB99E4B1B78002B36D09D4B1B782BBB15
S2140034909C4B00221A7002B070BD0023964A13702F
S2140034A0994A1370994A1370012001F08FFE58B99B
S2140034B00021974B18881CF06CFC0020FFF7A0FE3C
S2140034C08F4B00221A70DCE71AF09BFD1AF09AFD6B
S2140034D09049914B18681BF0C9FEE9E7FFF7AAFF71
S2140034E000218B4B18881CF054FC0020FFF788FE48
S2140034F0834B00221A70CBE71CF0BBF90446814BC5
S2140035001B781BB17E4B1B78002B52D07C4B1B7854
S214003510012B00F08980022BBDD1804B1868201A41
S21400352007F014FE02467E4B1B78591EC9B20329CB
S21400353000D90123013B7B49087800EB8303C3EBEA
S214003540C3039B0032339A42A5D3FFF787FC754A24
S21400355013780133DBB21370032B9CD9724B1B78A4
S214003560002B00F02981714B1C88002C00F0248170
S2140035706F4B19786F4801EB811301EB8303C21878
S2140035806D4D2D78C554664B1B7853706B4B1B786E
S21400359093706B4B1B78D370402C00F2ED80E4B236
S2140035A001EB811201EB8202624B13441C71002373
S2140035B0F3E00025534B1D70624B1A78604B1A706F
S2140035C0614B1A785C4B1A705C4E604B1B783370FC
S2140035D05F4B1A785F4B1A701CF0DFFB4C4B188061
S2140035E05D4B1D605D4B1D805D4B1D705D4B1D7002
S2140035F04E4B1D805C4B1D704A4B1D700120FFF723
S214003600FFFD3078294600F07F001CF0C2FB38B979
S214003610564B1C60564B1C60394B01221A703AE719
S2140036202846FFF7EDFD36E7504B1868201A07F0DE
S2140036308DFD0546404B1A78394B1B789A422CD0A4
S2140036403D4B1A78364B1B789A4209D0464B1B786E
S21400365033B94F2D7FF61FAF01F02EFB002831D176
S214003660F92D7FF618AFFFF7E5FE0021284B1888E6
S2140036701CF08FFB304B1A78294B1B789A4234D0BB
S2140036802A4B1B88002B30D0244B1C60254B002275
S2140036901A701B4B02221A70FDE61C4B1B781BB9D6
S2140036A0132801D9E52806D9002BC9D0E52DC7D99E
S2140036B0FFF7C0FEC4E7214B187800F07F00FFF745
S2140036C077FEBDE71D4B187800F07F007823019346
S2140036D0082300934023274A014601F045FB134B7D
S2140036E01880214B01221A70BAE70020FFF788FDE8
S2140036F0034B00221A70CEE691580020AC580020EA
S214003700A1580020A6580020925800209358002068
S214003710CC570020543B020030340020CC2D002033
S214003720D62100209858002094580020C857002022
S21400373097580020A42400209F5800209E58002060
S214003740A0580020A5580020A4580020A358002008
S214003750A25800209D580020D02D0020CA570020D7
S2140037609B5800209C58002099580020D82D0020F7
S214003770D42D0020CC2C0020402411E701EB811230
S21400378001EB820202EB83021A4802441A4850F800
S2140037902300C2F805000133DBB2A342EED34B1C74
S2140037A003F00703154A1370154A127893420CD09B
S2140037B0032001F00BFD70B90024124B1C7020464C
S2140037C0FFF71EFD104B1C7065E6531C03F0070345
S2140037D00B4A1370ECE71AF014FC1AF013FC0B4BB0
S2140037E01C68FFF741FA0246094920461BF03EFDD9
S2140037F0E2E700BFA4240020CC2C0020975800202D
S2140038009658002094580020A158002030340020FC
S214003810943B020010B50021084602F059F898B90A
S21400382001F0FCFF124B01221A70032001F0CEFCBF
S21400383000B910BD1AF0E5FB1AF0E4FB0D490E4B7B
S21400384018681BF013FDF4E70446094B00221A70B3
S214003850012001F0BBFC0028EBD01AF0D2FB1AF0D6
S214003860D1FB22460549044B18681BF0FFFCE0E735
S214003870AE580020CC3B020030340020E83B02006B
S21400388008B501F0F7F8032001F0A0FC10B901F02C
S2140038901FFF08BD1AF0B5FB1AF0B4FB0249034B34
S2140038A018681BF0E3FCF2E70C3C02003034002002
S2140038B0C188002900F09C8030B583B0044680683B
S2140038C005782379022B08D00D2B04D0032001F0B5
S2140038D07DFC00287DD103B030BDC42D34D8B02D7A
S2140038E0F2D3A5F1B002142AEED80FF2080C5CF859
S2140038F022F000BF55390000C9380000C938000062
S214003900C9380000C9380000C9380000C9380000AE
S214003910C9380000C9380000C9380000C93800009E
S214003920C9380000C9380000C9380000C93800008E
S214003930C93800006539000091390000C938000018
S214003940C93800005D390000F02DBDD12046FFF7D4
S21400395097F9C0E72046FFF73FFABCE7C9B2FFF782
S2140039604DFAB8E70429B6D9224B1B78002BB2D102
S2140039704278214B1A708278204B1A70C278204BFE
S2140039801A7002791F4B1A701F4B01221A70A2E799
S2140039900329A0D91D4B1B78012B9CD182781C4B88
S2140039A01B789A4297D1C3781A4A1278534013F07C
S2140039B07F0F90D194F90510174A13680B441360D3
S2140039C094F91020154B1A70154A1388013313808A
S2140039D081E71AF016FB1AF015FBE38801930095B1
S2140039E0237962880F49104800681BF03FFC72E795
S2140039F0704700BFAC580020A5580020A4580020EF
S214003A00A3580020A2580020A6580020A158002045
S214003A109F5800209E580020D02D00209B58002044
S214003A20CA570020383C02003034002010B582B05F
S214003A30044658B191B1CB884BB18B683BB11B782B
S214003A40C32B04D12C4B01221A7000E031B1CB8875
S214003A5023B18B6813B11B78C42B0DD04CB1274B08
S214003A601B785BB9264B1B7863B1264B00221A7075
S214003A7002E0244B00221A7002B010BD214B002237
S214003A801A70F9E7032001F0A1FBD0B91E4B1B7892
S214003A90002BF1D01B4A13780133DBB21370022BD4
S214003AA0EAD9012001F092FBD8B90023154A137019
S214003AB0154A1370154B4FF4FA621A60FFF7E4FAD2
S214003AC0DAE71AF09EFA1AF09DFA0E4B1B780322DC
S214003AD00092013322460E490E4800681BF0C6FBD2
S214003AE0D4E71AF08EFA1AF08DFA0B49094B1868CB
S214003AF01BF0BCFBD9E700BF94580020AC58002050
S214003B00A1580020AD58002090580020102000201A
S214003B10643C020030340020803C020030B583B0A4
S214003B20902812D0044691286DD0032001F04EFB59
S214003B30002840F08B804B4B1B78002B7AD0494BEB
S214003B4000221A70FFF7A0FA74E0032001F03EFB93
S214003B50A0B91CF03AF958BB012001F037FBE8B9D0
S214003B600023414A13703F4A1370404A136040488E
S214003B7007F088F93F4B01221A705BE01AF041FA11
S214003B801AF040FA3C4B1C681CF01FF902463B4BEF
S214003B901B783B4920461BF069FBDAE71AF031FA3E
S214003BA01AF030FA3749344B18681BF05FFBD7E73A
S214003BB02D4B01221A7000242A4B1C70324B4FF4F6
S214003BC0FA621A60314B1C702046FFF7EBFA1BF0C6
S214003BD050FE264B1860264D284607F053F90194F0
S214003BE0009423462A4A4FF47A7128461AF003F9BD
S214003BF02346284A93421DD8274A126912F0200FFE
S214003C0018D10133F5E7032001F0E0FAA0B900234C
S214003C10154A1370134A1370144A13601A4B4FF464
S214003C20FA621A600120FFF7BDFA114807F02AF978
S214003C30FFF72AFA03B030BD1AF0E3F91AF0E2F9FA
S214003C4016490D4B18681BF011FBE0E71AF0D9F97E
S214003C501AF0D8F922461249074B18681BF006FBE3
S214003C6069E700BF8F58002090580020402E0020A3
S214003C70DC2D0020A958002030340020D62100205A
S214003C80A43C0200D03C020010200020AD580020CA
S214003C90593100009F86010000000140203D0200CF
S214003CA0303D020010B500F099FFA54B1B78002BA5
S214003CB050D1A44B1B78002B61D0A34B1B7883B943
S214003CC01BF0D7FD0446A14B1B7833B1A04B1868F8
S214003CD018B1A04B1B78002B59D000F069FF0028C4
S214003CE062D100F0F1FF002876D1984B1B78002BAC
S214003CF040F0D7800120FFF755FA1BF0BAFD0446C6
S214003D00954B186800287BD11C60944B1868201AC5
S214003D1007F01CFA0446924B1B78002B00F0A1809B
S214003D2043F69823984240F2C780012001F04EFAED
S214003D30002840F088808A4B00221A701CF015F884
S214003D40002840F08B80874B4FF4FA621A60FFF72A
S214003D509BF9B1E07A4B00221A70012001F036FA86
S214003D6018B91CF075F8FEF76DFF1AF04AF91AF04C
S214003D7049F97D497D4B18681BF078FAF1E71BF08E
S214003D8078FD7B4B18606F4B01221A7095E7201A5E
S214003D9007F0DCF943F6972398429ED900F09AFE86
S214003DA0694B01221A709CE7714B1868201A07F0BD
S214003DB0CDF9704B984294D9012001F007FA08B962
S214003DC0FEF740FF1AF01DF91AF01CF96A49674B16
S214003DD018681BF04BFAF3E700F07CFF002884D04D
S214003DE0032001F0F3F900283FF47FAF1AF009F939
S214003DF01AF008F961495D4B18681BF037FA74E74A
S214003E00201A07F0A3F95E4B98427FF67EAF01209A
S214003E1001F0DCF950B900235A4A934211D85A4AA5
S214003E20126912F0200F0CD10133F5E71AF0E9F809
S214003E301AF0E8F8524A55494C4B18681BF016FA27
S214003E40E9E7FEF7FFFE1AF0DCF81AF0DBF8224688
S214003E504F49464B18681BF009FA6CE71BF0F8FF51
S214003E6071E7404B1B68834226D8032001F0AEF969
S214003E7058B9FFF733FA3B4A13685B0044F62061F3
S214003E808B4228BF0B46136016E01AF0BAF81AF0F9
S214003E90B9F8344B1A683F49344B18681BF0E6F9FA
S214003EA0E7E72D4B00221A60FFF7E6FA294B1B784E
S214003EB01BB1394B1B781BB910BDFFF7CDF9F8E7DE
S214003EC0354B00221A70032001F080F9E8B9002073
S214003ED001F086FC044610BB304B1A88304B1A8023
S214003EE0304B1A78304B1A70304B1A68304B1A60C9
S214003EF0304B01221A70032001F068F900285FD1C8
S214003F00274B1888FFF784F8D6E71AF07AF81AF0E5
S214003F1079F82949154B18681BF0A8F9D7E701204E
S214003F2001F054F90028C7D01AF06BF81AF06AF8B6
S214003F30224622490D4B18681BF098F9BCE700BFD3
S214003F40A9580020AA580020AB58002090580020FE
S214003F50402E0020AC580020482E00204C2E00207A
S214003F608F58002010200020483D020030340020EA
S214003F70442E00201FBF0200843D0200C43D020004
S214003F80E09304009F86010000000140E03D02002F
S214003F901C3E0200483E0200A8580020CE570020D3
S214003FA0D0570020A7580020AF5800203C2E0020F5
S214003FB0502E0020B0580020643E02007C3E0200D6
S214003FC01AF01FF81AF01EF8044B1B68044A127801
S214003FD00449054800681BF049F991E7502E002077
S214003FE0AF580020B03E020030340020F0B583B059
S214003FF007460D4614461E46032001F0E7F850B962
S21400400001200B4B18700B4B1D700B4B1C600023D4
S214004010336003B0F0BD19F0F4FF19F0F3FF00941D
S2140040202B463A460549064800681BF01FF9E7E7A5
S214004030AC580020AF580020502E0020E83E02006A
S2140040403034002070B582B00D461446264B01224F
S2140040501A70631A1344069A002001F0A3FBC8B92D
S214004060224B1B68DBB1651C642204FB0222B2FBF8
S214004070F3F41F4AA2FB04311E4B1B68A2FB03236A
S214004080DB08B3EBD10F18D3632C08D9194B0022E9
S2140040901A6004E00646012001F098F808B902B05C
S2140040A070BD19F0AEFF19F0ADFF33462A4612492F
S2140040B0124800681BF0DAF8F1E7032001F086F8F2
S2140040C010B90C4B1C60DFE719F09BFF19F09AFF44
S2140040D0064B1B6800932B46224609490748006892
S2140040E01BF0C4F8EDE700BFAC580020502E0020AF
S2140040F0CDCCCCCC5C2400201C3F02003034002009
S214004100443F020070B582B015461A4B00221A7062
S214004110E0B90C46032001F059F858B90023164AB6
S214004120137001930093154A6421154819F063FE35
S21400413002B070BD19F065FF19F064FF2B462246E9
S2140041401049114800681BF091F8E7E70646012081
S21400415001F03CF818B9084B00221A70E8E719F08D
S21400416050FF19F04FFF32460849074B18681BF0FE
S2140041707DF8F0E7AC580020AE5800201538000057
S214004180FC2D0020643F020030340020943F0200E3
S21400419070B582B005461446032001F017F8A0B9A2
S2140041A01D4B1E78EEB1032001F010F840BB002531
S2140041B0019500952B46194A2146194819F01BFE11
S2140041C0154B1D70304602B070BD19F01AFF19F07D
S2140041D019FF23462A461349134800681BF046F881
S2140041E0DEE7012000F0F2FF0028EBD019F009FF0F
S2140041F019F008FF0D490C4B18681BF037F8E1E77B
S21400420019F0FFFE19F0FEFE22460949064B186813
S2140042101BF02CF8CBE700BFAE580020813800001A
S2140042201C2E0020BC3F020030340020F03F02006D
S2140042301440020010B580B10446012000F0C6FF0D
S21400424000B910BD19F0DDFE19F0DCFE22460A4961
S2140042500A4B18681BF00AF8F3E7032000F0B6FFD5
S2140042600028EED019F0CDFE19F0CCFE0449034B21
S21400427018681AF0FBFFE4E73040020030340020F4
S21400428050400200F0B583B004460D4616461F4661
S214004290032000F09BFF08B903B0F0BD19F0B1FE93
S2140042A019F0B0FE019700962B46224602490348B5
S2140042B000681AF0DBFFEFE76840020030340020A9
S2140042C010B50120FEF76EFF084B4FF4FA621A6035
S2140042D0074B00221A601BF0CCFA044640F2A4609A
S2140042E006F0CAFE241A034B1C6010BD10200020E6
S2140042F0482E00204C2E002010B584B00D4BEC4606
S2140043000FCBACE807008CF8003001238DF80330A3
S2140043108DF8043000238DF808300E238DF8093010
S214004320054C694620461AF098F920461AF086F998
S21400433004B010BDF446020000200540044B0022E5
S2140043401A605A609A60DA60024A1A60704700BFC4
S214004350782E00203152474610B58EB001A801F0E5
S214004360CDF9059A0AB3D3680BB94FF4805329499F
S2140043700B6014694CB3B4F5E01F26D3B4F5001FE8
S21400438023D34FF4C012B2FBF3F203FB02F2B2F5F2
S214004390C01F2CD14FF4E012B2FBF3F202FB03F382
S2140043A0B3F5E01F23D1012014E0012000F00EFF3A
S2140043B008B900200EE019F024FE19F023FE164975
S2140043C0164B18681AF052FFF3E7012000F0FEFEC5
S2140043D010B900200EB010BD19F013FE19F012FE31
S2140043E022460F490D4B18681AF040FFF1E70120EE
S2140043F000F0ECFE08B90020ECE719F002FE19F018
S21400440001FE044B1A680749044B18681AF02EFF81
S214004410F1E700BF14200020944002003034002052
S214004420C44002000C41020008B51023044A0321D0
S2140044300448006810F0A2F8B0FA80F0400908BD01
S214004440782E00209820002008B510230F4A03215C
S2140044500F48006810F0DCF820B90C4B1A680D4BBA
S2140044609A4207D0032000F0B1FE20B9FFF766FF9E
S214004470FFF7DAFF08BD19F0C4FD19F0C3FD0649C1
S214004480064B18681AF0F2FEF0E700BF782E002000
S2140044909820002031524746544102003034002014
S2140044A02DE9F041ADF5007D674BD979674A52F8A2
S2140044B021809E68731EB3F5802F33D2002001F052
S2140044C08FF9002842D1033626F003060024B442B2
S2140044D07FD2351BB5F5807F28BF4FF4807504EB7F
S2140044E008072A4640A9384601F01CFA00283DD1A4
S2140044F02B4640AA2146002001F054F9002846D158
S2140045002B466A462146002001F02EF900284FD19E
S2140045102A46694640A81EF058FC002848D104F5F3
S2140045208074D4E7012000F051FE20B900200DF57C
S214004530007DBDE8F08119F064FD19F063FD324698
S2140045404349444B18681AF091FEEFE7012000F04B
S2140045503DFE08B90020EAE719F053FD19F052FDB8
S2140045603D493C4B18681AF081FEF3E7012000F045
S2140045702DFE08B90020DAE719F043FD19F042FDD8
S2140045803A463649334B18681AF070FEF2E70120B7
S21400459000F01CFE08B90020C9E719F032FD19F03A
S2140045A031FD22462E492B4B18681AF05FFEF2E7C3
S2140045B0012000F00BFE08B90020B8E719F021FD35
S2140045C019F020FD22462749224B18681AF04EFEA5
S2140045D0F2E70021084601F07BF958B9002001F007
S2140045E01DF9B8B9032000F0F1FD18BB01F070F812
S2140045F001209CE7012000F0E9FD08B9002096E7BD
S21400460019F0FFFC19F0FEFC1749124B18681AF057
S2140046102DFEF3E7012000F0D9FD08B9002086E75B
S21400462019F0EFFC19F0EEFC10490A4B18681AF066
S2140046301DFEF3E719F0E5FC19F0E4FC0C49054B08
S21400464018681AF013FED1E7782E0020EC46020018
S2140046508441020030340020A8410200C841020014
S214004660EC4102000C420200344202005C420200AE
S214004670804202002DE9F047ADF5047D0021084692
S21400468001F026F900283AD182A9002001F04EF860
S214004690002847D1002404F10803839A934251D896
S2140046A008236A462146002001F05EF8002840F004
S2140046B090809DF800309DF8012043EA02239DF883
S2140046C0022043EA02439DF8032043EA02629DF873
S2140046D004309DF8051043EA01239DF8061043EACE
S2140046E001439DF8071043EA01638399994272D308
S2140046F0234403F10804694B9A42CCD123E00120FD
S21400470000F064FD20B900200DF5047DBDE8F087BB
S21400471019F077FC19F076FC6149624B18681AF0BC
S214004720A5FDF0E7012000F051FD08B90020EBE7F9
S21400473019F067FC19F066FC5B495A4B18681AF0CA
S21400474095FDF3E70024631EB3F5802F45D2574B43
S21400475093F807A0BAFA8AFA4FEA5A1A544B53F853
S2140047602A904FF48021484601F018F9002847D1D6
S21400477004F1030828F003080026464580F08480EC
S214004780A8EB0605B5F5807F28BF4FF480752B464D
S21400479042AA3146002000F0E7FF002841D106EB90
S2140047A009072A4642A9384601F0DAF8002849D116
S2140047B02A4602A9384601F0B5F8002853D12A4601
S2140047C002A942A81EF001FB00284CD106F580760F
S2140047D0D3E70024B7E70024B5E7012000F0F6FC95
S2140047E008B9002090E719F00CFC19F00BFC4FF408
S2140047F0802322462F492B4800681AF037FDF0E741
S214004800012000F0E3FC08B900207DE719F0F9FB71
S21400481019F0F8FB4A462849224B18681AF026FD7C
S214004820F2E7012000F0D2FC08B900206CE719F08E
S214004830E8FB19F0E7FB324620491A4B18681AF0D5
S21400484015FDF2E7012000F0C1FC08B900205BE787
S21400485019F0D7FB19F0D6FB3A461949114B1868E0
S2140048601AF004FDF2E7012000F0B0FC08B90020C1
S2140048704AE719F0C6FB19F0C5FB3A461149094B41
S21400488018681AF0F3FCF2E7084B83F807A09C6060
S21400489001221A73FFF7C8FD36E700BFFC0404FCCC
S2140048A0B442020030340020EC420200782E002091
S2140048B0EC46020010430200484302007043020028
S2140048C090430200B443020010B584B0FFF714FD15
S2140048D0FFF7BAFDFFF740FD5B4B1870032000F0B2
S2140048E075FC20B9594B9B79BBB904B010BD19F0C3
S2140048F088FB19F087FB554AD379117B9068524C98
S21400490024780394029001910093938892795049F9
S214004910504800681AF0AAFCE4E74C4A9388013332
S2140049209380FFF781FD08B3032000F04FFC60BBC7
S214004930464B9B88042BD8D9434B1B781BB1434B63
S2140049401B7B002B42D1012000F040FC50BB012015
S21400495000F03CFC00282FD13C4B9B88052BC4D98B
S2140049603A4B05229A80FFF75FFDBEE7012000F074
S2140049702DFC0028D8D019F044FB19F043FB36492B
S214004980344B18681AF072FCCEE719F03AFB19F0AF
S21400499039FB05232D4A928830492E4800681AF0C4
S2140049A065FCC5E719F02DFB19F02CFB2C49294BAB
S2140049B018681AF05BFCCAE719F023FB19F022FB13
S2140049C02849244B18681AF051FCC5E7032000F06C
S2140049D0FDFBC8B91D4B00229A8001229A71FFF791
S2140049E023FDFFF75DFDF8B1012000F0EFFB002886
S2140049F03FF47BAF19F005FB19F004FB1A49154B81
S214004A0018681AF033FC70E719F0FBFA19F0FAFA96
S214004A10104B18680D4BDB7923B1422213491AF06C
S214004A2025FCD7E74122F9E7012000F0CFFB00285C
S214004A303FF45BAF19F0E5FA19F0E4FA0C49054BC0
S214004A4018681AF013FC50E7B2580020782E0020A1
S214004A50E0430200303400202C4402006044020090
S214004A6080440200C84402003045020008450200A7
S214004A706845020008B5134B01229A7100229A80FD
S214004A80FFF7D2FC70B9012000F0A0FB00B908BD0A
S214004A9019F0B7FA19F0B6FA0B490C4B18681AF069
S214004AA0E5FBF4E7032000F091FB0028EFD019F0B7
S214004AB0A8FA19F0A7FA0649044B18681AF0D6FBAC
S214004AC0E5E700BF782E0020A04502003034002025
S214004AD0DC45020008B52F4B9B792BB92D4A127B7B
S214004AE012B12C4A928892B113B92A4B1B7B13B988
S214004AF0294B1B7863B9274B00229A719A80FFF7DF
S214004B0093FC002837D1012000F060FB48BB08BDAD
S214004B10FFF7B0FDB0B1032000F058FB0028EAD044
S214004B2019F06FFA19F06EFA1C4B1868194BDB79FE
S214004B3033B14222174B9B6819491AF097FBDAE704
S214004B404122F7E7012000F041FB0028D3D019F0FE
S214004B5058FA19F057FA1349104B18681AF086FBE2
S214004B60C9E719F04EFA19F04DFA0F490B4B1868C1
S214004B701AF07CFBCBE7032000F028FB0028C6D009
S214004B8019F03FFA19F03EFA0849044B18681AF073
S214004B906DFBBCE7782E0020B25800203034002091
S214004BA0144602005446020090460200BC4602002C
S214004BB0024B9879003818BF01207047782E0020E5
S214004BC0024B187B003818BF01207047782E002053
S214004BD0014BD879704700BF782E002008B50248F0
S214004BE019F02CFD08BD00BF0020054038B505466D
S214004BF0164C0122114620681DF00CF91449206855
S214004C001DF034FB0122002120681DF059FB002214
S214004C102946206810F0AAF808B9012038BD0122FC
S214004C20022120681DF0F6F8094920681DF01EFBD9
S214004C300122002120681DF043FB0022294620683F
S214004C4010F094F8B0FA80F04009E7E788300020CA
S214004C500847020010B50446FFF7C8FF28B9054B01
S214004C6001221A70044B1C7010BD024B00221A70F1
S214004C70FAE700BFB4580020B358002000B583B050
S214004C800B4B18604FF40073ADF806300DF10602BA
S214004C9008491DF0EFFABDF80630B3F5007F03D1E2
S214004CA0022802D1002000E0012003B05DF804FBDA
S214004CB088300020882E0020024B1868003818BF65
S214004CC00120704788300020014B1878704700BFDD
S214004CD0B458002008B5094B1B786BB103F0FF00F1
S214004CE0074B1B684BB1074B1878FFF77FFF20B1C7
S214004CF0024B00221A7000E0012008BDB4580020C4
S214004D0088300020B358002010B50446094B1868B8
S214004D1068B1012211461DF07DF801222146054B9F
S214004D2018681DF090F8B0FA80F0400910BD002019
S214004D30FCE700BF8830002008B5034B186808B1B0
S214004D401DF084F808BD00BF8830002010B504466A
S214004D50044B186820B11DF079F82046FFF77AFF5B
S214004D6010BD00BF883000202DE9F04F83B0044608
S214004D701E465E4B1868002800F0B480884615462C
S214004D80002A00F0B18026B93446204603B0BDE8BC
S214004D90F08F012211461DF03DF85549534B186817
S214004DA01DF064FA002838D1504F012200213868DF
S214004DB01DF086FA0022214638680FF0D7FF88BB20
S214004DC0802E00D9802606F130039BB2802B2ED988
S214004DD0C6F18007BFB206EB070A1FFA8AFA4FEA47
S214004DE08A04A4B21AF045FD83460D9B4EF6602059
S214004DF0984228BF184680B206F03EF98146002049
S214004E00A04216D21AF035FDA0EB0B00484510D88C
S214004E10364B18681DF052FAF2E74046FFF71AFFC5
S214004E200024B2E74046FFF715FF0024ADE7302721
S214004E30D1E7DFF8B89001220021D9F800001CF075
S214004E40E9FFD9F800001DF039FA844228BF04466D
S214004E50A0B220F003091FFA89F98308BAEB900F75
S214004E6003D99E4210D29B1B9FB20024A7420DD9A5
S214004E7004220DEB02011D4B18681DF0FDF90428F5
S214004E8004D10134A4B2F1E70027EEE70024A642DD
S214004E9024D907EB040C4FEA8C0C1FFA8CFCCC458B
S214004EA01CD204220DEB0201104B18681DF0E4F929
S214004EB0042813D19DF804309DF8051005EB8402F4
S214004EC043EA012325F824309DF806309DF80710A4
S214004ED043EA012353800134A4B2D8E74046FFF7E3
S214004EE0B9FE52E7002450E700244EE78830002041
S214004EF00447020008B5024B1B6803B1984708BD7B
S214004F00BC30002008B5024B5B6803B1984708BD6B
S214004F10BC30002008B5024B9B6803B1984708BD1B
S214004F20BC30002008B5024BDB6803B1984708BDCB
S214004F30BC30002008B5024B1B6903B1984708BD7A
S214004F40BC30002008B5024B5B6903B1984708BD2A
S214004F50BC30002030B585B0094C2268094B1A6079
S214004F60094D0A4B2B600A4B019304F0D9FE0290C0
S214004F702B68039301A9206819F080FC05B030BDAA
S214004F8034200020043F0020003F0020282000207E
S214004F90F84F020008B5024B186819F083FC08BDEC
S214004FA03420002038B504F0BBFE0446064D2B68BE
S214004FB0D3F8B00204F0A8FE286819F08DFC20464D
S214004FC004F0A2FE38BD00BF3420002038B501F042
S214004FD0F9FE01210D4801F0C7FA01221146002012
S214004FE001F034FE0A4C0225C4F880500122114616
S214004FF0002001F02BFEC4F8845001221146002048
S21400500001F024FEC4F88850002038BD30253E004C
S21400501000400E4008B5164B01225A6403F092F881
S214005020024668B9134B4AF6E851C3F89011D3F814
S214005030981141F00401C3F898110021C3F89011AB
S214005040012A0DD90C4A136A23F4441343F4881337
S2140050501362A2F58042136843F48073136008BDA0
S214005060044AD2F8643143F40053C2F86431E9E7E5
S21400507000000E4000300E4000400E4008B50121F2
S214005080034801F071FA034800F0FEFD08BD00BFBA
S21400509000350A0038200020012900D9704708B5DD
S2140050A0034B1B68186808B1436A984708BD00BFE1
S2140050B05020002030B599B0284D11ACAC46BCE865
S2140050C00F000FC49CE8070084E8070000240B9438
S2140050D00C940D940E940F941094214B0B93214B2B
S2140050E00C9301228DF8372002238DF839300323E4
S2140050F08DF83B301E238DF83F308DF8403009ABDD
S2140051001C3595E8030083E803000DF10C0C0394AE
S214005110049405940694079408948CE803000C23E2
S2140051208DF814300D238DF815300F4B0693202381
S21400513007938DF820208DF821200C4B00930BABA5
S21400514011AA61460A4804F0C3FF054621464FF4FB
S214005150E13018F096FF284619B030BD1050020016
S214005160000001400042040090330020B0330020CD
S2140051700434002008B50349034805F011FBFFF787
S21400518099FF08BD542000202834002008B50248A6
S2140051901AF080FA08BD00BF0434002008B50248A3
S2140051A01AF078FA08BD00BF0434002008B5024B98
S2140051B01A6A1868904708BD0434002008B50248EB
S2140051C018F0C3FF08BD00BF3450020003460B4A68
S2140051D0107828B10A4A12789A4202D2002000E0DB
S2140051E00120084A12783AB1074A127842FA03F3C5
S2140051F013F0010F00D10020704700BFDA21002015
S214005200D9210020B5580020D821002008B5084B29
S21400521001221A70074B00221A70074B04221A70DC
S214005220064B1F221A7004F07BFD054B186008BD64
S214005230DA210020B5580020D9210020D8210020EE
S2140052403034002000B591B000F0F0F950B903A852
S21400525000F054FA069BABB901200F4B187011B042
S2140052605DF804FB0120FFF7B1FF08B90020F6E760
S21400527018F0C7FE18F0C6FE0849094B186819F062
S214005280F5FFF3E701A9002000F050FA0028E3D16B
S214005290019A044B1A60DFE7B65800204C50020013
S2140052A0303400203434002008B5064B1B782BB170
S2140052B000F0E6F9034B00221A7008BDFFF7C2FFA4
S2140052C0F6E700BFB658002008B50121054801F0F2
S2140052D04BF918F0F7FD012018F0ABFE00F076F859
S2140052E008BD00BF00350A0008B50121014801F0DD
S2140052F03BF908BD00350A002DE9F04180460F460F
S21400530001F109050026344604E05B21082000F080
S21400531093FC0134AC4233D2052C1BD801A353F8BE
S21400532024F000BF0B5300003D53000071530000F3
S21400533045530000495300004D530000FBB20433B0
S214005340D9B2E3E78021E1E70021DFE7731C3146AD
S214005350DEB2DBE7BB1DA3420CD0FB1DA3420BD085
S21400536007F10803A34209D0A31F18F80310CDE7DE
S214005370D121CBE75A21C9E75A21C7E75D21C5E706
S2140053800020BDE8F08100BF00B583B00022009287
S214005390019202218DF80010054818F05CFE01907D
S2140053A008216846FFF7A8FF03B05DF804FB00BFBE
S2140053B0006A1800014B1022DA60704700A0004413
S2140053C0014B1022DA60704700A0004670B588B026
S2140053D00DF1040C374C0FCCACE80F0094E8070036
S2140053E08CE807000121344801F0BEF8334E012155
S2140053F0304601F0B9F801258DF81250304B039372
S214005400304C01A9204619F0BDF82B46042206218F
S214005410022002F045FB00232A460721022002F064
S2140054203FFB2B4604220821022002F039FB2B46C4
S21400543004221146002002F033FB234BA3670B2304
S21400544063674FF4487006F0B7FBFFF7B3FF14200E
S21400545006F0B2FBFFF7B4FF232006F0ADFBFFF724
S214005460A9FFB921204619F0D7F8FFF7A9FF0023B6
S2140054701A460621022002F013FB00231A460721D3
S214005480022002F00DFB2B4600220821022002F02B
S21400549007FB2B4600220421104602F001FB2046A3
S2140054A002F0AAFE0021A1676167304601F05CF8B1
S2140054B008B070BD6850020000350A0000520400B3
S2140054C000127A00000401400B0B000B08B500F038
S2140054D087F8124A0AE01068516850F8230041F82D
S2140054E02300013391688B42F5D30C320C4B9A4261
S2140054F001D20023F6E70B4A08E01168002041F8C5
S2140055002300013351688B42F7D30832064B9A4288
S21400551001D20023F6E7FCF70FFD00BF687C02000F
S214005520747C0200747C0200747C020000487047A1
S21400553000F04902114BD3F8943003F00703023B06
S214005540032B0DD8DFE803F0050F02080C4B186894
S2140055500BE00C4B186808E00B4B1868400804E09A
S214005560094B186801E04FF40040044BD3F80031B3
S214005570C3F304230133B0FBF3F0704700400E4042
S2140055806C200020702000206420002008B5FFF763
S214005590D1FF054BD3F80831C3F308230133B0FB22
S2140055A0F3F0024B186008BD00400E406820002053
S2140055B0014B1868704700BF7020002008B5064BE6
S2140055C01860064BD3F8943003F00703022B00D084
S2140055D008BDFFF7DBFFFBE77020002000400E4011
S2140055E0044B054A9A60D3F8882042F47002C3F848
S2140055F08820704700ED00E000000000014B1868AE
S214005600704700BF6C200020BFF34F8F0549CA6863
S21400561002F4E062044B1343CB60BFF34F8F00BF2E
S214005620FDE700BF00ED00E00400FA0508B5114BE9
S214005630D3F82828A2F17E63A3F58433B3F5104F80
S21400564011D211680C4B994210D10C4B1B781BB130
S214005650022B01D0002008E0D369984728B9074BF1
S21400566001221A7001E04FF4817008BD4FF481707A
S214005670FBE700BF0000E10F07B0CD5EB758002083
S21400568008B5104BD3F82828A2F17E63A3F584331F
S214005690B3F5104F10D211680B4B99420FD10B4B3C
S2140056A01B78012B01D0002008E0136A984728B920
S2140056B0064B02221A7001E04FF4817008BD4FF4C9
S2140056C08170FBE70000E10F07B0CD5EB758002001
S2140056D008B54FF0005340F202221A804FF20F0234
S2140056E05A80054A01239360136823F4E06343F469
S2140056F080631360FFF788FF00500E4008B50A4B22
S214005700D3F82828A2F17E63A3F58433B3F5104FAF
S21400571009D2126BA2F17E63A3F58433B3F5104F62
S21400572001D25368984708BD0000E10F08B50D4B3D
S214005730D3F82828A2F17E63A3F58433B3F5104F7F
S2140057400AD2126BA2F17E63A3F58433B3F5104F31
S21400575005D29368984701E04FF4817008BD4FF476
S2140057608170FBE70000E10F38B50D4CD4F82848EF
S214005770A4F17E6CACF5843CBCF5104F0AD2256BC8
S214005780A5F17E64A4F58434B4F5104F05D2EC6818
S214005790A04701E04FF4817038BD4FF48170FBE7FD
S2140057A00000E10F38B50D4CD4F82848A4F17E6C03
S2140057B0ACF5843CBCF5104F0AD2256BA5F17E648F
S2140057C0A4F58434B4F5104F05D22C69A04701E047
S2140057D04FF4817038BD4FF48170FBE70000E10F95
S2140057E008B50D4BD3F82828A2F17E63A3F58433C1
S2140057F0B3F5104F0AD2126BA2F17E63A3F5843381
S214005800B3F5104F05D25369984701E04FF4817005
S21400581008BD4FF48170FBE70000E10F00B583B0D0
S21400582001900F4BD3F82828A2F17E63A3F58433AA
S214005830B3F5104F0CD2126BA2F17E63A3F584333E
S214005840B3F5104F09D29369012101A8984701E0EA
S2140058504FF4817003B05DF804FB4FF48170F9E7F4
S2140058600000E10F10B50A4BD3F82848A4F17E6378
S214005870A3F58433B3F5104F04D2236B2BB15B6AC8
S214005880984701E04FF4017010BD4FF40170FBE73C
S2140058900000E10F08B50D4BD3F82828A2F17E636F
S2140058A0A3F58433B3F5104F0AD2126BA2F17E63D0
S2140058B0A3F58433B3F5104F05D2936A984701E0F9
S2140058C04FF4017008BD4FF40170FBE70000E10FD4
