S0160000637562657361745F52585F495753422E7333375A
S21400000000200020F14B0000D1D50100D1D5010021
S214000010CBEC0100D1D50100D1D50100D1D501002E
S214000020D1D50100D1D50100D1D50100D1D501002F
S214000030D1D50100A0440200D1D50100D1D50100E0
S214000040D1D501000D8F0100C5B70000D1D5010044
S2140000503D870100131C02000F1C02002D8F0100BB
S214000060071C020009590000715A0000D1D5010092
S214000070C1480000B1480000D1D50100D1D501002B
S214000080D1D50100D1D50100915A0000D1D501008B
S214000090D1D50100D1D50100D1D50100D1D50100BF
S2140000A0D1D50100D1D50100D1D50100D1D50100AF
S2140000B0618F01000B1C0200B1AC00009D8F010097
S2140000C0D1D50100C5720100D1D50100D1D50100FE
S2140000D0D1D50100D1D50100D1D50100D1D501007F
S2140000E0D1D50100D1D50100D1D50100D1D501006F
S2140000F0D1D50100D1D50100D1D50100D1D501005F
S214000100D1D50100D1D50100D1D5010000000000F5
S214000110013800D0FCE77047000000000000000037
S21400012001F0FF01102A2BDB10F0070F08D010F8A3
S214000130013B013A8B422DD010F0070F42B3F6D1A7
S214000140F0B441EA012141EA014122F007047FF0C0
S21400015000070023F0E80256083C85EA010586EA17
S214000160010685FA47F5A3FA87F586FA47F6A5FA53
S21400017087F68EB9EED1F0BC01F0FF0102F007025F
S21400018032B110F8013B013A83EA010313B1F8D10A
S2140001900020704701387047002D06BF35460338EB
S2140001A0073815F0010F07D1013015F4807F02BF24
S2140001B0013015F4C03F0130F0BC0138704700BF75
S2140001C02DE9F04F2DED028B91B082460C469346FA
S2140001D01D46DDE91C23104619461BF013FA0028BD
S2140001E000F007814FF0FF32B14BDDE91C011BF038
S2140001F031FA002840F0FD804FF0FF326FF4801394
S214000200DDE91C011BF008FA002840F0F28000220D
S2140002100023DDE91C011BF0FFF9002840F0FE80FA
S2140002209DED1C7B8DED067B209B13F480630F9366
S21400023001D106231E93DDE906010246C1F30A50EA
S214000240C1F31303904643F07F5949F44019A0F2D6
S214000250FF301AF005FF84A3D3E900231AF06AFFE3
S21400026083A3D3E900231AF0AFFD06460F4600220B
S214000270904B404649461AF0A5FD7FA3D3E90023DC
S2140002801AF058FF02460B46304639461AF09CFDD7
S2140002901BF0EAF906461AF0E3FE8046894678A384
S2140002A0D3E900231AF046FF0022834B1AF08CFD98
S2140002B01BF0DAF9074674A3D3E900234046494603
S2140002C01AF038FF8046894638461AF0C9FE70A3F1
S2140002D0D3E900231AF02EFF02460B464046494655
S2140002E01AF070FD8046894602460B461AF022FF39
S2140002F0CDE90A0107F2FF3700210022CDE90812F6
S2140003003B0509930023089342464B464046494620
S2140003101AF05AFDCDE90C0142464B4600204FF03C
S21400032080411AF04FFD804689460022634BDDE986
S2140003300A011BF029F80022614B1AF045FD02461F
S2140003400B46DDE90A011BF01FF800225D4B1AF090
S2140003503BFD02460B46DDE90A011BF015F8024696
S2140003600B46404649461AF02FFD02460B46DDE98D
S2140003700C011BF009F80022534B1AF025FDDDE9AD
S21400038008231AF0D7FE8046894649EC188BDDE92B
S21400039006231BF05FF940B1013E0022484B404661
S2140003A049461AF0F1FF41EC180B06F16303C62B21
S2140003B03FD80427209B13F4006F44D036A3D3E91C
S2140003C00023DDE90689404649461BF039F9002836
S2140003D03FD033A3D3E90023404649461BF01CF91F
S2140003E0002836D01E9BB34225DD9E1B731E1E932F
S2140003F023E0209B04931F9B03931E9B02939DED7B
S2140004001C7B8DED007B2B465A462146504600F05D
S214000410CFF811B0BDEC028BBDE8F08F9FED227BCC
S2140004208DED067B1C9B06931D9B03F100430793F3
S214000430FAE60527BEE700231E93209B43F480635D
S214000440209300273E461F9B9F423FD2A3EB070800
S2140004503EE01E9B002BF6D00F9B002BF3D01E9B7E
S214000460013B1E93EFE700BFFB799F501344D33F39
S214000470B3C8608B288AC63F61436F63A787D23FA5
S21400048071A379094F930A401655B5BBB16B02406C
S214000490EF39FAFE422EE63F2D431CEBE2361A3FBA
S2140004A00000000080842E410000000000000000D4
S2140004B0FFFFEF7F0000F83F0000E03F00002C4009
S2140004C000002440000018400000F03F4FF00008F5
S2140004D0209B13F0020902D00FB14FF000083EB186
S2140004E053EC182BDDE906011AF04EFFCDE90601A4
S2140004F000220023DDE91C011BF08EF800283DD108
S214000500209B23F400630493CDF80C801E9B02937B
S2140005109DED067B8DED007B2B465A4621465046C8
S21400052000F046F8002F3FF474AF209B13F0200F26
S2140005302CD04FF0450C00F101082B460246214610
S2140005406046D04786EAE672A2EBE672052305937C
S214000550013F0497002303930A230293F30F0193AA
S21400056000922B464246214650461FF02CFDB9F11C
S214000570000F3FF44EAF02461F9F10E0DDE9060174
S214000580024601F10043CDE90623B9E74FF0650CBA
S214000590D1E7561C2B4621462020D0473246A2EBF8
S2140005A00B03BB42F5D3104633E700BF0000000044
S2140005B02DE9F04F2DED028B95B007900A919246EB
S2140005C09B46DDE92089229D42464B4640464946E9
S2140005D01BF018F8002840D04FF0FF326FF480135D
S2140005E0404649461BF018F8002845D14FF0FF3228
S2140005F09F4B404649461BF02DF800284BD198A348
S214000600D3E90023404649461BF024F800285AD177
S21400061095A3D3E90023404649461AF0FDFF00287B
S21400062051D100220023404649461AF0F5FF002823
S21400063057D100230B93249B13F4806F5CD00024C7
S2140006401F2C5BD8092D59D904F150036B44302276
S21400065003F8202C013D0134F2E7249B0393239BEF
S214000660029303230193834B00935B4652460A99F9
S21400067007981FF0CEFB2CE1249B0393239B029349
S214000680042301937C4B00935B4652460A990798D5
S2140006901FF0BFFB1DE1249B13F004030FD0774A25
S2140006A07BB104232499039123990291019300922C
S2140006B05B4652460A9907981FF0ABFB09E1704A61
S2140006C0EEE70323EEE7249B0493239B0393029514
S2140006D0CDE900895B4652460A990798FFF770FDF8
S2140006E0F7E042464B46002000211AF06BFB80469E
S2140006F0894601230B939EE70625A0E74046494618
S2140007001AF0B2FF06461AF0ABFC02460B4640460D
S21400071049461AF057FB5B4B03EBC50393ED008B82
S21400072053EC182B1AF006FD02460B46CDE90823BB
S2140007301AF0C2FF07461AF083FC02460B46DDE9B4
S21400074008011AF03FFB02460B46CDE908230022BB
S2140007504D4B1AF07FFF50B3013738461AF070FC45
S21400076002460B4651EC180B1AF060FF08B1013632
S214000770002755BB30461AF073FC02460B4640462F
S21400078049461AF01FFB0746884600223E4B1AF0E1
S21400079043FF38B100223C4B384641461AF05AFF18
S2140007A0002842D016F0010F3FD001363DE000226F
S2140007B0354BDDE908011AF02FFF0028D9D117B113
S2140007C017F0010FD5D00137D3E71F2C17D8013DFE
S2140007D02E4BA3FB0723DB08194603EB8303A7EB8B
S2140007E04303621C303304F150000DEB000404F8A0
S2140007F0203C092F02D90F461446E6E714461F2C64
S2140008000AD86B1E45B104F150026A44302102F842
S214000810201C1D460134F2E71F2C06D804F15003B5
S2140008206B442E2203F8202C01341F2C33D8184A90
S21400083082FB0632F317C3EBA2031A4603EB8303CD
S214000840A6EB4303611C303304F150000DEB0004AB
S21400085004F8203C1646EAB10C46E6E7AFF3008003
S2140008600000000065CDCD410000000065CDCDC183
S214000870FFFFEF7FD44B0200D84B0200C84B0200AC
S214000880D04B0200E04B02000000E03FCDCCCCCCC9
S214000890676666660C46249B03F00303012B1DD097
S2140008A01F2C09D80B9B002B35D004F150036B444A
S2140008B02D2203F8202C0134249B0393239B0293C0
S2140008C001940CAB00935B4652460A9907981FF0BA
S2140008D0A0FA15B0BDEC028BBDE8F08F239BB3B138
S2140008E00B9B1BB9249B13F00C0F12D0239B013BD0
S2140008F02393194606E004F150036B44302203F8B4
S214000900202C01348C42CBD21F2CF4D9C8E7239973
S214000910F8E72399F6E7249B13F0040F07D004F1B9
S21400092050036B442B2203F8202C0134C4E7249B8D
S21400093013F0080FC0D004F150036B44202203F8D4
S214000940202C0134B8E700BF7FB54E6802A90446E4
S21400095020F044FE9DF808300E2B19D1134BB3F946
S2140009600050134B9E4218D807F04EF90346006815
S21400097000909B88ADF804306946204620F01BFEA8
S21400098070B10C490C4840F21C620BF045FFFEE7C4
S214000990204613F08FFF0546E3E707F031F9E5E759
S2140009A02946204620F01CFE04B070BD6C4E002088
S2140009B0FFC99A3B2D4F0200544C020038B504463E
S2140009C00D461CF01CFF064A13889BB22DB123432C
S2140009D01380BDE838401CF018BF23EA0403F7E78D
S2140009E0D8480020034B002201214FF480709A70F3
S2140009F0E4E700BFD84800207FB50023134C0393DC
S214000A00CDE90133FF238DF804301CF0F8FE228870
S214000A1063880F4E9A4205460DD061887068218023
S214000A2001AA13F035FD58B10A490B4840F2976207
S214000A300BF0F2FEFEE7706820F07FFC0128ECD099
S214000A4028461CF0E2FE04B070BD00BFE020002087
S214000A50D84800202D4F0200544C020038B50F4CE9
S214000A60A56835B90E490F4840F27C720BF0D4FEEB
S214000A70FEE71FF07DFB28440FF040FB00F0070068
S214000A80032809D1A468092120461FF08DFC205CAC
S214000A90031F5842584138BD0020FCE7D8480020C4
S214000AA02D4F0200544C020010B5114CA378042BB5
S214000AB006D01049104840F244520BF0ADFEFEE757
S214000AC023881B0706D40B490B4840F245520BF00F
S214000AD0A3FEFEE700210820FFF770FF074B6068C3
S214000AE002221A7113F0A2FCBDE810401EF00ABBE9
S214000AF0D84800202D4F0200544C0200E020002071
S214000B0010B5084C606813F091FC606820F015FC86
S214000B10012806D0012260681146BDE8104020F08A
S214000B200EBC10BDD848002038B5194DAB7833B18F
S214000B30184919484FF4DC620BF06EFEFEE71CF015
S214000B405EFE298811F00601044609D001214FF403
S214000B508070FFF733FF2046BDE838401CF055BED6
S214000B604FF48070FFF72AFF11F036F8012805D001
S214000B7010F0FD0F05D1FFF73FFFECE7FFF7C0FFD2
S214000B80E9E70449044840F2F6620BF045FEFEE74A
S214000B90D84800202D4F0200544C020070B5074D77
S214000BA095F90C600446FFF7BFFF10F015FFAA6822
S214000BB031462046BDE8704010F04CBDD8480020B5
S214000BC008B50A4B1B88DB0606D40949094840F2DB
S214000BD069520BF021FEFEE700211020FFF7EEFE23
S214000BE011F076F8BDE808401EF08CBAD848002010
S214000BF02D4F0200544C02000D4B1B889B0710B56E
S214000C00044613D500210220FFF7D8FE094B5A7977
S214000C10FF2A06D00849094840F29A420BF0FCFD2C
S214000C20FEE75C71BDE810401EF06CBA10BD00BF58
S214000C30D8480020E02000202D4F0200544C02002F
S214000C407047704710B50E4CA37833B10D490E4867
S214000C5040F2C5120BF0E0FDFEE7A06019B1A17CE2
S214000C60003918BF01212020FFF7A8FE074B0848CF
S214000C709B7923770223A370BDE810400EF0A8B836
S214000C80D84800202D4F0200544C0200E0200020DF
S214000C90F848002008B50EF09DFE80F00100C0B2B6
S214000CA008BD0A4B9A780AB1062A0CD11B8803F4B1
S214000CB08B7343B9064B5A79FF2A04D11879FF384B
S214000CC018BF012070470120704700BFD848002099
S214000CD0E020002008B50EF06DFE0028FBD108BD10
S214000CE00C4B42881A8242789A740278DA748288A8
S214000CF09A82C288DA82C2689A61074A017A91713A
S214000D00028A198D914204D001214FF400701A8591
S214000D1054E67047D8480020E0200020094B1A8A85
S214000D2042809A7C4270DA7C02709A8A8280DA8AE2
S214000D30C2809A69C260044A1B8D9279027203824D
S214000D40704700BFD8480020E02000204B1E012B33
S214000D5070B50C4606D91B491B484FF42A720BF097
S214000D605BFDFEE7194D0A460146686820F04CFD1B
S214000D7030B11449144840F2AA220BF04DFDFEE7AC
S214000D806E680DF099FF22460146304620F036FD8B
S214000D9030B10C490C4840F2AE220BF03DFDFEE7A8
S214000DA06D680DF095FF22460146284620F032FD7C
S214000DB030B10449044840F2B2220BF02DFDFEE7A4
S214000DC070BD00BF2D4F0200544C0200D8480020D2
S214000DD0054BDB791B0913F00E0003D0052B8CBFE7
S214000DE000200120704700BFE0200020044BDB7984
S214000DF01B0913F00E0F0CBF01200020704700BF28
S214000E00E02000202DE9F04F16469A0591B0814665
S214000E101F4603D501218020FFF7D0FDF3014FF0D8
S214000E20000852D59A4C23889D074ED5994D6B796C
S214000E30FF2B06D09849994840F266420BF0ECFC2E
S214000E40FEE7A36833B99449944840F267420BF032
S214000E50E3FCFEE741460220FFF7B0FDA37885F8E5
S214000E600580042B03D101210820FFF7A7FD8C4A3B
S214000E706068002120F0D3FB30B18749874840F2F4
S214000E8071420BF0C9FCFEE7FFF7A2FFA8B9D4F841
S214000E9004801FF06DF90546A0681FF074F9291844
S214000EA07F4A89B2404620F0CBFB30B17A497B4876
S214000EB040F277420BF0B0FCFEE7A378032B02D19A
S214000EC0606813F0B3FA1EF01DF9B80702D50120CA
S214000ED0FFF792FE16F0A84F02D00220FFF78CFE16
S214000EE0B10220D50021402005ACFFF767FD214662
S214000EF0484620F0B5FCB0B99DF81C30022B0AAA73
S214000F0022D18DF83030BDF81430ADF828301046B8
S214000F1010F06AFD38B1484620F0A0FC18B901214F
S214000F204020FFF74BFD320752D5594D05AA686899
S214000F30032120F034FC804688B95749574840F2D0
S214000F40B3420BF069FCFEE7032B05BFD4E90001B2
S214000F508DF830308DF83000C2E90001D7E79DF8F3
S214000F6014306868072B40F022810AAA414620F018
S214000F701AFC824630B14849484840F2B6420BF067
S214000F804BFCFEE7FFF724FFBDF8161090B9FFF7FD
S214000F902DFF68B10431686889B20AAA20F005FC02
S214000FA040B13D493D4840F2C7420BF035FCFEE7F4
S214000FB00231F0E7BDF816000730012180B20EF0CE
S214000FC053FC039000284AD101210C2011F04AFC62
S214000FD0B10705D52E4B1B881A0701D5FFF764FD10
S214000FE0B3010AD500210420FFF7E8FC284B9A78C5
S214000FF0012A02D1586813F019FA16F0284F03D0C8
S21400100000210420FFF7DAFC7E060CD5204C23884E
S2140010101D0701D5FFF748FD2388580703D5002193
S2140010200420FFF7CBFCF90540F1CF80484620F0BE
S21400103082F9022802D0032840F0C080144C23888E
S2140010405A0703D500210420FFF7B8FC23889B0726
S21400105040F1BB80012011B0BDE8F04FCCE50EF0AA
S214001060D9FA4FF0000BCDF800B0BDF816300246A6
S21400107004464146686820F0B2FBBDF8163083424D
S21400108010D0054905484FF49B620BF0C5FBFEE700
S214001090D8480020E02000202D4F0200544C0200CB
S2140010A0044900201FF064F820440FF027F800F0F1
S2140010B00700022823D1AB78042B89D11FF058F8FB
S2140010C0434B20441B7882789A4281D159460820A7
S2140010D0FFF774FC1FF04CF820440FF00FF83D4B60
S2140010E0C0F3001018719DF836302B73FFF7B6FC6E
S2140010F000287FF46DAF686813F098F968E71FF072
S21400110037F820440EF0FAFF830649D51FF030F872
S21400111020440EF0F3FF00F00700032828D001213A
S2140011200420FFF74BFC20F064FB2863BDF8163064
S2140011309DF83620E254BDF816309DF8372023443B
S21400114001209A71BDF816100A9A013121440EF05A
S214001150E3FFBDF8163003981C4484F805A00EF093
S21400116017FC1D4B18780DF039FF1DF0CBFF2FE74D
S214001170092120461FF018F9205C04284FF00101D1
S214001180CED1FFF71BFC20F034FB28632B885806D3
S214001190CCD559464020FFF711FC4FF0010AC5E7B1
S2140011A0AB78012BC2D1686813F040F9BEE720F097
S2140011B0F0FA6868414620F00FFB09E7074908483F
S2140011C040F2B5520BF028FBFEE711B0BDE8F08FF9
S2140011D045490020E0200020484800202D4F02000E
S2140011E0544C020008B50246FFF7F2FD30B1072A5C
S2140011F006D8044B002083F8342008BD7020FCE796
S2140012000220FAE7D848002008B50246FFF7E0FDBE
S21400121028B1044B93F834301370002008BD7020BA
S214001220FCE700BFD848002008B5074B014600225F
S214001230586820F0E9FA30B1044905484FF437728F
S2140012400BF0EAFAFEE708BDD84800202D4F020052
S214001250544C020008B5074B01460022586820F09F
S214001260CDFA30B10449054840F2E2220BF0D4FA38
S214001270FEE708BDD84800202D4F0200544C02005F
S21400128008B5074B0146586820F0CAFA30B1054940
S21400129005484FF43A720BF0BFFAFEE708BD00BFF0
S2140012A0D84800202D4F0200544C020008B5064BCB
S2140012B09B7833B10549064840F2F2220BF0ACFAAF
S2140012C0FEE7BDE808402FE4D84800202D4F020076
S2140012D0544C020008B5044B0146586820F080F9CB
S2140012E0002818BF8B2008BDD8480020014B58683E
S2140012F013F0E0BAD8480020014B5888704700BF6A
S214001300E02000207FB50123ADF80E3009484FF6E7
S214001310FE7300930DF10E02002304A9406820F02E
S214001320DEF8012894BFBDF810004FF6FF7007B036
S2140013305DF804FBD848002008B5044B0146586801
S21400134020F053F8B0FA80F0400908BDD8480020D5
S21400135038B50B4DAB78012B04460DD8FFF7ECFFE4
S21400136060B1084B5C80AB781BB9FFF7DDFB002053
S21400137038BDFFF741FBFAE73E20F9E78A20F7E79A
S214001380D8480020E0200020024B9B780BB9FFF7DE
S214001390CBBB7047D8480020014BD874704700BFBD
S2140013A0D848002008B5054B012158681FF0EAFF11
S2140013B00028B8BF033040F3870008BDD848002097
S2140013C008B5044B586820F00CF8034BB3FBF0F05C
S2140013D080B208BDD848002040420F0030B58DB01E
S2140013E02C220446002101A820F082FF0123264D6E
S2140013F08DF808304FF002326423CDE903230693BC
S2140014000B238DF82C302B8DADF80A30FFF7E0FC5F
S214001410A0B140F2F23307934FF47A7305930CB9F8
S214001420FFF76EFB686801A913F018FBB8B11749FF
S214001430174840F269620BF0EFF9FEE7FFF7C0FFCE
S2140014400C234343902BA3F10A0207930592DCBFBB
S21400145091230793059B8B2BE1D88C23DEE7FFF7C0
S214001460C5FC60B101226868114620F0E7F930B18A
S2140014700649074840F26C620BF0CEF9FEE70CB95D
S214001480FFF752FB0DB030BDD84800202D4F0200AC
S214001490544C0200F8B5574C1CF0B1F92388D90516
S2140014A0064603D5A37843BBFFF73EFB524D6B7948
S2140014B0FF2B13D06B7903F0FF0723BBFF236B7161
S2140014C0A378032B0AD100233046A3701CF09DF9A5
S2140014D03846FFF763FB1CF092F90646A378042B08
S2140014E008D12B79FF2B05D02B79022B14D143483A
S2140014F00DF06EFCFF232B7128E000214FF4807066
S214001500FFF75CFAD2E76B79012B4FF0FF036B71A4
S21400151014BF89278D27D6E72B7913B12B79012B9A
S2140015201FD1FFF79BFA2B790022FF212971DBB22E
S21400153084F820200546002848D0012B0AD12F48E1
S214001540A37064210DF04FFCFFF756FA30461CF0EE
S2140015505CF906E03046A2701CF057F93120FFF720
S2140015601DFB23881A0608D500218020FFF726FADF
S214001570606820F0A8F810F08CFB23889B0507D540
S2140015804FF400700021FFF719FA0020FFF726FF3E
S2140015900EF010FAE08628B30EF03CF8012105465E
S2140015A0002011F05FF9A678012E15D1002684F8E8
S2140015B02060A670FFF7B8FA28460FF085FFA378DC
S2140015C0E6867BB9BDE8F84010F006BAA070304653
S2140015D01CF01BF92846C2E72EB128460FF074FF10
S2140015E00023E386F8BDFFF79FFA28460FF06CFF4E
S2140015F0E686F7E7D8480020E0200020F8480020DC
S2140016007FB5794C2388DB0700F1E7800121774D11
S2140016100846FFF7D3F905237549A37005F10800BE
S21400162012F0D6FE606028B972497348F3220BF0B8
S214001630F3F8FEE771481FF0C1FE69A3D3E9002363
S214001640CDE900234FF0FF324FF0FF3360681FF004
S21400165044FF4FF48811606813F08AF9014630B1F0
S2140016606449654840F20B120BF0D6F8FEE7644B6F
S2140016701B78012B0ED1634A606813F005F9606889
S21400168013F01AFAE0B15B495B4840F217120BF010
S214001690C3F8FEE75C4E316831B9564956484FF4F8
S2140016A08D720BF0B9F8FEE7564A606813F0ECF856
S2140016B033689B6823B1DB6913B15B7803B1EB71C8
S2140016C0FFF720FE514B68801B78C3EB431203EBF9
S2140016D08203DB0001202385FFF780FE65680DF09E
S2140016E0F7FA00220146284620F094F8054630B165
S2140016F04049414840F22D120BF08EF8FEE740F2CA
S21400170003532382424B04261B78E374A674FFF728
S21400171057FE00EB80039B00A382FFF751FEC0003C
S214001720E08231466068A5611FF059FE30B131494C
S21400173031484FF49E720BF06FF8FEE76068324651
S21400174003A91FF0F2FE042806D02A492A484FF4BF
S214001750A0720BF061F8FEE703A901200EF0EAFC88
S2140017600AF054F8606808224FF0FF311FF0BFFE01
S21400177030B12049204840F249120BF04DF8FEE700
S21400178013F008FB30B11B491B4840F24F120BF018
S21400179043F8FEE7FFF71CFB68B11CF046FA01466B
S2140017A060681FF008FF30B11249134840F2531228
S2140017B00BF032F8FEE76468FFF7A4FD154B014610
S2140017C003F10C02204612F071FE30B109490A48B6
S2140017D04FF4AD720BF020F8FEE704B070BD00BF0A
S2140017E00A0020FF42030000D8480020E020002026
S2140017F0E50900002D4F0200544C0200690345EC39
S2140018002A4900204909000018200020E321002072
S214001810E2210020584F020008B5044B58681FF01C
S214001820E2FD034BB3FBF0F080B208BDD8480020C1
S21400183040420F002DE9F043864D2B889B0787B06A
S21400184006D48549854840F201720AF0E5FFFEE7B6
S214001850AB78033B012B06D97F49804840F20372E0
S2140018600AF0DAFFFEE7AA6832B97B497B4840F205
S21400187006720AF0D1FFFEE7794E2C88F77914F04D
S214001880200418BF4FF47A744FEA1718FFF7A0FA2F
S214001890002872D0B8F1020F0AD0A8F10303022B79
S2140018A069D96D496D4840F21A720AF0B5FFFEE735
S2140018B0032795F8343008EBC8089844694B03EBC7
S2140018C048031046B3F81C801EF05DFC4FF4FA5334
S2140018D043437822B3FBF8F37733B3FBF2F31F44AA
S2140018E0C7EB0717AB78FF00BFB204F5347417FADE
S2140018F084F4042BA4B203D107F6E8072744BCB24D
S214001900D5F808801EF034FC0746A8681EF03BFC9D
S21400191007441EF053FCBFB23F1A1EF029FC404499
S2140019200EF0ECFB64238DF80C304F4BD5F804908A
S214001930CDE90434C0F340141EF04CFCBFB203469D
S21400194041463A4648461FF026FF2B88718831806C
S21400195013F0200F03AB75D000936868434B224604
S21400196012F07AFD002872D03B493C4840F2D9621A
S2140019700AF052FFFEE706279BE7FFF737FA002834
S21400198044D0384B07F00F0708EBC801394403EB87
S21400199041031046B3F81C901EF0F5FBB8F1000F9B
S2140019A02AD0B8F1010F2AD1400080B24FF00408C7
S2140019B0F3191B7E4BB10233034443449BB24FF4EE
S2140019C0FA525343B3FBF9F39CB2AB78042B97D18E
S2140019D03744FFF7F5FC3B7E053398448146FFF716
S2140019E01BFF0C2308FB00F003FB09F909EBC009F9
S2140019F0A1441FFA89F483E74FF00208D8E7164996
S214001A00164840F23B720AF007FFFEE7FFF704FFB6
S214001A100746A8681EF0B7FBAB780930784304EB9E
S214001A20C000042B84B27FF46BAFFFF7C9FC0746F7
S214001A30FFF7F2FE602358430C2303FB0700204405
S214001A4084B25DE76868224612F0F8FC8AE707B0C1
S214001A50BDE8F083D84800202D4F0200544C020009
S214001A60E0200020584F020020A10700E848002090
S214001A70F8B5484C258815F0020506D04649474873
S214001A804FF4B3720AF0C8FEFEE784F820501BF04D
S214001A90B6FE23885A0706460AD51FF0AAFE236B11
S214001AA0C01A238D984203D929460420FEF786FFE4
S214001AB030461BF0AAFEA778022F37D11BF09FFEF8
S214001AC0238813F00405064607D035480DF080F944
S214001AD03046BDE8F8401BF098BE1BF096FEA068A6
S214001AE00FF0B2FF20B1A570BDE8F840FFF756B87A
S214001AF01BF085FEA66805461EF03AFB30440EF045
S214001B00FDFA10F0200F0CBF0323042301213846F2
S214001B10A370FEF753FFFFF78DFE28461BF075FEF9
S214001B2001210846BDE8F84010F09CBE042F27D1DE
S214001B301C4B1B79FF2B2CD1237FF3B11BF05FFED0
S214001B4023885B07054604D515480DF041F928465D
S214001B50BFE71BF05AFE237F013B23771BF04FFEA7
S214001B60012104460220FEF729FFFFF763FE204608
S214001B701BF04BFE01210820D4E7A3704020B3E7FA
S214001B80012F06D160680023A37012F04FFC3120AD
S214001B90AAE7F8BDD84800202D4F0200544C02009A
S214001BA0F8480020E020002038B501210446102027
S214001BB0FEF704FF064B5D68FFF702FC054B00FBD3
S214001BC004F1012228461FF0BEFB002038BD00BFEE
S214001BD0D8480020C10B000010B50A4C2388DB064D
S214001BE006D40949094840F275320AF015FEFEE7A8
S214001BF010200021FEF7E2FE6068BDE810401FF0EE
S214001C00B0BB00BFD84800202D4F0200544C020045
S214001C1038B50D4DE88E30B90C490D4840F2823289
S214001C200AF0FAFDFEE70DF0F5FC0446E88E0DF02E
S214001C300DFD811F214401200EF07CFA04461FF0A2
S214001C40D8FD001B38BD00BFD84800202D4F02002D
S214001C50544C020010B5074CA36833B90649074830
S214001C6040F291320AF0D8FDFEE71FF0C2FDE36AAB
S214001C70C01A10BDD84800202D4F0200544C020058
S214001C8038B50A4DE88E30B909490A4840F29B3209
S214001C900AF0C2FDFEE70DF0BDFC0446E88E0DF02E
S214001CA0D5FC044414F8020C38BD00BFD848002008
S214001CB02D4F0200544C020038B50A4DE88E30B95C
S214001CC009490A4840F2AA320AF0A6FDFEE70DF0DE
S214001CD0A1FC0446E88E0DF0B9FC044414F9070C88
S214001CE038BD00BFD84800202D4F0200544C0200DB
S214001CF038B50A4DE88E30B909490A4840F2B9327B
S214001D000AF08AFDFEE70DF085FC0446E88E0DF02D
S214001D109DFC044414F9010C38BD00BFD8480020CF
S214001D202D4F0200544C0200024B1888C0F3C0101E
S214001D30704700BFD848002030B50F4B05460FCB84
S214001D4085B06C4684E80F000DB12B6800930B4BF2
S214001D5021465868002212F0C3FD044630B10849F7
S214001D60084840F2D7320AF057FDFEE7FEF744FE79
S214001D70204605B030BD00BFE04F0200D848002026
S214001D802D4F0200544C020008B5074B0146586818
S214001D901FF09BFC30B10549054840F2E5320AF0D9
S214001DA03BFDFEE708BD00BFD84800202D4F0200CF
S214001DB0544C020008B5064B58681FF09DFC30B125
S214001DC0044905484FF47C720AF026FDFEE708BD7C
S214001DD0D84800202D4F0200544C0200024B01222E
S214001DE0586811461FF0ABBAD84800207047F8B5BF
S214001DF0054604200C461EF09DF903061DD5104E20
S214001E00B778D7B91DB1012D02D00220F8BD012741
S214001E102046FFF791FA0028F7D070683A46214628
S214001E201FF0A6FA30B1074907484FF486620AF059
S214001E30F3FCFEE70623B370E8E77020E6E700BF92
S214001E40D84800202D4F0200544C020010B5042044
S214001E501EF070F9030610D5094CA378062B0CD19A
S214001E6060681FF088FA30B10649074840F24942D8
S214001E700AF0D2FCFEE7A07010BD7020FCE700BFA1
S214001E80D84800202D4F0200544C020008B50349E4
S214001E90034840F261520AF0BFFCFEE72D4F0200F5
S214001EA0544C02000348044B834202D0034B03B158
S214001EB01847704710220020102200200000000063
S214001EC00548064B1B1AD90F01EBA301491002D097
S214001ED0034B03B118477047102200201022002041
S214001EE00000000010B5064C237843B9FFF7DAFF70
S214001EF0044B13B10448AFF300800123237010BDD8
S214001F001C4F0020000000006870020008B5054B5A
S214001F101BB105490548AFF30080BDE80840FFF750
S214001F20CFBF00BF00000000402400206870020001
S214001F30A3F5803A704700BF174B002B08BF134B22
S214001F409D46FFF7F5FF00218B460F461348144ABF
S214001F50121A20F0CDF90E4B002B00D098470D4BEF
S214001F60002B00D098470020002104000D000D48EB
S214001F70002802D00C48AFF3008019F0E9FE2000DC
S214001F8029001BF003FA19F02FFD00BF000008001F
S214001F9000000000000000000020002010220020AA
S214001FA0884F00200000000000000000BFF34F8FA5
S214001FB00549CA6802F4E062044B1343CB60BFF3E2
S214001FC04F8F00BFFDE700BF00ED00E00400FA05FC
S214001FD038B504461DF0D5F9A04201D8012038BD19
S214001FE00546032002F084FC08B90020F7E71BF042
S214001FF09DFA1BF09CFA2B462246034903480068CC
S2140020001CF0C9FBF1E700BF80270200C0280020B3
S21400201030B583B004468368C26853F822301D7812
S2140020202846FFF7D5FF08B903B030BD002300935C
S214002030ADF80430164B1B88ADF80230ADF80450EE
S2140020406368E2689B1A012B1DDDA368013253F812
S21400205022301B88ADF800301DF083F96946032056
S2140020601DF083F90446032002F042FC0028DBD072
S2140020701BF05CFA1BF05BFA22460649064B186812
S2140020801CF089FBD0E740F2FF13ADF80030E3E721
S214002090564E0020B8270200C028002030B583B076
S2140020A004468368C26853F822301D782846FFF736
S2140020B08FFF08B903B030BD00230093ADF804309D
S2140020C0154B1B88ADF80230ADF804506368E26823
S2140020D09B1A012B1BDDA368013253F822301B88A4
S2140020E0ADF80030694604201DF03FF90446032091
S2140020F002F0FEFB0028DDD01BF018FA1BF017FAE2
S21400210022460649064B18681CF045FBD2E740F20B
S214002110FF13ADF80030E5E7564E0020D827020042
S214002120C028002030B583B004468368C26853F8E0
S21400213022301D782846FFF74BFF08B903B030BDA4
S21400214000230093ADF80430154B1B88ADF8023021
S214002150ADF804506368E2689B1A012B1BDDA36888
S214002160013253F822301B88ADF800306946022051
S2140021701DF0FBF80446032002F0BAFB0028DDD071
S2140021801BF0D4F91BF0D3F922460649064B186813
S2140021901CF001FBD2E740F2FF13ADF80030E5E794
S2140021A0564E0020EC270200C028002030B583B031
S2140021B08368C26853F822301C7800230193436872
S2140021C09B1A012B19DD01AA01211BF0CAFD01464D
S2140021D09DF804001DF0C1F8054680B1022002F00B
S2140021E087FB60B11BF0A2F91BF0A1F92A460F4944
S2140021F00F4B18681CF0CFFA01E01DF0B2F820462D
S2140022001DF0B7F8044608B903B030BD032002F04D
S2140022106FFB0028F8D01BF089F91BF088F92246DE
S2140022200449034B18681CF0B6FAEDE708280200CC
S214002230C0280020202802002DE9F04182B01DF0C1
S21400224055F80546854B1B7813F0020F3ED0844E9A
S21400225013F0010F3CD0824F13F0040F3AD0DFF892
S2140022600082032002F044FB002836D1032002F04F
S2140022703FFB00283BD1032002F03AFB002845D163
S214002280032002F035FB00284ED1032002F030FB7D
S214002290002857D1032002F02BFB002860D1032032
S2140022A002F026FB002869D1032002F021FB00285B
S2140022B072D1032002F01CFB00287BD1032002F021
S2140022C017FB002840F08780082490E0654EBFE7A3
S2140022D0644FC1E7DFF88C81C3E71BF027F91BF0DA
S2140022E026F96149614B18681CF055FABEE71BF0E9
S2140022F01DF91BF01CF95D4B1C6805F0ADFA024693
S2140023000B465B4920461CF046FAB4E71BF00EF974
S2140023101BF00DF9554B1C681CF0BCFF02465549D6
S21400232020461CF038FAABE71BF000F91BF0FFF86C
S2140023304E4B1C681CF0E6FF02464F4920461CF038
S2140023402AFAA2E71BF0F2F81BF0F1F8474B1C68DC
S2140023501CF0D0FF0246494920461CF01CFA99E7BB
S2140023601BF0E4F81BF0E3F8404B1C681CF0C6FFBB
S2140023700246434920461CF00EFA90E71BF0D6F8BA
S2140023801BF0D5F8394B1C681CF09CFF02463D49F3
S21400239020461CF000FA87E71BF0C8F81BF0C7F8C9
S2140023A0324B1C681CF096FF0246374920461CF04C
S2140023B0F2F97EE71BF0BAF81BF0B9F82B4B186859
S2140023C0324B1A78FF2A04D0314B32491CF0E3F91D
S2140023D074E7314BF9E71BF0A9F81BF0A8F82F4972
S2140023E0224B18681CF0D7F96EE7013CE4B28CB1BA
S2140023F0032002F07DFA0028F7D01BF097F81BF0B8
S21400240096F82B1913F8012C2549184B18681CF060
S214002410C2F9EAE7032002F06BFA30B9032002F0B3
S21400242067FA60B902B0BDE8F0811BF07FF81BF0D8
S2140024307EF81C490D4B18681CF0ADF9EEE71BF052
S21400244075F81BF074F8CDF800803B463246164906
S214002450064800681CF09FF9E4E700BFD72100207B
S2140024603C280200442802006C280200C0280020F5
S2140024707428020090280200AC280200C828020037
S214002480E42802000029020018290200D6210020B4
S2140024906428020030290200502802004829020061
S2140024A05C290200AC4A02006429020030B583B001
S2140024B08368C26853F822301C7801A920461CF0B5
S2140024C0F9FE88B9032002F013FA08B903B030BD4C
S2140024D01BF02CF81BF02BF8019B22460B490C48EE
S2140024E000681CF058F9F1E70546012002F000FAF2
S2140024F00028EBD01BF01AF81BF019F82A460549FD
S214002500034B18681CF047F9E0E700BF9C2902005F
S214002510C0280020B829020070B58268C36852F847
S21400252023100C78013352F823301D7829462046B4
S2140025301CF00FFF80B9032002F0DAF900B970BD75
S2140025401AF0F4FF1AF0F3FF2B4622460B490C480C
S21400255000681CF020F9F2E70646012002F0C8F9F0
S2140025600028ECD01AF0E2FF1AF0E1FF32460549E7
S214002570034B18681CF00FF9E1E700BFDC290200E6
S214002580C02800200C2A020008B5022002F0B0F98C
S21400259010B91CF0F2FE08BD1AF0C8FF1AF0C7FF0B
S2140025A00249034B18681CF0F6F8F2E73C2A0200D2
S2140025B0C028002000B583B08368C26853F8223074
S2140025C01A78144B1A70032002F092F910B903B06F
S2140025D05DF804FB1AF0AAFF1AF0A9FF0E4B186864
S2140025E00C4B197811F0020F0DD00C4A11F0010FA8
S2140025F00BD00A4B11F0040F09D008490091084986
S2140026001CF0C9F8E3E7074AF0E7064BF2E705498E
S214002610F4E700BFD7210020C02800203C28020095
S214002620802A02004428020008B58368C26853F86E
S21400263022301A88094B1A80032002F059F900B993
S21400264008BD1AF073FF1AF072FF044B1A8804498B
S214002650044B18681CF09FF8F2E700BFA02100208A
S214002660B42A0200C028002008B50A4B186810B12A
S2140026700CF0AEFB08BD012002F03AF90028F9D0B4
S2140026801AF054FF1AF053FF0349044B18681CF065
S21400269082F8EFE7E8240020D02A0200C0280020B5
S2140026A010B503468168C26851F82200B0F90000F0
S2140026B01A4C20805B689B1A012B0FDD013251F803
S2140026C0223093F90010003918BF01211CF0FEFDDE
S2140026D0A0B9032002F00CF910B910BD0021F5E7EF
S2140026E01AF024FF1AF023FF0D4B1C681CF0F2FDB5
S2140026F002460C4920461CF04EF8EEE7012002F098
S214002700F7F80028E9D01AF011FF1AF010FF064972
S214002710034B18681CF03FF8DFE700BF564E00205A
S214002720C0280020F82A02000C2B020030B595B015
S21400273004460D4668461AF09BFD0DF12C0EEC463D
S214002740BCE80F00AEE80F00BCE80F00AEE80F00D4
S214002750DCF80030CEF800300BA94D4B18681DF0A1
S2140027605CF810F1880F54D00BA81DF0E4F8484B25
S21400277018681DF03AF868461AF07AFD0DF12C0E2E
S214002780EC46BCE80F00AEE80F00BCE80F00AEE871
S2140027900F00DCF80030CEF800304FF410510BA8D4
S2140027A01AF086FD8023ADF82E304FF440730A935E
S2140027B00AA81AF06EFD0A9B0E93364B0F93344B05
S2140027C01A680C9B0D9213F0FF0F04D123F0FF0341
S2140027D043F001030C9301230C932D4B2A4621460C
S2140027E00BA81DF03DF804460BA81DF0A4F804BB8A
S2140027F0032002F07DF880B9254B18681CF052FDC6
S214002800054680BB032002F073F8044608BB01248B
S2140028102EE00BA81DF08FF8ADE71AF087FE1AF031
S21400282086FE1B4B1A681C491C4B18681BF0B3FF2E
S214002830E2E7032002F05CF80028DDD01AF076FE0E
S2140028401AF075FE22461649144B18681BF0A3FFB3
S214002850D2E71AF06BFE1AF06AFE12490F4B1868A0
S2140028601BF099FF04E0032002F042F8044610B97A
S214002870204615B030BD1AF059FE1AF058FE2A460A
S2140028800949064B18681BF086FF0024F0E700BFD6
S2140028905824002000444004242B0200C0280020B6
S2140028A0542B0200782B0200982B020000B583B050
S2140028B00021019101AA1BF054FA019910290ED0AB
S2140028C0032002F015F860B11AF030FE1AF02FFE61
S2140028D010220549054B18681BF05DFF01E0FFF765
S2140028E025FF03B05DF804FBB82B0200C0280020CB
S2140028F008B51CF0DBFC032001F0FAFF00B908BDA8
S2140029001AF014FE1AF013FE0249034B18681BF067
S21400291042FFF4E7E02B0200C028002010B582B08A
S2140029200023019304230DEB0302012121480068D4
S21400293011F000FA28B9019BCBB1042B19D900235A
S21400294000E000231BB19DF80430042B22D00423A2
S21400295000936A4601211748006811F0A1F9044661
S214002960032001F0C5FF30B9042002B010BD0023DB
S214002970E8E70123E6E71AF0D9FD1AF0D8FD0E4B7A
S21400298018682CB90D4B04220D491BF004FFEBE729
S2140029900C4BF8E7032001F0ABFF0028E4D01AF058
S2140029A0C5FD1AF0C4FD04220749034B18681BF046
S2140029B0F2FED9E798200020C0280020002C020054
S2140029C0182C0200082C0200482C020008B51CF047
S2140029D0D4FC0C4808F082FC00230B4A13700B4A08
S2140029E01370032001F084FF10B901F07FF908BDD1
S2140029F01AF09CFD1AF09BFD0549064B18681BF063
S214002A00CAFEF2E7A08601001E4F00201D4F0020E0
S214002A10742C0200C028002010B582B06946002041
S214002A2002F016FA88B9032001F062FF08B902B076
S214002A3010BD1AF07BFD1AF07AFD019B009A0B4937
S214002A400B4800681BF0A7FEF1E70446012001F0E2
S214002A504FFF0028EBD01AF069FD1AF068FD2246F9
S214002A600449034B18681BF096FEE0E7982C02001A
S214002A70C0280020C82C020010B58AB009F028FA39
S214002A8002F066F9002859D101F034FCFFF746FF42
S214002A905F4B1870FF2862D0032001F029FF002842
S214002AA07AD101205B4B18601CF09FFE01A81AF03B
S214002AB00CFC032001F01CFF002879D1554B1A6846
S214002AC0029B039213F0FF0F04D123F0FF0343F0A1
S214002AD001030293504B05934FF4407300936846EE
S214002AE01AF004FC009B04934FF4105101A81AF04E
S214002AF00CFC8023ADF8063001230293454B1022D0
S214002B00464901A81CF0ACFE044601A81CF013FFC1
S214002B10002C63D1032001F0EBFE002852D13D4B80
S214002B2018681CF0BFFBFFF751FFFFF775FF032087
S214002B3001F0DEFE002861D10AB010BD0446012077
S214002B4001F0D6FE00289FD01AF0F0FC1AF0EFFC39
S214002B5022463349334B18681BF01DFE94E70120CC
S214002B6001F0C6FE70B9012001F0C2FE002893D025
S214002B701AF0DCFC1AF0DBFC2B492A4B18681BF019
S214002B800AFE89E71AF0D2FC1AF0D1FC2749254B39
S214002B9018681BF000FEE6E71AF0C8FC1AF0C7FC3F
S214002BA01B4B1A7822491F4B18681BF0F4FD78E778
S214002BB01AF0BCFC1AF0BBFC1E491A4B18681BF036
S214002BC0EAFD7BE71AF0B2FC1AF0B1FC114B1A686A
S214002BD01949144B18681BF0DEFDA0E7012001F030
S214002BE087FE00289BD01AF0A1FC1AF0A0FC224613
S214002BF012490C4B18681BF0CEFD90E71AF096FCB5
S214002C001AF095FC0E49074B18681BF0C4FD93E7B5
S214002C10D621002058240020004440040020002034
S214002C20EC2C0200C0280020482D0200242D0200B3
S214002C306C2D0200982D0200C02D0200E42D02002B
S214002C40042E0200BFF34F8F0549CA6802F4E06203
S214002C50044B1343CB60BFF34F8F00BFFDE700BFAD
S214002C6000ED00E00400FA0570B50546C388052BA4
S214002C701DD983685E789C78DA7844EA02241A794B
S214002C8044EA02445B7944EA0364032001F030FE20
S214002C90E8B96A88144B1A80144B1E70144B1C60DB
S214002CA0144B00221A70144B01221A7070BD0120BA
S214002CB001F01EFE0028F9D01AF038FC1AF037FC96
S214002CC0EA880E490E4B18681BF065FDEEE71AF011
S214002CD02DFC1AF02CFC234632460A4908480068A8
S214002CE01BF059FDD5E700BF5C4E00202C4F00209E
S214002CF0D0240020354F00202D4F00201C2E02002F
S214002D00C02800203C2E020030B585B0044601F0F5
S214002D106DFC48BB002501F061FC08B145F00205DA
S214002D2001F06CFC08B145F00405B1238DF80C30B9
S214002D301E4B1B788DF80D3001238DF80E308DF864
S214002D400F501B4B1B78019303AB00930423002208
S214002D50022120461CF0EEFA0546B0B9032001F029
S214002D60C7FD18B905B030BD0125D4E71AF0DEFB63
S214002D701AF0DDFB012300930C4B1B7822460D490D
S214002D800D4800681BF007FDECE7012001F0B0FDE0
S214002D900028E7D01AF0CAFB1AF0C9FB2A460749F2
S214002DA0054B18681BF0F7FCDCE700BFD6210020B7
S214002DB0D72100207C2E0200C0280020AC2E020066
S214002DC008B5C388012B05D983685B78044A127856
S214002DD09A4200D008BD4088FFF796FFFAE700BF8A
S214002DE0D621002000B585B0C1238DF808300D4BE4
S214002DF01B788DF809300C4B1B788DF80A300B4B7E
S214002E001B788DF80B308DF80C000022019202AB77
S214002E100093052302214FF6FF701CF08BFA05B0D5
S214002E205DF804FB254F0020244F0020234F002090
S214002E3000B585B01C4B1B88002B30D01B4A12688F
S214002E4092FBF3F252B2FF2B2BD8DBB2C2218DF8E5
S214002E500810174909788DF80910164909788DF871
S214002E600A10154909788DF80B10144909788DF861
S214002E700C108DF80D20124A12788DF80E208DF861
S214002E800F30104B1B78019302AB009308230022EF
S214002E90022110461CF04EFA05B05DF804FB002235
S214002EA0D1E7FF23D2E700BF584E0020642400205D
S214002EB0254F0020244F0020234F0020D62100203D
S214002EC0204F0020D721002030B585B00446F123DE
S214002ED08DF80C30164B1B78019303AB009301233F
S214002EE0002202211CF026FA80B9032001F000FD22
S214002EF008B905B030BD1AF019FB1AF018FB2246C7
S214002F000C490D4B18681BF046FCF2E705460120FD
S214002F1001F0EEFC0028ECD01AF008FB1AF007FBD4
S214002F202A460649044B18681BF035FCE1E700BF4B
S214002F30D7210020CC2E0200C0280020EC2E020054
S214002F4008B51BF02BFF014B186008BDE0240020DD
S214002F5010B586B0284B1B78FF2B21D01CF0C6F985
S214002F60A0238DF80C30244B1B788DF80D300268AA
S214002F704368CDF80E20CDF81230204B1B78019315
S214002F8003AB00930A230022022110461CF0D2F95C
S214002F90044600BB032001F0ABFC80B906B010BDB0
S214002FA0012001F0A5FC0028F8D01AF0BFFA1AF0AC
S214002FB0BEFA1349134B18681BF0EDFBEEE71AF048
S214002FC0B5FA1AF0B4FA0C4B1A780F490D4B18687C
S214002FD01BF0E1FBE2E7012001F08AFC0028DDD0CF
S214002FE01AF0A4FA1AF0A3FA22460849054B186804
S214002FF01BF0D1FBD2E700BFD6210020D72100204E
S214003000082F0200C02800203C2F02005C2F020080
S2140030100B4B1B789BB100B583B00A4B1B785BB19A
S214003020002301930093084A42F2107107481AF0F1
S21400303077F903B05DF804FBFFF78AFFF0E7704707
S2140030401E4F0020314F0020113000007024002059
S21400305000B583B0A8B1124B1B7813B103B05DF86E
S21400306004FB01201AF078F90D4B01221A70002398
S214003070019300930B4A4FF47A710B481BF09AFEAB
S214003080ECE7074B1B78002BE8D001201AF071F90B
S214003090034B00221A70044807F086FADEE700BFEA
S2140030A0364F00201FD30100EC24002008B550B195
S2140030B00A4B1B7803B108BD01201AF04DF9074BE7
S2140030C001221A70F7E7054B1B78002BF3D001207E
S2140030D01AF04FF9014B00221A70ECE71F4F002040
S2140030E010B582B01CF0D6F8022802D0D0B102B0DB
S2140030F010BD032001F0FCFB50B91CF03EF9264B36
S2140031004FF4FA621A601BF049FE244B1860EEE793
S2140031101AF00CFA1AF00BFA2149224B18681BF029
S2140031203AFBEAE700230093ADF804304FF6FF734E
S214003130ADF800301BF032FE184B186069460320CD
S2140031401CF013F9044698B9174B01221A70032095
S21400315001F0CEFB0028CAD01AF0E8F91AF0E7F919
S214003160BDF8042011490F4B18681BF014FBBEE78E
S2140031700D4B00221A70012001F0BAFB0028B6D0D1
S2140031801AF0D4F91AF0D3F922460949054B186803
S2140031901BF001FBABE700BF10200020E02400205E
S2140031A0782F0200C02800201D4F0020BC2F0200F0
S2140031B0D82F020070B5574B1B788BB1564B1B7837
S2140031C01BB9564B00221A7070BD554B18881CF060
S2140031D075F80020FFF76AFF4F4B00221A70F0E7E1
S2140031E01BF0DCFD04464D4B1B7813B14A4B1B7895
S2140031F0D3B1494B1B78012B4AD0022BE4D1494B63
S2140032001868201A07F034FB474B1B7803EB830340
S214003210B0EBC30FD8D3FFF70BFE0020FFF746FF37
S2140032203D4B00221A70CFE700253C4B1D703F4BEC
S2140032301A783F4B1A703F4B1A783F4B1A703F4E26
S2140032403F4B1B7833703F4B1A783F4B1A701CF07D
S21400325039F8334B18803D4B1D603D4B1D803D4B70
S2140032601D703D4B1D700120FFF720FF307800F0E9
S2140032707F001CF023F838B9384B1C60384B1C60B4
S214003280254B01221A709FE72846FFF70FFF9BE7A2
S214003290324B1868201A07F0EBFA0546264B1A78C8
S2140032A0214B1B789A4214D0F92D8DD91C4B1888C7
S2140032B01CF004F8204B1A781B4B1B789A4222D03D
S2140032C0234B1B88FBB1174B1C60134B02221A7052
S2140032D07AE7214B1A781C4B1B789A42E4D23B289B
S2140032E07FF672AF1E4B1868201A07F0C1FA0E2838
S2140032F0DAD9194E3078FFF775FD3378013333701D
S214003300174B1C60D0E70020FFF7D0FE024B0022D0
S2140033101A7059E7314F0020264F00202B4F00200F
S2140033205A4E002060240020D62100202A4F00207C
S214003330254F0020294F0020244F0020234F002037
S214003340284F0020274F0020224F00206424002012
S214003350584E0020204F0020214F00206C240020D3
S2140033606824002010B50021084601F043FE98B9F5
S21400337001F0E6FD124B01221A70032001F0B8FAA4
S21400338000B910BD1AF0D2F81AF0D1F80D490E4B5C
S21400339018681BF000FAF4E70446094B00221A707E
S2140033A0012001F0A5FA0028EBD01AF0BFF81AF0B9
S2140033B0BEF822460549044B18681BF0ECF9E0E716
S2140033C0334F00200C300200C028002028300200B6
S2140033D008B501F065F8032001F08AFA10B901F08B
S2140033E009FD08BD1AF0A2F81AF0A1F80249034B2D
S2140033F018681BF0D0F9F2E74C300200C028002015
S214003400C388002B64D030B583B0044681680D783D
S2140034100279022A08D00D2A04D0032001F068FAA7
S214003420002846D103B030BDB02D26D0F02D27D0D1
S214003430C02D28D0C12DEED1032BF3D9254B1B78F8
S214003440012BEFD18A78244B1B789A42EAD1CB78AD
S214003450224A1278534013F07F0FE3D190F90510FB
S2140034601F4A13680B44136090F910201D4B1A7006
S2140034701D4A138801331380D4E7FFF7A1FCD1E778
S214003480FFF7F2FBCEE7042BCCD9184B1B78002BAA
S214003490C8D14A78164B1A708A78164B1A70CA78B2
S2140034A0154B1A700A79154B1A70154B01221A70B3
S2140034B0B8E71AF03BF81AF03AF8E388019300955B
S2140034C0237962880F49104800681BF064F9A9E761
S2140034D0704700BF264F0020244F0020234F0020B7
S2140034E064240020204F0020584E0020314F00203A
S2140034F02A4F0020294F0020284F0020274F002069
S2140035002B4F002078300200C028002050B110B5A4
S21400351082B00446224B1B7843B1224B00221A701D
S21400352002B010BD1F4B00221A707047032001F036
S214003530DFF9D0B91C4B1B78002BF1D0194A137851
S2140035400133DBB21370022BEAD9012001F0D0F967
S214003550D8B90023134A1370134A1370134B4FF451
S214003560FA621A60FFF7ECFCDAE719F0DFFF19F0F1
S214003570DEFF0C4B1B7803220092013322460C49D7
S2140035800C4800681BF007F9D4E719F0CFFF19F0D4
S214003590CEFF0949074B18681BF0FDF8D9E700BFB6
S2140035A0314F0020324F00201E4F002010200020F8
S2140035B0A4300200C0280020C030020030B583B01E
S2140035C0902812D00446912868D0032001F090F984
S2140035D0002840F08680484B1B78002B75D0464B61
S2140035E000221A70FFF7ACFC6FE0032001F080F9B0
S2140035F0A0B91BF07FFE58BB012001F079F9E8B9AD
S21400360000233E4A13703C4A13703D4A13603D48FF
S21400361006F0CAFF3C4B01221A7056E019F086FFEE
S21400362019F085FF394B1C681BF064FE0246384BC8
S2140036301B78384920461BF0AEF8DAE719F076FF1B
S21400364019F075FF3449314B18681BF0A4F8D7E71A
S2140036502A4B01221A700024274B1C702F4B4FF464
S214003660FA621A602E4B1C702046FFF7F1FC1BF026
S21400367095FB234B1860234D284606F095FF0194D2
S21400368000942346274A4FF47A71284619F048FEDC
S214003690254B1B6913F0200FFAD016E0032001F02B
S2140036A027F9A0B90023154A1370134A1370144A59
S2140036B013601A4B4FF4FA621A600120FFF7C8FC39
S2140036C0104806F071FFFFF73BFC03B030BD19F061
S2140036D02DFF19F02CFF15490C4B18681BF05BF8F2
S2140036E0E0E719F023FF19F022FF22461049074BA6
S2140036F018681BF050F86EE71D4F00201E4F002084
S214003700D4240020702400202E4F0020C028002043
S214003710D6210020E43002001031020010200020E4
S214003720324F0020113000000000014060310200DE
S2140037307031020010B500F067FF984B1B78002B25
S2140037403AD1974B1B78002B4BD0964B1B78002B0F
S2140037504FD0954B1B78002B40F0CA800120FFF716
S21400376077FC1BF01BFB0446904B1868002875D1AD
S2140037701C608F4B1868201A07F07AF804468D4BA9
S2140037801B78002B00F0948043F69823984240F272
S214003790B780012001F0ACF800287BD1854B0022D1
S2140037A01A701BF077FD00287FD1834B4FF4FA6226
S2140037B01A60FFF7C5FBA3E0784B00221A700120C1
S2140037C001F096F818B91BF0D8FDFFF73BFA19F090
S2140037D0ADFE19F0ACFE7949794B18681AF0DBFF9C
S2140037E0F1E71BF0DBFA774B18606D4B01221A707D
S2140037F0ABE71BF0D3FA04466B4B1B782BB1724B2E
S214003800186810B1714B1B788BB100F0E7FE0028EA
S2140038109FD06C4B1868201A07F02AF86C4B984219
S21400382097D9012001F064F870B9FFF70BFA201A57
S21400383007F01EF843F697239842E6D900F060FE9C
S214003840584B01221A7084E719F070FE19F06FFECB
S21400385060495B4B18681AF09EFFE6E7201A07F0EF
S21400386007F85D4B984284D9012001F041F830B941
S2140038705A4B1B6913F0200FFAD0FFF7E3F919F043
S21400388055FE19F054FE544A55494D4B18681AF027
S21400389082FFEDE719F04AFE19F049FE224651492B
S2140038A0474B18681AF077FF78E71BF066FD7CE751
S2140038B0414B1B68834223D8032001F019F858B9FE
S2140038C0FFF70EFC3C4A13685B0044F620618B420F
S2140038D028BF0B46136013E019F028FE19F027FEE8
S2140038E0354B1A684049364B18681AF054FFE7E71C
S2140038F02E4B00221A60FFF75DFC3C4B1B7803B989
S21400390010BD3A4B00221A70032000F0F1FFE0B918
S214003910002001F0F7FA044608BB354B1A88354BF1
S2140039201A80354B1A78354B1A70354B1A68354B5A
S2140039301A60354B01221A70032000F0D9FFF0B947
S2140039402C4B1888FFF7C0FADAE719F0EFFD19F0EC
S214003950EEFD2E491A4B18681AF01DFFD8E7012015
S21400396000F0C6FF0028CBD019F0E0FD19F0DFFD0F
S21400397022462749124B18681AF00DFFC0E719F0C7
S214003980D5FD19F0D4FD1F4B1B681C4A127821493F
S2140039900B4800681AF0FFFED2E700BF2E4F00204B
S2140039A02F4F0020304F00201E4F0020DC24002028
S2140039B0E02400201D4F0020102000208831020047
S2140039C0C0280020D8240020D4240020314F002016
S2140039D01FBF0200C4310200E09304000000014053
S2140039E004320200403202006C3202002D4F0020EA
S2140039F05C4E00205E4E00202C4F0020344F0020EE
S214003A00D0240020E4240020354F00208832020015
S214003A10A0320200D4320200F0B583B007460D464D
S214003A2014461E46032000F063FF50B901200B4BDE
S214003A3018700B4B1D700B4B1C600023336003B0DB
S214003A40F0BD19F073FD19F072FD00942B463A464E
S214003A500549064800681AF09EFEE7E7314F002049
S214003A60344F0020E42400200C330200C02800203D
S214003A7070B582B00D461446264B01221A70631AA2
S214003A801344069A002001F01FFAC8B9224B1B689F
S214003A90DBB1651C642204FB0222B2FBF3F41F4A6E
S214003AA0A2FB04311E4B1B68A2FB0323DB08B3EB0F
S214003AB0D10F18D3632C08D9194B00221A6004E0E2
S214003AC00646012000F014FF08B902B070BD19F0D8
S214003AD02DFD19F02CFD33462A461249124800687F
S214003AE01AF059FEF1E7032000F002FF10B90C4B64
S214003AF01C60DFE719F01AFD19F019FD064B1B686C
S214003B0000932B4622460949074800681AF043FEF0
S214003B10EDE700BF314F0020E4240020CDCCCCCC14
S214003B205C24002040330200C028002068330200D6
S214003B3070B582B015461A4B00221A70E0B90C46D2
S214003B40032000F0D5FE58B90023164A13700193DF
S214003B500093154A6421154819F0E2FB02B070BDC7
S214003B6019F0E4FC19F0E3FC2B46224610491148F4
S214003B7000681AF010FEE7E70646012000F0B8FEDF
S214003B8018B9084B00221A70E8E719F0CFFC19F0B4
S214003B90CEFC32460849074B18681AF0FCFDF0E7E1
S214003BA0314F0020334F0020653300009024002062
S214003BB088330200C0280020B833020070B582B0F7
S214003BC005461446032000F093FEA0B91D4B1E7850
S214003BD0EEB1032000F08CFE40BB00250195009559
S214003BE02B46194A2146194819F09AFB154B1D70A9
S214003BF0304602B070BD19F099FC19F098FC2346C7
S214003C002A461349134800681AF0C5FDDEE701206E
S214003C1000F06EFE0028EBD019F088FC19F087FC47
S214003C200D490C4B18681AF0B6FDE1E719F07EFC5A
S214003C3019F07DFC22460949064B18681AF0ABFDC0
S214003C40CBE700BF334F0020D1330000B024002064
S214003C50E0330200C028002014340200383402008A
S214003C6010B580B10446012000F042FE00B910BD38
S214003C7019F05CFC19F05BFC22460A490A4B1868EE
S214003C801AF089FDF3E7032000F032FE0028EED09C
S214003C9019F04CFC19F04BFC0449034B18681AF059
S214003CA07AFDE4E754340200C02800207434020091
S214003CB0F0B583B004460D4616461F46032000F0B6
S214003CC017FE08B903B0F0BD19F030FC19F02FFC50
S214003CD0019700962B4622460249034800681AF0D0
S214003CE05AFDEFE78C340200C028002010B50120F2
S214003CF0FFF7AEF9084B4FF4FA621A60074B002242
S214003D001A601BF04BF8044640F2A46006F046FD2D
S214003D10241A034B1C6010BD10200020DC24002059
S214003D20E024002010B584B00D4BEC460FCBACE879
S214003D3007008CF8003001238DF803308DF804302E
S214003D4000238DF808300E238DF80930054C69469F
S214003D50204619F017FF204619F005FF04B010BDE5
S214003D60183B020000200540044B00221A605A60EF
S214003D709A60DA60024A1A60704700BF0C2500207D
S214003D803152474610B58EB001A801F049F8059AA1
S214003D900AB3D3680BB94FF4805329490B601469F2
S214003DA04CB3B4F5E01F26D3B4F5001F23D34FF46D
S214003DB0C012B2FBF3F203FB02F2B2F5C01F2CD125
S214003DC04FF4E012B2FBF3F202FB03F3B3F5E01F8D
S214003DD023D1012014E0012000F08AFD08B900205C
S214003DE00EE019F0A3FB19F0A2FB1649164B186853
S214003DF01AF0D1FCF3E7012000F07AFD10B900209C
S214003E000EB010BD19F092FB19F091FB22460F4937
S214003E100D4B18681AF0BFFCF1E7012000F068FDB2
S214003E2008B90020ECE719F081FB19F080FB044B81
S214003E301A680749044B18681AF0ADFCF1E700BF92
S214003E4014200020B8340200C0280020E834020005
S214003E503035020008B51023044A032104480068E0
S214003E600FF01EFFB0FA80F0400908BD0C250020B8
S214003E709820002008B510230F4A03210F48006839
S214003E800FF058FF20B90C4B1A680D4B9A4207D01A
S214003E90032000F02DFD20B9FFF766FFFFF7DAFFDD
S214003EA008BD19F043FB19F042FB0649064B18689B
S214003EB01AF071FCF0E700BF0C25002098200020C7
S214003EC03152474678350200C02800202DE9F041DF
S214003ED0ADF5007D674BD979674A52F821809E6818
S214003EE0731EB3F5802F33D2002001F00BF80028A4
S214003EF042D1033626F003060024B4427FD2351B97
S214003F00B5F5807F28BF4FF4807504EB08072A4676
S214003F1040A9384601F098F800283DD12B4640AA23
S214003F202146002000F0D0FF002846D12B466A46E6
S214003F302146002000F0AAFF00284FD12A466946F5
S214003F4040A81EF0ABF9002848D104F58074D4E7E9
S214003F50012000F0CDFC20B900200DF5007DBDE865
S214003F60F08119F0E3FA19F0E2FA32464349444B7D
S214003F7018681AF010FCEFE7012000F0B9FC08B949
S214003F800020EAE719F0D2FA19F0D1FA3D493C4B85
S214003F9018681AF000FCF3E7012000F0A9FC08B945
S214003FA00020DAE719F0C2FA19F0C1FA3A463649A3
S214003FB0334B18681AF0EFFBF2E7012000F098FC8C
S214003FC008B90020C9E719F0B1FA19F0B0FA22468C
S214003FD02E492B4B18681AF0DEFBF2E7012000F0A2
S214003FE087FC08B90020B8E719F0A0FA19F09FFA84
S214003FF022462749224B18681AF0CDFBF2E700212B
S214004000084600F0F7FF58B9002000F099FFB8B94D
S214004010032000F06DFC18BB00F0ECFE01209CE7CE
S214004020012000F065FC08B9002096E719F07EFA3A
S21400403019F07DFA1749124B18681AF0ACFBF3E733
S214004040012000F055FC08B9002086E719F06EFA4A
S21400405019F06DFA10490A4B18681AF09CFBF3E742
S21400406019F064FA19F063FA0C49054B18681AF04F
S21400407092FBD1E70C250020103B0200A835020079
S214004080C0280020CC350200EC35020010360200B5
S214004090303602005836020080360200A43602008F
S2140040A02DE9F047ADF5047D0021084600F0A2FF9B
S2140040B000283AD182A9002000F0CAFE002847D185
S2140040C0002404F10803839A934251D808236A46D1
S2140040D02146002000F0DAFE002840F090809DF88F
S2140040E000309DF8012043EA02239DF8022043EAAF
S2140040F002439DF8032043EA02629DF804309DF8CF
S214004100051043EA01239DF8061043EA01439DF893
S214004110071043EA01638399994272D3234403F15B
S2140041200804694B9A42CCD123E0012000F0E0FB62
S21400413020B900200DF5047DBDE8F08719F0F6F9EA
S21400414019F0F5F96149624B18681AF024FBF0E79C
S214004150012000F0CDFB08B90020EBE719F0E6F9E6
S21400416019F0E5F95B495A4B18681AF014FBF3E7A7
S2140041700024631EB3F5802F45D2574B93F807A053
S214004180BAFA8AFA4FEA5A1A544B53F82A904FF45E
S2140041908021484600F094FF002847D104F1030828
S2140041A028F003080026464580F08480A8EB060524
S2140041B0B5F5807F28BF4FF480752B4642AA31465E
S2140041C0002000F063FE002841D106EB09072A46CE
S2140041D042A9384600F056FF002849D12A4602A9CF
S2140041E0384600F031FF002853D12A4602A942A8DB
S2140041F01EF054F800284CD106F58076D3E700244C
S214004200B7E70024B5E7012000F072FB08B90020EC
S21400421090E719F08BF919F08AF94FF480232246BB
S2140042202F492B4800681AF0B6FAF0E7012000F094
S2140042305FFB08B900207DE719F078F919F077F9E7
S2140042404A462849224B18681AF0A5FAF2E70120D8
S21400425000F04EFB08B900206CE719F067F919F07A
S21400426066F9324620491A4B18681AF094FAF2E7B3
S214004270012000F03DFB08B900205BE719F056F975
S21400428019F055F93A461949114B18681AF083FA8D
S214004290F2E7012000F02CFB08B900204AE719F0ED
S2140042A045F919F044F93A461149094B18681AF0CD
S2140042B072FAF2E7084B83F807A09C6001221A7393
S2140042C0FFF7C8FD36E700BFFC0404FCD836020042
S2140042D0C0280020103702000C250020103B0200EA
S2140042E0343702006C37020094370200B4370200FD
S2140042F0D837020010B584B0FFF714FDFFF7BAFDFB
S214004300FFF740FD5B4B1870032000F0F1FA20B970
S214004310594B9B79BBB904B010BD19F007F919F0D9
S21400432006F9554AD379117B9068524C2478039449
S2140043300290019100939388927950495048006802
S2140043401AF029FAE4E74C4A938801339380FFF782
S21400435081FD08B3032000F0CBFA60BB464B9B8878
S214004360042BD8D9434B1B781BB1434B1B7B002B2C
S21400437042D1012000F0BCFA50BB012000F0B8FA90
S21400438000282FD13C4B9B88052BC4D93A4B0522DD
S2140043909A80FFF75FFDBEE7012000F0A9FA00282B
S2140043A0D8D019F0C3F819F0C2F83649344B18685B
S2140043B01AF0F1F9CEE719F0B9F819F0B8F80523B4
S2140043C02D4A928830492E4800681AF0E4F9C5E76D
S2140043D019F0ACF819F0ABF82C49294B18681AF00C
S2140043E0DAF9CAE719F0A2F819F0A1F82849244B1F
S2140043F018681AF0D0F9C5E7032000F079FAC8B9B2
S2140044001D4B00229A8001229A71FFF723FDFFF7C9
S2140044105DFDF8B1012000F06BFA00283FF47BAF99
S21400442019F084F819F083F81A49154B18681AF031
S214004430B2F970E719F07AF819F079F8104B1868A5
S2140044400D4BDB7923B1422213491AF0A4F9D7E7C2
S2140044504122F9E7012000F04BFA00283FF45BAF59
S21400446019F064F819F063F80C49054B18681AF04F
S21400447092F950E7374F00200C2500200438020040
S214004480C02800205038020084380200A4380200F9
S214004490EC380200543902002C3902008C39020034
S2140044A008B5134B01229A7100229A80FFF7D2FCBE
S2140044B070B9012000F01CFA00B908BD19F036F8F2
S2140044C019F035F80B490C4B18681AF064F9F4E744
S2140044D0032000F00DFA0028EFD019F027F819F0A5
S2140044E026F80649044B18681AF055F9E5E700BFA8
S2140044F00C250020C4390200C0280020003A020023
S21400450008B52F4B9B792BB92D4A127B12B12C4A3A
S214004510928892B113B92A4B1B7B13B9294B1B788F
S21400452063B9274B00229A719A80FFF793FC002804
S21400453037D1012000F0DCF948BB08BDFFF7B0FD1D
S214004540B0B1032000F0D4F90028EAD018F0EEFF4E
S21400455018F0EDFF1C4B1868194BDB7933B142227B
S214004560174B9B6819491AF016F9DAE74122F7E764
S214004570012000F0BDF90028D3D018F0D7FF18F0BE
S214004580D6FF1349104B18681AF005F9C9E718F05A
S214004590CDFF18F0CCFF0F490B4B18681AF0FBF84C
S2140045A0CBE7032000F0A4F90028C6D018F0BEFF21
S2140045B018F0BDFF0849044B18681AF0ECF8BCE781
S2140045C00C250020374F0020C0280020383A020073
S2140045D0783A0200B43A0200E03A0200024B9879B8
S2140045E0003818BF012070470C250020024B187BAE
S2140045F0003818BF012070470C250020014BD879E1
S214004600704700BF0C25002008B5024819F0ABFA29
S21400461008BD00BF0020054008B5024B1B6803B16B
S214004620984708BD4C25002008B5024B5B6803B1CF
S214004630984708BD4C25002008B5024B9B6803B17F
S214004640984708BD4C25002008B5024BDB6803B12F
S214004650984708BD4C25002008B5024B1B6903B1DE
S214004660984708BD4C25002008B5024B5B6903B18E
S214004670984708BD4C25002030B585B0094C226807
S214004680094B1A60094D0A4B2B600A4B019304F044
S214004690D9FE02902B68039301A9206819F083FBCA
S2140046A005B030BD34200020943300209033002025
S2140046B0282000201444020008B5024B186819F0A0
S2140046C086FB08BD3420002038B504F0BBFE044647
S2140046D0064D2B68D3F8B00204F0A8FE286819F03F
S2140046E090FB204604F0A2FE38BD00BF3420002018
S2140046F038B501F0F9FE01210D4801F0C7FA012294
S2140047001146002001F034FE0A4C0225C4F8805001
S21400471001221146002001F02BFEC4F8845001222D
S2140047201146002001F024FEC4F88850002038BD51
S21400473030253E0000400E4008B5164B01225A6454
S21400474003F092F8024668B9134B4AF6E851C3F8EC
S2140047509011D3F8981141F00401C3F89811002184
S214004760C3F89011012A0DD90C4A136A23F4441396
S21400477043F488131362A2F58042136843F48073EF
S214004780136008BD044AD2F8643143F40053C2F8FB
S2140047906431E9E700000E4000300E4000400E4055
S2140047A008B50121034801F071FA034800F0FEFD48
S2140047B008BD00BF00350A0038200020012900D9B6
S2140047C0704708B5034B1B68186808B1436A9847DA
S2140047D008BD00BF5020002030B599B0284D11AC60
S2140047E0AC46BCE80F000FC49CE8070084E807004E
S2140047F000240B940C940D940E940F941094214B5B
S2140048000B93214B0C9301228DF8372002238DF851
S214004810393003238DF83B301E238DF83F308DF85A
S214004820403009AB1C3595E8030083E803000DF122
S2140048300C0C0394049405940694079408948CE84E
S21400484003000C238DF814300D238DF815300F4B14
S2140048500693202307938DF820208DF821200C4BFB
S21400486000930BAB11AA61460A4804F0C3FF054645
S21400487021464FF4E13018F099FE284619B030BDB5
S2140048802C440200000001400042040020280020C2
S214004890402800209428002008B50349034805F066
S2140048A011FBFFF799FF08BD54200020B828002010
S2140048B008B502481AF083F908BD00BF9428002006
S2140048C008B502481AF07BF908BD00BF94280020FE
S2140048D008B5024B1A6A1868904708BD942800204D
S2140048E008B5024818F0C6FE08BD00BF50440200D6
S2140048F003460B4A107828B10A4A12789A4202D226
S214004900002000E00120084A12783AB1074A1278DF
S21400491042FA03F313F0010F00D10020704700BFE6
S214004920DA210020D9210020384F0020D82100208D
S21400493008B5084B01221A70074B00221A70074B65
S21400494004221A70064B1F221A7004F07BFD054BDA
S214004950186008BDDA210020384F0020D921002039
S214004960D8210020C028002000B591B000F0F0F952
S21400497050B903A800F054FA069BABB901200F4BC0
S214004980187011B05DF804FB0120FFF7B1FF08B9FD
S2140049900020F6E718F0CAFD18F0C9FD0849094BD3
S2140049A0186819F0F8FEF3E701A9002000F050FAA5
S2140049B00028E3D1019A044B1A60DFE7394F002044
S2140049C068440200C0280020C428002008B5064B12
S2140049D01B782BB100F0E6F9034B00221A7008BDD5
S2140049E0FFF7C2FFF6E700BF394F002008B50121E8
S2140049F0054801F04BF918F0FAFC012018F0AEFD5E
S214004A0000F076F808BD00BF00350A0008B50121A1
S214004A10014801F03BF908BD00350A002DE9F041D8
S214004A2080460F4601F109050026344604E05B2166
S214004A30082000F093FC0134AC4233D2052C1BD87E
S214004A4001A353F824F000BF2F4A0000614A00007B
S214004A50954A0000694A00006D4A0000714A00004D
S214004A60FBB20433D9B2E3E78021E1E70021DFE7B8
S214004A70731C3146DEB2DBE7BB1DA3420CD0FB1D28
S214004A80A3420BD007F10803A34209D0A31F18F8CE
S214004A900310CDE7D121CBE75A21C9E75A21C7E752
S214004AA05D21C5E70020BDE8F08100BF00B583B0FA
S214004AB000220092019202218DF80010054818F09D
S214004AC05FFD019008216846FFF7A8FF03B05DF878
S214004AD004FB00BF006A1800014B1022DA60704722
S214004AE000A00044014B1022DA60704700A0004688
S214004AF070B588B00DF1040C374C0FCCACE80F0045
S214004B0094E807008CE807000121344801F0BEF85D
S214004B10334E0121304601F0B9F801258DF81250C8
S214004B20304B0393304C01A9204618F0C0FF2B46AB
S214004B3004220621022002F045FB00232A46072114
S214004B40022002F03FFB2B4604220821022002F03E
S214004B5039FB2B4604221146002002F033FB234B80
S214004B60A3670B2363674FF4487006F0B7FBFFF7A5
S214004B70B3FF142006F0B2FBFFF7B4FF232006F0C5
S214004B80ADFBFFF7A9FFB921204618F0DAFFFFF7C3
S214004B90A9FF00231A460621022002F013FB002379
S214004BA01A460721022002F00DFB2B4600220821A0
S214004BB0022002F007FB2B4600220421104602F0DA
S214004BC001FB204602F0AAFE0021A167616730467D
S214004BD001F05CF808B070BD8444020000350A009D
S214004BE00052040000127A00000401400B0B000B78
S214004BF008B500F087F8124A0AE01068516850F8C5
S214004C00230041F82300013391688B42F5D30C3220
S214004C100C4B9A4201D20023F6E70B4A08E01168D3
S214004C20002041F82300013351688B42F7D3083245
S214004C30064B9A4201D20023F6E7FDF77DF900BF46
S214004C40707002007C7002007C7002007C700200B3
S214004C500048704700F04902114BD3F8943003F037
S214004C600703023B032B0DD8DFE803F0050F02080D
S214004C700C4B18680BE00C4B186808E00B4B1868D8
S214004C80400804E0094B186801E04FF40040044B6C
S214004C90D3F80031C3F304230133B0FBF3F07047BD
S214004CA000400E406C200020702000206420002071
S214004CB008B5FFF7D1FF054BD3F80831C3F3082337
S214004CC00133B0FBF3F0024B186008BD00400E4005
S214004CD068200020014B1868704700BF7020002035
S214004CE008B5064B1860064BD3F8943003F007035C
S214004CF0022B00D008BDFFF7DBFFFBE7702000208B
S214004D0000400E40044B054A9A60D3F8882042F4CF
S214004D107002C3F88820704700ED00E00000000035
S214004D20014B1868704700BF6C200020BFF34F8F00
S214004D300549CA6802F4E062044B1343CB60BFF334
S214004D404F8F00BFFDE700BF00ED00E00400FA054E
S214004D5008B5114BD3F82828A2F17E63A3F5843357
S214004D60B3F5104F11D211680C4B994210D10C4B71
S214004D701B781BB1022B01D0002008E0D3699847AE
S214004D8028B9074B01221A7001E04FF4817008BD64
S214004D904FF48170FBE700BF0000E10F07B0CD5E67
S214004DA03A4F002008B5104BD3F82828A2F17E63AE
S214004DB0A3F58433B3F5104F10D211680B4B99420C
S214004DC00FD10B4B1B78012B01D0002008E0136A93
S214004DD0984728B9064B02221A7001E04FF48170FA
S214004DE008BD4FF48170FBE70000E10F07B0CD5E11
S214004DF03A4F002008B54FF0005340F202221A80C6
S214004E004FF20F025A80054A01239360136823F479
S214004E10E06343F480631360FFF788FF00500E40A2
S214004E2008B50A4BD3F82828A2F17E63A3F584338D
S214004E30B3F5104F09D2126BA2F17E63A3F584334B
S214004E40B3F5104F01D25368984708BD0000E10F34
S214004E5008B50D4BD3F82828A2F17E63A3F584335A
S214004E60B3F5104F0AD2126BA2F17E63A3F584331A
S214004E70B3F5104F05D29368984701E04FF4817060
S214004E8008BD4FF48170FBE70000E10F38B50D4C0C
S214004E90D4F82848A4F17E6CACF5843CBCF5104FE1
S214004EA00AD2256BA5F17E64A4F58434B4F5104FC0
S214004EB005D2EC68A04701E04FF4817038BD4FF48E
S214004EC08170FBE70000E10F38B50D4CD4F8284898
S214004ED0A4F17E6CACF5843CBCF5104F0AD2256B71
S214004EE0A5F17E64A4F58434B4F5104F05D22C6980
S214004EF0A04701E04FF4817038BD4FF48170FBE7A6
S214004F000000E10F08B50D4BD3F82828A2F17E6308
S214004F10A3F58433B3F5104F0AD2126BA2F17E6369
S214004F20A3F58433B3F5104F05D25369984701E0D3
S214004F304FF4817008BD4FF48170FBE70000E10F6D
S214004F4000B583B001900F4BD3F82828A2F17E63FA
S214004F50A3F58433B3F5104F0CD2126BA2F17E6327
S214004F60A3F58433B3F5104F09D29369012101A844
S214004F70984701E04FF4817003B05DF804FB4FF4EE
S214004F808170F9E70000E10F10B50A4BD3F8284806
S214004F90A4F17E63A3F58433B3F5104F04D2236BDC
S214004FA02BB15B6A984701E04FF4017010BD4FF4D7
S214004FB00170FBE70000E10F08B50D4BD3F8282879
S214004FC0A2F17E63A3F58433B3F5104F0AD2126BB9
S214004FD0A2F17E63A3F58433B3F5104F05D2936A2E
S214004FE0984701E04FF4017008BD4FF40170FBE7ED
S214004FF00000E10F30B5E1B0124BD3F82838A3F12A
S2140050007E63A3F58433B3F5104F15D20C464FF4E8
S214005010C0726946FFF7B8FF054678B9214668466C
S214005020FFF7CAFF40F201239842F7D040F203236D
S214005030984203D0054601E04FF40175284661B05A
S21400504030BD00BF0000E10F10B50D4BD3F8284867
S214005050A4F17E63A3F58433B3F5104F0AD2246B14
S214005060A4F17E63A3F58433B3F5104F05D2636BCA
S214005070984701E040F2011010BD40F20110FBE736
S2140050800000E10F10B50D4BD3F82848A4F17E635D
S214005090A3F58433B3F5104F0AD2246BA4F17E63D4
S2140050A0A3F58433B3F5104F05D2A36B984701E000
S2140050B040F2011010BD40F20110FBE70000E10FC6
S2140050C008B50D4BD3F82828A2F17E63A3F58433E8
S2140050D0B3F5104F0AD2126BA2F17E63A3F58433A8
S2140050E0B3F5104F05D2D36B984701E040F201109C
S2140050F008BD40F20110FBE70000E10FF0B1844666
S214005100F1B110B409E004F120000FE02033C01A1A
S21400511018D1BCB10CF1010C01319CF800400B4BCE
S2140051201B5D03F00303012BEDD020460B78074AE6
S214005130D25C02F00302012AE9D1E7E701207047BA
S214005140012070475DF8044B704700BF0B6F0200EC
S2140051500346064A10680344054A934202D8034AA7
S214005160136070474FF0FF30704700BF7420002078
S214005170000004200B681A78022A00D1704710B588
S21400518008461A79597902EB42021201064C144479
S21400519001EBC40292001268B2FA82F252091A7047
S2140051A018F06FFA10BD00BF1CA0100230B583B017
S2140051B0054604680121174800F068FD0023012217
S2140051C06179207901F0FEFF2379627903EB4303CE
S2140051D01B011149194402EBC1039B001B68B3FA7B
S2140051E083F35B092370A379022B02D0002003B05F
S2140051F030BD00F0E9FB2A460849607900F00CFC57
S21400520002466179207901230193009301F084FF1F
S214005210ECE700BF00350A001CA010027551000024
S21400522002681378022B15D01379517903EB4303E8
S2140052301B011548184401EBC0039B0019680B1EA0
S21400524018BF01239079012805D018B9B1FA81F169
S2140052504909117070475188490089B20B4343F4DD
S2140052607F4343F0C0034FF6E0718B4205D04FF604
S214005270DF718B4204D05380704701211170FAE72A
S21400528000211170F7E700BF1CA0100208B501212D
S214005290294800F0FBFC012304220221052001F02E
S2140052A091FF002001F02CFF0121244BC3F81018B9
S2140052B00A46042001F05CF8214800F0A5FE214BC8
S2140052C0D3F8F02042F00102C3F8F020D3F8FC2017
S2140052D042F08072C3F8FC20A3F55D431A4A1A60B8
S2140052E000F5D52000F2FC40C008184BA3FB0030A8
S2140052F0800A0138164B18610222C3F8F0204FF4DA
S2140053008072C3F804234FF06043124AC3F8B02FEC
S214005310114AC3F8802ED3F8002E42F48072C3F8E8
S214005320002EFF2283F82020D3F8002E22F480726D
S214005330C3F8002E002008BD00350A000080144285
S21400534006000E0000ED00E0FF0300401791650226
S214005350000004E055CEACC5090001004FF06043E4
S214005360D3F8803E13F0010F01D1112070470E4A8A
S214005370D2F8FC3043F08073C2F8FC304FF0604344
S214005380D3F8002E4FF0010C0CFA00FC42EA0C0297
S214005390C3F8002E53F82030002BE8D04FF06043BF
S2140053A003F820100020704700ED00E070B584B0D0
S2140053B0044601212A4800F069FC2368294A9342E2
S2140053C015D002F58062934247D12748012100F0AC
S2140053D05DFC01230A226179207901F0F3FE0123A6
S2140053E00A22E179A07901F0EDFE00251AE01F48B7
S2140053F0ECE72379617903EB43031B01012606FAE8
S21400540001F11B4AD150642005F068FF23796279C8
S21400541003EB43031B019640164AD650642005F062
S2140054205DFF0135092DE4DD236803225A64637AA3
S214005430227A43EA02232268936401238DF800301F
S2140054408DF8013023690293E3680193237D8DF87C
S2140054500C306946206801F047FF04B070BD00BFFD
S2140054604041050000C00040009204000082040095
S2140054700CA000440CA00046F0B585B00C4694463F
S2140054809DF83410664A1278002A00F0BD80054662
S214005490BCF1070F00F2BA800A9A002A00F0B88022
S2140054A00B9A002A00F0B6800E9AB2F5006F00F351
S2140054B0B38001285BD05B4A02EB0C12127B002AF9
S2140054C000F0AC8000220092019202920392564AAB
S2140054D002EB4C1E002C4FD14FEA4C160020905188
S2140054E0CEF80400CEF80800CEF80C009EF80200B5
S2140054F040F010008EF802009EF8030040F03000E6
S2140055008EF8030021B9C1B241F003018EF80310F2
S21400551000930E9B013B444A4FEA4C1002EB4C11A1
S214005520165A63F30E1616520A9B8B600B9B4B6043
S214005530CB789DF83C2062F38303CB70012D36D0E8
S214005540109B002B56D0374A4FEA0C1102EB0C1377
S21400555010985050119A5A6000249C605D737246F1
S2140055606946604601F02AFF204605B0F0BD0C9A59
S214005570002AA0D12D48F8E72B4F4FEA4C1607EB30
S2140055804C120020B85150609060D060907840F087
S21400559010009070D07840F00300D0700029B7D18A
S2140055A007EB4C12C1B241F03001D170B0E70E46A5
S2140055B00A7B42F001020A73D2B242F002020A7378
S2140055C0CA68042161F39F02F26006F1100796E8AC
S2140055D00F0087E80F00F2696FF0030161F39F0286
S2140055E0F2610C9B7361012CAAD10B9AB2610C9AE2
S2140055F07260A5E7002DA6D10B4B03EB4C139A78EF
S2140056006FF304129A709EE70948AEE70748ACE7C6
S2140056100648AAE70548A8E70448A6E70548A4E719
S2140056203B4F0020C8290020C8280020018000F039
S214005630028000F0078000F0134B1B78FBB110B51A
S2140056400446F0B118F0DBF80023072B13D80F4AF6
S21400565002EB0312127B0AB10133F6E723600B4A12
S214005660190102EB031301241C730024545018F094
S214005670CCF8204602E018F0C8F8054810BD0548EA
S21400568070470548FAE700BF3B4F0020C8290020B6
S214005690048000F0028000F0018000F038B518F0B9
S2140056A0AEF804460023072B06DC0C4A02EB031276
S2140056B0127B12B90133F6E7002222B1204618F019
S2140056C0A4F8074838BD01F02DFE0025054B1D70D7
S2140056D0204618F09AF82846F4E700BFC8290020AC
S2140056E0058000F03B4F00200F4B1B78BBB110B578
S2140056F00446072815D818F082F80C4B03EB041361
S2140057001B7B1BB918F081F809480BE0074B03EB2D
S214005710041300241C7318F078F8204602E00548AD
S2140057207047054810BD00BF3B4F0020C829002029
S214005730068000F0028000F0018000F000B583B023
S214005740144B1B68019300238DF8043018F057F8AB
S214005750114B1B7833B9104B01221A7018F055F80C
S214005760002309E018F051F80C480FE00C4A02EB51
S2140057700312002111730133072BF7DD04238DF884
S21400578007300DEB030001F0EFFD002003B05DF8DD
S21400579004FB00BFF04402003B4F0020038000F0F3
S2140057A0C829002008B50A4B1B785BB107280BD820
S2140057B0084B03EB00131B7B43B1002101F0CAFD2D
S2140057C0002008BD0448FCE70448FAE70448F8E768
S2140057D03B4F0020C8290020028000F0018000F026
S2140057E0078000F008B50A4B1B785BB107280BD87A
S2140057F0084B03EB00131B7B43B1012101F0AAFD0C
S214005800002008BD0448FCE70448FAE70448F8E727
S2140058103B4F0020C8290020028000F0018000F0E5
S214005820078000F008B50A4B1B7853B107280AD842
S214005830084B03EB00131B7B3BB101F013FE00206B
S21400584008BD0548FCE70548FAE70548F8E700BF45
S2140058503B4F0020C8290020028000F0018000F0A5
S214005860078000F0104B1B78ABB1072815D8B1B1F4
S2140058700E4B03EB00131B7B9BB10D4B1B6E0122E3
S214005880824013EA020003D001230B700020704709
S21400589000230B7070470748704707487047064854
S2140058A070470648704700BF3B4F0020C8290020BD
S2140058B000200E40028000F0018000F0078000F01B
S2140058C00C4B1B7873B110B50C4607280CD869B181
