S00F00007364725F746573742E7333377D
S113000000080020210E0000A1840000A18400004B
S1130010CB890000A1840000A1840000A184000019
S1130020A1840000A1840000A1840000A184000038
S1130030A1840000209C0000A1840000A184000091
S1130040A18400008D610000A1840000A18400004F
S1130050CD5900001D8E0000198E0000AD61000016
S1130060118E00006D130000A1840000A184000023
S1130070A1840000A1840000A1840000A1840000E8
S1130080A184000071040000A1840000A184000088
S1130090A1840000A1840000A1840000A1840000C8
S11300A0A1840000A1840000A1840000A1840000B8
S11300B0E1610000158E0000A18400001D620000B3
S11300C0A184000065480000A1840000A184000010
S11300D0A1840000A1840000A1840000A184000088
S11300E0A1840000A1840000A1840000A184000078
S11300F0A1840000A1840000A1840000A184000068
S1130100A1840000A1840000A1840000000000007C
S1130110013800D0FCE77047000000000000000038
S113012001F0FF01102A2BDB10F0070F08D010F8A4
S1130130013B013A8B422DD010F0070F42B3F6D1A8
S1130140F0B441EA012141EA014122F007047FF0C1
S113015000070023F0E80256083C85EA010586EA18
S1130160010685FA47F5A3FA87F586FA47F6A5FA54
S113017087F68EB9EED1F0BC01F0FF0102F0070260
S113018032B110F8013B013A83EA010313B1F8D10B
S11301900020704701387047002D06BF35460338EC
S11301A0073815F0010F07D1013015F4807F02BF25
S11301B0013015F4C03F0130F0BC0138704700BF76
S11301C00348044B834202D0034B03B118477047E2
S11301D00C0900200C090020000000000548064B13
S11301E01B1AD90F01EBA301491002D0034B03B131
S11301F0184770470C0900200C090020000000007B
S113020010B5064C237843B9FFF7DAFF044B13B15A
S11302100448AFF300800123237010BD7C1200203A
S113022000000000A8C9000008B5054B1BB1054932
S11302300548AFF30080BDE80840FFF7CFBF00BF1B
S113024000000000F00A0020A8C90000A3F5803ACD
S1130250704700BF174B002B08BF134B9D46FFF799
S1130260F5FF00218B460F461348144A121A09F071
S113027031F80E4B002B00D098470D4B002B00D0CB
S113028098470020002104000D000D48002802D0EA
S11302900C48AFF3008007F0EDFA2000290000F0CD
S11302A0AFFB07F0D5FA00BF000008000000000013
S11302B000000000000800200C090020A412002007
S11302C00000000000000000F0B597B0002000F02E
S11302D05FFC054608F0BCF80121584801F016F906
S11302E00121574801F012F901230B220A210220AF
S11302F002F052F901230B221146022002F04CF9BC
S1130300504C03266664A36C23F01F0343F01003D0
S1130310A364A36C23F4F85343F46063A3644A4BCB
S11303200DF1480C0FCB8CE80F0000278DF84970B5
S11303306146204602F0C2F9E2236361FE23A36111
S1130340236843F012032360404BE363236C43F4BC
S1130350803343F0B40323643D4B4FF400321A60FE
S113036000F00EFE10A9384600F062FE304600F0A0
S11303701DFC18BB03A800F043FE079B43B10320F8
S113038000F014FC50BB032000F010FC002835D111
S1130390032000F00BFC002841D1402300222D490A
S11303A0284608F00CFC4FF0AA422223CDE9002392
S11303B0284608F0A4FB284617B0F0BD264C274970
S11303C0206808F09DFA08F03FF808F03EF8119B09
S11303D0109A2349206808F093FACBE71E4C1F4972
S11303E0206808F08DFA08F02FF808F02EF8079B23
S11303F0DA691C49206808F083FAC4E7164C1749E7
S1130400206808F07DFA08F01FF808F01EF8079A33
S11304101369D2681449206808F072FAB8E70E4CE0
S11304200E49206808F06CFA08F00EF808F00DF890
S11304300E49206808F064FAAFE700BF00350A00EF
S11304400082040000C000409C97000024000100CA
S113045000E100E0080B0020E80C002000970000F9
S11304600897000030970000689700008497000008
S1130470334B5B6B13F0040F3AD110B413F0200F1D
S113048011D0304A128892B2822A51D82C4AD469A7
S11304902C48028892B2511C89B201802A498C549A
S11304A0274A0421516013F0100F0ED0274A1288F6
S11304B092B2822A3FD82548028892B2511C89B24E
S11304C001802349895C1E4AD16213F4803F0CD019
S11304D01B4B4FF48032DA631E4B1B7813B91E4B4F
S11304E001221A701B4B00221A705DF8044B7047EE
S11304F0134BDB6913F0010F12D0144A002313804D
S113050013889BB2591C89B21180114AD25C0C4BDE
S1130510DA620422DA635A600E4B01221A707047C1
S1130520084B00221A80064B0422DA635A60704793
S1130530034AD269B4E7024AFF21D162C5E700BF8A
S113054000C00040701200205C0C00206E120020DD
S1130550D80B0020801200208112002038B51E4BD9
S11305601B7843B104461D4B1B7823B11C4B1B88DD
S11305709BB2632B03D91B4B1B78A3B938BD002551
S1130580164B1D7001231022174908F016FB2B4649
S11305902A462946204602F00BFD0028EBD00F4BDB
S11305A001221A70E7E70F4B00221A70032000F0B3
S11305B0FDFA0028E2D00D4C0D49206808F0A0F99E
S11305C007F042FF07F041FF054B1A8892B2094930
S11305D0206808F095F9D1E77F1200207E120020F0
S11305E06C1200207D120020C80B0020E80C0020B3
S11305F000970000AC97000012F0807F0FD00F48E6
S1130600018889B2013189B20180018889B26329E4
S11306100FD90B49002008700A490120087002F024
S1130620A84203F002031A4302D0074B01221A70B6
S11306307047054901200870F1E700BF6C120020E3
S11306407F1200207D1200207E120020F0B5A3B09E
S1130650FFF784FFAF4B1B780BB923B0F0BDAD4B54
S113066000221A70032000F0A1FA58B9AA4B1B7893
S1130670013B032B00F29D81DFE813F014002D00F1
S113068032017001A54CA649206808F039F907F039
S1130690DBFE07F0DAFEA04B1A78A249206808F0C6
S11306A02FF9E3E7032000F081FA30B99E4B0022D2
S11306B01A809E4B02221A70CFE7984C9849206802
S11306C008F01EF907F0C0FE07F0BFFE9849206845
S11306D008F016F9EAE7904CB4F80160E5780021D7
S11306E002917C2203A808F0F5FD2A46211D02A8E8
S11306F008F071FD032000F059FA002843D12B467D
S113070002AA8C490968002000F0CEFC04460320AC
S113071000F04CFA00284BD1032000F047FA0028DF
S11307206BD1854C2B46224682490968002000F093
S11307309DFC2A4602A9204608F0BCFD002840F092
S11307409A807C4A13682B4413604FF6FF739E42D1
S113075083D1032000F02AFA002840F08E80002183
S1130760084600F037FD0446002840F0A28003202C
S113077000F01CFA002840F08E80002000F0D0FC2D
S113078000F028FC69E7654C6549206808F0B8F872
S113079007F05AFE07F059FE0195664B1B6800935B
S11307A040F29F13721C6549206808F0A9F8A6E777
S11307B05A4F5B49386808F0A3F807F045FE07F084
S11307C044FE05F184030DEB030205F185036B443C
S11307D005F18601694411F8800C05F1870169442B
S11307E011F8801C0191009013F8803C12F8802CC1
S11307F05349386808F084F88EE7484F4849386808
S113080008F07EF807F020FE07F01FFE494B1B6836
S11308102B4400932B4622464A49386808F070F866
S11308207FE70134A5428CD9434B1A5D04F1880358
S11308306B4413F8803C9A42F3D0032000F0B6F9DD
S11308400028EED0354F3649386808F059F807F0DB
S1130850FBFD07F0FAFD04F188036B4413F8803CB8
S1130860354A125D01920093234632463649386870
S113087008F046F8D5E70024D4E7284C2849206836
S113088008F03EF807F0E0FD07F0DFFD2F4920688F
S113089008F036F863E7214C2149206808F030F865
S11308A007F0D2FD07F0D1FD2949206808F028F8A7
S11308B063E7032000F07AF918B91E4B00221A608E
S11308C0CBE6164D1649286808F01AF807F0BCFD67
S11308D007F0BBFD22461F49286808F011F8ECE731
S11308E00D4B587800F0FEFB0446032000F05EF93F
S11308F000283FF4B2AE094D0949286808F000F811
S113090007F0A2FD07F0A1FD22461349286807F06D
S1130910F7FFA2E6811200205C0C0020E80C002006
S113092000970000D097000070120020D80B002020
S1130930E0970000E00C0020480B0020F497000032
S1130940249800004898000088980000B49800009B
S1130950C4980000DC980000F89800001F4B1B7836
S1130960002B7FF47AAE0F2B05D81D4AAA21D1544F
S113097001339BB2F7E70123184A1370194A002187
S11309801180194A1370032000F010F900283FF475
S113099064AE164C1649206807F0B2FF07F054FD08
S11309A007F053FDAA2364221249206807F0A8FF28
S11309B053E6032000F0FAF860B10C4C0C492068AF
S11309C007F09EFF07F040FD07F03FFD0A4920684D
S11309D007F096FF094B00221A803EE67F120020A2
S11309E0C80B00206C1200207E120020E80C0020AE
S11309F000970000189900003C9900007012002034
S1130A0008B507F0E6FFFFF75FFC044B186007F03A
S1130A10ECFF024B1868FFF719FEF8E7E40C00201E
S1130A2038B501F05FF901210D4800F06FFD012296
S1130A301146002001F0C6F80A4C0225C4F8805083
S1130A4001221146002001F0BDF8C4F884500122AF
S1130A501146002001F0B6F8C4F88850002038BDD3
S1130A6030253E0000400E4008B5164B01225A6462
S1130A7001F060FE024668B9134B4AF6E851C3F828
S1130A809011D3F8981141F00401C3F89811002192
S1130A90C3F89011012A0DD90C4A136A23F44413A4
S1130AA043F488131362A2F58042136843F48073FD
S1130AB0136008BD044AD2F8643143F40053C2F809
S1130AC06431E9E700000E4000300E4000400E4063
S1130AD010B58AB000230693079308930993254B16
S1130AE00693254906A802F03DFA244B186030B15C
S1130AF00023059305A908F05EF808B1FEE7FEE7B8
S1130B001E4C1F4A1F4B1968206802F03BFC002151
S1130B10206807F063FE00B1FEE71B49174B186815
S1130B2002F05CFC00B1FEE74FF0FF3240F2FF330D
S1130B30CDE900234FF0FF324FF0FF330F4908682F
S1130B4007F0DDFF00B1FEE7104B1B88ADF8103055
S1130B50ADF80C3004A9094B186807F0B8FF00B1D0
S1130B60FEE703A9054B186807F0C7FF00B1FEE7CD
S1130B700AB010BD398400001B8400001008002056
S1130B80258400000008002007001100009C0000DC
S1130B9082B0054B019302AB03EB800050F8043C98
S1130BA0186802B0704700BF1008002003460B4AC3
S1130BB0107828B10A4A12789A4202D2002000E042
S1130BC00120084A12783AB1074A127842FA03F32C
S1130BD013F0010F00D10020704700BFFE08002071
S1130BE0FD08002082120020FC08002008B5084BF4
S1130BF001221A70074B00221A70074B04221A7044
S1130C00064B1F221A7002F0CBF8054B186008BD82
S1130C10FE08002082120020FD080020FC080020AD
S1130C20E80C002008B50121034800F06FFC07F030
S1130C30B4FB00F075F808BD00350A0008B50121C1
S1130C40014800F063FC08BD00350A002DE9F041BD
S1130C5080460F4601F109050026344604E05B2175
S1130C60082000F05BFB0134AC4233D2052C1BD8C6
S1130C7001A353F824F000BF5F0C0000910C0000A6
S1130C80C50C0000990C00009D0C0000A10C000094
S1130C90FBB20433D9B2E3E78021E1E70021DFE7C7
S1130CA0731C3146DEB2DBE7BB1DA3420CD0FB1D37
S1130CB0A3420BD007F10803A34209D0A31F18F8DD
S1130CC00310CDE7D121CBE75A21C9E75A21C7E761
S1130CD05D21C5E70020BDE8F08100BF00B583B009
S1130CE000220092019202218DF80010054807F0BD
S1130CF0C1FB019008216846FFF7A8FF03B05DF827
S1130D0004FB00BF006A1800014B1022DA60704730
S1130D1000A00044014B1022DA60704700A0004696
S1130D2070B588B00DF1040C374C0FCCACE80F0053
S1130D3094E807008CE807000121344800F0E6FB42
S1130D40334E0121304600F0E1FB01258DF81250AD
S1130D50304B0393304C01A9204607F001FC2B468D
S1130D6004220621022001F017FC00232A46072151
S1130D70022001F011FC2B4604220821022001F07C
S1130D800BFC2B4604221146002001F005FC234BEA
S1130D90A3670B2363674FF4487002F0BFF8FFF7B3
S1130DA0B3FF142002F0BAF8FFF7B4FF232002F0D7
S1130DB0B5F8FFF7A9FFB921204607F01BFCFFF7A0
S1130DC0A9FF00231A460621022001F0E5FB0023B7
S1130DD01A460721022001F0DFFB2B4600220821DE
S1130DE0022001F0D9FB2B4600220421104601F019
S1130DF0D3FB204601F0BAFC0021A16761673046AD
S1130E0000F084FB08B070BD049C000000350A00AB
S1130E100052040000127A00000401400B0B000B86
S1130E2008B500F087F8124A0AE01068516850F8D3
S1130E30230041F82300013391688B42F5D30C322F
S1130E400C4B9A4201D20023F6E70B4A08E01168E2
S1130E50002041F82300013351688B42F7D3083254
S1130E60064B9A4201D20023F6E7FFF7F3F900BFDD
S1130E70B0C90000BCC90000BCC90000BCC9000066
S1130E800048704700F04902114BD3F8943003F046
S1130E900703023B032B0DD8DFE803F0050F02081C
S1130EA00C4B18680BE00C4B186808E00B4B1868E7
S1130EB0400804E0094B186801E04FF40040044B7B
S1130EC0D3F80031C3F304230133B0FBF3F07047CC
S1130ED000400E401C0800202008002014080020B8
S1130EE008B5FFF7D1FF054BD3F80831C3F3082346
S1130EF00133B0FBF3F0024B186008BD00400E4014
S1130F0018080020014B1868704700BF2008002013
S1130F1008B5064B1860064BD3F8943003F007036A
S1130F20022B00D008BDFFF7DBFFFBE72008002001
S1130F3000400E40044B054A9A60D3F8882042F4DE
S1130F407002C3F88820704700ED00E00000000044
S1130F50014B1868704700BF1C080020BFF34F8F77
S1130F600549CA6802F4E062044B1343CB60BFF343
S1130F704F8F00BFFDE700BF00ED00E00400FA055D
S1130F8008B5114BD3F82828A2F17E63A3F5843366
S1130F90B3F5104F11D211680C4B994210D10C4B80
S1130FA01B781BB1022B01D0002008E0D3699847BD
S1130FB028B9074B01221A7001E04FF4817008BD73
S1130FC04FF48170FBE700BF0000E10F07B0CD5E76
S1130FD08312002008B54FF0005340F202221A8019
S1130FE04FF20F025A80054A01239360136823F4D9
S1130FF0E06343F480631360FFF7B0FF00500E40DA
S113100008B50A4BD3F82828A2F17E63A3F58433EC
S1131010B3F5104F09D2126BA2F17E63A3F58433AA
S1131020B3F5104F01D25368984708BD0000E10F93
S113103008B50D4BD3F82828A2F17E63A3F58433B9
S1131040B3F5104F0AD2126BA2F17E63A3F5843379
S1131050B3F5104F05D29368984701E04FF48170BF
S113106008BD4FF48170FBE70000E10F38B50D4C6B
S1131070D4F82848A4F17E6CACF5843CBCF5104F40
S11310800AD2256BA5F17E64A4F58434B4F5104F1F
S113109005D2EC68A04701E04FF4817038BD4FF4ED
S11310A08170FBE70000E10F38B50D4CD4F82848F7
S11310B0A4F17E6CACF5843CBCF5104F0AD2256BD0
S11310C0A5F17E64A4F58434B4F5104F05D22C69DF
S11310D0A04701E04FF4817038BD4FF48170FBE705
S11310E00000E10F08B50D4BD3F82828A2F17E6368
S11310F0A3F58433B3F5104F0AD2126BA2F17E63C9
S1131100A3F58433B3F5104F05D25369984701E032
S11311104FF4817008BD4FF48170FBE70000E10FCC
S113112000B583B001900F4BD3F82828A2F17E6359
S1131130A3F58433B3F5104F0CD2126BA2F17E6386
S1131140A3F58433B3F5104F09D29369012101A8A3
S1131150984701E04FF4817003B05DF804FB4FF44D
S11311608170F9E70000E10F10B50A4BD3F8284865
S1131170A4F17E63A3F58433B3F5104F04D2236B3B
S11311802BB15B6A984701E04FF4017010BD4FF436
S11311900170FBE70000E10F08B50D4BD3F82828D8
S11311A0A2F17E63A3F58433B3F5104F0AD2126B18
S11311B0A2F17E63A3F58433B3F5104F05D2936A8D
S11311C0984701E04FF4017008BD4FF40170FBE74C
S11311D00000E10F30B5E1B0124BD3F82838A3F189
S11311E07E63A3F58433B3F5104F15D20C464FF448
S11311F0C0726946FFF7B8FF054678B921466846CC
S1131200FFF7CAFF40F201239842F7D040F20323CC
S1131210984203D0054601E04FF40175284661B0B9
S113122030BD00BF0000E10F0346064A10680344C6
S1131230054A934202D8034A136070474FF0FF30C7
S1131240704700BF240800200000042008B50121D5
S1131250294800F05BF9012304220221052001F052
S11312609BF9002001F08CF90121244BC3F81018DC
S11312700A46042000F0A6FC214800F005FB214B9F
S1131280D3F8F02042F00102C3F8F020D3F8FC2098
S113129042F08072C3F8FC20A3F55D431A4A1A6039
S11312A000F5D52000F2FC40C008184BA3FB003029
S11312B0800A0138164B18610222C3F8F0204FF45B
S11312C08072C3F804234FF06043124AC3F8B02F6E
S11312D0114AC3F8802ED3F8002E42F48072C3F86A
S11312E0002EFF2283F82020D3F8002E22F48072EF
S11312F0C3F8002E002008BD00350A000080144207
S113130006000E0000ED00E0FF03004017916502A7
S1131310000004E055CEACC5090001004FF0604365
S1131320D3F8803E13F0010F01D1112070470E4A0B
S1131330D2F8FC3043F08073C2F8FC304FF06043C5
S1131340D3F8002E4FF0010C0CFA00FC42EA0C0218
S1131350C3F8002E53F82030002BE8D04FF0604340
S113136003F820100020704700ED00E0F8B5194B99
S11313701F6EDB6E1F4002D40125002402E0FEE74D
S113138001346D00072C24D83D42F9D0114B9D66E1
S11313902301114AD358002BF2D002EB0416B16892
S11313A00131B16072682046984780F00100C0B2F4
S11313B0737B012BE4D10028E2D0084B03EB4413E8
S11313C01A7B6FF341021A731A7F6FF341021A7783
S11313D0D6E7F8BD00200E40EC0D0020EC0C0020F8
S11313E0074BDB6B13F0400F04D1064BD3F8C83026
S11313F0002BFAD1024B5868C0F30140704700BF7C
S113140000300E400000C6430C4B984205D90C4BEB
S1131410984210D801210A4601E000210A46094BEE
S11314201A64094AD2F8003123F0807343EA016355
S1131430C2F80031704702210122F0E70048E801B8
S11314400090D0030000C84300400E40014B1868D0
S1131450704700BF28080020114B5B68002300E0A0
S11314600133042B0CD80F4A02EBC30292F804C0D8
S1131470CAB29445F4D10B4A52F833208242EFD3D6
S1131480052B0BD0074A02EBC3035979044A53686E
S113149023F0407343EA0163536070470321F5E787
S11314A000000E40709C000008B5FFF7EDFC044BF3
S11314B0D3F80031C3F3042303FB000008BD00BFCD
S11314C000400E4010B5084B1C6CA4B241F67132BA
S11314D01A64FFF7D5FC0021FFF7BEFF14B1024BDD
S11314E000221A6410BD00BF00000E4010B5064B68
S11314F01C6CA4B241F671321A64FFF7ADFF14B14B
S1131500014B00221A6410BD00000E4010B4C0F359
S11315100323013B092B21D8DFE803F00508202031
S113152030232620292D0024164A01E00024164ADF
S1131530C0F3043054B1134BD3F8443113F0010F0A
S113154004D1104BD3F840311C42FAD102F142438A
S113155003F5801300EBC300800001605DF8044BC9
S113156070470124094AE3E71024094AE0E74FF4ED
S11315708034084ADCE70024074AD9E70024074AF4
S1131580D6E700BF00400E40C0400E40E0400E4091
S1131590E8400E40F0400E4050410E40B0400E4036
S11315A0C0F30313013B092B6BD8DFE803F0050BF1
S11315B0111B6A6A2127415F334BD3F80001C0F342
S11315C004207047304BD3F81401C0F30420704753
S11315D02D4BD3F80031C3F300630133012098404D
S11315E001387047284BD3F80C01C0F3082070472A
S11315F0254BD3F80801C0F308207047234B9842C9
S113160004D0234B98420AD0002070471E4BD3F8D5
S1131610203103F00F0301209840013870471A4B22
S1131620D3F82031C3F301130120984001387047E7
S1131630184B984207D003F5B01303F58053984232
S11316400AD000207047104BD3F82831C3F301139C
S113165001209840013870470B4BD3F82831C3F36D
S11316600123043301209840013870470A4B984203
S113167001D000207047044BD3F8300100F0030080
S113168070470020704700BF00400E4080061600DF
S113169080162E0090171A00A009140000F00F0005
S11316A00138072865D8DFE800F0041B2A643E4DA2
S11316B064553B4BD3F8943003F00703023B052BEE
S11316C00CD8DFE803F0055803070B090220704724
S11316D0042070470B2070470C207047052070478A
S11316E02F4BD3F8803003F00703022B45D0042B93
S11316F045D0012B01D00120704703207047284BAF
S1131700D3F8843003F00703013B032B09D8DFE847
S113171003F002380604032070470A2070470620AD
S11317207047012070471E4BD3F8883003F007033D
S1131730022B28D0042B28D0012B01D00120704784
S113174003207047164B1B6F13F001031FD003B324
S113175009207047124BD3F85C3103F03003202B7F
S113176019D0302B19D0102B01D00120704707203D
S113177070470020704703207047022070470A20FA
S1131780704702207047022070470A2070470720E4
S1131790704701207047042070470820704700BF3D
S11317A000400E4010B50446FFF778FF1B4B9C42E7
S11317B012D01B4B9C4215D01A4B9C4206D00138C8
S11317C0032828D8DFE800F014171D1A164BD3F8A5
S11317D0800000F00700F2E7134BD3F8840000F018
S11317E00700ECE7104BD3F8880000F00700E6E7A9
S11317F006F057FE10BDFFF7ABFBFBE706F054FE07
S1131800F8E7FFF741FB084BD3F80031C3F300635B
S11318100133D840EEE70020ECE700BF03002000CE
S11318200500240002001E0000400E4008B50748D1
S1131830FFF734FF072804D0092805D1FFF724FB5C
S113184003E0FFF703FE00E0002008BD06000E00E1
S113185008B10020704710B504460A48FFF71EFF80
S1131860072805D0082809D0042804D0204610BD34
S1131870FFF7ECFDFBE7FFF745FBF8E7FFF714FE86
S1131880F5E700BFB800320038B500F47813B3F5BB
S1131890B01F00F0938005463BD8B3F5402F00F00D
S11318A0828010D9B3F5801F00F0AA80B3F5A01F81
S11318B027D15748FFF776FF564BD3F8303103F062
S11318C00303D8401CE0B3F5802F61D005D9B3F5EC
S11318D0202F14D1FFF7D8FA12E0002B55D0B3F51E
S11318E0003F0AD1FFF7D0FA4A4BD3F80831C3F3CB
S11318F008230133B0FBF3F002E0002000E00020F5
S113190038BDB3F5602F02D1FFF790FFF8E7002050
S1131910F6E7B3F5381F5BD00ED9B3F5481F72D084
S1131920B3F5781F21D1FFF7AFFA0446284606F035
S1131930DBFDB4FBF0F0E3E7B3F5001F52D006D9AA
S1131940B3F5101F0FD13248FFF72CFFD8E7B3F5DA
S1131950D01F4BD0B3F5F01F03D12F48FFF722FF60
S1131960CEE70020CCE70020CAE7B3F5401F0AD138
S11319702A48FFF717FF274BD3F82831C3F3012375
S11319800433D840BCE70020BAE7FFF77DFAB7E795
S1131990FFF77AFA1F4BD3F80C31C3F30823013352
S11319A0B0FBF3F0ACE7FFF76FFA1A4BD3F814313E
S11319B0C3F304230133B0FBF3F0A1E71648FFF7A8
S11319C0F1FE144BD3F8203103F00F03D84097E70E
S11319D01148FFF7E7FE0F4BD3F82031C3F301138F
S11319E0D8408DE70D48FFF7DDFE89E70B48FFF788
S11319F0D9FE084BD3F82831C3F30113D8407FE74D
S1131A00FFF724FD7CE70020FFF722FF78E700BF03
S1131A100500240000400E4002001E0003002000C8
S1131A20014B1880704700BFF2080020014B18805A
S1131A30704700BFF008002004281ED8DFE800F03B
S1131A40180312080D000E4B186AC0F30800704703
S1131A500B4B186900F07F007047094B986900F040
S1131A607F007047064BD3F89C00C0F30A00704710
S1131A70034B986B00F07F0070470020704700BF55
S1131A8000400E4038B50C46042813D8DFE800F0B7
S1131A9043032F132100C1F30804274BD3F86838FC
S1131AA0002BFAD1254A136A23F4FF7323F00103B0
S1131AB02343136238BD01F07F041F4BD3F8603811
S1131AC0002BFAD11D4A136923F07F0323431361CA
S1131AD0F0E701F07F04184BD3F86438002BFAD1F7
S1131AE0164A936923F07F0323439361E2E7134D7E
S1131AF0D5F890306B6A23F0300343F010036B6227
S1131B00C1F3C31006F0EAFC2A6B0D4B13402343C8
S1131B1003432B63CEE74F2928BF4F24064BD3F84A
S1131B207438002BFAD1054A936B23F07F03E4B297
S1131B301C439463BEE700BF0020C84300400E402E
S1131B4000F8FF0F134B5B6A13F0300F09D0202904
S1131B5014D0302915D009B10F4A04E04FF44002E3
S1131B6001E04FF440020B4BD3F8903032EA030308
S1131B70F9D112F4800F07D1012070474FF400020D
S1131B80F1E74FF44002EEE7024BD3F8A000C0F3B4
S1131B908020704700400E40FF33E107022801D047
S1131BA00120704710B529B1054B4FF48064C3F888
S1131BB0A84059660AB9012010BDFFF7C3FFFBE72F
S1131BC000400E4070B5042800F28580DFE800F084
S1131BD0484250033C00022301250024AC4600295E
S1131BE067D002284AD000213B4B1D663B4B23445F
S1131BF09B001B68002BF9D0002A6CD0374C64443E
S1131C00A4002368002BF9D0022864D1002962D0F3
S1131C10314B5B6A13F0010F46D001222021FFF7FC
S1131C20BDFF0220FFF708FF064601220021022023
S1131C30FFF7C8FF31460220FFF724FF264B1D663D
S1131C402368002BFCD046E02023102504244FF009
S1131C50050CC4E78023402506244FF0070CBEE79B
S1131C604FF400734FF4807508244FF0090CB6E765
S1131C700823042502244FF0030CB0E7164B5B6ADB
S1131C8013F0300F0ED1164BDB6B134B5B6A13F062
S1131C90010FA9D0104E736A23F0300343F01003F0
S1131CA07362A1E700219FE700210220FFF74AFFAA
S1131CB0B7E709490B66084BD3F890100123A340FA
S1131CC01942F8D13AB1044BD3F89020012303FA16
S1131CD00CF31A42F7D170BD00400E408004F2109C
S1131CE000300E4038B5FFF70DF90446002100F02E
S1131CF003FA1648FFF788FB012211460220FFF77A
S1131D0061FFFFF7DFFB4CB1114BDB6B13F0400FAE
S1131D1004D1104BD3F8C830002BFAD10E4B022259
S1131D205A67FFF7B1F8FFF76FFBFFF7D9F80546DD
S1131D30FFF756FB01462846FFF7D8FB04B138BD30
S1131D400121002000F0D8F9F9E700BF0148E801BB
S1131D5000300E400000C64300400E4070B50446FB
S1131D601120FFF79BFC012200210220FFF72AFF2C
S1131D70237C022B2AD00022154E736A23F0010320
S1131D80134373622278134BC3F8A024A288637AA6
S1131D9043EAC223F362356B05F07F65E38845EAC5
S1131DA0C325A37A1D43207A45EAC01506F096FBA5
S1131DB005433563627BA37B1B0143EA0233E27B69
S1131DC01343227B43EA0243736370BD0122D3E7CA
S1131DD000400E400000C84338B505461120FFF707
S1131DE05DFC0D4A916B0D4C0C4029780C436B78CB
S1131DF044EAC324AB7844EA0364EB7844EA03245A
S1131E00936BA34200D138BD012200210846FFF79D
S1131E10D9FE014B9C63F6E700400E4080E4FFF8D6
S1131E20074BDB6B13F0400F04D1064BD3F8C830DB
S1131E30002BFAD1024B5868C0F30140704700BF31
S1131E4000300E400000C6431A48C26CC2F303229D
S1131E50194B1B8803F1280103EB5103283301328A
S1131E6002EB8201B3FBF1F3013B072B28BF0723ED
S1131E70C16C21F0EE6141EA036343F48013C3644F
S1131E800E4BB3F90030002B13DB9BB203F1280196
S1131E9003EB51032833510801EB4202B3FBF2F385
S1131EA0072B28BF0723026D22F0700242EA0313B6
S1131EB00365704700300E40761200207212002035
S1131EC0024B1880024B1980704700BF7612002025
S1131ED07212002010B1012804D07047034B044A49
S1131EE09A657047014B034A9A65704700300E406B
S1131EF077402057372110B71A4BD3F830320329D3
S1131F0029D8DFE801F002121518DBB24AB91B0325
S1131F1033F4704121D11448C16E21F47041194346
S1131F20C166012A09D001207047C3F30723EDE7F6
S1131F30C3F30743EAE71B0EE8E71B0333F47042DD
S1131F400DD10949D1F8EC2022F470421343C1F8B1
S1131F50EC300120704700207047002070470020BB
S1131F60704700BF0081E00F00300E401B02A2B199
S1131F7001221343B3F5007F4DD022D8B3F5807FFF
S1131F8042D00CD940F20112934215D1294BD3F817
S1131F9024321A0EC3F3074310E00022E9E763B3C7
S1131FA0012B06D1234BD3F82432C3F30722DBB22F
S1131FB004E00022134601E00022134603600A6095
S1131FC07047B3F5407F2DD040F20132934206D1E1
S1131FD0184BD3F828321A0EC3F30743EEE740F246
S1131FE00122934206D1134BD3F82832C3F30722BC
S1131FF0DBB2E3E700221346E0E70E4BD3F81C32D2
S1132000C3F30722DBB2D9E70A4BD3F81C321A0E0A
S1132010C3F30743D2E7074BD3F82032C3F30722B5
S1132020DBB2CBE7034BD3F820321A0EC3F30743DA
S1132030C4E700BF0081E00F134B9A6922F03F020E
S11320400378D3B104234178C9B102210B438178C9
S1132050B9B108210B43C178012900D000210B43F9
S113206001790B431343084A9361136823F4403303
S1132070417943EA0143136070470023E3E70021F9
S1132080E4E70021E6E700BF00300E40174BDB6BAE
S113209013F0400F29D170B504460D46FFF7C0FE7A
S11320A0A04218D0124BD3F80031FEF7EDFE0646DD
S11320B0022C11D0C4F10202102393400B4A136185
S11320C045B1D36B13F0400F04D10A4BD3F8C83099
S11320D0002BFAD124B170BD0221FFF707FAE9E71A
S11320E000213046FFF702FAF5E7704700300E4052
S11320F000400E400000C64338B5114BDB6B13F0B3
S1132100400F0BD10C4650B10E4B1B7813B10E4B44
S113211098420FD921460020FFF7B8FF38BD0B4B7A
S1132120D3F80051C5F304250135FEF7ADFE05FBD8
S113213000F0E9E721460220FFF7A8FFEEE700BF21
S113214000300E406C0E0020002D310100400E4086
S113215010B42C4B5A6B4AF6E8515963294B9B6FC8
S113216013F0010FFAD1274B1B6C13F0030303D0B8
S113217025490124C1F8B44AD9B2814221D0032BA4
S113218000D01BB9431EDBB2012B21D91D4B9B6F21
S113219013F0010FFAD11B490B6C23F00303034323
S11321A00B64184B9B6F13F0010FFAD1003818BF62
S11321B00120154BC3F8B40A012A1FD05DF8044B63
S11321C070470028FAD1104B0022C3F8B42AF5E76F
S11321D00C4B4FF40021D9620A4B9B6F13F0010F93
S11321E0FAD108490B6C23F0030343F001030B6499
S11321F0044B5B6A13F4002FFAD0C7E7014B0022AB
S11322005A63DBE700300E400000C6432DE9F04F6F
S11322108DB000910192002309930A930B930693C6
S113222007930893039304930593654A1288ADF8C2
S113223008208DF80A30A0F5E163B3F5966F00F23B
S1132240AE800646B0F5E16F8CBF4FF001094FF048
S113225000096DD94FF4966A4FF4E164B6F5E16F65
S11322606BD9584BD3F8183208931A0E0592C3F35E
S113227007430893544DEF6CC7F301778DF808704A
S11322803B464A4603A906A8FFF770FED5F8EC3092
S1132290C3F301288DF8098043464A4604A907A8D8
S11322A0FFF764FE321B089B0599C91A02FB01F172
S11322B0B1FBFAF10B9119440B91DDF80CB0DDF888
S11322C018C0ABEB0C0502FB05F5B5FBFAF5099557
S11322D065440995DDF810E00798AEEB000404FBB3
S11322E002F2B2FBFAF20A9284180A94059A8A421C
S11322F059D38B4259D8A64559D3A04259D8AB4596
S113230059D3AC4559D8019B73B12F4BDB6D23F4E2
S1132310FE4323F0020343EA0123B6F5E16F16D925
S113232002221343284AD365009B93B9012037E066
S11323304FF4167A4FF4966490E7224BD3F8183290
S11323400893C3F307220592DBB2089392E70022B5
S1132350E7E7002239464846FFF7CEFD00B30122E5
S113236041464846FFF7C8FDD0B1A54238BF2546CF
S11323700995E72D28BFE7250995134B5B6E23F4D8
S1132380FF7323F0010343EA4503B6F5E16F04D973
S1132390012213430C4A536602E00022F9E70020AD
S11323A00DB0BDE8F08F0020FAE70020F8E7002028
S11323B0F6E70020F4E70020F2E70020F0E700BF92
S11323C0989C00000081E00F00300E4008B5214BBE
S11323D01A6FDB6C13F0010F09D012F0060F06D050
S11323E013281FD9143813281ED8082323E0194BA7
S11323F0DB6C13F0010F09D112F0060F06D1092886
S113240014D90A38092813D8082314E0114BDB6CBB
S113241013F001030FD012F0060F0BD1272817D8A1
S1132420082308E0042306E0102304E0042302E068
S1132430102300E00023013B1A0342EA032205496A
S1132440CB6C23F47F431343CB64FFF7FDFC08BD3F
S11324501023F0E700300E4008B5074BD3F880395D
S1132460064A136F23F0070303431367044B1888CA
S1132470FFF7ACFF08BD00BF0000C64300300E40AC
S11324807412002008B5084AD36E43F08073D366F3
S1132490064BD3F880391BB10420FFF7DDFF08BDDC
S11324A00020FFF7D9FFFAE700300E400000C643D2
S11324B038B5304B02229A639B6B03F00F039342AF
S11324C054D10446B0F90C10C3884A2B09D9B3F58A
S11324D0FA7F41D340F6C312934240D84FF00052E2
S11324E000E00022234BDB6C23F0405323F0010374
S11324F0002937DB01210A4313431E4AD364D2F86F
S1132500EC3043F44073C2F8EC30A2881A4B1A80C2
S1132510FFF7B8FFB4F90C102089FFF7D1FCA088AD
S1132520FFF754FFA07BFFF7D5FC0122114660881A
S1132530FFF76CFE0546D0B10E4AD36B43F48063BB
S1132540D3636078FFF704FEA37A202B0CD000221B
S11325500A4BC3F894270AE04FF08052C2E74FF0C9
S11325604052BFE70021C6E70122F1E700252846D3
S113257038BD00BF00300E40741200200000C64376
S1132580044AD2F8443423F003030343C2F8443426
S1132590704700BF00A00040F8B504460D461E4633
S11325A017463AB1FBB100EB400109010122AA40F0
S11325B01D4B5A50072D1ED8A90004EB44031B01E0
S11325C007FA01F20F2000FA01F11848184405F047
S11325D0A0FF3FB9FEB104EB440424010122AA4048
S11325E0114B1A51F8BD00EB400109010122AA4028
S11325F00F4B5A50DEE7A5F108039B0004EB440C93
S11326004FEA0C1C07FA03F20F2199400948604471
S113261005F07FFFDDE704EB440424010122AA4016
S1132620034B1A51DEE700BF0CA0004604A0004093
S11326300CA0004408A0004002B97047F8B5044655
S11326400E46174603F00305036823F44073036042
S11326502A024FF4407105F06AFF2EB9124B9C42D6
S113266017D0124B9C4219D02368114B5A5D07FBBB
S113267002F26AB1A6EBC7031344013BB3FBF2F3C6
S1132680013B226812F0020F01D003B90123236138
S1132690F8BD0848FFF7F8F80646E5E70648FFF7EF
S11326A0F3F80646E0E700BF00C0004000C4004065
S11326B09C9C0000008204000092040038B505468A
S11326C00C46002303640B4BC3634A7882F0010277
S11326D000F1424303F58013DB0001339B001A60D1
S11326E00B7B8A684968FFF7A7FF2178284605F025
S11326F02CFF38BDFFFF07000D4AD2F8E4309B00E1
S113270003F03C03D2F8E010C1F381110B43837052
S1132710D2F8E03003F03F034370D2F8E83003F01E
S1132720F003D2F8EC20C2F3031213430370704792
S113273000FF0FE0024BD3F8FC00000E704700BF0F
S11327400081E00F38B5054614460B4631B1013B14
S11327506400B3FBF4F31B026B6138BD0248FFF75E
S113276093F80346F3E700BF4041050040F6AA632F
S1132770C3600023036041F2050242608360436149
S1132780C364134A8264036643678367C367114B58
S113279098420BD003F58063984207D003F5806319
S11327A0984203D003F58063984201D10023036566
S11327B00023836503F1804303F58233984203D0F9
S11327C003F50063984201D10023C365704700BF3D
S11327D0F9FF01000000014038B5044606F0A2F9F3
S11327E0054DA446BCE80F000FC59CE80F0085E822
S11327F00F00002038BD00BF700E002047F6FF73A5
S11328009A4200F08480062900F2838070B5444B1C
S113281013F801E0BEF1020F7DD8424B03EBCE0169
S113282091F802C0BCF1010F38BF4FF0010C6046B3
S113283013F83E30012B26D03A4B03EBCE035C68F1
S1132840002C6AD0B4F90030934204DBB4F90230AE
S1132850934200DC1346A288FF2A2CD000212826AC
S1132860C8221D46D21A92FBF6F20A4412B22D4B2C
S113287003EBCE0393F801E0964501DD002A2FDA3D
S11328800EF1FF322CE0CB78A3EB0C0300249C4226
S11328900ED2191BA3EB5101224800EBCE00406875
S11328A030F91100904201DC0C46F0E74B1EEEE7D4
S11328B06344D8B230E0B4F90620B4F908600121C9
S11328C0CFE75C331849A1FB03139B09013212B211
S11328D0164696450FDD04EBC201898899420AD356
S11328E004EBC2018B68B1F9061001FB0533002B20
S11328F0E7DA0023E5E7013E04EBC604A2889A4226
S113290000D31A46624500D31046C0B204E0FF204B
S1132910704700207047002070BD0020FCE700BF16
S1132920A09C0000700E0020D34D6210062975D8BB
S11329303E4B5B5C022B73D83D4911F833100129DF
S113294023D0002A6ED010B4394901EBC3014C687E
S1132950002C69D0201D364901EBC30189789142CE
S11329602FD2334901EBC301C97891422ED93049A2
S113297001EBC30393F801C00CF1FF3C5FFA8CFC3C
S1132980A388FF2B25D0002327E0294901EBC301AD
S1132990C978914200D20A46254800EBC3008078EA
S11329A001282CBF121A02F1FF32D2B2091A8A424C
S11329B000DD00221E4901EBC3035B6833F91200FA
S11329C07047B4F902005DF8044B7047B4F9000095
S11329D0F9E7012301E00133DBB2634504D2591C5A
S11329E030F831109142F6D24FF47A7101FB02F2C1
S11329F000EBC3004368D31AB0F9022002EBD27192
S1132A0003EB610393FBF2F3B4F900009842DADBC1
S1132A10B4F902009842D6DC18B2D4E705487047EE
S1132A2004487047044870470248CCE7A09C000063
S1132A30700E00200080FFFF0CFEFFFF08B5034866
S1132A40FFF7CAFE012006F090F808BDA89C00001C
S1132A5070B582B005460C4606F089F808B102B09C
S1132A6070BD6946284606F05FF800B1FEE762686B
S1132A700F4B9A420ED80F4C9DF8003022789342A7
S1132A80EDD00E2B08D164262146284606F039F8ED
S1132A9038B1FEE7084CEFE7284600F089FC06460B
S1132AA0F2E73146284606F041F80028D7D0FEE781
S1132AB0FFC99A3B2C0800203408002070B58AB066
S1132AC004460D4628220021684606F003FC032331
S1132AD000934FF41653ADF8063002228DF8082007
S1132AE001238DF809308DF80A208DF80B3064230A
S1132AF003934FF47A7306936946204606F0A3F8CD
S1132B000646C0B90C3D102D7CD8DFE805F0091B42
S1132B1021272D33393F454B51575D63696F75004C
S1132B203949204606F095F806462EB9FF2120467D
S1132B3006F08DF8064616B1204606F086F83046B3
S1132B400AB070BD3149204606F083F80646ECE72A
S1132B502F49204606F07DF80646E6E72D49204633
S1132B6006F077F80646E0E72B49204606F071F8B0
S1132B700646DAE72949204606F06BF80646D4E70C
S1132B802749204606F065F80646CEE72549204643
S1132B9006F05FF80646C8E72349204606F059F8D0
S1132BA00646C2E72149204606F053F80646BCE72C
S1132BB01F49204606F04DF80646B6E71D49204653
S1132BC006F047F80646B0E71B49204606F041F8F0
S1132BD00646AAE71949204606F03BF80646A4E74C
S1132BE01749204606F035F806469EE71549204663
S1132BF006F02FF8064698E71349204606F029F810
S1132C00064692E7012697E7489F0000489E000089
S1132C10889F0000289F0000E89E0000889E000016
S1132C20C89E0000689E0000089F0000A89E000047
S1132C30689F0000289E0000089E0000E89D000098
S1132C40C89D0000A89D0000889D000000B587B0C5
S1132C5000230193029303930493059302238DF8B5
S1132C6004300D4B029306228DF80C2001238DF8BD
S1132C700D300C218DF80E108DF812208DF81330C4
S1132C800D238DF8143001A94FF0FF3005F09BFFA0
S1132C9007B05DF804FB00BF006A180000B585B0FA
S1132CA0054BEC460FCB8CE80F006046FFF700FCA9
S1132CB0002005B05DF804FB609D000010B586B0EF
S1132CC00DF1040C144C0FCCACE80F002368ACF8E5
S1132CD00030124BD3F8B43013F4002F08D0104B4B
S1132CE01B884FF6FF72934207D140F2431304E06E
S1132CF00A4BD3F8B830C3F30803ADF80A300948D7
S1132D00FEF706F901A8FFF729F83220FEF78EFE38
S1132D10002006B010BD00BF709D00000081E00FD0
S1132D200001E00F00F0490200B583B0074B1B68B7
S1132D30019320238DF8043001A8FFF74DF83220C9
S1132D40FEF76EFE002003B05DF804FB849D0000D6
S1132D506FF0040307E003F00F010A4A0A44A021BC
S1132D60117601335BB2322B09DC002BF3DB03F168
S1132D70604202F56142A02182F80013F1E70020CD
S1132D80704700BFFCEC00E010B5044605F0B1FB51
S1132D90024B1C6005F0B1FB002010BD900E00201A
S1132DA010B505F0A6FB034B1C6805F0A6FB2046F6
S1132DB010BD00BF900E002008B5044B1868002316
S1132DC002221946806804F027FE08BD94080020FA
S1132DD0BFF34F8F0549CA6802F4E062044B134302
S1132DE0CB60BFF34F8F00BFFDE700BF00ED00E0F5
S1132DF00400FA05BFF35F8F074B5A6A22F480324E
S1132E005A62D3F8942022F00102C3F89420BFF34D
S1132E104F8FBFF36F8F704700ED00E070B586B041
S1132E20002305930493FFF7E5FF4FF0005005F0EE
S1132E30C0FD36490B68400000F03E0040F0985059
S1132E4040F00110324AC2F898304FF00054C2F8F2
S1132E509C40C2F8A00001330B602E4D2E4CA542BD
S1132E6013D1BFF35F8F2A4B0522C3F894205A6A0B
S1132E7042F480325A62BFF34F8FBFF36F8FBFF3B8
S1132E804F8FBFF36F8F06B070BD03AB019304ABDC
S1132E90009305AB2A1B2946204605F06EFD0398D6
S1132EA0C208072800D82022049B5B1BB3FBF2F363
S1132EB0012101FA03F3DBB2013BDBB2059E013DC4
S1132EC0AD1BB5FBF2F50D44AB40DBB2A41BB4FB68
S1132ED0F2F401FA04F4013CE4B21C4305F069FD88
S1132EE00A4D2A68430003F03E0343EA042343F0F7
S1132EF0407343F001130649C1F89820C1F89C605F
S1132F00C1F8A03001322A60ABE700BF940E002064
S1132F1000ED00E0040900200409002010B5044677
S1132F20FDF7DEFF0C4BA3FB0023B0F57A7F0FD334
S1132F309B090A4AB2FBF3F2094B984208D84FF4B2
S1132F407A7304FB03F3B3FBF2F39808032B00D862
S1132F5010BDFDF7DDF8FBE7D34D621040420F00D2
S1132F60E7CD9A3BF8B50D4610B900242046F8BDCC
S1132F700E4F3E68002EF8D100F036F804460028C3
S1132F80F3D0386000F07CF8204605F047FD38B1F6
S1132F9030463E6000F074F8204605F03AFDE4E760
S1132FA0002DE3D02046A847E0E700BF980E00209C
S1132FB010B506F027F8044618B9034B01215B68E5
S1132FC09847204610BD00BF48080020431E033325
S1132FD006D8044B984228BF1846642838BF64209A
S1132FE0704700BF40420F00F8B5054605F081FA6E
S1132FF00F4B1E68074626B9384605F07EFA34465C
S113300011E0B4688CB194F810C01CF0010F0CD11D
S113301095E80F004CF0010C84E80F0084F810C010
S1133020384605F06AFA2046F8BD3668E3E700BF83
S11330304008002038B505460C4641B10B6833B151
S11330401B68013303D0CB680BB18B684BB905F017
S113305057FEBDE838404FF492724121002000F041
S1133060E1B9084600F09EFC0023044A85F8DC30F0
S1133070C5E92343C2E9003338BD00BF100900206D
S113308010B5044618B9054B054A136010BD03F08A
S113309021FAD4F89830002BF6D1F4E7FF89000028
S11330A03C08002010B50C4603F052FA054B0021F1
S11330B05B68032098471CB104F014F90128FBD184
S11330C010BD00BF4808002008B502460868FFF795
S11330D07DFF08604868FFF779FF48608868FFF75C
S11330E075FF8860C868FFF771FF0B69C860581CDA
S11330F003D00B48834228BF03460B614B69581C1D
S113310003D00748834228BF034688694B61FFF711
S11331105DFFBDE808408861104603F025BF00BF8D
S113312040420F002DE9F84FD0F8903006460F4684
S113313013B1038B8B4244D0D6F88CB0BBF1000F93
S113314042D0DBF80830002B3ED0DBF80C1000290D
S11331503AD0D6F8A0A0BAF1000F38D04FF0000949
S11331604D46C84601E0DBF8083005EBC50203EB29
S113317082040135E389BB4214D8238ABB4230461A
S113318010D3B4F91220B6F924309342A04653DD8B
S113319096F8D010FFF732FB337D834281464BD93A
S11331A0DBF80C108D42DED3B8F1000F3ED00023C3
S11331B0424619463046D0473783C6F8908086F891
S11331C0D9900020BDE8F88F0320BDE8F88FD146E0
S11331D05446524647F6FF7504EBC40803EB8808CF
S11331E0B8F80E30BB421BD8B8F81030BB4217D326
S11331F0B8F91220AA4207D14FF0FF093783C6F865
S1133200908086F8D990DCE796F8D0103046FFF726
S1133210F5FA337D834281464246EFD9DBF80C1040
S11332200134A14204D9DBF80830D5E70120C9E70D
S1133230002AFBD09046E1E7A046B8E72DE9F04725
S113324082B004468946164604F03EF83B4D08B168
S113325000236B602B68D4F88CA0D4F890700BB169
S113326053454BD04FF00008C5F8089004F03AF8E5
S1133270012836D12B68DAF800103A6813B11868BF
S1133280884246D0204605F0B1FEC5E900A7D4F82F
S1133290A0508DF80760002D42D000220DF10703E5
S11332A011462046A847204603F0C0FB0546B8F166
S11332B0000F00D08EB1B5FA85F040F2DE3240093D
S11332C0332100F0AFF83146204603F00BFD1C4BD0
S11332D005461B68394620469847284602B0BDE893
S11332E0F087012003F034F9164B00215B680320BA
S11332F0984703F0F7FF0128FBD1BBE76B68002B6D
S1133300B0D0BB42AED1AB68994514D04FF00108A0
S1133310AAE7696811B109689142B6D05968B1E762
S1133320217D94F8D930994228BF19463246204667
S113333003F050FBB7E70025CFE700BF10090020DA
S11333403C08002048080020F8B505460E4605F064
S1133350D0F8314607462846FFF7E4FE044620B17C
S1133360384605F0CAF82046F8BD03F095FF22461A
S113337031462846FFF762FF0446384605F0BDF89B
S11333802046F8BD084B10B4002A14BF14461C464E
S1133390064B1C6019B15DF8044B05F04BBB0846A5
S11333A05DF8044B704700BFFF8900003C08002013
S11333B013B50446694605F0B7FB204605F099FDB0
S11333C0FF28024606D09DF800102046FFF7AEFA0B
S11333D002B010BD0048FBE70080FFFF08B50B46B4
S11333E00249194005F0C9FB002008BD070011007F
S11333F007B54FF400730A49ADF806300DF1060223
S113340005F0DFFBBDF80630B3F5007F05D10228D7
S113341008BF002003B05DF804FB0120FAE700BFF9
S11334209C0E002008B550B90548064B01601A608F
S1133430054B1A68054B1A60186804F0E9FF08BDCB
S113344044080020A0100020980E00209C100020AA
S11334502DE9F0411B4A8AB001AC05460B4602F146
S1133460200C274610685168264603C60832624578
S11334703446F7D1002B08BF3B4610683060002764
S113348003F10C061C46384690B95FFA87F8218888
S11334904246284605F0EDFD50B9E18842462846EB
S11334A005F0F8FD20B942463146284605F004FEF1
S11334B00137032F06F1080604F10204E4D10AB02F
S11334C0BDE8F081BC9F0000F0B589B005460E460A
S11334D005F001FE044600BB06F10C070FCF01AC5A
S11334E00FC497E8070084E8070001A92846FFF7FE
S11334F0EBFD311D284605F02BFE044648B908496A
S1133500284603F0F3FC044618B9284603F08AFF62
S1133510044631682846FFF79BFF204609B0F0BDFA
S1133520B49F0000014905F056BB00BF957300002D
S1133530014905F050BB00BFA5730000014905F027
S11335404ABB00BFC5730000014905F044BB00BF7E
S1133550B5730000014905F050BB00BF3391000072
S1133560014905F04ABB00BF05750000014905F09B
S113357044BB00BFD97400000D4BD3F8E020D20344
S113358014D50C494FF48032C3F8E820C1F8EC207C
S11335909A6BD1B2C2F3072299679A6704229A6799
S11335A000229A679A679A679A679A67704700BF7A
S11335B00010084000100846F8B50C4C0D4617469C
S11335C0064604F096FF0123A36204232760666085
S11335D0A560C4F8E830064B4FF48072C3F880212C
S11335E004F08BFF0DB10223A362F8BD0010084064
S11335F000E100E0054B1860054B01229A6540F696
S1133600FF72196358635A65704700BFA810002001
S1133610001008402DE9F04F042A83B0054639D93B
S11336200B7883614B7883618B788361CB7883617A
S11336300068D5F808B06E6800F007000123063072
S113364003FA00F808F1FF3909EA0B07A2F1040AAA
S1133650A8EB0702924501F1040446F000560DD888
S1133660F0192146524605F0B6FD0AEB0B0248EA72
S113367009031A40AA6003B0BDE8F08F2146F0198F
S1133680019205F0A8FD019AA118AAEB08023046A0
S11336903A44E8E7013A032AEDD8DFE802F00B08E0
S11336A0050211F8013B836111F8013BAB6111F88C
S11336B0013BAB610B78AB6103B0BDE8F08F00BF99
S11336C038B50C46104B1546014668B10122C3F8C3
S11336D0B8200E482246FFF79DFF1DB10A4B042275
S11336E0C3F8B820002038BD64B1D3F89C20A242AE
S11336F084BF0122C3F8B820C3F898400222C3F85B
S1133700B820EAE70122FAE70010084090100840C8
S113371010B504F0EEFE184B184901229A65C3F85F
S113372088201A66164A5A660722C3F884200A803B
S1133730144900220A804FF4A021C3F8E81003F1D1
S1133740C0630446C3F8EC100F4B1A600F4BD3F858
S113375088305B020AD50E4B18680E4B4FF480027A
S1133760C3F88820416BA43001F062F82046BDE81C
S1133770104004F0C2BE00BF001008407A120020BE
S1133780680A002078120020A4100020004008409D
S1133790980E0020004008440D4B07221A800D4B60
S11337A000221A800C4B0121C3F8B810C3F89020F2
S11337B04FF40052C3F89400C3F8B420074BF0222E
S11337C01A6403F10073A0221A64FFF7A1BF00BFBB
S11337D07A120020781200200010084000000844EB
S11337E02DE9F041044688B1394E3A4F04F081FE88
S11337F03388394A03F07801032C054603F07F0C23
S1133800114453D13C6824B904F077FE0320BDE889
S1133810F08124F00104386820F00100A0424AD16C
S113382000223A6022886FEA42426FEA52428C4296
S1133830228036D1294CDFF8B8C02788ACF1800843
S11338403A46083A92B201F10800604528BF404662
S1133850082A04D9B0F900E0BEF1000F36DB22805B
S11338603B440C8888781E499B1ADBB2C4F30C04D1
S1133870CC6300F007003380CB66C1F88420FFF7E7
S11338807BFE04280DD1174BD3F88830164B1868EB
S1133890164B4FF48002C3F88820416BA43000F02B
S11338A0C7FF284604F029FE0020B0E7601E012867
S11338B098BF0C46AFE7094862440088A21A48BF83
S11338C0803208389042ADDC28469DE70146B8E7CF
S11338D078120020A4100020680A00207A12002028
S11338E00010084000400840980E002000400844A2
S11338F0E80A00200E490F4B0A881B880E4813441F
S1133900073B03F0780303440832987892B20A80A4
S113391000F0070009490428C1F8842004D101F506
S113392040514A681203FCD4054A1360704700BF33
S11339307A12002078120020680A00200010084043
S1133940A410002010B5054C206828B1C30701D489
S1133950FFF746FF0023236010BD00BFA410002022
S1133960084B4FF48032C3F8EC2003F17C43C3F8D6
S1133970E420D3F88030C3F30C03782B01D8FFF78D
S1133980FBBD704700100844431C08D0044AD2F819
S11339903C311B0C1B0480B20343C2F83C3170471A
S11339A000400840054BD3F8B400431C14BFC0F3D7
S11339B080700120A6223121FFF734BD0081E00F81
S11339C0034B1A689B88026083800020704700BF05
S11339D0F40800200F4B0628D3F8883104D183F46F
S11339E00013C3F340507047022805D113F4400F6D
S11339F00CBF01200020704750B9074AD2F8D40008
S1133A0010F0010005D083F48003C3F380507047A5
S1133A100020704700400E400081E00F0C4A52889D
S1133A20B2F5E16F94BFC8225A2210B594BF78242E
S1133A30502490428CBF172210220A70054A034674
S1133A40107818B19C422CBF0020012010BD00BF8B
S1133A50F40800200209002013B5234B1B780E2B19
S1133A6004463ED00DF10701FFF7D8FF1E2C8CBF92
S1133A701E4C1F4C9DF807304FF001028CBF0121F2
S1133A800021C4F8082170B1194A4DF60174C2F836
S1133A9004411B0202F1007243F44043C2F80431B2
S1133AA0144AA2F8D430134A134C92F8D83023F0B5
S1133AB00103034323F0020343EA4103DBB282F828
S1133AC0D83024786CB923F0040343EA800323F04C
S1133AD00803B2F8D440A2F8D64043EAC10382F8FE
S1133AE0D83002B010BD00BFF408002000400846E2
S1133AF000400844001F002186120020084B094A98
S1133B00D3F88831DB4303F4FE1343F40053B3FAD0
S1133B1083F30E33A3EB4313013B1370704700BFD1
S1133B2000400E400109002002280CD0062802D0D3
S1133B3020B100207047054B18787047034B187864
S1133B400430C0B270470720704700BF010900204D
S1133B502DE9F7433A4E3B4F96F8009015463A4A02
S1133B60D2F8C820B9F1020F0446884607EA0207D2
S1133B701AD147EA006788F80000002372882B6096
S1133B80B2F5E16F94BFC8225A2227F47F579442BA
S1133B9027F008079ABF380A00F47F5043F6C8702C
S1133BA0384303B0BDE8F083284A1278904228BF16
S1133BB0144604EB83030B70F4B1013CE4B24FF000
S1133BC030632B606A4601A9204605F0BDF8DDE9A3
S1133BD0002347EA03671E4B98F800101B7847EA56
S1133BE0823747F47F5747F008073BB90029194B40
S1133BF018BF4FF07F43C1E7164BE2E7164B174857
S1133C00B9F1060F08BF03462AB90029114B18BFA2
S1133C104FF07F43B2E7B2FA82F2C2F11F02D2B28E
S1133C209B5CDBB239B15A1ED2B2FD2A05D81B0601
S1133C3043F00403A2E7074BA0E74FF07F439DE75F
S1133C40F40800203F00C0E0001F0021010900200B
S1133C50871200200400000BB883E00FB083E00F4C
S1133C602DE9F3410446C820FFF7F6FE2B4B2C4EFA
S1133C7018780E2801D0FF2C05D1FF24347020467B
S1133C8002B0BDE8F08102282DD1072C204628BFC0
S1133C90072001284FF0000301AA0DF1030138BFEA
S1133CA00120FFF755FF05461E4B1F4FDDF804802A
S1133CB0C3F85881C7F8C8509DF8034034702046B3
S1133CC0FFF7CAFE194A4FEA082303F4E0631278A7
S1133CD043EA1863A7F8D030002AD0D1C7F8CC50F3
S1133CE0A7F8D230CBE7A0B9052C32BF00270127B3
S1133CF00420201A3B4601AA0DF10301C0B2FFF7CC
S1133D0027FF4FF48003054637B1094AC2F808314A
S1133D10CAE700273846ECE7064AF7E7F40800202C
S1133D200309002000400840001F002186120020E3
S1133D30004008460040084408B500F0C9FE094B9D
S1133D40094A002818BF1A46136823F47F115B0838
S1133D5003F4FE130B431360044B4FF00072DA615B
S1133D6008BD00BF00410840184108400040084019
S1133D7008B500F0ADFE064B4FF4001228B1C3F8AD
S1133D8000214FF000621A6208BDC3F81821F8E759
S1133D9000400844014B1868704700BFAC10002075
S1133DA0436C012B38BF01232DE9F0479A46464B5B
S1133DB0464F9B69464E474D03F4E073A3F5C0722A
S1133DC0804645485142514102685245434A0FD109
S1133DD014788C420CD198F8D0C03C78A44507D113
S1133DE098F815C03478A44502D1A888BDE8F087B6
S1133DF0B3F5C07FC0F800A011704AD1D8F8944040
S1133E0024B12368082B58D994F838400F21204650
S1133E1004F07CFFBAFA8AF3002852D0B0FA80F298
S1133E209B1A002BC6BFD840C3F10F094FF00F09EE
S1133E30504501D909F1FF39234B2004C3F8BC00D4
S1133E4003F1806340F6FF72C3F8B82003F10073F6
S1133E504FEA0921C3F8B81004F089FFA88000F0E4
S1133E60DBFB09F01F094FF4FA7304FA09F45C430D
S1133E7041F66A03B0FBF3F00A23B4FBF0F45C43AD
S1133E80174B1C6098F8D0303B7098F8153033709D
S1133E90ABE798F8D030062B06D1124B1B78002BD9
S1133EA00CBF9624C824B1E7022B08D00D4B1B7815
S1133EB0002B0CBFB424F024A8E70024A6E7322486
S1133EC0A4E74FF00F09B7E700600840000900209D
S1133ED0FF080020F4080020500800208912002068
S1133EE0AC10002087120020FF290DD00F4B104882
S1133EF0C3F850010B04090501F0F87103F4E02341
S1133F000B430C49C1F85031FF2A0DD0074B40F246
S1133F10F711C3F85011130103F4F87302F0070208
S1133F201343044AC2F8503100207047004008444B
S1133F300000F70100400846F8B5134B134E1F6804
S1133F40134D384600F0B0FD3378C4B2A34201D11A
S1133F502B78A3B1092C14D80E4B012C195D05D173
S1133F600D4B1B78022B01D141F0400101F00F02EF
S1133F7038460909FFF7B8FF002334702B7000207E
S1133F80F8BD0024FA21F1E7980E002085120020E4
S1133F9084120020E09F0000F408002038B5044695
S1133FA000F0E2FA142200212E4805F093F92E4B7A
S1133FB025781A782D49521B18BF01220A702268ED
S1133FC01A60C820A2889A80FFF746FD284BD3F8D0
S1133FD0C820284BFF211970274B2849062D03EAD6
S1133FE00203274A1AD14FF4EE40C2F824014FF4D9
S1133FF08A42C1F82421012243F08043C1F82021E0
S11340001B4AC2F8C8301E4B0322C3F85821FFF7DD
S113401093FF1C4B01221A70002038BD022D4FF073
S113402007000ED1C2F80C010620C1F80C01164994
S1134030C2F808114FF4404143F00303C2F80411DD
S1134040DEE7C2F80C010520C1F80C01C020C2F85B
S1134050080143F08043812243F00403C1F808219E
S1134060CEE700BFC81F0021F408002084120020FE
S1134070001F0021030900202800C0A000400846BA
S11340800040084488120020C1004000014B187011
S1134090704700BF871200202DE9F0472D4C2E4BAE
S11340A0236000F0B9FA4FF4FA7307464FF47A76B6
S11340B0B0FBF6F629482A4A7343190E1B02181856
S11340C041F10001002303F04BFAA0F5807305468B
S11340D0A36220B966222B21FFF7A4F901254FF42E
S11340E07A726A434FF0000A53465008310203F0D3
S11340F037FA1C4B19601C4BB7F57A7F4FEA0568F9
S11341008946044618604FEA152505D276222B21EC
S11341105046FFF787F901264FF47A73A8FB030191
S113412003FB05117308C01841F100010023324656
S113413003F016FA0D4B023419600D4B49F10009D6
S1134140A408186044EA8974024B013C1C63BDE86E
S1134150F08700BF005008400211010020A10700B1
S113416040420F00BC100020B8100020B410002002
S1134170B0100020044B4FF00052C3F880211A60A5
S1134180024B01225A60704700E100E000500840F1
S113419038B502010A4B01259D500A4A4FF4807339
S11341A083405366044604F0A4F9074A1378A540F3
S11341B023EA05031370BDE8384004F09EB900BF3C
S11341C000510844005008408A1200201030034B6C
S11341D00001185800F00100704700BF005008406B
S11341E01030044B01F46001000141F00301195047
S11341F0704700BF0050084038B504F081F9084BFF
S1134200084A9D69547DDA6D520748BF9D69E4B23E
S113421048BF013404F07AF9284604F0030138BD9C
S113422000500840F010002008B5222000F00EF9DC
S1134230024B4FF480225A6008BD00BF0050084072
S1134240064B1B68434303EB8171054B1B68A3FBBF
S1134250003013F1004341EB00007047B41000201C
S1134260B01000200D4A10B5146820F040430146F8
S11342704FF000420020E4FB0320094A126802FBCD
S11342800300084B1B6B98424FEA917104D9013328
S11342900131C01A01F0030110BD00BFB8100020A5
S11342A0BC100020005008403B4B082270B501218F
S11342B00546C3F8C8203948394CFDF727F9394B6E
S11342C01D702378013B012B0CD8237CE07B012259
S11342D09A400C21302313FB001303F1884303F5A8
S11342E020431A60304B00225A677DB92F4A4FF69B
S11342F0FF71D16702F10072F821D1675D672C4B21
S11343004FF08042C3F89420002070BD636853B31B
S113431000F082F9626800EB5203B3FBF2F3013B55
S11343201B0243F0F80326782049224A022E1CD0AF
S1134330032E1D484FF6FF7521D0012E27D143F0DF
S11343400203CD67D36707234367237CE07B012205
S11343509A400C21302313FB001303F18C4303F523
S113436020431A6011E0F823DDE743F001034FF620
S1134370FF70C867D3670C4B05225A67E5E743F023
S11343800503CD67D367012343670B4BB8E7CD67BC
S1134390D3670023F8E700BF00400E4600350A004B
S11343A0C0100020901200200000084000000844C3
S11343B0004008440000084600400846F8B5064698
S11343C004460FCE1C4F3D460FC533682B601B4B74
S11343D01B480822C3F8C8200121FDF797F8194AA1
S11343E000235367A37BE17A1B0443EA0123217A68
S11343F00B4393673B78032B1BD8DFE803F01402CD
S1134400080E617B207B00230422FEF7C5F8217C83
S1134410E07B00230422FEF7BFF8A17A607A01232F
S11344200422FEF7B9F8084B1878BDE8F840FFF706
S11344303BBF0120F8BD00BFC010002000400E4665
S113444000350A000000084090120020044BD3F805
S11344509430002BBCBF034BC3F88000704700BFEF
S113446000400840000008404FF0006318B1034AC0
S1134470C2F894307047024AFAE700BF0040084689
S11344800040084408B5064B06491A684FF004502A
S1134490920004F0A0FEBDE8084000F051BD00BF4A
S11344A024A0000028A0000007B501A8FEF724F905
S11344B0134B144AC3F8442148F2E672C3F8382176
S11344C04FF40862C3F834210F4AC3F8A0200F4AFE
S11344D04AF63F41916002F580424FF0C07191620B
S11344E00022C3F8FC200A4AC3F89C20094B7F220F
S11344F05A6203F1007323225A6203B05DF804FB8D
S113450000400840C0E653517A27000F00300840AD
S1134510806D6303003008440F4B002210B5C3F8CC
S11345208820C3F88C20C3F890200C4A0121D16064
S11345305A6812F0706FFBD14FF00452DA6701240D
S113454002F5FD52C3F880401A66054B1B68984774
S1134550044BDC6010BD00BF00400840004008462A
S11345605408002000400844034BFD22C3F8C8202F
S11345700122C3F8CC20704700400E4638B5FFF73F
S1134580F3FF1B4B1B481C4C1C490222C3F8C820D8
S11345901B4B1A6842B102EA0005A54204BF5D68DC
S11345A0156008338B42F4D1164B0222C3F8C8209D
S11345B0154B164AD3F83C111160154AC3F89420E0
S11345C000F024FBFFF770FF124B0322C3F8D8203E
S11345D0A3F500530122C3F894204FF46072DA600B
S11345E04FF04072C3F8F820C3F8102138BD00BF63
S11345F000400E460000FFFF00000840B081E00FBD
S11346000080E00F00400E4400400840580800209D
S11346100048F0000060084608B5FCF735FC044B80
S1134620D3F81031C3F308230133B0FBF3F008BD12
S113463000400E4070B5044618B1284D2268531C42
S113464000D170BDC2F30063110C35F8130011F0F2
S1134650FE0F93B243EA0043606818D00434CAB230
S1134660022A216808D9D4E90160033AC3E9001693
S113467098600C340C33F3E704D16268C3E9001288
S11346800834DBE7012AD9D104341960D6E7120FC4
S1134690072AF5D8DFE802F00704090D1013181DE6
S11346A0C04303F180631860EAE71A6842401A6065
S11346B0E6E703F1C063F6E704F078FBE0E70122E4
S11346C0824003F1C063F2E70122824003F1806378
S11346D0EDE71A6830EA0202FBD1D1E7EA9F000055
S11346E0024B0122C3F89420704700BF00400846E3
S11346F0024B0122C3F89420704700BF00400844D5
S1134700024B4022C3F89420704700BF0040084485
S1134710024B4022C3F89420704700BF0040084673
S1134720064B5B68C3F30363984206D1044A936B58
S113473023F0F00343EA01119163704700400840FD
S1134740001F00212DE9F0470E4604F028FBDFF896
S1134750B090DFF8B0A08046002503F0CAFED9F877
S11347600430C3F30363012B07460BD1711C1AD029
S113477004F015FBA0EB0805384603F0BEFEAE427C
S1134780EBD80DE0052BF1D00B2BEFD0023B012B26
S11347900CD9013602D004F002FB384603F0ADFE1A
S11347A01648BDE8F08703F0A8FED6E7DAF808302B
S11347B01A04C3F389140FD4013602D004F0EFFABB
S11347C0384603F09AFE24B2A4F1C8006FF4FF73D4
S11347D09842B8BF1846E4E7731C03D004F0DFFA2C
S11347E0A0EB08056FEA84546FEA9454384603F04A
S11347F084FE14F5007FC2D0E6E700BF00FEFFFF91
S11348000040084000700840084910B5D1F87031E4
S113481040B11C464A68D1F870319C42F9D1C2F3C8
S11348200362027003F00F0010BD00BF0040084097
S1134830094BD3F8883001F0800103F480030B4363
S113484009D1064B4FF400129A61837F1BB1044BCC
S11348500122C3F8F8207047004008400060084473
S11348600060084610B503F044FE084B1B6804467C
S11348703BB1984728B1002200204FF4806100F03A
S113488091FC2046BDE8104003F037BED410002050
S11348902DE9F0411F4CDFF89080069F0646A2FBED
S11348A003502C1960F1000E9C46A0454FF0000304
S11348B073EB0E0E07D24FF4B4720E211846FEF7B6
S11348C0B1FD02201BE00029FBD0C6F3130601EB67
S11348D05C04B4FBFCF4A4FB0646E40C44EA463452
S11348E00D4E34600D4C22600D4A914209D10D4A9F
S11348F0A5FB025302FB00339B093B600020BDE88B
S1134900F081C4040A46E80444EA553102F028FE62
S11349103860F3E700C9E876D8100020DC100020E6
S113492000F049020A3BB2DF0046C32338B5164DF6
S11349302B780C4623B9154B1B6D03F03F032B70EA
S1134940134BD3F894305B051CD5124BB0FBF3F03A
S113495040F24D534343A3F546430C3B584300F503
S1134960C91000F5556028B940F21B322B21FEF71F
S113497059FD01202B78084A5343B3FBF0F3002080
S1134980236038BD0220FCE7941200200030084068
S11349900040084000366E018096980070B5374C90
S11349A0374B256B374C1B682468ED024CBF1B1931
S11349B01B1BB3F1804F04D8002B3AD1324E1C4656
S11349C00AE0B3FA83F4314EC4F10204E340304DFB
S11349D0AB4201D901345B0803EB5605B5FBF6F590
S11349E02C4EB34234BF002601262403013D44EA81
S11349F086242C430C60D8B1B3FBF0F1642400FB93
S1134A0011336343984288BF01F1FF3148080138EC
S1134A1001390728204D214C4FEA510311D90021B7
S1134A2029700621C4F894101B0243EA0013136092
S1134A3070BDB3FA83F4D4F10204134EC6D5002436
S1134A40C5E71029EBD068B1012129700621C4F80B
S1134A509410134909780029E6D012490224C1F8B8
S1134A609440E1E7012914BF0121002129704FF08E
S1134A700601C4F89410ECD1D6E700BF003008401A
S1134A80DC100020D8100020E0673500C0CF6A0099
S1134A903FBE4025401B5F13911200200040084494
S1134AA09212002000400846084B5B6B03F007009D
S1134AB0C3F3C20213F0380F18BF5043C3F382127A
S1134AC013F4E07F18BF5043704700BF0030084024
S1134AD0034BD3F8380180F01000C0F30010704786
S1134AE000400840174B4FF4002210B5C3F894203F
S1134AF0154C164BB0F1804F88BF1C46144BDA6C32
S1134B00D2071DD51B6F134A04F5F42404F59074E1
S1134B10B4FBF2F4033CE4B203F00703A34202D073
S1134B202046FDF799FC0C4B1B784BB10B4B4FF413
S1134B307022C3F8942003F100732404C3F8944052
S1134B4010BD00BF00400846E0673500C0CF6A00D2
S1134B5000300E4040420F009312002000400844F1
S1134B607FB50446FCF7CEF91C4B06462C33586837
S1134B700093A37922683146FFF78AFE054648BBB5
S1134B80A379012B14BF164916491022C1F8382104
S1134B90206815495843FFF7C9FE03AA02A9304605
S1134BA0FFF7FCFE0F4A43F6FF53C2F8A4300C4B48
S1134BB00299C3F8A4104FF4EE611163039A1A63C7
S1134BC02068FFF78FFF094BA2881A6203F5405350
S1134BD000229A63284604B070BD00BF003008402C
S1134BE00040084600400844503008400000084097
S1134BF008B5044B01221A70034B1868FFF772FFC3
S1134C00002008BD93120020DC100020024B4FF45A
S1134C108062C3F894207047004008460D4BD3F8D7
S1134C200421D3F8B030D2B2FF2A03D043F30743B0
S1134C30591C01D190221923074903EBD37302EBCA
S1134C406302022381F84630232381F8472081F848
S1134C50453070470081E00F001F002140B1036818
S1134C60012B05D90069034B002808BF184670477B
S1134C7000487047F09F000038B5054614480C46BC
S1134C80FFF7F0FA2DB1C30103EB5503B3FBF5F3C2
S1134C902360104A5368D80217D40F4B1B68D2F80C
S1134CA0A810C3F3810311F4806203F10103C9B2B4
S1134CB018BFDA00FF2906D00649D1F8AC1049051F
S1134CC001D502EBC302626038BD0022FBE700BFDE
S1134CD040420F000000084000200840084B1A68BA
S1134CE0C117A2FB000310F1807002FB013343F1F2
S1134CF00003400E40EAC310803820EAE070704799
S1134D00E4100020174B072270B5C3F88420FFF786
S1134D1083FC154B154A164EC408010B0546E005E5
S1134D20C01841F10001002302F01AFC114B186075
S1134D304EF66020FFF7D2FF4042C6F89C000E48B2
S1134D40FFF790FA024658B1E301500818184FEAE9
S1134D5015714FF0000341F1000102F001FC70678E
S1134D6070BD00BF00400840B2E60E0065CD1D00D6
S1134D70001F0021E410002040420F002DE9F843F9
S1134D80054608469846FFF769FF16460746002D74
S1134D9000F0A98018F0050F5DD02C69002C00F0FC
S1134DA0A480FEF7F7FF4FF47A735C43201A7B6804
S1134DB0A0F6AC50C01AFFF791FFAC8B3062002C08
S1134DC000F09680FEF7E6FF4FF47A735C43201AF6
S1134DD07B68A0F6AC50C01AFFF780FF70614A4BA5
S1134DE0EC68D3F80090002C00F08580FEF7D2FF29
S1134DF04FF47A735C43241A7B68A4F6AC54E41A27
S1134E003B68E41A414B1A68E117A2FB044314F10E
S1134E10807402FB013343F10003640E44EAC314BB
S1134E20803C3B4BB4613B4CD3F88430F361236842
S1134E304BB1484604F01AF928B12368D9F8480060
S1134E40324639469847AC69FEF7A4FF014620462E
S1134E5003F0D2FFF06218F0020F29D06B684FF410
S1134E607A7058435BB13B6803F51C531033184404
S1134E70AB7F002B46F2A81308BF00231844FFF7AA
S1134E802DFF6B69B062002B38D078684FF47A72CA
S1134E9002FB0300AB7FA0F50350002BA0F1100030
S1134EA046F2A81308BF0023C01AFFF717FF706269
S1134EB018F0040F17D0A86818B34FF47A73584346
S1134EC0A0F503501038FFF709FFF0602B684FF48A
S1134ED07A70584323B13B6803F51C5310331844CC
S1134EE0FFF7FCFE3061BDE8F8834CF2503062E716
S1134EF04CF2503070E74CF2503483E747F23050B4
S1134F00D3E747F23050DEE7980E0020E41000208B
S1134F10001F0021E0100020074BD3F8D8304FF6D3
S1134F2004014FF605029BB28B4208BF1346034AA5
S1134F3001209365704700BF0081E00F00500840D6
S1134F4070B5194C0FCC86B001AD0FC5C8222368CB
S1134F5016482B60002104F0BDF97C22002114487E
S1134F6004F0B8F9134B144AC3F8F020FFF756FEC7
S1134F70124B1B782BB101AD0FCD0B4E0FC62B6816
S1134F8023600F4B0F4AC3F8DC2F0F4AC3F8E02FFE
S1134F900E4AC3F8E42F02F1957202F27112C3F8BB
S1134FA0E82F06B070BD00BFC81F0021381F0021C4
S1134FB0BC1E0021001F00213F0037008812002082
S1134FC0001000210200620209C805780708DC0607
S1134FD00A4B197801F0FF0229B100211970084920
S1134FE09202C1F8A020597801F0FF0229B10021F2
S1134FF059709302024AC2F8A430704795120020F7
S113500000000846074BD3F8E40E074BD3F88C3066
S11350101A0103D4054B1B6E1B0401D500F58070E7
S1135020704700BF00100021004008400000084005
S113503008B503F05EFA0F4B1A78B2B90E4A12683B
S113504012F4843F11D10D4A1021C2F894101B7838
S11350506BB9094B1B68DB0509D4084B2022C3F844
S11350609420BDE8084003F048BA054AECE7044B35
S1135070F4E700BF99120020E80A00200040084429
S11350800040084610B503F034FA0E21044603200C
S1135090FFF746FB044B40F2012220465A62BDE86A
S11350A0104003F02ABA00BF00000840044B00225D
S11350B01A70044B197811B11A70FFF7B9BF704711
S11350C0981200209912002008B503F012FA244B1C
S11350D04FF08052C3F88020BFF34F8FBFF36F8F20
S11350E04FF48072C3F88020BFF34F8FBFF36F8FEC
S11350F00222C3F88020BFF34F8FBFF36F8F1022BB
S1135100C3F88020BFF34F8FBFF36F8F2022C3F803
S11351108020BFF34F8FBFF36F8F4FF00052C3F85F
S11351208020BFF34F8FBFF36F8F8022C3F880209E
S1135130BFF34F8FBFF36F8F4022C3F88020BFF3BC
S11351404F8FBFF36F8F4FF00042C3F88020BFF33F
S11351504F8FBFF36F8FBDE8084003F0CEB900BF97
S113516000E100E008B503F0C4F90D4B4FF08052A4
S11351701A604FF480721A6002221A60002283F8C7
S1135180012310221A6020221A604FF000521A6084
S113519080221A6040221A60BDE8084003F0ADB9CD
S11351A000E100E070B5084C01232370074B1E6832
S11351B0074BD3E9005332401940284001F0D0F89E
S11351C00023237070BD00BF97120020EC10002054
S11351D0E80A00202DE9F047DDF820A003EA0108E1
S11351E0099B06460D4602EA000703EA0A09BAF1DA
S11351F0000F40F04981031F0B4300F00F81052885
S113520071F1000380F0E38050EA010300F05C8157
S1135210431E0B4300F01D81FFF756FFAB4AD2E952
S1135220004323EA050324EA06043C4343EA08074F
S1135230A74BA84D1E68DFF8EC8226EA0A0646EA68
S113524009061E60C2E90047FFF7F2FE14F02A4F78
S113525014BF48F202034FF40043B0079E48C26EE5
S113526048BF43F4005383EA020122EA0302EA66D8
S11352709A4A81660B40D366C4F380421203210329
S113528048BF42F48072E30648BF42F40052A506C8
S113529048BF42F4007260069148924DD0F80C3237
S11352A048BF42F48062210648BF42F4006282EAA9
S11352B0030123EA0203C5F80C328B4BC0F8081231
S11352C00A40C7F34025AD04C3F80C22E20448BFEA
S11352D045F48035A30348BF45F48015A00748BFB3
S11352E045F4001514F4001F06D0D8F8000003F0AC
S11352F02DFF08B945F40025E1027C497C4848BFEC
S113530045F40035FA0648BF45F480050A6A730778
S113531048BF45F0040585EA020323F001031A405F
S113532002621D40CB61734B73481D62734B744A18
S113533016F0010F18BF1A46836E7D0748BF42F46A
S11353400012704D82EA030123EA0203AB666E4B3E
S113535041660A4000F500509A66C16B04F00103EF
S113536005F5005581EA030221EA0301E96382633A
S11353701A40664BDA63D8F80020200248BF644B19
S113538092F8E92058BF634B610748BF43F4806338
S113539022B114F4C06F18BF43F480735E485F4CAD
S11353A0D0F8EC10320748BF43F0004383EA01020F
S11353B022F4A0221140C4F8EC101340C0F8E820F5
S11353C0574ABDE8F047C2F8EC30FFF7CBBEA0F572
S11353D080630B4306D020F48063A3F500730B4372
S11353E07FF41AAF03F085F83849D1E9003223EA93
S11353F0060322EA050242EA08023B43C1E90032FD
S1135400484A126892F8E9200AB313F4C06F1ED018
S1135410434B4FF48072C3F8EC2014E003F069F8B6
S11354202A4AD2E9003123F004033B4341EA08014C
S113543057EA0807C2E9003114BF394A374A4FF422
S11354408063C2F8EC30BDE8F04703F056B8334B44
S1135450DFE703F04EF81D4AD2E9003123F00103DF
S11354603B4341EA0801C2E900312F4A57EA0807E1
S11354704FF0010315BF93632C4902F1C062CB6363
S113548014BFD3639363DEE750EA01037FF4C4AE31
S1135490BAF1010F7FF4C0AE03F02BF80C4A136885
S11354A023F0010343EA09031360134A4FF48063B2
S11354B0B9F1000F04D0536602F1C0629366C2E7EB
S11354C010498B665366BEE7BDE8F087E80A002002
S11354D0EC100020000008440000084000000846CA
S11354E0006008400060084400600846004008402E
S11354F0004008440040084600500840041C500086
S11355000418500000500844005008460070084633
S11355100D0A0A09090A0A09001008400010084483
S113552000100846980E00200070084000700844DF
S1135530024B5868C0F3C000704700BFE80A00205F
S1135540024B186800F00100704700BFE80A002011
S1135550024B5868C0F3C030704700BFE80A00200F
S1135560034B1B6813F4C06F14BF01200020704765
S1135570E80A002010B50446FFF700F8FFF7A4FD81
S113558004F14C00FEF708F9FEF7C6FFFEF784FDB0
S1135590FEF7F0FDFFF7B6FB1049114AD1F8F810F9
S11355A0072304F1A400FFF7E9FB4FF440010020B6
S11355B0FEF716FE4FF400110120FEF711FEFFF76F
S11355C0ABFC20B940F2E7221421FDF72BFFFFF7D3
S11355D00FFBBDE810400120FEF766BE001F00214E
S11355E06C1F0021084B8022C3F8882003F17E43FE
S11355F00822C3F88820054AD2F8BC3E23F02003D1
S1135600C2F8BC3E704700BF0040084600100021AD
S113561008B502F06EFFFFF7E5FF034B01229A6025
S1135620BDE8084002F069BF00400840F8B5194CD5
S113563005462078B0FA80F040F206423E21400947
S1135640FDF7F0FE55B96078B0FA80F0BDE8F84097
S113565040F206423E214009FDF7E4BE0E4F0F4DD5
S1135660D7F8A0304FF44066C3F381232370C5F804
S1135670A0606078B0FA80F040F206423E21400912
S1135680FDF7D0FED7F8A430C3F381236370C5F8C7
S1135690A460F8BD951200200000084000000844F2
S11356A0F8B50B4C0B4DD4F888300B4F0423C5F8D8
S11356B08830D4F888305B0300D4F8BD0426C7F8DA
S11356C08860022003F072FBC5F88860F1E700BF30
S11356D00040084000400846004008441C4B70B598
S11356E0D3F888601B4D03F18063A822C3F8882097
S11356F010221A60184A194B93666B66FFF768FC10
S1135700174B1B7813B90320FEF742FD00242C67C6
S1135710FFF7C6FF134A144BD2F8E41E0B40C2F83D
S1135720E43E124B0422C3F88820114BB206C3F89E
S1135730C44008D503F580739B6CB3F5817F22BF09
S1135740034B80229A60BDE8704001F06DBC00BF3D
S11357500040084000500840005008441000000277
S11357609C12002000100021DF0000FF00400844CC
S1135770001E002110B549B918B3144A53681B0E12
S113578013F00E0F1DD113689A061AD4FFF77AFC92
S11357900E4C0020FFF738F8032801D0092806D161
S11357A0D4F88C30DB03F4D4636F0C2BF1D9FFF7FE
S11357B077FF074B0122DA6003F17E430422C3F82A
S11357C08820044B4FF4C0625A6210BD0040084068
S11357D0004008460060084408B503210920FEF78C
S11357E09FFF024B20229A6008BD00BF0040084082
S11357F038B5054602F07DFE0446FDF789FF35B154
S1135800FFF754FC2046BDE8384002F076BE084B52
S11358101B78002BF6D0074B1D78002DF2D1FFF733
S113582045FC2A464FF480400021FFF7BBFCE9E722
S113583098120020971200202DE9F84F564B064687
S1135840D3F888300D461446002A40F0A28013F0A5
S1135850A00F14BF4FF001094FF00009DFF8548185
S11358604E4F01F0E1FBA023C8F888300320FEF777
S11358708FFC0420FEF78CFC4FF0000AFFF716FCA7
S1135880474BFB66C7F870A0FFF70AFF454BD3F8F8
S1135890BC2E42F02002C3F8BC2EFF22C8F8002020
S11358A03D4A4FF480719160D3F8E42E3E494FF0A5
S11358B0040B1140C3F8E41EC8F888B0C3F8C4AEA2
S11358C0FB6813F0060F04D0FEF7AEFC5846FEF753
S11358D05FFCB9F1000F08D0344B4FF40062C3F8F9
S11358E08820334B4FF400425A6666B1304B5B6CF0
S11358F0180701D4FFF7C6FBFFF76EFF0420FEF77D
S113590047FCFFF765FB244BDA68D1073FD55A689B
S113591012F0706FFBD1274B274AC3F88820274A1F
S1135920936B23F0F003936315B12046FFF760FFF8
S1135930234BD3F8B4305A1C01D05B0002D51D4B65
S11359400122DA601CB31A4BDA6E9A66124A136AA1
S113595023F00103D3611B4BD3F80C22C3F80822B4
S1135960A3F54053DA6F9A67A3F50053D3F8EC20FC
S1135970C3F8E82003F5C043DA6B9A63A3F5005338
S1135980114A5A660B4B4FF60842C3F88820BDE80B
S1135990F88F4FF0000961E70040084000500840CC
S11359A00000010100100021DF0000FF0040084654
S11359B0000008400040084410003000001F00218F
S11359C00081E00F006008405000F0029A4B196E0D
S11359D0DA6E2DE9F04F01EA0209C3F8689003F585
S11359E0805385B0D3F8E060D3F8EC201640C3F8B8
S11359F0E86003F5A043D3F80012D3F80C2201EABF
S1135A00020AC3F808A2A3F5005359691A6A01EA05
S1135A1002088A4A08EA0202DA61894BD3F80022B2
S1135A20910006D4D3F800319A00C3F3407740F1D3
S1135A30E18002F05EFD834BDA68DF6D12F0060F41
S1135A409A6E07EA020727F4800222F4006214BF68
S1135A504FF0010B4FF0000B5A667B0704D57A4ACE
S1135A60537D0133DBB2537502F047FDB9F1000FEA
S1135A7000F0DF8019F4004427D002F03AFD01461B
S1135A80FFF7C0FA6F4D0446AA69AB699A42FCD08D
S1135A90AA699342FCD0FFF7B5FAA04240F0AC806B
S1135AA0084602F02AFD694B1C60694BD3F8885004
S1135AB015F4E05240F0A28024F07F4424F0DF0487
S1135AC00CB9FFF70BFE4FF0807419F0020F4FF082
S1135AD0000516D05E4B5F49D3F8883003F460426A
S1135AE0C1F88820002A00F09E801D0400F19E80E9
S1135AF013F4005F0CBF4FF000534FF000631C43DE
S1135B000025C9F340394FEA4909534B3340002B70
S1135B104AD016F4206F0AD040F60F020621002066
S1135B20FDF780FC0020FFF763FE26F48026F005D5
S1135B3006D5484BFF221A6044F4C064FFF7A2FA6A
S1135B4016F0090F0AD040F6240208210020FDF7C0
S1135B5069FCFFF741FE414B01229A6216F0106F77
S1135B600CD040F62D0209210020FDF75BFCFFF765
S1135B7033FE002211461046FDF7A2FD16F4202F35
S1135B800AD040F6350207210020FDF74BFC002027
S1135B90FFF72EFE26F48026F10301D5FDF7E0FE83
S1135BA0002EB8BF49F0080972070DD52B4B5B6A6C
S1135BB013F4005F14BF2A4A2A4A4FF400531ABF51
S1135BC0536244F400045362730548BF44F0040470
S1135BD016F4802600F0AA80FDF78CFE0138062812
S1135BE042D8DFE810F021012401210127012A0114
S1135BF02D012D01BB4639E7044645E70192FFF725
S1135C006DFD144B019AC3F8882015F4805307D115
S1135C1015F4806F0CBF4FF080544FF0806454E74C
S1135C204FF0804451E74FF0007368E74FF00043B2
S1135C3065E74C464D4668E7000008400000F7FF62
S1135C4000E100E000500840F0100020E8100020BF
S1135C500040084000400844090B0B89001008402C
S1135C60001008440010084640F666020321002094
S1135C70FDF7D8FB7C4A136ED2F8800003F00703CB
S1135C800633012101FA03F3C0F30C001B1A9BB283
S1135C90072B13D9754BD3F8883058020ED47448A7
S1135CA0136B126DC06C58B103F0070306339940AF
S1135CB0C2F30C03C91A89B2072901D844F4007449
S1135CC06C4B1B78002B31D0674BD3F8E03013F4C6
S1135CD0A02F2BD1684B694A1B7893B9FB0410D4CD
S1135CE0137873B1E308664943EA457383F001030B
