S00F00007364725F746573742E7333377D
S1130000000800208D0F00004B9400004B9400006A
S1130010D39D00004B9400004B9400004B940000CF
S11300204B9400004B9400004B9400004B94000050
S11300304B94000078B000004B9400004B940000F7
S11300404B940000ED7000004B9400004B940000B2
S11300502D69000025A2000021A200000D710000FE
S113006019A20000811A0000E91B00004B94000053
S11300701D0C00000D0C00004B9400004B9400007C
S11300804B94000089040000091C00004B940000FC
S11300904B9400004B9400004B9400004B940000E0
S11300A04B9400004B9400004B9400004B940000D0
S11300B0417100001DA200004B9400007D710000FE
S11300C04B940000C55700004B9400004B94000073
S11300D04B9400004B9400004B9400004B940000A0
S11300E04B9400004B9400004B9400004B94000090
S11300F04B9400004B9400004B9400004B94000080
S11301004B9400004B9400004B940000000000004E
S1130110013800D0FCE77047000000000000000038
S113012001F0FF01102A2BDB10F0070F08D010F8A4
S1130130013B013A8B422DD010F0070F42B3F6D1A8
S1130140F0B441EA012141EA014122F007047FF0C1
S113015000070023F0E80256083C85EA010586EA18
S1130160010685FA47F5A3FA87F586FA47F6A5FA54
S113017087F68EB9EED1F0BC01F0FF0102F0070260
S113018032B110F8013B013A83EA010313B1F8D10B
S11301900020704701387047002D06BF35460338EC
S11301A0073815F0010F07D1013015F4807F02BF25
S11301B0013015F4C03F0130F0BC0138704700BF76
S11301C00348044B834202D0034B03B118477047E2
S11301D01409002014090020000000000548064B03
S11301E01B1AD90F01EBA301491002D0034B03B131
S11301F0184770471409002014090020000000006B
S113020010B5064C237843B9FFF7DAFF044B13B15A
S11302100448AFF300800123237010BD08150020AB
S11302200000000004DE000008B5054B1BB10549C1
S11302300548AFF30080BDE80840FFF7CFBF00BF1B
S113024000000000F80A002004DE0000A3F5803A54
S1130250704700BF174B002B08BF134B9D46FFF799
S1130260F5FF00218B460F461348144A121A0AF070
S113027035FA0E4B002B00D098470D4B002B00D0C5
S113028098470020002104000D000D48002802D0EA
S11302900C48AFF3008008F09DFA2000290000F01C
S11302A0EFFB08F085FA00BF000008000000000022
S11302B00000000000080020140900203015002070
S11302C00000000000000000F0B597B0002000F02E
S11302D00DFD054609F07AF80121584801F03AFD70
S11302E00121574801F036FD01230B220A21022087
S11302F002F0DCFD01230B221146022002F0D6FDA0
S1130300504C03266664A36C23F01F0343F01003D0
S1130310A364A36C23F4F85343F46063A3644A4BCB
S11303200DF1480C0FCB8CE80F0000278DF84970B5
S11303306146204602F04CFEE2236361FE23A36182
S1130340236843F012032360404BE363236C43F4BC
S1130350803343F0B40323643D4B4FF400321A60FE
S113036000F0C4FE10A9384600F018FF304600F033
S1130370D3FC18BB03A800F0F9FE079B43B103208C
S113038000F0CAFC50BB032000F0C6FC002835D1A5
S1130390032000F0C1FC002841D1402300222D4954
S11303A0284609F010FE4FF0AA422223CDE900238B
S11303B0284609F0A8FD284617B0F0BD264C274969
S11303C0206809F010FB08F0FDFF08F0FCFF119B0A
S11303D0109A2349206809F006FBCBE71E4C1F49FD
S11303E0206809F000FB08F0EDFF08F0ECFF079B24
S11303F0DA691C49206809F0F6FAC4E7164C174973
S1130400206809F0F0FA08F0DDFF08F0DCFF079A35
S11304101369D2681449206809F0E5FAB8E70E4C6C
S11304200E49206809F0DFFA08F0CCFF08F0CBFF92
S11304300E49206809F0D7FAAFE700BF00350A007B
S11304400082040000C000409CAB000024000100B6
S113045000E100E0100B0020740D002000AB000050
S113046008AB000030AB000068AB000084AB0000B8
S113047008B508F0F8FF012800D008BD014B01229F
S11304801A70FAE70C150020334B5B6B13F0040F62
S11304903AD110B413F0200F11D0304A128892B21E
S11304A0822A51D82C4AD4692C48028892B2511C11
S11304B089B201802A498C54274A0421516013F0DF
S11304C0100F0ED0274A128892B2822A3FD82548AC
S11304D0028892B2511C89B201802349895C1E4A68
S11304E0D16213F4803F0CD01B4B4FF48032DA639B
S11304F01E4B1B7813B91E4B01221A701B4B002292
S11305001A705DF8044B7047134BDB6913F0010F4D
S113051012D0144A0023138013889BB2591C89B249
S11305201180114AD25C0C4BDA620422DA635A60FD
S11305300E4B01221A707047084B00221A80064B9A
S11305400422DA635A607047034AD269B4E7024A64
S1130550FF21D162C5E700BF00C00040FC140020A9
S1130560640C0020FA140020E00B00200D1500207C
S11305700E15002038B50446344B1B7813B1344BA8
S11305801B788BB1324B1B784BB1324B1B7833B198
S1130590314B1B889BB242F20F72934228D92F4BE6
S11305A01B78002B39D138BD0021284B19702C4BF6
S11305B04FF0AA321A605A609A60DA600123244A22
S11305C01370254A1180234A1370032000F0A4FB02
S11305D00028D7D0234D2449286809F004FA08F0EC
S11305E0F1FE08F0F0FE2149286809F0FCF9C9E79A
S11305F00025184B1D70012310221949204609F0CB
S1130600E0FC2B462A462946204603F081FC0028BC
S1130610C5D0104B01221A70C1E7104B00221A708A
S1130620032000F079FB0028BDD00E4C0E49206851
S113063009F0D9F908F0C6FE08F0C5FE064B1A8881
S113064092B20B49206809F0CEF9ACE70C150020F2
S11306500B1500200A150020F814002009150020AD
S1130660D00B0020740D002000AB0000ACAB0000E8
S1130670C8AB000012F0807F11D01048018889B205
S1130680013189B20180018889B242F20F7081423E
S11306900FD90B49002008700A490120087002F0A4
S11306A0A84203F002031A4302D0074B01221A7036
S11306B07047054901200870F1E700BFF8140020D5
S11306C00B150020091500200A150020F0B5A3B071
S11306D0FFF750FFAF4B1B780BB923B0F0BDAD4B08
S11306E000221A70032000F017FB58B9AA4B1B789C
S11306F0013B032B00F29D81DFE813F014002D0071
S113070032017001A54CA649206809F06CF908F083
S113071059FE08F058FEA04B1A78A249206809F047
S113072062F9E3E7032000F0F7FA30B99E4B0022A8
S11307301A809E4B02221A70CFE7984C9849206881
S113074009F051F908F03EFE08F03DFE9849206892
S113075009F049F9EAE7904CB4F80160E578002122
S113076002917C2203A809F0B9FF2A46211D02A8A0
S113077009F035FF032000F0CFFA002843D12B46BF
S113078002AA8C490968002000F044FD04460320B5
S113079000F0C2FA00284BD1032000F0BDFA002873
S11307A06BD1854C2B46224682490968002000F013
S11307B013FD2A4602A9204609F080FF002840F0D4
S11307C09A807C4A13682B4413604FF6FF739E4251
S11307D083D1032000F0A0FA002840F08E8000218D
S11307E0084600F0ADFD0446002840F0A280032036
S11307F000F092FA002840F08E80002000F046FDC0
S113080000F09EFC69E7654C6549206809F0EBF847
S113081008F0D8FD08F0D7FD0195664B1B680093DE
S113082040F29F13721C6549206809F0DCF8A6E7C2
S11308305A4F5B49386809F0D6F808F0C3FD08F050
S1130840C2FD05F184030DEB030205F185036B443E
S113085005F18601694411F8800C05F187016944AA
S113086011F8801C0191009013F8803C12F8802C40
S11308705349386809F0B7F88EE7484F4849386853
S113088009F0B1F808F09EFD08F09DFD494B1B6886
S11308902B4400932B4622464A49386809F0A3F8B2
S11308A07FE70134A5428CD9434B1A5D04F18803D8
S11308B06B4413F8803C9A42F3D0032000F02CFAE6
S11308C00028EED0354F3649386809F08CF808F026
S11308D079FD08F078FD04F188036B4413F8803C3B
S11308E0354A125D019200932346324636493868F0
S11308F009F079F8D5E70024D4E7284C2849206882
S113090009F071F808F05EFD08F05DFD2F492068DC
S113091009F069F863E7214C2149206809F063F87C
S113092008F050FD08F04FFD2949206809F05BF8F4
S113093063E7032000F0F0F918B91E4B00221A6097
S1130940CBE6164D1649286809F04DF808F03AFD33
S113095008F039FD22461F49286809F044F8ECE7FD
S11309600D4B587800F074FC0446032000F0D4F9D1
S113097000283FF4B2AE094D0949286809F033F85C
S113098008F020FD08F01FFD22461349286809F0ED
S11309902AF8A2E60E150020640C0020740D002035
S11309A000AB0000ECAB0000FC140020E00B0020C6
S11309B0FCAB0000E80C0020500B002010AC000041
S11309C040AC000064AC0000A4AC0000D0AC00005B
S11309D0E0AC0000F8AC000014AD00001F4B1B7825
S11309E0002B7FF47AAE1E4B4FF0AA321A605A6085
S11309F09A60DA600123194A13701A4A002111809F
S1130A00194A1370032000F087F900283FF465AEFB
S1130A10164C1749206808F0E6FF08F0D3FC08F0EC
S1130A20D2FCAA2342F210721249206808F0DBFFBC
S1130A3053E6032000F070F960B10C4C0C492068B7
S1130A4008F0D1FF08F0BEFC08F0BDFC0A4920689C
S1130A5008F0C9FF094B00221A803EE60B1500205E
S1130A60D00B0020F81400200A150020740D00207B
S1130A7000AB000034AD000058AD0000FC140020B1
S1130A8008B509F0AAF9FFF71FFC044B186009F038
S1130A90B0F9024B1868FFF719FEF8E7EC0C0020D8
S1130AA038B501F043FD01210D4801F053F901224D
S1130AB01146002001F0AAFC0A4C0225C4F880501B
S1130AC001221146002001F0A1FCC4F88450012247
S1130AD01146002001F09AFCC4F88850002038BD6B
S1130AE030253E0000400E4008B5164B01225A64E2
S1130AF002F078FB024668B9134B4AF6E851C3F892
S1130B009011D3F8981141F00401C3F89811002111
S1130B10C3F89011012A0DD90C4A136A23F4441323
S1130B2043F488131362A2F58042136843F480737C
S1130B30136008BD044AD2F8643143F40053C2F888
S1130B406431E9E700000E4000300E4000400E40E2
S1130B5030B599B0274D11ACAC46BCE80F000FC4BA
S1130B609CE8070084E8070000240B940C940D947F
S1130B700E940F941094204B0B93204B0C93012252
S1130B808DF8372002238DF8393003238DF83B305C
S1130B901E238DF83F308DF8403009AB1C3595E8A5
S1130BA0030083E803000DF10C0C039404940594F2
S1130BB00694079408948CE803000C238DF81430F1
S1130BC00D238DF815300E4B0693202307938DF8D3
S1130BD021200C4B00930BAB11AA61460A4802F08A
S1130BE0E3FF054621464FF4E13008F01CFC28469B
S1130BF019B030BD1CB000000000014000420400E8
S1130C00F00C0020100D00205C0D002008B50248F7
S1130C1009F069F808BD00BF5C0D002008B5024862
S1130C2009F061F808BD00BF5C0D002010B58AB062
S1130C3000230693079308930993254B06932549AC
S1130C4006A803F03FF9244B186030B10023059344
S1130C5005A909F0B4F908B1FEE7FEE71E4C1F4AE6
S1130C601F4B1968206803F03DFB0021206808F041
S1130C7028FE00B1FEE71B49174B186803F05EFB22
S1130C8000B1FEE74FF0FF3240F2FF33CDE900231D
S1130C904FF0FF324FF0FF330F49086809F033F982
S1130CA000B1FEE7104B1B88ADF81030ADF80C30E6
S1130CB004A9094B186809F00EF900B1FEE703A96D
S1130CC0054B186809F01DF900B1FEE70AB010BD24
S1130CD0B59300009793000010080020A193000032
S1130CE0000800200700110040B0000082B0054B4E
S1130CF0019302AB03EB800050F8043C186802B087
S1130D00704700BF1008002008B5024808F0A4FB93
S1130D1008BD00BF44B0000003460B4A107828B158
S1130D200A4A12789A4202D2002000E00120084ABE
S1130D3012783AB1074A127842FA03F313F0010F1A
S1130D4000D10020704700BF0609002005090020DB
S1130D500F1500200409002008B5084B01221A7061
S1130D60074B00221A70074B04221A70064B1F22ED
S1130D701A7002F09FFD054B186008BD060900209B
S1130D800F1500200509002004090020740D00201F
S1130D9008B50121034800F0DDFF08F0AEFA00F0C9
S1130DA075F808BD00350A0008B50121014800F0B6
S1130DB0D1FF08BD00350A002DE9F04180460F46F9
S1130DC001F109050026344604E05B21082000F007
S1130DD0E7FB0134AC4233D2052C1BD801A353F8F2
S1130DE024F000BFCB0D0000FD0D0000310E00000B
S1130DF0050E0000090E00000D0E0000FBB20433C6
S1130E00D9B2E3E78021E1E70021DFE7731C314633
S1130E10DEB2DBE7BB1DA3420CD0FB1DA3420BD00B
S1130E2007F10803A34209D0A31F18F80310CDE764
S1130E30D121CBE75A21C9E75A21C7E75D21C5E78C
S1130E400020BDE8F08100BF00B583B0002200920D
S1130E50019202218DF80010054808F0CEFA0190A5
S1130E6008216846FFF7A8FF03B05DF804FB00BF44
S1130E70006A1800014B1022DA60704700A0004499
S1130E80014B1022DA60704700A0004670B588B0AC
S1130E900DF1040C374C0FCCACE80F0094E80700BC
S1130EA08CE807000121344800F054FF334E01213F
S1130EB0304600F04FFF01258DF81250304B03935C
S1130EC0304C01A9204608F0B8FB2B460422062129
S1130ED0022001F0EBFF00232A460721022001F043
S1130EE0E5FF2B4604220821022001F0DFFF2B46F8
S1130EF004221146002001F0D9FF234BA3670B23E2
S1130F0063674FF4487002F0B9FFFFF7B3FF142092
S1130F1002F0B4FFFFF7B4FF232002F0AFFFFFF7A6
S1130F20A9FFB921204608F0D2FBFFF7A9FF00234F
S1130F301A460621022001F0B9FF00231A460721B0
S1130F40022001F0B3FF2B4600220821022001F009
S1130F50ADFF2B4600220421104601F0A7FF2046D6
S1130F6002F08EF90021A1676167304600F0F2FEBD
S1130F7008B070BD5CB0000000350A0000520400E7
S1130F8000127A00000401400B0B000B08B500F0BE
S1130F9087F8124A0AE01068516850F8230041F8B3
S1130FA02300013391688B42F5D30C320C4B9A42E7
S1130FB001D20023F6E70B4A08E01168002041F84B
S1130FC02300013351688B42F7D30832064B9A420F
S1130FD001D20023F6E7FFF73DF900BF0CDE000065
S1130FE018DE000018DE000018DE0000004870471C
S1130FF000F04902114BD3F8943003F00703023B8D
S1131000032B0DD8DFE803F0050F02080C4B18681A
S11310100BE00C4B186808E00B4B1868400804E020
S1131020094B186801E04FF40040044BD3F8003139
S1131030C3F304230133B0FBF3F0704700400E40C8
S113104024080020280800201C08002008B5FFF709
S1131050D1FF054BD3F80831C3F308230133B0FBA8
S1131060F3F0024B186008BD00400E402008002039
S1131070014B1868704700BF2808002008B5064BCC
S11310801860064BD3F8943003F00703022B00D00A
S113109008BDFFF7DBFFFBE72808002000400E40F7
S11310A0044B054A9A60D3F8882042F47002C3F8CE
S11310B08820704700ED00E000000000014B186834
S11310C0704700BF24080020BFF34F8F0549CA684A
S11310D002F4E062044B1343CB60BFF34F8F00BFB5
S11310E0FDE700BF00ED00E00400FA0508B5114B70
S11310F0D3F82828A2F17E63A3F58433B3F5104F07
S113110011D211680C4B994210D10C4B1B781BB1B6
S1131110022B01D0002008E0D369984728B9074B77
S113112001221A7001E04FF4817008BD4FF4817000
S1131130FBE700BF0000E10F07B0CD5E10150020F3
S113114008B54FF0005340F202221A804FF20F020A
S11311505A80054A01239360136823F4E06343F43F
S113116080631360FFF7B0FF00500E4008B50A4BD0
S1131170D3F82828A2F17E63A3F58433B3F5104F86
S113118009D2126BA2F17E63A3F58433B3F5104F39
S113119001D25368984708BD0000E10F08B50D4B14
S11311A0D3F82828A2F17E63A3F58433B3F5104F56
S11311B00AD2126BA2F17E63A3F58433B3F5104F08
S11311C005D29368984701E04FF4817008BD4FF44D
S11311D08170FBE70000E10F38B50D4CD4F82848C6
S11311E0A4F17E6CACF5843CBCF5104F0AD2256B9F
S11311F0A5F17E64A4F58434B4F5104F05D2EC68EF
S1131200A04701E04FF4817038BD4FF48170FBE7D3
S11312100000E10F38B50D4CD4F82848A4F17E6CD9
S1131220ACF5843CBCF5104F0AD2256BA5F17E6465
S1131230A4F58434B4F5104F05D22C69A04701E01D
S11312404FF4817038BD4FF48170FBE70000E10F6B
S113125008B50D4BD3F82828A2F17E63A3F5843397
S1131260B3F5104F0AD2126BA2F17E63A3F5843357
S1131270B3F5104F05D25369984701E04FF48170DC
S113128008BD4FF48170FBE70000E10F00B583B0A7
S113129001900F4BD3F82828A2F17E63A3F5843381
S11312A0B3F5104F0CD2126BA2F17E63A3F5843315
S11312B0B3F5104F09D29369012101A8984701E0C1
S11312C04FF4817003B05DF804FB4FF48170F9E7CB
S11312D00000E10F10B50A4BD3F82848A4F17E634F
S11312E0A3F58433B3F5104F04D2236B2BB15B6A9F
S11312F0984701E04FF4017010BD4FF40170FBE713
S11313000000E10F08B50D4BD3F82828A2F17E6345
S1131310A3F58433B3F5104F0AD2126BA2F17E63A6
S1131320A3F58433B3F5104F05D2936A984701E0CF
S11313304FF4017008BD4FF40170FBE70000E10FAA
S113134030B5E1B0124BD3F82838A3F17E63A3F58E
S11313508433B3F5104F15D20C464FF4C07269466E
S1131360FFF7B8FF054678B921466846FFF7CAFF7C
S113137040F201239842F7D040F20323984203D06D
S1131380054601E04FF40175284661B030BD00BF49
S11313900000E10F0346064A10680344054A9342DD
S11313A002D8034A136070474FF0FF30704700BF04
S11313B02C080020000004200B681A78022A00D1AF
S11313C0704710B508461A79597902EB42021201A6
S11313D0064C144401EBC40292001268B2FA82F281
S11313E052091A70FFF744F810BD00BF1CA0100288
S11313F030B583B0054604680121174800F0AAFC03
S1131400002301226179207901F050FD237962796A
S113141003EB43031B011149194402EBC1039B0075
S11314201B68B3FA83F35B092370A379022B02D000
S1131430002003B030BD00F083FB2A4608496079E0
S113144000F0A6FB02466179207901230193009301
S113145001F0D6FCECE700BF00350A001CA0100226
S1131460B913000002681378022B15D0137951794F
S113147003EB43031B011548184401EBC0039B0015
S113148019680B1E18BF01239079012805D018B9DB
S1131490B1FA81F14909117070475188490089B244
S11314A00B4343F47F4343F0C0034FF6E0718B4298
S11314B005D04FF6DF718B4204D053807047012171
S11314C01170FAE700211170F7E700BF1CA01002A9
S11314D008B50121294800F03DFC01230422022122
S11314E0052001F0E3FC002001F07EFC0121244BE7
S11314F0C3F810180A46042000F088FF214800F0C1
S1131500E7FD214BD3F8F02042F00102C3F8F020AC
S1131510D3F8FC2042F08072C3F8FC20A3F55D43AD
S11315201A4A1A6000F5D52000F2FC40C008184B96
S1131530A3FB0030800A0138164B18610222C3F85D
S1131540F0204FF48072C3F804234FF06043124A32
S1131550C3F8B02F114AC3F8802ED3F8002E42F4FA
S11315608072C3F8002EFF2283F82020D3F8002EC7
S113157022F48072C3F8002E002008BD00350A0052
S11315800080144206000E0000ED00E0FF0300405E
S113159017916502000004E055CEACC509000100B6
S11315A04FF06043D3F8803E13F0010F01D11120B6
S11315B070470E4AD2F8FC3043F08073C2F8FC3016
S11315C04FF06043D3F8002E4FF0010C0CFA00FCEE
S11315D042EA0C02C3F8002E53F82030002BE8D066
S11315E04FF0604303F820100020704700ED00E046
S11315F0F0B585B00C4694469DF83410664A1278CE
S1131600002A00F0BD800546BCF1070F00F2BA8045
S11316100A9A002A00F0B8800B9A002A00F0B680DB
S11316200E9AB2F5006F00F3B38001285BD05B4AD9
S113163002EB0C12127B002A00F0AC800022009214
S1131640019202920392564A02EB4C1E002C4FD197
S11316504FEA4C1600209051CEF80400CEF8080052
S1131660CEF80C009EF8020040F010008EF8020044
S11316709EF8030040F030008EF8030021B9C1B297
S113168041F003018EF8031000930E9B013B444A82
S11316904FEA4C1002EB4C11165A63F30E16165215
S11316A00A9B8B600B9B4B60CB789DF83C2062F3CC
S11316B08303CB70012D36D0109B002B56D0374AB4
S11316C04FEA0C1102EB0C1310985050119A5A6007
S11316D000249C605D7372466946604601F0E2FC3A
S11316E0204605B0F0BD0C9A002AA0D12D48F8E799
S11316F02B4F4FEA4C1607EB4C120020B8515060A8
S11317009060D060907840F010009070D07840F0F5
S11317100300D0700029B7D107EB4C12C1B241F0DD
S11317203001D170B0E70E460A7B42F001020A7321
S1131730D2B242F002020A73CA68042161F39F0222
S1131740F26006F1100796E80F0087E80F00F269CF
S11317506FF0030161F39F02F2610C9B7361012C32
S1131760AAD10B9AB2610C9A7260A5E7002DA6D19A
S11317700B4B03EB4C139A786FF304129A709EE7A9
S11317800948AEE70748ACE70648AAE70548A8E7D2
S11317900448A6E70548A4E711150020780E0020A8
S11317A0780D0020018000F0028000F0078000F036
S11317B0134B1B78FBB110B50446F0B107F0C6FE1D
S11317C00023072B13D80F4A02EB0312127B0AB132
S11317D00133F6E723600B4A190102EB03130124DA
S11317E01C730024545007F0B7FE204602E007F0B3
S11317F0B3FE054810BD054870470548FAE700BF29
S113180011150020780E0020048000F0028000F002
S1131810018000F038B507F099FE04460023072B39
S113182006DC0C4A02EB0312127B12B90133F6E711
S1131830002222B1204607F08FFE074838BD01F090
S1131840E5FB0025054B1D70204607F085FE284664
S1131850F4E700BF780E0020058000F01115002089
S11318600F4B1B78BBB110B50446072815D807F0F9
S11318706DFE0C4B03EB04131B7B1BB907F06CFED2
S113188009480BE0074B03EB041300241C7307F017
S113189063FE204602E005487047054810BD00BFBE
S11318A011150020780E0020068000F0028000F060
S11318B0018000F000B583B0144B1B680193002332
S11318C08DF8043007F042FE114B1B7833B9104BEE
S11318D001221A7007F040FE002309E007F03CFEE5
S11318E00C480FE00C4A02EB031200211173013380
S11318F0072BF7DD04238DF807300DEB030001F00F
S1131900A7FB002003B05DF804FB00BFC8B00000D3
S113191011150020038000F0780E002008B50A4B52
S11319201B785BB107280BD8084B03EB00131B7B18
S113193043B1002101F082FB002008BD0448FCE70C
S11319400448FAE70448F8E711150020780E00204F
S1131950028000F0018000F0078000F008B50A4B17
S11319601B785BB107280BD8084B03EB00131B7BD8
S113197043B1012101F062FB002008BD0448FCE7EB
S11319800448FAE70448F8E711150020780E00200F
S1131990028000F0018000F0078000F008B50A4BD7
S11319A01B7853B107280AD8084B03EB00131B7BA1
S11319B03BB101F0CBFB002008BD0548FCE705481E
S11319C0FAE70548F8E700BF11150020780E00205B
S11319D0028000F0018000F0078000F0104B1B78BB
S11319E0ABB1072815D8B1B10E4B03EB00131B7B29
S11319F09BB10D4B1B6E0122824013EA020003D0FF
S1131A0001230B700020704700230B7070470748B8
S1131A10704707487047064870470648704700BF3C
S1131A2011150020780E002000200E40028000F0E6
S1131A30018000F0078000F00C4B1B7873B110B5E7
S1131A400C4607280CD869B1094B03EB00131B7B28
S1131A5053B101F08FFB2070002010BD0548704782
S1131A600548FAE70448F8E70448F6E711150020AA
S1131A70780E0020028000F0018000F0078000F062
S1131A80F8B5194B1F6EDB6E1F4002D401250024EC
S1131A9002E0FEE701346D00072C24D83D42F9D062
S1131AA0114B9D662301114AD358002BF2D002EB4F
S1131AB00416B1680131B16072682046984780F01D
S1131AC00100C0B2737B012BE4D10028E2D0084BA3
S1131AD003EB44131A7B6FF341021A731A7F6FF3FB
S1131AE041021A77D6E7F8BD00200E40780E002098
S1131AF0780D002010B5044602E0202007E090474E
S1131B00DCB194FAA4F00028F7D0B0FA80F00123F5
S1131B10834024EA0304094B03EB00135A68002AA8
S1131B20EED0064B03EB00131B7B002BE7D0034BDB
S1131B3003EB001399689047E2E710BDF80E00200C
S1131B4008B5122000F090FD28B1084B4FF4802214
S1131B50C3F880211A600A2000F086FD28B1034BE7
S1131B604FF48062C3F880211A6008BD00E100E0F0
S1131B7038B505460C4607F0E9FC044B03EB0513A6
S1131B805C6000221A7307F0E7FC38BDF80E0020F1
S1131B90F8B505460F46164607F0D8FC05F0FC0CD0
S1131BA00F4BD3F828140023032B0BD85C1904F033
S1131BB00304644421FA04F212F0010F03D0013348
S1131BC0DBB2F1E7FF24FF2C06D0064B03EB041332
S1131BD05F609E6001221A7307F0BEFC2046F8BDC8
S1131BE000A00040F80E002008B5064BD3F82804E6
S1131BF0D3F81C24104000F05530C3F82404FFF738
S1131C0079FF08BD00A0004008B5064BD3F82804AE
S1131C10D3F81C24104000F0AA30C3F82404FFF7C2
S1131C2069FF08BD00A00040074BDB6B13F0400FB9
S1131C3004D1064BD3F8C830002BFAD1024B5868B4
S1131C40C0F30140704700BF00300E400000C6439F
S1131C500C4B984205D90C4B984210D801210A46E6
S1131C6001E000210A46094B1A64094AD2F80031FE
S1131C7023F0807343EA0163C2F800317047022104
S1131C800122F0E70048E8010090D0030000C843B7
S1131C9000400E40014B1868704700BF3008002018
S1131CA0114B5B68002300E00133042B0CD80F4A6E
S1131CB002EBC30292F804C0CAB29445F4D10B4AB1
S1131CC052F833208242EFD3052B0BD0074A02EBA4
S1131CD0C3035979044A536823F0407343EA016308
S1131CE0536070470321F5E700000E40CCB00000BC
S1131CF008B5FFF77FF9044BD3F80031C3F304238D
S1131D0003FB000008BD00BF00400E4010B5084BA7
S1131D101C6CA4B241F671321A64FFF767F9002112
S1131D20FFF7BEFF14B1024B00221A6410BD00BFBE
S1131D3000000E4010B5064B1C6CA4B241F6713283
S1131D401A64FFF7ADFF14B1014B00221A6410BDF1
S1131D5000000E4010B4C0F30323013B092B21D82B
S1131D60DFE803F00508202030232620292D002455
S1131D70164A01E00024164AC0F3043054B1134B50
S1131D80D3F8443113F0010F04D1104BD3F8403190
S1131D901C42FAD102F1424303F5801300EBC30065
S1131DA0800001605DF8044B70470124094AE3E7B1
S1131DB01024094AE0E74FF48034084ADCE70024A1
S1131DC0074AD9E70024074AD6E700BF00400E407F
S1131DD0C0400E40E0400E40E8400E40F0400E404F
S1131DE050410E40B0400E40C0F30313013B092B99
S1131DF06BD8DFE803F0050B111B6A6A2127415FEA
S1131E00334BD3F80001C0F304207047304BD3F8B0
S1131E101401C0F3042070472D4BD3F80031C3F3F1
S1131E20006301330120984001387047284BD3F8F0
S1131E300C01C0F308207047254BD3F80801C0F308
S1131E4008207047234B984204D0234B98420AD071
S1131E50002070471E4BD3F8203103F00F030120FC
S1131E609840013870471A4BD3F82031C3F301135B
S1131E700120984001387047184B984207D003F569
S1131E80B01303F5805398420AD000207047104BDA
S1131E90D3F82831C3F30113012098400138704767
S1131EA00B4BD3F82831C3F30123043301209840AA
S1131EB0013870470A4B984201D000207047044B08
S1131EC0D3F8300100F0030070470020704700BFD2
S1131ED000400E408006160080162E0090171A004F
S1131EE0A009140000F00F000138072865D8DFE8C6
S1131EF000F0041B2A643E4D64553B4BD3F89430E8
S1131F0003F00703023B052B0CD8DFE803F0055868
S1131F1003070B0902207047042070470B20704709
S1131F200C207047052070472F4BD3F8803003F006
S1131F300703022B45D0042B45D0012B01D00120EF
S1131F40704703207047284BD3F8843003F007030D
S1131F50013B032B09D8DFE803F002380604032011
S1131F6070470A20704706207047012070471E4BB7
S1131F70D3F8883003F00703022B28D0042B28D091
S1131F80012B01D00120704703207047164B1B6FB3
S1131F9013F001031FD003B309207047124BD3F889
S1131FA05C3103F03003202B19D0302B19D0102BC7
S1131FB001D001207047072070470020704703209C
S1131FC07047022070470A207047022070470220A1
S1131FD070470A207047072070470120704704208B
S1131FE070470820704700BF00400E4010B50446FB
S1131FF0FFF778FF1B4B9C4212D01B4B9C4215D021
S11320001A4B9C4206D00138032828D8DFE800F098
S113201014171D1A164BD3F8800000F00700F2E7DE
S1132020134BD3F8840000F00700ECE7104BD3F80F
S1132030880000F00700E6E707F008FA10BDFFF794
S11320403DF8FBE707F005FAF8E7FEF7D3FF084B86
S1132050D3F80031C3F300630133D840EEE7002026
S1132060ECE700BF030020000500240002001E006E
S113207000400E4008B50748FFF734FF072804D096
S1132080092805D1FEF7B6FF03E0FFF703FE00E0E1
S1132090002008BD06000E0008B10020704710B5EE
S11320A004460A48FFF71EFF072805D0082809D070
S11320B0042804D0204610BDFFF7ECFDFBE7FEF733
S11320C0D7FFF8E7FFF714FEF5E700BFB8003200CA
S11320D038B500F47813B3F5B01F00F093800546CB
S11320E03BD8B3F5402F00F0828010D9B3F5801FA0
S11320F000F0AA80B3F5A01F27D15748FFF776FF59
S1132100564BD3F8303103F00303D8401CE0B3F549
S1132110802F61D005D9B3F5202F14D1FEF76AFFC3
S113212012E0002B55D0B3F5003F0AD1FEF762FF51
S11321304A4BD3F80831C3F308230133B0FBF3F05F
S113214002E0002000E0002038BDB3F5602F02D18A
S1132150FFF790FFF8E70020F6E7B3F5381F5BD0F0
S11321600ED9B3F5481F72D0B3F5781F21D1FEF70D
S113217041FF0446284607F0DDF9B4FBF0F0E3E73D
S1132180B3F5001F52D006D9B3F5101F0FD1324852
S1132190FFF72CFFD8E7B3F5D01F4BD0B3F5F01FF2
S11321A003D12F48FFF722FFCEE70020CCE7002021
S11321B0CAE7B3F5401F0AD12A48FFF717FF274B98
S11321C0D3F82831C3F301230433D840BCE70020FB
S11321D0BAE7FEF70FFFB7E7FEF70CFF1F4BD3F884
S11321E00C31C3F308230133B0FBF3F0ACE7FEF783
S11321F001FF1A4BD3F81431C3F304230133B0FBAA
S1132200F3F0A1E71648FFF7F1FE144BD3F82031A1
S113221003F00F03D84097E71148FFF7E7FE0F4B91
S1132220D3F82031C3F30113D8408DE70D48FFF7ED
S1132230DDFE89E70B48FFF7D9FE084BD3F82831B8
S1132240C3F30113D8407FE7FFF724FD7CE70020A8
S1132250FFF722FF78E700BF0500240000400E408E
S113226002001E0003002000014B1880704700BFCD
S1132270FA080020014B1880704700BFF8080020BE
S113228004281ED8DFE800F0180312080D000E4BD6
S1132290186AC0F3080070470B4B186900F07F0000
S11322A07047094B986900F07F007047064BD3F8DC
S11322B09C00C0F30A007047034B986B00F07F004A
S11322C070470020704700BF00400E4038B50C46F0
S11322D0042813D8DFE800F043032F132100C1F3CF
S11322E00804274BD3F86838002BFAD1254A136A1F
S11322F023F4FF7323F001032343136238BD01F079
S11323007F041F4BD3F86038002BFAD11D4A1369A0
S113231023F07F0323431361F0E701F07F04184B9C
S1132320D3F86438002BFAD1164A936923F07F035B
S113233023439361E2E7134DD5F890306B6A23F0A1
S1132340300343F010036B62C1F3C31007F0ECF8E1
S11323502A6B0D4B1340234303432B63CEE74F29D2
S113236028BF4F24064BD3F87438002BFAD1054A02
S1132370936B23F07F03E4B21C439463BEE700BF76
S11323800020C84300400E4000F8FF0F134B5B6A67
S113239013F0300F09D0202914D0302915D009B1F9
S11323A00F4A04E04FF4400201E04FF440020B4BAB
S11323B0D3F8903032EA0303F9D112F4800F07D135
S11323C0012070474FF40002F1E74FF44002EEE7BA
S11323D0024BD3F8A000C0F38020704700400E40A9
S11323E0FF33E107022801D00120704710B529B15D
S11323F0054B4FF48064C3F8A84059660AB901201C
S113240010BDFFF7C3FFFBE700400E4070B5042882
S113241000F28580DFE800F0484250033C000223CC
S113242001250024AC46002967D002284AD00021A7
S11324303B4B1D663B4B23449B001B68002BF9D090
S1132440002A6CD0374C6444A4002368002BF9D0D4
S1132450022864D1002962D0314B5B6A13F0010F6A
S113246046D001222021FFF7BDFF0220FFF708FF1D
S11324700646012200210220FFF7C8FF3146022050
S1132480FFF724FF264B1D662368002BFCD046E093
S11324902023102504244FF0050CC4E78023402595
S11324A006244FF0070CBEE74FF400734FF4807519
S11324B008244FF0090CB6E70823042502244FF042
S11324C0030CB0E7164B5B6A13F0300F0ED1164BBA
S11324D0DB6B134B5B6A13F0010FA9D0104E736AC8
S11324E023F0300343F010037362A1E700219FE758
S11324F000210220FFF74AFFB7E709490B66084BA2
S1132500D3F890100123A3401942F8D13AB1044BF7
S1132510D3F89020012303FA0CF31A42F7D170BDCB
S113252000400E408004F21000300E4038B5FEF733
S11325309FFD0446002100F013FA1648FFF788FBBC
S1132540012211460220FFF761FFFFF7DFFB4CB1C8
S1132550114BDB6B13F0400F04D1104BD3F8C83090
S1132560002BFAD10E4B02225A67FEF743FDFFF708
S11325706FFBFEF76BFD0546FFF756FB0146284649
S1132580FFF7D8FB04B138BD0121002000F0E8F9C1
S1132590F9E700BF0148E80100300E400000C643DF
S11325A000400E4070B504461120FFF79BFC012249
S11325B000210220FFF72AFF237C022B2AD00022CD
S11325C0154E736A23F00103134373622278134B8D
S11325D0C3F8A024A288637A43EAC223F362356B6A
S11325E005F07F65E38845EAC325A37A1D43207A75
S11325F045EAC01506F098FF05433563627BA37B6B
S11326001B0143EA0233E27B1343227B43EA024386
S1132610736370BD0122D3E700400E400000C8433D
S113262038B505461120FFF75DFC0D4A916B0D4C42
S11326300C4029780C436B7844EAC324AB7844EA11
S11326400364EB7844EA0324936BA34200D138BDBE
S1132650012200210846FFF7D9FE014B9C63F6E7EF
S113266000400E4080E4FFF84209064B53F8223044
S113267000F01F0023FA00F080F0010000F00100D8
S1132680704700BF00E100E0074BDB6B13F0400F25
S113269004D1064BD3F8C830002BFAD1024B58684A
S11326A0C0F30140704700BF00300E400000C64335
S11326B01A48C26CC2F30322194B1B8803F1280188
S11326C003EB51032833013202EB8201B3FBF1F334
S11326D0013B072B28BF0723C16C21F0EE6141EABF
S11326E0036343F48013C3640E4BB3F90030002B2F
S11326F013DB9BB203F1280103EB51032833510888
S113270001EB4202B3FBF2F3072B28BF0723026D50
S113271022F0700242EA03130365704700300E4052
S113272002150020FE140020024B1880024B198071
S1132730704700BF02150020FE14002010B10128CC
S113274004D07047034B044A9A657047014B034A0F
S11327509A65704700300E4077402057372110B7F4
S11327601A4BD3F83032032929D8DFE801F00212DA
S11327701518DBB24AB91B0333F4704121D1144854
S1132780C16E21F470411943C166012A09D00120A8
S11327907047C3F30723EDE7C3F30743EAE71B0ED0
S11327A0E8E71B0333F470420DD10949D1F8EC205A
S11327B022F470421343C1F8EC300120704700202A
S11327C07047002070470020704700BF0081E00F71
S11327D000300E401B02A2B101221343B3F5007F67
S11327E04DD022D8B3F5807F42D00CD940F20112EB
S11327F0934215D1294BD3F824321A0EC3F307435D
S113280010E00022E9E763B3012B06D1234BD3F890
S11328102432C3F30722DBB204E00022134601E0B2
S11328200022134603600A607047B3F5407F2DD041
S113283040F20132934206D1184BD3F828321A0ED3
S1132840C3F30743EEE740F20122934206D1134B50
S1132850D3F82832C3F30722DBB2E3E7002213469E
S1132860E0E70E4BD3F81C32C3F30722DBB2D9E7FF
S11328700A4BD3F81C321A0EC3F30743D2E7074BB3
S1132880D3F82032C3F30722DBB2CBE7034BD3F8F0
S113289020321A0EC3F30743C4E700BF0081E00FE0
S11328A0134B9A6922F03F020378D3B10423417891
S11328B0C9B102210B438178B9B108210B43C17816
S11328C0012900D000210B4301790B431343084A2B
S11328D09361136823F44033417943EA014313605D
S11328E070470023E3E70021E4E70021E6E700BFA7
S11328F000300E40174BDB6B13F0400F29D170B53D
S113290004460D46FFF7C0FEA04218D0124BD3F880
S11329100031FEF76FFB0646022C11D0C4F102020F
S1132920102393400B4A136145B1D36B13F0400F4E
S113293004D10A4BD3F8C830002BFAD124B170BDAE
S11329400221FFF7F7F9E9E700213046FFF7F2F932
S1132950F5E7704700300E4000400E400000C643CB
S113296038B5114BDB6B13F0400F0BD10C4650B153
S11329700E4B1B7813B10E4B98420FD92146002001
S1132980FFF7B8FF38BD0B4BD3F80051C5F304254E
S11329900135FEF72FFB05FB00F0E9E72146022095
S11329A0FFF7A8FFEEE700BF00300E40F81000204C
S11329B0002D310100400E4010B42C4B5A6B4AF6E6
S11329C0E8515963294B9B6F13F0010FFAD1274B40
S11329D01B6C13F0030303D025490124C1F8B44A46
S11329E0D9B2814221D0032B00D01BB9431EDBB2E4
S11329F0012B21D91D4B9B6F13F0010FFAD11B49F9
S1132A000B6C23F0030303430B64184B9B6F13F00D
S1132A10010FFAD1003818BF0120154BC3F8B40ACE
S1132A20012A1FD05DF8044B70470028FAD1104BDF
S1132A300022C3F8B42AF5E70C4B4FF40021D96205
S1132A400A4B9B6F13F0010FFAD108490B6C23F06A
S1132A50030343F001030B64044B5B6A13F4002F7C
S1132A60FAD0C7E7014B00225A63DBE700300E407F
S1132A700000C6432DE9F04F8DB000910192002370
S1132A8009930A930B930693079308930393049370
S1132A900593654A1288ADF808208DF80A30A0F530
S1132AA0E163B3F5966F00F2AE800646B0F5E16FD0
S1132AB08CBF4FF001094FF000096DD94FF4966AAD
S1132AC04FF4E164B6F5E16F6BD9584BD3F8183283
S1132AD008931A0E0592C3F307430893544DEF6C01
S1132AE0C7F301778DF808703B464A4603A906A848
S1132AF0FFF770FED5F8EC30C3F301288DF8098098
S1132B0043464A4604A907A8FFF764FE321B089B04
S1132B100599C91A02FB01F1B1FBFAF10B911944B1
S1132B200B91DDF80CB0DDF818C0ABEB0C0502FB23
S1132B3005F5B5FBFAF5099565440995DDF810E04E
S1132B400798AEEB000404FB02F2B2FBFAF20A921D
S1132B5084180A94059A8A4259D38B4259D8A645B7
S1132B6059D3A04259D8AB4559D3AC4559D8019B48
S1132B7073B12F4BDB6D23F4FE4323F0020343EACE
S1132B800123B6F5E16F16D902221343284AD3650F
S1132B90009B93B9012037E04FF4167A4FF4966402
S1132BA090E7224BD3F818320893C3F30722059217
S1132BB0DBB2089392E70022E7E700223946484651
S1132BC0FFF7CEFD00B3012241464846FFF7C8FD9A
S1132BD0D0B1A54238BF25460995E72D28BFE72582
S1132BE00995134B5B6E23F4FF7323F0010343EA4F
S1132BF04503B6F5E16F04D9012213430C4A536629
S1132C0002E00022F9E700200DB0BDE8F08F0020BB
S1132C10FAE70020F8E70020F6E70020F4E70020B8
S1132C20F2E70020F0E700BFF4B000000081E00FFD
S1132C3000300E4008B5214B1A6FDB6C13F0010F06
S1132C4009D012F0060F06D013281FD91438132800
S1132C501ED8082323E0194BDB6C13F0010F09D1B4
S1132C6012F0060F06D1092814D90A38092813D8F6
S1132C70082314E0114BDB6C13F001030FD012F0A6
S1132C80060F0BD1272817D8082308E0042306E0F1
S1132C90102304E0042302E0102300E00023013B9E
S1132CA01A0342EA03220549CB6C23F47F431343FE
S1132CB0CB64FFF7FDFC08BD1023F0E700300E40A5
S1132CC008B5074BD3F88039064A136F23F007037E
S1132CD003431367044B1888FFF7ACFF08BD00BF1C
S1132CE00000C64300300E400015002008B5084A15
S1132CF0D36E43F08073D366064BD3F880391BB18F
S1132D000420FFF7DDFF08BD0020FFF7D9FFFAE735
S1132D1000300E400000C64338B5304B02229A639F
S1132D209B6B03F00F03934254D10446B0F90C108B
S1132D30C3884A2B09D9B3F5FA7F41D340F6C312AD
S1132D40934240D84FF0005200E00022234BDB6C4A
S1132D5023F0405323F00103002937DB01210A4308
S1132D6013431E4AD364D2F8EC3043F44073C2F8E0
S1132D70EC30A2881A4B1A80FFF7B8FFB4F90C1094
S1132D802089FFF7D1FCA088FFF754FFA07BFFF751
S1132D90D5FC012211466088FFF76CFE0546D0B1D0
S1132DA00E4AD36B43F48063D3636078FFF704FE69
S1132DB0A37A202B0CD000220A4BC3F894270AE0F4
S1132DC04FF08052C2E74FF04052BFE70021C6E700
S1132DD00122F1E70025284638BD00BF00300E402F
S1132DE0001500200000C643044AD2F8443423F0FE
S1132DF003030343C2F84434704700BF00A00040FB
S1132E00F8B50D4614461E46072A2AD8930000FA40
S1132E1003F20F2199401D4806F0A1FB0027072C5F
S1132E202AD8A10005F003028A40032303FA01F122
S1132E30174806F094FB174A224492001660164B7A
S1132E4023449B009DF818201A600123A340134AD1
S1132E50C2F82434124B23449B009DF81C201A60B2
S1132E60F8BDA2F10807BB0000FA03F20F21994054
S1132E700C4806F074FBD2E7BF0005F00302BA4029
S1132E800321B940084806F06AFBD4E700A40040D7
S1132E9008A4004080208510A020851000A00040D8
S1132EA04021851004A400400CA40040F8B5044659
S1132EB00D461E4617463AB1FBB100EB400109012D
S1132EC00122AA401D4B5A50072D1ED8A90004EB1D
S1132ED044031B0107FA01F20F2000FA01F118481C
S1132EE0184406F03CFB3FB9FEB104EB4404240152
S1132EF00122AA40114B1A51F8BD00EB400109010F
S1132F000122AA400F4B5A50DEE7A5F108039B00AB
S1132F1004EB440C4FEA0C1C07FA03F20F2199400E
S1132F200948604406F01BFBDDE704EB440424017C
S1132F300122AA40034B1A51DEE700BF0CA0004651
S1132F4004A000400CA0004408A0004002B970474F
S1132F50F8B504460E46174603F00305036823F448
S1132F60407303602A024FF4407106F006FB2EB949
S1132F70124B9C4217D0124B9C4219D02368114B20
S1132F805A5D07FB02F26AB1A6EBC7031344013B87
S1132F90B3FBF2F3013B226812F0020F01D003B934
S1132FA001232361F8BD0848FFF792F80646E5E7D8
S1132FB00648FFF78DF80646E0E700BF00C0004072
S1132FC000C40040F8B00000008204000092040035
S1132FD038B505460C46002303640B4BC3634A789B
S1132FE082F0010200F1424303F58013DB00013358
S1132FF09B001A600B7B8A684968FFF7A7FF21785A
S1133000284606F0C8FA38BDFFFF070008B5094B8B
S11330104FF40072C3F88020BFF34F8FBFF36F8F5C
S1133020054B0021D96619624FF4AA40FEF792FEBF
S113303008BD00BF00E100E000200E4081F0010166
S1133040024B03449B001960704700BFA001F110BC
S113305010B5044601214FF4AA40FEF77BFE237805
S11330606178A27842EA012242EA03620B4B1A60B9
S113307000221A62DA625A634FF00042DA664FF0B5
S1133080FF329A66064A4FF40071C2F88011E37861
S11330905B01DBB282F80933116010BD00200E40E1
S11330A000E100E070B50C46C3B201259D40254EF9
S11330B0B5660B6800EB400106EB0111C1F88030E6
S11330C0637BC1F8883094F80AC0E37A1B0543EAAD
S11330D00C4394F80CC043EA4C53C1F8843022F0FA
S11330E00302C1F8982006F031FAF36E2B43F3661D
S11330F0237A13B1736B2B437363637A1BB1114A45
S1133100D36A2B43D3620F4B1B68227922B1D2437B
S1133110120262F47F42134062790AB143EA022345
S1133120A2791AB1D24362F0FF021340E27902B1EC
S11331301343044A1360044B9D62D56306F00CFAF2
S113314070BD00BF00200E4000200E4410B5C0B278
S11331500124844006F0FAF9044AD36E23EA0403F6
S1133160D366034B1C6206F0F7F910BD00200E4035
S113317000200E4410B5C0B20124844006F0E6F9E4
S1133180084B1B6A234205D1064B9B6A9C4306D01D
S1133190002400E0002406F0DFF9204610BD0124DD
S11331A0F9E700BF00200E400D4AD2F8E4309B003E
S11331B003F03C03D2F8E010C1F381110B43837098
S11331C0D2F8E03003F03F034370D2F8E83003F064
S11331D0F003D2F8EC20C2F30312134303707047D8
S11331E000FF0FE0024BD3F8FC00000E704700BF55
S11331F00081E00F70B5054616461C460846D1B15D
S1133200402C20D01BD804B3202C13D1082306FB58
S113321003F2530803EB4013B3FBF2F3203B0C4AD5
S113322002EAC3032A6822F060022A602A6814436F
S11332302C606B6170BD0748FEF74AFFE0E7602C25
S1133240F8D10423E3E70623E1E71023DFE700BF17
S1133250F8FF7F004041050038B5054614460B468B
S113326031B1013B6400B3FBF4F31B026B6138BD65
S11332700248FEF72DFF0346F3E700BF4041050077
S113328040F6AA63C3600023036041F20502426072
S113329083604361C364134A82640366436783673C
S11332A0C367114B98420BD003F58063984207D053
S11332B003F58063984203D003F58063984201D1FB
S11332C0002303650023836503F1804303F5823300
S11332D0984203D003F50063984201D10023C365EB
S11332E0704700BFF9FF01000000014038B50446F3
S11332F006F01CFE054DA446BCE80F000FC59CE873
S11333000F0085E80F00002038BD00BFFC1000202E
S113331047F6FF739A4200F08480062900F2838006
S113332070B5444B13F801E0BEF1020F7DD8424B57
S113333003EBCE0191F802C0BCF1010F38BF4FF08E
S1133340010C604613F83E30012B26D03A4B03EBB8
S1133350CE035C68002C6AD0B4F90030934204DBDD
S1133360B4F90230934200DC1346A288FF2A2CD021
S113337000212826C8221D46D21A92FBF6F20A44DE
S113338012B22D4B03EBCE0393F801E0964501DD19
S1133390002A2FDA0EF1FF322CE0CB78A3EB0C03DA
S11333A000249C420ED2191BA3EB5101224800EBCE
S11333B0CE00406830F91100904201DC0C46F0E781
S11333C04B1EEEE76344D8B230E0B4F90620B4F9FA
S11333D008600121CFE75C331849A1FB03139B0963
S11333E0013212B2164696450FDD04EBC2018988FC
S11333F099420AD304EBC2018B68B1F9061001FBB0
S11334000533002BE7DA0023E5E7013E04EBC604AD
S1133410A2889A4200D31A46624500D31046C0B22D
S113342004E0FF20704700207047002070BD00209A
S1133430FCE700BFFCB00000FC100020D34D62107C
S1133440062975D83E4B5B5C022B73D83D4911F8B5
S11334503310012923D0002A6ED010B4394901EB6E
S1133460C3014C68002C69D0201D364901EBC3010F
S1133470897891422FD2334901EBC301C978914233
S11334802ED9304901EBC30393F801C00CF1FF3C82
S11334905FFA8CFCA388FF2B25D0002327E0294961
S11334A001EBC301C978914200D20A46254800EBDA
S11334B0C300807801282CBF121A02F1FF32D2B265
S11334C0091A8A4200DD00221E4901EBC3035B682E
S11334D033F912007047B4F902005DF8044B7047E9
S11334E0B4F90000F9E7012301E00133DBB26345DD
S11334F004D2591C30F831109142F6D24FF47A714B
S113350001FB02F200EBC3004368D31AB0F90220B6
S113351002EBD27103EB610393FBF2F3B4F9000005
S11335209842DADBB4F902009842D6DC18B2D4E748
S11335300548704704487047044870470248CCE780
S1133540FCB00000FC1000200080FFFF0CFEFFFF19
S113355008B50348FFF7CAFE012006F00AFD08BDBE
S113356004B1000070B582B005460C4606F003FDB8
S113357008B102B070BD6946284606F0D9FC00B116
S1133580FEE762680F4B9A420ED80F4C9DF800304C
S113359022789342EDD00E2B08D1BE262146284630
S11335A006F0B3FC38B1FEE7084CEFE7284600F01C
S11335B0AFFE0646F2E73146284606F0BBFC00287B
S11335C0D7D0FEE7FFC99A3B340800203C0800200E
S11335D070B58AB004460D4628220021684607F0DB
S11335E07DF8032300934FF41653ADF806300222FE
S11335F08DF8082001238DF809308DF80A208DF804
S11336000B30642303934FF47A7306936946204680
S113361006F01DFD0646C0B90C3D102D7CD8DFE830
S113362005F0091B21272D33393F454B51575D6365
S1133630696F75003949204606F00FFD06462EB91C
S1133640FF21204606F007FD064616B1204606F087
S113365000FD30460AB070BD3149204606F0FDFC3D
S11336600646ECE72F49204606F0F7FC0646E6E757
S11336702D49204606F0F1FC0646E0E72B4920469A
S113368006F0EBFC0646DAE72949204606F0E5FC9D
S11336900646D4E72749204606F0DFFC0646CEE777
S11336A02549204606F0D9FC0646C8E723492046AA
S11336B006F0D3FC0646C2E72149204606F0CDFCBD
S11336C00646BCE71F49204606F0C7FC0646B6E797
S11336D01D49204606F0C1FC0646B0E71B492046BA
S11336E006F0BBFC0646AAE71949204606F0B5FCDD
S11336F00646A4E71749204606F0AFFC06469EE7B7
S11337001549204606F0A9FC064698E713492046C9
S113371006F0A3FC064692E7012697E7A4B300004F
S1133720A4B20000E4B3000084B3000044B300007A
S1133730E4B2000024B30000C4B2000064B300008B
S113374004B30000C4B3000084B2000064B20000FB
S113375044B2000024B2000004B20000E4B100004E
S113376000B587B000230193029303930493059358
S113377002238DF804300D4B029306228DF80C20A1
S113378001238DF80D300C218DF80E108DF81220C8
S11337908DF813300D238DF8143001A94FF0FF304C
S11337A006F015FC07B05DF804FB00BF006A1800C2
S11337B000B585B0054BEC460FCB8CE80F00604696
S11337C0FFF7AAFA002005B05DF804FBBCB10000C5
S11337D010B586B00DF1040C144C0FCCACE80F00FE
S11337E02368ACF80030124BD3F8B43013F4002F34
S11337F008D0104B1B884FF6FF72934207D140F25A
S1133800431304E00A4BD3F8B830C3F30803ADF80C
S11338100A300948FDF732FC01A8FEF7C3FE322046
S1133820FEF728FD002006B010BD00BFCCB100009B
S11338300081E00F0001E00F00F0490200B583B001
S1133840074B1B68019320238DF8043001A8FEF771
S1133850E7FE3220FEF708FD002003B05DF804FB0C
S1133860E0B100006FF0040307E003F00F010A4A1F
S11338700A44A021117601335BB2322B09DC002B00
S1133880F3DB03F1604202F56142A02182F80013E8
S1133890F1E70020704700BFFCEC00E010B50446DF
S11338A005F04DFE024B1C6005F04DFE002010BDDE
S11338B01C11002010B505F042FE034B1C6805F0F6
S11338C042FE204610BD00BF1C11002008B5044B69
S11338D01868002302221946806805F04DF808BDD7
S11338E09C080020002807DB00F01F024009012388
S11338F09340024A42F82030704700BF00E100E0E4
S113390000280CDB00F01F02400901239340203003
S1133910034A42F82030BFF34F8FBFF36F8F7047D5
S113392000E100E010B586B01446137A03EB4303BC
S11339301B0103F1804303F56223D3F89420E1686B
S113394023690B449A4216D06169914215D38B1AAC
S1133950ABB90123637694F82D304BB1002384F87E
S11339603530E369132120469847636A2046984717
S1133970002006B010BD0A46E6E79B1AE8E7049467
S11339800549039100210291019301230093636887
S1133990216805F0AEFDEBE72539000038B5044693
S11339A00568FFF787FF844222D095F93630002B53
S11339B008DB03F01F015B0901228A4060330E49D2
S11339C041F8232095F93600FFF79AFF287AFDF78E
S11339D0E5FF287AFDF744FFFDF71CFF0023236071
S11339E06360A36023616361AB6A2846984738BD6E
S11339F00020FFF753FFD8E700E100E030B589B0BD
S1133A00044600234376007AFDF788FF207A00EB12
S1133A1040031B0103F1804303F56223D3F8942090
S1133A20E56823692B449A4219D06369934218D0FC
S1133A30012323760DF11F01FDF7FEFF9DF81F30D2
S1133A4043B30DF11E01207AFDF7C8FF9DF81E3027
S1133A5003BB22460021207AFFF764FF1AE02A46BE
S1133A60E3E700232376656194F82D3003B12563E1
S1133A70636A2046984723690494094A0392002202
S1133A80029201930123009363682A462168207AF5
S1133A9005F02FFD207AFDF761FF09B030BD00BFAE
S1133AA025390000F0B587B006460C4615461F467A
S1133AB038220021204606F011FE95E8030084E830
S1133AC0030000232376EB68E3602A6922616361C3
S1133AD02A7D84F82C20AA7D84F82D2023630123D9
S1133AE084F8343084F83530E7610C9B23620D9BF5
S1133AF063620E9BA36295F9083084F83630346013
S1133B00214B7360214BB360214B3361214B7361B3
S1133B10214BF360FDF7CEFE10B1204A90422DD127
S1133B20002104F10800FDF743FE48BB2369049417
S1133B301B4A0392002202920193012300936368BB
S1133B40E2682168207A05F0D4FC0446D0B995F9DE
S1133B500830002B08DB03F01F015B0901228A40B7
S1133B606033104941F8232095F90800FFF7BAFEA5
S1133B703046FFF793FE204607B0F0BD1024FAE765
S1133B801024F8E71024F6E7219B0000199C00009C
S1133B90479A00004D9A00009D390000038000F010
S1133BA02539000000E100E02DE9F04186B0164619
S1133BB01C460C9D012304930393584B0293584BCA
S1133BC0019300230093574B0A462946FFF76AFFE7
S1133BD0074618B1384606B0BDE8F0812368AB63E8
S1133BE06368EB63637A85F84130237A85F8403063
S1133BF0E37A85F84330A37A85F84230637B85F80D
S1133C004530237B85F84430E37B85F84730A37B3C
S1133C1085F8463001214448FEF79CF801214348C9
S1133C20FEF798F801230422617A207AFFF73EF91F
S1133C3001230222E17AA07AFFF738F901216068B2
S1133C40FEF788F84FF0000886F8008031462068B7
S1133C5005F0B3FC2268536F43F0030353672268F3
S1133C60936F23F4F85323F01F03617C43EA012389
S1133C70A17C0B439367236803225A6785F8488025
S1133C80737E202B31D027D8002B33D0102B21D199
S1133C90012385F84830002600230222617B207B23
S1133CA0FFF704F9E27C2368DA672268536E43F075
S1133CB0040353662268536F43F010035367DEB95D
S1133CC0AA6BD36C43F00403D3640521206805F088
S1133CD06DFC7FE723277DE7302B04D1032385F890
S1133CE048300126D8E7232774E7022385F84830B3
S1133CF00126E4E70026E2E700230422E17BA07B1F
S1133D00FFF7D4F82268D36F217D43EA0123D367F8
S1133D102268536F43F020035367D1E7579C000098
S1133D204B9C0000DB9C00004041050000350A006C
S1133D30BFF34F8F0549CA6802F4E062044B134392
S1133D40CB60BFF34F8F00BFFDE700BF00ED00E085
S1133D500400FA05BFF35F8F074B5A6A22F48032DE
S1133D605A62D3F8942022F00102C3F89420BFF3DE
S1133D704F8FBFF36F8F704700ED00E070B586B0D2
S1133D80002305930493FFF7E5FF4FF0005006F07E
S1133D9014F836490B68400000F03E0040F098509B
S1133DA040F00110324AC2F898304FF00054C2F883
S1133DB09C40C2F8A00001330B602E4D2E4CA5424E
S1133DC013D1BFF35F8F2A4B0522C3F894205A6A9C
S1133DD042F480325A62BFF34F8FBFF36F8FBFF349
S1133DE04F8FBFF36F8F06B070BD03AB019304AB6D
S1133DF0009305AB2A1B2946204605F0C2FF039811
S1133E00C208072800D82022049B5B1BB3FBF2F3F3
S1133E10012101FA03F3DBB2013BDBB2059E013D54
S1133E20AD1BB5FBF2F50D44AB40DBB2A41BB4FBF8
S1133E30F2F401FA04F4013CE4B21C4305F0BDFFC2
S1133E400A4D2A68430003F03E0343EA042343F087
S1133E50407343F001130649C1F89820C1F89C60EF
S1133E60C1F8A03001322A60ABE700BF2011002066
S1133E7000ED00E00C0900200C09002010B50446F8
S1133E80FDF7E4F80C4BA3FB0023B0F57A7F0FD3C6
S1133E909B090A4AB2FBF3F2094B984208D84FF443
S1133EA07A7304FB03F3B3FBF2F39808032B00D8F3
S1133EB010BDFCF72DF9FBE7D34D621040420F0013
S1133EC0E7CD9A3BF8B50D4610B900242046F8BD5D
S1133ED00E4F3E68002EF8D100F036F80446002854
S1133EE0F3D0386000F07CF8204605F09BFF38B131
S1133EF030463E6000F074F8204605F08EFFE4E79B
S1133F00002DE3D02046A847E0E700BF241100209D
S1133F1010B506F07BFA044618B9034B01215B681F
S1133F209847204610BD00BF50080020431E0333AD
S1133F3006D8044B984228BF1846642838BF64202A
S1133F40704700BF40420F00F8B5054605F0F7FA88
S1133F500F4B1E68074626B9384605F0F4FA344676
S1133F6011E0B4688CB194F810C01CF0010F0CD1AE
S1133F7095E80F004CF0010C84E80F0084F810C0A1
S1133F80384605F0E0FA2046F8BD3668E3E700BF9E
S1133F904808002038B505460C4641B10B6833B1DA
S1133FA01B68013303D0CB680BB18B684BB906F0A7
S1133FB0ABF8BDE838404FF492724121002000F084
S1133FC0E1B9084600F09EFC0023044A85F8DC3081
S1133FD0C5E92343C2E9003338BD00BF18090020F6
S1133FE010B5044618B9054B054A136010BD03F01B
S1133FF021FAD4F89830002BF6D1F4E7079E00009C
S11340004408002010B50C4603F052FA054B002179
S11340105B68032098471CB104F014F90128FBD114
S113402010BD00BF5008002008B502460868FFF71D
S11340307DFF08604868FFF779FF48608868FFF7EC
S113404075FF8860C868FFF771FF0B69C860581C6A
S113405003D00B48834228BF03460B614B69581CAD
S113406003D00748834228BF034688694B61FFF7A2
S11340705DFFBDE808408861104603F025BF00BF1E
S113408040420F002DE9F84FD0F8903006460F4615
S113409013B1038B8B4244D0D6F88CB0BBF1000F24
S11340A042D0DBF80830002B3ED0DBF80C1000299E
S11340B03AD0D6F8A0A0BAF1000F38D04FF00009DA
S11340C04D46C84601E0DBF8083005EBC50203EBBA
S11340D082040135E389BB4214D8238ABB423046AB
S11340E010D3B4F91220B6F924309342A04653DD1C
S11340F096F8D010FFF70CF9337D834281464BD9F3
S1134100DBF80C108D42DED3B8F1000F3ED0002353
S1134110424619463046D0473783C6F8908086F821
S1134120D9900020BDE8F88F0320BDE8F88FD14670
S11341305446524647F6FF7504EBC40803EB88085F
S1134140B8F80E30BB421BD8B8F81030BB4217D3B6
S1134150B8F91220AA4207D14FF0FF093783C6F8F5
S1134160908086F8D990DCE796F8D0103046FFF7B7
S1134170CFF8337D834281464246EFD9DBF80C10F9
S11341800134A14204D9DBF80830D5E70120C9E79E
S1134190002AFBD09046E1E7A046B8E72DE9F047B6
S11341A082B004468946164604F03EF83B4D08B1F9
S11341B000236B602B68D4F88CA0D4F890700BB1FA
S11341C053454BD04FF00008C5F8089004F03AF876
S11341D0012836D12B68DAF800103A6813B1186850
S11341E0884246D0204606F005F9C5E900A7D4F870
S11341F0A0508DF80760002D42D000220DF1070376
S113420011462046A847204603F0C0FB0546B8F1F6
S1134210000F00D08EB1B5FA85F040F2DE324009CD
S1134220332100F0AFF83146204603F00BFD1C4B60
S113423005461B68394620469847284602B0BDE823
S1134240F087012003F034F9164B00215B6803204A
S1134250984703F0F7FF0128FBD1BBE76B68002BFD
S1134260B0D0BB42AED1AB68994514D04FF0010831
S1134270AAE7696811B109689142B6D05968B1E7F3
S1134280217D94F8D930994228BF194632462046F8
S113429003F050FBB7E70025CFE700BF1809002063
S11342A04408002050080020F8B505460E4605F0E5
S11342B046F9314607462846FFF7E4FE044620B196
S11342C0384605F040F92046F8BD03F095FF224634
S11342D031462846FFF762FF0446384605F033F9B5
S11342E02046F8BD084B10B4002A14BF14461C46DF
S11342F0064B1C6019B15DF8044B05F09FBD0846E0
S11343005DF8044B704700BF079E0000440800207E
S113431013B50446694605F00BFE204605F0EDFF93
S1134320FF28024606D09DF800102046FFF788F8C3
S113433002B010BD0048FBE70080FFFF08B50B4644
S11343400249194005F01DFE002008BD07001100B8
S113435007B54FF400730A49ADF806300DF10602B3
S113436005F033FEBDF80630B3F5007F05D1022811
S113437008BF002003B05DF804FB0120FAE700BF8A
S11343802811002008B550B90548064B01601A6091
S1134390054B1A68054B1A60186804F0F7FF08BD4E
S11343A04C0800202C130020241100202813002086
S11343B02DE9F0411B4A8AB001AC05460B4602F1D7
S11343C0200C274610685168264603C60832624509
S11343D03446F7D1002B08BF3B46106830600027F5
S11343E003F10C061C46384690B95FFA87F8218819
S11343F04246284606F041F850B9E188424628462C
S113440006F04CF820B942463146284606F058F8E2
S11344100137032F06F1080604F10204E4D10AB0BF
S1134420BDE8F08118B40000F0B589B005460E4629
S113443006F055F8044600BB06F10C070FCF01AC9B
S11344400FC497E8070084E8070001A92846FFF78E
S1134450EBFD311D284606F07FF8044648B90849AB
S1134460284603F0F3FC044618B9284603F08AFFF3
S1134470044631682846FFF79BFF204609B0F0BD8B
S113448010B40000014905F0AABD00BFF582000088
S1134490014905F0A4BD00BF05830000014905F0F2
S11344A09EBD00BF25830000014905F098BD00BFF3
S11344B015830000014905F0A4BD00BF3BA5000021
S11344C0014905F09EBD00BF65840000014905F067
S11344D098BD00BF398400000D4BD3F8E020D2030F
S11344E014D50C494FF48032C3F8E820C1F8EC200D
S11344F09A6BD1B2C2F3072299679A6704229A672A
S113450000229A679A679A679A679A67704700BF0A
S11345100010084000100846F8B50C4C0D4617462C
S1134520064605F00CF80123A362042327606660A5
S1134530A560C4F8E830064B4FF48072C3F88021BC
S113454005F001F80DB10223A362F8BD0010084084
S113455000E100E0054B1860054B01229A6540F626
S1134560FF72196358635A65704700BF3413002003
S1134570001008402DE9F04F042A83B0054639D9CC
S11345800B7883614B7883618B788361CB7883610B
S11345900068D5F808B06E6800F007000123063003
S11345A003FA00F808F1FF3909EA0B07A2F1040A3B
S11345B0A8EB0702924501F1040446F000560DD819
S11345C0F0192146524606F00AF80AEB0B0248EAB3
S11345D009031A40AA6003B0BDE8F08F2146F01920
S11345E0019205F0FCFF019AA118AAEB08023046DB
S11345F03A44E8E7013A032AEDD8DFE802F00B0871
S1134600050211F8013B836111F8013BAB6111F81C
S1134610013BAB610B78AB6103B0BDE8F08F00BF29
S113462038B50C46104B1546014668B10122C3F853
S1134630B8200E482246FFF79DFF1DB10A4B042205
S1134640C3F8B820002038BD64B1D3F89C20A2423E
S113465084BF0122C3F8B820C3F898400222C3F8EB
S1134660B820EAE70122FAE7001008409010084059
S113467010B504F064FF184B184901229A65C3F879
S113468088201A66164A5A660722C3F884200A80CC
S1134690144900220A804FF4A021C3F8E81003F162
S11346A0C0630446C3F8EC100F4B1A600F4BD3F8E9
S11346B088305B020AD50E4B18680E4B4FF480020B
S11346C0C3F88820416BA43001F062F82046BDE8AD
S11346D0104004F038BF00BF001008400615002049
S11346E0700A002004150020301300200040084008
S11346F024110020004008440D4B07221A800D4B62
S113470000221A800C4B0121C3F8B810C3F8902082
S11347104FF40052C3F89400C3F8B420074BF022BE
S11347201A6403F10073A0221A64FFF7A1BF00BF4B
S1134730061500200415002000100840000008445D
S11347402DE9F041044688B1394E3A4F04F0F7FEA2
S11347503388394A03F07801032C054603F07F0CB3
S1134760114453D13C6824B904F0EDFE0320BDE8A4
S1134770F08124F00104386820F00100A0424AD1FD
S113478000223A6022886FEA42426FEA52428C4227
S1134790228036D1294CDFF8B8C02788ACF18008D4
S11347A03A46083A92B201F10800604528BF4046F3
S11347B0082A04D9B0F900E0BEF1000F36DB2280EC
S11347C03B440C8888781E499B1ADBB2C4F30C0462
S11347D0CC6300F007003380CB66C1F88420FFF778
S11347E07BFE04280DD1174BD3F88830164B18687C
S11347F0164B4FF48002C3F88820416BA43000F0BC
S1134800C7FF284604F09FFE0020B0E7601E012881
S113481098BF0C46AFE7094862440088A21A48BF13
S1134820803208389042ADDC28469DE70146B8E75F
S11348300415002030130020700A00200615002003
S113484000100840004008402411002000400844A3
S1134850F00A00200E490F4B0A881B880E481344A7
S1134860073B03F0780303440832987892B20A8035
S113487000F0070009490428C1F8842004D101F597
S113488040514A681203FCD4054A1360704700BFC4
S11348900615002004150020700A002000100840AE
S11348A03013002010B5054C206828B1C30701D48B
S11348B0FFF746FF0023236010BD00BF3013002024
S11348C0084B4FF48032C3F8EC2003F17C43C3F867
S11348D0E420D3F88030C3F30C03782B01D8FFF71E
S11348E0FBBD704700100844431C08D0044AD2F8AA
S11348F03C311B0C1B0480B20343C2F83C317047AB
S113490000400840054BD3F8B400431C14BFC0F367
S113491080700120A6223121FFF734BD0081E00F11
S1134920034B1A689B88026083800020704700BF95
S1134930FC0800200F4B0628D3F8883104D183F4F7
S11349400013C3F340507047022805D113F4400FFD
S11349500CBF01200020704750B9074AD2F8D40098
S113496010F0010005D083F48003C3F38050704736
S11349700020704700400E400081E00F0C4A52882E
S1134980B2F5E16F94BFC8225A2210B594BF7824BF
S1134990502490428CBF172210220A70054A034605
S11349A0107818B19C422CBF0020012010BD00BF1C
S11349B0FC0800200A09002013B5234B1B780E2B9A
S11349C004463ED00DF10701FFF7D8FF1E2C8CBF23
S11349D01E4C1F4C9DF807304FF001028CBF012183
S11349E00021C4F8082170B1194A4DF60174C2F8C7
S11349F004411B0202F1007243F44043C2F8043143
S1134A00144AA2F8D430134A134C92F8D83023F045
S1134A100103034323F0020343EA4103DBB282F8B8
S1134A20D83024786CB923F0040343EA800323F0DC
S1134A300803B2F8D440A2F8D64043EAC10382F88E
S1134A40D83002B010BD00BFFC080020004008466A
S1134A5000400844001F002114150020084B094A97
S1134A60D3F88831DB4303F4FE1343F40053B3FA61
S1134A7083F30E33A3EB4313013B1370704700BF62
S1134A8000400E400909002002280CD0062802D05C
S1134A9020B100207047054B18787047034B1878F5
S1134AA00430C0B270470720704700BF09090020D6
S1134AB02DE9F7433A4E3B4F96F8009015463A4A93
S1134AC0D2F8C820B9F1020F0446884607EA020763
S1134AD01AD147EA006788F80000002372882B6027
S1134AE0B2F5E16F94BFC8225A2227F47F5794424B
S1134AF027F008079ABF380A00F47F5043F6C870BD
S1134B00384303B0BDE8F083284A1278904228BFA6
S1134B10144604EB83030B70F4B1013CE4B24FF090
S1134B2030632B606A4601A9204605F011FBDDE9DC
S1134B30002347EA03671E4B98F800101B7847EAE6
S1134B40823747F47F5747F008073BB90029194BD0
S1134B5018BF4FF07F43C1E7164BE2E7164B1748E7
S1134B60B9F1060F08BF03462AB90029114B18BF33
S1134B704FF07F43B2E7B2FA82F2C2F11F02D2B21F
S1134B809B5CDBB239B15A1ED2B2FD2A05D81B0692
S1134B9043F00403A2E7074BA0E74FF07F439DE7F0
S1134BA0FC0800203F00C0E0001F0021090900208C
S1134BB0151500200400000BB883E00FB083E00F4C
S1134BC02DE9F3410446C820FFF7F6FE2B4B2C4E8B
S1134BD018780E2801D0FF2C05D1FF24347020460C
S1134BE002B0BDE8F08102282DD1072C204628BF51
S1134BF0072001284FF0000301AA0DF1030138BF7B
S1134C000120FFF755FF05461E4B1F4FDDF80480BA
S1134C10C3F85881C7F8C8509DF803403470204643
S1134C20FFF7CAFE194A4FEA082303F4E063127837
S1134C3043EA1863A7F8D030002AD0D1C7F8CC5083
S1134C40A7F8D230CBE7A0B9052C32BF0027012743
S1134C500420201A3B4601AA0DF10301C0B2FFF75C
S1134C6027FF4FF48003054637B1094AC2F80831DB
S1134C70CAE700273846ECE7064AF7E7FC080020B5
S1134C800B09002000400840001F002114150020DB
S1134C90004008460040084408B500F0C9FE094B2E
S1134CA0094A002818BF1A46136823F47F115B08C9
S1134CB003F4FE130B431360044B4FF00072DA61EC
S1134CC008BD00BF004108401841084000400840AA
S1134CD008B500F0ADFE064B4FF4001228B1C3F83E
S1134CE000214FF000621A6208BDC3F81821F8E7EA
S1134CF000400844014B1868704700BF3813002077
S1134D00436C012B38BF01232DE9F0479A46464BEB
S1134D10464F9B69464E474D03F4E073A3F5C072BA
S1134D20804645485142514102685245434A0FD199
S1134D3014788C420CD198F8D0C03C78A44507D1A3
S1134D4098F815C03478A44502D1A888BDE8F08746
S1134D50B3F5C07FC0F800A011704AD1D8F89440D0
S1134D6024B12368082B58D994F838400F212046E1
S1134D7005F0D0F9BAFA8AF3002852D0B0FA80F2DA
S1134D809B1A002BC6BFD840C3F10F094FF00F097F
S1134D90504501D909F1FF39234B2004C3F8BC0065
S1134DA003F1806340F6FF72C3F8B82003F1007387
S1134DB04FEA0921C3F8B81005F0DDF9A88000F026
S1134DC0DBFB09F01F094FF4FA7304FA09F45C439E
S1134DD041F66A03B0FBF3F00A23B4FBF0F45C433E
S1134DE0174B1C6098F8D0303B7098F8153033702E
S1134DF0ABE798F8D030062B06D1124B1B78002B6A
S1134E000CBF9624C824B1E7022B08D00D4B1B78A5
S1134E10002B0CBFB424F024A8E70024A6E7322416
S1134E20A4E74FF00F09B7E7006008400809002025
S1134E3007090020FC08002058080020171500204E
S1134E403813002015150020FF290DD00F4B1048F2
S1134E50C3F850010B04090501F0F87103F4E023D1
S1134E600B430C49C1F85031FF2A0DD0074B40F2D7
S1134E70F711C3F85011130103F4F87302F0070299
S1134E801343044AC2F850310020704700400844DC
S1134E900000F70100400846F8B5134B134E1F6895
S1134EA0134D384600F0B0FD3378C4B2A34201D1AB
S1134EB02B78A3B1092C14D80E4B012C195D05D104
S1134EC00D4B1B78022B01D141F0400101F00F0280
S1134ED038460909FFF7B8FF002334702B7000200F
S1134EE0F8BD0024FA21F1E7241100201315002055
S1134EF0121500203CB40000FC08002038B504461C
S1134F0000F0E2FA142200212E4805F0E7FB2E4BB4
S1134F1025781A782D49521B18BF01220A7022687D
S1134F201A60C820A2889A80FFF746FD284BD3F860
S1134F30C820284BFF211970274B2849062D03EA66
S1134F400203274A1AD14FF4EE40C2F824014FF469
S1134F508A42C1F82421012243F08043C1F8202170
S1134F601B4AC2F8C8301E4B0322C3F85821FFF76E
S1134F7093FF1C4B01221A70002038BD022D4FF004
S1134F8007000ED1C2F80C010620C1F80C01164925
S1134F90C2F808114FF4404143F00303C2F804116E
S1134FA0DEE7C2F80C010520C1F80C01C020C2F8EC
S1134FB0080143F08043812243F00403C1F808212F
S1134FC0CEE700BFC81F0021FC08002012150020F6
S1134FD0001F00210B0900202800C0A00040084643
S1134FE00040084416150020C1004000014B187011
S1134FF0704700BF151500202DE9F0472D4C2E4BAE
S1135000236000F0B9FA4FF4FA7307464FF47A7646
S1135010B0FBF6F629482A4A7343190E1B021818E6
S113502041F10001002303F04BFAA0F5807305461B
S1135030A36220B966222B21FFF7A4F901254FF4BE
S11350407A726A434FF0000A53465008310203F063
S113505037FA1C4B19601C4BB7F57A7F4FEA056889
S11350608946044618604FEA152505D276222B217D
S11350705046FFF787F901264FF47A73A8FB030122
S113508003FB05117308C01841F1000100233246E7
S113509003F016FA0D4B023419600D4B49F1000967
S11350A0A408186044EA8974024B013C1C63BDE8FF
S11350B0F08700BF005008400211010020A1070042
S11350C040420F00481300204413002040130020E6
S11350D03C130020044B4FF00052C3F880211A60A7
S11350E0024B01225A60704700E100E00050084082
S11350F038B502010A4B01259D500A4A4FF48073CA
S113510083405366044604F01AFA074A1378A5400C
S113511023EA05031370BDE8384004F014BA00BF55
S11351200051084400500840181500201030034B6B
S11351300001185800F00100704700BF00500840FB
S11351401030044B01F46001000141F003011950D7
S1135150704700BF0050084038B504F0F7F9084B19
S1135160084A9D69547DDA6D520748BF9D69E4B2CF
S113517048BF013404F0F0F9284604F0030138BDB7
S1135180005008407C13002008B5222000F00EF9DE
S1135190024B4FF480225A6008BD00BF0050084003
S11351A0064B1B68434303EB8171054B1B68A3FB50
S11351B0003013F1004341EB00007047401300201E
S11351C03C1300200D4A10B5146820F040430146FA
S11351D04FF000420020E4FB0320094A126802FB5E
S11351E00300084B1B6B98424FEA917104D90133B9
S11351F00131C01A01F0030110BD00BF44130020A7
S113520048130020005008403B4B082270B5012190
S11352100546C3F8C8203948394CFCF79BFD394B87
S11352201D702378013B012B0CD8237CE07B0122E9
S11352309A400C21302313FB001303F1884303F538
S113524020431A60304B00225A677DB92F4A4FF62B
S1135250FF71D16702F10072F821D1675D672C4BB1
S11352604FF08042C3F89420002070BD636853B3AC
S113527000F082F9626800EB5203B3FBF2F3013BE6
S11352801B0243F0F80326782049224A022E1CD040
S1135290032E1D484FF6FF7521D0012E27D143F070
S11352A00203CD67D36707234367237CE07B012296
S11352B09A400C21302313FB001303F18C4303F5B4
S11352C020431A6011E0F823DDE743F001034FF6B1
S11352D0FF70C867D3670C4B05225A67E5E743F0B4
S11352E00503CD67D367012343670B4BB8E7CD674D
S11352F0D3670023F8E700BF00400E4600350A00DC
S11353004C1300201E150020000008400000084433
S1135310004008440000084600400846F8B5064628
S113532004460FCE1C4F3D460FC533682B601B4B04
S11353301B480822C3F8C8200121FCF70BFD194AB9
S113534000235367A37BE17A1B0443EA0123217AF8
S11353500B4393673B78032B1BD8DFE803F014025D
S1135360080E617B207B00230422FDF79FFD217C36
S1135370E07B00230422FDF799FDA17A607A0123E2
S11353800422FDF793FD084B1878BDE8F840FFF7B9
S11353903BBF0120F8BD00BF4C13002000400E4667
S11353A000350A00000008401E150020044BD3F805
S11353B09430002BBCBF034BC3F88000704700BF80
S11353C000400840000008404FF0006318B1034A51
S11353D0C2F894307047024AFAE700BF004008461A
S11353E00040084408B5064B06491A684FF00450BB
S11353F0920005F0F4F8BDE8084000F051BD00BF8C
S113540080B4000084B4000007B501A8FDF7CCFE09
S1135410134B144AC3F8442148F2E672C3F8382106
S11354204FF40862C3F834210F4AC3F8A0200F4A8E
S11354304AF63F41916002F580424FF0C07191629B
S11354400022C3F8FC200A4AC3F89C20094B7F229F
S11354505A6203F1007323225A6203B05DF804FB1D
S113546000400840C0E653517A27000F003008403E
S1135470806D6303003008440F4B002210B5C3F85D
S11354808820C3F88C20C3F890200C4A0121D160F5
S11354905A6812F0706FFBD14FF00452DA6701249E
S11354A002F5FD52C3F880401A66054B1B68984705
S11354B0044BDC6010BD00BF0040084000400846BB
S11354C05C08002000400844034BFD22C3F8C820B8
S11354D00122C3F8CC20704700400E4638B5FFF7D0
S11354E0F3FF1B4B1B481C4C1C490222C3F8C82069
S11354F01B4B1A6842B102EA0005A54204BF5D686D
S1135500156008338B42F4D1164B0222C3F8C8202D
S1135510154B164AD3F83C111160154AC3F8942070
S113552000F024FBFFF770FF124B0322C3F8D820CE
S1135530A3F500530122C3F894204FF46072DA609B
S11355404FF04072C3F8F820C3F8102138BD00BFF3
S113555000400E460000FFFF00000840B081E00F4D
S11355600080E00F00400E44004008406008002026
S11355700048F0000060084608B5FBF73BFD044B0B
S1135580D3F81031C3F308230133B0FBF3F008BDA3
S113559000400E4070B5044618B1284D2268531CD3
S11355A000D170BDC2F30063110C35F8130011F083
S11355B0FE0F93B243EA0043606818D00434CAB2C1
S11355C0022A216808D9D4E90160033AC3E9001624
S11355D098600C340C33F3E704D16268C3E9001219
S11355E00834DBE7012AD9D104341960D6E7120F55
S11355F0072AF5D8DFE802F00704090D1013181D77
S1135600C04303F180631860EAE71A6842401A60F5
S1135610E6E703F1C063F6E704F0CCFDE0E701221E
S1135620824003F1C063F2E70122824003F1806308
S1135630EDE71A6830EA0202FBD1D1E746B4000074
S1135640024B0122C3F89420704700BF0040084673
S1135650024B0122C3F89420704700BF0040084465
S1135660024B4022C3F89420704700BF0040084416
S1135670024B4022C3F89420704700BF0040084604
S1135680064B5B68C3F30363984206D1044A936BE9
S113569023F0F00343EA011191637047004008408E
S11356A0001F00212DE9F0470E4604F07CFDDFF8D1
S11356B0B090DFF8B0A08046002503F040FFD9F891
S11356C00430C3F30363012B07460BD1711C1AD0BA
S11356D004F069FDA0EB0805384603F034FFAE4240
S11356E0EBD80DE0052BF1D00B2BEFD0023B012BB7
S11356F00CD9013602D004F056FD384603F023FFDE
S11357001648BDE8F08703F01EFFD6E7DAF8083044
S11357101A04C3F389140FD4013602D004F043FDF4
S1135720384603F010FF24B2A4F1C8006FF4FF73ED
S11357309842B8BF1846E4E7731C03D004F033FD65
S1135740A0EB08056FEA84546FEA9454384603F0DA
S1135750FAFE14F5007FC2D0E6E700BF00FEFFFFAB
S11357600040084000700840084910B5D1F8703175
S113577040B11C464A68D1F870319C42F9D1C2F359
S11357800362027003F00F0010BD00BF0040084028
S1135790094BD3F8883001F0800103F480030B43F4
S11357A009D1064B4FF400129A61837F1BB1044B5D
S11357B00122C3F8F8207047004008400060084404
S11357C00060084610B503F0BAFE084B1B68044697
S11357D03BB1984728B1002200204FF4806100F0CB
S11357E091FC2046BDE8104003F0ADBE60130020DC
S11357F02DE9F0411F4CDFF89080069F0646A2FB7E
S113580003502C1960F1000E9C46A0454FF0000394
S113581073EB0E0E07D24FF4B4720E211846FEF746
S1135820B1FD02201BE00029FBD0C6F3130601EBF7
S11358305C04B4FBFCF4A4FB0646E40C44EA4634E2
S11358400D4E34600D4C22600D4A914209D10D4A2F
S1135850A5FB025302FB00339B093B600020BDE81B
S1135860F081C4040A46E80444EA553102F028FEF3
S11358703860F3E700C9E876641300206813002059
S113588000F049020A3BB2DF0046C32338B5164D87
S11358902B780C4623B9154B1B6D03F03F032B707B
S11358A0134BD3F894305B051CD5124BB0FBF3F0CB
S11358B040F24D534343A3F546430C3B584300F594
S11358C0C91000F5556028B940F21B322B21FEF7B0
S11358D059FD01202B78084A5343B3FBF0F3002011
S11358E0236038BD0220FCE7221500200030084068
S11358F00040084000366E018096980070B5374C21
S1135900374B256B374C1B682468ED024CBF1B19C1
S11359101B1BB3F1804F04D8002B3AD1324E1C46E6
S11359200AE0B3FA83F4314EC4F10204E340304D8B
S1135930AB4201D901345B0803EB5605B5FBF6F520
S11359402C4EB34234BF002601262403013D44EA11
S113595086242C430C60D8B1B3FBF0F1642400FB23
S113596011336343984288BF01F1FF31480801387D
S113597001390728204D214C4FEA510311D9002148
S113598029700621C4F894101B0243EA0013136023
S113599070BDB3FA83F4D4F10204134EC6D50024C7
S11359A0C5E71029EBD068B1012129700621C4F89C
S11359B09410134909780029E6D012490224C1F849
S11359C09440E1E7012914BF0121002129704FF01F
S11359D00601C4F89410ECD1D6E700BF00300840AB
S11359E06813002064130020E0673500C0CF6A000C
S11359F03FBE4025401B5F131F1500200040084494
S1135A002015002000400846084B5B6B03F007009C
S1135A10C3F3C20213F0380F18BF5043C3F382120A
S1135A2013F4E07F18BF5043704700BF00300840B4
S1135A30034BD3F8380180F01000C0F30010704716
S1135A4000400840174B4FF4002210B5C3F89420CF
S1135A50154C164BB0F1804F88BF1C46144BDA6CC2
S1135A60D2071DD51B6F134A04F5F42404F5907472
S1135A70B4FBF2F4033CE4B203F00703A34202D004
S1135A802046FDF71DF90C4B1B784BB10B4B4FF423
S1135A907022C3F8942003F100732404C3F89440E3
S1135AA010BD00BF00400846E0673500C0CF6A0063
S1135AB000300E4040420F002115002000400844F1
S1135AC07FB50446FBF7D4FA1C4B06462C335868C2
S1135AD00093A37922683146FFF78AFE054648BB46
S1135AE0A379012B14BF164916491022C1F8382195
S1135AF0206815495843FFF7C9FE03AA02A9304696
S1135B00FFF7FCFE0F4A43F6FF53C2F8A4300C4BD8
S1135B100299C3F8A4104FF4EE611163039A1A6357
S1135B202068FFF78FFF094BA2881A6203F54053E0
S1135B3000229A63284604B070BD00BF00300840BC
S1135B400040084600400844503008400000084027
S1135B5008B5044B01221A70034B1868FFF772FF53
S1135B60002008BD2115002068130020024B4FF4CB
S1135B708062C3F894207047004008460D4BD3F868
S1135B800421D3F8B030D2B2FF2A03D043F3074341
S1135B90591C01D190221923074903EBD37302EB5B
S1135BA06302022381F84630232381F8472081F8D9
S1135BB0453070470081E00F001F002140B10368A9
S1135BC0012B05D90069034B002808BF184670470C
S1135BD0004870474CB4000038B5054614480C46DC
S1135BE0FFF7F0FA2DB1C30103EB5503B3FBF5F353
S1135BF02360104A5368D80217D40F4B1B68D2F89D
S1135C00A810C3F3810311F4806203F10103C9B244
S1135C1018BFDA00FF2906D00649D1F8AC104905AF
S1135C2001D502EBC302626038BD0022FBE700BF6E
S1135C3040420F000000084000200840084B1A684A
S1135C40C117A2FB000310F1807002FB013343F182
S1135C500003400E40EAC310803820EAE070704729
S1135C6070130020174B072270B5C3F88420FFF788
S1135C7083FC154B154A164EC408010B0546E00576
S1135C80C01841F10001002302F01AFC114B186006
S1135C904EF66020FFF7D2FF4042C6F89C000E4843
S1135CA0FFF790FA024658B1E301500818184FEA7A
S1135CB015714FF0000341F1000102F001FC70671F
S1135CC070BD00BF00400840B2E60E0065CD1D0067
S1135CD0001F00217013002040420F002DE9F843FB
S1135CE0054608469846FFF769FF16460746002D05
