:1000000000200020695900005FE701005FE7010060
:1000100091FE01005FE701005FE701005FE701007B
:100020005FE701005FE701005FE701005FE70100B4
:100030005FE70100A06202005FE701005FE70100E7
:100040005FE70100CDA0010085C900005FE7010066
:10005000FD980100A12C02009D2C0200EDA00100E2
:10006000952C02002D660000956700005FE70100F7
:10007000B5560000A55600005FE701005FE70100EC
:100080005FE70100B52C0000B56700005FE70100E5
:100090005FE701005FE701005FE701005FE7010044
:1000A0005FE701005FE701005FE701005FE7010034
:1000B00021A10100992C0200ADB900005DA1010051
:1000C0005FE70100858401005FE701005FE7010051
:1000D0005FE701005FE701005FE701005FE7010004
:1000E0005FE701005FE701005FE701005FE70100F4
:1000F0005FE701005FE701005FE701005FE70100E4
:100100005FE701005FE701005FE70100000000001A
:10011000013800D0FCE7704700000000000000003C
:1001200001F0FF01102A2BDB10F0070F08D010F8A8
:10013000013B013A8B422DD010F0070F42B3F6D1AC
:10014000F0B441EA012141EA014122F007047FF0C5
:1001500000070023F0E80256083C85EA010586EA1C
:10016000010685FA47F5A3FA87F586FA47F6A5FA58
:1001700087F68EB9EED1F0BC01F0FF0102F0070264
:1001800032B110F8013B013A83EA010313B1F8D10F
:100190000020704701387047002D06BF35460338F0
:1001A000073815F0010F07D1013015F4807F02BF29
:1001B000013015F4C03F0130F0BC0138704700BF7A
:1001C0002DE9F04F2DED028B91B082460C469346FF
:1001D0001D46DDE91C23104619461CF0F3FA0028E1
:1001E00000F007814FF0FF32B14BDDE91C011CF03C
:1001F00011FB002840F0FD804FF0FF326FF48013B8
:10020000DDE91C011CF0E8FA002840F0F280002231
:100210000023DDE91C011CF0DFFA002840F0FE801D
:100220009DED1C7B8DED067B209B13F480630F936B
:1002300001D106231E93DDE906010246C1F30A50EF
:10024000C1F31303904643F07F5949F44019A0F2DB
:10025000FF301BF0E5FF84A3D3E900231CF04AF82C
:1002600083A3D3E900231BF08FFE06460F4600222E
:10027000904B404649461BF085FE7FA3D3E90023FF
:100280001CF038F802460B46304639461BF07CFE1F
:100290001CF0CAFA06461BF0C3FF8046894678A3C5
:1002A000D3E900231CF026F80022834B1BF06CFEE0
:1002B0001CF0BAFA074674A3D3E900234046494626
:1002C0001CF018F88046894638461BF0A9FF70A339
:1002D000D3E900231CF00EF802460B46404649467F
:1002E0001BF050FE8046894602460B461CF002F881
:1002F000CDE90A0107F2FF3700210022CDE90812FB
:100300003B0509930023089342464B464046494625
:100310001BF03AFECDE90C0142464B4600204FF05F
:1003200080411BF02FFE804689460022634BDDE9A9
:100330000A011CF009F90022614B1BF025FE024660
:100340000B46DDE90A011CF0FFF800225D4B1BF0B3
:100350001BFE02460B46DDE90A011CF0F5F80246D9
:100360000B46404649461BF00FFE02460B46DDE9B0
:100370000C011CF0E9F80022534B1BF005FEDDE9EF
:1003800008231BF0B7FF8046894649EC188BDDE94E
:1003900006231CF03FFA40B1013E0022484B404684
:1003A00049461CF0D1F841EC180B06F16303C62B4B
:1003B0003FD80427209B13F4006F44D036A3D3E921
:1003C0000023DDE90689404649461CF019FA002859
:1003D0003FD033A3D3E90023404649461CF0FCF943
:1003E000002836D01E9BB34225DD9E1B731E1E9334
:1003F00023E0209B04931F9B03931E9B02939DED80
:100400001C7B8DED007B2B465A462146504600F062
:10041000CFF811B0BDEC028BBDE8F08F9FED227BD1
:100420008DED067B1C9B06931D9B03F100430793F8
:10043000FAE60527BEE700231E93209B43F4806362
:10044000209300273E461F9B9F423FD2A3EB070805
:100450003EE01E9B002BF6D00F9B002BF3D01E9B83
:10046000013B1E93EFE700BFFB799F501344D33F3E
:10047000B3C8608B288AC63F61436F63A787D23FAA
:1004800071A379094F930A401655B5BBB16B024071
:10049000EF39FAFE422EE63F2D431CEBE2361A3FBF
:1004A0000000000080842E410000000000000000D9
:1004B000FFFFEF7F0000F83F0000E03F00002C400E
:1004C00000002440000018400000F03F4FF00008FA
:1004D000209B13F0020902D00FB14FF000083EB18B
:1004E00053EC182BDDE906011CF02EF8CDE90601CE
:1004F00000220023DDE91C011CF06EF900283DD12B
:10050000209B23F400630493CDF80C801E9B029380
:100510009DED067B8DED007B2B465A4621465046CD
:1005200000F046F8002F3FF474AF209B13F0200F2B
:100530002CD04FF0450C00F101082B460246214615
:100540006046D04786EAE672A2EBE6720523059381
:10055000013F0497002303930A230293F30F0193AF
:1005600000922B4642462146504620F073FDB9F1D9
:10057000000F3FF44EAF02461F9F10E0DDE9060179
:10058000024601F10043CDE90623B9E74FF0650CBF
:10059000D1E7561C2B4621462020D0473246A2EBFD
:1005A0000B03BB42F5D3104633E700BF0000000049
:1005B0002DE9F04F2DED028B95B007900A919246F0
:1005C0009B46DDE92089229D42464B4640464946EE
:1005D0001CF0F8F8002840D04FF0FF326FF4801381
:1005E000404649461CF0F8F8002845D14FF0FF324C
:1005F0009F4B404649461CF00DF900284BD198A36B
:10060000D3E90023404649461CF004F900285AD19A
:1006100095A3D3E90023404649461CF0DDF80028A5
:1006200051D100220023404649461CF0D5F800284D
:1006300057D100230B93249B13F4806F5CD00024CC
:100640001F2C5BD8092D59D904F150036B4430227B
:1006500003F8202C013D0134F2E7249B0393239BF4
:10066000029303230193834B00935B4652460A99FE
:10067000079820F015FC2CE1249B0393239B029305
:10068000042301937C4B00935B4652460A990798DA
:1006900020F006FC1DE1249B13F004030FD0774AE1
:1006A0007BB1042324990391239902910193009231
:1006B0005B4652460A99079820F0F2FB09E1704A1E
:1006C000EEE70323EEE7249B0493239B0393029519
:1006D000CDE900895B4652460A990798FFF770FDFD
:1006E000F7E042464B46002000211BF04BFC8046C1
:1006F000894601230B939EE70625A0E7404649461D
:100700001CF092F806461BF08BFD02460B46404655
:1007100049461BF037FC5B4B03EBC50393ED008BA5
:1007200053EC182B1BF0E6FD02460B46CDE90823DF
:100730001CF0A2F807461BF063FD02460B46DDE9FC
:1007400008011BF01FFC02460B46CDE908230022DE
:100750004D4B1CF05FF850B3013738461BF050FD8D
:1007600002460B4651EC180B1CF040F808B101365C
:10077000002755BB30461BF053FD02460B46404652
:1007800049461BF0FFFB0746884600223E4B1CF003
:1007900023F838B100223C4B384641461CF03AF869
:1007A000002842D016F0010F3FD001363DE0002274
:1007B000354BDDE908011CF00FF80028D9D117B13D
:1007C00017F0010FD5D00137D3E71F2C17D8013D03
:1007D0002E4BA3FB0723DB08194603EB8303A7EB90
:1007E0004303621C303304F150000DEB000404F8A5
:1007F000203C092F02D90F461446E6E714461F2C69
:100800000AD86B1E45B104F150026A44302102F847
:10081000201C1D460134F2E71F2C06D804F15003BA
:100820006B442E2203F8202C01341F2C33D8184A95
:1008300082FB0632F317C3EBA2031A4603EB8303D2
:10084000A6EB4303611C303304F150000DEB0004B0
:1008500004F8203C1646EAB10C46E6E7AFF3008008
:100860000000000065CDCD410000000065CDCDC188
:10087000FFFFEF7FD8690200DC690200CC6902004B
:10088000D4690200E86902000000E03FCDCCCCCC86
:10089000676666660C46249B03F00303012B1DD09C
:1008A0001F2C09D80B9B002B35D004F150036B444F
:1008B0002D2203F8202C0134249B0393239B0293C5
:1008C00001940CAB00935B4652460A99079820F0BE
:1008D000E7FA15B0BDEC028BBDE8F08F239BB3B1F6
:1008E0000B9B1BB9249B13F00C0F12D0239B013BD5
:1008F0002393194606E004F150036B44302203F8B9
:10090000202C01348C42CBD21F2CF4D9C8E7239978
:10091000F8E72399F6E7249B13F0040F07D004F1BE
:1009200050036B442B2203F8202C0134C4E7249B92
:1009300013F0080FC0D004F150036B44202203F8D9
:10094000202C0134B8E700BF7FB54E6802A90446E9
:1009500021F08BFE9DF808300E2B19D1134BB3F903
:100960000050134B9E4218D807F0E0FF0346006882
:1009700000909B88ADF804306946204621F062FE65
:1009800070B10C490C4840F21C620DF025F8FEE7EE
:10099000204615F06FF80546E3E707F0C3FFE5E7EB
:1009A0002946204621F063FE04B070BD4C4F002064
:1009B000FFC99A3B356D02005C6A020038B50446F7
:1009C0000D461DF0FFFF064A13889BB22DB123434D
:1009D0001380BDE838401DF0FBBF23EA0403F7E7AE
:1009E000BC490020034B002201214FF480709A7013
:1009F000E4E700BFBC4900207FB50023134C0393FC
:100A0000CDE90133FF238DF804301DF0DBFF228890
:100A100063880F4E9A4205460DD061887068218028
:100A200001AA14F015FE58B10A490B4840F297622A
:100A30000CF0D2FFFEE7706821F0C6FC0128ECD074
:100A400028461DF0C5FF04B070BD00BFC8200020BF
:100A5000BC490020356D02005C6A020038B50F4CBD
:100A6000A56835B90E490F4840F27C720CF0B4FF0E
:100A7000FEE720F0C4FB284410F020FC00F0070043
:100A8000032809D1A4680921204620F0D4FC205C69
:100A9000031F5842584138BD0020FCE7BC490020E4
:100AA000356D02005C6A020010B5114CA378042B6E
:100AB00006D01049104840F244520CF08DFFFEE77A
:100AC00023881B0706D40B490B4840F245520CF013
:100AD00083FFFEE700210820FFF770FF074B6068E7
:100AE00002221A7114F082FDBDE810401FF0EDBB28
:100AF000BC490020356D02005C6A0200C82000205D
:100B000010B5084C606814F071FD606821F05CFC61
:100B1000012806D0012260681146BDE8104021F08E
:100B200055BC10BDBC49002038B5194DAB7833B168
:100B3000184919484FF4DC620CF04EFFFEE71DF037
:100B400041FF298811F00601044609D001214FF424
:100B50008070FFF733FF2046BDE838401DF038BFF6
:100B60004FF48070FFF72AFF12F016F9012805D024
:100B700010F0FD0F05D1FFF73FFFECE7FFF7C0FFD7
:100B8000E9E70449044840F2F6620CF025FFFEE76D
:100B9000BC490020356D02005C6A020070B5074D4B
:100BA00095F90C600446FFF7BFFF11F0F5FFAA6846
:100BB00031462046BDE8704011F02CBEBC490020F3
:100BC00008B50A4B1B88DB0606D40949094840F2E0
:100BD00069520CF001FFFEE700211020FFF7EEFE46
:100BE00012F056F9BDE808401FF06FBBBC49002069
:100BF000356D02005C6A02000D4B1B889B0710B527
:100C0000044613D500210220FFF7D8FE094B5A797C
:100C1000FF2A06D00849094840F29A420CF0DCFE4F
:100C2000FEE75C71BDE810401FF04FBB10BD00BF78
:100C3000BC490020C8200020356D02005C6A02001B
:100C40007047704710B50E4CA37833B10D490E486C
:100C500040F2C5120CF0C0FEFEE7A06019B1A17C05
:100C6000003918BF01212020FFF7A8FE074B0848D4
:100C70009B7923770223A370BDE810400FF088B959
:100C8000BC490020356D02005C6A0200C8200020CB
:100C9000DC49002008B50FF07DFF80F00100C0B2F4
:100CA00008BD0A4B9A780AB1062A0CD11B8803F4B6
:100CB0008B7343B9064B5A79FF2A04D11879FF3850
:100CC00018BF012070470120704700BFBC490020B9
:100CD000C820002008B50FF04DFF0028FBD108BD4B
:100CE0000C4B42881A8242789A740278DA748288AD
:100CF0009A82C288DA82C2689A61074A017A91713F
:100D0000028A198D914204D001214FF400701A8596
:100D100054E67047BC490020C8200020094B1A8ABD
:100D200042809A7C4270DA7C02709A8A8280DA8AE7
:100D3000C2809A69C260044A1B8D92790272038252
:100D4000704700BFBC490020C82000204B1E012B6B
:100D500070B50C4606D91B491B484FF42A720CF09B
:100D60003BFEFEE7194D0A460146686821F093FDF7
:100D700030B11449144840F2AA220CF02DFEFEE7CF
:100D80006E680FF079F822460146304621F07DFD6D
:100D900030B10C490C4840F2AE220CF01DFEFEE7CB
:100DA0006D680FF075F822460146284621F079FD5E
:100DB00030B10449044840F2B2220CF00DFEFEE7C7
:100DC00070BD00BF356D02005C6A0200BC490020A6
:100DD000054BDB791B0913F00E0003D0052B8CBFEC
:100DE00000200120704700BFC8200020044BDB79A1
:100DF0001B0913F00E0F0CBF01200020704700BF2D
:100E0000C82000202DE9F04F16469A0591B0814682
:100E10001F4603D501218020FFF7D0FDF3014FF0DD
:100E2000000852D59A4C23889D074ED5994D6B7971
:100E3000FF2B06D09849994840F266420CF0CCFD51
:100E4000FEE7A36833B99449944840F267420CF036
:100E5000C3FDFEE741460220FFF7B0FDA37885F809
:100E60000580042B03D101210820FFF7A7FD8C4A40
:100E70006068002121F01AFC30B18749874840F2B0
:100E800071420CF0A9FDFEE7FFF7A2FFA8B9D4F864
:100E9000048020F0B4F90546A06820F0BBF92918B9
:100EA0007F4A89B2404621F012FC30B17A497B4832
:100EB00040F277420CF090FDFEE7A378032B02D1BD
:100EC000606814F093FB1FF000FAB80702D5012008
:100ED000FFF792FE16F0A84F02D00220FFF78CFE1B
:100EE000B10220D50021402005ACFFF767FD214667
:100EF000484621F0FCFCB0B99DF81C30022B0AAA30
:100F000022D18DF83030BDF81430ADF828301046BD
:100F100011F04AFE38B1484621F0E7FC18B901212A
:100F20004020FFF74BFD320752D5594D05AA68689E
:100F3000032121F07BFC804688B95749574840F28D
:100F4000B3420CF049FDFEE7032B05BFD4E90001D5
:100F50008DF830308DF83000C2E90001D7E79DF8F8
:100F600014306868072B40F022810AAA414621F01C
:100F700061FC824630B14849484840F2B6420CF024
:100F80002BFDFEE7FFF724FFBDF8161090B9FFF721
:100F90002DFF68B10431686889B20AAA21F04CFCBF
:100FA00040B13D493D4840F2C7420CF015FDFEE717
:100FB0000231F0E7BDF816000730012180B20FF0D2
:100FC00033FD039000284AD101210C2012F02AFDA4
:100FD000B10705D52E4B1B881A0701D5FFF764FD15
:100FE000B3010AD500210420FFF7E8FC284B9A78CA
:100FF000012A02D1586814F0F9FA16F0284F03D0EC
:1010000000210420FFF7DAFC7E060CD5204C238853
:101010001D0701D5FFF748FD2388580703D5002198
:101020000420FFF7CBFCF90540F1CF80484621F0C2
:10103000C9F9022802D0032840F0C080144C23884C
:101040005A0703D500210420FFF7B8FC23889B072B
:1010500040F1BB80012011B0BDE8F04FCCE50FF0AE
:10106000B9FB4FF0000BCDF800B0BDF816300246CA
:1010700004464146686821F0F9FBBDF8163083420A
:1010800010D0054905484FF49B620CF0A5FCFEE723
:10109000BC490020C8200020356D02005C6A0200B7
:1010A000E849002020F0ABF8204410F007F900F0E8
:1010B0000700022823D1AB78042B89D120F09FF8B8
:1010C000434B20441B7882789A4281D159460820AC
:1010D000FFF774FC20F093F8204410F0EFF83D4B3C
:1010E000C0F3001018719DF836302B73FFF7B6FC73
:1010F00000287FF46DAF686814F078FA68E720F094
:101100007EF8204410F0DAF8830649D520F077F80D
:10111000204410F0D3F800F00700032828D0012164
:101120000420FFF74BFC21F0ABFB2863BDF8163021
:101130009DF83620E254BDF816309DF83720234440
:1011400001209A71BDF816100A9A0131214410F05D
:10115000C3F8BDF8163003981C4484F805A00FF0BE
:10116000F7FC1D4B18780FF019F81FF0AEF82FE7B9
:101170000921204620F05FF9205C04284FF001018E
:10118000CED1FFF71BFC21F07BFB28632B88580690
:10119000CCD559464020FFF711FC4FF0010AC5E7B6
:1011A000AB78012BC2D1686814F020FABEE721F0B9
:1011B00037FB6868414621F056FB09E707490848B4
:1011C00040F2B5520CF008FCFEE711B0BDE8F08F1C
:1011D000294A0020C82000202C490020356D02003B
:1011E0005C6A020008B50246FFF7F2FD30B1072A3B
:1011F00006D8044B002083F8342008BD7020FCE79B
:101200000220FAE7BC49002008B50246FFF7E0FDDE
:1012100028B1044B93F834301370002008BD7020BF
:10122000FCE700BFBC49002008B5074B014600227F
:10123000586821F030FB30B1044905484FF437724B
:101240000CF0CAFBFEE708BDBC490020356D02006A
:101250005C6A020008B5074B01460022586821F07D
:1012600014FB30B10449054840F2E2220CF0B4FB13
:10127000FEE708BDBC490020356D02005C6A020033
:1012800008B5074B0146586821F011FB30B10549FC
:1012900005484FF43A720CF09FFBFEE708BD00BF13
:1012A000BC490020356D02005C6A020008B5064B9F
:1012B0009B7833B10549064840F2F2220CF08CFBD2
:1012C000FEE7BDE808402FE4BC490020356D020070
:1012D0005C6A020008B5044B0146586821F0C7F962
:1012E000002818BF8B2008BDBC490020014B58685E
:1012F00014F0C0BBBC490020014B5888704700BFA8
:10130000C82000207FB50123ADF80E3009484FF604
:10131000FE7300930DF10E02002304A9406821F032
:1013200025F9012894BFBDF810004FF6FF7007B0F3
:101330005DF804FBBC49002008B5044B0146586821
:1013400021F09AF8B0FA80F0400908BDBC490020AD
:1013500038B50B4DAB78012B04460DD8FFF7ECFFE9
:1013600060B1084B5C80AB781BB9FFF7DDFB002058
:1013700038BDFFF741FBFAE73E20F9E78A20F7E79F
:10138000BC490020C8200020024B9B780BB9FFF716
:10139000CBBB7047BC490020014BD874704700BFDD
:1013A000BC49002008B5054B0121586821F031F8EF
:1013B0000028B8BF033040F3870008BDBC490020B7
:1013C00008B5044B586821F053F8034BB3FBF0F019
:1013D00080B208BDBC49002040420F0030B58DB03E
:1013E0002C220446002101A821F0C9FF0123264D2B
:1013F0008DF808304FF002326423CDE903230693C1
:101400000B238DF82C302B8DADF80A30FFF7E0FC64
:10141000A0B140F2F23307934FF47A7305930CB9FD
:10142000FFF76EFB686801A914F0F8FBB8B1174923
:10143000174840F269620CF0CFFAFEE7FFF7C0FFF1
:101440000C234343902BA3F10A0207930592DCBFC0
:1014500091230793059B8B2BE1D88C23DEE7FFF7C5
:10146000C5FC60B101226868114621F02EFA30B146
:101470000649074840F26C620CF0AEFAFEE70CB980
:10148000FFF752FB0DB030BDBC490020356D0200A6
:101490005C6A0200F8B5574C1DF094FA2388D90510
:1014A000064603D5A37843BBFFF73EFB524D6B794D
:1014B000FF2B13D06B7903F0FF0723BBFF236B7166
:1014C000A378032B0AD100233046A3701DF080FAC5
:1014D0003846FFF763FB1DF075FA0646A378042B28
:1014E00008D12B79FF2B05D02B79022B14D143483F
:1014F0000EF04EFDFF232B7128E000214FF4807089
:10150000FFF75CFAD2E76B79012B4FF0FF036B71A9
:1015100014BF89278D27D6E72B7913B12B79012B9F
:101520001FD1FFF79BFA2B790022FF212971DBB233
:1015300084F820200546002848D0012B0AD12F48E6
:10154000A37064210EF02FFDFFF756FA30461DF010
:101550003FFA06E03046A2701DF03AFA3120FFF75C
:101560001DFB23881A0608D500218020FFF726FAE4
:10157000606821F0EFF811F06CFC23889B0507D51B
:101580004FF400700021FFF719FA0020FFF726FF43
:101590000FF0F0FAE08628B30FF01CF901210546A0
:1015A000002012F03FFAA678012E15D1002684F80B
:1015B0002060A670FFF7B8FA284611F065F8A37806
:1015C000E6867BB9BDE8F84011F0E6BAA070304677
:1015D0001DF0FEF92846C2E72EB1284611F054F856
:1015E0000023E386F8BDFFF79FFA284611F04CF878
:1015F000E686F7E7BC490020C8200020DC4900202F
:101600007FB5794C2388DB0700F1E7800121774D16
:101610000846FFF7D3F905237549A37005F10800C3
:1016200013F0B6FF606028B972497348F3220CF0DA
:10163000D3F9FEE7714820F008FF69A3D3E900233E
:10164000CDE900234FF0FF324FF0FF33606820F008
:101650008BFF4FF48811606814F06AFA014630B1CC
:101660006449654840F20B120CF0B6F9FEE7644B92
:101670001B78012B0ED1634A606814F0E5F96068AD
:1016800014F0FAFAE0B15B495B4840F217120CF033
:10169000A3F9FEE75C4E316831B9564956484FF41C
:1016A0008D720CF099F9FEE7564A606814F0CCF997
:1016B00033689B6823B1DB6913B15B7803B1EB71CD
:1016C000FFF720FE514B68801B78C3EB431203EBFE
:1016D0008203DB0001202385FFF780FE65680EF0A2
:1016E000D7FB00220146284621F0DBF8054630B141
:1016F0004049414840F22D120CF06EF9FEE740F2ED
:1017000003532382424B04261B78E374A674FFF72D
:1017100057FE00EB80039B00A382FFF751FEC00041
:10172000E08231466068A56120F0A0FE30B1314909
:1017300031484FF49E720CF04FF9FEE76068324674
:1017400003A920F039FF042806D02A492A484FF47B
:10175000A0720CF041F9FEE703A901200FF0CAFDC9
:101760000BF034F9606808224FF0FF3120F006FFDB
:1017700030B12049204840F249120CF02DF9FEE723
:1017800014F0E8FB30B11B491B4840F24F120CF03B
:1017900023F9FEE7FFF71CFB68B11DF029FB0146AA
:1017A000606820F04FFF30B11249134840F25312E5
:1017B0000CF012F9FEE76468FFF7A4FD154B014633
:1017C00003F10C02204613F051FF30B109490A48D9
:1017D0004FF4AD720CF000F9FEE704B070BD00BF2D
:1017E0000A0020FF42030000BC490020C82000205E
:1017F000E5090000356D02005C6A0200690345ECF2
:101800000E4A00204909000014200020CE210020AB
:10181000CD210020606D020008B5044B586820F00F
:1018200029FE034BB3FBF0F080B208BDBC49002099
:1018300040420F002DE9F043864D2B889B0787B06F
:1018400006D48549854840F201720CF0C5F8FEE7E0
:10185000AB78033B012B06D97F49804840F20372E5
:101860000CF0BAF8FEE7AA6832B97B497B4840F22F
:1018700006720CF0B1F8FEE7794E2C88F77914F077
:10188000200418BF4FF47A744FEA1718FFF7A0FA34
:10189000002872D0B8F1020F0AD0A8F10303022B7E
:1018A00069D96D496D4840F21A720CF095F8FEE75F
:1018B000032795F8343008EBC8089844694B03EBCC
:1018C00048031046B3F81C801FF0A4FC4FF4FA53F1
:1018D00043437822B3FBF8F37733B3FBF2F31F44AF
:1018E000C7EB0717AB78FF00BFB204F5347417FAE3
:1018F00084F4042BA4B203D107F6E8072744BCB252
:10190000D5F808801FF07BFC0746A8681FF082FC12
:1019100007441FF09AFCBFB23F1A1FF070FC40440E
:101920000FF0CCFC64238DF80C304F4BD5F80490AD
:10193000CDE90434C0F340141FF093FCBFB203465A
:1019400041463A46484620F06DFF2B887188318029
:1019500013F0200F03AB75D000936868434B224609
:1019600013F05AFE002872D03B493C4840F2D9623D
:101970000CF032F8FEE706279BE7FFF737FA00285E
:1019800044D0384B07F00F0708EBC801394403EB8C
:1019900041031046B3F81C901FF03CFCB8F1000F57
:1019A0002AD0B8F1010F2AD1400080B24FF00408CC
:1019B000F3191B7E4BB10233034443449BB24FF4F3
:1019C000FA525343B3FBF9F39CB2AB78042B97D193
:1019D0003744FFF7F5FC3B7E053398448146FFF71B
:1019E0001BFF0C2308FB00F003FB09F909EBC009FE
:1019F000A1441FFA89F483E74FF00208D8E716499B
:101A0000164840F23B720BF0E7FFFEE7FFF704FFDA
:101A10000746A8681FF0FEFBAB780930784304EB5B
:101A2000C000042B84B27FF46BAFFFF7C9FC0746FC
:101A3000FFF7F2FE602358430C2303FB070020440A
:101A400084B25DE76868224613F0D8FD8AE707B0E4
:101A5000BDE8F083BC490020356D02005C6A0200DD
:101A6000C8200020606D020020A10700CC490020A2
:101A7000F8B5484C258815F0020506D04649474878
:101A80004FF4B3720BF0A8FFFEE784F820501CF06F
:101A900099FF23885A0706460AD520F0F1FE236BEA
:101AA000C01A238D984203D929460420FEF786FFE9
:101AB00030461CF08DFFA778022F37D11CF082FF33
:101AC000238813F00405064607D035480EF060FA67
:101AD0003046BDE8F8401CF07BBF1CF079FFA068E1
:101AE00011F092F820B1A570BDE8F840FFF756B8A4
:101AF0001CF068FFA66805461FF081FB30440FF01C
:101B0000DDFB10F0200F0CBF032304230121384616
:101B1000A370FEF753FFFFF78DFE28461CF058FF19
:101B200001210846BDE8F84011F07CBF042F27D101
:101B30001C4B1B79FF2B2CD1237FF3B11CF042FFF0
:101B400023885B07054604D515480EF021FA284680
:101B5000BFE71CF03DFF237F013B23771CF032FFE2
:101B6000012104460220FEF729FFFFF763FE20460D
:101B70001CF02EFF01210820D4E7A3704020B3E71A
:101B8000012F06D160680023A37013F02FFD3120D0
:101B9000AAE7F8BDBC490020356D02005C6A02006E
:101BA000DC490020C820002038B50121044610205F
:101BB000FEF704FF064B5D68FFF702FC054B00FBD8
:101BC00004F10122284620F005FC002038BD00BFAA
:101BD000BC490020C10B000010B50A4C2388DB066D
:101BE00006D40949094840F275320BF0F5FEFEE7CC
:101BF00010200021FEF7E2FE6068BDE8104020F0F2
:101C0000F7BB00BFBC490020356D02005C6A0200D2
:101C100038B50D4DE88E30B90C490D4840F282328E
:101C20000BF0DAFEFEE70EF0D5FD0446E88E0EF06E
:101C3000EDFD811F214401200FF05CFB044620F0E4
:101C40001FFE001B38BD00BFBC490020356D0200DF
:101C50005C6A020010B5074CA36833B9064907480F
:101C600040F291320BF0B8FEFEE720F009FEE36A85
:101C7000C01A10BDBC490020356D02005C6A02002C
:101C800038B50A4DE88E30B909490A4840F29B320E
:101C90000BF0A2FEFEE70EF09DFD0446E88E0EF06E
:101CA000B5FD044414F8020C38BD00BFBC49002047
:101CB000356D02005C6A020038B50A4DE88E30B915
:101CC00009490A4840F2AA320BF086FEFEE70EF000
:101CD00081FD0446E88E0EF099FD044414F9070CCA
:101CE00038BD00BFBC490020356D02005C6A0200AF
:101CF00038B50A4DE88E30B909490A4840F2B93280
:101D00000BF06AFEFEE70EF065FD0446E88E0EF06D
:101D10007DFD044414F9010C38BD00BFBC4900200E
:101D2000356D02005C6A0200024B1888C0F3C010D7
:101D3000704700BFBC49002030B50F4B05460FCBA4
:101D400085B06C4684E80F000DB12B6800930B4BF7
:101D500021465868002213F0A3FE044630B108491A
:101D6000084840F2D7320BF037FEFEE7FEF744FE9C
:101D7000204605B030BD00BFE86D0200BC49002020
:101D8000356D02005C6A020008B5074B01465868D1
:101D900020F0E2FC30B10549054840F2E5320BF095
:101DA0001BFEFEE708BD00BFBC490020356D0200E8
:101DB0005C6A020008B5064B586820F0E4FC30B1BC
:101DC000044905484FF47C720BF006FEFEE708BD9F
:101DD000BC490020356D02005C6A0200024B012202
:101DE0005868114620F0F2BABC4900207047F8B597
:101DF000054604200C461FF0E4F903061DD5104EDD
:101E0000B778D7B91DB1012D02D00220F8BD012746
:101E10002046FFF791FA0028F7D070683A4621462D
:101E200020F0EDFA30B1074907484FF486620BF015
:101E3000D3FDFEE70623B370E8E77020E6E700BFB6
:101E4000BC490020356D02005C6A020010B5042018
:101E50001FF0B7F9030610D5094CA378062B0CD157
:101E6000606820F0CFFA30B10649074840F2494295
:101E70000BF0B2FDFEE7A07010BD7020FCE700BFC4
:101E8000BC490020356D02005C6A020008B50349B8
:101E9000034840F261520BF09FFDFEE7356D0200F2
:101EA0005C6A02000348044B834202D0034B03B137
:101EB00018477047FC210020FC2100200000000092
:101EC0000548064B1B1AD90F01EBA301491002D09C
:101ED000034B03B118477047FC210020FC21002070
:101EE0000000000010B5064C237843B9FFF7DAFF75
:101EF000044B13B10448AFF300800123237010BDDD
:101F0000FC4F002000000000708E020008B5054B59
:101F10001BB105490548AFF30080BDE80840FFF755
:101F2000CFBF00BF0000000030240020708E0200F0
:101F3000A3F5803A704700BF174B002B08BF134B27
:101F40009D46FFF7F5FF00218B460F461348144AC4
:101F5000121A21F014FA0E4B002B00D098470D4BAB
:101F6000002B00D098470020002104000D000D48F0
:101F7000002802D00C48AFF300801AF0C9FF2000FF
:101F800029001CF0DAFA1AF00FFE00BF000008006A
:101F9000000000000000000000200020FC210020C4
:101FA0005C5000200000000000000000BFF34F8FD5
:101FB0000549CA6802F4E062044B1343CB60BFF3E7
:101FC0004F8F00BFFDE700BF00ED00E00400FA0501
:101FD00070B582B004468368C26853F822301E7818
:101FE0001EF016FA864222D300230093ADF8043087
:101FF000204B1B88ADF80230A168E36851F823201C
:102000001278ADF804206268D21A012A21DD01336A
:1020100051F823301B88ADF8003068461EF0ECF90B
:102020000446032003F066FBC0B902B070BD05464C
:10203000032003F05FFB0028F7D01CF04BFB1CF0E3
:102040004AFB2B4632460C490C4800681DF086FCC2
:10205000EBE740F2FF13ADF80030DEE71CF03AFB8F
:102060001CF039FB22460649044B18681DF076FC2B
:10207000DBE700BF3A4F002000380200AC29002007
:102080003838020010B582B08368C26853F8223035
:102090001C780023019343689B1A012B0FDD01AAD2
:1020A00001211CF041FF01469DF804001EF09CF93F
:1020B00020461EF0A5F9044620B902B010BD1EF05E
:1020C00097F9F5E7032003F015FB0028F5D01CF085
:1020D00001FB1CF000FB22460249034B18681DF06F
:1020E0003DFCEAE748380200AC29002010B5034661
:1020F0008168C26851F82200B0F900001A4C2080B3
:102100005B689B1A012B0FDD013251F8223093F9E5
:102110000010003918BF01211EF017F9A0B90320E3
:1021200003F0E8FA10B910BD0021F5E71CF0D2FA6F
:102130001CF0D1FA0D4B1C681EF00BF902460C493D
:1021400020461DF00BFCEEE7012003F0D3FA002837
:10215000E9D01CF0BFFA1CF0BEFA0649034B186820
:102160001DF0FCFBDFE700BF3A4F0020AC29002048
:10217000643802007838020010B584B00023009360
:102180008268C36852F8232012788DF80C20022A46
:1021900010D18268013352F823301B78ADF8043037
:1021A00001A81EF015F90446032003F0A3FA58B95C
:1021B00004B010BD6A4601211CF0B6FE0146009A2B
:1021C00001A821F015F8EBE71CF084FA1CF083FA63
:1021D00022460349034B18681DF0C0FBE8E700BF27
:1021E000DC380200AC2900202DE9F04186B01EF059
:1021F000BCF80446894B1B7813F0020F2CD0884E94
:1022000013F0010F2AD0864F13F0040F28D0DFF807
:102210001082032003F06EFA28BB032003F06AFA51
:1022200058BB032003F066FA002835D1032003F0E1
:1022300061FA00283ED1032003F05CFA002847D160
:10224000032003F057FA00285ED1032003F052FA6E
:10225000002867D1002471E0724ED1E7714FD3E7B7
:10226000DFF8C081D5E71CF035FA1CF034FA6E496E
:102270006E4B18681DF072FBCFE71CF02BFA1CF0B8
:102280002AFA6A4B1D6806F079F902460B4668493E
:1022900028461DF063FBC4E71CF01CFA1CF01BFA77
:1022A000624B1D681EF035F80246624928461DF053
:1022B00055FBBBE71CF00EFA1CF00DFA5B4B1D68DA
:1022C0001EF05FF802465C4928461DF047FBB2E766
:1022D0001CF000FA1CF0FFF9E279A379617920790A
:1022E000E57894F802C094F801E024780594CDF8DC
:1022F00010E0CDF80CC00295019000914F494B4879
:1023000000681DF02BFB9BE71CF0E4F91CF0E3F9DF
:10231000464B1C681EF02DF80246494920461DF028
:102320001DFB92E71CF0D6F91CF0D5F945493F4B4F
:1023300018681DF013FB8DE70134E4B2072C12D8A6
:10234000032003F0D7F90028F6D01CF0C3F91CF0E5
:10235000C2F9364B1D681EF008F8025D3A4928465E
:102360001DF0FCFAE8E7032003F0C4F998B9032054
:1023700003F0C0F9C8B9032003F0BCF918BB03206F
:1023800003F0B8F968BB032003F0B4F9002836D194
:1023900006B0BDE8F0811CF09DF91CF09CF92B49BA
:1023A000224B18681DF0DAFAE1E71CF093F91CF0F3
:1023B00092F91E4B1C681DF0E0FF0246244920469E
:1023C0001DF0CCFAD7E71CF085F91CF084F9174B07
:1023D0001C681DF0B6FF02461E4920461DF0BEFADD
:1023E000CDE71CF077F91CF076F9104B1C681DF056
:1023F000B0FF0246184920461DF0B0FAC3E71CF0B2
:1024000069F91CF068F9CDF800803B463246134963
:10241000064800681DF0A2FABAE700BFC2210020FA
:102420009038020098380200F4380200AC290020ED
:10243000FC38020018390200343902005039020019
:102440007439020090390200A4390200B068020019
:10245000AC390200C8390200E0390200F839020044
:1024600010B58368C26853F8223018781DF065FFF4
:10247000044678B9032003F03DF900B910BD1CF003
:1024800029F91CF028F922460A490B4B18681DF05F
:1024900065FAF3E7012003F02DF90028EED01CF0D7
:1024A00019F91CF018F922460449034B18681DF06D
:1024B00055FAE3E7303A0200AC290020543A020012
:1024C00070B582B08368C26853F822301B78134A13
:1024D000137013F0020F0ED0114C13F0010F0CD03B
:1024E0000F4D13F0040F0AD00D4E032003F002F934
:1024F00038B902B070BD0B4CEFE70A4DF1E7094E59
:10250000F3E71CF0E7F81CF0E6F800962B462246AD
:102510000549064800681DF021FAEAE7C2210020BB
:102520009038020098380200A4380200AC2900203C
:1025300070B58268C36852F823100C78013352F8E2
:1025400023301D78294620461DF04AFF80B903201C
:1025500003F0D0F800B970BD1CF0BCF81CF0BBF85B
:102560002B4622460B490C4800681DF0F7F9F2E7AC
:102570000646012003F0BEF80028ECD01CF0AAF8B3
:102580001CF0A9F832460549034B18681DF0E6F91E
:10259000E1E700BF843A0200AC290020B43A02000F
:1025A00008B51DF0C2FE032003F0A4F800B908BD71
:1025B0001CF090F81CF08FF80249034B18681DF0CE
:1025C000CDF9F4E7E43A0200AC29002030B583B03D
:1025D0008368C26853F822301C7801A920461DF098
:1025E000A8FE88B9032003F085F808B903B030BD10
:1025F0001CF070F81CF06FF8019B22460B490C4848
:1026000000681DF0ABF9F1E70546012003F072F810
:102610000028EBD01CF05EF81CF05DF82A46054956
:10262000034B18681DF09AF9E0E700BF043B020075
:10263000AC290020203B020010B58368C26853F823
:1026400022301C78631EDBB2032B03D8204601F036
:10265000EDFF10BD012003F04DF80028F9D01CF06B
:1026600039F81CF038F8042322460349034800686F
:102670001DF074F9EDE700BF443B0200AC290020D7
:1026800030B595B004460D4668461BF0D1FE0DF1FD
:102690002C0EEC46BCE80F00AEE80F00BCE80F00C3
:1026A000AEE80F00DCF80030CEF800300BA9494B43
:1026B00018681EF0F9F810F1880F4BD168461BF02E
:1026C000B7FE0DF12C0EEC46BCE80F00AEE80F0093
:1026D000BCE80F00AEE80F00DCF80030CEF80030A8
:1026E0004FF410510BA81BF0C3FE8023ADF82E3021
:1026F0004FF440730A930AA81BF0ABFE0A9B0E939B
:10270000354B0F93334B1A680C9B0D9213F0FF0F50
:1027100004D123F0FF0343F001030C9301230C9336
:102720002C4B2A4621460BA81EF0E1F8044610BBAC
:10273000032002F0DFFF90B9264B18681DF0F1FD71
:102740000546002831D1032002F0D4FF044610BB17
:1027500001242FE01F4B18681EF08EF8AEE71BF027
:10276000B9FF1BF0B8FF1B4B1A681C491C4B1868BB
:102770001DF0F4F8E0E7032002F0BCFF0028DBD0F6
:102780001BF0A8FF1BF0A7FF22461649144B186840
:102790001DF0E4F8D0E71BF09DFF1BF09CFF1249F1
:1027A0000F4B18681DF0DAF804E0032002F0A2FFD6
:1027B000044610B9204615B030BD1BF08BFF1BF04E
:1027C0008AFF2A460949064B18681DF0C7F80024FD
:1027D000F0E700BF48240020004440047C3B020096
:1027E000AC290020AC3B0200D03B0200F03B0200D1
:1027F00000B583B00021019101AA1CF095FB01995D
:1028000010290ED0032002F075FF60B11BF062FFAB
:102810001BF061FF10220549054B18681DF09EF85A
:1028200001E0FFF72DFF03B05DF804FB103C020050
:10283000AC29002010B582B000240094ADF804400B
:102840001DF0E6FDC0B2ADF804004FF6FF73ADF821
:102850000030ADF8024068461DF0CEFDB0B903204F
:1028600002F048FF20B9FF201DF0CAFD02B010BDE4
:102870001BF030FF1BF02FFFBDF80030BDF8042027
:102880000B490C4800681DF069F8ECE7044601208C
:1028900002F030FF0028E9D01BF01CFF1BF01BFFEB
:1028A00022460549034B18681DF058F8DEE700BFC3
:1028B000383C0200AC290020603C020010B582B018
:1028C0006946002003F058F960B9032002F012FFB6
:1028D000C8B9184B00221A70032002F00BFFF0B9A0
:1028E00002B010BD0446012002F004FF0028F7D01A
:1028F0001BF0F0FE1BF0EFFE22460F490F4B18684D
:102900001DF02CF8ECE71BF0E5FE1BF0E4FE019B4C
:10291000009A0B49094800681DF020F8D9E71BF020
:10292000D9FE1BF0D8FE0749044B18681DF016F8B5
:10293000D6E700BFFE4F0020843C0200AC290020F7
:10294000A83C0200D83C020030B585B001212648E1
:1029500004F02EF80121254804F02AF801230B2267
:102960000A21022005F0C0FA01230B2211460220A1
:1029700005F0BAFA1E4C4FF46163A3640325656445
:102980001C4BEC460FCB8CE80F0000238DF8003079
:102990006146204605F03AFBE2236361FE23A36112
:1029A000154BE363236C43F4833343F02403236424
:1029B000124B4FF40032C3F880211A6001212046E7
:1029C0001CF002F9284602F095FE08B905B030BDAA
:1029D0001BF080FE1BF07FFE71220949094B18682D
:1029E0001CF0BCFFF2E700BF00350A0000820400C3
:1029F00000C000403C3F0200FFFF070000E100E094
:102A0000203D0200AC29002010B594B00AF040FB34
:102A1000032002F06FFE002843D103F055F804466E
:102A2000002848D102F07EFB01248F4B1C600BA8CC
:102A30001BF03CFD0BA920461DF036FF10F1880F5E
:102A400049D00BA81DF0BEFF032002F053FE002862
:102A500040F0B380844B18681DF063FC1DF0BCFC93
:102A60000446032002F046FE002840F0B080932C7C
:102A700000F0B880002C40F0B880032002F03AFE4D
:102A8000002800F0B8801BF025FE1BF024FE774BD9
:102A90001C681DF06EFC0246754920461CF05EFF66
:102AA000A9E01BF017FE1BF016FE72496F4B186869
:102AB0001CF054FFB1E7012002F01CFE0028B1D049
:102AC0001BF008FE1BF007FE22466B49674B186897
:102AD0001CF044FFA6E7032002F00CFE002851D1B1
:102AE0000BA81DF06FFF68461BF0E0FC0DF12C0CED
:102AF000EE46BEE80F00ACE80F00BEE80F00ACE801
:102B00000F00DEF80030CCF80030574B1A680C9BF1
:102B10000D9213F0FF0F04D123F0FF0343F00103E4
:102B20000C93564B0F934FF440730A930AA81BF073
:102B3000CEFC0A9B0E934FF410510BA81BF0D6FC51
:102B40008023ADF82E3001230C93474B10224C49C3
:102B50000BA81DF0CCFE04460BA81DF033FFDCB91A
:102B6000032002F0C7FD00283FF474AF1BF0B2FD54
:102B70001BF0B1FD3C4B1A6842493C4B18681CF0F5
:102B8000EDFE67E71BF0A6FD1BF0A5FD3E49374BA8
:102B900018681CF0E3FEA3E7012002F0ABFD00285B
:102BA0003FF458AF1BF096FD1BF095FD22463749C8
:102BB0002E4B18681CF0D2FE4CE71BF08BFD1BF06F
:102BC0008AFD3349294B18681CF0C8FE42E71BF008
:102BD00081FD1BF080FD22462E49244B18681CF015
:102BE000BDFE44E7FFF726FE05E0012002F082FD6E
:102BF000D0B9FFF71FFE0023274A1370274A13603E
:102C0000274A1360274B4FF6FF721A80FFF756FED4
:102C1000FFF79AFE032002F06DFD80B9032002F059
:102C200069FDB0B914B010BD1BF054FD1BF053FD8D
:102C300022461D490D4B18681CF090FED9E71BF089
:102C400049FD1BF048FD1949084B18681CF086FE29
:102C5000E4E71BF03FFD1BF03EFD1549034B1868F0
:102C60001CF07CFEDEE700BF48240020AC290020D9
:102C70007C3E0200643D02009C3D02000044400492
:102C800000200020FC3D0200D43D0200203E020056
:102C9000403E0200603E0200FE4F00205024002013
:102CA0004C24002088210020A43E0200D83E0200CF
:102CB000F03E0200394B596B11F4C06F0DD110B4C6
:102CC00083B011F0040F14D0344BDA69344A002079
:102CD00010800422DA635A600BE020225A60D96324
:102CE0002F4B00221A8070472C4BDB692B4B0422A0
:102CF0005A602A4BDB6813F4807F10D0284B1B8866
:102D00009BB2872BF0D8254BDA69254C23889BB2E0
:102D1000581C80B22080D2B22248C254E6E711F497
:102D2000803F30D000230193019B632B0ADC1B4BB7
:102D3000DB6813F4807F05D1019B01330193F3E736
:102D4000164BDB69154BDB6813F4807F10D0144BF6
:102D50001B889BB2872BF3D8104BDA69104C238861
:102D60009BB2581C80B22080D2B20E48C254E9E710
:102D70000A4B4FF48032DA63094B1B889BB213B1C4
:102D8000094B01221A7021F4803121F00401034B18
:102D9000D96303B05DF8044B704700BF00C000402A
:102DA0003C4F002054240020FD4F0020BFF34F8FE4
:102DB0000549CA6802F4E062044B1343CB60BFF3D9
:102DC0004F8F00BFFDE700BF00ED00E00400FA05F3
:102DD000002301E00133DBB2032B10D81946094A66
:102DE00002EBC3021279002AF4D0064A12F833200B
:102DF0008242EFD1034B03EBC103588870474FF673
:102E0000FF707047AC250020014B01221A707047FB
:102E1000095000200023184601E00133DBB2032BE8
:102E200010D8094A02EBC3021279002AF5D0064AEB
:102E300002EBC30251884FF6FF729142EDD0013090
:102E4000C0B2EAE7704700BFAC25002000B583B0F0
:102E5000032002F04FFC10B903B05DF804FB1BF037
:102E600039FC1BF038FC084B1A78084B1B7801938F
:102E7000074B1B680093074B1B680749074800680E
:102E80001CF06CFDE8E700BFFE4F0020C1210020D0
:102E9000502400204C2400204C3F0200AC2900208C
:102EA00010B582B00023019306E0002108326A4485
:102EB00002F8041C0133DBB2032B0AD81A4613496B
:102EC00001EBC30109790029EFD0104911F8331043
:102ED000ECE704230DEB030202210D48006811F01A
:102EE000BFFF044608B902B010BD012002F002FC89
:102EF0000028F8D01BF0EEFB1BF0EDFB2246054945
:102F0000054B18681CF02AFDEDE700BFAC2500203A
:102F100080200020803F0200AC29002070B582B0E4
:102F20000446431EDBB2032B03D80D464FF0000CC2
:102F300034E0012002F0DEFB002800F087801BF067
:102F4000C9FB1BF0C8FB22464649474B18681CF0DA
:102F500005FD7BE01BF0BEFB1BF0BDFB434B03EB11
:102F6000C60300955B88224641493F4800681CF033
:102F7000F5FC2CE0032002F0BDFB70B31BF0AAFBB4
:102F80001BF0A9FB2B4622463A49374800681CF043
:102F9000E5FC22E00CF1010C5FFA8CFCBCF1030FA4
:102FA00021D86646314B03EBCC0E9EF80430002B43
:102FB000F0D02E4B13F83C30A342EBD1BEF80230D8
:102FC000AB42D7D0032002F095FB0028C2D1274B9B
:102FD00003EBC6035D80FFF763FF244B03EBC603DF
:102FE00001225A7132E04FF0000C10E01BF072FB2E
:102FF0001BF071FB00962B4622461F491A480068B9
:103000001CF0ACFC1BE00CF1010C5FFA8CFCBCF179
:10301000030F17D86646154B03EBCC031B79002B27
:10302000F1D1124B03F83C4003EBCC035D8001224D
:103030001A715A71032002F05DFB0028D6D1FFF708
:103040002FFF03E0012002F055FB08B902B070BD6C
:103050001BF040FB1BF03FFB0849034B18681CF0BA
:103060007DFCF3E7A83F0200AC290020AC2500203E
:10307000D03F0200F83F020024400200544002000A
:1030800030B585B00446F0238DF80830184B1B7816
:103090008DF80930174B1B688DF80A30C3F30722EF
:1030A0008DF80B20C3F307428DF80C201B0E8DF812
:1030B0000D30114B1B78019302AB009306230022C5
:1030C00002211DF076F908B905B030BD0546012092
:1030D00002F010FB0028F7D01BF0FCFA1BF0FBFA03
:1030E0002B4622460549064800681CF037FCEBE7F2
:1030F000C021002050240020C22100207440020082
:10310000AC2900200023032B70D830B585B029E00E
:103110001BF0E0FA1BF0DFFA364A02EBC4035B88CF
:1031200012F834203449354800681CF017FC50E090
:10313000012002F0DFFA18B9314B00221A704FE07B
:103140001BF0C8FA1BF0C7FA2B462A4A12F83420A3
:103150002C492A4800681CF001FCEDE70133DBB282
:10316000032B3FD8284A14781C4404F00304214A56
:1031700002EBC4021279002AF0D01E4A02EBC4020C
:1031800050884FF6FF729042E8D0631C03F00303AF
:103190001D4A1370174B03EBC40100224A7113F848
:1031A00034301A490B70B0218DF80C108DF80D30A9
:1031B000174B1B78019303AB0093022319461DF0B4
:1031C000F8F805460028B3D1032002F093FA00284E
:1031D0009ED10B4B01221A701CF0C3FE0D4B1860E0
:1031E00005B030BD064B00221A70F9E7044B0022EF
:1031F0001A707047AC250020A0400200AC290020C6
:1032000001500020C0400200045000200250002065
:10321000C2210020A025002000B583B0032002F0C9
:1032200069FAA0B90023144A1360144A1370144AAF
:103230001370144B1888FFF723FF1CF092FE124BFB
:103240001860124B04221A7003B05DF804FB1BF0E7
:1032500041FA1BF040FA0E4B1B6801930D4B1B7893
:1032600000930D4B1B78074A12880C490C480068E4
:103270001CF074FBD6E700BFA82500200A500020F0
:103280000650002088210020F4250020FE4F002059
:1032900050240020C0210020C1210020E440020071
:1032A000AC29002000B583B00023154A1370154ADD
:1032B0001370154A1370FFF7ADFD38B1134B01229F
:1032C0001A70FFF71FFF03B05DF804FB032002F044
:1032D00011FA48B90023019300930D4A41F2883155
:1032E0000C481BF00EF9EEE71BF0F4F91BF0F3F9B4
:1032F00041F288320849094B18681CF02FFBE9E7B6
:1033000004500020035000200150002000500020F5
:10331000A53200008025002018410200AC290020C1
:1033200030B583B0284B1B78DBB9284B1C780134AF
:10333000E4B21C70FFF76EFD054608B184423FD32E
:10334000032002F0D7F958BB0023214A13700193E0
:103350000093204A41F288311F481BF0D2F803B095
:1033600030BD1CF0FEFD1D4B1B68C01A08F0FEF8B6
:1033700040F2DB539842F2D9032002F0BBF918B9AE
:10338000114B00221A70D0E71BF0A4F91BF0A3F92F
:10339000134B1A781349144B18681CF0DFFAEFE747
:1033A0001BF098F91BF097F941F2883300932B46F4
:1033B000064A12780D490C4800681CF0CFFAC3E7A2
:1033C000FFF7A0FECBE700BF015000200350002014
:1033D00000500020A532000080250020A0250020FC
:1033E0000250002048410200AC2900206441020044
:1033F00030B583B00023019304230DEB03020221B7
:103400003348006811F076FD08B9002423E003205A
:1034100002F070F908B903B030BD1BF05BF91BF086
:103420005AF92C492C4B18681CF098FAF3E7013331
:10343000DBB2032B0BD8294A02EBC3021279002A14
:10344000F5D0264911F83310A942F0D100E000224E
:10345000AAB10134E4B2032CDDD804F108036B44B3
:1034600013F8045C6B1EDBB2032BF2D82846FFF77F
:10347000AFFC4FF6FF739842EBD10023D9E700234E
:10348000032BE6D8154A02EBC302127912B10133BD
:10349000DBB2F5E7114A02F8335002EBC3034FF6F3
:1034A000FF725A8001221A7100225A719A71032008
:1034B00002F020F90028CCD01BF00CF91BF00BF91E
:1034C0002A460749044B18681CF048FAC1E700BFB8
:1034D0008020002098410200AC290020AC2500206B
:1034E000D0410200F0B585B00D46032940F282803C
:1034F0004678837846EA0326C778041D3B1D8B4235
:1035000000F288807B1E13F0800F40F09480994B6E
:103510001B78DBB2012B15D0974B1B68002B00F0FA
:103520009A800023954A1360954A1380954BAA22EE
:103530001A70904B01221A70032002F0DBF8002869
:1035400040F094804FF6FF739E4204D08C4B1B8852
:10355000B34240F09580884B1A682AB1874B1B68AC
:103560003B449A42C0F09F803B462246834909680B
:10357000002002F03DFB0546002840F0AC803B46B1
:10358000814A7E490968002002F014FB38B93A46A6
:1035900021467D481FF0C9FE002840F0B280774ADE
:1035A00013683B44136076490A8801320A804FF65B
:1035B000FF72964200F0B980744BA3FB06231B09EF
:1035C000322202FB13639BB2002B40F08B8003205E
:1035D00002F090F8002800F085801BF07BF81BF0CB
:1035E0007AF8664B1B68324669496A4800681CF0E5
:1035F000B5F977E0012002F07DF8002872D01BF0C9
:1036000069F81BF068F82A466349624B18681CF099
:10361000A5F967E0012002F06DF8002862D01BF0E8
:1036200059F81BF058F82B1F3A465C495948006876
:103630001CF094F956E0012002F05CF8002851D00B
:103640001BF048F81BF047F83A465549514B1868AB
:103650001CF084F946E002A9002002F08DFA00284F
:103660007FF45FAF039A444B1A605AE71BF032F8BD
:103670001BF031F84B49474B18681CF06FF961E7B4
:10368000022002F037F800283FF465AF1BF022F863
:103690001BF021F83A4B1B88324643493D480068ED
:1036A0001CF05CF957E7012002F024F818B9314BFF
:1036B00008221A7016E01BF00DF81BF00CF82E4BC8
:1036C0001B6800933B462D4A126838493148006810
:1036D0001CF044F9EBE7012002F00CF820B9254B6F
:1036E00008221A7005B0F0BD1AF0F4FF1AF0F3FFCB
:1036F0002B46224A12682E49264800681CF02EF9F3
:10370000EDE7012001F0F6FF18B91A4B08221A70F4
:10371000E8E71AF0DFFF1AF0DEFF184B1A682549B8
:103720001C4B18681CF01AF9EFE7234A1360114B81
:1037300002221A70032001F0DDFF78B9032001F0A6
:10374000D9FF0028CED01AF0C5FF1AF0C4FF04221A
:103750001A49104B18681CF001F9C3E71AF0BAFFB8
:103760001AF0B9FF144B1A6815490A4B18681CF077
:10377000F5F8E3E7FE4F0020A42500204C240020AC
:103780003E4F0020C0210020DC2400201F85EB518B
:10379000C0430200AC290020104202002C4202006B
:1037A0005C42020078420200A4420200D0420200C1
:1037B000F84202001C43020050240020784302001B
:1037C0004443020030B583B0012924D944786946C6
:1037D000204602F0D1F900282DD114B9019A364BB8
:1037E0001A60032001F086FF002839D1204602F03C
:1037F0001DFA054600283ED1032001F07BFF00287A
:103800004ED1002C3ED100232C4A13602C4A138049
:103810002C4A137036E00C46012001F06BFF88B390
:103820001AF058FF1AF057FF22462749274B18680D
:103830001CF094F826E0022001F05CFF28B9002C6F
:10384000CFD11D4B00221A60CBE71AF043FF1AF0CC
:1038500042FF22461E491D4B18681CF07FF8EEE718
:103860001AF038FF1AF037FF22461A49174B18682A
:103870001CF074F8BAE7012001F03CFF20B9114BAD
:1038800008221A7003B030BD1AF024FF1AF023FF8B
:103890002B46224610490D4800681CF05FF8EEE701
:1038A0001AF018FF1AF017FF22460C49074B186848
:1038B0001CF054F8A5E700BFA42500204C240020EC
:1038C0003E4F0020FE4F0020DC430200AC290020C8
:1038D000FC430200384402005844020078440200CD
:1038E00038B5012922D94478614B1B78DBB2022B11
:1038F0002BD1002C3AD0631EDBB2032B00F289805F
:103900002046FFF765FA05464FF6FF73984200F030
:103910009180584B1C70584B1880032001F0EAFE30
:10392000002840F09880FFF777FC38BD012001F0B7
:10393000E1FE0028F9D01AF0CDFE1AF0CCFE4F4976
:103940004F4B18681CF00AF8EFE7012001F0D2FE97
:103950000028EAD01AF0BEFE1AF0BDFE444B1A78D9
:103960004849474B18681BF0F9FFDEE7032001F0D8
:10397000C1FE80B90021084602F0D0F9A8B90020A4
:1039800002F072F968B3012001F0B4FEF8B9384BC7
:1039900002221A70C9E71AF09DFE1AF09CFE3A49FD
:1039A000374B18681BF0DAFFE4E7012001F0A2FEB4
:1039B00018B92F4B02221A70B7E71AF08BFE1AF0D3
:1039C0008AFE32492E4B18681BF0C8FFF1E71AF047
:1039D00081FE1AF080FE2E49294B18681BF0BEFFAD
:1039E000D5E701F075FC032001F084FE38B9294BBE
:1039F0001B6913F0200FFAD002F090F895E71AF047
:103A000069FE1AF068FE24491D4B18681BF0A6FFDA
:103A1000EDE7012001F06EFE002886D01AF05AFE74
:103A20001AF059FE042322461C49154800681BF071
:103A300095FF7AE7012001F05DFE00283FF475AFA5
:103A40001AF048FE1AF047FE224615490C4B18683A
:103A50001BF084FF69E71AF03DFE1AF03CFE2B468E
:103A600022461049064800681BF078FF5BE700BF5C
:103A7000FE4F0020C1210020882100208C4402003C
:103A8000AC290020B8440200F044020018450200AE
:103A9000584502000000014080450200B045020088
:103AA000E04502001446020030B5A3B01D4B1C884F
:103AB000A4B2882C00D9882422461B4968461FF0EE
:103AC00097FB64B19DF80050042D19D8DFE805F08C
:103AD0000703090E130021466846FFF7B7F923B024
:103AE00030BD21466846FFF7FDFCF8E721466846F1
:103AF000FFF768FEF3E721466846FFF7F1FEEEE7C1
:103B0000012001F0F7FD0028E9D01AF0E3FD1AF0DA
:103B1000E2FD23462A460549054800681BF01EFFC2
:103B2000DDE700BF3C4F0020542400205C4602002B
:103B3000AC29002010B59A4B1B78043B042B00F2F3
:103B40002381DFE813F005009200B300EF001501B8
:103B5000944B1B78002B40D0032001F0CBFDA8B97B
:103B6000914B1A78914B1968914B188808F026FDF3
:103B70000446F8B9032001F0BDFD88B91CF0F1F945
:103B80008C4B1860864B05221A70FDE01AF0A2FDDE
:103B90001AF0A1FD8849894B18681BF0DFFEDFE7AA
:103BA0001AF098FD1AF097FD8549844B18681BF0B0
:103BB000D5FEE3E7012001F09DFD18B9784B0822FE
:103BC0001A70E1E01AF086FD1AF085FD22467D4963
:103BD0007A4B18681BF0C2FEF0E71CF0C2F9754B77
:103BE0001B68C01A07F0C2FC42F21073984240F200
:103BF000CB80754A13780133DBB21370032B1AD9CB
:103C0000012001F077FD50B9704BFF221A70684B0C
:103C10004FF6FF721A80624B02221A70B4E01AF05B
:103C200059FD1AF058FD684B1A786949634B1868BA
:103C30001BF094FEE8E7012001F05CFD40B95C4B0D
:103C40001888FFF71DFA1CF08CF95A4B18609BE09E
:103C50001AF040FD1AF03FFD03235B4A12785D49DC
:103C6000564800681BF07AFEE9E71CF07AF9514BE0
:103C70001B68C01A07F07AFC0446574B984240F282
:103C80008380012001F036FD28B908F009FD444B7E
:103C900008221A7078E01AF01DFD1AF01CFD224669
:103CA0004E49464B18681BF059FEEEE74C4B1B780B
:103CB000002B69D04A4B00221A70032001F01AFD34
:103CC00088B93B4B1A88384B19784FF4FA6008F0E2
:103CD000B1FC044698B91CF044F9364B1860304BDF
:103CE00007221A7050E01AF0F5FC1AF0F4FC4FF4B9
:103CF000FA623C49314B18681BF030FEE1E70120C5
:103D000001F0F8FC18B9264B08221A703CE01AF0B2
:103D1000E1FC1AF0E0FC22463349284B18681BF0FE
:103D20001DFEF0E71CF01DF9224B1B68C01A07F0BE
:103D30001DFC044647F23053984225D9012001F07A
:103D4000D9FC50B9214BFF221A70194B4FF6FF7264
:103D50001A80134B02221A7016E01AF0BBFC1AF0FC
:103D6000BAFC22462149154B18681BF0F7FDE9E71C
:103D7000012001F0BFFC40B9144BFF221A70002350
:103D80001B4A1380064A137010BD1AF0A3FC1AF0E8
:103D9000A2FC1849094B18681BF0E0FDECE700BFD6
:103DA000FE4F00200A500020C02100205024002097
:103DB00088210020F425002080460200AC29002044
:103DC000B0460200D046020006500020C12100206B
:103DD000F046020030470200E09304005C47020016
:103DE0000950002088470200B4470200D84702006B
:103DF0003E4F0020104802000279531EDBB2012B17
:103E000000F24D812DE9F04184B00446C3884BB3E4
:103E100080680178A02917D0B1296FD0F12900F06E
:103E2000C680012A1ED19E4B1B7813F0010F03D0D0
:103E3000237813F0010F15D0032001F05BFC00285C
:103E400040F0C8800025D1E0012B0ED96188407870
:103E5000FFF764F8E388092B17D8924B1B6913F01E
:103E6000200FFAD004B0BDE8F081012001F042FC3F
:103E70000028F7D01AF02EFC1AF02DFC62888A492F
:103E80008A4B18681BF06AFDECE7032001F032FC56
:103E900008B9022510E01AF01DFC1AF01CFCA368FA
:103EA0005A788349814B18681BF058FDF1E7814B24
:103EB00081491BF053FD0135092D10DC032001F071
:103EC00019FC0028F7D01AF005FC1AF004FC774B17
:103ED0001868A3685A5D082DE9DC784BE8E70320F1
:103EE00001F008FC0028B8D01AF0F4FB1AF0F3FB3C
:103EF00073496E4B18681BF031FDAEE7022BB1D948
:103F000045788678002301E00133DBB2032B11D81A
:103F100019466C4A02EBC3021279002AF4D0694AAE
:103F200012F83320AA42EFD1664B03EBC103012202
:103F30005A719E71E388032B27D9A368DF78032089
:103F400001F0D8FB18B9604B00221A708AE71AF00A
:103F5000C1FB1AF0C0FB554B1868638817F0010FBE
:103F60000FD05A4A17F0040F0DD04221C7F3400773
:103F700003970291019200962A4655491BF0EEFCE8
:103F8000E1E7544AEEE74121F0E7032001F0B2FBFC
:103F90000028D8D01AF09EFB1AF09DFB009663888B
:103FA0002A464D49414800681BF0D8FCCBE7032066
:103FB00001F0A0FB18B9494B01221A7052E71AF020
:103FC00089FB1AF088FB62884549384B18681BF05A
:103FD000C5FCF0E71AF07EFB1AF07DFB62884149D0
:103FE000324B18681BF0BAFC2CE70135E388AB4272
:103FF00010DD032001F07EFB0028F6D01AF06AFBEA
:104000001AF069FBA3685A5D3749284B18681BF002
:10401000A5FCEAE7A16801200DF06CF90546A1684E
:10402000043101200DF066F9002D34DB002685EA0D
:10403000E572A2EBE5722D4B83FB0241D417C4EB72
:10404000A1144FF47A7101FB142483FB0572ED1760
:10405000C5EBA215002DB8BF6D42A3FB00234FEAAC
:10406000931801FB18089F09032001F043FB002867
:104070003FF4F8AE1AF02EFB1AF02DFB0B4B18682C
:104080005EB11B4ACDF80880019700942B46194970
:104090001BF064FCE6E60126C9E7174AF2E7704721
:1040A000C22100200000014040480200AC2900204D
:1040B0006448020004660200904802002C48020096
:1040C0009C480200AC25002001500020304802002E
:1040D000A048020034480200EC4802000A500020C8
:1040E000204902004049020058490200D34D6210A5
:1040F00038480200604902003C48020000B970479D
:1041000010B50446032001F0F5FA00B910BD1AF00D
:10411000E1FA1AF0E0FA22460249034B18681BF054
:104120001DFCF3E788490200AC29002030B583B0BC
:10413000902811D00446912835D0032001F0DAFAF6
:1041400008B31AF0C7FA1AF0C6FA22462049214BE2
:1041500018681BF003FC16E0032001F0CBFAA0B9AD
:10416000FF201CF04DF900241B4B1C701B4D2846F2
:1041700007F0ACF8019400942346194A40F6B83190
:1041800028461AF0BEF903B030BD1AF0A3FA1AF0AF
:10419000A2FA104B1C681CF0ECF8024611492046AC
:1041A0001BF0DCFBDCE7032001F0A4FA30B90A4B7A
:1041B00000221A70094807F089F8E4E71AF08AFA31
:1041C0001AF089FA0849034B18681BF0C7FBEEE7A1
:1041D000C8490200AC2900200050002080250020A2
:1041E000A53200009C490200B849020038B50546D6
:1041F0000C46032001F07EFA00B938BD1AF06AFAC5
:104200001AF069FA2B4622460249034800681BF05F
:10421000A5FBF2E7E0490200AC29002010B582B00E
:1042200001F0FAF8574B1B78002B50D0564B1B78F7
:10423000002B5BD0554B1B78A3B91BF092FE0446B4
:104240001CF06BF800285FD0514B1B680BB9504B2A
:104250001C604F4B1868201A07F088F943F6972323
:1042600098424BD81CF059F8002871D049481AF0F0
:1042700014FB1BF076FE04461CF04FF898B1464B39
:104280001B7843B1454B1868201A07F06FF947F2C5
:104290003053984207D9FF201CF0B2F83F4B1C6006
:1042A0003D4B01221A703E4B1B78002B54D13D4BE5
:1042B0001B78002B58D03B4B1B78DBB2032B5CD018
:1042C000384B1B78DBB2022B4CD001234DE02D4B39
:1042D00001221A70FFF78CF8002301930093324AF1
:1042E0004FF4FA6131481BF048FE9FE71BF039FE9E
:1042F0002F4B1860244B01221A709BE701F018F82D
:10430000224B01221A70ADE7214B00221A6001F006
:104310007BF80028A6D0264B1868201A07F026F94B
:10432000244B98429ED9012001F0E4F930B9224B88
:104330001B6913F0200FFAD0FEF738FD1AF0CAF906
:104340001AF0C9F91D491E4B18681BF007FBEEE770
:1043500010481AF0A7FA8CE7114B00221A70FFF7E9
:10436000A3FBA4E7002300E00023164A127802B161
:104370002BB1FFF7DFFB02B010BD0023F5E7FEF71E
:10438000CFFFF6E70550002007500020085000201E
:10439000CC2500206C620200FF4F00205C2500202D
:1043A000FD4F0020FE4F002001E5010060250020A8
:1043B000D02500201FBF020000000140204A02005B
:1043C000AC2900200050002070B582B004460D4694
:1043D0001A460B1A01330146002001F0EBFBB0B97D
:1043E000214B1C68002C3CD06E1C642205FB022271
:1043F000B2FBF4F41D4AA2FB04311D4B1B68A2FB67
:104400000323DB08B3EBD10F14D301202AE00646C7
:10441000012001F06FF908B9002023E01AF05AF9E1
:104420001AF059F9334622461249134800681BF026
:1044300095FAF1E7032001F05DF918B90C4B1C6007
:1044400001200FE01AF046F91AF045F9064B1B68F7
:104450000093334622460949074800681BF07EFA5C
:10446000ECE7012002B070BD50240020CDCCCCCCB4
:10447000A8250020604A0200AC2900208C4A0200D6
:1044800010B582B0E8B9032001F034F978B90023FF
:10449000164A137001930093154A4FF4FA711548A8
:1044A0001AF02FF8144B06221A7002B010BD1AF041
:1044B00011F91AF010F91149114B18681BF04EFA56
:1044C000E5E70446012001F015F918B90A4B082266
:1044D0001A70EAE71AF0FEF81AF0FDF822460949C8
:1044E000074B18681BF03AFAF0E700BF09500020AC
:1044F000092E0000D4250020FE4F0020AC4A020007
:10450000AC290020EC4A020010B550BB032001F09A
:10451000F1F870B9032001F0EDF8C0B9194BFF2292
:104520001A70194B4FF6FF721A80184B02221A703C
:1045300010BD1AF0CFF81AF0CEF8124B1B78124AC1
:1045400012881349134800681BF008FAE2E71AF0D2
:10455000C1F81AF0C0F810490E4B18681BF0FEF9AC
:10456000DCE70446012001F0C5F80028D6D01AF097
:10457000B1F81AF0B0F822460849064B18681BF04B
:10458000EDF9CBE7C121002088210020FE4F00205B
:10459000184B0200AC2900204C4B0200804B02005B
:1045A00010B580B10446012001F0A4F800B910BD97
:1045B0001AF090F81AF08FF822460A490A4B186848
:1045C0001BF0CCF9F3E7032001F094F80028EED0BB
:1045D0001AF080F81AF07FF80449034B18681BF0B2
:1045E000BDF9E4E7B04B0200AC290020D04B02003B
:1045F000F0B583B004460D4616461F46032001F071
:1046000079F808B903B0F0BD1AF064F81AF063F84D
:10461000019700962B4622460249034800681BF08A
:104620009DF9EFE7E84B0200AC29002038B50546BC
:10463000FEF7CEFB4FF6FF7398420ED00446294B8F
:104640001D70032001F056F830BB032001F052F832
:10465000044668BB0124204638BD012001F04AF819
:1046600028B9032001F046F860B90024F3E71AF0F6
:1046700031F81AF030F82A461B491C4B18681BF019
:104680006DF9EEE71AF026F81AF025F81849174BDD
:1046900018681BF063F9E8E71AF01CF81AF01BF829
:1046A00023462A461349114800681BF057F9CCE706
:1046B0001AF010F81AF00FF80C4B18680E4B1B7814
:1046C000DBB2032B0BD00C4B1B78DBB2022B04D0DC
:1046D0000A4A0B491BF042F9BDE70A4AF9E7094AC1
:1046E000F7E700BFC1210020284C0200AC290020C0
:1046F000684C02009C4C0200FE4F00201C4C020043
:10470000C84C0200144C020070B586B00446431E2B
:10471000DBB2032B4BD86F4B1B7823B16D4B1B784F
:10472000DBB2022B56D12046FEF752FB05464FF670
:10473000FF73984260D004A9002001F01DFA002800
:104740006BD1002606F10803059A934275D8082319
:104750000DEB03023146002001F02CFA002840F056
:1047600087809DF808109DF8093041EA03219DF8E3
:104770000A3041EA03419DF80B3041EA03619DF89C
:104780000CC09DF80D304CEA032C9DF80E304CEA1D
:10479000034C9DF80F304CEA036C059B634569D3CD
:1047A000B4440CF108064C4B9942CBD146E00120B1
:1047B00000F0A0FF10B9002006B070BD19F08AFF0C
:1047C00019F089FF042322464449454800681BF03C
:1047D000C5F8F0E7012000F08DFF08B90020EBE7F5
:1047E00019F078FF19F077FF3A4B1A783D493C4BA6
:1047F00018681BF0B3F8F1E7012000F07BFF08B95F
:104800000020D9E719F066FF19F065FF2246364906
:10481000334B18681BF0A2F8F2E7012000F06AFFA2
:1048200008B90020C8E719F055FF19F054FF2F49C7
:104830002B4B18681BF092F8F3E70026E6B1002135
:10484000084601F06BFA38BB294B1E60294BAA229F
:104850001A70294B1C70294B1D801E4B02221A70A6
:10486000032000F047FF38BBFEF7D6FC0120A3E78A
:104870000026E3E70026E1E7012000F03BFF08B94E
:10488000002099E719F026FF19F025FF1C49144B69
:1048900018681BF063F8F3E7012000F02BFF08B95C
:1048A000002089E719F016FF19F015FF15490C4B88
:1048B00018681BF053F8F3E719F00CFF19F00BFF21
:1048C0000095234632461049054800681BF046F81B
:1048D000CAE700BFFE4F0020FC0404FCE84C0200C5
:1048E000AC290020104D0200384D02006C4D020032
:1048F00050240020C0210020C12100208821002058
:10490000944D0200D84D0200104E02002DE9F041F6
:1049100084B0032000F0EEFE50B9032000F0EAFE60
:1049200080B9032000F0E6FEB0B9002425462DE052
:1049300019F0D0FE19F0CFFE7149724B18681BF0C8
:104940000DF8EAE719F0C6FE19F0C5FE6E496D4B89
:1049500018681BF003F8E4E719F0BCFE19F0BBFE81
:104960006A49684B18681AF0F9FFDEE72A271EE04B
:10497000DFF8D88125E0664B3FE0032000F0BAFE67
:10498000002844D10135EDB20134E4B2032C50D8F3
:104990002646604B03EBC4031B79002BF4D05D4B20
:1049A00013F834205C4B1B789A42DFD02027594BF8
:1049B00003EBC6035B884FF6FF729342D8D0DFF853
:1049C00090814FF6FF718B42D7D0032000F092FE0A
:1049D0000028D7D019F07EFE19F07DFE494B1868EB
:1049E0003A464C4B13F8361003EBC6035F8893F836
:1049F00006C05B79002BBED0484B0393CDF808C0AE
:104A000001970091334646491AF0A8FFBAE719F01A
:104A100061FE19F060FE3F4B13F83630CDF804808C
:104A2000009333463A463F49364800681AF096FFED
:104A3000A8E7A5B1032000F05DFEF8B9032000F05F
:104A400059FE28BB032000F055FE002830D103207A
:104A500000F050FE002849D104B0BDE8F0810320E9
:104A600000F048FE0028E5D019F034FE19F033FEBE
:104A70002D49244B18681AF071FFDBE719F02AFE64
:104A800019F029FE21491F4B18681AF067FFD5E776
:104A900019F020FE19F01FFE1A4B18681E4B1A78E9
:104AA000FF2A03D021491AF059FFCBE70022F9E78A
:104AB00019F010FE19F00FFE124B18681C4B1B78F2
:104AC000DBB2032B09D01A4B1B78DBB2022B09D0C7
:104AD000174B1B7843B9174A00E0174A17491AF0D9
:104AE0003DFFB4E7164AF9E7164AF7E719F0F2FD79
:104AF00019F0F1FD1449034B18681AF02FFFABE7CA
:104B0000B44E0200AC290020544F0200904F020026
:104B1000784E0200AC250020C1210020704E02001A
:104B2000305002006450020094500200D050020045
:104B3000FE4F00201C4C0200944E02000C5102005B
:104B4000804E0200A84E0200285102005C4E020076
:104B50000466020010B584B00D4BEC460FCBACE8F8
:104B600007008CF8003001238DF803308DF80430F5
:104B700000238DF808300E238DF80930054C694666
:104B800020461AF0E2F820461AF0D0F804B010BD22
:104B90002858020000200540044B00221A605A6089
:104BA0009A60DA60024A1A60704700BFF825002058
:104BB0003152474610B58EB001A800F0C5FF059AE6
:104BC0000AB3D3680BB94FF4805329490B601469B9
:104BD0004CB3B4F5E01F26D3B4F5001F23D34FF434
:104BE000C012B2FBF3F203FB02F2B2F5C01F2CD1EC
:104BF0004FF4E012B2FBF3F202FB03F3B3F5E01F54
:104C000023D1012014E0012000F074FD08B9002038
:104C10000EE019F05FFD19F05EFD1649164B18689D
:104C20001AF09CFEF3E7012000F064FD10B90020AB
:104C30000EB010BD19F04EFD19F04DFD22460F4982
:104C40000D4B18681AF08AFEF1E7012000F052FDC2
:104C500008B90020ECE719F03DFD19F03CFD044BCC
:104C60001A680749044B18681AF078FEF1E700BF8C
:104C700010200020C8510200AC290020F851020089
:104C80004052020008B51023044A0321044800687A
:104C900010F0E6F8B0FA80F0400908BDF8250020D1
:104CA0008020002008B510230F4A03210F48006818
:104CB00010F020F920B90C4B1A680D4B9A4207D01E
:104CC000032000F017FD20B9FFF766FFFFF7DAFFBA
:104CD00008BD19F0FFFC19F0FEFC0649064B1868E8
:104CE0001AF03CFEF0E700BFF825002080200020ED
:104CF0003152474688520200AC2900202DE9F0418C
:104D0000ADF5007D674BD979674A52F821809E68DE
:104D1000731EB3F5802F33D2002000F087FF0028E8
:104D200042D1033626F003060024B4427FD2351B5D
:104D3000B5F5807F28BF4FF4807504EB08072A463D
:104D400040A9384601F014F800283DD12B4640AA6E
:104D50002146002000F04CFF002846D12B466A4631
:104D60002146002000F026FF00284FD12A46694640
:104D700040A81EF0DAFA002848D104F58074D4E780
:104D8000012000F0B7FC20B900200DF5007DBDE842
:104D9000F08119F09FFC19F09EFC32464349444BC8
:104DA00018681AF0DBFDEFE7012000F0A3FC08B95A
:104DB0000020EAE719F08EFC19F08DFC3D493C4BD0
:104DC00018681AF0CBFDF3E7012000F093FC08B956
:104DD0000020DAE719F07EFC19F07DFC3A463649EE
:104DE000334B18681AF0BAFDF2E7012000F082FC9C
:104DF00008B90020C9E719F06DFC19F06CFC2246D7
:104E00002E492B4B18681AF0A9FDF2E7012000F09B
:104E100071FC08B90020B8E719F05CFC19F05BFCE4
:104E200022462749224B18681AF098FDF2E7002124
:104E3000084600F073FF58B9002000F015FFB8B91C
:104E4000032000F057FC18BB00F068FE01209CE72F
:104E5000012000F04FFC08B9002096E719F03AFC59
:104E600019F039FC1749124B18681AF077FDF3E76F
:104E7000012000F03FFC08B9002086E719F02AFC69
:104E800019F029FC10490A4B18681AF067FDF3E77E
:104E900019F020FC19F01FFC0C49054B18681AF09A
:104EA0005DFDD1E7F825002020580200B85202002D
:104EB000AC290020DC520200FC5202002053020008
:104EC000405302006853020090530200B4530200A2
:104ED0002DE9F047ADF5047D0021084600F01EFFE6
:104EE00000283AD182A9002000F046FE002847D1D0
:104EF000002404F10803839A934251D808236A4698
:104F00002146002000F056FE002840F090809DF8D9
:104F100000309DF8012043EA02239DF8022043EA75
:104F200002439DF8032043EA02629DF804309DF895
:104F3000051043EA01239DF8061043EA01439DF85A
:104F4000071043EA01638399994272D3234403F122
:104F50000804694B9A42CCD123E0012000F0CAFB3F
:104F600020B900200DF5047DBDE8F08719F0B2FBF3
:104F700019F0B1FB6149624B18681AF0EFFCF0E7D9
:104F8000012000F0B7FB08B90020EBE719F0A2FB05
:104F900019F0A1FB5B495A4B18681AF0DFFCF3E7E4
:104FA0000024631EB3F5802F45D2574B93F807A01A
:104FB000BAFA8AFA4FEA5A1A544B53F82A904FF425
:104FC0008021484600F010FF002847D104F1030873
:104FD00028F003080026464580F08480A8EB0605EB
:104FE000B5F5807F28BF4FF480752B4642AA314625
:104FF000002000F0DFFD002841D106EB09072A461A
:1050000042A9384600F0D2FE002849D12A4602A91A
:10501000384600F0ADFE002853D12A4602A942A826
:105020001EF083F900284CD106F58076D3E70024E2
:10503000B7E70024B5E7012000F05CFB08B90020C9
:1050400090E719F047FB19F046FB4FF48023224606
:105050002F492B4800681AF081FCF0E7012000F08E
:1050600049FB08B900207DE719F034FB19F033FB48
:105070004A462849224B18681AF070FCF2E70120D2
:1050800000F038FB08B900206CE719F023FB19F099
:1050900022FB324620491A4B18681AF05FFCF2E7EF
:1050A000012000F027FB08B900205BE719F012FB94
:1050B00019F011FB3A461949114B18681AF04EFCC9
:1050C000F2E7012000F016FB08B900204AE719F0CA
:1050D00001FB19F000FB3A461149094B18681AF018
:1050E0003DFCF2E7084B83F807A09C6001221A738D
:1050F000FFF7C8FD36E700BFFC0404FCE8530200DC
:10510000AC29002020540200F8250020205802007D
:10511000445402007C540200A4540200C45402000F
:10512000E854020010B584B0FFF714FDFFF7BAFD94
:10513000FFF740FD5B4B1870032000F0DBFA20B94D
:10514000594B9B79BBB904B010BD19F0C3FA19F0E3
:10515000C2FA554AD379117B9068524C2478039453
:1051600002900191009393889279504950480068C9
:105170001AF0F4FBE4E74C4A938801339380FFF77D
:1051800081FD08B3032000F0B5FA60BB464B9B8855
:10519000042BD8D9434B1B781BB1434B1B7B002BF3
:1051A00042D1012000F0A6FA50BB012000F0A2FA83
:1051B00000282FD13C4B9B88052BC4D93A4B0522A4
:1051C0009A80FFF75FFDBEE7012000F093FA002808
:1051D000D8D019F07FFA19F07EFA3649344B1868A6
:1051E0001AF0BCFBCEE719F075FA19F074FA052332
:1051F0002D4A928830492E4800681AF0AFFBC5E767
:1052000019F068FA19F067FA2C49294B18681AF056
:10521000A5FBCAE719F05EFA19F05DFA2849244B9C
:1052200018681AF09BFBC5E7032000F063FAC8B9C1
:105230001D4B00229A8001229A71FFF723FDFFF790
:105240005DFDF8B1012000F055FA00283FF47BAF76
:1052500019F040FA19F03FFA1A49154B18681AF07C
:105260007DFB70E719F036FA19F035FA104B186823
:105270000D4BDB7923B1422213491AF06FFBD7E7BC
:105280004122F9E7012000F035FA00283FF45BAF36
:1052900019F020FA19F01FFA0C49054B18681AF09A
:1052A0005DFB50E70B500020F8250020145502004C
:1052B000AC2900206055020094550200B45502004C
:1052C000FC550200645602003C5602009C56020047
:1052D00008B5134B01229A7100229A80FFF7D2FC85
:1052E00070B9012000F006FA00B908BD19F0F2F912
:1052F00019F0F1F90B490C4B18681AF02FFBF4E781
:10530000032000F0F7F90028EFD019F0E3F919F0C5
:10531000E2F90649044B18681AF020FBE5E700BFE4
:10532000F8250020D4560200AC29002010570200B6
:1053300008B52E4B9B792BB92C4A127B12B12B4A04
:1053400092887AB113B12A4B1B7863B9274B00229C
:105350009A719A80FFF796FC002837D1012000F05F
:10536000C9F948BB08BDFFF7B3FDB0B1032000F099
:10537000C1F90028EAD019F0ADF919F0ACF91D4BCC
:1053800018681A4BDB7933B14222184B9B681A49D3
:105390001AF0E4FADAE74122F7E7012000F0AAF96F
:1053A0000028D3D019F096F919F095F91349114B4B
:1053B00018681AF0D3FAC9E719F08CF919F08BF9CB
:1053C0000F490C4B18681AF0C9FACBE7032000F01C
:1053D00091F90028C6D019F07DF919F07CF9094936
:1053E000044B18681AF0BAFABCE700BFF825002091
:1053F0000B500020AC2900204857020088570200BB
:10540000C4570200F0570200024B9879003818BFC9
:1054100001207047F825002008B5024819F086FCE5
:1054200008BD00BF0020054008B5024B1B6803B152
:10543000984708BD3826002008B5024B5B6803B1C9
:10544000984708BD3826002008B5024B9B6803B179
:10545000984708BD3826002008B5024BDB6803B129
:10546000984708BD3826002008B5024B1B6903B1D8
:10547000984708BD3826002008B5024B5B6903B188
:10548000984708BD3826002030B585B0094C226801
:10549000094B1A60094D0A4B2B600A4B019304F02B
:1054A00063FE02902B68039301A9206819F05EFD4A
:1054B00005B030BD302000207C340020783400203E
:1054C000242000201862020008B5024B186819F069
:1054D00061FD08BD3020002038B504F045FE0446CB
:1054E000064D2B68D3F8B00204F032FE286819F09C
:1054F0006BFD204604F02CFE38BD00BF302000209C
:1055000038B501F083FE01210D4801F051FA012266
:105510001146002001F0BEFD0A4C0225C4F880505F
:1055200001221146002001F0B5FDC4F8845001228B
:105530001146002001F0AEFDC4F88850002038BDAF
:1055400030253E0000400E4008B5164B01225A643B
:1055500003F01CF8024668B9134B4AF6E851C3F849
:105560009011D3F8981141F00401C3F8981100216B
:10557000C3F89011012A0DD90C4A136A23F444137D
:1055800043F488131362A2F58042136843F48073D6
:10559000136008BD044AD2F8643143F40053C2F8E2
:1055A0006431E9E700000E4000300E4000400E403C
:1055B000012900D9704708B5034B1B68186808B16A
:1055C000436A984708BD00BF3420002030B599B029
:1055D000284D11ACAC46BCE80F000FC49CE8070096
:1055E00084E8070000240B940C940D940E940F94FF
:1055F0001094214B0B93214B0C9301228DF83720F3
:1056000002238DF8393003238DF83B301E238DF8AB
:105610003F308DF8403009AB1C3595E8030083E836
:1056200003000DF10C0C0394049405940694079464
:1056300008948CE803000C238DF814300D238DF8AA
:1056400015300F4B0693202307938DF820208DF8FB
:1056500021200C4B00930BAB11AA61460A4804F0C1
:105660005BFF054621464FF4E13019F066F8284605
:1056700019B030BD30620200000001400042040059
:105680000C2900202C2900208029002008B503497E
:10569000034805F0A9FAFFF799FF08BD382000205C
:1056A000A429002008B502481AF06CFB08BD00BF11
:1056B0008029002008B502481AF064FB08BD00BF2D
:1056C0008029002008B5024B1A6A1868904708BD67
:1056D0008029002008B5024819F093F808BD00BFE2
:1056E0005462020008B5024819F0D2F808BD00BFA4
:1056F0006C62020003460B4A107828B10A4A1278FD
:105700009A4202D2002000E00120084A12783AB101
:10571000074A127842FA03F313F0010F00D1002078
:10572000704700BFC5210020C42100200C5000207C
:10573000C321002008B5084B01221A70074B002234
:105740001A70074B04221A70064B1F221A7004F0BD
:105750000BFD054B186008BDC52100200C50002032
:10576000C4210020C3210020AC29002008B501215C
:10577000034801F01DF918F00EFF00F075F808BDA0
:1057800000350A0008B50121014801F011F908BDF2
:1057900000350A002DE9F04180460F4601F1090568
:1057A0000026344604E05B21082000F06BFC013445
:1057B000AC4233D2052C1BD801A353F824F000BF10
:1057C000A7570000D95700000D580000E15700000E
:1057D000E5570000E9570000FBB20433D9B2E3E714
:1057E0008021E1E70021DFE7731C3146DEB2DBE711
:1057F000BB1DA3420CD0FB1DA3420BD007F1080335
:10580000A34209D0A31F18F80310CDE7D121CBE79D
:105810005A21C9E75A21C7E75D21C5E70020BDE845
:10582000F08100BF00B583B00022009201920221F6
:105830008DF80010054818F06AFF019008216846AD
:10584000FFF7A8FF03B05DF804FB00BF006A180073
:10585000014B1022DA60704700A00044014B102277
:10586000DA60704700A0004670B588B00DF1040CF6
:10587000374C0FCCACE80F0094E807008CE8070029
:105880000121344801F094F8334E0121304601F0F3
:105890008FF801258DF81250304B0393304C01A93D
:1058A000204619F0E7F92B4604220621022002F0D7
:1058B0001BFB00232A460721022002F015FB2B4682
:1058C00004220821022002F00FFB2B46042211467D
:1058D000002002F009FB234BA3670B2363674FF4FF
:1058E000487006F079FBFFF7B3FF142006F074FB55
:1058F000FFF7B4FF232006F06FFBFFF7A9FFB921E4
:10590000204619F001FAFFF7A9FF00231A460621E5
:10591000022002F0E9FA00231A460721022002F0D1
:10592000E3FA2B4600220821022002F0DDFA2B4682
:1059300000220421104602F0D7FA204602F080FE31
:105940000021A1676167304601F032F808B070BDF0
:105950008462020000350A000052040000127A003E
:10596000000401400B0B000B08B500F087F8124A49
:105970000AE01068516850F8230041F82300013311
:1059800091688B42F5D30C320C4B9A4201D2002322
:10599000F6E70B4A08E01168002041F823000133C4
:1059A00051688B42F7D30832064B9A4201D200234A
:1059B000F6E7FCF7C1FA00BF788E0200848E020081
:1059C000848E0200848E02000048704700F0490275
:1059D000114BD3F8943003F00703023B032B0DD88F
:1059E000DFE803F0050F02080C4B18680BE00C4BC6
:1059F000186808E00B4B1868400804E0094B186869
:105A000001E04FF40040044BD3F80031C3F304230A
:105A10000133B0FBF3F0704700400E4054200020EB
:105A2000582000204C20002008B5FFF7D1FF054B7F
:105A3000D3F80831C3F308230133B0FBF3F0024B72
:105A4000186008BD00400E4050200020014B18682F
:105A5000704700BF5820002008B5064B1860064B61
:105A6000D3F8943003F00703022B00D008BDFFF7F2
:105A7000DBFFFBE75820002000400E40044B054AA6
:105A80009A60D3F8882042F47002C3F888207047E7
:105A900000ED00E000000000014B1868704700BFF7
:105AA00054200020BFF34F8F0549CA6802F4E0621A
:105AB000044B1343CB60BFF34F8F00BFFDE700BF24
:105AC00000ED00E00400FA0508B5114BD3F82828D2
:105AD000A2F17E63A3F58433B3F5104F11D21168A0
