S0160000637562657361745F54585F495753422E73333758
S214000000002000200D7D0000590E0200590E02004F
S2140000108B250200590E0200590E0200590E0200EE
S214000020590E0200590E0200590E0200590E020027
S214000030590E02005C9C0200590E0200590E020086
S214000040590E02002DC50100A9ED0000590E020050
S2140000505DBD0100C9530200C55302004DC5010035
S214000060BD530200298A0000918B0000590E020041
S21400007089390000590E0200590E0200590E02007E
S214000080590E02002D3A0000B18B0000590E0200F6
S214000090590E0200590E0200590E0200590E0200B7
S2140000A0590E0200590E0200590E0200590E0200A7
S2140000B081C50100C1530200D1DD0000BDC50100AD
S2140000C0590E0200D1A80100590E0200590E020076
S2140000D0590E0200590E0200590E0200590E020077
S2140000E0597A0000497A0000590E0200590E0200A3
S2140000F0590E0200590E0200590E0200590E020057
S214000100590E0200590E0200590E020000000000AF
S214000110013800D0FCE77047000000000000000037
S21400012001F0FF01102A2BDB10F0070F08D010F8A3
S214000130013B013A8B422DD010F0070F42B3F6D1A7
S214000140F0B441EA012141EA014122F007047FF0C0
S21400015000070023F0E80256083C85EA010586EA17
S214000160010685FA47F5A3FA87F586FA47F6A5FA53
S21400017087F68EB9EED1F0BC01F0FF0102F007025F
S21400018032B110F8013B013A83EA010313B1F8D10A
S2140001900020704701387047002D06BF35460338EB
S2140001A0073815F0010F07D1013015F4807F02BF24
S2140001B0013015F4C03F0130F0BC0138704700BF75
S2140001C02DE9F04F2DED028B91B082460C469346FA
S2140001D01D46DDE91C23104619461EF001FE0028C8
S2140001E000F007814FF0FF32B14BDDE91C011EF035
S2140001F01FFE002840F0FD804FF0FF326FF48013A2
S214000200DDE91C011EF0F6FD002840F0F280002219
S2140002100023DDE91C011EF0EDFD002840F0FE8005
S2140002209DED1C7B8DED067B209B13F480630F9366
S21400023001D106231E93DDE906010246C1F30A50EA
S214000240C1F31303904643F07F5949F44019A0F2D6
S214000250FF301EF0F3FA84A3D3E900231EF058FB08
S21400026083A3D3E900231EF09DF906460F4600221D
S214000270904B404649461EF093F97FA3D3E90023EE
S2140002801EF046FB02460B46304639461EF08AF9FB
S2140002901EF0D8FD06461EF0D1FA8046894678A3A1
S2140002A0D3E900231EF034FB0022834B1EF07AF9BC
S2140002B01EF0C8FD074674A3D3E90023404649460E
S2140002C01EF026FB8046894638461EF0B7FA70A315
S2140002D0D3E900231EF01CFB02460B464046494667
S2140002E01EF05EF98046894602460B461EF010FB5D
S2140002F0CDE90A0107F2FF3700210022CDE90812F6
S2140003003B0509930023089342464B464046494620
S2140003101EF048F9CDE90C0142464B4600204FF04E
S21400032080411EF03DF9804689460022634BDDE998
S2140003300A011EF017FC0022614B1EF033F902463C
S2140003400B46DDE90A011EF00DFC00225D4B1EF097
S21400035029F902460B46DDE90A011EF003FC0246B7
S2140003600B46404649461EF01DF902460B46DDE99F
S2140003700C011EF0F7FB0022534B1EF013F9DDE9CB
S21400038008231EF0C5FA8046894649EC188BDDE93D
S21400039006231EF04DFD40B1013E0022484B40466C
S2140003A049461EF0DFFB41EC180B06F16303C62B33
S2140003B03FD80427209B13F4006F44D036A3D3E91C
S2140003C00023DDE90689404649461EF027FD002841
S2140003D03FD033A3D3E90023404649461EF00AFD2A
S2140003E0002836D01E9BB34225DD9E1B731E1E932F
S2140003F023E0209B04931F9B03931E9B02939DED7B
S2140004001C7B8DED007B2B465A462146504600F05D
S214000410CFF811B0BDEC028BBDE8F08F9FED227BCC
S2140004208DED067B1C9B06931D9B03F100430793F3
S214000430FAE60527BEE700231E93209B43F480635D
S214000440209300273E461F9B9F423FD2A3EB070800
S2140004503EE01E9B002BF6D00F9B002BF3D01E9B7E
S214000460013B1E93EFE700BFFB799F501344D33F39
S214000470B3C8608B288AC63F61436F63A787D23FA5
S21400048071A379094F930A401655B5BBB16B02406C
S214000490EF39FAFE422EE63F2D431CEBE2361A3FBA
S2140004A00000000080842E410000000000000000D4
S2140004B0FFFFEF7F0000F83F0000E03F00002C4009
S2140004C000002440000018400000F03F4FF00008F5
S2140004D0209B13F0020902D00FB14FF000083EB186
S2140004E053EC182BDDE906011EF03CFBCDE90601B6
S2140004F000220023DDE91C011EF07CFC00283DD113
S214000500209B23F400630493CDF80C801E9B02937B
S2140005109DED067B8DED007B2B465A4621465046C8
S21400052000F046F8002F3FF474AF209B13F0200F26
S2140005302CD04FF0450C00F101082B460246214610
S2140005406046D04786EAE672A2EBE672052305937C
S214000550013F0497002303930A230293F30F0193AA
S21400056000922B4642462146504623F0F4F8B9F155
S214000570000F3FF44EAF02461F9F10E0DDE9060174
S214000580024601F10043CDE90623B9E74FF0650CBA
S214000590D1E7561C2B4621462020D0473246A2EBF8
S2140005A00B03BB42F5D3104633E700BF0000000044
S2140005B02DE9F04F2DED028B95B007900A919246EB
S2140005C09B46DDE92089229D42464B4640464946E9
S2140005D01EF006FC002840D04FF0FF326FF4801368
S2140005E0404649461EF006FC002845D14FF0FF3233
S2140005F09F4B404649461EF01BFC00284BD198A353
S214000600D3E90023404649461EF012FC00285AD182
S21400061095A3D3E90023404649461EF0EBFB00288D
S21400062051D100220023404649461EF0E3FB002835
S21400063057D100230B93249B13F4806F5CD00024C7
S2140006401F2C5BD8092D59D904F150036B44302276
S21400065003F8202C013D0134F2E7249B0393239BEF
S214000660029303230193834B00935B4652460A99F9
S214000670079822F096FF2CE1249B0393239B02937A
S214000680042301937C4B00935B4652460A990798D5
S21400069022F087FF1DE1249B13F004030FD0774A56
S2140006A07BB104232499039123990291019300922C
S2140006B05B4652460A99079822F073FF09E1704A92
S2140006C0EEE70323EEE7249B0493239B0393029514
S2140006D0CDE900895B4652460A990798FFF770FDF8
S2140006E0F7E042464B46002000211DF059FF8046A9
S2140006F0894601230B939EE70625A0E74046494618
S2140007001EF0A0FB06461EF099F802460B46404631
S21400071049461DF045FF5B4B03EBC50393ED008B8D
S21400072053EC182B1EF0F4F802460B46CDE90823CE
S2140007301EF0B0FB07461EF071F802460B46DDE9D8
S21400074008011DF02DFF02460B46CDE908230022C6
S2140007504D4B1EF06DFB50B3013738461EF05EF869
S21400076002460B4651EC180B1EF04EFB08B1013644
S214000770002755BB30461EF061F802460B46404641
S21400078049461DF00DFF0746884600223E4B1EF0E8
S21400079031FB38B100223C4B384641461EF048FB40
S2140007A0002842D016F0010F3FD001363DE000226F
S2140007B0354BDDE908011EF01DFB0028D9D117B125
S2140007C017F0010FD5D00137D3E71F2C17D8013DFE
S2140007D02E4BA3FB0723DB08194603EB8303A7EB8B
S2140007E04303621C303304F150000DEB000404F8A0
S2140007F0203C092F02D90F461446E6E714461F2C64
S2140008000AD86B1E45B104F150026A44302102F842
S214000810201C1D460134F2E71F2C06D804F15003B5
S2140008206B442E2203F8202C01341F2C33D8184A90
S21400083082FB0632F317C3EBA2031A4603EB8303CD
S214000840A6EB4303611C303304F150000DEB0004AB
S21400085004F8203C1646EAB10C46E6E7AFF3008003
S2140008600000000065CDCD410000000065CDCDC183
S214000870FFFFEF7F94A3020098A3020088A3020064
S21400088090A30200A0A302000000E03FCDCCCCCC99
S214000890676666660C46249B03F00303012B1DD097
S2140008A01F2C09D80B9B002B35D004F150036B444A
S2140008B02D2203F8202C0134249B0393239B0293C0
S2140008C001940CAB00935B4652460A99079822F0B7
S2140008D068FE15B0BDEC028BBDE8F08F239BB3B16C
S2140008E00B9B1BB9249B13F00C0F12D0239B013BD0
S2140008F02393194606E004F150036B44302203F8B4
S214000900202C01348C42CBD21F2CF4D9C8E7239973
S214000910F8E72399F6E7249B13F0040F07D004F1B9
S21400092050036B442B2203F8202C0134C4E7249B8D
S21400093013F0080FC0D004F150036B44202203F8D4
S214000940202C0134B8E700BF7FB54E6802A90446E4
S21400095024F00CFA9DF808300E2B19D1134BB3F97E
S2140009600050134B9E4218D80AF0DEF90346006882
S21400097000909B88ADF804306946204624F0E3F9E1
S21400098070B10C490C4840F21C620FF037FAFEE7D3
S214000990204617F081FA0546E3E70AF0C1F9E5E7D5
S2140009A02946204624F0E4F904B070BDAC5C012072
S2140009B0FFC99A3BEDA6020014A4020038B504460F
S2140009C00D4620F07CFB064A13889BB22DB12343CC
S2140009D01380BDE8384020F078BB23EA0403F7E72D
S2140009E008590120034B002201214FF480709A70B1
S2140009F0E4E700BF085901207FB50023134C03939A
S214000A00CDE90133FF238DF8043020F058FB22880F
S214000A1063880F4E9A4205460DD061887068218023
S214000A2001AA17F027F858B10A490B4840F2976216
S214000A300FF0E4F9FEE7706824F047F80128ECD0E0
S214000A40284620F042FB04B070BD00BFD020002036
S214000A5008590120EDA6020014A4020038B50F4C78
S214000A60A56835B90E490F4840F27C720FF0C6F9FA
S214000A70FEE722F045FF284412F032FE00F00700A1
S214000A80032809D1A4680921204623F055F8205CE4
S214000A90031F5842584138BD0020FCE70859012082
S214000AA0EDA6020014A4020010B5114CA378042B86
S214000AB006D01049104840F244520FF09FF9FEE766
S214000AC023881B0706D40B490B4840F245520FF00B
S214000AD095F9FEE700210820FFF770FF074B6068D6
S214000AE002221A7116F094FFBDE8104021F06ABF8A
S214000AF008590120EDA6020014A40200D020002010
S214000B0010B5084C606816F083FF606823F0DDFFC0
S214000B10012806D0012260681146BDE8104023F087
S214000B20D6BF10BD0859012038B5194DAB7833B182
S214000B30184919484FF4DC620FF060F9FEE720F020
S214000B40BEFA298811F00601044609D001214FF4A7
S214000B508070FFF733FF2046BDE8384020F0B5BA76
S214000B604FF48070FFF72AFF14F028FB012805D009
S214000B7010F0FD0F05D1FFF73FFFECE7FFF7C0FFD2
S214000B80E9E70449044840F2F6620FF037F9FEE759
S214000B9008590120EDA6020014A4020070B5074D06
S214000BA095F90C600446FFF7BFFF14F007FAAA6831
S214000BB031462046BDE8704014F03EB80859012082
S214000BC008B50A4B1B88DB0606D40949094840F2DB
S214000BD069520FF013F9FEE700211020FFF7EEFE32
S214000BE014F068FBBDE8084021F0ECBE085901206F
S214000BF0EDA6020014A402000D4B1B889B0710B53F
S214000C00044613D500210220FFF7D8FE094B5A7977
S214000C10FF2A06D00849094840F29A420FF0EEF83B
S214000C20FEE75C71BDE8104021F0CCBE10BD00BFF1
S214000C3008590120D0200020EDA6020014A40200CE
S214000C407047704710B50E4CA37833B10D490E4867
S214000C5040F2C5120FF0D2F8FEE7A06019B1A17CF1
S214000C60003918BF01212020FFF7A8FE074B0848CF
S214000C709B7923770223A370BDE8104011F09ABB3E
S214000C8008590120EDA6020014A40200D02000207E
S214000C902859012008B512F08FF980F00100C0B283
S214000CA008BD0A4B9A780AB1062A0CD11B8803F4B1
S214000CB08B7343B9064B5A79FF2A04D11879FF384B
S214000CC018BF012070470120704700BF0859012057
S214000CD0D020002008B512F05FF90028FBD108BD2F
S214000CE00C4B42881A8242789A740278DA748288A8
S214000CF09A82C288DA82C2689A61074A017A91713A
S214000D00028A198D914204D001214FF400701A8591
S214000D1054E6704708590120D0200020094B1A8A53
S214000D2042809A7C4270DA7C02709A8A8280DA8AE2
S214000D30C2809A69C260044A1B8D9279027203824D
S214000D40704700BF08590120D02000204B1E012B01
S214000D5070B50C4606D91B491B484FF42A720FF093
S214000D604DF8FEE7194D0A460146686824F027F953
S214000D7030B11449144840F2AA220FF03FF8FEE7BB
S214000D806E6811F08BFA22460146304624F011F9BF
S214000D9030B10C490C4840F2AE220FF02FF8FEE7B7
S214000DA06D6811F087FA22460146284624F00DF9B0
S214000DB030B10449044840F2B2220FF01FF8FEE7B3
S214000DC070BD00BFEDA6020014A402000859012061
S214000DD0054BDB791B0913F00E0003D0052B8CBFE7
S214000DE000200120704700BFD0200020044BDB7994
S214000DF01B0913F00E0F0CBF01200020704700BF28
S214000E00D02000202DE9F04F16469A0591B0814675
S214000E101F4603D501218020FFF7D0FDF3014FF0D8
S214000E20000852D59A4C23889D074ED5994D6B796C
S214000E30FF2B06D09849994840F266420EF0DEFF36
S214000E40FEE7A36833B99449944840F267420EF02F
S214000E50D5FFFEE741460220FFF7B0FDA37885F8F0
S214000E600580042B03D101210820FFF7A7FD8C4A3B
S214000E706068002123F09BFF30B18749874840F225
S214000E8071420EF0BBFFFEE7FFF7A2FFA8B9D4F849
S214000E90048022F035FD0546A06822F03CFD2918A6
S214000EA07F4A89B2404623F093FF30B17A497B48A7
S214000EB040F277420EF0A2FFFEE7A378032B02D1A2
S214000EC0606816F0A5FD21F07DFDB80702D501206B
S214000ED0FFF792FE16F0A84F02D00220FFF78CFE16
S214000EE0B10220D50021402005ACFFF767FD214662
S214000EF0484624F090F8B0B99DF81C30022B0AAA98
S214000F0022D18DF83030BDF81430ADF828301046B8
S214000F1014F05CF838B1484624F07BF818B9012183
S214000F204020FFF74BFD320752D5594D05AA686899
S214000F30032124F000F8804688B95749574840F204
S214000F40B3420EF05BFFFEE7032B05BFD4E90001BA
S214000F508DF830308DF83000C2E90001D7E79DF8F3
S214000F6014306868072B40F022810AAA414623F015
S214000F70E6FF824630B14849484840F2B6420EF095
S214000F803DFFFEE7FFF724FFBDF8161090B9FFF708
S214000F902DFF68B10431686889B20AAA23F0D1FF30
S214000FA040B13D493D4840F2C7420EF027FFFEE7FC
S214000FB00231F0E7BDF816000730012180B211F0CB
S214000FC045FF039000284AD101210C2014F03CFF75
S214000FD0B10705D52E4B1B881A0701D5FFF764FD10
S214000FE0B3010AD500210420FFF7E8FC284B9A78C5
S214000FF0012A02D1586816F00BFD16F0284F03D0D0
S21400100000210420FFF7DAFC7E060CD5204C23884E
S2140010101D0701D5FFF748FD2388580703D5002193
S2140010200420FFF7CBFCF90540F1CF80484623F0BB
S2140010304AFD022802D0032840F0C080144C2388C2
S2140010405A0703D500210420FFF7B8FC23889B0726
S21400105040F1BB80012011B0BDE8F04FCCE511F0A7
S214001060CBFD4FF0000BCDF800B0BDF816300246B1
S21400107004464146686823F08DFFBDF8163083426B
S21400108010D0054905484FF49B620EF0B7FEFEE708
S21400109008590120D0200020EDA6020014A402006A
S2140010A03459012022F02CFC204412F019FB00F0E9
S2140010B00700022823D1AB78042B89D122F020FC2C
S2140010C0434B20441B7882789A4281D159460820A7
S2140010D0FFF774FC22F014FC204412F001FB3D4B99
S2140010E0C0F3001018719DF836302B73FFF7B6FC6E
S2140010F000287FF46DAF686816F08AFC68E722F077
S214001100FFFB204412F0ECFA830649D522F0F8FBE8
S214001110204412F0E5FA00F00700032828D0012149
S2140011200420FFF74BFC23F03FFF2863BDF8163082
S2140011309DF83620E254BDF816309DF8372023443B
S21400114001209A71BDF816100A9A0131214412F056
S214001150D5FABDF8163003981C4484F805A011F0A3
S21400116009FF1D4B187811F02BFA21F02BFC2FE706
S2140011700921204622F0E0FC205C04284FF0010103
S214001180CED1FFF71BFC23F00FFF28632B885806F1
S214001190CCD559464020FFF711FC4FF0010AC5E7B1
S2140011A0AB78012BC2D1686816F032FCBEE723F09C
S2140011B0B8FE6868414623F0DBFE09E707490848A1
S2140011C040F2B5520EF01AFEFEE711B0BDE8F08F01
S2140011D075590120D020002078580120EDA6020085
S2140011E014A4020008B50246FFF7F2FD30B1072A44
S2140011F006D8044B002083F8342008BD7020FCE796
S2140012000220FAE70859012008B50246FFF7E0FD7C
S21400121028B1044B93F834301370002008BD7020BA
S214001220FCE700BF0859012008B5074B014600221D
S214001230586823F0C4FE30B1044905484FF43772AD
S2140012400EF0DCFDFEE708BD08590120EDA6020001
S21400125014A4020008B5074B01460022586823F084
S214001260A8FE30B10449054840F2E2220EF0C6FD61
S214001270FEE708BD08590120EDA6020014A40200EE
S21400128008B5074B0146586823F0A5FE30B105495E
S21400129005484FF43A720EF0B1FDFEE708BD00BFF8
S2140012A008590120EDA6020014A4020008B5064B5A
S2140012B09B7833B10549064840F2F2220EF09EFDB7
S2140012C0FEE7BDE808402FE408590120EDA602001D
S2140012D014A4020008B5044B0146586823F048FDE4
S2140012E0002818BF8B2008BD08590120014B5868FC
S2140012F016F0D2BD08590120014B5888704700BF30
S214001300D02000207FB50123ADF80E3009484FF6F7
S214001310FE7300930DF10E02002304A9406823F02B
S214001320A6FC012894BFBDF810004FF6FF7007B06A
S2140013305DF804FB0859012008B5044B01465868BF
S21400134023F01BFCB0FA80F0400908BD08590120C4
S21400135038B50B4DAB78012B04460DD8FFF7ECFFE4
S21400136060B1084B5C80AB781BB9FFF7DDFB002053
S21400137038BDFFF741FBFAE73E20F9E78A20F7E79A
S21400138008590120D0200020024B9B780BB9FFF7AC
S214001390CBBB704708590120014BD874704700BF7B
S2140013A00859012008B5054B0121586823F0B2FB07
S2140013B00028B8BF033040F3870008BD0859012055
S2140013C008B5044B586823F0D4FB034BB3FBF0F08E
S2140013D080B208BD0859012040420F0030B58DB0DC
S2140013E02C220446002101A824F076FB0123264D7A
S2140013F08DF808304FF002326423CDE903230693BC
S2140014000B238DF82C302B8DADF80A30FFF7E0FC5F
S214001410A0B140F2F23307934FF47A7305930CB9F8
S214001420FFF76EFB686801A916F0F0FDB8B1174922
S214001430174840F269620EF0E1FCFEE7FFF7C0FFD6
S2140014400C234343902BA3F10A0207930592DCBFBB
S21400145091230793059B8B2BE1D88C23DEE7FFF7C0
S214001460C5FC60B101226868114623F0C2FD30B1A8
S2140014700649074840F26C620EF0C0FCFEE70CB965
S214001480FFF752FB0DB030BD08590120EDA6020053
S21400149014A40200F8B5574C1FF011FE2388D90596
S2140014A0064603D5A37843BBFFF73EFB524D6B7948
S2140014B0FF2B13D06B7903F0FF0723BBFF236B7161
S2140014C0A378032B0AD100233046A3701FF0FDFD3E
S2140014D03846FFF763FB1FF0F2FD0646A378042BA1
S2140014E008D12B79FF2B05D02B79022B14D143483A
S2140014F010F060FFFF232B7128E000214FF480706E
S214001500FFF75CFAD2E76B79012B4FF0FF036B71A4
S21400151014BF89278D27D6E72B7913B12B79012B9A
S2140015201FD1FFF79BFA2B790022FF212971DBB22E
S21400153084F820200546002848D0012B0AD12F48E1
S214001540A370642110F041FFFFF756FA30461FF0F3
S214001550BCFD06E03046A2701FF0B7FD3120FFF755
S2140015601DFB23881A0608D500218020FFF726FADF
S214001570606823F070FC13F07EFE23889B0507D579
S2140015804FF400700021FFF719FA0020FFF726FF3E
S21400159011F002FDE08628B311F02EFB012105466E
S2140015A0002014F051FCA678012E15D1002684F8F0
S2140015B02060A670FFF7B8FA284613F077FAA378EB
S2140015C0E6867BB9BDE8F84013F0F8BCA07030465C
S2140015D01FF07BFD2846C2E72EB1284613F066FAB8
S2140015E00023E386F8BDFFF79FFA284613F05EFA5D
S2140015F0E686F7E708590120D02000202859012068
S2140016007FB5794C2388DB0700F1E7800121774D11
S2140016100846FFF7D3F905237549A37005F10800BE
S21400162016F0C8F9606028B972497348F3220EF0C4
S214001630E5FBFEE7714823F089FA69A3D3E90023A6
S214001640CDE900234FF0FF324FF0FF33606823F000
S2140016500CFB4FF48811606816F07CFC014630B134
S2140016606449654840F20B120EF0C8FBFEE7644B77
S2140016701B78012B0ED1634A606816F0F7FB606892
S21400168016F0F2FCE0B15B495B4840F217120EF030
S214001690B5FBFEE75C4E316831B9564956484FF403
S2140016A08D720EF0ABFBFEE7564A606816F0DEFB66
S2140016B033689B6823B1DB6913B15B7803B1EB71C8
S2140016C0FFF720FE514B68801B78C3EB431203EBF9
S2140016D08203DB0001202385FFF780FE656810F09B
S2140016E0E9FD00220146284623F06FFC054630B18E
S2140016F04049414840F22D120EF080FBFEE740F2D2
S21400170003532382424B04261B78E374A674FFF728
S21400171057FE00EB80039B00A382FFF751FEC0003C
S214001720E08231466068A56123F021FA30B1314984
S21400173031484FF49E720EF061FBFEE76068324659
S21400174003A923F0BAFA042806D02A492A484FF4F7
S214001750A0720EF053FBFEE703A9012011F0DCFF98
S2140017600DF046FB606808224FF0FF3123F087FA41
S21400177030B12049204840F249120EF03FFBFEE708
S21400178016F0E0FD30B11B491B4840F24F120EF038
S21400179035FBFEE7FFF71CFB68B11FF0A6FE01460F
S2140017A0606823F0D0FA30B11249134840F2531261
S2140017B00EF024FBFEE76468FFF7A4FD154B014618
S2140017C003F10C02204616F063F930B109490A48C5
S2140017D04FF4AD720EF012FBFEE704B070BD00BF12
S2140017E00A0020FF4203000008590120D0200020F4
S2140017F0E5090000EDA6020014A40200690345EC0A
S2140018005A590120490900001C200020D921002037
S214001810D821002018A7020008B5044B586823F00A
S214001820AAF9034BB3FBF0F080B208BD08590120BB
S21400183040420F002DE9F043864D2B889B0787B06A
S21400184006D48549854840F201720EF0D7FAFEE7C5
S214001850AB78033B012B06D97F49804840F20372E0
S2140018600EF0CCFAFEE7AA6832B97B497B4840F214
S21400187006720EF0C3FAFEE7794E2C88F77914F05C
S214001880200418BF4FF47A744FEA1718FFF7A0FA2F
S214001890002872D0B8F1020F0AD0A8F10303022B79
S2140018A069D96D496D4840F21A720EF0A7FAFEE744
S2140018B0032795F8343008EBC8089844694B03EBC7
S2140018C048031046B3F81C8022F025F84FF4FA536C
S2140018D043437822B3FBF8F37733B3FBF2F31F44AA
S2140018E0C7EB0717AB78FF00BFB204F5347417FADE
S2140018F084F4042BA4B203D107F6E8072744BCB24D
S214001900D5F8088021F0FCFF0746A86822F003F807
S214001910074422F01BF8BFB23F1A21F0F1FF404403
S21400192011F0DEFE64238DF80C304F4BD5F8049092
S214001930CDE90434C0F3401422F014F8BFB20346D5
S21400194041463A46484623F0F0FA2B8871883180A3
S21400195013F0200F03AB75D000936868434B224604
S21400196016F06CF8002872D03B493C4840F2D96229
S2140019700EF044FAFEE706279BE7FFF737FA002843
S21400198044D0384B07F00F0708EBC801394403EB87
S21400199041031046B3F81C9021F0BDFFB8F1000FCC
S2140019A02AD0B8F1010F2AD1400080B24FF00408C7
S2140019B0F3191B7E4BB10233034443449BB24FF4EE
S2140019C0FA525343B3FBF9F39CB2AB78042B97D18E
S2140019D03744FFF7F5FC3B7E053398448146FFF716
S2140019E01BFF0C2308FB00F003FB09F909EBC009F9
S2140019F0A1441FFA89F483E74FF00208D8E7164996
S214001A00164840F23B720EF0F9F9FEE7FFF704FFC6
S214001A100746A86821F07FFFAB780930784304EBCF
S214001A20C000042B84B27FF46BAFFFF7C9FC0746F7
S214001A30FFF7F2FE602358430C2303FB0700204405
S214001A4084B25DE76868224615F0EAFF8AE707B0C9
S214001A50BDE8F08308590120EDA6020014A4020098
S214001A60D020002018A7020020A107001859012046
S214001A70F8B5484C258815F0020506D04649474873
S214001A804FF4B3720EF0BAF9FEE784F820501FF058
S214001A9016FB23885A0706460AD523F085FA236BD9
S214001AA0C01A238D984203D929460420FEF786FFE4
S214001AB030461FF00AFBA778022F37D11FF0FFFA37
S214001AC0238813F00405064607D0354810F072FC4C
S214001AD03046BDE8F8401FF0F8BA1FF0F6FAA068E6
S214001AE013F0A4FA20B1A570BDE8F840FFF756B889
S214001AF01FF0E5FAA668054621F002FF304411F013
S214001B00EFFD10F0200F0CBF0323042301213846FD
S214001B10A370FEF753FFFFF78DFE28461FF0D5FA99
S214001B2001210846BDE8F84014F08EB9042F27D1ED
S214001B301C4B1B79FF2B2CD1237FF3B11FF0BFFA70
S214001B4023885B07054604D5154810F033FC284665
S214001B50BFE71FF0BAFA237F013B23771FF0AFFAE7
S214001B60012104460220FEF729FFFFF763FE204608
S214001B701FF0ABFA01210820D4E7A3704020B3E79A
S214001B80012F06D160680023A37015F041FF3120B5
S214001B90AAE7F8BD08590120EDA6020014A4020029
S214001BA028590120D020002038B5012104461020F5
S214001BB0FEF704FF064B5D68FFF702FC054B00FBD3
S214001BC004F10122284622F086FF002038BD00BF1F
S214001BD008590120C10B000010B50A4C2388DB060B
S214001BE006D40949094840F275320EF007F9FEE7B7
S214001BF010200021FEF7E2FE6068BDE8104022F0EB
S214001C0078BF00BF08590120EDA6020014A4020008
S214001C1038B50D4DE88E30B90C490D4840F2823289
S214001C200EF0ECF8FEE710F0E7FF0446E88E10F042
S214001C30FFFF811F2144012011F06EFD044623F0B2
S214001C40B3F9001B38BD00BF08590120EDA60200FD
S214001C5014A4020010B5074CA36833B90649074818
S214001C6040F291320EF0CAF8FEE723F09DF9E36ADF
S214001C70C01A10BD08590120EDA6020014A40200E7
S214001C8038B50A4DE88E30B909490A4840F29B3209
S214001C900EF0B4F8FEE710F0AFFF0446E88E10F042
S214001CA0C7FF044414F8020C38BD00BF08590120D1
S214001CB0EDA6020014A4020038B50A4DE88E30B92D
S214001CC009490A4840F2AA320EF098F8FEE710F0EA
S214001CD093FF0446E88E10F0ABFF044414F9070C9B
S214001CE038BD00BF08590120EDA6020014A402006A
S214001CF038B50A4DE88E30B909490A4840F2B9327B
S214001D000EF07CF8FEE710F077FF0446E88E10F041
S214001D108FFF044414F9010C38BD00BF0859012098
S214001D20EDA6020014A40200024B1888C0F3C010EF
S214001D30704700BF0859012030B50F4B05460FCB42
S214001D4085B06C4684E80F000DB12B6800930B4BF2
S214001D5021465868002216F0B5F8044630B1084906
S214001D60084840F2D7320EF049F8FEE7FEF744FE88
S214001D70204605B030BD00BFA0A7020008590120CC
S214001D80EDA6020014A4020008B5074B01465868E9
S214001D9023F063F830B10549054840F2E5320EF00D
S214001DA02DF8FEE708BD00BF08590120EDA6020089
S214001DB014A4020008B5064B586823F065F830B145
S214001DC0044905484FF47C720EF018F8FEE708BD8B
S214001DD008590120EDA6020014A40200024B0122BD
S214001DE05868114622F073BE085901207047F8B5AE
S214001DF0054604200C4621F065FD03061DD5104E51
S214001E00B778D7B91DB1012D02D00220F8BD012741
S214001E102046FFF791FA0028F7D070683A46214628
S214001E2022F06EFE30B1074907484FF486620DF087
S214001E30E5FFFEE70623B370E8E77020E6E700BF9D
S214001E4008590120EDA6020014A4020010B50420D3
S214001E5021F038FD030610D5094CA378062B0CD1CB
S214001E60606822F050FE30B10649074840F2494209
S214001E700DF0C4FFFEE7A07010BD7020FCE700BFA9
S214001E8008590120EDA6020014A4020008B5034973
S214001E90034840F261520DF0B1FFFEE7EDA60200E6
S214001EA014A402000348044B834202D0034B03B140
S214001EB0184770470422002004220020000000007B
S214001EC00548064B1B1AD90F01EBA301491002D097
S214001ED0034B03B118477047042200200422002059
S214001EE00000000010B5064C237843B9FFF7DAFF70
S214001EF0044B13B10448AFF300800123237010BDD8
S214001F005C5D01200000000038C8020008B5054BE3
S214001F101BB105490548AFF30080BDE80840FFF750
S214001F20CFBF00BF000000003824002038C80200E1
S214001F30A3F5803A704700BF174B002B08BF134B22
S214001F409D46FFF7F5FF00218B460F461348144ABF
S214001F50121A23F0C1FD0E4B002B00D098470D4BF4
S214001F60002B00D098470020002104000D000D48EB
S214001F70002802D00C48AFF300801DF0D7FA2000EE
S214001F8029001EF057FE1DF01DF900BF00000800D6
S214001F9000000000000000000020002004220020B6
S214001FA0DC5D01200000000000000000BFF34F8F42
S214001FB00549CA6802F4E062044B1343CB60BFF3E2
S214001FC04F8F00BFFDE700BF00ED00E00400FA05FC
S214001FD070B582B004468368C26853F822301E7813
S214001FE020F097FD864222D300230093ADF80430FC
S214001FF0204B1B88ADF80230A168E36851F8232017
S2140020001278ADF804206268D21A012A21DD013365
S21400201051F823301B88ADF80030684620F06DFD7F
S2140020200446032005F038FDC0B902B070BD054671
S214002030032005F031FD0028F7D01EF0C8FE1EF084
S214002040C7FE2B4632460C490C48006820F003F8C1
S214002050EBE740F2FF13ADF80030DEE71EF0B7FE08
S2140020601EF0B6FE22460649044B18681FF0F3FF22
S214002070DBE700BF865C0120605F0200F8380120C5
S214002080985F020010B582B08368C26853F82230A9
S2140020901C780023019343689B1A012B0FDD01AACD
S2140020A001211FF0BEFA01469DF8040020F01DFD38
S2140020B0204620F026FD044620B902B010BD20F0D0
S2140020C018FDF5E7032005F0E7FC0028F5D01EF024
S2140020D07EFE1EF07DFE22460249034B18681FF066
S2140020E0BAFFEAE7A85F0200F838012010B50346F9
S2140020F08168C26851F82200B0F900001A4C2080AE
S2140021005B689B1A012B0FDD013251F8223093F9E0
S2140021100010003918BF012120F098FCA0B9032058
S21400212005F0BAFC10B910BD0021F5E71EF04FFE11
S2140021301EF04EFE0D4B1C6820F08CFC02460C492F
S21400214020461FF088FFEEE7012005F0A5FC0028DA
S214002150E9D01EF03CFE1EF03BFE0649034B186815
S2140021601FF079FFDFE700BF865C0120F83801200A
S214002170C45F0200D85F020010B584B0002300934D
S2140021808268C36852F8232012788DF80C20022A41
S21400219010D18268013352F823301B78ADF8043032
S2140021A001A820F096FC0446032005F075FC58B9FB
S2140021B004B010BD6A4601211FF033FA0146009AAA
S2140021C001A823F0C2FBEBE71EF001FE1EF000FEA6
S2140021D022460349034B18681FF03DFFE8E700BF9F
S2140021E03C600200F83801202DE9F04186B020F06E
S2140021F03DFC0446894B1B7813F0020F2CD0884E0A
S21400220013F0010F2AD0864F13F0040F28D0DFF802
S2140022101082032005F040FC28BB032005F03CFCA0
S21400222058BB032005F038FC002835D1032005F004
S21400223033FC00283ED1032005F02EFC002847D1B1
S214002240032005F029FC00285ED1032005F024FCBD
S214002250002867D1002471E0724ED1E7714FD3E7B2
S214002260DFF8C081D5E71EF0B2FD1EF0B1FD6E4965
S2140022706E4B18681FF0EFFECFE71EF0A8FD1EF0AD
S214002280A7FD6A4B1D6808F077FB02460B466849B7
S21400229028461FF0E0FEC4E71EF099FD1EF098FDEC
S2140022A0624B1D6820F0B2FB0246624928461FF0CA
S2140022B0D2FEBBE71EF08BFD1EF08AFD5B4B1D6851
S2140022C020F0E0FB02465C4928461FF0C4FEB2E759
S2140022D01EF07DFD1EF07CFDE279A3796179207900
S2140022E0E57894F802C094F801E024780594CDF8D7
S2140022F010E0CDF80CC00295019000914F494B4874
S21400230000681FF0A8FE9BE71EF061FD1EF060FD52
S214002310464B1C6820F0AEFB0246494920461FF09B
S2140023209AFE92E71EF053FD1EF052FD45493F4BC4
S21400233018681FF090FE8DE70134E4B2072C12D81F
S214002340032005F0A9FB0028F6D01EF040FD1EF085
S2140023503FFD364B1D6820F089FB025D3A49284652
S2140023601FF079FEE8E7032005F096FB98B90320F6
S21400237005F092FBC8B9032005F08EFB18BB0320BE
S21400238005F08AFB68BB032005F086FB002836D1E3
S21400239006B0BDE8F0811EF01AFD1EF019FD2B49AF
S2140023A0224B18681FF057FEE1E71EF010FD1EF0E6
S2140023B00FFD1E4B1C6820F061FB02462449204698
S2140023C01FF049FED7E71EF002FD1EF001FD174B79
S2140023D01C6820F037FB02461E4920461FF03BFED5
S2140023E0CDE71EF0F4FC1EF0F3FC104B1C6820F04A
S2140023F031FB0246184920461FF02DFEC3E71EF0AB
S214002400E6FC1EF0E5FCCDF800803B46324613495C
S214002410064800681FF01FFEBAE700BFCD21002067
S214002420F05F0200F85F020054600200F8380120F6
S2140024305C6002007860020094600200B0600200F7
S214002440D4600200F0600200046102006CA2020088
S2140024500C6102002861020040610200586102001F
S21400246010B58368C26853F82230187820F0E6FA70
S214002470044678B9032005F00FFB00B910BD1EF026
S214002480A6FC1EF0A5FC22460A490B4B18681FF056
S214002490E2FDF3E7012005F0FFFA0028EED01EF07B
S2140024A096FC1EF095FC22460449034B18681FF064
S2140024B0D2FDE3E790610200F8380120B461020023
S2140024C070B582B08368C26853F822301B78134A0E
S2140024D0137013F0020F0ED0114C13F0010F0CD036
S2140024E00F4D13F0040F0AD00D4E032005F0D4FA5A
S2140024F038B902B070BD0B4CEFE70A4DF1E7094E54
S214002500F3E71EF064FC1EF063FC00962B462246A2
S2140025100549064800681FF09EFDEAE7CD21002029
S214002520F05F0200F85F020004600200F838012045
S21400253070B58268C36852F823100C78013352F8DD
S21400254023301D782946204620F0CBFA80B9032098
S21400255005F0A2FA00B970BD1EF039FC1EF038FC7A
S2140025602B4622460B490C4800681FF074FDF2E724
S2140025700646012005F090FA0028ECD01EF027FC55
S2140025801EF026FC32460549034B18681FF063FD13
S214002590E1E700BF28620200F83801205862020016
S2140025A008B520F03FFA032005F076FA00B908BD1A
S2140025B01EF00DFC1EF00CFC0249034B18681FF0C1
S2140025C04AFDF4E788620200F838012030B583B08F
S2140025D08368C26853F822301C7801A9204620F090
S2140025E025FA88B9032005F057FA08B903B030BDBC
S2140025F01EF0EDFB1EF0ECFB019B22460B490C483F
S21400260000681FF028FDF1E70546012005F044FAB2
S2140026100028EBD01EF0DBFB1EF0DAFB2A4605494D
S214002620034B18681FF017FDE0E700BFA862020022
S214002630F8380120C462020010B58368C26853F8F7
S21400264022301C78631EDBB2032B03D8204603F02F
S2140026503DFE10BD012005F01FFA0028F9D01EF03F
S214002660B6FB1EF0B5FB0423224603490348006868
S2140026701FF0F1FCEDE700BFE8620200F838012029
S21400268008B504F0B7F8032005F006FA00B908BD4F
S2140026901EF09DFB1EF09CFB0249034B18681FF0C2
S2140026A0DAFCF4E720630200F838012008B502F0EF
S2140026B00BFF10B902F010FF08BD032005F0ECF97F
S2140026C00028F9D01EF083FB1EF082FB0249034B64
S2140026D018681FF0C0FCEFE744630200F8380120DA
S2140026E070B582B0032005F0D7F908B902B070BD06
S2140026F01EF06DFB1EF06CFB084B1E6802F078FCAB
S214002700044602F0E1FE054602F078FC00902B46F7
S2140027102246034930461FF09EFCE7E7F8380120C2
S2140027206063020008B502F08DFD032005F0B4F9E1
S21400273000B908BD1EF04BFB1EF04AFB0249034BD6
S21400274018681FF088FCF4E788630200F838012058
S21400275010B50179C368DAB2914204D1032005F0BE
S2140027609BF950B910BD826852F8233018780038AB
S21400277018BF012002F060FFF0E71EF028FB1EF0F5
S21400278027FB054B1C6802F063FF02461E23034925
S21400279020461FF060FCE5E7F8380120A063020041
S2140027A0F0B585B0032005F077F908B905B0F0BD9F
S2140027B01EF00DFB1EF00CFB0B4B1F6802F05AFFC1
S2140027C0044602F061FF054602F064FF06461EF06E
S2140027D024FA02900196642300932B46224603496E
S2140027E038461FF038FCE1E7F8380120BC630200E9
S2140027F010B54268C3689A420DD0826852F82330FA
S2140028001C78201E18BF012002F028FF032005F0C8
S21400281043F9B0B910BD032005F03EF90028F9D001
S2140028201EF0D5FA1EF0D4FA0D4B1C6802F01CFF01
S21400283028B10C4A0C4920461FF00DFCEAE70B4A6B
S214002840F8E71EF0C4FA1EF0C3FA054B186824B168
S214002850074A05491FF0FFFBDCE7044AF9E700BF1B
S214002860F8380120E46102000C640200E86102000E
S214002870F8630200F0B591B008A800F047FE032008
S21400288005F00AF9002834D1032005F005F90028E0
S21400289040D1032005F000F9002849D1032005F0B7
S2140028A0FBF8002855D1032005F0F6F800285FD184
S2140028B00023ADF81E300DF11E0000F01DFE04468C
S2140028C018B1BDF81E30072B60D8089B13B9099ABB
S2140028D0002A78D0002B00F08580099B002B40F062
S2140028E09B80032005F0D8F8002840F08B8011B0BC
S2140028F0F0BD1EF06CFA1EF06BFA9DF83E300093A9
S2140029009DF83D309DF83C204B494C4800681FF030
S214002910A2FBB9E71EF05BFA1EF05AFA0A9B009378
S214002920099B089A4649454800681FF094FBB0E7A3
S2140029301EF04DFA1EF04CFABDF830300093BDF88C
S2140029402C309DF82E203F493C4800681FF083FB42
S214002950A4E71EF03CFA1EF03BFA384B18680D9AB6
S21400296022B9394B39491FF076FB9CE7384BF9E71B
S2140029701EF02DFA1EF02CFABDF83A30BDF83820BD
S21400298034492E4800681FF066FB91E7032005F0E7
S21400299083F8002899D01EF01AFA1EF019FA227849
S2140029A06378A178E07825796679A779E479059443
S2140029B00497039602950190009127491F480068E6
S2140029C01FF049FB81E7032005F066F800288ED04B
S2140029D01EF0FDF91EF0FCF92049184B18681FF090
S2140029E03AFB84E7032005F057F800283FF47FAF52
S2140029F01EF0EDF91EF0ECF91949104B18681FF09F
S214002A002AFB74E71EF0E3F91EF0E2F915490B4BBA
S214002A1018681FF020FB6AE7032005F03DF8002841
S214002A203FF465AF1EF0D3F91EF0D2F90E49034B02
S214002A3018681FF010FB5AE768640200F838012097
S214002A40B4640200E4640200246402001865020014
S214002A50306402003065020054650200B86502006A
S214002A60146602005C660200AC66020008B500F060
S214002A7089FD032005F010F800B908BD1EF0A7F97F
S214002A801EF0A6F90249034B18681FF0E4FAF4E7B3
S214002A9004670200F838012010B584B04268C368A5
S214002AA09A4219D0816851F8230000788DF80C00FE
S214002AB0D21A012A1FDD013351F823301B788DF816
S214002AC00D300224032004F0E7FFB0B9214603A826
S214002AD000F078FD04B010BD012004F0DDFF0028F2
S214002AE0F8D01EF074F91EF073F90D490D4B1868F6
S214002AF01FF0B1FAEEE70124E4E71EF068F91EF0D5
S214002B0067F9084B18689DF80C20022C05D0064B78
S214002B10009406491FF09FFAD8E7054BF8E700BF78
S214002B2020670200F8380120C09F020048670200B4
S214002B301C6702002DE9F04F91B002F0C5FC18BBEF
S214002B401EF06BF800283ED10023ADF83E300DF1A4
S214002B503E0000F0D1FC8146002837D0BDF83E305C
S214002B60A3B30378A52B40D0012004F095FF98B1BD
S214002B701EF02DF91EF02CF999F800207449754BBB
S214002B8018681FF068FA07E0012004F085FF30B9E6
S214002B90032004F081FF60B911B0BDE8F08F1EF08D
S214002BA016F91EF015F96C496A4B18681FF053FAAF
S214002BB0EEE71EF00CF91EF00BF96849654B186835
S214002BC01FF049FAE8E700F019FDBDE7032004F01E
S214002BD063FF0028E0D01EF0FAF81EF0F9F860490E
S214002BE05C4B18681FF037FAD6E74679032004F0E6
S214002BF053FF30B900230D930E93ADF83C300822F6
S214002C0019E01EF0E4F81EF0E3F899F8012099F8B0
S214002C10023099F8031099F804000296019000918A
S214002C2050494C4800681FF016FAE3E702F2051216
S214002C3092B20133DBB2B3420DD2511C19F8011027
S214002C400429F3D810A800EB410131F80C0C013030
S214002C5021F80C0CEAE7032004F01EFF48B9032015
S214002C6004F01AFFE0B9002108252A460B960E4606
S214002C7053E01EF0ACF81EF0ABF8BDF83830BDF8E7
S214002C803A20BDF83C10029101920093BDF8363010
S214002C90BDF8342034492F4800681FF0DCF9DEE721
S214002CA01EF095F81EF094F830492A4B18681FF06D
S214002CB0D2F9D8E70134E4B2444526D20AEB8403BD
S214002CC0053309EB030219F8035053781B021BB2B5
S214002CD01D439678D3781B021BB21E43032004F0D4
S214002CE0DBFE0028E6D01EF072F81EF071F804969F
S214002CF0039502940197089B00935B46079A1C492C
S214002D00144800681FF0A7F9D4E7099A0A9E02F251
S214002D10051C1FFA8CF2711CCEB20B9B9E4214D27D
S214002D20924619F802300793531C19F803B0931C07
S214002D3019F803300893D31C19F80370131D19F8FB
S214002D400380002409920A96B6E702F031FD23E7D5
S214002D5030680200F838012070670200B46702008D
S214002D60186802004868020084680200C86802000A
S214002D70F068020030B595B004460D4668461DF072
S214002D8065FE0DF12C0EEC46BCE80F00AEE80F0019
S214002D90BCE80F00AEE80F00DCF80030CEF80030DC
S214002DA00BA9494B186820F000F910F1880F4BD199
S214002DB068461DF04BFE0DF12C0EEC46BCE80F00ED
S214002DC0AEE80F00BCE80F00AEE80F00DCF80030FD
S214002DD0CEF800304FF410510BA81DF057FE80239C
S214002DE0ADF82E304FF440730A930AA81DF03FFE4C
S214002DF00A9B0E93354B0F93334B1A680C9B0D9220
S214002E0013F0FF0F04D123F0FF0343F001030C93EC
S214002E1001230C932C4B2A4621460BA820F0E8F8F9
S214002E20044610BB032004F037FE90B9264B186802
S214002E301FF0F4FD0546002831D1032004F02CFED7
S214002E40044610BB01242FE01F4B186820F095F8AD
S214002E50AEE71DF0BCFF1DF0BBFF1B4B1A681C49FC
S214002E601C4B18681FF0F7F8E0E7032004F014FE88
S214002E700028DBD01DF0ABFF1DF0AAFF2246164946
S214002E80144B18681FF0E7F8D0E71DF0A0FF1DF000
S214002E909FFF12490F4B18681FF0DDF804E003206F
S214002EA004F0FAFD044610B9204615B030BD1DF0FA
S214002EB08EFF1DF08DFF2A460949064B18681FF045
S214002EC0CAF80024F0E700BF502400200044400465
S214002ED008690200F8380120386902005C690200BF
S214002EE07C69020000B583B00021019101AA1EF0A2
S214002EF098FB019910290ED0032004F0CDFD60B197
S214002F001DF065FF1DF064FF10220549054B18688B
S214002F101FF0A1F801E0FFF72DFF03B05DF804FBFA
S214002F209C690200F8380120044B1B889BB213B141
S214002F30034B01221A700120704700BF8E5C0120EF
S214002F40605D01200F4B1B889BB2CBB110B40246CC
S214002F5003889BB20C48C05CC0B213889BB2013396
S214002F609BB21380074CB4F800C01FFA8CFC634574
S214002F7003D301230B70002313805DF8044B7047C6
S214002F805A2070478E5C012088260020074B1B784D
S214002F9003B1704710B5064C4FF48063E3600549F3
S214002FA00548FFF7CFFF606310BD00BF5D5D0120E1
S214002FB000000140605D01208A5C012008B5144ACB
S214002FC0136801331360134B1B889BB26BB1114B14
S214002FD01B889BB2104A1380104B1B78DBB2104A3A
S214002FE01370104A1368013313600A4B1B889BB298
S214002FF03BB1084B1B889BB20B4A13800B4B01223C
S2140030001A70044B00221A80FFF7C0FF08BD00BFED
S21400301080260020945C0120885C012014A80020F3
S2140030205E5D01207C260020925C0120625D01200E
S2140030304C4B1B78002B00F093802DE9F04782B0B4
S21400304006460D46174611B902B0BDE8F087464B56
S214003050186805F077FC454B4FF48062DA60444A06
S2140030600023136053609360D36042491160194691
S2140030709E4635E00CF1FF3A06EB0E003E4A4FEA5C
S214003080011802EB0113002442F808405C609C60C3
S214003090DC6032F808906AF30E1922F808909A78E5
S2140030A042F010029A70DA7842F03002DA70586015
S2140030B032489860187B40F001001873C0B240F0A8
S2140030C002001873D8684FF0040868F39F00D860B1
S2140030D09A7864F304129A70F4441FFA8CFE013155
S2140030E0AE4509D2A5EB0E0C1FFA8CFCBCF5006FA2
S2140030F0C0D94FF4006CBDE7C1F1010201391201DD
S21400310092101D4B03EB0113D86862F39F00D86042
S2140031109A7867F304129A70134B18689FB1184B8D
S21400312000220092144A124905F0A0FB044600282B
S2140031308AD00C4B00221A70012004F0ADFC20B996
S214003140FFF724FF80E70023EAE71DF040FE1DF0AE
S2140031503FFE22460B490C4B18681EF07CFFEFE73B
S214003160704700BF5D5D012074260020000001400E
S2140031706426002001000C00542500203400014085
S214003180292F0000C4690200F838012008B5002382
S21400319003E0064A5A21D1540133FF2BF9D9002205
S2140031A04FF480710148FFF743FF08BD5424002008
S2140031B010B582B000240094ADF804401FF0A9FCBE
S2140031C0C0B2ADF804004FF6FF73ADF80030ADF8AE
S2140031D0024068461FF091FCB0B9032004F05CFC86
S2140031E020B9FF201FF08DFC02B010BD1DF0EFFDD2
S2140031F01DF0EEFDBDF80030BDF804200B490C486C
S21400320000681EF028FFECE70446012004F044FCAA
S2140032100028E9D01DF0DBFD1DF0DAFD2246054949
S214003220034B18681EF017FFDEE700BF006A0200B7
S214003230F8380120286A020010B582B069460020DE
S21400324004F06CFE60B9032004F026FCC8B9184BE5
S21400325000221A70032004F01FFCF0B902B010BD63
S2140032600446012004F018FC0028F7D01DF0AFFD3E
S2140032701DF0AEFD22460F490F4B18681EF0EBFE00
S214003280ECE71DF0A4FD1DF0A3FD019B009A0B4981
S214003290094800681EF0DFFED9E71DF098FD1DF016
S2140032A097FD0749044B18681EF0D5FED6E700BF09
S2140032B0635D01204C6A0200F8380120706A020043
S2140032C0A06A020030B585B00121264805F06EFDE3
S2140032D00121254805F06AFD01230B220A21022060
S2140032E007F000F801230B221146022006F0FAFF31
S2140032F01E4C4FF46163A364032565641C4BEC46C7
S2140033000FCB8CE80F0000238DF800306146204676
S21400331007F07AF8E2236361FE23A361154BE363AB
S214003320236C43F4833343F0E4032364124B4FF4DB
S2140033300032C3F880211A60012120461DF0C1FF2B
S214003340284604F0A9FB08B905B030BD1DF03FFDC6
S2140033501DF03EFD71220949094B18681EF07BFEE0
S214003360F2E700BF00350A000082040000C00040FB
S214003370AC6D0200FFFF070000E100E0E86A020013
S214003380F838012030B58BB001214C4805F00EFD11
S21400339001214B4805F00AFD002301221946184674
S2140033A006F0A0FF002304220121184606F09AFF2B
S2140033B0002302221146184606F094FF012302223B
S2140033C00321002006F08EFF0DF10C0C3D4C0FCCB7
S2140033D0ACE80F0094E807008CE8070000258DF89D
S2140033E01950394B059301238DF81A308DF80C507F
S2140033F0364C03A920461DF0BAFFA5670F23636766
S214003400334BA364E36C43F01403E364314B4FF493
S2140034108052C3F880211A60052120461DF060FF07
S21400342005F0F0F9044620B12B4B984201D02B4D05
S21400343004E000212A4805F063F9054614B1264B3E
S2140034409C4200D1E5B1274B00221A70012004F0FF
S21400345023FBD8B9FFF79AFD05F046FB2249032067
S21400346005F05AFB01230193002000900322114629
S21400347006F0E2FE032004F00FFB98B90BB030BD57
S214003480184B01221A70FFF781FEE5E71DF09FFC3E
S2140034901DF09EFC2B4622461449154800681EF077
S2140034A0DAFDD7E71DF093FC1DF092FC00221149CF
S2140034B00F4B18681EF0CFFDE0E700BF00350A008E
S2140034C000420400BC6D020080841E000000014023
S2140034D0FFFF010000E100E0038000F0028000F042
S2140034E0742600205D5D0120BD2F00002C6B0200BD
S2140034F0F83801208C6B020010B1024A1288028054
S21400350001487047905C01208826002020B3134AAB
S21400351012680260124A12684260124A126882609A
S214003520114A12888281114A12788273104A1288D0
S2140035300282104A126842610F4A128802830F4ABA
S214003540128842830E4AD2F88C130177D2F8881379
S2140035504177D2F880238277704700BF8426002008
S214003560802600207C260020885C01205E5D0120ED
S2140035709021002078260020905C01208A5C0120A3
S214003580000014420023084A1360084A1360084AE1
S2140035901360084A1380084A1370084A4FF6FF71F2
S2140035A01180074A1360704784260020802600207A
S2140035B07C260020885C01205E5D01209021002092
S2140035C078260020844690B189B1882900D98821C0
S2140035D0002305E01CF80300054AD05401339BB2D3
S2140035E09942F7D8034B1980034B01221A70704793
S2140035F014A80020925C0120625D012008B548F204
S21400360083111A4802F050F8034608B948F28313AB
S21400361017490B80154B5B7903EB831203EB820390
S2140036209BB208339BB2134A1380128892B20B885F
S2140036309BB29A4203D90B889BB20E4A1380002392
S2140036400D4A13800D4A13700D4A13800D4A1370ED
S2140036500D4B1B783BB1074B1988012289B20348F2
S214003660FFF7E6FC08BDFFF791FCFBE78826002085
S214003670905C01208E5C01208C5C0120615D012045
S2140036808A5C0120605D01205D5D012008B5002395
S2140036900A4A13800A4A13800A4A13800A4A137099
S2140036A00A4A13800A4A13700A4B1B7813B1FFF7B5
S2140036B06DFD08BDFFF76AFCFBE700BF8E5C0120CE
S2140036C0905C01208C5C0120615D01208A5C0120F9
S2140036D0605D01205D5D012010B594B00BF0EAFE40
S2140036E0032004F0D9F9002843D104F0BFFB0446B8
S2140036F0002848D103F05CFD0124904B1C600BA809
S2140037001DF0EAF90BA920461FF04FFC10F1880FB8
S21400371049D00BA81FF0D7FC032004F0BDF9002801
S21400372040F0B380854B18681FF078F91FF0D5F984
S2140037300446032004F0B0F9002840F0B080932C33
S21400374000F0B880002C40F0B880032004F0A4F904
S214003750002800F0B8801DF03AFB1DF039FB784BCE
S2140037601C681FF087F90246764920461EF073FC57
S214003770A9E01DF02CFB1DF02BFB7349704B18685D
S2140037801EF069FCB1E7012004F086F90028B1D0EC
S2140037901DF01DFB1DF01CFB22466C49684B18688B
S2140037A01EF059FCA6E7032004F076F9002851D154
S2140037B00BA81FF088FC68461DF08EF90DF12C0C46
S2140037C0EE46BEE80F00ACE80F00BEE80F00ACE81F
S2140037D00F00DEF80030CCF80030584B1A680C9B0F
S2140037E00D9213F0FF0F04D123F0FF0343F0010303
S2140037F00C93574B0F934FF440730A930AA81DF08F
S2140038007CF90A9B0E934FF410510BA81DF084F917
S2140038108023ADF82E3001230C93484B10224D49DF
S2140038200BA81FF0E5FB04460BA81FF04CFCDCB908
S214003830032004F031F900283FF474AF1DF0C7FAF6
S2140038401DF0C6FA3D4B1A6843493D4B18681EF0FA
S21400385002FC67E71DF0BBFA1DF0BAFA3F49384B89
S21400386018681EF0F8FBA3E7012004F015F90028FD
S2140038703FF458AF1DF0ABFA1DF0AAFA22463849BD
S2140038802F4B18681EF0E7FB4CE71DF0A0FA1DF062
S2140038909FFA34492A4B18681EF0DDFB42E71DF0FC
S2140038A096FA1DF095FA22462F49254B18681EF009
S2140038B0D2FB44E7FFF77CFC05E0012004F0ECF8BF
S2140038C0E0B9FFF775FC0023284A1370284A1360F6
S2140038D0284A1360284B4FF6FF721A80FFF7ACFC9D
S2140038E0FFF7F0FCFFF74EFD032004F0D5F880B993
S2140038F0032004F0D1F8B0B914B010BD1DF067FA7B
S2140039001DF066FA22461D490D4B18681EF0A3FBF3
S214003910D7E71DF05CFA1DF05BFA1949084B1868EA
S2140039201EF099FBE4E71DF052FA1DF051FA154916
S214003930034B18681EF08FFBDEE700BF5024002004
S214003940F8380120EC6C0200D46B02000C6C02000C
S21400395000444004002000206C6C0200446C02000E
S214003960906C0200B06C0200D06C0200635D012017
S21400397010A800200CA8002092210020146D020040
S214003980486D0200606D020010B51F4B1C6C14F0F1
S214003990100F0DD01D4A1368013313601A4B102206
S2140039A09A6405E01A4B198015E01A4B1B7803B38E
S2140039B0154B1B6913F0800F22D0134BD969C9B27F
S2140039C0154A136801331360114B1B889BB24FF6E0
S2140039D0FF729342E6D0114B1B889BB2872BE4D82C
S2140039E00E4803889BB25A1C92B202800C4AD154ED
S2140039F0DBE70C490C48FFF7A5FA034B5863D7E7FB
S214003A00014B9C6410BD00BF0000014078260020DA
S214003A10902100205D5D012084260020945C01201A
S214003A2014A80020605D01208A5C012010B582B0D9
S214003A30504B5C6B14F4C06F22D114F0040F0FD0FF
S214003A404C49CB6903F001034B4A13700423CB6344
S214003A504A4B002119801378DBB9464B04225A6082
S214003A6014F0400F05D0434B4022DA63424B1B78DC
S214003A70BBB914F0800F20D03E4B8022DA631CE0E6
S214003A8020225A60DC6300233C4A13803A4A1370B3
S214003A906EE03B4801803B49FFF754FA354BD8624D
S214003AA0DBE738493648FFF74DFA324BD862E0E795
S214003AB0304BDB692F4B04225A602E4BDB6813F425
S214003AC0807F10D02D4B1B889BB2872BF0D8294BBC
S214003AD0DA692A4803889BB2591C89B20180D2B29F
S214003AE02949CA54E6E714F4803F3BD0224B1B78A2
S214003AF0002B30D10193019B632B0ADC1D4BDB6846
S214003B0013F4807F05D1019B01330193F3E7194B32
S214003B10DB69184BDB6813F4807F10D0174B1B88CB
S214003B209BB2872BF3D8134BDA69144803889BB2F1
S214003B30591C89B20180D2B21349CA54E9E70F4B27
S214003B401B889BB23BB10D4B1B889BB20F4A138060
S214003B500F4B01221A70074B4FF48032DA63064B84
S214003B6000221A7024F4803424F0C404014BDC6371
S214003B7002B010BD00C000405F5D0120945C0120D3
S214003B808C5C0120615D012014A80020925C01205D
S214003B90625D0120BFF34F8F0549CA6802F4E062F8
S214003BA0044B1343CB60BFF34F8F00BFFDE700BF4E
S214003BB000ED00E00400FA05034B1878034B1B7871
S214003BC0C01A00F07F0070476A5D0120695D012021
S214003BD010B501460F4C237803EB831203EB8203E8
S214003BE040F205120C48184421F0AFFE237801334A
S214003BF003F07F0323702278D2B2084B1B78DBB227
S214003C009A4200D010BD054A1378013303F07F03B3
S214003C101370F7E76A5D012074AE0020695D01202D
S214003C20072940F2A2802DE9F84304794379827986
S214003C3090F807C0042C00F29080072B00F28D80CD
S214003C40002A00F08A80082A00F287800CF102051C
S214003C50B1EB850FC0F0818004EB841104EB810189
S214003C60424D0D447BB990F802E0404F07F801E062
S214003C706C70C678AE704678EE7000262E713C49A1
S214003C800E553C490A5504EB841E04EB8E0E37494C
S214003C907144CE7841788E425FD1344E16F80E606D
S214003CA081788E4259D1314971448E78C1788E42DE
S214003CB053D13049095D91424FD103EB83084FEA57
S214003CC0880800211BE08F1C00EB870610F8277081
S214003CD096F801E047EA0E2704EB841E04EB8E0EEE
S214003CE00EEB890EDFF88490CE44AEF80570B778F8
S214003CF0F67847EA0626AEF807600131C9B2614594
S214003D0004D208EB0109B9F13F0FDCD9C444BCF179
S214003D10400F01D94FF0400C04EB841004EB8000F8
S214003D20124901440979614507D204EB841004EB7B
S214003D3080000E49014481F804C00D4E305D01211B
S214003D4001FA03F3DBB21843305501FA02F3DBB293
S214003D50013BDAB20340934201D0BDE8F88328461F
S214003D60FFF736FF00223255F7E7704758A90020C4
S214003D7050A9002048A90020C388032B03D9104B64
S214003D801B78032B00D07047836899780D4A127809
S214003D909142F8D1DB780C4A1278534013F07F0F2B
S214003DA0F1D190F90510094A13680B44136090F995
S214003DB01020074B1A70074A138801331380E2E776
S214003DC07B5D01207A5D0120795D0120BC320120F7
S214003DD0755D01209A5C01200A4B1B786BB1094B7C
S214003DE01B78DBB2032B0AD0064B1B78DBB2022B08
S214003DF001D0012070470020704700207047002047
S214003E00704700BF635D0120002301E00133DBB291
S214003E10032B10D81946094A02EBC3021279002A6E
S214003E20F4D0064A12F833208242EFD1034B03EB5C
S214003E30C103588870474FF6FF707047F432012070
S214003E40014B01221A707047865D01200023184638
S214003E5001E00133DBB2032B10D8094A02EBC302A0
S214003E601279002AF5D0064A02EBC30251884FF6B3
S214003E70FF729142EDD00130C0B2EAE7704700BF52
S214003E80F432012000B583B0032003F005FE10B91C
S214003E9003B05DF804FB1CF09AFF1CF099FF084B7A
S214003EA01A78084B1B780193074B1B680093074B47
S214003EB01B680749074800681EF0CDF8E8E700BF12
S214003EC0635D0120CC21002010A800200CA8002053
S214003ED0D86D0200F838012030B583B00023019376
S214003EE004230DEB030202213348006813F014FA92
S214003EF008B9002423E0032003F0CEFD08B903B080
S214003F0030BD1CF064FF1CF063FF2C492C4B186876
S214003F101EF0A1F8F3E70133DBB2032B0BD8294AD6
S214003F2002EBC3021279002AF5D0264911F83310A5
S214003F30A942F0D100E00022AAB10134E4B2032C79
S214003F40DDD804F108036B4413F8045C6B1EDBB287
S214003F50032BF2D82846FFF757FF4FF6FF73984219
S214003F60EBD10023D9E70023032BE6D8154A02EB52
S214003F70C302127912B10133DBB2F5E7114A02F837
S214003F80335002EBC3034FF6FF725A8001221A71B8
S214003F9000225A719A71032003F07EFD0028CCD0CF
S214003FA01CF015FF1CF014FF2A460749044B18683E
S214003FB01EF051F8C1E700BF882000200C6E0200FA
S214003FC0F8380120F4320120446E020010B582B0A9
S214003FD00023019306E0002108326A4402F8041C1C
S214003FE00133DBB2032B0AD81A46134901EBC3018F
S214003FF009790029EFD0104911F83310ECE70423B3
S2140040000DEB030202210D48006813F03BF904464D
S21400401008B902B010BD012003F03EFD0028F8D01C
S2140040201CF0D5FE1CF0D4FE22460549054B186848
S2140040301EF011F8EDE700BFF432012088200020C2
S214004040846E0200F838012070B582B00446431E24
S214004050DBB2032B03D80D464FF0000C34E00120F2
S21400406003F01AFD002800F087801CF0B0FE1CF05C
S214004070AFFE22464649474B18681DF0ECFF7BE032
S2140040801CF0A5FE1CF0A4FE434B03EBC6030095F4
S2140040905B88224641493F4800681DF0DCFF2CE063
S2140040A0032003F0F9FC70B31CF091FE1CF090FEA8
S2140040B02B4622463A49374800681DF0CCFF22E0DE
S2140040C00CF1010C5FFA8CFCBCF1030F21D866469C
S2140040D0314B03EBCC0E9EF80430002BF0D02E4B69
S2140040E013F83C30A342EBD1BEF80230AB42D7D037
S2140040F0032003F0D1FC0028C2D1274B03EBC603F4
S2140041005D80FFF763FF244B03EBC60301225A7161
S21400411032E04FF0000C10E01CF059FE1CF058FE88
S21400412000962B4622461F491A4800681DF093FF4A
S2140041301BE00CF1010C5FFA8CFCBCF1030F17D8E6
S2140041406646154B03EBCC031B79002BF1D1124BC3
S21400415003F83C4003EBCC035D8001221A715A71D0
S214004160032003F099FC0028D6D1FFF72FFF03E0C9
S214004170012003F091FC08B902B070BD1CF027FEC8
S2140041801CF026FE0849034B18681DF064FFF3E791
S214004190AC6E0200F8380120F4320120D46E020022
S2140041A0FC6E0200286F0200586F020000B583B054
S2140041B0A0B1114B1B7813B103B05DF804FB0120CE
S2140041C01CF0E2FC0023019300930C4A0A210C48E1
S2140041D01EF050FA084B01221A70EDE7064B1B78CA
S2140041E0002BE9D0064809F06FFA01201CF0D9FC34
S2140041F0014B00221A70DFE76E5D01202D0B0200D6
S2140042007431012008B50C4B1B781BB90B4B1B787F
S2140042103BB908BD0A4809F057FA074B00221A7046
S214004220F4E7084B187800F07F0003F0F3F9034B2F
S21400423000221A70EDE700BF725D0120735D012059
S2140042409C310120795D012008B5114B1B7803B91C
S21400425008BDFFF7D7FF00210E4B18881EF0EAFBBB
S21400426000200B4B1870FFF7A1FF1EF0F7F90A4B62
S2140042701860032003F010FC0028E9D01CF0A7FD0E
S2140042801CF0A6FD0549064B18681DF0E4FEDFE7A6
S2140042907B5D01209C5C012098310120786F020034
S2140042A0F838012008B51EF0D9F909F071FB034B68
S2140042B0A3FB0030C0F38F1008BD00BFD34D6210C3
S2140042C070B5114C2478013404F00F040F4D2D788E
S2140042D0EDB2A54216D00C4E96F800C05FFA8CFCE4
S2140042E00B4D05F83C0005EBCC056970AA70EB7029
S2140042F09DF810302B719DF814306B71FFF7D2FFCC
S214004300E880347070BD00BF6D5D01206C5D0120DB
S214004310F43001200023032B70D830B585B029E097
S2140043201CF055FD1CF054FD364A02EBC4035B88B6
S21400433012F834203449354800681DF08CFE50E0F1
S214004340012003F0A9FB18B9314B00221A704FE088
S2140043501CF03DFD1CF03CFD2B462A4A12F834208A
S2140043602C492A4800681DF076FEEDE70133DBB2E3
S214004370032B3FD8284A14781C4404F00304214A2F
S21400438002EBC4021279002AF0D01E4A02EBC402E5
S21400439050884FF6FF729042E8D0631C03F0030388
S2140043A01D4A1370174B03EBC40100224A7113F821
S2140043B034301A490B70B0218DF80C108DF80D3082
S2140043C0174B1B78019303AB0093022319461EF08C
S2140043D071FB05460028B3D1032003F05DFB0028DF
S2140043E09ED10B4B01221A701EF038F90D4B186047
S2140043F005B030BD064B00221A70F9E7044B0022C8
S2140044001A707047F4320120AC6F0200F8380120B1
S2140044107E5D0120CC6F0200815D01207F5D012062
S214004420CD210020E832012030B585B00446F023C7
S2140044308DF80830184B1B788DF80930174B1B6821
S2140044408DF80A30C3F307228DF80B20C3F307421A
S2140044508DF80C201B0E8DF80D30114B1B78019338
S21400446002AB00930623002202211EF023FB08B9AC
S21400447005B030BD0546012003F00EFB0028F7D03E
S2140044801CF0A5FC1CF0A4FC2B4622460549064859
S21400449000681DF0E0FDEBE7CA21002010A8002010
S2140044A0CD210020F06F0200F838012000B583B05F
S2140044B0032003F0F1FAA0B90023144A1360144A4B
S2140044C01370144A1370144B1888FFF7ADFF1EF0D4
S2140044D0C5F8124B1860124B04221A7003B05DF830
S2140044E004FB1CF074FC1CF073FC0E4B1B68019361
S2140044F00D4B1B7800930D4B1B78074A12880C490E
S2140045000C4800681DF0A7FDD6E700BFF03201207A
S214004510875D0120835D0120922100203C3301202D
S214004520635D012010A80020CA210020CC210020B5
S2140045301C700200F838012000B585B0C0238DF845
S21400454008300E4B1B788DF809300D4B1B788DF814
S2140045500A300C4B1B788DF80B3004238DF80C308A
S2140045600022019202AB0093052302214FF6FF7052
S2140045701EF0A0FA05B05DF804FB00BF775D0120D1
S2140045807A5D0120795D012000B583B00023154ACD
S2140045901370154A1370154A1370FFF757FC38B19D
S2140045A0134B01221A70FFF7B5FE03B05DF804FB4B
S2140045B0032003F071FA48B90023019300930D4AD3
S2140045C041F288310C481CF00CFBEEE71CF0FFFBB8
S2140045D01CF0FEFB41F288320849094B18681DF0B2
S2140045E03AFDE9E7815D0120805D01207E5D0120C6
S2140045F07D5D012089450000C83201205070020010
S214004600F838012030B583B0284B1B78DBB9284B2F
S2140046101C780134E4B21C70FFF718FC054608B19C
S21400462084423FD3032003F037FA58BB0023214AC5
S214004630137001930093204A41F288311F481CF002
S214004640D0FA03B030BD1EF009F81D4B1B68C01A27
S21400465009F09EF940F2DB539842F2D9032003F0AA
S2140046601BFA18B9114B00221A70D0E71CF0AFFBEA
S2140046701CF0AEFB134B1A781349144B18681DF048
S214004680EAFCEFE71CF0A3FB1CF0A2FB41F2883328
S21400469000932B46064A12780D490C4800681DF018
S2140046A0DAFCC3E7FFF736FECBE700BF7E5D0120EE
S2140046B0805D01207D5D012089450000C832012013
S2140046C0E83201207F5D012080700200F83801206A
S2140046D09C700200F0B585B00D46032940F282803A
S2140046E04678837846EA0326C778041D3B1D8B422E
S2140046F000F288807B1E13F0800F40F09480994B68
S2140047001B78DBB2012B15D0974B1B68002B00F0F3
S2140047109A800023954A1360954A1380954BAA22E7
S2140047201A70904B01221A70032003F0B5F9002886
S21400473040F094804FF6FF739E4204D08C4B1B884B
S214004740B34240F09580884B1A682AB1874B1B68A5
S2140047503B449A42C0F09F803B4622468349096804
S214004760002003F017FC0546002840F0AC803B46CE
S214004770814A7E490968002003F0EEFB38B93A46C4
S21400478021467D4821F07EF9002840F0B280774A25
S21400479013683B44136076490A8801320A804FF654
S2140047A0FF72964200F0B980744BA3FB06231B09E8
S2140047B0322202FB13639BB2002B40F08B80032057
S2140047C003F06AF9002800F085801CF000FB1CF05E
S2140047D0FFFA664B1B68324669496A4800681DF056
S2140047E03AFC77E0012003F057F9002872D01CF05D
S2140047F0EEFA1CF0EDFA2A466349624B18681DF083
S2140048002AFC67E0012003F047F9002862D01CF07C
S214004810DEFA1CF0DDFA2B1F3A465C495948006860
S2140048201DF019FC56E0012003F036F9002851D09F
S2140048301CF0CDFA1CF0CCFA3A465549514B186894
S2140048401DF009FC46E002A9002003F067FB0028E3
S2140048507FF45FAF039A444B1A605AE71CF0B7FA2E
S2140048601CF0B6FA4B49474B18681DF0F4FB61E79D
S214004870022003F011F900283FF465AF1CF0A7FAF8
S2140048801CF0A6FA3A4B1B88324643493D4800685E
S2140048901DF0E1FB57E7012003F0FEF818B9314B95
S2140048A008221A7016E01CF092FA1CF091FA2E4BB1
S2140048B01B6800933B462D4A126838493148006809
S2140048C01DF0C9FBEBE7012003F0E6F820B9254B05
S2140048D008221A7005B0F0BD1CF079FA1CF078FAC0
S2140048E02B46224A12682E49264800681DF0B3FB64
S2140048F0EDE7012003F0D0F818B91A4B08221A7019
S214004900E8E71CF064FA1CF063FA184B1A682549AD
S2140049101C4B18681DF09FFBEFE7234A1360114BF2
S21400492002221A70032003F0B7F878B9032003F0C8
S214004930B3F80028CED01CF04AFA1CF049FA04223C
S2140049401A49104B18681DF086FBC3E71CF03FFAA7
S2140049501CF03EFA144B1A6815490A4B18681DF0ED
S2140049607AFBE3E7635D0120EC3201200CA800200F
S2140049709E5C0120CA2100209CA800201F85EB51C8
S21400498080720200F8380120D0700200EC7002003D
S2140049901C710200387102006471020090710200FE
S2140049A0B8710200DC71020010A800203872020004
S2140049B00472020030B583B0012924D944786946D0
S2140049C0204603F0ABFA00282DD114B9019A364BD5
S2140049D01A60032003F060F8002839D1204603F05F
S2140049E0F7FA054600283ED1032003F055F80028C4
S2140049F04ED1002C3ED100232C4A13602C4A138043
S214004A002C4A137036E00C46012003F045F888B3B4
S214004A101CF0DDF91CF0DCF922462749274B186804
S214004A201DF019FB26E0022003F036F828B9002C0A
S214004A30CFD11D4B00221A60CBE71CF0C8F91CF042
S214004A40C7F922461E491D4B18681DF004FBEEE709
S214004A501CF0BDF91CF0BCF922461A49174B186821
S214004A601DF0F9FABAE7012003F016F820B9114B49
S214004A7008221A7003B030BD1CF0A9F91CF0A8F982
S214004A802B46224610490D4800681DF0E4FAEEE772
S214004A901CF09DF91CF09CF922460C49074B18683F
S214004AA01DF0D9FAA5E700BFEC3201200CA80020C3
S214004AB09E5C0120635D01209C720200F838012094
S214004AC0BC720200F872020018730200387302000B
S214004AD038B5012922D94478644B1B78DBB2022B07
S214004AE02BD1002C3AD0631EDBB2032B00F28F8052
S214004AF02046FFF789F905464FF6FF73984200F007
S214004B0097805B4B1C705B4B1880032002F0C4FF41
S214004B10002840F09E80FFF7C9FC38BD012002F057
S214004B20BBFF0028F9D01CF052F91CF051F952498D
S214004B30524B18681DF08FFAEFE7012002F0ACFF29
S214004B400028EAD01CF043F91CF042F9474B1A78CB
S214004B504B494A4B18681DF07EFADEE7032002F048
S214004B609BFF80B90021084603F0AAFAA8B90020E6
S214004B7003F04CFA68B3012002F08EFFF8B93B4B05
S214004B8002221A70C9E71CF022F91CF021F93D49EF
S214004B903A4B18681DF05FFAE4E7012002F07CFF4C
S214004BA018B9324B02221A70B7E71CF010F91CF045
S214004BB00FF93549314B18681DF04DFAF1E71CF036
S214004BC006F91CF005F931492C4B18681DF043FA1C
S214004BD0D5E702F0C3FB032002F05EFF50B90023C6
S214004BE02B4A934210D82B4A126912F0200F0BD191
S214004BF00133F5E71CF0EBF81CF0EAF826491F4BEA
S214004C0018681DF028FAEAE703F05AF985E701204C
S214004C1002F042FF002880D01CF0D9F81CF0D8F82B
S214004C20042322461D49154800681DF014FA74E74F
S214004C30012002F031FF00283FF46FAF1CF0C7F8E8
S214004C401CF0C6F8224616490C4B18681DF003FAED
S214004C5063E71CF0BCF81CF0BBF82B462246114953
S214004C60064800681DF0F7F955E700BF635D0120B0
S214004C70CC210020922100204C730200F83801203D
S214004C8078730200B0730200D87302001874020032
S214004C909F86010000080140407402007074020004
S214004CA0A0740200D4740200154B1B7803B1704741
S214004CB010B582B0044602F08BFC80B1104B012286
S214004CC01A700023019300930E4A4FF4C8710E48E1
S214004CD01BF087FF38B90D4B01221A7003E0012044
S214004CE002F0DAFE08B902B010BD1CF070F81CF035
S214004CF06FF822460649074B18681DF0ACF9F2E734
S214004D00735D0120194D00009C310120725D012069
S214004D101C750200F838012008B502F071FC024B41
S214004D2001221A7008BD00BF715D012010B59A4BB4
S214004D301B78043B042B00F22381DFE813F0050008
S214004D409200B300EF001501944B1B78002B40D067
S214004D50032002F0A1FEA8B9914B1A78914B19686E
S214004D60914B188809F03CFE0446F8B9032002F07F
S214004D7093FE88B91DF072FC8C4B1860864B05229A
S214004D801A70FDE01CF023F81CF022F88849894BC5
S214004D9018681DF060F9DFE71CF019F81CF018F829
S214004DA08549844B18681DF056F9E3E7012002F0A8
S214004DB073FE18B9784B08221A70E1E01CF007F869
S214004DC01CF006F822467D497A4B18681DF043F918
S214004DD0F0E71DF043FC754B1B68C01A08F0D8FDC1
S214004DE042F21073984240F2CB80754A1378013332
S214004DF0DBB21370032B1AD9012002F04DFE50B916
S214004E00704BFF221A70684B4FF6FF721A80624B87
S214004E1002221A70B4E01BF0DAFF1BF0D9FF684BD1
S214004E201A786949634B18681DF015F9E8E7012000
S214004E3002F032FE40B95C4B1888FFF7F5FA1DF019
S214004E400DFC5A4B18609BE01BF0C1FF1BF0C0FF27
S214004E5003235B4A12785D49564800681DF0FBF84C
S214004E60E9E71DF0FBFB514B1B68C01A08F090FDEC
S214004E700446574B984240F28380012002F00CFE15
S214004E8028B909F01FFE444B08221A7078E01BF080
S214004E909EFF1BF09DFF22464E49464B18681DF0AC
S214004EA0DAF8EEE74C4B1B78002B69D04A4B002211
S214004EB01A70032002F0F0FD88B93B4B1A88384B75
S214004EC019784FF4FA6009F0C7FD044698B91DF04A
S214004ED0C5FB364B1860304B07221A7050E01BF0AB
S214004EE076FF1BF075FF4FF4FA623C49314B1868A9
S214004EF01DF0B1F8E1E7012002F0CEFD18B9264B0F
S214004F0008221A703CE01BF062FF1BF061FF22468D
S214004F103349284B18681DF09EF8F0E71DF09EFBFD
S214004F20224B1B68C01A08F033FD044647F2305384
S214004F30984225D9012002F0AFFD50B9214BFF223F
S214004F401A70194B4FF6FF721A80134B02221A7012
S214004F5016E01BF03CFF1BF03BFF22462149154B99
S214004F6018681DF078F8E9E7012002F095FD40B9D1
S214004F70144BFF221A7000231B4A1380064A137034
S214004F8010BD1BF024FF1BF023FF1849094B1868BF
S214004F901DF061F8ECE700BF635D0120875D01202E
S214004FA0CA21002010A80020922100203C330120B6
S214004FB044750200F83801207475020094750200EA
S214004FC0835D0120CC210020B4750200F475020038
S214004FD0E093040020760200865D01204C760200F5
S214004FE0787602009C7602009E5C0120D476020051
S214004FF0014B1878704700BF7C5D0120054B1B787D
S2140050002BB1054B1868A0F50010C00870470020AB
S214005010704700BF7C5D01201420002070B590B062
S2140050203D4B00221A7003A802F060FF079A9AB15F
S214005030D3680BB94FF4805338490B601469B4F544
S214005040800F18D313B113F0070F30D0012002F0F1
S21400505023FD00BB10B070BD012002F01DFD00282E
S214005060F8D01BF0B4FE1BF0B3FE2D492D4B18688C
S2140050701CF0F1FFEEE7012002F00EFD0028E9D05B
S2140050801BF0A5FE1BF0A4FE22462749254B1868F8
S2140050901CF0E1FFDEE71BF09AFE1BF099FE1F4BAB
S2140050A01A6822491F4B18681CF0D5FFD2E74FF448
S2140050B000130293042302AA10211D48006812F070
S2140050C02BF948B9029BB3F5001F05D3B3F5800F43
S2140050D002D813F0070F02D04FF400130293154BBB
S2140050E0029A1A600C4B01221A70032002F0D4FCBC
S2140050F00028AFD01BF06BFE1BF06AFE094B1D6844
S214005100064B1E68FFF77AFF0090234632460A4990
S21400511028461CF0A0FF9DE77C5D012010200020A3
S214005120F0760200F8380120207702005C77020053
S21400513088200020142000209C77020038B5294BD8
S2140051401C7824B30546002847D0274B186800F182
S2140051500803B3F5800F42D8244B1968B0FBF1F36F
S21400516001FB130313B903F011F890B9082229467E
S2140051701D4B186802F0ECFFE8B91B4A13680833A9
S2140051801360042310211A48006812F07BF82046AA
S21400519038BD012002F080FC08B90024F7E71BF0B8
S2140051A016FE1BF015FE104B1A681249124B1868B3
S2140051B01CF051FFF1E7012002F06EFC08B9002454
S2140051C0E5E71BF004FE1BF003FE074B1A680B49CD
S2140051D0094B18681CF03FFFF1E70024D7E70024CE
S2140051E0D5E700BF7C5D01201420002010200020A1
S2140051F088200020CC770200F8380120E8770200EB
S21400520038B502230CE00C4D28780C4B03EBC0009D
S214005210FFF794FF2B78013303F00F032B70234620
S2140052205C1EE4B23BB1044B1A78D2B2044B1B7836
S214005230DBB29A42E7D138BD6C5D0120F430012024
S2140052406D5D012008B5054A4FF400131360042372
S21400525010210348006812F015F808BD142000203D
S21400526088200020024B1B78DBB2024A137070477E
S2140052706A5D0120695D01201D4B1B785A1C042ABB
S2140052800ED8D3B21A4A13701A4AD25C1A4B1A7046
S2140052901A4B1B78042B0DD8194B01221A70704735
S2140052A00023134A1370144A1370144A13780133F8
S2140052B01370EDE710B50020114B1870FEF776FF5F
S2140052C01DF0CCF90F4B1860032002F0E5FB00B987
S2140052D010BD1BF07CFD1BF07BFD0B4B1C681BF010
S2140052E09CFC0246094920461CF0B5FEF0E700BFCC
S2140052F0785D012048860200795D01207A5D0120F4
S2140053007B5D012098310120F838012004780200E6
S21400531030B5C5B0FFF774FF1DF0A0F904465B4B2F
S2140053201B78013B032B1BD8DFE803F0021C36A4D6
S214005330FFF702F91DF086FB554B18800023554AEF
S2140053401360554A1380554A1370554A1370554AD0
S2140053501380554A1370554B1C604C4B02221A7032
S21400536045B030BD514B1868201A08F011FB1D28B7
S214005370F6D94F4B1878002100F07F001DF05AFB3D
S21400538038B94A4B1C604B4B1C60404B03221A70CA
S214005390E6E7FFF771FFE3E7444B1868201A08F0CA
S2140053A0F7FA0546444B1B784BB9444B1B781BB9A0
S2140053B0132801D9E5283ED90BB1E52D42D83E4B3E
S2140053C01B7843B1384B1B782BB94F2DC8D902F048
S2140053D0D7F8002839D1F92DC2D9FEF713FF0021DE
S2140053E02B4B18881DF026FB334B1B78EBB12D4A50
S2140053F01288D2B18DF8083000238DF809302C4B76
S2140054001B788DF80A302E4B1B788DF80B30402A0F
S2140054102ED8D2B28DF80C2092002A490DF10D003C
S21400542020F093FA02A8FEF7D3FB204B1C60174B24
S21400543004221A7094E71E4B187800F07F00FFF7DE
S21400544033FCBCE7FEF7DEFEB9E7194B187800F030
S2140054507F0078230193082300934023194A0146CE
S21400546002F0E6F80F4B18800F4B01221A70B2E7D5
S2140054704022CFE70D4B1868201A08F089FAB0F5DD
S214005480FA7FFFF46DAFFFF7F7FE69E77B5D01205B
S2140054909C5C0120BC3201209A5C0120755D0120D5
S2140054A0765D0120985C0120745D0120C4320120E5
S2140054B0795D0120C03201207A5D0120735D0120F4
S2140054C0775D0120BC310120024B1878003818BFE8
S2140054D0012070477B5D012008B5254B1B7803B182
S2140054E008BDFEF779FC28BB02F04AF8002830D049
S2140054F00023204A1370204A1370204A1370204A53
S2140055001378013313700120FEF750FE184B01226A
S2140055101A70032002F0C0FA0028E1D01BF057FCF6
S2140055201BF056FC052304221649174800681CF099
S21400553092FDD5E7032002F0AFFA0028D0D01BF08A
S21400554046FC1BF045FC11490F4B18681CF083FD08
S214005550C6E7012002F0A0FA0028C1D01BF037FCF5
S2140055601BF036FC0A49084B18681CF074FDB7E7B8
S2140055707B5D01207A5D0120785D0120795D012048
S214005580775D012098780200F83801202C78020018
S2140055905478020038B504461DF03CFA10B90025D0
S2140055A0284638BDFEF718FC0028F8D101F0E8FFC1
S2140055B00028F4D0FFF790FFFFF786FF0546002887
S2140055C0EED04EF6602008F079F92044044B1860BF
S2140055D0044B01221A70044B00221A70E0E700BF49
S2140055E0943101206F5D0120665D012008B50F4BE8
S2140055F01B7813B1FFF768FF00B108BD1DF00AFA6B
S2140056000028FAD01DF02AF8094B1B7843B9094B3D
S2140056101B68C01A08F0BCF947F22F539842ECD921
S214005620034B00221A70FFF757FFE6E7705D012074
S214005630CB21002098310120034B187010B1034B8A
S21400564001221A70704700BF705D0120CB21002038
S214005650014B1878704700BF705D0120014B187031
S214005660704700BF655D0120014B1878704700BF8A
S214005670655D0120034B1B780BB1012070470020AD
S214005680704700BF685D0120014B1888704700BF57
S214005690965C0120034B1B780BB10120704700205D
S2140056A0704700BF675D0120002879D02DE9F041E2
S2140056B0044648F28213994202D80020BDE8F081E1
S2140056C048F28312002120F007FAA5232370FFF783
S2140056D0D1FF6070FFF7D8FFA0706423E370FFF778
S2140056E0D9FF20710825002626E008EB8300053048
S2140056F004EB000C0EEB8E110EEB810101EB830127
S214005700284A0A44B2F905102154B2F80510090ACD
S2140057108CF80110B2F907108CF80210B2F80720C6
S214005720120A8CF803200133DBB2BB42DDD305F24C
S2140057300515ADB20136F6B2FEF73EFA20B37E2E60
S21400574022D819490B785FFA83FE0A78013202F0F4
S2140057507F020A70134903EB831203EB8203CA1815
S2140057601779402F28BF4027A846CB5C63556B1C93
S2140057705178E154AB1C9178E154EB1CD278E2549A
S2140057802B1DE7540023D0E76671084A13780133CF
S214005790DBB21370A3710023E37148F283108DE728
S2140057A00020704774AE0020695D01206B5D01200B
S2140057B008B5034B00221A70FDF768FF08BD00BF4E
S2140057C0675D012010B5FFF765FF30B1032002F0DA
S2140057D063F988B9FFF7ECFF10BD032002F05CF90F
S2140057E00028F9D01BF0F3FA1BF0F2FA09490A4B2D
S2140057F018681CF030FCEFE71BF0E9FA1BF0E8FA3B
S214005800054B1C68FFF740FF0246044920461CF083
S21400581022FCDFE7C8780200F8380120F47802009E
S214005820834B1B7823B9834B1B78002B00F0FE803C
S21400583070B582B01CF012FF0446FFF745FE002844
S2140058402CD17B4B1B78002B49D17A4B1B781BB392
S214005850794B1B781BB1794B1B78002B65D1764BA7
S2140058601B78002B75D1764B1B88632B00F291803A
S2140058702046FFF78FFE002840F09F80714B1B7874
S214005880002B00F09D80704B1868201A08F080F8F6
S2140058906E4B984200F2B48002B070BD644B1B7829
S2140058A0002BF9D06A4B1B68E31A002BF4DBFEF7DB
S2140058B0CBFC5F4B00221A70012002F0EDF80028A6
S2140058C0EAD01BF084FA1BF083FA624B1C681BF0CC
