:1000000000000420C90400000B05000009050000E1
:100010000B0500000B0500000B0500000B050000A0
:100020000B0500000B0500000B0500000B05000090
:100030000B0500000A0500000B0500000B05000081
:100040000B0500000B0500000B0500000B05000070
:100050000B0500000B0500000B0500000B05000060
:100060000B0500000B0500000B0500000B05000050
:100070000B0500000B0500000B0500000B05000040
:100080000B0500000B050000913200000B0500007D
:100090000B0500000B0500000B0500000B05000020
:1000A0000B0500000B0500000B0500000B05000010
:1000B0000B0500000B0500000B0500000B05000000
:1000C0000B0500000B0500000B0500000B050000F0
:1000D0000B0500000B0500000B0500000B050000E0
:1000E000A13200000B0500000B0500000B0500000D
:1000F0000B0500000B0500000B0500000B050000C0
:100100000B0500000B0500000B05000000000000BF
:1001100000000000000000000000000000000000DF
:1001200000000000000000000000000000000000CF
:1001300000000000000000000000000000000000BF
:1001400000000000000000000000000000000000AF
:1003C0000348044B834202D0034B03B118477047E4
:1003D0001C0000201C000020000000000548064B07
:1003E0001B1AD90F01EBA301491002D0034B03B133
:1003F000184770471C0000201C000020000000006F
:1004000010B5064C237843B9FFF7DAFF044B13B15C
:100410000448AFF300800123237010BD1C000020AE
:1004200000000000C843000008B5054B1BB105499A
:100430000548AFF30080BDE80840FFF7CFBF00BF1D
:100440000000000020000020C8430000A3F5803A0F
:10045000704700BF174B002B08BF134B9D46FFF79B
:10046000F5FF00218B460F461348144A121A03F079
:1004700061FF0E4B002B00D098470D4B002B00D096
:1004800098470020002104000D000D48002802D0EC
:100490000C48AFF3008003F01BFF2000290002F09E
:1004A00027FF03F003FF00BF00000800000000006A
:1004B00000000000000004201C0000206400002058
:1004C000000000000000000000F0A2F80F4C104DEA
:1004D000AC420ADA21686268A3689B00043BA2BFB1
:1004E000C858D050FAE70C34F2E70A4B0A4CA34242
:1004F00008DA19685A680020043AA4BF8850FBE75C
:100500000833F4E7FFF7A6FFFEE7FEE764440000C8
:1005100070440000704400007044000080B582B058
:1005200000AF00F025F878600A4BD3F808311B0AB9
:10053000C3F308033B603B6801337A68B2FBF3F313
:100540007B60054A7B6813607B6818460837BD46A8
:1005500080BD00BF00400E400800002080B400AF06
:10056000024B1846BD465DF8047B704700F0490217
:1005700080B483B000AF1C4BD3F8943003F0070372
:10058000023B032B1BD801A252F823F0AD0500005B
:10059000A50500009D050000B5050000134B1B6874
:1005A0007B6010E04FF400437B600CE0104B1B6855
:1005B0007B6008E00F4B1B685B087B6003E00D4B22
:1005C0001B687B6000BF084BD3F800311B0A03F0A7
:1005D0001F0301337A68B2FBF3F318460C37BD46AC
:1005E0005DF8047B704700BF00400E40040000200F
:1005F000000000200C00002080B400AF034B1B68FB
:100600001846BD465DF8047B704700BF000000201F
:1006100080B400AF074B084A9A60064BD3F8883085
:10062000044A43F47003C2F8883000BFBD465DF849
:10063000047B704700ED00E00000000080B400AFD4
:100640004FF400431846BD465DF8047B704780B404
:1006500000AF4FF47A731846BD465DF8047B7047CF
:1006600080B400AF034B1B681846BD465DF8047BA1
:10067000704700BF0400002080B483B000AF7860F2
:1006800001227B6802FA03F318460C37BD465DF879
:10069000047B704780B487B000AFF860B9607A60BF
:1006A000FB6803F1424303F58013DA00BB6813448F
:1006B0009B007B617B697A681A6000BF1C37BD466E
:1006C0005DF8047B704780B485B000AF7860396016
:1006D0007B6803F1424303F58013DA003B6813445F
:1006E0009B00FB60FB681B6818461437BD465DF82D
:1006F000047B704780B400AF064B1B6803F04003D7
:10070000002B01D1012300E000231846BD465DF80F
:10071000047B70473C300E4080B500AFFFF7EAFF26
:10072000034683F00103DBB2002B08D100BF122186
:100730000448FFF7C8FF0346002BF8D100E000BFD4
:1007400080BD00BF04300E4080B500AFFFF7E4FF6E
:10075000034B5B681B0C03F00303DBB2184680BD40
:1007600000300E4080B400AF064B1B6C9BB2002BD8
:1007700014BF01230023DBB21846BD465DF8047B9D
:10078000704700BF00000E4080B400AF034B002252
:100790001A6400BFBD465DF8047B704700000E4040
:1007A00080B400AF044B41F671321A6400BFBD46FD
:1007B0005DF8047B704700BF00000E4080B400AFBE
:1007C000034B5B681846BD465DF8047B704700BF6D
:1007D00000000E4080B483B000AF7860044A7B68AC
:1007E000536000BF0C37BD465DF8047B704700BF07
:1007F00000000E4080B584B000AF78600123FB603C
:100800007B68124A934204D80023FB600023BB603C
:1008100008E07B680E4A934202D80123BB6001E0E6
:100820000223BB60FA6810210A48FFF733FF094B27
:10083000D3F8003123F08072BB681B0605491343CF
:10084000C1F8003100BF1037BD4680BD0048E80147
:100850000090D00300400E4080B483B000AF054B41
:100860001B687B607B6818460C37BD465DF8047BCF
:10087000704700BF1000002080B582B000AFFFF7C6
:1008800077FE7860064BD3F800311B0A03F01F0394
:1008900001337A6802FB03F318460837BD4680BD72
:1008A00000400E4080B582B000AF0D4800F044FC1F
:1008B0000346FB70FB78072B05D0092B07D1FFF708
:1008C00057FE786006E0FFF7C7FF786002E000237C
:1008D0007B6000BF7B6818460837BD4680BD00BFFF
:1008E00006000E0080B584B000AF78607B68002BF6
:1008F0001CD11B4800F020FC0346FB7200BFFB7AB2
:10090000013B072B23D801A252F823F03109000044
:100910004F0900004F0900003F0900004F09000087
:100920004F0900003709000047090000002312E0CA
:100930000023FB600EE0FFF78FFFF8600AE0FFF78F
:100940005BFEF86006E0FFF797FFF86002E0002327
:10095000FB6000BFFB6818461037BD4680BD00BF76
:10096000B800320080B584B000AF78603960FFF71E
:1009700025FF034603F04073FB600023BB6012E0D9
:100980001A4ABB68DB0013441A793B68DBB29A420F
:1009900006D1164ABB6852F833307A689A4206D9B3
:1009A000BB680133BB60BB68042BE9D900E000BF22
:1009B000BB68052B02D10323FB6005E00B4ABB6833
:1009C000DB0013445B79FB60FB681B06FB60FFF7F1
:1009D000F5FE034623F04073FA681343FB60F868A2
:1009E000FFF7F8FE00BF1037BD4680BD5C43000036
:1009F00080B582B000AFFFF7B5FE0346FB71FFF78D
:100A0000CFFEFFF7ABFD034600211846FFF7AAFF14
:100A1000FB79002B01D0FFF7B7FE00BF0837BD46BA
:100A200080BD80B584B000AF78603960FFF79AFE72
:100A30000346FB73FFF7B4FE39687868FFF792FF4F
:100A4000FB7B002B01D0FFF79FFE00BF1037BD4698
:100A500080BD80B487B000AF78600F237B617B6876
:100A600003333B617B69FB60FA683B69934228BFB3
:100A70001346BB60BB681B07BB60BB6818461C37CE
:100A8000BD465DF8047B704780B400AF044B5B6AE1
:100A90001B0903F003031846BD465DF8047B70474D
:100AA00000400E4080B483B000AF7860074B5B6AB3
:100AB00023F030027B681B01044913434B6200BFE3
:100AC0000C37BD465DF8047B704700BF00400E4008
:100AD00090B585B000AF78600023BB607B683C4A6E
:100AE00093420BD07B683A4A934209D87B68394AD3
:100AF000934203D07B68384A934201E000BF00E094
:100B000000BF786800F018FB0346FB607B68304A42
:100B100093421AD07B682E4A93421DD87B682D4A97
:100B2000934204D07B682C4A934207D014E02B4BAD
:100B3000D3F8803003F00703FB600EE0274BD3F8B7
:100B4000843003F00703FB6007E0244BD3F88830C0
:100B500003F00703FB6000E000BFFB68042B2ED806
:100B600001A252F823F000BFB90B00007D0B00007A
:100B7000850B0000950B00008D0B0000FFF75EFD5C
:100B8000B8601FE0FFF76CFDB8601BE0FFF75FFD8A
:100B9000B86017E0FFF7ECFC0446104BD3F80031C7
:100BA0001B0E03F0010301331846FFF765FD0346F2
:100BB000B4FBF3F3BB6005E00023BB6002E000235D
:100BC000BB6000BFBB6818461437BD4690BD00BF70
:100BD0000500240002001E000300200000400E401B
:100BE00080B483B000AF78600A4BD3F8443103F08F
:100BF0000103002B08D100BF064BD3F840217B68CE
:100C00001340002BF8D100E000BF0C37BD465DF863
:100C1000047B704700400E4080B400AF00BFBD466B
:100C20005DF8047B704780B400AF00BFBD465DF83F
:100C3000047B704780B582B000AF7860786800F0C0
:100C4000AFF90346013318460837BD4680BD0000A2
:100C500080B586B000AF78600B46FB7000233B6127
:100C60007B681B0A03F00F03013B092B44D801A248
:100C700052F823F09D0C0000A90C0000F90C0000B4
:100C8000F90C0000A30C0000AF0C0000B90C000030
:100C9000F90C0000C30C0000CF0C0000184B7B6166
:100CA00018E0184B7B6115E0174B7B6112E0174B86
:100CB0007B6101233B610DE0154B7B6110233B61A0
:100CC00008E0144B7B614FF480333B6102E0124B30
:100CD0007B6100BF7B681B0B03F01F03FB603B695C
:100CE000002B02D03869FFF77BFFFB781A46F968C2
:100CF0007869FFF7CFFC00E000BF1837BD4680BD24
:100D000000400E40B0400E40C0400E40E0400E405B
:100D1000E8400E40F0400E4050410E4090B585B086
:100D200000AF78607B6803F47813B3F5781F00F0A8
:100D30001B81B3F5781F00F22281B3F5481F00F044
:100D40000E81B3F5481F00F21A81B3F5401F00F081
:100D5000E580B3F5401F00F21281B3F5381F00F0B3
:100D6000B680B3F5381F00F20A81B3F5101F00F00A
:100D7000E980B3F5101F00F20281B3F5001F00F007
:100D8000B580B3F5001F00F2FA80B3F5F01F79D0FB
:100D9000B3F5F01F00F2F380B3F5D01F00F0AB8085
:100DA000B3F5D01F00F2EB80B3F5B01F7DD0B3F5E3
:100DB000B01F00F2E480B3F5A01F68D0B3F5A01F08
:100DC00000F2DD80B3F5801F00F0C580B3F5801F11
:100DD00000F2D580B3F5602F00F0B980B3F5602F35
:100DE00000F2CD80B3F5402F3DD0B3F5402F00F297
:100DF000C680B3F5202F23D0B3F5202F00F2BF809B
:100E0000B3F5802F0DD0B3F5802F00F2B880002B02
:100E100003D0B3F5003F17D0B1E0FFF7A9FBF860AE
:100E2000B0E0FFF7A5FBF860594BD3F80C311B0A73
:100E3000C3F308030133FA68B2FBF3F3FB60A1E0EC
:100E4000FFF796FBF8609DE0FFF792FBF860504BD0
:100E5000D3F808311B0AC3F308030133FA68B2FB65
:100E6000F3F3FB608EE0FFF783FBF860484BD3F8A9
:100E700014311B0A03F01F030133FA68B2FBF3F3CA
:100E8000FB607FE04348FFF723FEF8607AE04248CA
:100E9000FFF71EFEF8603E4BD3F8303103F003033A
:100EA000FA6822FA03F3FB606CE03A48FFF710FEA1
:100EB000F860374BD3F8203103F00F031846FFF7E3
:100EC000DBFB0246FB68B3FBF2F3FB605AE0314800
:100ED000FFF7FEFDF8602E4BD3F820311B0903F01D
:100EE0000303FA6822FA03F3FB604BE02B48FFF799
:100EF000EFFDF86046E02948FFF7EAFDF860244B73
:100F0000D3F828311B0903F003031846FFF7B4FB9D
:100F10000246FB68B3FBF2F3FB6033E01F48FFF7C8
:100F2000D7FDF8601A4BD3F828311B0A03F00303EE
:100F300004331846FFF7A0FB0246FB68B3FBF2F34D
:100F4000FB601FE01448FFF7C3FDF8601AE0FFF7ED
:100F5000A9FCF86016E0FFF77FFCF86012E00020C3
:100F6000FFF7C0FCF8600DE0FFF702FB044678686D
:100F7000FFF760FE0346B4FBF3F3FB6002E00023DF
:100F8000FB6000BFFB6818461437BD4690BD00BF2C
:100F900000400E4002001E00050024000300200057
:100FA00080B584B000AF78607B681B0903F00F0345
:100FB000BB60BB68013B092B00F2AA8001A252F87A
:100FC00023F000BFED0F0000FD0F00000D1000002A
:100FD0002D10000011110000111100003D10000043
:100FE0004D1000009D100000F31000004C4BD3F892
:100FF00000311B0A03F01F03FB608CE0484BD3F861
:1010000014311B0A03F01F03FB6084E0444BD3F848
:1010100000311B0E03F00103FB60FB68013318462F
:10102000FFF72AFB0346013BFB6074E03C4BD3F81F
:101030000C311B0AC3F30803FB606CE0384BD3F898
:1010400008311B0AC3F30803FB6064E07B68354A80
:10105000934204D07B68344A93420DD01AE0304B5F
:10106000D3F8203103F00F03FB60F868FFF704FBAF
:101070000346013BFB6010E0294BD3F820311B09EC
:1010800003F00303FB60F868FFF7F6FA0346013B41
:10109000FB6002E00023FB6000BF3CE07B68234A6A
:1010A000934204D07B68224A93420ED01DE01C4B31
:1010B000D3F828311B0903F00303FB60F868FFF73E
:1010C000DBFA0346013BFB6012E0154BD3F82831F5
:1010D0001B0A03F00303FB60FB6804331846FFF7A9
:1010E000CBFA0346013BFB6002E00023FB6000BF3C
:1010F00011E07B680F4A934206D1094BD3F8303197
:1011000003F00303FB6002E00023FB6000BF02E08A
:101110000023FB6000BFFB6818461037BD4680BD4A
:1011200000400E408006160080162E0090171A0010
:1011300090273000A009140080B485B000AF78601B
:101140000123FB737B6803F00F03BB60BB68013BAB
:10115000072B00F2CC8001A252F823F07D11000091
:10116000D311000009120000EF120000511200001C
:1011700087120000EF120000AB120000614BD3F8A1
:10118000943003F00703023B052B1ED801A252F84E
:1011900023F000BFB9110000B3110000AD11000031
:1011A000BF110000CB110000C51100000223FB732A
:1011B0000EE00323FB730BE00423FB7308E00B2317
:1011C000FB7305E00C23FB7302E00523FB7300BFF8
:1011D00090E04C4BD3F8803003F00703042B0CD085
:1011E000042B0DD8012B02D0022B03D008E00323DF
:1011F000FB7308E00223FB7305E00A23FB7302E0A4
:101200000123FB7300BF75E03E4BD3F8843003F03D
:101210000703013B032B17D801A252F823F000BFAC
:101220003112000037120000431200003D1200008E
:101230000323FB730BE00223FB7308E00A23FB7319
:1012400005E00623FB7302E00123FB7300BF51E0BE
:101250002C4BD3F8883003F00703042B0CD0042B5D
:101260000DD8012B02D0022B03D008E00323FB731F
:1012700008E00223FB7305E00A23FB7302E001236D
:10128000FB7300BF36E01F4B1B6F03F00103002B05
:1012900004D0012B05D10923FB7305E00723FB7361
:1012A00002E00123FB7300BF24E0164BD3F85C314E
:1012B00003F03003302B13D0302B14D8202B0CD05C
:1012C000202B10D8002B02D0102B03D00BE00123D1
:1012D000FB730BE00723FB7308E00423FB7305E0BB
:1012E0000823FB7302E00123FB7300BF02E000232D
:1012F000FB7300BFFB7B18461437BD465DF8047BCB
:10130000704700BF00400E4080B58AB000AF7860E3
:101310000B46FB7003237B62032387F823300023F3
:10132000BB6100237B617B68112B19D1FB78042BF7
:1013300003D1FFF761F978610BE0FB78052B08D149
:1013400000F058F90346A44A934202D900F052F93A
:1013500078617B69002B03D00021786900F0ACFC38
:101360007B6803F00F033B613B69013B072B00F2F5
:10137000298101A252F823F0991300008B14000078
:101380009D140000C51500008F14000035150000E5
:10139000C515000053150000FB78023B0A2B00F234
:1013A000138101A252F823F0D5130000E1130000CD
:1013B000ED130000FF130000C9150000C91500005F
:1013C000C9150000C9150000C9150000111400005E
:1013D0001D14000004237B62002387F8233023E0E0
:1013E00003237B62012387F823301DE002237B6205
:1013F000022387F823307948FFF7FCF914E0012332
:101400007B62032387F823307448FFF7F3F90BE07E
:1014100005237B62032387F8233005E007237B62E3
:10142000062387F8233000BF97F82330062B06D019
:1014300097F8233001220121184600F045F9FFF703
:10144000D7FAFFF7E9FB7B69002B01D0FFF764F9BE
:10145000634A7B6A5367FFF761F8F860FFF788F823
:1014600003461846FFF7C6F9FFF76EF9034619461B
:10147000F868FFF7D6FA7B69002B03D10121002021
:1014800000F01AFCFFF7CFFBA3E0564BBB61BB6932
:10149000002B01D0BB6900E0534BBB61BB69002B43
:1014A00001D0BB6900E0514BBB61FB78013B092BCC
:1014B00000F28C8001A252F823F000BFE514000076
:1014C000EB140000FB140000CD150000CD1500004A
:1014D0000B150000CD150000CD150000CD15000046
:1014E000271500000023FB6120E0012201210020DC
:1014F00000F0EAF80223FB6118E00122012101203B
:1015000000F0E2F80123FB6110E0FFF731F8034639
:101510001846FFF76FF9012202213548FFF7BAF8A4
:101520000323FB6102E00423FB6100BFBB69FA698E
:101530001A604EE0FB78072B02D0092B04D048E05C
:10154000274B00221A6703E0254B01221A6700BFD0
:101550003FE0FB78013B072B3AD801A252F823F079
:1015600081150000D1150000D1150000971500006D
:10157000D1150000D115000087150000A715000047
:101580000023FB6112E001220121042000F09CF8FD
:101590000123FB610AE001220121022000F094F8FE
:1015A0000223FB6102E00323FB6100BF0C4BD3F875
:1015B0005C3123F03002FB691B0109491343C1F878
:1015C0005C3106E000BF04E000BF02E000BF00E0C5
:1015D00000BF2837BD4680BD002D31010148E8011C
:1015E00000400E4080400E4088400E4084400E4037
:1015F000B0400E4080B400AF034B1B681846BD4698
:101600005DF8047B704700BF0C00002090B585B0EA
:1016100000AF78601120FFF78FFD0122002102202A
:1016200000F052F80023FB607B681B7C022B01D189
:101630000123FB60224B5B6A23F001022049FB6817
:1016400013434B627B681B781A4608211D48FFF73D
:1016500021F87B689B88DB027A68527A1146184A27
:101660000B43D362164B1B6B03F07F627B68DB88F6
:10167000DB0213437A68927A1A437B681B7ADB0198
:1016800042EA03047B681B7A1846FFF7E2F9034637
:101690000B4A234313637B685B7B1A037B689B7B4A
:1016A0001B0113437A68D27B1A437B681B7B1B04A4
:1016B000034913434B6300BF1437BD4690BD00BFC1
:1016C00000400E4024400E4080B588B000AF034675
:1016D000FB710B46BB7113467B71FB79042B00F247
:1016E000B88001A252F823F045170000331700001C
:1016F0000F170000FD1600002117000001237B6179
:1017000002233B610123FB610023BB6125E004232D
:101710007B6108233B610323FB610223BB611CE067
:1017200010237B6120233B610523FB610423BB6104
:1017300013E040237B6180233B610723FB61062389
:10174000BB610AE04FF480737B614FF400733B612F
:101750000923FB610823BB6100BFBB79002B5BD071
:101760000023FB73FB79022B11D1FFF78DF90346A0
:10177000002B0CD1394BDB6B0123FB73384B5B6ABD
:1017800003F00103012B02D10120FFF78BF9344A4A
:101790007B69136600BFB9693248FEF794FF0346C0
:1017A000002BF8D07B79002B54D000BFF9692D486D
:1017B000FEF789FF0346002BF8D0FB79022B49D1B5
:1017C000FB7B002B46D0264B5B6A03F00103012B09
:1017D00005D101222021022000F074F903E000214C
:1017E000022000F023F9022000F03EF8B860012248
:1017F00000210220FFF768FFB968022000F076F8A8
:10180000174A7B69136600BFF9691648FEF75BFF4C
:101810000346002BF8D01DE0114A3B69136600BF58
:101820000F4BD3F890300121BA6901FA02F213404C
:10183000002BF5D17B79002B0CD000BF084BD3F8DF
:1018400090300121FA6901FA02F21340002BF5D120
:1018500000E000BF2037BD4680BD00BF00300E4015
:1018600000400E4090400E4080B485B000AF03466B
:10187000FB71FB79042B2CD801A252F823F000BF96
:10188000C718000095180000B9180000A118000042
:10189000AD180000144B1B6AC3F30803FB601BE088
:1018A000114B1B6903F07F03FB6015E00E4B9B6936
:1018B00003F07F03FB600FE00B4BD3F89C30C3F3C6
:1018C0000A03FB6008E0084B9B6B03F07F03FB609F
:1018D00002E00023FB6000BFFB6818461437BD46DA
:1018E0005DF8047B704700BF00400E4080B586B0B5
:1018F00000AF03463960FB710023FB75FB79042BB5
:1019000000F2888001A252F823F000BFDF19000026
:1019100021190000A31900004F19000079190000D7
:101920003B68C3F308033B6000BF1A213C48FEF745
:10193000CAFE0346002BF8D13A4B1B6A23F4FF730F
:1019400023F0010337493A6813430B6263E03B68B5
:1019500003F07F033B6000BF18213148FEF7B3FE60
:101960000346002BF8D12F4B1B6923F07F022D4932
:101970003B6813430B614EE03B6803F07F033B6021
:1019800000BF19212648FEF79EFE0346002BF8D122
:10199000244B9B6923F07F0222493B6813438B61F0
:1019A00039E0204BD3F890301E4B5B6A23F03003B4
:1019B0001C4A43F0100353623B68DB0903F00F033A
:1019C0001846FFF746F83861164B1A6B164B134052
:1019D0003A681A4313493B6913430B631BE04F23D7
:1019E000FB603B68BB60BA68FB68934228BF134644
:1019F000FB7500BF1D210A48FEF765FE0346002B5C
:101A0000F8D1084B9B6B23F07F02FB7D0549134304
:101A10008B6300E000BF00BF1837BD4680BD00BF2C
:101A200040410E4000400E4000F8FF0F80B584B0EA
:101A300000AF03463960FB71FFF726F80346002B21
:101A400003D14FF44003FB601AE03B68302B10D009
:101A50003B68302B11D83B68002B06D03B68202B0D
:101A60000BD14FF40003FB600AE04FF44003FB602E
:101A700006E04FF44003FB6002E0104BFB6000BF48
:101A800000BF0F4BD3F89020FB681340FA689A42CE
:101A9000F7D1FB6803F48003002B0AD0084BD3F87E
:101AA000A03003F48063002B14BF01230023DBB2BA
:101AB00000E0012318461037BD4680BDFF33E10723
:101AC00000400E4080B582B000AF03463960FB7124
:101AD0001346BB71FB79022B14D13B68002B07D056
:101AE0000C4B4FF48062C3F8A8200A4A3B68536647
:101AF000BB79002B08D0FB7939681846FFF796FFB1
:101B0000034603E000BF00E000BF0123184608378A
:101B1000BD4680BD00400E4080B483B000AFEFF3FF
:101B200010833B603B687B6072B600BF7B681846E1
:101B30000C37BD465DF8047B704780B483B000AFBE
:101B400078607B68002B01D162B600BF00BF0C3704
:101B5000BD465DF8047B704780B487B000AFF86085
:101B6000B9607A60FB6803F1424303F58013DA0041
:101B7000BB6813449B007B617B697A681A6000BF75
:101B80001C37BD465DF8047B704780B485B000AF5C
:101B9000786039607B6803F1424303F58013DA0013
:101BA0003B6813449B00FB60FB681B6818461437B6
:101BB000BD465DF8047B704780B400AF064B1B68E0
:101BC00003F04003002B01D1012300E0002318465D
:101BD000BD465DF8047B70473C300E4080B500AFD9
:101BE000FFF7EAFF034683F00103DBB2002B08D1C5
:101BF00000BF12210448FFF7C8FF0346002BF8D1AD
:101C000000E000BF80BD00BF04300E4080B500AFD3
:101C1000FFF7E4FF034B5B681B0C03F00303DBB22D
:101C2000184680BD00300E4080B483B000AF7860AD
:101C3000044A7B68D36200BF0C37BD465DF8047B65
:101C4000704700BF00300E4080B400AF034B5B6AAA
:101C50001846BD465DF8047B704700BF00300E405B
:101C600080B400AF034B00225A6300BFBD465DF84D
:101C7000047B704700300E4080B400AF044B4AF63E
:101C8000E8525A6300BFBD465DF8047B704700BF51
:101C900000300E4080B483B000AF0346FB71FB7987
:101CA000C3F10203102202FA03F318460C37BD46B3
:101CB0005DF8047B7047000080B584B000AF7860A9
:101CC0000B46FB70FFF778FF034683F00103DBB29E
:101CD000002B28D17B68002B0FD1154BD3F8003196
:101CE0001B0A03F01F030133BB60FEF741FC0246F1
:101CF000BB6802FB03F3FB6001E07B68FB600D4BFC
:101D00001B78002B09D0FB680B4A934205D8FB785F
:101D10001946022000F012F806E0FB781946002070
:101D200000F00CF800E000BF1037BD4680BD00BFDA
:101D300000400E4040000020002D310190B587B0DA
:101D400000AF03460A46FB711346BB71FFF734FF31
:101D5000034683F00103DBB2002B31D1FFF756FFBE
:101D600003461A46FB7993422CD0184BD3F8003126
:101D70001B0A03F01F0301337B61FEF7F9FB386197
:101D80003B697A6902FB03F3FB60FB79022B03D109
:101D900002213869FEF745FE0D4CFB791846FFF726
:101DA00079FF03462361BB79002B01D0FFF716FFB3
:101DB000FB79002B07D100213869FEF732FE02E0E3
:101DC00000BF00E000BF1C37BD4690BD00400E4084
:101DD00000300E4080B400AF01231846BD465DF8C8
:101DE000047B704780B582B000AF0C4BDB6E0B4AB2
:101DF00043F08073D36600210948FFF7C6FE786080
:101E00007B68002B03D0042000F0CAFC02E0002015
:101E100000F0C6FC00BF0837BD4680BD00300E4054
:101E20004C300E4080B48BB000AF01237B627B6AE4
:101E30001B053B62324BDB6C1B0A03F00F03FB619B
:101E4000304B1B881A462F4B1B8828335B081344E2
:101E500003F12801FB695A1C13469B001344B1FB94
:101E6000F3F3013BBB61BB697B6107233B613A69CB
:101E70007B69934228BF1346BB61BB691B06BB61EC
:101E80001F4BDB6C23F0EE62B9693B6A0B431C49C4
:101E90001343CB641C4BB3F90030002B29DB1A4BE6
:101EA000B3F90030FB81FA89FB8928335B081344BE
:101EB00003F12802FB6901335900FB6901335B0818
:101EC0000B44B2FBF3F3BB60BB687B6007233B6052
:101ED0003A687B68934228BF1346BB60BB681B010E
:101EE000BB60074B1B6D23F070020549BB681343B1
:101EF0000B6500BF2C37BD465DF8047B704700BF03
:101F000000300E40380000203C00002080B483B038
:101F100000AF78600B467B807B689AB2054B1A80D5
:101F2000054A7B88138000BF0C37BD465DF8047BF3
:101F3000704700BF380000203C00002080B483B010
:101F400000AF0346FB71FB79002B02D0012B04D0BC
:101F500007E0074B074A9A6503E0054B064A9A6576
:101F600000BF00BF0C37BD465DF8047B704700BF63
:101F700000300E4077402057372110B780B485B02D
:101F800000AF0346FB710B46BB7113467B712D4BB3
:101F9000D3F88031FB60BB79032B1DD801A252F826
:101FA00023F000BFB51F0000BD1F0000C71F0000C9
:101FB000D11F0000FB68DBB2FB600FE0FB681B0A6F
:101FC000DBB2FB600AE0FB681B0CDBB2FB6005E0E8
:101FD000FB681B0EFB6001E000232CE07B79002BEB
:101FE00011D1FB681B03FB60FB6823F47043002BDB
:101FF00001D000231FE0144BDB6E23F47042124922
:10200000FB681343CB667B79012B13D1FB681B0361
:10201000FB60FB6823F47043002B01D000230AE02F
:10202000094BD3F8EC3023F470420749FB681343A3
:10203000C1F8EC30012318461437BD465DF8047B27
:10204000704700BFB081E00F00300E4080B489B00F
:1020500000AFF860B96011461A460B46FB71134693
:10206000BB710023FB610023BB61BB791B02FA79C2
:10207000002A01D0012200E0002213437B617B692A
:1020800040F2013293425CD07B6940F201329342CC
:1020900000F293807B69B3F5407F00F082807B691A
:1020A000B3F5407F00F289807B6940F201229342C0
:1020B0003BD07B6940F2012293427ED87B69B3F525
:1020C000007F62D07B69B3F5007F76D87B6940F2F0
:1020D000011293421DD07B69B3F5817F6DD27B697C
:1020E000B3F5807F45D07B69B3F5807F65D87B6988
:1020F000002B32D07B69012B5FD1364BD3F8743182
:10210000FB61FB691B0ADBB2BB61FB69DBB2FB61F4
:1021100054E0304BD3F87431FB61FB691B0EBB619B
:10212000FB691B0CDBB2FB6148E02A4BD3F878312A
:10213000FB61FB691B0ADBB2BB61FB69DBB2FB61C4
:102140003CE0244BD3F87831FB61FB691B0EBB618B
:10215000FB691B0CDBB2FB6130E01E4BD3F86C312A
:10216000FB61FB691B0ADBB2BB61FB69DBB2FB6194
:1021700024E0184BD3F86C31FB61FB691B0EBB618B
:10218000FB691B0CDBB2FB6118E0124BD3F870311A
:10219000FB61FB691B0ADBB2BB61FB69DBB2FB6164
:1021A0000CE00C4BD3F87031FB61FB691B0EBB617B
:1021B000FB691B0CDBB2FB6100E000BFFB68FA6946
:1021C0001A60BB68BA691A6000BF2437BD465DF863
:1021D000047B7047B081E00F80B584B000AF7860B9
:1021E000484B02229A63474B9B6B03F00F03022B71
:1021F00001D0002381E0FFF7EDFD7B685B78012BC8
:1022000002D07B685B78022B7B68DB884A2B02D884
:102210000023FB6015E07B68DB88B3F5FA7F03D20F
:102220004FF08053FB600CE07B68DB8840F6C31204
:10223000934203D84FF00053FB6002E04FF040534D
:10224000FB60304BDB6C23F0405323F001037A68D2
:10225000B2F90C20002A01DB012100E00021FA681C
:102260000A4328491343CB64264BD3F8EC30254A64
:1022700043F44073C2F8EC307B689A88224B1A8092
:10228000FFF7B0FD7B681B891A467B68B3F90C30F9
:1022900019461046FFF73AFE7B689B88184600F007
:1022A00013FA7B689B7B1846FFF748FE7B685B88C8
:1022B00001220121184600F0B1F8034683F0010322
:1022C000DBB2002B01D0002317E00E4BDB6B0D4A75
:1022D00043F48063D3637B685B78184600F018F89A
:1022E0007B689B7A202B01D1012300E000231A4652
:1022F00005210648FFF730FC012318461037BD467C
:1023000080BD00BF00300E403A0000203C300E403F
:1023100080B584B000AF0346FB713E4B5B6B012B75
:102320000CBF01230023FB73FFF7A6FC00BF394B52
:102330009B6F03F00103002BF9D1364B1B6C03F0AC
:102340000303BB60BB68002B04D001220D2132487F
:10235000FFF702FCBB68DBB2FA799A4208D1FB793D
:10236000002B53D100220D212B48FFF7F5FB4DE048
:10237000BB68032B02D0BB68002B20D1FB79022B5A
:1023800002D0FB79012B1AD14FF40020FFF74CFC4F
:1023900000BF204B9B6F03F00103002BF9D11D4BB5
:1023A0001B6C23F003031B4A43F00103136400BFBB
:1023B000FFF74AFC034603F40023002BF8D000BFCC
:1023C000144B9B6F03F00103002BF9D1114B1B6CD5
:1023D00023F00302FB790F4913430B6400BF0D4B3D
:1023E0009B6F03F00103002BF9D1FB79002B14BF85
:1023F00001230023DBB21A460D210748FFF7ACFB8F
:10240000FB7B002B03D0FFF72BFC00E000BF103755
:10241000BD4680BD00300E4054300E4090B595B0A2
:1024200000AF78600B46FB701346BB700023FB6463
:1024300000237B6407F1240300221A605A609A602B
:1024400007F1180300221A605A609A6007F10C0322
:1024500000221A605A609A60984B1B883B810023C7
:10246000BB727B68B3F5E16F06D37B6840F6B83288
:10247000934201D8012300E0002387F8433097F806
:10248000433003F0010387F8433097F8433083F07B
:102490000103DBB2002B01D000230AE17B68B3F516
:1024A000E16F8CBF0123002387F8423097F8423058
:1024B000002B0AD04FF4E163FB6440F6B8337B6431
:1024C0007A6CFB6CD31ABB6409E04FF49663FB642F
:1024D0004FF4E1637B647A6CFB6CD31ABB6497F8AE
:1024E0004230002B0BD0764BD3F868313B623B6A0D
:1024F0001B0E7B613B6A1B0CDBB23B620AE0704B3C
:10250000D3F868313B623B6A1B0ADBB27B613B6AF2
:10251000DBB23B626B4BDB6C1B0FDBB203F00303E4
:10252000DBB23B723B7A97F8422007F10C0107F1CE
:102530001800FFF78BFD634BD3F8EC301B0ADBB2BE
:1025400003F00303DBB27B727C7A97F8422007F139
:102550000C03191D07F11803181D2346FFF776FD1C
:102560007A68FB6CD31A79693A6A8A1A03FB02F219
:10257000BB6CB2FBF3F3FB62FA6A3B6A1344FB6287
:102580007A68FB6CD31AF968BA698A1A03FB02F2FB
:10259000BB6CB2FBF3F37B627A6ABB6913447B6268
:1025A0007A68FB6CD31A3969FA698A1A03FB02F25A
:1025B000BB6CB2FBF3F3BB62BA6AFB691344BB6248
:1025C000FA6A7B699A4213D8FA6A3B6A9A420FD335
:1025D000BA6A3B699A420BD8BA6AFB699A4207D336
:1025E0007A6AFB689A4203D87A6ABB699A4201D236
:1025F00000235EE0BB78002B12D0324BDB6D23F45E
:10260000FE4323F00203FA6A1202134397F84220B2
:10261000002A01D0022200E000222A491343CB65A0
:10262000FB78002B44D0397A97F8423000221846C4
:10263000FFF7A4FC034683F00103DBB2002B01D0BB
:10264000002336E0797A97F8423001221846FFF7E6
:1026500095FC034683F00103DBB2002B01D000237D
:1026600027E07B6AFB63BB6ABB63BA6BFB6B93427D
:1026700038BF13467B627B6A7B63E7233B633A6B1D
:102680007B6B934228BF13467B620E4B5B6E23F439
:10269000FF7323F001037A6A5200134397F8422034
:1026A000002A01D0012200E00022064913434B66B4
:1026B000012318465437BD4690BD00BF8443000037
:1026C000B081E00F00300E4080B584B000AF78607C
:1026D0000023FB60314B1B6F03F00703BB602F4BE4
:1026E000DB6C03F00103002B14D0BB68012B11D964
:1026F0007B68132B02D80423FB6037E07B68132B25
:1027000005D97B68272B02D80823FB602EE0102315
:10271000FB602BE0214BDB6C03F00103002B14D199
:10272000BB68012B11D87B68092B02D80423FB60FE
:102730001CE07B68092B05D97B68132B02D8082382
:10274000FB6013E01023FB6010E0144BDB6C03F024
:102750000103002B0AD0BB68012B07D87B68272B0D
:1027600002D80823FB6001E01023FB60FB68013BFB
:10277000FB60FB681A02FB681B031343FB60074BFB
:10278000DB6C23F47F420549FB681343CB64FFF7FE
:1027900049FB00BF1037BD4680BD00BF00300E4072
:1027A00080B584B000AF0346FB7100210E48FFF7EF
:1027B000ECF9F860FB68002B02D1FB79012B01D901
:1027C000FB68002B094B1B6F23F00702FB790749BD
:1027D00013430B67064B1B881846FFF775FF00BFB6
:1027E0001037BD4680BD00BF4C300E4000300E405B
:1027F0003A00002080B487B000AFF860B9607A601A
:10280000FB6803F1424303F58013DA00BB6813440D
:102810009B007B617B697A681A6000BF1C37BD46EC
:102820005DF8047B704780B485B000AF7860396094
:102830007B6803F1C063FB60FB683A681A6000BF05
:102840001437BD465DF8047B704780B485B000AF97
:10285000786039607B6803F18063FB60FB683A68ED
:102860001A6000BF1437BD465DF8047B704780B521
:1028700086B000AFF860B9607A60FFF74DF9786113
:10288000FB681A68BB68DB431A407968BB680B4079
:102890001A43FB681A607869FFF74FF900BF1837D1
:1028A000BD4680BD80B483B000AF7860044A7B68C9
:1028B000C2F8243400BF0C37BD465DF8047B704776
:1028C00000A0004080B582B000AF03463960FB71C4
:1028D000FB79002B1CD0FB79012B19D0FB79022B43
:1028E00016D0FB79032B13D0FB79042B10D0FB7986
:1028F000052B0DD0FB79062B0AD0FB79072B07D0CF
:10290000FB79082B04D0FB79092B01D0FB790A2B2A
:10291000FA7913465B0013441B010C3303F1804327
:1029200003F5204301213A6801FA02F211461846E4
:10293000FFF78BFF00BF0837BD4680BD80B582B072
:1029400000AF03463960FB71FB79002B1CD0FB798B
:10295000012B19D0FB79022B16D0FB79032B13D056
:10296000FB79042B10D0FB79052B0DD0FB79062BBE
:102970000AD0FB79072B07D0FB79082B04D0FB7911
:10298000092B01D0FB790A2BFA7913465B0013441B
:102990001B010C3303F1804303F5204301213A6806
:1029A00001FA02F211461846FFF73DFF00BF083753
:1029B000BD4680BD80B586B000AFB9607A601A466A
:1029C0000346FB731346BB7300237B61FB7B002B29
:1029D0001CD0FB7B012B19D0FB7B022B16D0FB7B81
:1029E000032B13D0FB7B042B10D0FB7B052B0DD0CE
:1029F000FB7B062B0AD0FB7B072B07D0FB7B082B2E
:102A000004D0FB7B092B01D0FB7B0A2B7B68072BB7
:102A10000ED87B689B000F2202FA03F1FA7B7B68D9
:102A20009B0002FA03F31A462B48FFF720FF10E041
:102A30007B68083B7B617B699B000F2202FA03F1F4
:102A4000FA7B7B699B0002FA03F31A462348FFF7DF
:102A50000EFF7B68072B10D87B689B00032202FACD
:102A600003F1BB6803F003027B689B0002FA03F3E7
:102A70001A461B48FFF7FBFE0FE07B699B00032211
:102A800002FA03F1BB6803F003027B699B0002FAC0
:102A900003F31A461348FFF7EAFEBB7B1A46796830
:102AA0001148FFF7A7FE97F820301A4679680F48BB
:102AB000FFF7A0FE01227B6802FA03F31846FFF736
:102AC000F1FE97F824301A4679680948FFF792FE1C
:102AD00000BF1837BD4680BD00A4004004A40040DC
:102AE00008A400400CA4004010A4004014A400401E
:102AF00028A4004080B584B000AFB9607A603B6024
:102B00000346FB73FB7B002B1CD0FB7B012B19D0F6
:102B1000FB7B022B16D0FB7B032B13D0FB7B042B00
:102B200010D0FB7B052B0DD0FB7B062B0AD0FB7B4B
:102B3000072B07D0FB7B082B04D0FB7B092B01D094
:102B4000FB7B0A2B7B68002B0DD03B68002B05D04C
:102B5000FB7BB9681846FFF7F1FE04E0FB7BB96820
:102B60001846FFF7AFFEBB68072B18D8FA7B134651
:102B70005B0013441B01043303F1804303F520433E
:102B8000BA6892000F2101FA02F0BA6892007968DF
:102B900001FA02F201461846FFF769FE19E0FA7BD6
:102BA00013465B0013441B01083303F1804303F514
:102BB0002043BA68083A92000F2101FA02F0BA687D
:102BC000083A9200796801FA02F201461846FFF7C6
:102BD0004EFE7B68002B0DD13B68002B05D0FB7BA4
:102BE000B9681846FFF7AAFE04E0FB7BB9681846EF
:102BF000FFF768FE00BF1037BD4680BD80B400AF50
:102C0000044BDB6C1B0EDBB21846BD465DF8047B43
:102C1000704700BFB081E00F80B483B000AF786030
:102C20000B46FB70FB7863F07F03DBB21A467B68D0
:102C30009A6500BF0C37BD465DF8047B7047000005
:102C400080B586B000AFF860B9607A60BB68002BD1
:102C500003D10A48FEF762F8B860BB685A1E7B6869
:102C60005B00B2FBF3F37B617B691B027B61FB685A
:102C70007A695A6100BF1837BD4680BD40410500E2
:102C800080B485B000AF78600B46FB707B68114A5A
:102C900093420AD07B68104A934206D07B680F4A61
:102CA000934202D07B680E4A9342FB78DB43FB6081
:102CB000FB6803F00503FB60FB685A007B68DA6081
:102CC000FA787B68DA6000BF1437BD465DF8047B94
:102CD000704700BF000001400004014000080140AF
:102CE000000C014080B582B000AF786039607B682D
:102CF0003D4A93420AD07B683C4A934206D07B68A7
:102D00003B4A934202D07B683A4A9342786800F08B
:102D100073F87B681A683B681B8A43F001039BB217
:102D200019463B689B7B002B02D04FF4806300E088
:102D300000230B431A437B681A607B681B683A6860
:102D4000127D002A02D04FF0005200E000221A4308
:102D50007B681A603B689B7C002B05D03B68DB7C62
:102D600019467868FFF758FF3B681B7B43F4805295
:102D70007B685A603B6859683B689B681A4678686C
:102D8000FFF75EFF3B685B7B002B02D07B68102265
:102D9000DA603B685B7D002B05D07B681B6843F4E1
:102DA00080327B681A603B689B7D002B05D07B6876
:102DB0001B6843F400427B681A603B68DB7D1B079D
:102DC00003F0E0423B681B7E1B0503F4E0031A435B
:102DD0007B681A663B681B781A467B68DA6000BF1E
:102DE0000837BD4680BD00BF00000140000401401F
:102DF00000080140000C014080B483B000AF78604F
:102E00007B682C4A93420AD07B682B4A934206D0B7
:102E10007B682A4A934202D07B68294A93427B68A6
:102E200040F6AA62DA607B6800221A607B6841F291
:102E300005025A607B6800229A607B6800225A6112
:102E40007B680022DA647B681E4A9A647B680022F1
:102E50001A667B6800225A677B6800229A677B6843
:102E60000022DA677B68134A93420BD07B68124AD0
:102E7000934207D07B68114A934203D07B68104A83
:102E8000934202D17B6800221A657B6800229A6512
:102E90007B68094A934203D07B68094A934202D176
:102EA0007B680022DA6500BF0C37BD465DF8047B05
:102EB000704700BF000001400004014000080140CD
:102EC000000C0140F9FF010080B483B000AF03465D
:102ED000FB7197F90730002B0BDBFB7903F01F0226
:102EE000074997F907305B09012000FA02F241F81F
:102EF000232000BF0C37BD465DF8047B704700BF40
:102F000000E100E080B483B000AF0346FB7197F9A5
:102F10000730002B0CDBFB7903F01F02074997F900
:102F200007305B09012000FA02F2603341F82320E8
:102F300000BF0C37BD465DF8047B704700E100E040
:102F400080B485B000AF786039607B6803F1C063FE
:102F5000FB60FB683A681A6000BF1437BD465DF835
:102F6000047B704780B485B000AF786039607B68BF
:102F700003F18063FB60FB683A681A6000BF143796
:102F8000BD465DF8047B704780B582B000AF194B39
:102F900001225A64FFF732FE0346FB71FB79002BD6
:102FA0000CD1154B4AF6E8521A60144B1B68134AB1
:102FB00043F004031360104B00221A60FB79012BCD
:102FC00005D80F4B1B680E4A43F4005313600D4B9A
:102FD0001B6A23F444130B4A43F488131362054B12
:102FE0001B68044A43F48073136000BF0837BD4672
:102FF00080BD00BF00000E4090310E4098310E4061
:1030000064310E4000400E4080B483B000AF786061
:10301000044A7B68C2F8243400BF0C37BD465DF813
:10302000047B704700A0004080B582B000AF78609C
:1030300079680348FFF796FF00BF0837BD4680BD9B
:1030400028A4004080B582B000AF7860796803485A
:10305000FFF776FF00BF0837BD4680BD28A40040BB
:1030600080B582B000AF03463960FB71FB79002B5D
:103070001CD0FB79012B19D0FB79022B16D0FB79E0
:10308000032B13D0FB79042B10D0FB79052B0DD02B
:10309000FB79062B0AD0FB79072B07D0FB79082B8D
:1030A00004D0FB79092B01D0FB790A2BFA7913465E
:1030B0005B0013441B010C3303F1804303F52043F1
:1030C00001213A6801FA02F211461846FFF74AFF59
:1030D00000BF0837BD4680BD80B582B000AF034653
:1030E0003960FB71FB79002B1CD0FB79012B19D0C7
:1030F000FB79022B16D0FB79032B13D0FB79042B21
:1031000010D0FB79052B0DD0FB79062B0AD0FB796B
:10311000072B07D0FB79082B04D0FB79092B01D0B2
:10312000FB790A2BFA7913465B0013441B010C331D
:1031300003F1804303F5204301213A6801FA02F2CA
:1031400011461846FFF7FCFE00BF0837BD4680BD9C
:1031500080B400AF054B1B69044A23F004031361DC
:1031600030BF00BFBD465DF8047B704700ED00E056
:1031700080B483B000AF786039607B68DA6C3B68FC
:10318000DB431A407B68DA6400BF0C37BD465DF84C
:10319000047B704780B483B000AF786039607B688F
:1031A000DA6C3B681A437B68DA6400BF0C37BD46B3
:1031B0005DF8047B7047000080B582B002AF01214A
:1031C0001948FDF745FD0023012206210020FFF7E5
:1031D00091FC0023042207210020FFF78BFC002331
:1031E000012208210020FFF785FC0123012209218B
:1031F0000020FFF77FFC00230193012300930023AD
:10320000092209210020FFF7D5FB1220FFF77AFEE3
:103210001220FFF759FE0023042206210120FFF7A8
:1032200069FC00BFBD4680BD00350A00B0B588B05E
:1032300000AF01211348FDF70BFD134B3C1D1D464C
:103240000FCD0FC495E8070084E8070000237B74C6
:103250000123BB7400233B713B1D19460B48FFF74C
:1032600041FD0A4B4FF001329A67084B0F225A6713
:103270002820FFF747FE2820FFF726FE00BF203753
:10328000BD46B0BD00620400884300000008014054
:1032900080B500AF4FF40070FFF7B6FE00BF80BDF1
:1032A00080B500AF06210120FFF716FF0C4BD8694F
:1032B0000C4B1B685A1C0B490A60C1B20A4AD15414
:1032C000084B1B68092B05D8064B1B68074AD25CC4
:1032D000034B5A6306210120FFF7C2FE00BF80BDE9
:1032E000000801405C000020500000204400002045
:1032F000B0B58AB000AFFFF747FE3E4B07F11404AC
:103300000FCB84E80F0007F114031846FEF764FFA3
:10331000394B3C461D460FCD0FC42B6823803B46DE
:103320001846FEF773F904211120FDF7EDFFFDF7B4
:10333000F5F8034600211846FDF773FBFFF73CFF45
:10334000FFF774FF06210120FFF7C6FE00237B6212
:103350000EE02A4A7B6A134400221A707B6AD9B2B3
:10336000274A7B6A13440A461A707B6A01337B62E0
:103370007B6A092BEDD9234B00221A604FF40070B1
:10338000FFF742FE4FF40070FFF75CFE06210120BC
:10339000FFF766FEFFF7DCFE06210120FFF79CFE2B
:1033A00005211948FFF76CFC04211748FFF7F2FECE
:1033B000144B1B68124AD25C134B5A63062101203E
:1033C000FFF74EFE01E0FFF7C3FE0E4B1B68092B13
:1033D000F9D906210120FFF77FFE04210A48FFF7F3
:1033E000C7FE4FF40070FFF71FFE00210648FFF7ED
:1033F00047FCABE7A4430000B443000050000020AA
:10340000440000205C0000200008014080B483B02C
:1034100000AF786000BFFDE703685A004CBF43F07F
:10342000004323F000431844704700BF2DE9F843E0
:1034300049B34F1E044615463E464FF0000909EBBE
:10344000060101EBD171491004EBC1084046FFF7BA
:10345000E3FF8F4203464FEAC1000FD00830AB4272
:10346000204407D8FFF7D8FF0138A84208D201F15D
:103470000109E4E7894506D04E1EE0E7AB42F9D8E2
:103480004046BDE8F8834FF000084046BDE8F883A9
:10349000012807D0022807D0044B00280CBF18468B
:1034A000002070470248704702487047353B0000D3
:1034B0003D3B0000453B000030B5214B83B0044646
:1034C0008D1E1BB301A92846AFF3008088B3019974
:1034D0002A46FFF7ABFF014658B3FFF79DFF4B6845
:1034E000A064012B28D0002B01F104001FDBFFF7A3
:1034F00093FF002323650368E064002B0DDBFFF7D7
:103500008BFF03460020236103B030BD0D4B0E49F5
:10351000C91AC91018460191DAE7C3F30360FFF72F
:10352000B7FF034628B10020236103B030BD01235B
:10353000E0E700230920E6E700230520E3E700BFDA
:1035400000000000CC430000644400000368DA0778
:1035500010B5044606D49B0700F1480009D500F0D9
:103560005DFC2368590709D51A070ED5DB0613D56C
:1035700010BD00F04BFC23685907F5D404F1D000CE
:1035800000F054FC23681A07F0D404F5A87000F08A
:1035900055FC2368DB06EBD404F5E870BDE8104069
:1035A00000F090BC0346006800B11844704700BFAB
:1035B000704700BF70B504460E46316C2046FFF7D9
:1035C0007BFF054688B9326C626123693246214629
:1035D000012098470828F0D0072806D12846316CEA
:1035E000FFF7E6FF301D00F005FCFFDE2DE9F04798
:1035F0000D1DD0F80C80D0F81890074614460FCD5A
:10360000ADF5727D0DF10C0CACE80F000FCDACE800
:103610000F000FCDACE80F0095E80F0002AE4FF0A1
:10362000000E8CE80F00C6F800E020E0336C7B61F0
:103630004FF4F07231467AA800F06EFE3B697AAA28
:10364000394650469847889B73642146CDE9006906
:1036500005463B463A460120C047044618BB4FF496
:10366000F0727AA9304600F057FE082D19D1316C5E
:103670003846FFF721FF09345FFA84FA054600282F
:10368000D4D0B36B73643A46CDE900693B464AF047
:1036900010010120C04730B928460DF5727DBDE804
:1036A000F087072D05D0092528460DF5727DBDE868
:1036B000F0872046316CFFF77BFF03A800F09AFBF0
:1036C000F0B5CB6B0B6401F1040C0E460546BCE86B
:1036D0000F00F9B001AC0FC4BCE80F000FC4BCE888
:1036E0000F000FC49CE80F004FF0FF3784E80F0075
:1036F000009706E02B696A46294698470828044641
:1037000008D110992846FFF7D7FE0028F2D00920EB
:1037100079B0F0BD6846FFF719FF062CF7D13146A6
:103720002846FFF747FF00BFC160D96B826119646B
:1037300000221946FFF75ABF70B5C66843690B648B
:10374000AEB903690A4604460D4601460220984771
:10375000072805D008280ED129462046FFF72AFF62
:103760003046296CFFF724FF281D00F043FB01229F
:10377000FFF73CFFFFDEFFDEC26822B1CA6B0A64BE
:103780000022FFF733BFFFF79BBF00BF012910D016
:1037900009D883B90F2A0ED800EB82021846536865
:1037A000009A13607047033901298CBF0220012061
:1037B0007047084670470220704700BF00B585B0CB
:1037C0000A46002303A900911946FFF7DFFF03987B
:1037D00005B05DF804FB00BF012910D009D883B9FA
:1037E0000F2A0ED8009900EB820209685160184632
:1037F0007047033901298CBF022001207047084619
:1038000070470220704700BF10B584B0002303AC9E
:10381000039200940A461946FFF7DEFF04B010BD7C
:1038200070B5D36B136402F1040C05460C46BCE87A
:103830000F00ADF50E7D0DF15C0EAEE80F00BCE89B
:103840000F00AEE80F00BCE80F00AEE80F009CE8E8
:103850000F004FF0FF368EE80F00169610E0FFF7CE
:10386000D3FF214616A8A847034616AA6946082092
:1038700083B9049B9847052806460CD0092809D02F
:1038800026996846FFF718FE03466A460C2116A8DB
:10389000002BE4D0092616A8FFF758FE30460DF598
:1038A0000E7D70BD2DE9F04F9346CA6C89B00D4670
:1038B00052F8041B069200F0030C002B79D00C0C7C
:1038C0008DF81D400904E4B2059102EB8402022147
:1038D0002F6D8DF81C10BCF1020F08BFAA6B17F0FA
:1038E00001070CD005A9584600F076FB18B908204E
:1038F00009B0BDE8F08F092009B0BDE8F08F166867
:10390000002EEFD000F008010191B1460297644605
:103910009A46BAF1020F48D0B2F80090568802F1E8
:103920000408AA6C26F001030F2158469F18FFF7E0
:1039300045FF874237D829F001023A44824294BFBA
:1039400000220122730003F0020309F0010943EA97
:103950000903012B47D0022B31D0002BCBD114B15E
:10396000002A40F0C68008F10402D2F80090B9F1B4
:10397000000FCED105A95846029F00F02DFB00286C
:10398000B9D1002FB3D00F215846FFF717FF0E21F2
:1039900002465846FFF738FF654A0F215846FFF7A1
:1039A00033FF0720A8E70022CCE7566802F1080899
:1039B000B7E7090205918DF81D30032188E7D8F893
:1039C000006026F00043002C44D122B1019A002A65
:1039D0005AD0002B58D0002E01DA08F10408013328
:1039E00008EB8302C1E7ECB9CAB1D8F80430D8F8C3
:1039F0000020991C4FEAD2723FF47DAF05F15801C7
:103A00000133049100F0888008F10400FFF7CAFD3B
:103A100004AB01462846AFF30080002856D108F1D8
:103A20000802A2E70D215846FFF7C8FE2B6A834221
:103A3000F5D1AB6A9845F2D14046FFF7EDFC0F2176
:103A400002465846FFF7E0FE2A4600215846FFF797
:103A5000DBFEA6E70D2158460393FFF7AFFE2A6A67
:103A6000039B8242B7D1AA6A9045B4D100270422B1
:103A7000C5E90B724244AB626A63D8F80020BA42CF
:103A800052DB01220292AAE7039408F104090026FE
:103A900005F158071C460DE048460497FFF782FDE4
:103AA0000022014604AB2846013609F10409AFF3B0
:103AB0000080C8B9A642EFD10D215846FFF77EFE1F
:103AC000049B2862C5E90938062015E704460D2144
:103AD0005846FFF773FE022CDDF81090286221D1C2
:103AE0002B4643F82C9FEDE72346D8F80060039C53
:103AF00071E74046FFF790FC08F104020446AA6310
:103B00002846AFF3008000283FF4F5AE22460F218F
:103B10005846FFF779FE44E7894658460D21FFF7DE
:103B20004DFE28624B46CDE7581C08EB800084E729
:103B3000000000000023FFF7B5BE00BF0123FFF720
:103B4000B1BE00BF0223FFF7ADBE00BF2DE9F043B9
:103B50000646C3B015461C46042900F2D180DFE8B2
:103B600001F0AC51CF2A0300002C40F0C980102A8C
:103B700000F2C6800368DC0600F1E78020AF38461B
:103B800000F0AAF9B46B394600234FF0010C0CFA8F
:103B900003F22A42204603F1010303D050F8042B1C
:103BA0000A600446042B01F10401F0D1B4633846E5
:103BB00000F088F999E0032C40F0A28094B204EB65
:103BC0001243102B4FEA124500F29A8003681F0738
:103BD00000F1C38020AF384600F052F9B26B07EB1A
:103BE000C50154B10B46D01A01EBC401E4001D58C5
:103BF00043F8045B8B42FAD12244B263384600F0AA
:103C00001DF972E0012C4FEA124895B271D0052CD3
:103C100076D108EB0509B9F1200F71D8B8F10F0F73
:103C200072D8B9F1100F036800F29F80D90708D548
:103C300023F00103304643F0020340F8483B00F014
:103C4000F1F820AF384600F0EDF8B36B002D00F02E
:103C5000B9806D006A1E07EBC801002501320439E6
:103C600003EB820253F8040B41F8040F9342F9D19D
:103C7000002D00F0A1804146102938BF10216B00B3
:103C800010396F46013B07EBC1010133043902EBE8
:103C9000830352F8040B41F8040F9A42F9D1012C26
:103CA00000F08880B8F10F0FB26302D820A800F0AE
:103CB000B5F8384600F0BAF817E00CBB806B234625
:103CC0001FFA82FC0124371D04FA03F111EA0C0FDC
:103CD000024604D052F8041B47F823101046013363
:103CE000102BF1D1AC0400D4B063002043B0BDE888
:103CF000F08308EB0503102B02D8B8F1100F14D194
:103D0000022043B0BDE8F083002DEED003685A07CF
:103D10005CD46F46384600F08DF8B26B6B00A8F1AA
:103D20001001013B07EBC101AFE70368DA0759D483
:103D300020AF384600F06EF8B36B002D89D1043304
:103D4000B363384600F062F8CFE723F01003036056
:103D500000F5E87000F0C0F810E723F008030360F6
:103D600000F5A87000F08CF834E7D90708D523F0E7
:103D7000010343F0020340F8483B00F053F8336876
:103D8000580706D5304623F0040340F8D03B00F036
:103D900051F820AF384600F045F8684600F04AF880
:103DA000C8F110025200B36BA9F11005013A07EBFC
:103DB000C80153E720AFC2E7012CC0D0B8F10F0F04
:103DC000B36392D8384600F029F88EE723F0040355
:103DD00040F8D03B6F4600F02DF8384600F02AF846
:103DE000B26B9BE7304623F0030340F8483B00F0FA
:103DF00011F89DE700F1340191E838009C46A64691
:103E00004CF8045D90E8FF0FE54600BD90EC210BF7
:103E1000704700BF80EC210B704700BF90EC200B77
:103E2000704700BF80EC200B704700BFD0EC200B28
:103E3000704700BFC0EC200B704700BFF0EC0201E0
:103E4000F0EC0211F0EC0221F0EC0231F0EC024156
:103E5000F0EC0251F0EC0261F0EC0271F0EC028146
:103E6000F0EC0291F0EC02A1F0EC02B1F0EC02C136
:103E7000F0EC02D1F0EC02E1F0EC02F1704700BF8F
:103E8000E0EC0201E0EC0211E0EC0221E0EC023196
:103E9000E0EC0241E0EC0251E0EC0261E0EC027186
:103EA000E0EC0281E0EC0291E0EC02A1E0EC02B176
:103EB000E0EC02C1E0EC02D1E0EC02E1E0EC02F166
:103EC000704700BFB0FC0181B0FC0191B0FC01A1C2
:103ED000B0FC01B1704700BFA0FC0181A0FC0191C2
:103EE000A0FC01A1A0FC01B1704700BFEC4600B5E9
:103EF0002DE900502DE9FF1F4FF000032DE90C00C4
:103F000001A9FFF7DDFBDDF840E012B0704700BF0C
:103F1000EC4600B52DE900502DE9FF1F4FF00003DE
:103F20002DE90C0001A9FFF707FCDDF840E012B015
:103F3000704700BFEC4600B52DE900502DE9FF1F8A
:103F40004FF000032DE90C0001A9FFF715FCDDF887
:103F500040E012B0704700BFEC4600B52DE90050BC
:103F60002DE9FF1F4FF000032DE90C0001ABFFF717
:103F7000DBFBDDF840E012B0704700BFEC4600B557
:103F80002DE900502DE9FF1F4FF000032DE90C0033
:103F900001AAFFF745FCDDF840E012B0704700BF12
:103FA000027A03467AB9427AA2B14168013A10B462
:103FB0004272086803220C1D1A7202025C60000E35
:103FC00010BC1A6070470068013A1A7202021A6047
:103FD000000E7047B02070472DE9F043064685B0CB
:103FE0000D464FF000082846FFF7DAFFB0280446D8
:103FF00000F0DA80070646D500F0F003802B5ED093
:10400000B02B73D01BD8902B00F09B80A02B12D12B
:10401000C34303F007034FF47F621A41010702F420
:104020007F6201D542F48042002319463046FFF7F3
:104030008DFD0028D7D0092005B0BDE8F083C02B46
:104040006DD1C62800F09380C72800F0B28000F040
:10405000F803C02B00F0D280C82800F0DD80C9280A
:10406000E9D12846FFF79CFF020300F00F0002F49D
:10407000702201300243012105233046FFF766FD1F
:104080000028B0D0D7E78300DBB21F1D0DF10C096B
:1040900000231946CDF800900D223046FFF776FB3D
:1040A000039BCDF8009060064CBFDF1BFF18002378
:1040B0000D22194630460397FFF78EFB93E72846FB
:1040C000FFF76EFF24022043B0F5004FB3D0040188
:1040D0000023A2B219463046FFF738FD0028AAD1C6
:1040E00014F4004F18BF4FF001087CE7B12851D0FD
:1040F000B22800F0AD80B3286DD000F0FC03B42BE3
:1041000099D000F007020132012342F4002219463F
:104110003046FFF71BFD00283FF465AF8BE700F04A
:10412000F803D02B87D100F007020132052342F4B7
:10413000002201213046FFF709FD00283FF453AF6C
:1041400079E700F00D030D2B3FF475AF03AF0023AB
:1041500000F00F02194600973046FFF717FB0023C7
:1041600000970D2219463046FFF736FB3BE72846FD
:10417000FFF716FF020300F00F00013002F4702277
:104180000323024319463046FFF7E0FC00283FF4C2
:104190002AAF50E72846FFF703FF431EDBB20E2B82
:1041A00002467FF641AF46E7B8F1000F40D000204D
:1041B00042E72846FFF7F4FE431EDBB20E2B024611
:1041C0003FF639AF002304213046FFF7BFFC00283B
:1041D0003FF409AF2FE72846FFF7E2FE020300F0A5
:1041E0000F00013002F470220123024319463046C9
:1041F000FFF7ACFC00283FF4F6AE1CE700F00F021E
:104200000132032342F4202219463046FFF79EFC78
:1042100000283FF4E8AE0EE72846FFF7C1FE00F0A5
:10422000F00200F00F031032013343EA023222E7BA
:1042300003AC434641460E2200943046FFF7A6FAEF
:10424000009443460F2241463046FFF7C5FAAEE7D9
:1042500000230DF10C090D221946CDF800903046CF
:10426000FFF794FA2846FFF79BFE0206039C4FF0E7
:1042700002070BD500F07F00B840044428460394A1
:10428000FFF78EFE030607F10707F3D400FA07F2E3
:1042900004F50174224400230392CDF800900D220E
:1042A00019463046FFF798FA9DE600BF08B5064B61
:1042B000044613B10021AFF30080044B1B6803B127
:1042C00098472046FFF7A2F8000000006000002099
:1042D00070B50D4D0D4C641BA4100026A64209D1EB
:1042E0000B4D0C4C00F02EF8641BA4100026A642C7
:1042F00005D170BD55F8043B98470136EEE755F8F7
:10430000043B98470136F2E7140000201400002017
:1043100014000020180000200A44914200F1FF33ED
:1043200000D1704710B511F8014B03F8014F9142CD
:10433000F9D110BD02440346934200D1704703F8FF
:10434000011BF9E7F8B500BFF8BC08BC9E467047F2
:10435000F8B500BFF8BC08BC9E46704740787D01A8
:1043600000000000005A620200010000C0CF6A0095
:1043700002000000809FD50002010000002D3101E5
:104380000202000000000000050000000000000024
:1043900040420F0005010000000000000000000086
:1043A00000000000000108070F000A00C8002000FC
:1043B000A000010000000000A00068010A2007061C
:0C43C000020A04070000000000000000DA
:1043CC0080C0FF7F01000000F4C0FF7FB0B0B08060
:1043DC0040C1FF7F01000000D4F0FF7FB0A9028034
:1043EC0060F1FF7FB0B0A880B0F1FF7F010000004A
:1043FC00B8F1FF7FB0B0AA80E8F1FF7FAE71B28058
:10440C00B4F2FF7FAB3F388014F3FF7F0100000054
:10441C001CF3FF7FB0B0AA8054F3FF7F01000000B3
:10442C00F4F3FF7FAA0DB28070F4FF7FB0AF088069
:10443C00F8F6FF7F0100000008F7FF7FAD3F028018
:10444C00A8F9FF7F0100000084FBFF7FB0AD048062
:08445C0050FEFF7F010000008B
:0C44640070440000000000200700000071
:1044700000F0490200800000C0EA2101C0EA2101E9
:0C448000C0EA2101290400000104000032
:04000003000004C92C
:00000001FF
