S0110000637562657361745F52582E733337F3
S21400000000200020A94800002BD201002BD20100BE
S21400001025E901002BD201002BD201002BD20100D2
S2140000202BD201002BD201002BD201002BD20100D3
S2140000302BD20100944102002BD201002BD20100EA
S2140000402BD201009D8B010055B400002BD201007D
S214000050CD830100F1170200ED170200BD8B0100F1
S214000060E5170200C1550000295700002BD20100F9
S21400007079450000694500002BD201002BD2010013
S2140000802BD201002BD20100495700002BD20100D1
S2140000902BD201002BD201002BD201002BD2010063
S2140000A02BD201002BD201002BD201002BD2010053
S2140000B0F18B0100E917020041A900002D8C010018
S2140000C02BD20100556F01002BD201002BD201006C
S2140000D02BD201002BD201002BD201002BD2010023
S2140000E02BD201002BD201002BD201002BD2010013
S2140000F02BD201002BD201002BD201002BD2010003
S2140001002BD201002BD201002BD2010000000000F0
S214000110013800D0FCE77047000000000000000037
S21400012001F0FF01102A2BDB10F0070F08D010F8A3
S214000130013B013A8B422DD010F0070F42B3F6D1A7
S214000140F0B441EA012141EA014122F007047FF0C0
S21400015000070023F0E80256083C85EA010586EA17
S214000160010685FA47F5A3FA87F586FA47F6A5FA53
S21400017087F68EB9EED1F0BC01F0FF0102F007025F
S21400018032B110F8013B013A83EA010313B1F8D10A
S2140001900020704701387047002D06BF35460338EB
S2140001A0073815F0010F07D1013015F4807F02BF24
S2140001B0013015F4C03F0130F0BC0138704700BF75
S2140001C02DE9F04F2DED028B91B082460C469346FA
S2140001D01D46DDE91C23104619461BF05BF8002877
S2140001E000F007814FF0FF32B14BDDE91C011BF038
S2140001F079F8002840F0FD804FF0FF326FF480134E
S214000200DDE91C011BF050F8002840F0F2800022C7
S2140002100023DDE91C011BF047F8002840F0FE80B3
S2140002209DED1C7B8DED067B209B13F480630F9366
S21400023001D106231E93DDE906010246C1F30A50EA
S214000240C1F31303904643F07F5949F44019A0F2D6
S214000250FF301AF04DFD84A3D3E900231AF0B2FD57
S21400026083A3D3E900231AF0F7FB06460F460022C5
S214000270904B404649461AF0EDFB7FA3D3E9002396
S2140002801AF0A0FD02460B46304639461AF0E4FB4B
S2140002901BF032F806461AF02BFD8046894678A3F6
S2140002A0D3E900231AF08EFD0022834B1AF0D4FB0C
S2140002B01BF022F8074674A3D3E9002340464946BC
S2140002C01AF080FD8046894638461AF011FD70A364
S2140002D0D3E900231AF076FD02460B46404649460F
S2140002E01AF0B8FB8046894602460B461AF06AFDAD
S2140002F0CDE90A0107F2FF3700210022CDE90812F6
S2140003003B0509930023089342464B464046494620
S2140003101AF0A2FBCDE90C0142464B4600204FF0F6
S21400032080411AF097FB804689460022634BDDE940
S2140003300A011AF071FE0022614B1AF08DFB02468C
S2140003400B46DDE90A011AF067FE00225D4B1AF043
S21400035083FB02460B46DDE90A011AF05DFE024603
S2140003600B46404649461AF077FB02460B46DDE947
S2140003700C011AF051FE0022534B1AF06DFBDDE91A
S21400038008231AF01FFD8046894649EC188BDDE9E4
S21400039006231AF0A7FF40B1013E0022484B404614
S2140003A049461AF039FE41EC180B06F16303C62BDA
S2140003B03FD80427209B13F4006F44D036A3D3E91C
S2140003C00023DDE90689404649461AF081FF0028E9
S2140003D03FD033A3D3E90023404649461AF064FFD2
S2140003E0002836D01E9BB34225DD9E1B731E1E932F
S2140003F023E0209B04931F9B03931E9B02939DED7B
S2140004001C7B8DED007B2B465A462146504600F05D
S214000410CFF811B0BDEC028BBDE8F08F9FED227BCC
S2140004208DED067B1C9B06931D9B03F100430793F3
S214000430FAE60527BEE700231E93209B43F480635D
S214000440209300273E461F9B9F423FD2A3EB070800
S2140004503EE01E9B002BF6D00F9B002BF3D01E9B7E
S214000460013B1E93EFE700BFFB799F501344D33F39
S214000470B3C8608B288AC63F61436F63A787D23FA5
S21400048071A379094F930A401655B5BBB16B02406C
S214000490EF39FAFE422EE63F2D431CEBE2361A3FBA
S2140004A00000000080842E410000000000000000D4
S2140004B0FFFFEF7F0000F83F0000E03F00002C4009
S2140004C000002440000018400000F03F4FF00008F5
S2140004D0209B13F0020902D00FB14FF000083EB186
S2140004E053EC182BDDE906011AF096FDCDE906015E
S2140004F000220023DDE91C011AF0D6FE00283DD1BB
S214000500209B23F400630493CDF80C801E9B02937B
S2140005109DED067B8DED007B2B465A4621465046C8
S21400052000F046F8002F3FF474AF209B13F0200F26
S2140005302CD04FF0450C00F101082B460246214610
S2140005406046D04786EAE672A2EBE672052305937C
S214000550013F0497002303930A230293F30F0193AA
S21400056000922B464246214650461FF01BFBB9F12F
S214000570000F3FF44EAF02461F9F10E0DDE9060174
S214000580024601F10043CDE90623B9E74FF0650CBA
S214000590D1E7561C2B4621462020D0473246A2EBF8
S2140005A00B03BB42F5D3104633E700BF0000000044
S2140005B02DE9F04F2DED028B95B007900A919246EB
S2140005C09B46DDE92089229D42464B4640464946E9
S2140005D01AF060FE002840D04FF0FF326FF4801310
S2140005E0404649461AF060FE002845D14FF0FF32DB
S2140005F09F4B404649461AF075FE00284BD198A3FB
S214000600D3E90023404649461AF06CFE00285AD12A
S21400061095A3D3E90023404649461AF045FE002834
S21400062051D100220023404649461AF03DFE0028DC
S21400063057D100230B93249B13F4806F5CD00024C7
S2140006401F2C5BD8092D59D904F150036B44302276
S21400065003F8202C013D0134F2E7249B0393239BEF
S214000660029303230193834B00935B4652460A99F9
S21400067007981FF0BDF92CE1249B0393239B02935C
S214000680042301937C4B00935B4652460A990798D5
S2140006901FF0AEF91DE1249B13F004030FD0774A38
S2140006A07BB104232499039123990291019300922C
S2140006B05B4652460A9907981FF09AF909E1704A74
S2140006C0EEE70323EEE7249B0493239B0393029514
S2140006D0CDE900895B4652460A990798FFF770FDF8
S2140006E0F7E042464B46002000211AF0B3F9804658
S2140006F0894601230B939EE70625A0E74046494618
S2140007001AF0FAFD06461AF0F3FA02460B46404681
S21400071049461AF09FF95B4B03EBC50393ED008B3C
S21400072053EC182B1AF04EFB02460B46CDE9082375
S2140007301AF00AFE07461AF0CBFA02460B46DDE927
S21400074008011AF087F902460B46CDE90823002275
S2140007504D4B1AF0C7FD50B3013738461AF0B8FAB9
S21400076002460B4651EC180B1AF0A8FD08B10136EC
S214000770002755BB30461AF0BBFA02460B464046E9
S21400078049461AF067F90746884600223E4B1AF09B
S2140007908BFD38B100223C4B384641461AF0A2FD8C
S2140007A0002842D016F0010F3FD001363DE000226F
S2140007B0354BDDE908011AF077FD0028D9D117B1CD
S2140007C017F0010FD5D00137D3E71F2C17D8013DFE
S2140007D02E4BA3FB0723DB08194603EB8303A7EB8B
S2140007E04303621C303304F150000DEB000404F8A0
S2140007F0203C092F02D90F461446E6E714461F2C64
S2140008000AD86B1E45B104F150026A44302102F842
S214000810201C1D460134F2E71F2C06D804F15003B5
S2140008206B442E2203F8202C01341F2C33D8184A90
S21400083082FB0632F317C3EBA2031A4603EB8303CD
S214000840A6EB4303611C303304F150000DEB0004AB
S21400085004F8203C1646EAB10C46E6E7AFF3008003
S2140008600000000065CDCD410000000065CDCDC183
S214000870FFFFEF7FC8480200CC480200BC480200D9
S214000880C4480200D84802000000E03FCDCCCCCCE3
S214000890676666660C46249B03F00303012B1DD097
S2140008A01F2C09D80B9B002B35D004F150036B444A
S2140008B02D2203F8202C0134249B0393239B0293C0
S2140008C001940CAB00935B4652460A9907981FF0BA
S2140008D08FF815B0BDEC028BBDE8F08F239BB3B14B
S2140008E00B9B1BB9249B13F00C0F12D0239B013BD0
S2140008F02393194606E004F150036B44302203F8B4
S214000900202C01348C42CBD21F2CF4D9C8E7239973
S214000910F8E72399F6E7249B13F0040F07D004F1B9
S21400092050036B442B2203F8202C0134C4E7249B8D
S21400093013F0080FC0D004F150036B44202203F8D4
S214000940202C0134B8E700BF7FB54E6802A90446E4
S21400095020F033FC9DF808300E2B19D1134BB3F959
S2140009600050134B9E4218D806F0AAFF03460068B4
S21400097000909B88ADF804306946204620F00AFCBB
S21400098070B10C490C4840F21C620BF08DFDFEE77E
S214000990204613F0D7FD0546E3E706F08DFFE5E7B2
S2140009A02946204620F00BFC04B070BD344E0020D3
S2140009B0FFC99A3B254C02004C49020038B5044654
S2140009C00D461CF049FD064A13889BB22DB1234301
S2140009D01380BDE838401CF045BD23EA0403F7E762
S2140009E0A4480020034B002201214FF480709A7027
S2140009F0E4E700BFA44800207FB50023134C039310
S214000A00CDE90133FF238DF804301CF025FD228844
S214000A1063880F4E9A4205460DD061887068218023
S214000A2001AA13F07DFB58B10A490B4840F29762C1
S214000A300BF03AFDFEE7706820F06EFA0128ECD065
S214000A4028461CF00FFD04B070BD00BFE02000205B
S214000A50A4480020254C02004C49020038B50F4C33
S214000A60A56835B90E490F4840F27C720BF01CFDA4
S214000A70FEE71FF06CF928440FF088F900F0070035
S214000A80032809D1A468092120461FF07CFA205CBF
S214000A90031F5842584138BD0020FCE7A4480020F8
S214000AA0254C02004C49020010B5114CA378042BCB
S214000AB006D01049104840F244520BF0F5FCFEE711
S214000AC023881B0706D40B490B4840F245520BF00F
S214000AD0EBFCFEE700210820FFF770FF074B60687D
S214000AE002221A7113F0EAFABDE810401EF0F9B8B7
S214000AF0A4480020254C02004C490200E0200020BB
S214000B0010B5084C606813F0D9FA606820F004FA53
S214000B10012806D0012260681146BDE8104020F08A
S214000B20FDB910BDA448002038B5194DAB7833B1D7
S214000B30184919484FF4DC620BF0B6FCFEE71CF0CF
S214000B408BFC298811F00601044609D001214FF4D8
S214000B508070FFF733FF2046BDE838401CF082BCAB
S214000B604FF48070FFF72AFF10F07EFE012805D0B4
S214000B7010F0FD0F05D1FFF73FFFECE7FFF7C0FFD2
S214000B80E9E70449044840F2F6620BF08DFCFEE704
S214000B90A4480020254C02004C49020070B5074DC1
S214000BA095F90C600446FFF7BFFF10F05DFDAA68DC
S214000BB031462046BDE8704010F094BBA4480020A3
S214000BC008B50A4B1B88DB0606D40949094840F2DB
S214000BD069520BF069FCFEE700211020FFF7EEFEDD
S214000BE010F0BEFEBDE808401EF07BB8A44800200A
S214000BF0254C02004C4902000D4B1B889B0710B584
S214000C00044613D500210220FFF7D8FE094B5A7977
S214000C10FF2A06D00849094840F29A420BF044FCE5
S214000C20FEE75C71BDE810401EF05BB810BD00BF6B
S214000C30A4480020E0200020254C02004C49020079
S214000C407047704710B50E4CA37833B10D490E4867
S214000C5040F2C5120BF028FCFEE7A06019B1A17C9B
S214000C60003918BF01212020FFF7A8FE074B0848CF
S214000C709B7923770223A370BDE810400DF0F0BEE9
S214000C80A4480020254C02004C490200E020002029
S214000C90C448002008B50EF0E5FC80F00100C0B2A4
S214000CA008BD0A4B9A780AB1062A0CD11B8803F4B1
S214000CB08B7343B9064B5A79FF2A04D11879FF384B
S214000CC018BF012070470120704700BFA4480020CD
S214000CD0E020002008B50EF0B5FC0028FBD108BDCA
S214000CE00C4B42881A8242789A740278DA748288A8
S214000CF09A82C288DA82C2689A61074A017A91713A
S214000D00028A198D914204D001214FF400701A8591
S214000D1054E67047A4480020E0200020094B1A8AB9
S214000D2042809A7C4270DA7C02709A8A8280DA8AE2
S214000D30C2809A69C260044A1B8D9279027203824D
S214000D40704700BFA4480020E02000204B1E012B67
S214000D5070B50C4606D91B491B484FF42A720BF097
S214000D60A3FBFEE7194D0A460146686820F03BFBE8
S214000D7030B11449144840F2AA220BF095FBFEE766
S214000D806E680DF0E1FD22460146304620F025FB58
S214000D9030B10C490C4840F2AE220BF085FBFEE762
S214000DA06D680DF0DDFD22460146284620F021FB49
S214000DB030B10449044840F2B2220BF075FBFEE75E
S214000DC070BD00BF254C02004C490200A44800201C
S214000DD0054BDB791B0913F00E0003D0052B8CBFE7
S214000DE000200120704700BFE0200020044BDB7984
S214000DF01B0913F00E0F0CBF01200020704700BF28
S214000E00E02000202DE9F04F16469A0591B0814665
S214000E101F4603D501218020FFF7D0FDF3014FF0D8
S214000E20000852D59A4C23889D074ED5994D6B796C
S214000E30FF2B06D09849994840F266420BF034FBE7
S214000E40FEE7A36833B99449944840F267420BF032
S214000E502BFBFEE741460220FFF7B0FDA37885F89E
S214000E600580042B03D101210820FFF7A7FD8C4A3B
S214000E706068002120F0C2F930B18749874840F207
S214000E8071420BF011FBFEE7FFF7A2FFA8B9D4F8FA
S214000E9004801EF05CFF0546A0681EF063FF29185C
S214000EA07F4A89B2404620F0BAF930B17A497B4889
S214000EB040F277420BF0F8FAFEE7A378032B02D154
S214000EC0606813F0FBF81DF00CFFB80702D5012090
S214000ED0FFF792FE16F0A84F02D00220FFF78CFE16
S214000EE0B10220D50021402005ACFFF767FD214662
S214000EF0484620F0A4FAB0B99DF81C30022B0AAA86
S214000F0022D18DF83030BDF81430ADF828301046B8
S214000F1010F0B2FB38B1484620F08FFA18B901211C
S214000F204020FFF74BFD320752D5594D05AA686899
S214000F30032120F023FA804688B95749574840F2E3
S214000F40B3420BF0B1FAFEE7032B05BFD4E900016C
S214000F508DF830308DF83000C2E90001D7E79DF8F3
S214000F6014306868072B40F022810AAA414620F018
S214000F7009FA824630B14849484840F2B6420BF07A
S214000F8093FAFEE7FFF724FFBDF8161090B9FFF7B7
S214000F902DFF68B10431686889B20AAA20F0F4F916
S214000FA040B13D493D4840F2C7420BF07DFAFEE7AE
S214000FB00231F0E7BDF816000730012180B20EF0CE
S214000FC09BFA039000284AD101210C2011F092FAD6
S214000FD0B10705D52E4B1B881A0701D5FFF764FD10
S214000FE0B3010AD500210420FFF7E8FC284B9A78C5
S214000FF0012A02D1586813F061F816F0284F03D082
S21400100000210420FFF7DAFC7E060CD5204C23884E
S2140010101D0701D5FFF748FD2388580703D5002193
S2140010200420FFF7CBFCF90540F1CF8048461FF0BF
S21400103071FF022802D0032840F0C080144C238899
S2140010405A0703D500210420FFF7B8FC23889B0726
S21400105040F1BB80012011B0BDE8F04FCCE50EF0AA
S21400106021F94FF0000BCDF800B0BDF8163002465F
S21400107004464146686820F0A1F9BDF81630834260
S21400108010D0054905484FF49B620BF00DFAFEE7B9
S214001090A4480020E0200020254C02004C49020015
S2140010A0D04800201EF053FE20440EF06FFE00F0E5
S2140010B00700022823D1AB78042B89D11EF047FE07
S2140010C0434B20441B7882789A4281D159460820A7
S2140010D0FFF774FC1EF03BFE20440EF057FE3D4B1F
S2140010E0C0F3001018719DF836302B73FFF7B6FC6E
S2140010F000287FF46DAF686812F0E0FF68E71EF026
S21400110026FE20440EF042FE830649D51EF01FFE42
S21400111020440EF03BFE00F00700032828D00121F3
S2140011200420FFF74BFC20F053F92863BDF8163077
S2140011309DF83620E254BDF816309DF8372023443B
S21400114001209A71BDF816100A9A013121440EF05A
S2140011502BFEBDF8163003981C4484F805A00EF04C
S2140011605FFA1D4B18780DF081FD1DF0BAFD2FE7D4
S214001170092120461EF007FF205C04284FF00101DD
S214001180CED1FFF71BFC20F023F928632B885806E6
S214001190CCD559464020FFF711FC4FF0010AC5E7B1
S2140011A0AB78012BC2D1686812F088FFBEE720F04A
S2140011B0DFF86868414620F0FEF809E70749084866
S2140011C040F2B5520BF070F9FEE711B0BDE8F08FB3
S2140011D011490020E020002014480020254C020081
S2140011E04C49020008B50246FFF7F2FD30B1072A67
S2140011F006D8044B002083F8342008BD7020FCE796
S2140012000220FAE7A448002008B50246FFF7E0FDF2
S21400121028B1044B93F834301370002008BD7020BA
S214001220FCE700BFA448002008B5074B0146002293
S214001230586820F0D8F830B1044905484FF43772A2
S2140012400BF032F9FEE708BDA4480020254C02004A
S2140012504C49020008B5074B01460022586820F0AA
S214001260BCF830B10449054840F2E2220BF01CF904
S214001270FEE708BDA4480020254C02004C490200A9
S21400128008B5074B0146586820F0B9F830B1054953
S21400129005484FF43A720BF007F9FEE708BD00BFA9
S2140012A0A4480020254C02004C49020008B5064B15
S2140012B09B7833B10549064840F2F2220BF0F4F869
S2140012C0FEE7BDE808402FE4A4480020254C0200B5
S2140012D04C49020008B5044B014658681FF06FFFE2
S2140012E0002818BF8B2008BDA4480020014B586872
S2140012F013F028B9A4480020014B5888704700BF57
S214001300E02000207FB50123ADF80E3009484FF6E7
S214001310FE7300930DF10E02002304A940681FF02F
S214001320CDFE012894BFBDF810004FF6FF7007B041
S2140013305DF804FBA448002008B5044B0146586835
S2140013401FF042FEB0FA80F0400908BDA448002015
S21400135038B50B4DAB78012B04460DD8FFF7ECFFE4
S21400136060B1084B5C80AB781BB9FFF7DDFB002053
S21400137038BDFFF741FBFAE73E20F9E78A20F7E79A
S214001380A4480020E0200020024B9B780BB9FFF712
S214001390CBBB7047A4480020014BD874704700BFF1
S2140013A0A448002008B5054B012158681FF0D9FD58
S2140013B00028B8BF033040F3870008BDA4480020CB
S2140013C008B5044B58681FF0FBFD034BB3FBF0F069
S2140013D080B208BDA448002040420F0030B58DB052
S2140013E02C220446002101A820F071FD0123264D81
S2140013F08DF808304FF002326423CDE903230693BC
S2140014000B238DF82C302B8DADF80A30FFF7E0FC5F
S214001410A0B140F2F23307934FF47A7305930CB9F8
S214001420FFF76EFB686801A913F060F9B8B11749B9
S214001430174840F269620BF037F8FEE7FFF7C0FF87
S2140014400C234343902BA3F10A0207930592DCBFBB
S21400145091230793059B8B2BE1D88C23DEE7FFF7C0
S214001460C5FC60B10122686811461FF0D6FF30B196
S2140014700649074840F26C620BF016F8FEE70CB916
S214001480FFF752FB0DB030BDA4480020254C0200EB
S2140014904C490200F8B5574C1BF0DEFF2388D905EF
S2140014A0064603D5A37843BBFFF73EFB524D6B7948
S2140014B0FF2B13D06B7903F0FF0723BBFF236B7161
S2140014C0A378032B0AD100233046A3701BF0CAFF73
S2140014D03846FFF763FB1BF0BFFF0646A378042BD6
S2140014E008D12B79FF2B05D02B79022B14D143483A
S2140014F00DF0B6FAFF232B7128E000214FF4807020
S214001500FFF75CFAD2E76B79012B4FF0FF036B71A4
S21400151014BF89278D27D6E72B7913B12B79012B9A
S2140015201FD1FFF79BFA2B790022FF212971DBB22E
S21400153084F820200546002848D0012B0AD12F48E1
S214001540A37064210DF097FAFFF756FA30461BF0A9
S21400155089FF06E03046A2701BF084FF3120FFF7BB
S2140015601DFB23881A0608D500218020FFF726FADF
S21400157060681FF097FE10F0D4F923889B0507D506
S2140015804FF400700021FFF719FA0020FFF726FF3E
S2140015900EF058F8E08628B30DF084FE01210546CB
S2140015A0002010F0A7FFA678012E15D1002684F89B
S2140015B02060A670FFF7B8FA28460FF0CDFDA37896
S2140015C0E6867BB9BDE8F84010F04EB8A07030460D
S2140015D01BF048FF2846C2E72EB128460FF0BCFD98
S2140015E00023E386F8BDFFF79FFA28460FF0B4FD08
S2140015F0E686F7E7A4480020E0200020C448002044
S2140016007FB5794C2388DB0700F1E7800121774D11
S2140016100846FFF7D3F905237549A37005F10800BE
S21400162012F01EFD606028B972497348F3220AF072
S2140016303BFFFEE771481FF0B0FC69A3D3E9002327
S214001640CDE900234FF0FF324FF0FF3360681FF004
S21400165033FD4FF48811606812F0D2FF014630B1B6
S2140016606449654840F20B120AF01EFFFEE7644B21
S2140016701B78012B0ED1634A606812F04DFF60683C
S21400168013F062F8E0B15B495B4840F217120AF0CB
S2140016900BFFFEE75C4E316831B9564956484FF4A9
S2140016A08D720AF001FFFEE7564A606812F034FFBA
S2140016B033689B6823B1DB6913B15B7803B1EB71C8
S2140016C0FFF720FE514B68801B78C3EB431203EBF9
S2140016D08203DB0001202385FFF780FE65680DF09E
S2140016E03FF90022014628461FF083FE054630B12A
S2140016F04049414840F22D120AF0D6FEFEE740F27D
S21400170003532382424B04261B78E374A674FFF728
S21400171057FE00EB80039B00A382FFF751FEC0003C
S214001720E08231466068A5611FF048FC30B131495F
S21400173031484FF49E720AF0B7FEFEE76068324604
S21400174003A91FF0E1FC042806D02A492A484FF4D2
S214001750A0720AF0A9FEFEE703A901200EF032FBF4
S21400176009F09CFE606808224FF0FF311FF0AEFCC7
S21400177030B12049204840F249120AF095FEFEE7B3
S21400178013F050F930B11B491B4840F24F120AF0D3
S2140017908BFEFEE7FFF71CFB68B11CF073F80146F2
S2140017A060681FF0F7FC30B11249134840F253123C
S2140017B00AF07AFEFEE76468FFF7A4FD154B0146C3
S2140017C003F10C02204612F0B9FC30B109490A4870
S2140017D04FF4AD720AF068FEFEE704B070BD00BFBD
S2140017E00A0020FF42030000A4480020E02000205A
S2140017F0E5090000254C02004C490200690345EC4F
S214001800F64800204909000018200020E3210020A7
S214001810E2210020504C020008B5044B58681FF027
S214001820D1FB034BB3FBF0F080B208BDA448002008
S21400183040420F002DE9F043864D2B889B0787B06A
S21400184006D48549854840F201720AF02DFEFEE76F
S214001850AB78033B012B06D97F49804840F20372E0
S2140018600AF022FEFEE7AA6832B97B497B4840F2BE
S21400187006720AF019FEFEE7794E2C88F77914F006
S214001880200418BF4FF47A744FEA1718FFF7A0FA2F
S214001890002872D0B8F1020F0AD0A8F10303022B79
S2140018A069D96D496D4840F21A720AF0FDFDFEE7EF
S2140018B0032795F8343008EBC8089844694B03EBC7
S2140018C048031046B3F81C801EF04CFA4FF4FA5347
S2140018D043437822B3FBF8F37733B3FBF2F31F44AA
S2140018E0C7EB0717AB78FF00BFB204F5347417FADE
S2140018F084F4042BA4B203D107F6E8072744BCB24D
S214001900D5F808801EF023FA0746A8681EF02AFAC3
S21400191007441EF042FABFB23F1A1EF018FA4044BF
S2140019200EF034FA64238DF80C304F4BD5F8049043
S214001930CDE90434C0F340141EF03BFABFB20346B0
S21400194041463A4648461FF015FD2B88718831807F
S21400195013F0200F03AB75D000936868434B224604
S21400196012F0C2FB002872D03B493C4840F2D962D4
S2140019700AF09AFDFEE706279BE7FFF737FA0028EE
S21400198044D0384B07F00F0708EBC801394403EB87
S21400199041031046B3F81C901EF0E4F9B8F1000FAE
S2140019A02AD0B8F1010F2AD1400080B24FF00408C7
S2140019B0F3191B7E4BB10233034443449BB24FF4EE
S2140019C0FA525343B3FBF9F39CB2AB78042B97D18E
S2140019D03744FFF7F5FC3B7E053398448146FFF716
S2140019E01BFF0C2308FB00F003FB09F909EBC009F9
S2140019F0A1441FFA89F483E74FF00208D8E7164996
S214001A00164840F23B720AF04FFDFEE7FFF704FF70
S214001A100746A8681EF0A6F9AB780930784304EBB1
S214001A20C000042B84B27FF46BAFFFF7C9FC0746F7
S214001A30FFF7F2FE602358430C2303FB0700204405
S214001A4084B25DE76868224612F040FB8AE707B07A
S214001A50BDE8F083A4480020254C02004C49020053
S214001A60E0200020504C020020A10700B4480020CF
S214001A70F8B5484C258815F0020506D04649474873
S214001A804FF4B3720AF010FDFEE784F820501BF006
S214001A90E3FC23885A0706460AD51FF099FC236BF9
S214001AA0C01A238D984203D929460420FEF786FFE4
S214001AB030461BF0D7FCA778022F37D11BF0CCFCA2
S214001AC0238813F00405064607D035480CF0C8FFF7
S214001AD03046BDE8F8401BF0C5BC1BF0C3FCA06850
S214001AE00FF0FAFD20B1A570BDE8F840FFF756B834
S214001AF01BF0B2FCA66805461EF029F930440EF02D
S214001B0045F910F0200F0CBF0323042301213846AB
S214001B10A370FEF753FFFFF78DFE28461BF0A2FCCE
S214001B2001210846BDE8F84010F0E4BC042F27D198
S214001B301C4B1B79FF2B2CD1237FF3B11BF08CFCA5
S214001B4023885B07054604D515480CF089FF284610
S214001B50BFE71BF087FC237F013B23771BF07CFC51
S214001B60012104460220FEF729FFFFF763FE204608
S214001B701BF078FC01210820D4E7A3704020B3E7CF
S214001B80012F06D160680023A37012F097FA312067
S214001B90AAE7F8BDA4480020254C02004C490200E4
S214001BA0C4480020E020002038B50121044610205B
S214001BB0FEF704FF064B5D68FFF702FC054B00FBD3
S214001BC004F1012228461FF0ADF9002038BD00BF01
S214001BD0A4480020C10B000010B50A4C2388DB0681
S214001BE006D40949094840F275320AF05DFCFEE762
S214001BF010200021FEF7E2FE6068BDE810401FF0EE
S214001C009FB900BFA4480020254C02004C490200A2
S214001C1038B50D4DE88E30B90C490D4840F2823289
S214001C200AF042FCFEE70DF03DFB0446E88E0DF0A0
S214001C3055FB811F214401200EF0C4F804461FF016
S214001C40C7FB001B38BD00BFA4480020254C02007F
S214001C504C49020010B5074CA36833B9064907483B
S214001C6040F291320AF020FCFEE71FF0B1FBE36A77
S214001C70C01A10BDA4480020254C02004C490200A2
S214001C8038B50A4DE88E30B909490A4840F29B3209
S214001C900AF00AFCFEE70DF005FB0446E88E0DF0A0
S214001CA01DFB044414F8020C38BD00BFA4480020F5
S214001CB0254C02004C49020038B50A4DE88E30B972
S214001CC009490A4840F2AA320AF0EEFBFEE70DF098
S214001CD0E9FA0446E88E0DF001FB044414F9070CFB
S214001CE038BD00BFA4480020254C02004C49020025
S214001CF038B50A4DE88E30B909490A4840F2B9327B
S214001D000AF0D2FBFEE70DF0CDFA0446E88E0DF0A1
S214001D10E5FA044414F9010C38BD00BFA4480020BD
S214001D20254C02004C490200024B1888C0F3C01034
S214001D30704700BFA448002030B50F4B05460FCBB8
S214001D4085B06C4684E80F000DB12B6800930B4BF2
S214001D5021465868002212F00BFC044630B10849B0
S214001D60084840F2D7320AF09FFBFEE7FEF744FE33
S214001D70204605B030BD00BFD84C0200A448002065
S214001D80254C02004C49020008B5074B014658682E
S214001D901FF08AFA30B10549054840F2E5320AF0EC
S214001DA083FBFEE708BD00BFA4480020254C0200C8
S214001DB04C49020008B5064B58681FF08CFA30B143
S214001DC0044905484FF47C720AF06EFBFEE708BD36
S214001DD0A4480020254C02004C490200024B012278
S214001DE0586811461FF09AB8A44800207047F8B506
S214001DF0054604200C461DF08CFF03061DD5104E2C
S214001E00B778D7B91DB1012D02D00220F8BD012741
S214001E102046FFF791FA0028F7D070683A46214628
S214001E201FF095F830B1074907484FF486620AF06C
S214001E303BFBFEE70623B370E8E77020E6E700BF4B
S214001E40A4480020254C02004C49020010B504208E
S214001E501DF05FFF030610D5094CA378062B0CD1A6
S214001E6060681FF077F830B10649074840F24942EB
S214001E700AF01AFBFEE7A07010BD7020FCE700BF5A
S214001E80A4480020254C02004C49020008B503492E
S214001E90034840F261520AF007FBFEE7254C0200B9
S214001EA04C4902000348044B834202D0034B03B163
S214001EB01847704710220020102200200000000063
S214001EC00548064B1B1AD90F01EBA301491002D097
S214001ED0034B03B118477047102200201022002041
S214001EE00000000010B5064C237843B9FFF7DAFF70
S214001EF0044B13B10448AFF300800123237010BDD8
S214001F00E44E002000000000606D020008B5054B9E
S214001F101BB105490548AFF30080BDE80840FFF750
S214001F20CFBF00BF0000000040240020606D02000C
S214001F30A3F5803A704700BF174B002B08BF134B22
S214001F409D46FFF7F5FF00218B460F461348144ABF
S214001F50121A1FF0BCFF0E4B002B00D098470D4BFB
S214001F60002B00D098470020002104000D000D48EB
S214001F70002802D00C48AFF3008019F031FD200095
S214001F8029001BF030F819F077FB00BF00000800AE
S214001F9000000000000000000020002010220020AA
S214001FA0404F00200000000000000000BFF34F8FED
S214001FB00549CA6802F4E062044B1343CB60BFF3E2
S214001FC04F8F00BFFDE700BF00ED00E00400FA05FC
S214001FD038B504461CF0C4FFA04201D8012038BD25
S214001FE00546032002F0E0FA08B90020F7E71BF0E8
S214001FF0CAF81BF0C9F82B46224603490348006876
S2140020001CF0F6F9F1E700BF602302008C280020E0
S21400201030B583B08368C26853F822301C78631EDC
S214002020DBB2032B16D8019404230DEB0302012127
S2140020302348006811F07CFC0546D8B9214B1C707B
S214002040032002F0B1FA28BB032002F0ADFA60BB11
S21400205003B030BD012002F0A7FA0028F8D01BF02C
S21400206092F81BF091F822461749184B18681CF096
S214002070BFF9EDE7012002F097FA0028E8D01BF040
S21400208082F81BF081F82A461149104B18681CF09C
S214002090AFF9DDE71BF077F81BF076F822460D491E
S2140020A00A4B18681CF0A4F9CEE71BF06CF81BF07E
S2140020B06BF80949054B18681CF09AF9C8E700BF89
S2140020C098200020D6210020982302008C2800208B
S2140020D0C0230200E42302001C24020030B583B0B3
S2140020E004468368C26853F822301D782846FFF7F6
S2140020F06FFF08B903B030BD00230093ADF804307D
S214002100164B1B88ADF80230ADF804506368E268E1
S2140021109B1A012B1DDDA368013253F822301B8861
S214002120ADF800301CF00CFF694603201CF00CFFD5
S2140021300446032002F038FA0028DBD01BF023F810
S2140021401BF022F822460649064B18681CF050F988
S214002150D0E740F2FF13ADF80030E3E7224E002050
S214002160382402008C28002030B583B004468368EB
S214002170C26853F822301D782846FFF729FF08B9B1
S21400218003B030BD00230093ADF80430154B1B8818
S214002190ADF80230ADF804506368E2689B1A012B74
S2140021A01BDDA368013253F822301B88ADF80030DF
S2140021B0694604201CF0C8FE0446032002F0F4F929
S2140021C00028DDD01AF0DFFF1AF0DEFF22460649AF
S2140021D0064B18681CF00CF9D2E740F2FF13ADF876
S2140021E00030E5E7224E0020582402008C2800200C
S2140021F030B583B004468368C26853F822301D7831
S2140022002846FFF7E5FE08B903B030BD002300936B
S214002210ADF80430154B1B88ADF80230ADF804500D
S2140022206368E2689B1A012B1BDDA368013253F832
S21400223022301B88ADF80030694602201CF084FE70
S2140022400446032002F0B0F90028DDD01AF09BFF08
S2140022501AF09AFF22460649064B18681CF0C8F882
S214002260D2E740F2FF13ADF80030E5E7224E00203B
S2140022706C2402008C28002030B583B08368C268C6
S21400228053F822301C780023019343689B1A012BD5
S21400229019DD01AA01211BF091FB01469DF80400FF
S2140022A01CF04AFE054680B1022002F07DF960B1BE
S2140022B01AF069FF1AF068FF2A460F490F4B186894
S2140022C01CF096F801E01CF03BFE20461CF040FE99
S2140022D0044608B903B030BD032002F065F90028B3
S2140022E0F8D01AF050FF1AF04FFF22460449034B6D
S2140022F018681CF07DF8EDE7882402008C28002082
S214002300A02402002DE9F04182B01CF0DAFD05465B
S214002310854B1B7813F0020F3ED0844E13F0010F4E
S2140023203CD0824F13F0040F3AD0DFF8008203202F
S21400233002F03AF9002836D1032002F035F90028D9
S2140023403BD1032002F030F9002845D1032002F0EB
S2140023502BF900284ED1032002F026F9002857D189
S214002360032002F021F9002860D1032002F01CF9B6
S214002370002869D1032002F017F9002872D1032043
S21400238002F012F900287BD1032002F00DF9002894
S21400239040F08780082490E0654EBFE7644FC1E7B1
S2140023A0DFF88C81C3E71AF0EEFE1AF0EDFE614905
S2140023B0614B18681CF01CF8BEE71AF0E4FE1AF031
S2140023C0E3FE5D4B1C6805F0A3F802460B465B492E
S2140023D020461CF00DF8B4E71AF0D5FE1AF0D4FE2D
S2140023E0554B1C681CF045FD0246554920461BF01F
S2140023F0FFFFABE71AF0C7FE1AF0C6FE4E4B1C688E
S2140024001CF06BFD02464F4920461BF0F1FFA2E789
S2140024101AF0B9FE1AF0B8FE474B1C681CF055FDC2
S2140024200246494920461BF0E3FF99E71AF0ABFE47
S2140024301AF0AAFE404B1C681CF04BFD02464349AE
S21400244020461BF0D5FF90E71AF09DFE1AF09CFE82
S214002450394B1C681CF021FD02463D4920461BF006
S214002460C7FF87E71AF08FFE1AF08EFE324B1C6805
S2140024701CF01BFD0246374920461BF0B9FF7EE7DD
S2140024801AF081FE1AF080FE2B4B1868324B1A7831
S214002490FF2A04D0314B32491BF0AAFF74E7314BB8
S2140024A0F9E71AF070FE1AF06FFE2F49224B1868F3
S2140024B01BF09EFF6EE7013CE4B28CB1032002F0F5
S2140024C073F80028F7D01AF05EFE1AF05DFE2B199E
S2140024D013F8012C2549184B18681BF089FFEAE70A
S2140024E0032002F061F830B9032002F05DF860B90D
S2140024F002B0BDE8F0811AF046FE1AF045FE1C490F
S2140025000D4B18681BF074FFEEE71AF03CFE1AF04D
S2140025103BFECDF800803B4632461649064800682A
S2140025201BF066FFE4E700BFD7210020BC240200B2
S214002530C4240200EC2402008C280020F4240200AC
S214002540102502002C250200482502006425020002
S2140025508025020098250200D6210020E4240200EF
S214002560B0250200D0240200C8250200DC250200A7
S214002570A0470200E425020030B583B08368C26835
S21400258053F822301C7801A920461CF082FC88B93A
S214002590032002F009F808B903B030BD1AF0F3FDC5
S2140025A01AF0F2FD019B22460B490C4800681BF00E
S2140025B01FFFF1E70546012001F0F6FF0028EBD0EB
S2140025C01AF0E1FD1AF0E0FD2A460549034B1868AB
S2140025D01BF00EFFE0E700BF1C2602008C28002040
S2140025E03826020070B58268C36852F823100C784B
S2140025F0013352F823301D78294620461CF098FCFB
S21400260080B9032001F0D0FF00B970BD1AF0BBFD01
S2140026101AF0BAFD2B4622460B490C4800681BF000
S214002620E7FEF2E70646012001F0BEFF0028ECD0E8
S2140026301AF0A9FD1AF0A8FD32460549034B1868A2
S2140026401BF0D6FEE1E700BF5C2602008C280020C7
S2140026508C26020008B5022001F0A6FF10B91CF077
S2140026607BFC08BD1AF08FFD1AF08EFD0249034B65
S21400267018681BF0BDFEF2E7BC2602008C2800207E
S21400268000B583B08368C26853F822301A78144BBA
S2140026901A70032001F088FF10B903B05DF804FB40
S2140026A01AF071FD1AF070FD0E4B18680C4B197875
S2140026B011F0020F0DD00C4A11F0010F0BD00A4B8F
S2140026C011F0040F09D00849009108491BF090FE4C
S2140026D0E3E7074AF0E7064BF2E70549F4E700BFF1
S2140026E0D72100208C280020BC24020000270200EE
S2140026F0C424020008B58368C26853F822301A88DA
S214002700094B1A80032001F04FFF00B908BD1AF0EC
S2140027103AFD1AF039FD044B1A880449044B186830
S2140027201BF066FEF2E700BFA0210020342702005F
S2140027308C28002008B50A4B186810B10CF090F9E8
S21400274008BD012001F030FF0028F9D01AF01BFD6B
S2140027501AF01AFD0349044B18681BF049FEEFE710
S214002760D4240020502702008C28002010B50346F1
S2140027708168C26851F82200B0F900001A4C208027
S2140027805B689B1A012B0FDD013251F8223093F95A
S2140027900010003918BF01211CF083FBA0B90320EC
S2140027A001F002FF10B910BD0021F5E71AF0EBFCAE
S2140027B01AF0EAFC0D4B1C681CF077FB02460C492D
S2140027C020461BF015FEEEE7012001F0EDFE002886
S2140027D0E9D01AF0D8FC1AF0D7FC0649034B186863
S2140027E01BF006FEDFE700BF224E00208C280020EC
S2140027F0782702008C27020030B595B004460D46B7
S21400280068461AF07DFB0DF12C0EEC46BCE80F0076
S214002810AEE80F00BCE80F00AEE80F00DCF80030B2
S214002820CEF800300BA94D4B18681CF0E5FD10F1F2
S214002830880F54D00BA81CF06DFE484B18681CF08F
S214002840C3FD68461AF05CFB0DF12C0EEC46BCE8A6
S2140028500F00AEE80F00BCE80F00AEE80F00DCF893
S2140028600030CEF800304FF410510BA81AF068FB79
S2140028708023ADF82E304FF440730A930AA81AF05E
S21400288050FB0A9B0E93364B0F93344B1A680C9BE7
S2140028900D9213F0FF0F04D123F0FF0343F0010362
S2140028A00C9301230C932D4B2A4621460BA81CF0B3
S2140028B0C6FD04460BA81CF02DFE04BB032001F049
S2140028C073FE80B9254B18681CF0DBFA054680BB02
S2140028D0032001F069FE044608BB01242EE00BA885
S2140028E01CF018FEADE71AF04EFC1AF04DFC1B4B20
S2140028F01A681C491C4B18681BF07AFDE2E7032097
S21400290001F052FE0028DDD01AF03DFC1AF03CFC27
S21400291022461649144B18681BF06AFDD2E71AF0D7
S21400292032FC1AF031FC12490F4B18681BF060FDA0
S21400293004E0032001F038FE044610B9204615B026
S21400294030BD1AF020FC1AF01FFC2A460949064B37
S21400295018681BF04DFD0024F0E700BF5824002047
S21400296000444004A42702008C280020D42702003C
S214002970F82702001828020000B583B00021019154
S21400298001AA1BF01BF8019910290ED0032001F0B4
S2140029900BFE60B11AF0F7FB1AF0F6FB10220549A1
S2140029A0054B18681BF024FD01E0FFF725FF03B078
S2140029B05DF804FB382802008C28002008B51CF0BF
S2140029C064FA032001F0F0FD00B908BD1AF0DBFB45
S2140029D01AF0DAFB0249034B18681BF009FDF4E70E
S2140029E0602802008C28002030B583B000230193B5
S2140029F004230DEB030201215C48006810F0E2FF9F
S214002A0018B9019B0BB1042B0CD91CF05AFA0546D9
S214002A10032001F0C9FDB8B9032001F0C5FDE8B9EF
S214002A20072426E0032001F0BFFD10B99DF80440FE
S214002A3084E01AF0A8FB1AF0A7FB019A4C494D4B0C
S214002A4018681BF0D5FCF1E71AF09DFB1AF09CFB0A
S214002A504949484B18681BF0CBFCDDE71AF093FB9E
S214002A601AF092FB4549434B18681BF0C1FCD7E7A8
S214002A70013C002C0FDB032001F096FD0028F7D068
S214002A801AF081FB1AF080FB2A5D3D49394B186825
S214002A901BF0AEFCECE7032001F086FD08B900242D
S214002AA016E01AF070FB1AF06FFB3649314B1868C7
S214002AB01BF09EFCF3E7012343B904EBC400082295
S214002AC02946314B18441FF0D8F988B10134E4B2D6
S214002AD0032C2AD80023072BEDD804EBC40C2A4A73
S214002AE06244D25C12B90133DBB2F4E70023E3E7B9
S214002AF004EBC404244B23441C7A032001F054FD49
S214002B0040B9009404236A4601211848006810F072
S214002B100FFF13E01AF037FB1AF036FB22461B496C
S214002B20144B18681BF064FCEBE7012001F03CFD39
S214002B3038B9012001F038FD68B9FF24204603B0FB
S214002B4030BD1AF020FB1AF01FFB1149094B18681C
S214002B501BF04EFCEDE71AF016FB1AF015FB0D49BC
S214002B60044B18681BF044FCFF24E7E7982000207D
S214002B70802802008C280020A0280200D02802000E
S214002B80DC250200A0470200B82B0200DC28020069
S214002B90102902003429020038B51CF0C5F9044695
S214002BA0032001F001FD70B9932C1BD0002C39D105
S214002BB0032001F0F9FC58BB264B00221A70264B66
S214002BC001221A7038BD1AF0DEFA1AF0DDFA234B2D
S214002BD01D681CF04EF903462246214928461BF084
S214002BE007FCE1E7032001F0DFFC38B90023194AAF
S214002BF01370194A137000F0F5FEE3E71AF0C3FAF3
S214002C001AF0C2FA1749154B18681BF0F1FBEDE7EE
S214002C101AF0B9FA1AF0B8FA1349104B18681BF0F4
S214002C20E7FBC9E7012001F0BFFC38B90023094AD9
S214002C301370094A137000F0D5FEC3E71AF0A3FA22
S214002C401AF0A2FA22460949044B18681BF0D0FB7A
S214002C50ECE700BFE64E0020E54E00208C28002062
S214002C606C29020098290200BC290200E42902000F
S214002C7010B582B06946002001F046FF88B90320EF
S214002C8001F092FC08B902B010BD1AF07CFA1AF0F6
S214002C907BFA019B009A0B490B4800681BF0A8FBC7
S214002CA0F1E70446012001F07FFC0028EBD01AF083
S214002CB06AFA1AF069FA22460449034B18681BF0B0
S214002CC097FBE0E7142A02008C280020442A020022
S214002CD010B594B008F044FF01F096FE90BB01F0EA
S214002CE073F9FFF781FE774B1870FF283BD003205F
S214002CF001F05AFC002853D10124734B1C600BA82A
S214002D001AF02BF90BA920461CF076FB10F1880F61
S214002D1052D00BA81CF0FEFB032001F045FC002857
S214002D2040F0BC80684B18681CF0ABF8FFF734FF27
S214002D30FFF79EFF032001F037FC002840F0B88024
S214002D4014B010BD0446012001F02EFC0028C6D0A9
S214002D501AF019FA1AF018FA22465C495C4B186801
S214002D601BF046FBBBE7012001F01EFC70B90120FA
S214002D7001F01AFC0028BAD01AF005FA1AF004FA84
S214002D805449534B18681BF033FBB0E71AF0FBF9B5
S214002D901AF0FAF950494E4B18681BF029FBE6E783
S214002DA01AF0F1F91AF0F0F9464B1A784B49484BED
S214002DB018681BF01DFB9FE7032001F0F5FB0028B9
S214002DC051D10BA81CF0A6FB68461AF0C6F80DF108
S214002DD02C0CEE46BEE80F00ACE80F00BEE80F0075
S214002DE0ACE80F00DEF80030CCF80030364B1A683E
S214002DF00C9B0D9213F0FF0F04D123F0FF0343F05A
S214002E0001030C93364B0F934FF440730A930AA8B2
S214002E101AF0B4F80A9B0E934FF410510BA81AF050
S214002E20BCF88023ADF82E3001230C93264B1022DD
S214002E302C490BA81CF003FB04460BA81CF06AFBED
S214002E40DCB9032001F0B0FB00283FF46BAF1AF0AA
S214002E509AF91AF099F91C4B1A6823491C4B186802
S214002E601BF0C6FA5EE71AF08EF91AF08DF91F49C4
S214002E70174B18681BF0BCFAA3E7012001F094FB7F
S214002E8000283FF44FAF1AF07EF91AF07DF922467B
S214002E9017490F4B18681BF0ABFA43E71AF073F9A3
S214002EA01AF072F913490A4B18681BF0A1FA39E7B1
S214002EB01AF069F91AF068F90F49054B18681BF003
S214002EC097FA3DE7D621002058240020682A020001
S214002ED08C280020C42A0200A02A0200E82A020049
S214002EE000444004002000203C2B0200142B02006B
S214002EF0602B0200802B0200A02B0200BFF34F8F36
S214002F000549CA6802F4E062044B1343CB60BFF382
S214002F104F8F00BFFDE700BF00ED00E00400FA059C
S214002F2070B50546C388052B1DD983685E789C78E6
S214002F30DA7844EA02241A7944EA02445B7944EADD
S214002F400364032001F030FBE8B96A88144B1A804A
S214002F50144B1E70144B1C60144B00221A70144B3A
S214002F6001221A7070BD012001F01EFB0028F9D066
S214002F701AF009F91AF008F9EA880E490E4B186893
S214002F801BF036FAEEE71AF0FEF81AF0FDF82346C4
S214002F9032460A49084800681BF02AFAD5E700BFFF
S214002FA0244E0020E74E0020C0240020EE4E0020D5
S214002FB0E84E0020DC2B02008C280020FC2B0200B0
S214002FC030B585B00446B1238DF80C301B4B1B780A
S214002FD08DF80D3001238DF80E30194B1B780193B8
S214002FE003AB00930323002202211BF08EFFA0B93F
S214002FF0032001F0D9FA08B905B030BD1AF0C3F8BD
S2140030001AF0C2F8012300930C4B1B7822460D4998
S2140030100D4800681BF0ECF9EEE70546012001F0CC
S214003020C3FA0028E8D01AF0AEF81AF0ADF82A462F
S2140030300649054B18681BF0DBF9DDE7D6210020B2
S214003040D72100203C2C02008C2800206C2C02008B
S21400305008B5C388012B05D983685B78044A1278C3
S2140030609A4200D008BD4088FFF7AAFFFAE700BFE3
S214003070D621002010B584B0234B1B78FF2B17D029
S214003080A0228DF80C208DF80D30204B1B78019374
S21400309003AB009302230022194610461BF035FFAF
S2140030A0044600BB032001F07FFA80B904B010BDCF
S2140030B0012001F079FA0028F8D01AF064F81AF026
S2140030C063F81349134B18681BF092F9EEE71AF0F1
S2140030D05AF81AF059F80C4B1A780F490D4B186825
S2140030E01BF086F9E2E7012001F05EFA0028DDD049
S2140030F01AF049F81AF048F822460849054B1868AD
S2140031001BF076F9D2E700BFD6210020D721002099
S2140031108C2C02008C280020C02C0200E02C020020
S21400312030B585B00446F1238DF80C30164B1B786D
S214003130019303AB00930123002202211BF0E5FE5E
S21400314080B9032001F030FA08B905B030BD1AF096
S2140031501AF81AF019F822460C490D4B18681BF09D
S21400316047F9F2E70546012001F01EFA0028ECD0E8
S2140031701AF009F81AF008F82A460649044B1868A7
S2140031801BF036F9E1E700BFD7210020FC2C020037
S2140031908C2800201C2D020008B51BF02CFC014BCF
S2140031A0186008BDCC240020094B1B7803B9704773
S2140031B000B583B0FFF75EFF002301930093054A36
S2140031C047F23051044819F0F2FE03B05DF804FBF4
S2140031D0E64E0020A93100006024002010B582B021
S2140031E000240094ADF804401BF0BAFEC0B2ADF85F
S2140031F00400ADF802404FF6FF73ADF800301BF048
S214003200FAFB184B1860694603201BF09DFEA0B918
S214003210154B01221A70032001F0C6F908B902B056
S21400322010BD19F0B0FF19F0AFFFBDF804200F492C
S2140032300F4B18681BF0DCF8F1E704460A4B002237
S2140032401A70012001F0B0F90028E8D019F09BFFB1
S21400325019F09AFF22460749054B18681BF0C8F874
S214003260DDE700BFCC240020E54E0020382D02000C
S2140032708C280020542D020010B50021084601F0CD
S21400328015FD98B901F0B8FC124B01221A70032004
S21400329001F08AF900B910BD19F075FF19F074FF36
S2140032A00D490E4B18681BF0A3F8F4E70446094BCB
S2140032B000221A70012001F077F90028EBD019F0EF
S2140032C062FF19F061FF22460549044B18681BF09F
S2140032D08FF8E0E7EC4E0020782D02008C280020C6
S2140032E0942D020008B500F045FF032001F05CF9BC
S2140032F010B901F0DBFB08BD19F045FF19F044FFDB
S2140033000249034B18681BF073F8F2E7B82D020069
S2140033108C280020C38843B330B583B00446836846
S2140033201D780379022B07D00D2B03D0032001F064
S2140033303BF958B903B030BDB02D04D0F02DF3D111
S214003340FFF7EEFDF6E7FFF783FEF3E719F01BFF46
S21400335019F01AFFE38801930095237962880349E0
S214003360034800681BF044F8E4E77047E42D0200C9
S2140033708C28002018B91E4B00221A70704710B512
S21400338082B00446032001F00FF958B9194B1B7898
S21400339033B1174A13780133DBB21370092B11D8F7
S2140033A002B010BD19F0EFFE19F0EEFE104B1B78C0
S2140033B00A220092013322460F49104800681BF08B
S2140033C017F8E3E7012001F0EFF838B90023084AC0
S2140033D01370084A1370FFF7DFFEE1E719F0D3FE1B
S2140033E019F0D2FE0649054B18681BF001F8EDE708
S2140033F0EB4E0020E64E0020102E02008C28002007
S2140034002C2E020030B583B0902810D004469128A8
S21400341040D0032001F0C8F8002856D1304B1B7866
S21400342033B32F4B00221A70FFF7B6FE20E00320BE
S21400343001F0BAF8F0B92B4B01221A700024284B81
S2140034401C70294B41F288321A60284B1C701BF006
S214003450D2FA274B1860274D284606F001FF019444
S21400346000942346244A4FF47A71284619F09FFDAB
S21400347003B030BD19F087FE19F086FE1F4B1C689E
S2140034801BF023FD02461E4B1B781E4920461AF0F1
S214003490AFFFD0E7032001F087F860B90023114A98
S2140034A013700F4A1370124A1360124806F0D8FEC3
S2140034B0FFF772FEDCE719F066FE19F065FE1249AA
S2140034C00E4B18681AF094FFE8E719F05CFE19F046
S2140034D05BFE22460D49094B18681AF089FF9DE7E6
S2140034E0E54E0020E64E002010200020EB4E002087
S2140034F0C424002060240020A93100008C2800206D
S214003500D6210020502E02007C2E02008C2E0200B7
S21400351010B500F0D5FE6D4B1B785BB16C4B1B787D
S21400352083B16C4B1B78002B3ED06B4B1B78002B6B
S2140035307ED110BD1BF05FFA684B1860634B01220A
S2140035401A70EBE71BF057FA0446624B1B7813B170
S214003550634B186888B900F0ABFE0028E1D05F4BDB
S2140035601868201A06F0CCFF5E4B9842D9D9012085
S21400357001F01AF870B9FFF7C1FC201A06F0C0FF78
S21400358043F697239842E6D900F024FE504B0122DA
S2140035901A70C6E719F0F7FD19F0F6FD5249534BBD
S2140035A018681AF025FFE6E71BF025FA504B1B6853
S2140035B0C01A06F0A5FF04464E4B1B78C3B143F66F
S2140035C098239842B5D9012000F0EEFF28B9494B60
S2140035D000221A70FFF7E0FDABE719F0D4FD19F0F2
S2140035E0D3FD22464449414B18681AF001FFEEE726
S2140035F0424B1B6883429CD8032000F0D5FF58B985
S214003600FFF7ECFD3D4A13685B004EF660218B42E7
S21400361028BF0B4613608CE719F0B5FD19F0B4FD12
S214003620364B1A683649314B18681AF0E1FEE7E760
S214003630294B00221A70032000F0B6FFE0B90020E4
S21400364001F0BCFA044608BB2E4B1A882E4B1A8093
S2140036502E4B1A782E4B1A702E4B1A682E4B1A6069
S2140036602E4B01221A70032000F09EFFF8B9264B5D
S2140036701888FFF755FD5CE719F085FD19F084FD05
S21400368027491A4B18681AF0B3FED8E7012000F055
S2140036908BFF00283FF44DAF19F075FD19F074FD4F
S2140036A022462049114B18681AF0A2FE41E719F08D
S2140036B06AFD19F069FD184B1B68154A12781A49FD
S2140036C00A4800681AF094FED1E700BFE94E0020D1
S2140036D0EA4E0020E64E0020E84E0020C8240020D7
S2140036E0C42400201FBF0200A42E02008C28002045
S2140036F0CC240020E54E0020E42E020010200020FE
S2140037000C2F0200244E0020264E0020E74E0020FC
S214003710ED4E0020C0240020D0240020EE4E0020D5
S214003720282F0200402F0200742F0200F0B583B04D
S21400373006460F4614461D46032000F035FF40B9E6
S2140037400A4A17700A4B1C6000232B60012003B046
S214003750F0BD19F018FD19F017FD00943B463246EF
S2140037600449054800681AF043FEE9E7ED4E0020DC
S214003770D0240020AC2F02008C28002070B582B028
S2140037800D461446531A0133069A002001F0F8F944
S214003790C8B9214B1B68DBB1651C642204FB0222FE
S2140037A0B2FBF3F41D4AA2FB04311D4B1B68A2FBBF
S2140037B00323DB08B3EBD10F18D3632C08D9184BBF
S2140037C000221A6004E00646012000F0EDFE08B96B
S2140037D002B070BD19F0D7FC19F0D6FC33462A4665
S2140037E01049114800681AF003FEF1E7032000F0C4
S2140037F0DBFE10B90A4B1C60DFE719F0C4FC19F0B9
S214003800C3FC054B1B6800932B4622460749064817
S21400381000681AF0EDFDEDE7D0240020CDCCCCCC2E
S2140038205C240020E02F02008C28002008300200D4
S21400383070B582B0E8B90C461546032000F0B4FE19
S21400384058B90023154A137001930093144A642153
S214003850144819F0ACFB02B070BD19F094FC19F0D6
S21400386093FC2B4622461049104800681AF0C0FD0B
S214003870E7E70646012000F097FE18B9074B00223E
S2140038801A70E8E719F07FFC19F07EFC324608490A
S214003890064B18681AF0ACFDF0E700BFEC4E0020AF
S2140038A07932000080240020283002008C28002076
S2140038B05830020070B582B005461446032000F06A
S2140038C073FEA0B91D4B1E78EEB1032000F06CFE0F
S2140038D040BB0025019500952B46194A21461948FC
S2140038E019F065FB154B1D70304602B070BD19F01F
S2140038F04AFC19F049FC23462A4613491348006837
S2140039001AF076FDDEE7012000F04EFE0028EBD030
S21400391019F039FC19F038FC0D490C4B18681AF0F0
S21400392067FDE1E719F02FFC19F02EFC2246094945
S214003930064B18681AF05CFDCBE700BFEC4E002083
S214003940E5320000A0240020803002008C280020F1
S214003950B4300200D830020010B580B10446012011
S21400396000F022FE00B910BD19F00DFC19F00CFC99
S21400397022460A490A4B18681AF03AFDF3E7032074
S21400398000F012FE0028EED019F0FDFB19F0FCFB4B
S2140039900449034B18681AF02BFDE4E7F4300200E4
S2140039A08C28002014310200F0B583B004460D4682
S2140039B016461F46032000F0F7FD08B903B0F0BD19
S2140039C019F0E1FB19F0E0FB019700962B46224622
S2140039D00249034800681AF00BFDEFE72C3102009D
S2140039E08C28002008B5034B41F288321A60FFF796
S2140039F0F5FB08BD1020002010B584B00D4BEC463A
S214003A000FCBACE807008CF8003001238DF80330AC
S214003A108DF8043000238DF808300E238DF8093019
S214003A20054C6946204619F0DAFE204619F0C8FE15
S214003A3004B010BDB837020000200540044B002239
S214003A401A605A609A60DA60024A1A60704700BFCD
S214003A50D82400203152474610B58EB001A801F098
S214003A603BF8059A0AB3D3680BB94FF4805329493B
S214003A700B6014694CB3B4F5E01F26D3B4F5001FF1
S214003A8023D34FF4C012B2FBF3F203FB02F2B2F5FB
S214003A90C01F2CD14FF4E012B2FBF3F202FB03F38B
S214003AA0B3F5E01F23D1012014E0012000F07CFDD7
S214003AB008B900200EE019F066FB19F065FB164900
S214003AC0164B18681AF094FCF3E7012000F06CFD22
S214003AD010B900200EB010BD19F055FB19F054FBBC
S214003AE022460F490D4B18681AF082FCF1E70120B8
S214003AF000F05AFD08B90020ECE719F044FB19F075
S214003B0043FB044B1A680749044B18681AF070FC0C
S214003B10F1E700BF14200020583102008C28002056
S214003B2088310200D031020008B51023044A032170
S214003B30044800680FF0FCFEB0FA80F0400908BDAB
S214003B40D82400209820002008B510230F4A03210F
S214003B500F4800680FF036FF20B90C4B1A680D4B63
S214003B609A4207D0032000F01FFD20B9FFF766FF3A
S214003B70FFF7DAFF08BD19F006FB19F005FB06494A
S214003B80064B18681AF034FCF0E700BFD824002073
S214003B909820002031524746183202008C28002018
S214003BA02DE9F041ADF5007D674BD979674A52F8AB
S214003BB021809E68731EB3F5802F33D2002000F05C
S214003BC0FDFF002842D1033626F003060024B44247
S214003BD07FD2351BB5F5807F28BF4FF4807504EB88
S214003BE008072A4640A9384601F08AF800283DD141
S214003BF02B4640AA2146002000F0C2FF002846D1EE
S214003C002B466A462146002000F09CFF00284FD134
S214003C102A46694640A81EF030F9002848D104F527
S214003C208074D4E7012000F0BFFC20B900200DF519
S214003C30007DBDE8F08119F0A6FA19F0A5FA324623
S214003C404349444B18681AF0D3FBEFE7012000F015
S214003C50ABFC08B90020EAE719F095FA19F094FAD7
S214003C603D493C4B18681AF0C3FBF3E7012000F00F
S214003C709BFC08B90020DAE719F085FA19F084FAF7
S214003C803A463649334B18681AF0B2FBF2E7012081
S214003C9000F08AFC08B90020C9E719F074FA19F098
S214003CA073FA22462E492B4B18681AF0A1FBF2E74E
S214003CB0012000F079FC08B90020B8E719F063FA93
S214003CC019F062FA22462749224B18681AF090FB30
S214003CD0F2E70021084600F0E9FF58B9002000F09E
S214003CE08BFFB8B9032000F05FFC18BB00F0DEFEC7
S214003CF001209CE7012000F057FC08B9002096E759
S214003D0019F041FA19F040FA1749124B18681AF0E0
S214003D106FFBF3E7012000F047FC08B9002086E7B8
S214003D2019F031FA19F030FA10490A4B18681AF0EF
S214003D305FFBF3E719F027FA19F026FA0C49054B52
S214003D4018681AF055FBD1E7D8240020B0370200D7
S214003D50483202008C2800206C3202008C320200AE
S214003D60B0320200D0320200F832020020330200E5
S214003D70443302002DE9F047ADF5047D00210846E6
S214003D8000F094FF00283AD182A9002000F0BCFE83
S214003D90002847D1002404F10803839A934251D89F
S214003DA008236A462146002000F0CCFE002840F09A
S214003DB090809DF800309DF8012043EA02239DF88C
S214003DC0022043EA02439DF8032043EA02629DF87C
S214003DD004309DF8051043EA01239DF8061043EAD7
S214003DE001439DF8071043EA01638399994272D311
S214003DF0234403F10804694B9A42CCD123E0012006
S214003E0000F0D2FB20B900200DF5047DBDE8F08758
S214003E1019F0B9F919F0B8F96149624B18681AF047
S214003E20E7FAF0E7012000F0BFFB08B90020EBE757
S214003E3019F0A9F919F0A8F95B495A4B18681AF055
S214003E40D7FAF3E70024631EB3F5802F45D2574B0D
S214003E5093F807A0BAFA8AFA4FEA5A1A544B53F85C
S214003E602A904FF48021484600F086FF002847D16C
S214003E7004F1030828F003080026464580F08480F5
S214003E80A8EB0605B5F5807F28BF4FF480752B4656
S214003E9042AA3146002000F055FE002841D106EB2C
S214003EA009072A4642A9384600F048FF002849D1AB
S214003EB02A4602A9384600F023FF002853D12A4696
S214003EC002A942A81DF0D9FF00284CD106F580763D
S214003ED0D3E70024B7E70024B5E7012000F064FB31
S214003EE008B9002090E719F04EF919F04DF94FF493
S214003EF0802322462F492B4800681AF079FAF0E70B
S214003F00012000F051FB08B900207DE719F03BF9CD
S214003F1019F03AF94A462849224B18681AF068FA06
S214003F20F2E7012000F040FB08B900206CE719F02A
S214003F302AF919F029F9324620491A4B18681AF05E
S214003F4057FAF2E7012000F02FFB08B900205BE7E4
S214003F5019F019F919F018F93A461949114B186869
S214003F601AF046FAF2E7012000F01EFB08B900201E
S214003F704AE719F008F919F007F93A461149094BCA
S214003F8018681AF035FAF2E7084B83F807A09C6029
S214003F9001221A73FFF7C8FD36E700BFFC0404FCD5
S214003FA0783302008C280020B0330200D82400208A
S214003FB0B0370200D43302000C340200343402005E
S214003FC0543402007834020010B584B0FFF714FDB4
S214003FD0FFF7BAFDFFF740FD5B4B1870032000F0BB
S214003FE0E3FA20B9594B9B79BBB904B010BD19F060
S214003FF0CAF819F0C9F8554AD379117B9068524C23
S2140040002478039402900191009393889279504902
S214004010504800681AF0ECF9E4E74C4A93880133FC
S2140040209380FFF781FD08B3032000F0BDFA60BB64
S214004030464B9B88042BD8D9434B1B781BB1434B6C
S2140040401B7B002B42D1012000F0AEFA50BB0120B2
S21400405000F0AAFA00282FD13C4B9B88052BC4D928
S2140040603A4B05229A80FFF75FFDBEE7012000F07D
S2140040709BFA0028D8D019F086F819F085F836494A
S214004080344B18681AF0B4F9CEE719F07CF819F03A
S2140040907BF805232D4A928830492E4800681AF08E
S2140040A0A7F9C5E719F06FF819F06EF82C49294BF7
S2140040B018681AF09DF9CAE719F065F819F064F85F
S2140040C02849244B18681AF093F9C5E7032000F036
S2140040D06BFAC8B91D4B00229A8001229A71FFF72D
S2140040E023FDFFF75DFDF8B1012000F05DFA002822
S2140040F03FF47BAF19F047F819F046F81A49154B0C
S21400410018681AF075F970E719F03DF819F03CF8E0
S214004110104B18680D4BDB7923B1422213491AF075
S21400412067F9D7E74122F9E7012000F03DFA0028B9
S2140041303FF45BAF19F027F819F026F80C49054B49
S21400414018681AF055F950E7EF4E0020D8240020E2
S214004150A43402008C280020F0340200243502002B
S214004160443502008C350200F4350200CC350200DE
S2140041702C36020008B5134B01229A7100229A8051
S214004180FFF7D2FC70B9012000F00EFA00B908BDA6
S21400419018F0F9FF18F0F8FF0B490C4B18681AF0E6
S2140041A027F9F4E7032000F0FFF90028EFD018F015
S2140041B0EAFF18F0E9FF0649044B18681AF018F9E8
S2140041C0E5E700BFD8240020643602008C280020D3
S2140041D0A036020008B52F4B9B792BB92D4A127BCF
S2140041E012B12C4A928892B113B92A4B1B7B13B991
S2140041F0294B1B7863B9274B00229A719A80FFF7E8
S21400420093FC002837D1012000F0CEF948BB08BD4A
S214004210FFF7B0FDB0B1032000F0C6F90028EAD0E1
S21400422018F0B1FF18F0B0FF1C4B1868194BDB797B
S21400423033B14222174B9B6819491AF0D9F8DAE7CE
S2140042404122F7E7012000F0AFF90028D3D018F09C
S2140042509AFF18F099FF1349104B18681AF0C8F81F
S214004260C9E718F090FF18F08FFF0F490B4B18683E
S2140042701AF0BEF8CBE7032000F096F90028C6D067
S21400428018F081FF18F080FF0849044B18681AF0F0
S214004290AFF8BCE7D8240020EF4E00208C28002082
S2140042A0D836020018370200543702008037020062
S2140042B0024B9879003818BF01207047D824002098
S2140042C008B5024819F07CFA08BD00BF002005407A
S2140042D008B5024B1B6803B1984708BD1825002097
S2140042E008B5024B5B6803B1984708BD1825002047
S2140042F008B5024B9B6803B1984708BD18250020F7
S21400430008B5024BDB6803B1984708BD18250020A6
S21400431008B5024B1B6903B1984708BD1825002055
S21400432008B5024B5B6903B1984708BD1825002005
S21400433030B585B0094C2268094B1A60094D0A4B06
S2140043402B600A4B019304F0D9FE02902B6803936E
S21400435001A9206819F054FB05B030BD34200020B8
S214004360603300205C330020282000200841020033
S21400437008B5024B186819F057FB08BD342000201A
S21400438038B504F0BBFE0446064D2B68D3F8B002E1
S21400439004F0A8FE286819F061FB204604F0A2FE8F
S2140043A038BD00BF3420002038B501F0F9FE0121E9
S2140043B00D4801F0C7FA01221146002001F034FE34
S2140043C00A4C0225C4F8805001221146002001F054
S2140043D02BFEC4F8845001221146002001F024FE72
S2140043E0C4F88850002038BD30253E0000400E40FE
S2140043F008B5164B01225A6403F092F8024668B9D3
S214004400134B4AF6E851C3F89011D3F8981141F0CF
S2140044100401C3F898110021C3F89011012A0DD9A0
S2140044200C4A136A23F4441343F488131362A2F568
S2140044308042136843F48073136008BD044AD2F8C0
S214004440643143F40053C2F86431E9E700000E40DB
S21400445000300E4000400E4008B50121034801F030
S21400446071FA034800F0FEFD08BD00BF00350A00E3
S21400447038200020012900D9704708B5034B1B6877
S214004480186808B1436A984708BD00BF502000204E
S21400449030B599B0284D11ACAC46BCE80F000FC43F
S2140044A09CE8070084E8070000240B940C940D9405
S2140044B00E940F941094214B0B93214B0C930122D6
S2140044C08DF8372002238DF8393003238DF83B30E2
S2140044D01E238DF83F308DF8403009AB1C3595E82B
S2140044E0030083E803000DF10C0C03940494059478
S2140044F00694079408948CE803000C238DF8143077
S2140045000D238DF815300F4B0693202307938DF857
S21400451020208DF821200C4B00930BAB11AA61468E
S2140045200A4804F0C3FF054621464FF4E13018F070
S2140045306AFE284619B030BD204102000000014046
S21400454000420400EC2700200C28002060280020F1
S21400455008B50349034805F011FBFFF799FF08BDAE
S214004560542000208428002008B502481AF054F988
S21400457008BD00BF6028002008B502481AF04CF9B4
S21400458008BD00BF6028002008B5024B1A6A1868EC
S214004590904708BD6028002008B5024818F097FE2E
S2140045A008BD00BF4441020003460B4A107828B1FC
S2140045B00A4A12789A4202D2002000E00120084AF5
S2140045C012783AB1074A127842FA03F313F0010F51
S2140045D000D10020704700BFDA210020D92100203A
S2140045E0F04E0020D821002008B5084B01221A7092
S2140045F0074B00221A70074B04221A70064B1F2224
S2140046001A7004F07BFD054B186008BDDA21002007
S214004610F04E0020D9210020D82100208C28002030
S21400462000B591B000F0F0F950B903A800F054FAC4
S214004630069BABB901200F4B187011B05DF804FB58
S2140046400120FFF7B1FF08B90020F6E718F09BFD40
S21400465018F09AFD0849094B186819F0C9FEF3E7E7
S21400466001A9002000F050FA0028E3D1019A044B7B
S2140046701A60DFE7F14E00205C4102008C28002023
S2140046809028002008B5064B1B782BB100F0E6F901
S214004690034B00221A7008BDFFF7C2FFF6E700BF03
S2140046A0F14E002008B50121054801F04BF918F03D
S2140046B0CBFC012018F07FFD00F076F808BD00BFA7
S2140046C000350A0008B50121014801F03BF908BD94
S2140046D000350A002DE9F04180460F4601F1090534
S2140046E00026344604E05B21082000F093FC0134E9
S2140046F0AC4233D2052C1BD801A353F824F000BFDC
S214004700E7460000194700004D470000214700001B
S2140047102547000029470000FBB20433D9B2E3E77F
S2140047208021E1E70021DFE7731C3146DEB2DBE7DC
S214004730BB1DA3420CD0FB1DA3420BD007F1080300
S214004740A34209D0A31F18F80310CDE7D121CBE769
S2140047505A21C9E75A21C7E75D21C5E70020BDE811
S214004760F08100BF00B583B00022009201920221C2
S2140047708DF80010054818F030FD019008216846B5
S214004780FFF7A8FF03B05DF804FB00BF006A18003F
S214004790014B1022DA60704700A00044014B102243
S2140047A0DA60704700A0004670B588B00DF1040CC2
S2140047B0374C0FCCACE80F0094E807008CE80700F5
S2140047C00121344801F0BEF8334E0121304601F095
S2140047D0B9F801258DF81250304B0393304C01A9DF
S2140047E0204618F091FF2B4604220621022002F0F4
S2140047F045FB00232A460721022002F03FFB2B46FA
S21400480004220821022002F039FB2B46042211461E
S214004810002002F033FB234BA3670B2363674FF4A0
S214004820487006F0A3FBFFF7B3FF142006F09EFBCC
S214004830FFF7B4FF232006F099FBFFF7A9FFB92185
S214004840204618F0ABFFFFF7A9FF00231A46062103
S214004850022002F013FB00231A460721022002F072
S2140048600DFB2B4600220821022002F007FB2B46F8
S21400487000220421104602F001FB204602F0AAFEA8
S2140048800021A1676167304601F05CF808B070BD92
S2140048907841020000350A000052040000127A0037
S2140048A0000401400B0B000B08B500F087F8124A15
S2140048B00AE01068516850F8230041F823000133DD
S2140048C091688B42F5D30C320C4B9A4201D20023EE
S2140048D0F6E70B4A08E01168002041F82300013390
S2140048E051688B42F7D30832064B9A4201D2002316
S2140048F0F6E7FDF721FB00BF686D0200746D02004D
S214004900746D0200746D02000048704700F04902A2
S214004910114BD3F8943003F00703023B032B0DD85A
S214004920DFE803F0050F02080C4B18680BE00C4B91
S214004930186808E00B4B1868400804E0094B186834
S21400494001E04FF40040044BD3F80031C3F30423D6
S2140049500133B0FBF3F0704700400E406C2000209F
S214004960702000206420002008B5FFF7D1FF054B1B
S214004970D3F80831C3F308230133B0FBF3F0024B3E
S214004980186008BD00400E4068200020014B1868E3
S214004990704700BF7020002008B5064B1860064B15
S2140049A0D3F8943003F00703022B00D008BDFFF7BE
S2140049B0DBFFFBE77020002000400E40044B054A5A
S2140049C09A60D3F8882042F47002C3F888207047B3
S2140049D000ED00E000000000014B1868704700BFC3
S2140049E06C200020BFF34F8F0549CA6802F4E062CE
S2140049F0044B1343CB60BFF34F8F00BFFDE700BFF0
S214004A0000ED00E00400FA0508B5114BD3F828289D
S214004A10A2F17E63A3F58433B3F5104F11D211686B
S214004A200C4B994210D10C4B1B781BB1022B01D0BA
S214004A30002008E0D369984728B9074B01221A706E
S214004A4001E04FF4817008BD4FF48170FBE700BFB2
S214004A500000E10F07B0CD5EF24E002008B5104B07
S214004A60D3F82828A2F17E63A3F58433B3F5104F5C
S214004A7010D211680B4B99420FD10B4B1B78012BB0
S214004A8001D0002008E0136A984728B9064B022296
S214004A901A7001E04FF4817008BD4FF48170FBE797
S214004AA00000E10F07B0CD5EF24E002008B54FF0D3
S214004AB0005340F202221A804FF20F025A80054A33
S214004AC001239360136823F4E06343F48063136068
S214004AD0FFF788FF00500E4008B50A4BD3F8282889
S214004AE0A2F17E63A3F58433B3F5104F09D2126B9F
S214004AF0A2F17E63A3F58433B3F5104F01D2536859
S214004B00984708BD0000E10F08B50D4BD3F82828DC
S214004B10A2F17E63A3F58433B3F5104F0AD2126B6D
S214004B20A2F17E63A3F58433B3F5104F05D29368E4
S214004B30984701E04FF4817008BD4FF48170FBE7A1
S214004B400000E10F38B50D4CD4F82848A4F17E6C6F
S214004B50ACF5843CBCF5104F0AD2256BA5F17E64FB
S214004B60A4F58434B4F5104F05D2EC68A04701E0F4
S214004B704FF4817038BD4FF48170FBE70000E10F01
S214004B8038B50D4CD4F82848A4F17E6CACF5843CBE
S214004B90BCF5104F0AD2256BA5F17E64A4F58434CB
S214004BA0B4F5104F05D22C69A04701E04FF4817090
S214004BB038BD4FF48170FBE70000E10F08B50D4BE0
S214004BC0D3F82828A2F17E63A3F58433B3F5104FFB
S214004BD00AD2126BA2F17E63A3F58433B3F5104FAD
S214004BE005D25369984701E04FF4817008BD4FF431
S214004BF08170FBE70000E10F00B583B001900F4B1A
S214004C00D3F82828A2F17E63A3F58433B3F5104FBA
S214004C100CD2126BA2F17E63A3F58433B3F5104F6A
S214004C2009D29369012101A8984701E04FF48170E9
S214004C3003B05DF804FB4FF48170F9E70000E10F64
S214004C4010B50A4BD3F82848A4F17E63A3F5843345
S214004C50B3F5104F04D2236B2BB15B6A984701E083
S214004C604FF4017010BD4FF40170FBE70000E10F38
S214004C7008B50D4BD3F82828A2F17E63A3F584333C
S214004C80B3F5104F0AD2126BA2F17E63A3F58433FC
S214004C90B3F5104F05D2936A984701E04FF40170C0
S214004CA008BD4FF40170FBE70000E10F30B5E1B03E
S214004CB0124BD3F82838A3F17E63A3F58433B3F5FB
S214004CC0104F15D20C464FF4C0726946FFF7B8FF76
S214004CD0054678B921466846FFF7CAFF40F2012329
S214004CE09842F7D040F20323984203D0054601E0ED
S214004CF04FF40175284661B030BD00BF0000E10FDB
S214004D0010B50D4BD3F82848A4F17E63A3F5843381
S214004D10B3F5104F0AD2246BA4F17E63A3F5843357
S214004D20B3F5104F05D2636B984701E040F20110CF
S214004D3010BD40F20110FBE70000E10F10B50D4B6F
S214004D40D3F82848A4F17E63A3F58433B3F5104F57
S214004D500AD2246BA4F17E63A3F58433B3F5104F17
S214004D6005D2A36B984701E040F2011010BD40F257
S214004D700110FBE70000E10F08B50D4BD3F828281B
S214004D80A2F17E63A3F58433B3F5104F0AD2126BFB
S214004D90A2F17E63A3F58433B3F5104F05D2D36B2F
S214004DA0984701E040F2011008BD40F20110FBE711
S214004DB00000E10FF0B18446F1B110B409E004F14F
S214004DC020000FE02033C01A18D1BCB10CF1010C42
S214004DD001319CF800400B4B1B5D03F00303012BD5
S214004DE0EDD020460B78074AD25C02F00302012A77
S214004DF0E9D1E7E701207047012070475DF8044BD2
S214004E00704700BF036C02000346064A106803445E
S214004E10054A934202D8034A136070474FF0FF30AA
S214004E20704700BF74200020000004200B681A782A
S214004E30022A00D1704710B508461A79597902EB54
S214004E4042021201064C144401EBC402920012689E
S214004E50B2FA82F252091A7018F040FA10BD00BF7A
S214004E601CA0100230B583B005460468012117481F
S214004E7000F068FD002301226179207901F0FEFF31
S214004E802379627903EB43031B011149194402EBB2
S214004E90C1039B001B68B3FA83F35B092370A379F5
S214004EA0022B02D0002003B030BD00F0E9FB2A46FA
S214004EB00849607900F00CFC0246617920790123EC
S214004EC00193009301F084FFECE700BF00350A0071
S214004ED01CA010022D4E000002681378022B15D07D
S214004EE01379517903EB43031B011548184401EB72
S214004EF0C0039B0019680B1E18BF01239079012878
S214004F0005D018B9B1FA81F1490911707047518876
S214004F10490089B20B4343F47F4343F0C0034FF686
S214004F20E0718B4205D04FF6DF718B4204D0538080
S214004F30704701211170FAE700211170F7E700BFF2
S214004F401CA0100208B50121294800F0FBFC012333
S214004F5004220221052001F091FF002001F02CFF21
S214004F600121244BC3F810180A46042001F05CF80F
S214004F70214800F0A5FE214BD3F8F02042F00102B4
S214004F80C3F8F020D3F8FC2042F08072C3F8FC206F
S214004F90A3F55D431A4A1A6000F5D52000F2FC40DE
S214004FA0C008184BA3FB0030800A0138164B186166
S214004FB00222C3F8F0204FF48072C3F804234FF0A7
S214004FC06043124AC3F8B02F114AC3F8802ED3F8B4
S214004FD0002E42F48072C3F8002EFF2283F82020B1
S214004FE0D3F8002E22F48072C3F8002E002008BDED
S214004FF000350A000080144206000E0000ED00E0B6
S214005000FF03004017916502000004E055CEACC5D2
S214005010090001004FF06043D3F8803E13F0010F03
S21400502001D1112070470E4AD2F8FC3043F080734D
S214005030C2F8FC304FF06043D3F8002E4FF0010C5E
S2140050400CFA00FC42EA0C02C3F8002E53F820309B
S214005050002BE8D04FF0604303F820100020704784
S21400506000ED00E070B584B0044601212A4800F047
S21400507069FC2368294A934215D002F58062934260
S21400508047D12748012100F05DFC01230A226179FF
S214005090207901F0F3FE01230A22E179A07901F0DC
S2140050A0EDFE00251AE01F48ECE72379617903EB53
S2140050B043031B01012606FA01F11B4AD150642066
S2140050C005F054FF2379627903EB43031B019640F6
S2140050D0164AD650642005F049FF0135092DE4DD57
S2140050E0236803225A64637A227A43EA02232268F8
S2140050F0936401238DF800308DF801302369029304
S214005100E3680193237D8DF80C306946206801F032
S21400511047FF04B070BD00BF4041050000C000401E
S21400512000920400008204000CA000440CA000467C
S214005130F0B585B00C4694469DF83410664A127851
S214005140002A00F0BD800546BCF1070F00F2BA80C9
S2140051500A9A002A00F0B8800B9A002A00F0B6805F
S2140051600E9AB2F5006F00F3B38001285BD05B4A5D
S21400517002EB0C12127B002A00F0AC800022009298
S214005180019202920392564A02EB4C1E002C4FD11B
S2140051904FEA4C1600209051CEF80400CEF80800D6
S2140051A0CEF80C009EF8020040F010008EF80200C8
S2140051B09EF8030040F030008EF8030021B9C1B21B
S2140051C041F003018EF8031000930E9B013B444A06
S2140051D04FEA4C1002EB4C11165A63F30E16165299
S2140051E00A9B8B600B9B4B60CB789DF83C2062F350
S2140051F08303CB70012D36D0109B002B56D0374A38
S2140052004FEA0C1102EB0C1310985050119A5A608A
S21400521000249C605D7372466946604601F02AFF72
S214005220204605B0F0BD0C9A002AA0D12D48F8E71C
S2140052302B4F4FEA4C1607EB4C120020B85150602B
S2140052409060D060907840F010009070D07840F079
S2140052500300D0700029B7D107EB4C12C1B241F061
S2140052603001D170B0E70E460A7B42F001020A73A5
S214005270D2B242F002020A73CA68042161F39F02A6
S214005280F26006F1100796E80F0087E80F00F26953
S2140052906FF0030161F39F02F2610C9B7361012CB6
S2140052A0AAD10B9AB2610C9A7260A5E7002DA6D11E
S2140052B00B4B03EB4C139A786FF304129A709EE72D
S2140052C00948AEE70748ACE70648AAE70548A8E756
S2140052D00448A6E70548A4E7F34E002094290020DA
S2140052E094280020018000F0028000F0078000F083
S2140052F0134B1B78FBB110B50446F0B118F0ACF8B0
S2140053000023072B13D80F4A02EB0312127B0AB1B5
S2140053100133F6E723600B4A190102EB031301245D
S2140053201C730024545018F09DF8204602E018F034
S21400533099F8054810BD054870470548FAE700BFCC
S214005340F34E002094290020048000F0028000F034
S214005350018000F038B518F07FF804460023072BCC
S21400536006DC0C4A02EB0312127B12B90133F6E795
S214005370002222B1204618F075F8074838BD01F023
S2140053802DFE0025054B1D70204618F06BF82846AC
S214005390F4E700BF94290020058000F0F34E0020BB
S2140053A00F4B1B78BBB110B50446072815D818F06C
S2140053B053F80C4B03EB04131B7B1BB918F052F885
S2140053C009480BE0074B03EB041300241C7318F08A
S2140053D049F8204602E005487047054810BD00BF62
S2140053E0F34E002094290020068000F0028000F092
S2140053F0018000F000B583B0144B1B6801930023B6
S2140054008DF8043018F028F8114B1B7833B9104B80
S21400541001221A7018F026F8002309E018F022F886
S2140054200C480FE00C4A02EB031200211173013303
S214005430072BF7DD04238DF807300DEB030001F092
S214005440EFFD002003B05DF804FB00BFE44102005E
S214005450F34E0020038000F09429002008B50A4B84
S2140054601B785BB107280BD8084B03EB00131B7B9C
S21400547043B1002101F0CAFD002008BD0448FCE746
S2140054800448FAE70448F8E7F34E00209429002081
S214005490028000F0018000F0078000F008B50A4B9B
S2140054A01B785BB107280BD8084B03EB00131B7B5C
S2140054B043B1012101F0AAFD002008BD0448FCE725
S2140054C00448FAE70448F8E7F34E00209429002041
S2140054D0028000F0018000F0078000F008B50A4B5B
S2140054E01B7853B107280AD8084B03EB00131B7B25
S2140054F03BB101F013FE002008BD0548FCE7054857
S214005500FAE70548F8E700BFF34E0020942900208C
S214005510028000F0018000F0078000F0104B1B783E
S214005520ABB1072815D8B1B10E4B03EB00131B7BAC
S2140055309BB10D4B1B6E0122824013EA020003D082
S21400554001230B700020704700230B70704707483C
S214005550704707487047064870470648704700BFC0
S214005560F34E00209429002000200E40028000F018
S214005570018000F0078000F00C4B1B7873B110B56B
S2140055800C4607280CD869B1094B03EB00131B7BAC
S21400559053B101F0D7FD2070002010BD05487047BC
S2140055A00548FAE70448F8E70448F6E7F34E002013
S2140055B094290020028000F0018000F0078000F0AF
S2140055C0F8B5194B1F6EDB6E1F4002D40125002470
S2140055D002E0FEE701346D00072C24D83D42F9D0E6
S2140055E0114B9D662301114AD358002BF2D002EBD3
S2140055F00416B1680131B16072682046984780F0A1
S2140056000100C0B2737B012BE4D10028E2D0084B26
S21400561003EB44131A7B6FF341021A731A7F6FF37E
S21400562041021A77D6E7F8BD00200E4094290020E4
S2140056309428002010B5044602E0202007E090479A
S214005640DCB194FAA4F00028F7D0B0FA80F0012379
S214005650834024EA0304094B03EB00135A68002A2C
S214005660EED0064B03EB00131B7B002BE7D0034B5F
S21400567003EB001399689047E2E710BD142A002058
S21400568008B5122000F046FE28B1084B4FF48022E1
S214005690C3F880211A600A2000F03CFE28B1034BB4
S2140056A04FF48062C3F880211A6008BD00E100E074
S2140056B038B505460C4617F0CFFE044B03EB051332
S2140056C05C6000221A7317F0CDFE38BD142A002045
S2140056D0F8B505460F46164617F0BEFE05F0FC0C5C
S2140056E00F4BD3F828140023032B0BD85C1904F0B7
S2140056F00304644421FA04F212F0010F03D00133CC
S214005700DBB2F1E7FF24FF2C06D0064B03EB0413B5
S2140057105F609E6001221A7317F0A4FE2046F8BD53
S21400572000A00040142A002008B5064BD3F8280431
S214005730D3F81C24104000F05530C3F82404FFF7BB
S21400574079FF08BD00A0004008B5064BD3F8280432
S214005750D3F81C24104000F0AA30C3F82404FFF746
S21400576069FF08BD00A0004008B5034B1968034B4D
S21400577018680EF003F808BD782000209820002056
S214005780B0F1FF3F01D010B9704702487047024899
S214005790704700BF21E000F024E000F0F8B50546B1
S2140057A00E469400224617F060FFFFF7E9FF074613
S2140057B028B92246314628461CF05FFB08B9384611
S2140057C0F8BD014FFBE700BF10E000F038B5044617
S2140057D001F08CFDFFF7D4FF054608B1284638BD1A
S2140057E001F0A6FE0146204617F0D3FD0028F5D1AD
S2140057F0004DF3E70EE000F008B517F01EFE014B73
S214005800186008BD0433002008B5024B186817F06E
S21400581018FE08BD04330020074BDB6B13F0400F67
S21400582004D1064BD3F8C830002BFAD1024B586887
S214005830C0F30140704700BF00300E400000C64372
S2140058400C4B984205D90C4B984210D801210A46B9
S21400585001E000210A46094B1A64094AD2F80031D1
S21400586023F0807343EA0163C2F8003170470221D7
S2140058700122F0E70048E8010090D0030000C8438A
S21400588000400E40014B1868704700BF9C20002067
S214005890114B5B68002300E00133042B0CD80F4A41
S2140058A002EBC30292F804C0CAB29445F4D10B4A84
S2140058B052F833208242EFD3052B0BD0074A02EB77
S2140058C0C3035979044A536823F0407343EA0163DB
