:10000000002000206D4800004DD201004DD20100BB
:1000100047E901004DD201004DD201004DD201004F
:100020004DD201004DD201004DD201004DD2010050
:100030004DD20100B04102004DD201004DD201006D
:100040004DD20100898B010041B400004DD2010066
:10005000B98301008718020083180200A98B0100F0
:100060007B18020085550000ED5600004DD20100BE
:100070003D4500002D4500004DD201004DD201004C
:100080004DD201004DD201000D5700004DD20100AC
:100090004DD201004DD201004DD201004DD20100E0
:1000A0004DD201004DD201004DD201004DD20100D0
:1000B000DD8B01007F1802002DA90000198C0100C2
:1000C0004DD20100416F01004DD201004DD201001F
:1000D0004DD201004DD201004DD201004DD20100A0
:1000E0004DD201004DD201004DD201004DD2010090
:1000F0004DD201004DD201004DD201004DD2010080
:100100004DD201004DD201004DD20100000000008F
:10011000013800D0FCE7704700000000000000003C
:1001200001F0FF01102A2BDB10F0070F08D010F8A8
:10013000013B013A8B422DD010F0070F42B3F6D1AC
:10014000F0B441EA012141EA014122F007047FF0C5
:1001500000070023F0E80256083C85EA010586EA1C
:10016000010685FA47F5A3FA87F586FA47F6A5FA58
:1001700087F68EB9EED1F0BC01F0FF0102F0070264
:1001800032B110F8013B013A83EA010313B1F8D10F
:100190000020704701387047002D06BF35460338F0
:1001A000073815F0010F07D1013015F4807F02BF29
:1001B000013015F4C03F0130F0BC0138704700BF7A
:1001C0002DE9F04F2DED028B91B082460C469346FF
:1001D0001D46DDE91C23104619461BF051F8002886
:1001E00000F007814FF0FF32B14BDDE91C011BF03D
:1001F0006FF8002840F0FD804FF0FF326FF480135D
:10020000DDE91C011BF046F8002840F0F2800022D6
:100210000023DDE91C011BF03DF8002840F0FE80C2
:100220009DED1C7B8DED067B209B13F480630F936B
:1002300001D106231E93DDE906010246C1F30A50EF
:10024000C1F31303904643F07F5949F44019A0F2DB
:10025000FF301AF043FD84A3D3E900231AF0A8FD70
:1002600083A3D3E900231AF0EDFB06460F460022D4
:10027000904B404649461AF0E3FB7FA3D3E90023A5
:100280001AF096FD02460B46304639461AF0DAFB64
:100290001BF028F806461AF021FD8046894678A30F
:1002A000D3E900231AF084FD0022834B1AF0CAFB25
:1002B0001BF018F8074674A3D3E9002340464946CB
:1002C0001AF076FD8046894638461AF007FD70A37D
:1002D000D3E900231AF06CFD02460B46404649461E
:1002E0001AF0AEFB8046894602460B461AF060FDC6
:1002F000CDE90A0107F2FF3700210022CDE90812FB
:100300003B0509930023089342464B464046494625
:100310001AF098FBCDE90C0142464B4600204FF005
:1003200080411AF08DFB804689460022634BDDE94F
:100330000A011AF067FE0022614B1AF083FB0246A5
:100340000B46DDE90A011AF05DFE00225D4B1AF052
:1003500079FB02460B46DDE90A011AF053FE02461C
:100360000B46404649461AF06DFB02460B46DDE956
:100370000C011AF047FE0022534B1AF063FBDDE933
:1003800008231AF015FD8046894649EC188BDDE9F3
:1003900006231AF09DFF40B1013E0022484B404623
:1003A00049461AF02FFE41EC180B06F16303C62BE9
:1003B0003FD80427209B13F4006F44D036A3D3E921
:1003C0000023DDE90689404649461AF077FF0028F8
:1003D0003FD033A3D3E90023404649461AF05AFFE1
:1003E000002836D01E9BB34225DD9E1B731E1E9334
:1003F00023E0209B04931F9B03931E9B02939DED80
:100400001C7B8DED007B2B465A462146504600F062
:10041000CFF811B0BDEC028BBDE8F08F9FED227BD1
:100420008DED067B1C9B06931D9B03F100430793F8
:10043000FAE60527BEE700231E93209B43F4806362
:10044000209300273E461F9B9F423FD2A3EB070805
:100450003EE01E9B002BF6D00F9B002BF3D01E9B83
:10046000013B1E93EFE700BFFB799F501344D33F3E
:10047000B3C8608B288AC63F61436F63A787D23FAA
:1004800071A379094F930A401655B5BBB16B024071
:10049000EF39FAFE422EE63F2D431CEBE2361A3FBF
:1004A0000000000080842E410000000000000000D9
:1004B000FFFFEF7F0000F83F0000E03F00002C400E
:1004C00000002440000018400000F03F4FF00008FA
:1004D000209B13F0020902D00FB14FF000083EB18B
:1004E00053EC182BDDE906011AF08CFDCDE906016D
:1004F00000220023DDE91C011AF0CCFE00283DD1CA
:10050000209B23F400630493CDF80C801E9B029380
:100510009DED067B8DED007B2B465A4621465046CD
:1005200000F046F8002F3FF474AF209B13F0200F2B
:100530002CD04FF0450C00F101082B460246214615
:100540006046D04786EAE672A2EBE6720523059381
:10055000013F0497002303930A230293F30F0193AF
:1005600000922B464246214650461FF066FBB9F1E9
:10057000000F3FF44EAF02461F9F10E0DDE9060179
:10058000024601F10043CDE90623B9E74FF0650CBF
:10059000D1E7561C2B4621462020D0473246A2EBFD
:1005A0000B03BB42F5D3104633E700BF0000000049
:1005B0002DE9F04F2DED028B95B007900A919246F0
:1005C0009B46DDE92089229D42464B4640464946EE
:1005D0001AF056FE002840D04FF0FF326FF480131F
:1005E000404649461AF056FE002845D14FF0FF32EA
:1005F0009F4B404649461AF06BFE00284BD198A30A
:10060000D3E90023404649461AF062FE00285AD139
:1006100095A3D3E90023404649461AF03BFE002843
:1006200051D100220023404649461AF033FE0028EB
:1006300057D100230B93249B13F4806F5CD00024CC
:100640001F2C5BD8092D59D904F150036B4430227B
:1006500003F8202C013D0134F2E7249B0393239BF4
:10066000029303230193834B00935B4652460A99FE
:1006700007981FF008FA2CE1249B0393239B029315
:10068000042301937C4B00935B4652460A990798DA
:100690001FF0F9F91DE1249B13F004030FD0774AF2
:1006A0007BB1042324990391239902910193009231
:1006B0005B4652460A9907981FF0E5F909E1704A2E
:1006C000EEE70323EEE7249B0493239B0393029519
:1006D000CDE900895B4652460A990798FFF770FDFD
:1006E000F7E042464B46002000211AF0A9F9804667
:1006F000894601230B939EE70625A0E7404649461D
:100700001AF0F0FD06461AF0E9FA02460B4640469A
:1007100049461AF095F95B4B03EBC50393ED008B4B
:1007200053EC182B1AF044FB02460B46CDE9082384
:100730001AF000FE07461AF0C1FA02460B46DDE940
:1007400008011AF07DF902460B46CDE90823002284
:100750004D4B1AF0BDFD50B3013738461AF0AEFAD2
:1007600002460B4651EC180B1AF09EFD08B10136FB
:10077000002755BB30461AF0B1FA02460B464046F8
:1007800049461AF05DF90746884600223E4B1AF0AA
:1007900081FD38B100223C4B384641461AF098FDA5
:1007A000002842D016F0010F3FD001363DE0002274
:1007B000354BDDE908011AF06DFD0028D9D117B1DC
:1007C00017F0010FD5D00137D3E71F2C17D8013D03
:1007D0002E4BA3FB0723DB08194603EB8303A7EB90
:1007E0004303621C303304F150000DEB000404F8A5
:1007F000203C092F02D90F461446E6E714461F2C69
:100800000AD86B1E45B104F150026A44302102F847
:10081000201C1D460134F2E71F2C06D804F15003BA
:100820006B442E2203F8202C01341F2C33D8184A95
:1008300082FB0632F317C3EBA2031A4603EB8303D2
:10084000A6EB4303611C303304F150000DEB0004B0
:1008500004F8203C1646EAB10C46E6E7AFF3008008
:100860000000000065CDCD410000000065CDCDC188
:10087000FFFFEF7FE4480200E8480200D84802008A
:10088000E0480200F04802000000E03FCDCCCCCCB4
:10089000676666660C46249B03F00303012B1DD09C
:1008A0001F2C09D80B9B002B35D004F150036B444F
:1008B0002D2203F8202C0134249B0393239B0293C5
:1008C00001940CAB00935B4652460A9907981FF0BF
:1008D000DAF815B0BDEC028BBDE8F08F239BB3B105
:1008E0000B9B1BB9249B13F00C0F12D0239B013BD5
:1008F0002393194606E004F150036B44302203F8B9
:10090000202C01348C42CBD21F2CF4D9C8E7239978
:10091000F8E72399F6E7249B13F0040F07D004F1BE
:1009200050036B442B2203F8202C0134C4E7249B92
:1009300013F0080FC0D004F150036B44202203F8D9
:10094000202C0134B8E700BF7FB54E6802A90446E9
:1009500020F07EFC9DF808300E2B19D1134BB3F913
:100960000050134B9E4218D806F08CFF03460068D7
:1009700000909B88ADF804306946204620F055FC75
:1009800070B10C490C4840F21C620BF083FDFEE78D
:10099000204613F0CDFD0546E3E706F06FFFE5E7DF
:1009A0002946204620F056FC04B070BD584E002069
:1009B000FFC99A3B3D4C02006449020038B5044629
:1009C0000D461CF05AFD064A13889BB22DB12343F5
:1009D0001380BDE838401CF056BD23EA0403F7E756
:1009E000C8480020034B002201214FF480709A7008
:1009F000E4E700BFC84800207FB50023134C0393F1
:100A0000CDE90133FF238DF804301CF036FD228838
:100A100063880F4E9A4205460DD061887068218028
:100A200001AA13F073FB58B10A490B4840F29762D0
:100A30000BF030FDFEE7706820F0B9FA0128ECD029
:100A400028461CF020FD04B070BD00BFE02000204F
:100A5000C84800203D4C02006449020038B50F4CE4
:100A6000A56835B90E490F4840F27C720BF012FDB3
:100A7000FEE71FF0B7F928440FF07EF900F00700F9
:100A8000032809D1A468092120461FF0C7FA205C79
:100A9000031F5842584138BD0020FCE7C8480020D9
:100AA0003D4C02006449020010B5114CA378042BA0
:100AB00006D01049104840F244520BF0EBFCFEE720
:100AC00023881B0706D40B490B4840F245520BF014
:100AD000E1FCFEE700210820FFF770FF074B60688C
:100AE00002221A7113F0E0FABDE810401EF048B976
:100AF000C84800203D4C020064490200E02000206C
:100B000010B5084C606813F0CFFA606820F04FFA17
:100B1000012806D0012260681146BDE8104020F08F
:100B200048BA10BDC848002038B5194DAB7833B16C
:100B3000184919484FF4DC620BF0ACFCFEE71CF0DE
:100B40009CFC298811F00601044609D001214FF4CC
:100B50008070FFF733FF2046BDE838401CF093BC9F
:100B60004FF48070FFF72AFF10F074FE012805D0C3
:100B700010F0FD0F05D1FFF73FFFECE7FFF7C0FFD7
:100B8000E9E70449044840F2F6620BF083FCFEE713
:100B9000C84800203D4C02006449020070B5074D72
:100BA00095F90C600446FFF7BFFF10F053FDAA68EB
:100BB00031462046BDE8704010F08ABBC84800208E
:100BC00008B50A4B1B88DB0606D40949094840F2E0
:100BD00069520BF05FFCFEE700211020FFF7EEFEEC
:100BE00010F0B4FEBDE808401EF0CAB8C8480020A6
:100BF0003D4C0200644902000D4B1B889B0710B559
:100C0000044613D500210220FFF7D8FE094B5A797C
:100C1000FF2A06D00849094840F29A420BF03AFCF4
:100C2000FEE75C71BDE810401EF0AAB810BD00BF21
:100C3000C8480020E02000203D4C0200644902002A
:100C40007047704710B50E4CA37833B10D490E486C
:100C500040F2C5120BF01EFCFEE7A06019B1A17CAA
:100C6000003918BF01212020FFF7A8FE074B0848D4
:100C70009B7923770223A370BDE810400DF0E6BEF8
:100C8000C84800203D4C020064490200E0200020DA
:100C9000E848002008B50EF0DBFC80F00100C0B28F
:100CA00008BD0A4B9A780AB1062A0CD11B8803F4B6
:100CB0008B7343B9064B5A79FF2A04D11879FF3850
:100CC00018BF012070470120704700BFC8480020AE
:100CD000E020002008B50EF0ABFC0028FBD108BDD9
:100CE0000C4B42881A8242789A740278DA748288AD
:100CF0009A82C288DA82C2689A61074A017A91713F
:100D0000028A198D914204D001214FF400701A8596
:100D100054E67047C8480020E0200020094B1A8A9A
:100D200042809A7C4270DA7C02709A8A8280DA8AE7
:100D3000C2809A69C260044A1B8D92790272038252
:100D4000704700BFC8480020E02000204B1E012B48
:100D500070B50C4606D91B491B484FF42A720BF09C
:100D600099FBFEE7194D0A460146686820F086FBAC
:100D700030B11449144840F2AA220BF08BFBFEE775
:100D80006E680DF0D7FD22460146304620F070FB1C
:100D900030B10C490C4840F2AE220BF07BFBFEE771
:100DA0006D680DF0D3FD22460146284620F06CFB0D
:100DB00030B10449044840F2B2220BF06BFBFEE76D
:100DC00070BD00BF3D4C020064490200C8480020CD
:100DD000054BDB791B0913F00E0003D0052B8CBFEC
:100DE00000200120704700BFE0200020044BDB7989
:100DF0001B0913F00E0F0CBF01200020704700BF2D
:100E0000E02000202DE9F04F16469A0591B081466A
:100E10001F4603D501218020FFF7D0FDF3014FF0DD
:100E2000000852D59A4C23889D074ED5994D6B7971
:100E3000FF2B06D09849994840F266420BF02AFBF6
:100E4000FEE7A36833B99449944840F267420BF037
:100E500021FBFEE741460220FFF7B0FDA37885F8AD
:100E60000580042B03D101210820FFF7A7FD8C4A40
:100E70006068002120F00DFA30B18749874840F2C0
:100E800071420BF007FBFEE7FFF7A2FFA8B9D4F809
:100E900004801EF0A7FF0546A0681EF0AEFF2918CB
:100EA0007F4A89B2404620F005FA30B17A497B4842
:100EB00040F277420BF0EEFAFEE7A378032B02D163
:100EC000606813F0F1F81DF05BFFB80702D5012050
:100ED000FFF792FE16F0A84F02D00220FFF78CFE1B
:100EE000B10220D50021402005ACFFF767FD214667
:100EF000484620F0EFFAB0B99DF81C30022B0AAA40
:100F000022D18DF83030BDF81430ADF828301046BD
:100F100010F0A8FB38B1484620F0DAFA18B90121E0
:100F20004020FFF74BFD320752D5594D05AA68689E
:100F3000032120F06EFA804688B95749574840F29D
:100F4000B3420BF0A7FAFEE7032B05BFD4E900017B
:100F50008DF830308DF83000C2E90001D7E79DF8F8
:100F600014306868072B40F022810AAA414620F01D
:100F700054FA824630B14849484840F2B6420BF034
:100F800089FAFEE7FFF724FFBDF8161090B9FFF7C6
:100F90002DFF68B10431686889B20AAA20F03FFACF
:100FA00040B13D493D4840F2C7420BF073FAFEE7BD
:100FB0000231F0E7BDF816000730012180B20EF0D3
:100FC00091FA039000284AD101210C2011F088FAEF
:100FD000B10705D52E4B1B881A0701D5FFF764FD15
:100FE000B3010AD500210420FFF7E8FC284B9A78CA
:100FF000012A02D1586813F057F816F0284F03D091
:1010000000210420FFF7DAFC7E060CD5204C238853
:101010001D0701D5FFF748FD2388580703D5002198
:101020000420FFF7CBFCF90540F1CF8048461FF0C4
:10103000BCFF022802D0032840F0C080144C238853
:101040005A0703D500210420FFF7B8FC23889B072B
:1010500040F1BB80012011B0BDE8F04FCCE50EF0AF
:1010600017F94FF0000BCDF800B0BDF8163002466E
:1010700004464146686820F0ECF9BDF8163083421A
:1010800010D0054905484FF49B620BF003FAFEE7C8
:10109000C8480020E02000203D4C020064490200C6
:1010A000F44800201EF09EFE20440EF065FE00F085
:1010B0000700022823D1AB78042B89D11EF092FEC1
:1010C000434B20441B7882789A4281D159460820AC
:1010D000FFF774FC1EF086FE20440EF04DFE3D4BE3
:1010E000C0F3001018719DF836302B73FFF7B6FC73
:1010F00000287FF46DAF686812F0D6FF68E71EF035
:1011000071FE20440EF038FE830649D51EF06AFEBB
:1011100020440EF031FE00F00700032828D0012102
:101120000420FFF74BFC20F09EF92863BDF8163031
:101130009DF83620E254BDF816309DF83720234440
:1011400001209A71BDF816100A9A013121440EF05F
:1011500021FEBDF8163003981C4484F805A00EF05B
:1011600055FA1D4B18780DF077FD1DF009FE2FE79D
:10117000092120461EF052FF205C04284FF0010197
:10118000CED1FFF71BFC20F06EF928632B885806A0
:10119000CCD559464020FFF711FC4FF0010AC5E7B6
:1011A000AB78012BC2D1686812F07EFFBEE720F059
:1011B0002AF96868414620F049F909E707490848D3
:1011C00040F2B5520BF066F9FEE711B0BDE8F08FC2
:1011D00035490020E0200020384800203D4C020026
:1011E0006449020008B50246FFF7F2FD30B1072A54
:1011F00006D8044B002083F8342008BD7020FCE79B
:101200000220FAE7C848002008B50246FFF7E0FDD3
:1012100028B1044B93F834301370002008BD7020BF
:10122000FCE700BFC848002008B5074B0146002274
:10123000586820F023F930B1044905484FF437725B
:101240000BF028F9FEE708BDC84800203D4C02001D
:101250006449020008B5074B01460022586820F097
:1012600007F930B10449054840F2E2220BF012F9C7
:10127000FEE708BDC84800203D4C0200644902005A
:1012800008B5074B0146586820F004F930B105490C
:1012900005484FF43A720BF0FDF8FEE708BD00BFB9
:1012A000C84800203D4C02006449020008B5064BC6
:1012B0009B7833B10549064840F2F2220BF0EAF878
:1012C000FEE7BDE808402FE4C84800203D4C02007E
:1012D0006449020008B5044B014658681FF0BAFF84
:1012E000002818BF8B2008BDC8480020014B586853
:1012F00013F01EB9C8480020014B5888704700BF42
:10130000E02000207FB50123ADF80E3009484FF6EC
:10131000FE7300930DF10E02002304A940681FF034
:1013200018FF012894BFBDF810004FF6FF7007B0FA
:101330005DF804FBC848002008B5044B0146586816
:101340001FF08DFEB0FA80F0400908BDC8480020AB
:1013500038B50B4DAB78012B04460DD8FFF7ECFFE9
:1013600060B1084B5C80AB781BB9FFF7DDFB002058
:1013700038BDFFF741FBFAE73E20F9E78A20F7E79F
:10138000C8480020E0200020024B9B780BB9FFF7F3
:10139000CBBB7047C8480020014BD874704700BFD2
:1013A000C848002008B5054B012158681FF024FEED
:1013B0000028B8BF033040F3870008BDC8480020AC
:1013C00008B5044B58681FF046FE034BB3FBF0F022
:1013D00080B208BDC848002040420F0030B58DB033
:1013E0002C220446002101A820F0BCFD0123264D3B
:1013F0008DF808304FF002326423CDE903230693C1
:101400000B238DF82C302B8DADF80A30FFF7E0FC64
:10141000A0B140F2F23307934FF47A7305930CB9FD
:10142000FFF76EFB686801A913F056F9B8B11749C8
:10143000174840F269620BF02DF8FEE7FFF7C0FF96
:101440000C234343902BA3F10A0207930592DCBFC0
:1014500091230793059B8B2BE1D88C23DEE7FFF7C5
:10146000C5FC60B101226868114620F021F830B156
:101470000649074840F26C620BF00CF8FEE70CB925
:10148000FFF752FB0DB030BDC84800203D4C0200B4
:1014900064490200F8B5574C1BF0EFFF2388D905CB
:1014A000064603D5A37843BBFFF73EFB524D6B794D
:1014B000FF2B13D06B7903F0FF0723BBFF236B7166
:1014C000A378032B0AD100233046A3701BF0DBFF67
:1014D0003846FFF763FB1BF0D0FF0646A378042BCA
:1014E00008D12B79FF2B05D02B79022B14D143483F
:1014F0000DF0ACFAFF232B7128E000214FF480702F
:10150000FFF75CFAD2E76B79012B4FF0FF036B71A9
:1015100014BF89278D27D6E72B7913B12B79012B9F
:101520001FD1FFF79BFA2B790022FF212971DBB233
:1015300084F820200546002848D0012B0AD12F48E6
:10154000A37064210DF08DFAFFF756FA30461BF0B8
:101550009AFF06E03046A2701BF095FF3120FFF79E
:101560001DFB23881A0608D500218020FFF726FAE4
:1015700060681FF0E2FE10F0CAF923889B0507D5CA
:101580004FF400700021FFF719FA0020FFF726FF43
:101590000EF04EF8E08628B30DF07AFE01210546E4
:1015A000002010F09DFFA678012E15D1002684F8AA
:1015B0002060A670FFF7B8FA28460FF0C3FDA378A5
:1015C000E6867BB9BDE8F84010F044B8A07030461C
:1015D0001BF059FF2846C2E72EB128460FF0B2FD96
:1015E0000023E386F8BDFFF79FFA28460FF0AAFD17
:1015F000E686F7E7C8480020E0200020E848002001
:101600007FB5794C2388DB0700F1E7800121774D16
:101610000846FFF7D3F905237549A37005F10800C3
:1016200012F014FD606028B972497348F3220AF081
:1016300031FFFEE771481FF0FBFC69A3D3E90023EB
:10164000CDE900234FF0FF324FF0FF3360681FF009
:101650007EFD4FF48811606812F0C8FF014630B17A
:101660006449654840F20B120AF014FFFEE7644B30
:101670001B78012B0ED1634A606812F043FF60684B
:1016800013F058F8E0B15B495B4840F217120AF0DA
:1016900001FFFEE75C4E316831B9564956484FF4B8
:1016A0008D720AF0F7FEFEE7564A606812F02AFFD4
:1016B00033689B6823B1DB6913B15B7803B1EB71CD
:1016C000FFF720FE514B68801B78C3EB431203EBFE
:1016D0008203DB0001202385FFF780FE65680DF0A3
:1016E00035F90022014628461FF0CEFE054630B1EE
:1016F0004049414840F22D120AF0CCFEFEE740F28C
:1017000003532382424B04261B78E374A674FFF72D
:1017100057FE00EB80039B00A382FFF751FEC00041
:10172000E08231466068A5611FF093FC30B1314919
:1017300031484FF49E720AF0ADFEFEE76068324613
:1017400003A91FF02CFD042806D02A492A484FF48B
:10175000A0720AF09FFEFEE703A901200EF028FB0D
:1017600009F092FE606808224FF0FF311FF0F9FC8B
:1017700030B12049204840F249120AF08BFEFEE7C2
:1017800013F046F930B11B491B4840F24F120AF0E2
:1017900081FEFEE7FFF71CFB68B11CF084F80146F0
:1017A00060681FF042FD30B11249134840F25312F5
:1017B0000AF070FEFEE76468FFF7A4FD154B0146D2
:1017C00003F10C02204612F0AFFC30B109490A487F
:1017D0004FF4AD720AF05EFEFEE704B070BD00BFCC
:1017E0000A0020FF42030000C8480020E02000203B
:1017F000E50900003D4C020064490200690345EC24
:101800001A4900204909000018200020E321002087
:10181000E2210020684C020008B5044B58681FF014
:101820001CFC034BB3FBF0F080B208BDC84800209D
:1018300040420F002DE9F043864D2B889B0787B06F
:1018400006D48549854840F201720AF023FEFEE77E
:10185000AB78033B012B06D97F49804840F20372E5
:101860000AF018FEFEE7AA6832B97B497B4840F2CD
:1018700006720AF00FFEFEE7794E2C88F77914F015
:10188000200418BF4FF47A744FEA1718FFF7A0FA34
:10189000002872D0B8F1020F0AD0A8F10303022B7E
:1018A00069D96D496D4840F21A720AF0F3FDFEE7FE
:1018B000032795F8343008EBC8089844694B03EBCC
:1018C00048031046B3F81C801EF097FA4FF4FA5301
:1018D00043437822B3FBF8F37733B3FBF2F31F44AF
:1018E000C7EB0717AB78FF00BFB204F5347417FAE3
:1018F00084F4042BA4B203D107F6E8072744BCB252
:10190000D5F808801EF06EFA0746A8681EF075FA32
:1019100007441EF08DFABFB23F1A1EF063FA40442E
:101920000EF02AFA64238DF80C304F4BD5F8049052
:10193000CDE90434C0F340141EF086FABFB203466A
:1019400041463A4648461FF060FD2B887188318039
:1019500013F0200F03AB75D000936868434B224609
:1019600012F0B8FB002872D03B493C4840F2D962E3
:101970000AF090FDFEE706279BE7FFF737FA0028FD
:1019800044D0384B07F00F0708EBC801394403EB8C
:1019900041031046B3F81C901EF02FFAB8F1000F67
:1019A0002AD0B8F1010F2AD1400080B24FF00408CC
:1019B000F3191B7E4BB10233034443449BB24FF4F3
:1019C000FA525343B3FBF9F39CB2AB78042B97D193
:1019D0003744FFF7F5FC3B7E053398448146FFF71B
:1019E0001BFF0C2308FB00F003FB09F909EBC009FE
:1019F000A1441FFA89F483E74FF00208D8E716499B
:101A0000164840F23B720AF045FDFEE7FFF704FF7F
:101A10000746A8681EF0F1F9AB780930784304EB6B
:101A2000C000042B84B27FF46BAFFFF7C9FC0746FC
:101A3000FFF7F2FE602358430C2303FB070020440A
:101A400084B25DE76868224612F036FB8AE707B089
:101A5000BDE8F083C84800203D4C02006449020004
:101A6000E0200020684C020020A10700D848002098
:101A7000F8B5484C258815F0020506D04649474878
:101A80004FF4B3720AF006FDFEE784F820501BF015
:101A9000F4FC23885A0706460AD51FF0E4FC236BA2
:101AA000C01A238D984203D929460420FEF786FFE9
:101AB00030461BF0E8FCA778022F37D11BF0DDFC85
:101AC000238813F00405064607D035480CF0BEFF06
:101AD0003046BDE8F8401BF0D6BC1BF0D4FCA06833
:101AE0000FF0F0FD20B1A570BDE8F840FFF756B843
:101AF0001BF0C3FCA66805461EF074F930440EF0D6
:101B00003BF910F0200F0CBF0323042301213846BA
:101B1000A370FEF753FFFFF78DFE28461BF0B3FCC2
:101B200001210846BDE8F84010F0DABC042F27D1A7
:101B30001C4B1B79FF2B2CD1237FF3B11BF09DFC99
:101B400023885B07054604D515480CF07FFF28461F
:101B5000BFE71BF098FC237F013B23771BF08DFC34
:101B6000012104460220FEF729FFFFF763FE20460D
:101B70001BF089FC01210820D4E7A3704020B3E7C3
:101B8000012F06D160680023A37012F08DFA312076
:101B9000AAE7F8BDC84800203D4C02006449020095
:101BA000E8480020E020002038B50121044610203C
:101BB000FEF704FF064B5D68FFF702FC054B00FBD8
:101BC00004F1012228461FF0F8F9002038BD00BFBB
:101BD000C8480020C10B000010B50A4C2388DB0662
:101BE00006D40949094840F275320AF053FCFEE771
:101BF00010200021FEF7E2FE6068BDE810401FF0F3
:101C0000EAB900BFC84800203D4C02006449020008
:101C100038B50D4DE88E30B90C490D4840F282328E
:101C20000AF038FCFEE70DF033FB0446E88E0DF0B9
:101C30004BFB811F214401200EF0BAF804461FF02F
:101C400012FC001B38BD00BFC84800203D4C0200FC
:101C50006449020010B5074CA36833B90649074828
:101C600040F291320AF016FCFEE71FF0FCFBE36A3B
:101C7000C01A10BDC84800203D4C02006449020053
:101C800038B50A4DE88E30B909490A4840F29B320E
:101C90000AF000FCFEE70DF0FBFA0446E88E0DF0BA
:101CA00013FB044414F8020C38BD00BFC8480020E0
:101CB0003D4C02006449020038B50A4DE88E30B947
:101CC00009490A4840F2AA320AF0E4FBFEE70DF0A7
:101CD000DFFA0446E88E0DF0F7FA044414F9070C15
:101CE00038BD00BFC84800203D4C020064490200D6
:101CF00038B50A4DE88E30B909490A4840F2B93280
:101D00000AF0C8FBFEE70DF0C3FA0446E88E0DF0BA
:101D1000DBFA044414F9010C38BD00BFC8480020A8
:101D20003D4C020064490200024B1888C0F3C01009
:101D3000704700BFC848002030B50F4B05460FCB99
:101D400085B06C4684E80F000DB12B6800930B4BF7
:101D500021465868002212F001FC044630B10849BF
:101D6000084840F2D7320AF095FBFEE7FEF744FE42
:101D7000204605B030BD00BFF04C0200C84800202E
:101D80003D4C02006449020008B5074B0146586803
:101D90001FF0D5FA30B10549054840F2E5320AF0A6
:101DA00079FBFEE708BD00BFC84800203D4C02009B
:101DB0006449020008B5064B58681FF0D7FA30B1E5
:101DC000044905484FF47C720AF064FBFEE708BD45
:101DD000C84800203D4C020064490200024B012229
:101DE000586811461FF0E5B8C84800207047F8B59C
:101DF000054604200C461DF0D7FF03061DD5104EE6
:101E0000B778D7B91DB1012D02D00220F8BD012746
:101E10002046FFF791FA0028F7D070683A4621462D
:101E20001FF0E0F830B1074907484FF486620AF026
:101E300031FBFEE70623B370E8E77020E6E700BF5A
:101E4000C84800203D4C02006449020010B504203F
:101E50001DF0AAFF030610D5094CA378062B0CD160
:101E600060681FF0C2F830B10649074840F24942A5
:101E70000AF010FBFEE7A07010BD7020FCE700BF69
:101E8000C84800203D4C02006449020008B50349DF
:101E9000034840F261520AF0FDFAFEE73D4C0200B1
:101EA000644902000348044B834202D0034B03B150
:101EB0001847704710220020102200200000000068
:101EC0000548064B1B1AD90F01EBA301491002D09C
:101ED000034B03B118477047102200201022002046
:101EE0000000000010B5064C237843B9FFF7DAFF75
:101EF000044B13B10448AFF300800123237010BDDD
:101F0000084F002000000000786D020008B5054B66
:101F10001BB105490548AFF30080BDE80840FFF755
:101F2000CFBF00BF0000000040240020786D0200F9
:101F3000A3F5803A704700BF174B002B08BF134B27
:101F40009D46FFF7F5FF00218B460F461348144AC4
:101F5000121A20F007F80E4B002B00D098470D4BBB
:101F6000002B00D098470020002104000D000D48F0
:101F7000002802D00C48AFF3008019F027FD2000A4
:101F800029001BF041F819F06DFB00BF00000800AC
:101F900000000000000000000020002010220020AF
:101FA000644F00200000000000000000BFF34F8FCE
:101FB0000549CA6802F4E062044B1343CB60BFF3E7
:101FC0004F8F00BFFDE700BF00ED00E00400FA0501
:101FD00038B504461DF00FF8A04201D8012038BDE5
:101FE0000546032002F0C2FA08B90020F7E71BF00B
:101FF000DBF81BF0DAF82B46224603490348006859
:102000001CF007FAF1E700BFE0230200B02800202F
:1020100030B583B08368C26853F822301C78631EE1
:10202000DBB2032B16D8019404230DEB030201212C
:102030002348006811F072FC0546D8B9214B1C708A
:10204000032002F093FA28BB032002F08FFA60BB52
:1020500003B030BD012002F089FA0028F8D01BF04F
:10206000A3F81BF0A2F822461749184B18681CF079
:10207000D0F9EDE7012002F079FA0028E8D01BF052
:1020800093F81BF092F82A461149104B18681CF07F
:10209000C0F9DDE71BF088F81BF087F822460D49F0
:1020A0000A4B18681CF0B5F9CEE71BF07DF81BF061
:1020B0007CF80949054B18681CF0ABF9C8E700BF6C
:1020C00098200020D621002018240200B0280020EB
:1020D00040240200642402009C24020030B583B036
:1020E00004468368C26853F822301D782846FFF7FB
:1020F0006FFF08B903B030BD00230093ADF8043082
:10210000164B1B88ADF80230ADF804506368E268E6
:102110009B1A012B1DDDA368013253F822301B8866
:10212000ADF800301CF057FF694603201CF057FF44
:102130000446032002F01AFA0028DBD01BF034F822
:102140001BF033F822460649064B18681CF061F96B
:10215000D0E740F2FF13ADF80030E3E7464E002031
:10216000B8240200B028002030B583B0044683684C
:10217000C26853F822301D782846FFF729FF08B9B6
:1021800003B030BD00230093ADF80430154B1B881D
:10219000ADF80230ADF804506368E2689B1A012B79
:1021A0001BDDA368013253F822301B88ADF80030E4
:1021B000694604201CF013FF0446032002F0D6F900
:1021C0000028DDD01AF0F0FF1AF0EFFF2246064992
:1021D000064B18681CF01DF9D2E740F2FF13ADF86A
:1021E0000030E5E7464E0020D8240200B028002049
:1021F00030B583B004468368C26853F822301D7836
:102200002846FFF7E5FE08B903B030BD0023009370
:10221000ADF80430154B1B88ADF80230ADF8045012
:102220006368E2689B1A012B1BDDA368013253F837
:1022300022301B88ADF80030694602201CF0CFFE2A
:102240000446032002F092F90028DDD01AF0ACFF1A
:102250001AF0ABFF22460649064B18681CF0D9F865
:10226000D2E740F2FF13ADF80030E5E7464E00201C
:10227000EC240200B028002030B583B08368C26827
:1022800053F822301C780023019343689B1A012BDA
:1022900019DD01AA01211BF0A2FB01469DF80400F3
:1022A0001CF095FE054680B1022002F05FF960B196
:1022B0001AF07AFF1AF079FF2A460F490F4B186877
:1022C0001CF0A7F801E01CF086FE20461CF08BFEF7
:1022D000044608B903B030BD032002F047F90028D6
:1022E000F8D01AF061FF1AF060FF22460449034B50
:1022F00018681CF08EF8EDE708250200B0280020D1
:10230000202502002DE9F04182B01CF029FE05468F
:10231000854B1B7813F0020F3ED0844E13F0010F53
:102320003CD0824F13F0040F3AD0DFF80082032034
:1023300002F01CF9002836D1032002F017F900281A
:102340003BD1032002F012F9002845D1032002F00E
:102350000DF900284ED1032002F008F9002857D1CA
:10236000032002F003F9002860D1032002F0FEF8F8
:10237000002869D1032002F0F9F8002872D1032067
:1023800002F0F4F800287BD1032002F0EFF80028D7
:1023900040F08780082490E0654EBFE7644FC1E7B6
:1023A000DFF88C81C3E71AF0FFFE1AF0FEFE6149E8
:1023B000614B18681CF02DF8BEE71AF0F5FE1AF014
:1023C000F4FE5D4B1C6805F085F802460B465B4940
:1023D00020461CF01EF8B4E71AF0E6FE1AF0E5FEFF
:1023E000554B1C681CF094FD0246554920461CF0D4
:1023F00010F8ABE71AF0D8FE1AF0D7FE4E4B1C6867
:102400001CF0BAFD02464F4920461CF002F8A2E734
:102410001AF0CAFE1AF0C9FE474B1C681CF0A4FD56
:102420000246494920461BF0F4FF99E71AF0BCFE2A
:102430001AF0BBFE404B1C681CF09AFD0246434953
:1024400020461BF0E6FF90E71AF0AEFE1AF0ADFE54
:10245000394B1C681CF070FD02463D4920461BF0BC
:10246000D8FF87E71AF0A0FE1AF09FFE324B1C68D7
:102470001CF06AFD0246374920461BF0CAFF7EE782
:102480001AF092FE1AF091FE2B4B1868324B1A7814
:10249000FF2A04D0314B32491BF0BBFF74E7314BAC
:1024A000F9E71AF081FE1AF080FE2F49224B1868D6
:1024B0001BF0AFFF6EE7013CE4B28CB1032002F0E9
:1024C00055F80028F7D01AF06FFE1AF06EFE2B199F
:1024D00013F8012C2549184B18681BF09AFFEAE7FE
:1024E000032002F043F830B9032002F03FF860B94E
:1024F00002B0BDE8F0811AF057FE1AF056FE1C49F2
:102500000D4B18681BF085FFEEE71AF04DFE1AF030
:102510004CFECDF800803B4632461649064800681E
:102520001BF077FFE4E700BFD72100203C25020025
:10253000442502006C250200B0280020742502000A
:1025400090250200AC250200C8250200E425020007
:102550000026020018260200D62100206425020071
:102560003026020050250200482602005C260200A8
:10257000BC4702006426020030B583B08368C2689D
:1025800053F822301C7801A920461CF0D1FC88B9F0
:10259000032001F0EBFF08B903B030BD1AF004FED0
:1025A0001AF003FE019B22460B490C4800681BF001
:1025B00030FFF1E70546012001F0D8FF0028EBD0FD
:1025C0001AF0F2FD1AF0F1FD2A460549034B18688E
:1025D0001BF01FFFE0E700BF9C260200B028002090
:1025E000B826020070B58268C36852F823100C78D0
:1025F000013352F823301D78294620461CF0E3FCB5
:1026000080B9032001F0B2FF00B970BD1AF0CCFD13
:102610001AF0CBFD2B4622460B490C4800681BF0F4
:10262000F8FEF2E70646012001F0A0FF0028ECD0FA
:102630001AF0BAFD1AF0B9FD32460549034B186885
:102640001BF0E7FEE1E700BFDC260200B028002017
:102650000C27020008B5022001F088FF10B91CF019
:10266000C6FC08BD1AF0A0FD1AF09FFD0249034BFD
:1026700018681BF0CEFEF2E73C270200B0280020CD
:1026800000B583B08368C26853F822301A78144BBF
:102690001A70032001F06AFF10B903B05DF804FB63
:1026A0001AF082FD1AF081FD0E4B18680C4B197858
:1026B00011F0020F0DD00C4A11F0010F0BD00A4B94
:1026C00011F0040F09D00849009108491BF0A1FE40
:1026D000E3E7074AF0E7064BF2E70549F4E700BFF6
:1026E000D7210020B02800203C25020080270200CE
:1026F0004425020008B58368C26853F822301A885E
:10270000094B1A80032001F031FF00B908BD1AF00F
:102710004BFD1AF04AFD044B1A880449044B186813
:102720001BF077FEF2E700BFA0210020B4270200D3
:10273000B028002008B50A4B186810B10CF086F9D3
:1027400008BD012001F012FF0028F9D01AF02CFD7D
:102750001AF02BFD0349044B18681BF05AFEEFE7F3
:10276000D8240020D0270200B028002010B503464E
:102770008168C26851F82200B0F900001A4C20802C
:102780005B689B1A012B0FDD013251F8223093F95F
:102790000010003918BF01211CF0D2FBA0B90320A2
:1027A00001F0E4FE10B910BD0021F5E71AF0FCFCC1
:1027B0001AF0FBFC0D4B1C681CF0C6FB02460C49D2
:1027C00020461BF026FEEEE7012001F0CFFE002898
:1027D000E9D01AF0E9FC1AF0E8FC0649034B186846
:1027E0001BF017FEDFE700BF464E0020B028002098
:1027F000F82702000C28020030B595B004460D46BB
:1028000068461AF073FB0DF12C0EEC46BCE80F0085
:10281000AEE80F00BCE80F00AEE80F00DCF80030B7
:10282000CEF800300BA94D4B18681CF030FE10F1AB
:10283000880F54D00BA81CF0B8FE484B18681CF049
:102840000EFE68461AF052FB0DF12C0EEC46BCE869
:102850000F00AEE80F00BCE80F00AEE80F00DCF898
:102860000030CEF800304FF410510BA81AF05EFB88
:102870008023ADF82E304FF440730A930AA81AF063
:1028800046FB0A9B0E93364B0F93344B1A680C9BF6
:102890000D9213F0FF0F04D123F0FF0343F0010367
:1028A0000C9301230C932D4B2A4621460BA81CF0B8
:1028B00011FE04460BA81CF078FE04BB032001F0B7
:1028C00055FE80B9254B18681CF02AFB054680BBD5
:1028D000032001F04BFE044608BB01242EE00BA8A8
:1028E0001CF063FEADE71AF05FFC1AF05EFC1B4BB8
:1028F0001A681C491C4B18681BF08BFDE2E703208B
:1029000001F034FE0028DDD01AF04EFC1AF04DFC28
:1029100022461649144B18681BF07BFDD2E71AF0CB
:1029200043FC1AF042FC12490F4B18681BF071FD72
:1029300004E0032001F01AFE044610B9204615B049
:1029400030BD1AF031FC1AF030FC2A460949064B1A
:1029500018681BF05EFD0024F0E700BF582400203B
:102960000044400424280200B0280020542802001B
:10297000782802009828020000B583B00021019158
:1029800001AA1BF02CF8019910290ED0032001F0A8
:10299000EDFD60B11AF008FC1AF007FC10220549A1
:1029A000054B18681BF035FD01E0FFF725FF03B06C
:1029B0005DF804FBB8280200B028002008B51CF020
:1029C000B3FA032001F0D2FD00B908BD1AF0ECFB08
:1029D0001AF0EBFB0249034B18681BF01AFDF4E7F1
:1029E000E0280200B028002010B582B00023019337
:1029F00004230DEB030201212148006810F0D8FFE9
:102A000028B9019BCBB1042B19D9002300E0002386
:102A10001BB19DF80430012B22D001210091042329
:102A20006A461748006810F079FF0446032001F059
:102A30009DFD30B9012002B010BD0023E8E701235D
:102A4000E6E71AF0B1FB1AF0B0FB0E4B18682CB990
:102A50000D4B01220D491BF0DCFCEBE70C4BF8E7BA
:102A6000032001F083FD0028E4D01AF09DFB1AF04A
:102A70009CFB01220749034B18681BF0CAFCD9E7ED
:102A800098200020B0280020002902001829020008
:102A9000082902004829020008B51CF0A8FA0C48D1
:102AA00008F05AFA00230B4A13700B4A13700320E4
:102AB00001F05CFD10B900F065FF08BD1AF074FB71
:102AC0001AF073FB0549064B18681BF0A2FCF2E7ED
:102AD000A08601000A4F0020094F0020742902003F
:102AE000B028002010B582B06946002001F0EEFF4A
:102AF00088B9032001F03AFD08B902B010BD1AF000
:102B000053FB1AF052FB019B009A0B490B480068DB
:102B10001BF07FFCF1E70446012001F027FD0028AF
:102B2000EBD01AF041FB1AF040FB22460449034B5C
:102B300018681BF06EFCE0E798290200B02800201E
:102B4000C829020010B58AB009F000F801F03EFF74
:102B5000002859D101F01AFAFFF746FF5F4B1870B1
:102B6000FF2862D0032001F001FD00287AD1012066
:102B70005B4B18601CF073FC01A81AF0E4F9032009
:102B800001F0F4FC002879D1554B1A68029B03929E
:102B900013F0FF0F04D123F0FF0343F0010302936E
:102BA000504B05934FF44073009368461AF0DCF9DC
:102BB000009B04934FF4105101A81AF0E4F980230C
:102BC000ADF8063001230293454B1022464901A877
:102BD0001CF080FC044601A81CF0E7FC002C63D12B
:102BE000032001F0C3FC002852D13D4B18681CF0B3
:102BF00097F9FFF751FFFFF775FF032001F0B6FCCF
:102C0000002861D10AB010BD0446012001F0AEFCDD
:102C100000289FD01AF0C8FA1AF0C7FA22463349A2
:102C2000334B18681BF0F5FB94E7012001F09EFC84
:102C300070B9012001F09AFC002893D01AF0B4FA80
:102C40001AF0B3FA2B492A4B18681BF0E2FB89E70C
:102C50001AF0AAFA1AF0A9FA2749254B18681BF0AE
:102C6000D8FBE6E71AF0A0FA1AF09FFA1B4B1A7885
:102C700022491F4B18681BF0CCFB78E71AF094FA36
:102C80001AF093FA1E491A4B18681BF0C2FB7BE737
:102C90001AF08AFA1AF089FA114B1A681949144B7A
:102CA00018681BF0B6FBA0E7012001F05FFC0028CC
:102CB0009BD01AF079FA1AF078FA224612490C4B96
:102CC00018681BF0A6FB90E71AF06EFA1AF06DFA7E
:102CD0000E49074B18681BF09CFB93E7D621002098
:102CE000582400200044400400200020EC29020069
:102CF000B0280020482A0200242A02006C2A020080
:102D0000982A0200C02A0200E42A0200042B0200D2
:102D1000BFF34F8F0549CA6802F4E062044B1343C6
:102D2000CB60BFF34F8F00BFFDE700BF00ED00E0B9
:102D30000400FA0570B50546C388052B1DD98368C4
:102D40005E789C78DA7844EA02241A7944EA0244EC
:102D50005B7944EA0364032001F008FCE8B96A885F
:102D6000144B1A80144B1E70144B1C60144B002221
:102D70001A70144B01221A7070BD012001F0F6FB8D
:102D80000028F9D01AF010FA1AF00FFAEA880E4962
:102D90000E4B18681BF03DFBEEE71AF005FA1AF02F
:102DA00004FA234632460A49084800681BF031FB02
:102DB000D5E700BF484E00200B4F0020C024002064
:102DC000134F00200C4F00201C2B0200B0280020C5
:102DD0003C2B020030B585B00446B1238DF80C3091
:102DE0001B4B1B788DF80D3001238DF80E30194BDD
:102DF0001B78019303AB00930323002202211CF0F4
:102E0000D3F8A0B9032001F0B1FB08B905B030BD7B
:102E10001AF0CAF91AF0C9F9012300930C4B1B7878
:102E200022460D490D4800681BF0F3FAEEE705460F
:102E3000012001F09BFB0028E8D01AF0B5F91AF048
:102E4000B4F92A460649054B18681BF0E2FADDE79B
:102E5000D6210020D72100207C2B0200B0280020A2
:102E6000AC2B020008B5C388012B05D983685B78B9
:102E7000044A12789A4200D008BD4088FFF7AAFFA2
:102E8000FAE700BFD621002030B585B00446F12313
:102E90008DF80C30164B1B78019303AB0093012384
:102EA000002202211CF080F880B9032001F05EFBB3
:102EB00008B905B030BD1AF077F91AF076F9224654
:102EC0000C490D4B18681BF0A4FAF2E705460120E7
:102ED00001F04CFB0028ECD01AF066F91AF065F905
:102EE0002A460649044B18681BF093FAE1E700BF35
:102EF000D7210020CC2B0200B0280020EC2B0200B0
:102F000008B51BF089FD014B186008BDD0240020D6
:102F100010B586B0284B1B78FF2B21D01CF020F871
:102F2000A0238DF80C30244B1B788DF80D300268EF
:102F30004368CDF80E20CDF81230204B1B7801935A
:102F400003AB00930A230022022110461CF02CF848
:102F5000044600BB032001F009FB80B906B010BD98
:102F6000012001F003FB0028F8D01AF01DF91AF037
:102F70001CF91349134B18681BF04BFAEEE71AF0D3
:102F800013F91AF012F90C4B1A780F490D4B186807
:102F90001BF03FFAE2E7012001F0E8FA0028DDD05B
:102FA0001AF002F91AF001F922460849054B18688F
:102FB0001BF02FFAD2E700BFD6210020D721002036
:102FC000082C0200B02800203C2C02005C2C0200DF
:102FD000094B1B7803B9704700B583B0FFF798FF22
:102FE000002301930093054A42F21071044819F03E
:102FF000D5FF03B05DF804FB0A4F0020D12F00007D
:103000006024002000B583B0A8B1124B1B7813B127
:1030100003B05DF804FB012019F0DCFF0D4B012229
:103020001A700023019300930B4A4FF47A710B48F6
:103030001BF0FEFCECE7074B1B78002BE8D00120CF
:1030400019F0D5FF034B00221A70044807F0EAF884
:10305000DEE700BF144F00209BCF0100DC240020DE
:1030600010B582B01BF054FF08B102B010BD0023B0
:103070000093ADF804304FF6FF73ADF800301BF04D
:10308000CBFC174B1860694603201BF0A8FF0446D1
:1030900098B9144B01221A70032001F067FA002836
:1030A000E3D01AF081F81AF080F8BDF804200E4938
:1030B0000E4B18681BF0ADF9D7E70A4B00221A70C7
:1030C000012001F053FA0028CFD01AF06DF81AF061
:1030D0006CF822460649054B18681BF09AF9C4E7BC
:1030E000D0240020094F0020782C0200B0280020B6
:1030F000942C020010B50021084601F0B9FD98B9E2
:1031000001F05CFD124B01221A70032001F02EFA2F
:1031100000B910BD1AF048F81AF047F80D490E4BE7
:1031200018681BF076F9F4E70446094B00221A7080
:10313000012001F01BFA0028EBD01AF035F81AF044
:1031400034F822460549044B18681BF062F9E0E7A1
:10315000114F0020C82C0200B0280020E42C0200EF
:1031600008B500F0E9FF032001F000FA10B901F002
:103170007FFC08BD1AF018F81AF017F80249034B43
:1031800018681BF046F9F2E7082D0200B02800206D
:10319000C38843B330B583B0044683681D78037990
:1031A000022B07D00D2B03D0032001F0DFF958B913
:1031B00003B030BDB02D04D0F02DF3D1FFF7BAFD30
:1031C000F6E7FFF74FFEF3E719F0EEFF19F0EDFF1A
:1031D000E3880193009523796288034903480068D6
:1031E0001BF017F9E4E77047342D0200B0280020E7
:1031F00018B9204B00221A70704710B582B00446EF
:10320000032001F0B3F958B91B4B1B7833B1194AAD
:1032100013780133DBB21370022B11D802B010BD4A
:1032200019F0C2FF19F0C1FF124B1B780322009264
:10323000013322461149124800681BF0EAF8E3E71F
:10324000012001F093F958B900230A4A13700A4A81
:1032500013700C4B4FF4FA621A60FFF751FEDDE772
:1032600019F0A2FF19F0A1FF0749054B18681BF0E0
:10327000D0F8E9E7104F00200A4F0020602D02002F
:10328000B0280020102000207C2D020030B583B033
:10329000902812D00446912868D0032001F066F9E6
:1032A000002840F08680484B1B78002B75D0464B99
:1032B00000221A70FFF724FE6FE0032001F056F998
:1032C000A0B91BF051FE58BB012001F04FF9E8B93D
:1032D00000233E4A13703C4A13703D4A13603D4838
:1032E00006F0A0FF3C4B01221A7056E019F05CFF7B
:1032F00019F05BFF394B1C681BF036FE0246384B59
:103300001B78384920461BF084F8DAE719F04CFFA7
:1033100019F04BFF3449314B18681BF07AF8D7E7A6
:103320002A4B01221A700024274B1C702F4B4FF49C
:10333000FA621A602E4B1C702046FFF763FE1BF0EA
:103340006BFB234B1860234D284606F06BFF01945E
:1033500000942346274A4FF47A71284619F01EFE3E
:10336000254B1B6913F0200FFAD016E0032001F063
:10337000FDF8A0B90023154A1370134A1370144ABC
:1033800013601A4B4FF4FA621A600120FFF73AFEFD
:10339000104806F047FFFFF7B3FD03B030BD19F04A
:1033A00003FF19F002FF15490C4B18681BF031F8A8
:1033B000E0E719F0F9FE19F0F8FE22461049074B34
:1033C00018681BF026F86EE7094F00200A4F00200E
:1033D000C4240020602400200D4F0020B0280020CD
:1033E000D6210020A02D0200CC2D020010200020AC
:1033F000104F0020D12F0000000001401C2E0200C1
:103400002C2E020010B500F03DFF924B1B7893B9B3
:10341000914B1B7823B3914B1B784BB3904B1B788C
:10342000002B57D08F4B00221A608F4B1B78002B3C
:1034300040F0C48010BD874B00221A70012001F0BB
:1034400095F818B91BF0D3FDFFF762FC19F0ACFE3C
:1034500019F0ABFE8549864B18681AF0DAFFF1E7E0
:103460001BF0DAFA834B18607B4B01221A70D2E70B
:103470001BF0D2FA04467A4B1B7813B17E4B1868C6
:1034800088B900F0F7FE0028C8D07A4B1868201AD7
:1034900007F02CF8794B9842C0D9012001F066F86A
:1034A00070B9FFF735FC201A07F020F843F6972390
:1034B0009842E6D900F070FE684B01221A70ADE721
:1034C00019F072FE19F071FE6D49694B18681AF017
:1034D000A0FFE6E70120FFF795FD1BF09DFA0446EB
:1034E000604B1868F8B91C60664B1868201A06F023
:1034F000FDFF0446644B1B78002B3ED043F6982317
:10350000984297D9012001F031F840BB5E4B002270
:103510001A701BF0FDFC68BB5C4B4FF4FA621A603A
:10352000FFF7EEFC86E7201A06F0E0FF584B9842C2
:10353000DAD9012001F01AF830B9564B1B6913F0A3
:10354000200FFAD0FFF7E4FB19F02EFE19F02DFE44
:103550004F4A5149464B18681AF05BFFEDE719F0E6
:1035600023FE19F022FE22464C49414B18681AF0FE
:1035700050FFCBE71BF03BFDCEE7444B1B6883427B
:103580003FF658AF032000F0F1FF58B9FFF768FD90
:103590003E4A13685B0044F620618B4228BF0B460D
:1035A000136047E719F000FE19F0FFFD374B1A686A
:1035B0003B492F4B18681AF02CFFE7E72A4B1A708B
:1035C000032000F0D3FFE0B9002001F0D9FA04464F
:1035D00008BB344B1A88344B1A80344B1A78344B5E
:1035E0001A70344B1A68344B1A60344B01221A702B
:1035F000032000F0BBFFF8B92B4B1888FFF744FC01
:1036000018E719F0D1FD19F0D0FD2D49184B1868B5
:103610001AF0FFFED8E7012000F0A8FF00283FF4D1
:1036200009AF19F0C1FD19F0C0FD22462549104B24
:1036300018681AF0EEFEFDE619F0B6FD19F0B5FDBA
:103640001D4B1B681A4A12781F49094800681AF076
:10365000E0FED1E70D4F00200E4F00200F4F00205D
:103660000A4F0020CC2400200C4F0020442E0200E2
:10367000B0280020C8240020C42400201FBF02005E
:10368000802E0200D0240020094F002010200020AE
:10369000E093040000000140C02E0200FC2E020056
:1036A000282F0200484E00204A4E00200B4F0020D9
:1036B000124F0020C0240020D4240020134F0020EB
:1036C000442F02005C2F0200902F0200F0B583B05F
:1036D00006460F4614461D46032000F047FF40B93A
:1036E0000A4A17700A4B1C6000232B60012003B0AC
:1036F000F0BD19F059FD19F058FD00943B463246D3
:103700000449054800681AF084FEE9E7124F0020DA
:10371000D4240020C82F0200B028002070B582B049
:103720000D461446531A0133069A002001F00AFA96
:10373000C8B9214B1B68DBB1651C642204FB022263
:10374000B2FBF3F41D4AA2FB04311D4B1B68A2FB24
:103750000323DB08B3EBD10F18D3632C08D9184B24
:1037600000221A6004E00646012000F0FFFE08B9BE
:1037700002B070BD19F018FD19F017FD33462A4646
:103780001049114800681AF044FEF1E7032000F0E8
:10379000EDFE10B90A4B1C60DFE719F005FD19F0CA
:1037A00004FD054B1B6800932B462246074906483B
:1037B00000681AF02EFEEDE7D4240020CDCCCCCC4E
:1037C0005C240020FC2F0200B028002024300200DE
:1037D00070B582B0E8B90C461546032000F0C6FE6D
:1037E00058B90023154A137001930093144A6421B9
:1037F000144819F0D3FB02B070BD19F0D5FC19F0D4
:10380000D4FC2B4622461049104800681AF001FEED
:10381000E7E70646012000F0A9FE18B9074B002291
:103820001A70E8E719F0C0FC19F0BFFC32460849ED
:10383000064B18681AF0EDFDF0E700BF114F0020AD
:10384000F53000008024002044300200B028002021
:103850007430020070B582B005461446032000F0B3
:1038600085FEA0B91D4B1E78EEB1032000F07EFE50
:1038700040BB0025019500952B46194A2146194861
:1038800019F08CFB154B1D70304602B070BD19F05D
:103890008BFC19F08AFC23462A461349134800681A
:1038A0001AF0B7FDDEE7012000F060FE0028EBD043
:1038B00019F07AFC19F079FC0D490C4B18681AF0D4
:1038C000A8FDE1E719F070FC19F06FFC22460949E8
:1038D000064B18681AF09DFDCBE700BF114F002082
:1038E00061310000A02400209C300200B02800209C
:1038F000D0300200F430020010B580B1044601203F
:1039000000F034FE00B910BD19F04EFC19F04DFC6A
:1039100022460A490A4B18681AF07BFDF3E7032098
:1039200000F024FE0028EED019F03EFC19F03DFC1A
:103930000449034B18681AF06CFDE4E710310200EB
:10394000B028002030310200F0B583B004460D46A7
:1039500016461F46032000F009FE08B903B0F0BD6B
:1039600019F022FC19F021FC019700962B46224603
:103970000249034800681AF04CFDEFE748310200A5
:10398000B028002010B50120FFF73CFB084B4FF496
:10399000FA621A60074B00221A601BF03DF80446D9
:1039A00040F2A46006F038FD241A034B1C6010BDE1
:1039B00010200020CC240020D024002010B584B09A
:1039C0000D4BEC460FCBACE807008CF80030012320
:1039D0008DF803308DF8043000238DF808300E2365
:1039E0008DF80930054C6946204619F009FF20463C
:1039F00019F0F7FE04B010BDD437020000200540D6
:103A0000044B00221A605A609A60DA60024A1A6017
:103A1000704700BFFC2400203152474610B58EB0DD
:103A200001A801F03BF8059A0AB3D3680BB94FF42B
:103A3000805329490B6014694CB3B4F5E01F26D3B9
:103A4000B4F5001F23D34FF4C012B2FBF3F203FB13
:103A500002F2B2F5C01F2CD14FF4E012B2FBF3F228
:103A600002FB03F3B3F5E01F23D1012014E0012092
:103A700000F07CFD08B900200EE019F095FB19F06C
:103A800094FB1649164B18681AF0C3FCF3E70120A3
:103A900000F06CFD10B900200EB010BD19F084FBD1
:103AA00019F083FB22460F490D4B18681AF0B1FC40
:103AB000F1E7012000F05AFD08B90020ECE719F009
:103AC00073FB19F072FB044B1A680749044B186822
:103AD0001AF09FFCF1E700BF1420002074310200AF
:103AE000B0280020A4310200EC31020008B51023F8
:103AF000044A0321044800680FF010FFB0FA80F078
:103B0000400908BDFC2400209820002008B510239F
:103B10000F4A03210F4800680FF04AFF20B90C4BF1
:103B20001A680D4B9A4207D0032000F01FFD20B900
:103B3000FFF766FFFFF7DAFF08BD19F035FB19F054
:103B400034FB0649064B18681AF063FCF0E700BF27
:103B5000FC240020982000203152474634320200D5
:103B6000B02800202DE9F041ADF5007D674BD979F3
:103B7000674A52F821809E68731EB3F5802F33D2B6
:103B8000002000F0FDFF002842D1033626F0030696
:103B90000024B4427FD2351BB5F5807F28BF4FF497
:103BA000807504EB08072A4640A9384601F08AF8D8
:103BB00000283DD12B4640AA2146002000F0C2FF3C
:103BC000002846D12B466A462146002000F09CFF83
:103BD00000284FD12A46694640A81EF099F90028CE
:103BE00048D104F58074D4E7012000F0BFFC20B96F
:103BF00000200DF5007DBDE8F08119F0D5FA19F02F
:103C0000D4FA32464349444B18681AF002FCEFE7F5
:103C1000012000F0ABFC08B90020EAE719F0C4FA73
:103C200019F0C3FA3D493C4B18681AF0F2FBF3E770
:103C3000012000F09BFC08B90020DAE719F0B4FA83
:103C400019F0B3FA3A463649334B18681AF0E1FBDB
:103C5000F2E7012000F08AFC08B90020C9E719F05A
:103C6000A3FA19F0A2FA22462E492B4B18681AF033
:103C7000D0FBF2E7012000F079FC08B90020B8E79A
:103C800019F092FA19F091FA22462749224B186846
:103C90001AF0BFFBF2E70021084600F0E9FF58B92F
:103CA000002000F08BFFB8B9032000F05FFC18BBC8
:103CB00000F0DEFE01209CE7012000F057FC08B96F
:103CC000002096E719F070FA19F06FFA1749124BB5
:103CD00018681AF09EFBF3E7012000F047FC08B9D2
:103CE000002086E719F060FA19F05FFA10490A4BD4
:103CF00018681AF08EFBF3E719F056FA19F055FA26
:103D00000C49054B18681AF084FBD1E7FC2400200D
:103D1000CC37020064320200B02800208832020052
:103D2000A8320200CC320200EC320200143302004E
:103D30003C330200603302002DE9F047ADF5047D0D
:103D40000021084600F094FF00283AD182A9002003
:103D500000F0BCFE002847D1002404F10803839A38
:103D6000934251D808236A462146002000F0CCFE39
:103D7000002840F090809DF800309DF8012043EA33
:103D800002239DF8022043EA02439DF8032043EA00
:103D900002629DF804309DF8051043EA01239DF866
:103DA000061043EA01439DF8071043EA0163839933
:103DB000994272D3234403F10804694B9A42CCD14F
:103DC00023E0012000F0D2FB20B900200DF5047D96
:103DD000BDE8F08719F0E8F919F0E7F96149624B9D
:103DE00018681AF016FBF0E7012000F0BFFB08B9D5
:103DF0000020EBE719F0D8F919F0D7F95B495A4BD5
:103E000018681AF006FBF3E70024631EB3F5802F51
:103E100045D2574B93F807A0BAFA8AFA4FEA5A1AD2
:103E2000544B53F82A904FF48021484600F086FF07
:103E3000002847D104F1030828F00308002646456E
:103E400080F08480A8EB0605B5F5807F28BF4FF48D
:103E500080752B4642AA3146002000F055FE00280E
:103E600041D106EB09072A4642A9384600F048FF2F
:103E7000002849D12A4602A9384600F023FF00282D
:103E800053D12A4602A942A81EF042F800284CD17C
:103E900006F58076D3E70024B7E70024B5E70120D4
:103EA00000F064FB08B9002090E719F07DF919F0E3
:103EB0007CF94FF4802322462F492B4800681AF0E2
:103EC000A8FAF0E7012000F051FB08B900207DE7D7
:103ED00019F06AF919F069F94A462849224B18681D
:103EE0001AF097FAF2E7012000F040FB08B9002031
:103EF0006CE719F059F919F058F9324620491A4B74
:103F000018681AF086FAF2E7012000F02FFB08B9D2
:103F100000205BE719F048F919F047F93A461949CA
:103F2000114B18681AF075FAF2E7012000F01EFB39
:103F300008B900204AE719F037F919F036F93A467E
:103F40001149094B18681AF064FAF2E7084B83F834
:103F500007A09C6001221A73FFF7C8FD36E700BF77
:103F6000FC0404FC94330200B0280020CC3302008F
:103F7000FC240020CC370200F03302002834020079
:103F800050340200703402009434020010B584B042
:103F9000FFF714FDFFF7BAFDFFF740FD5B4B18700C
:103FA000032000F0E3FA20B9594B9B79BBB904B068
:103FB00010BD19F0F9F819F0F8F8554AD379117BCA
:103FC0009068524C24780394029001910093938856
:103FD00092795049504800681AF01BFAE4E74C4ABD
:103FE000938801339380FFF781FD08B3032000F02D
:103FF000BDFA60BB464B9B88042BD8D9434B1B783A
:104000001BB1434B1B7B002B42D1012000F0AEFAC9
:1040100050BB012000F0AAFA00282FD13C4B9B880E
:10402000052BC4D93A4B05229A80FFF75FFDBEE706
:10403000012000F09BFA0028D8D019F0B5F819F04B
:10404000B4F83649344B18681AF0E3F9CEE719F0A2
:10405000ABF819F0AAF805232D4A928830492E486A
:1040600000681AF0D6F9C5E719F09EF819F09DF826
:104070002C49294B18681AF0CCF9CAE719F094F8C2
:1040800019F093F82849244B18681AF0C2F9C5E7CB
:10409000032000F06BFAC8B91D4B00229A80012260
:1040A0009A71FFF723FDFFF75DFDF8B1012000F0E5
:1040B0005DFA00283FF47BAF19F076F819F075F837
:1040C0001A49154B18681AF0A4F970E719F06CF842
:1040D00019F06BF8104B18680D4BDB7923B14222B5
:1040E00013491AF096F9D7E74122F9E7012000F0C9
:1040F0003DFA00283FF45BAF19F056F819F055F877
:104100000C49054B18681AF084F950E7154F002048
:10411000FC240020C0340200B02800200C3502002E
:104120004035020060350200A8350200103602005A
:10413000E83502004836020008B5134B01229A7197
:1041400000229A80FFF7D2FC70B9012000F00EFA2D
:1041500000B908BD19F028F819F027F80B490C4BE5
:1041600018681AF056F9F4E7032000F0FFF9002868
:10417000EFD019F019F819F018F80649044B18682F
:104180001AF047F9E5E700BFFC2400208036020062
:10419000B0280020BC36020008B52F4B9B792BB904
:1041A0002D4A127B12B12C4A928892B113B92A4B34
:1041B0001B7B13B9294B1B7863B9274B00229A71DB
:1041C0009A80FFF793FC002837D1012000F0CEF948
:1041D00048BB08BDFFF7B0FDB0B1032000F0C6F941
:1041E0000028EAD018F0E0FF18F0DFFF1C4B186839
:1041F000194BDB7933B14222174B9B6819491AF0EE
:1042000008F9DAE74122F7E7012000F0AFF90028CA
:10421000D3D018F0C9FF18F0C8FF1349104B186825
:104220001AF0F7F8C9E718F0BFFF18F0BEFF0F4902
:104230000B4B18681AF0EDF8CBE7032000F096F965
:104240000028C6D018F0B0FF18F0AFFF0849044BA3
:1042500018681AF0DEF8BCE7FC240020154F002097
:10426000B0280020F4360200343702007037020014
:104270009C370200024B9879003818BF0120704724
:10428000FC24002008B5024819F0ABFA08BD00BFB5
:104290000020054008B5024B1B6803B1984708BDD4
:1042A0003C25002008B5024B5B6803B1984708BD68
:1042B0003C25002008B5024B9B6803B1984708BD18
:1042C0003C25002008B5024BDB6803B1984708BDC8
:1042D0003C25002008B5024B1B6903B1984708BD77
:1042E0003C25002008B5024B5B6903B1984708BD27
:1042F0003C25002030B585B0094C2268094B1A6076
:10430000094D0A4B2B600A4B019304F0D9FE029031
:104310002B68039301A9206819F083FB05B030BD19
:104320003420002084330020803300202820002007
:104330002441020008B5024B186819F086FB08BD3D
:104340003420002038B504F0BBFE0446064D2B682F
:10435000D3F8B00204F0A8FE286819F090FB2046BC
:1043600004F0A2FE38BD00BF3420002038B501F0B3
:10437000F9FE01210D4801F0C7FA01221146002083
:1043800001F034FE0A4C0225C4F880500122114687
:10439000002001F02BFEC4F88450012211460020B9
:1043A00001F024FEC4F88850002038BD30253E00BE
:1043B00000400E4008B5164B01225A6403F092F8F3
:1043C000024668B9134B4AF6E851C3F89011D3F886
:1043D000981141F00401C3F898110021C3F890111D
:1043E000012A0DD90C4A136A23F4441343F48813A9
:1043F0001362A2F58042136843F48073136008BD12
:10440000044AD2F8643143F40053C2F86431E9E756
:1044100000000E4000300E4000400E4008B5012163
:10442000034801F071FA034800F0FEFD08BD00BF2B
:1044300000350A0038200020012900D9704708B54E
:10444000034B1B68186808B1436A984708BD00BF52
:104450005020002030B599B0284D11ACAC46BCE8D6
:104460000F000FC49CE8070084E8070000240B94A9
:104470000C940D940E940F941094214B0B93214B9C
:104480000C9301228DF8372002238DF83930032355
:104490008DF83B301E238DF83F308DF8403009AB4E
:1044A0001C3595E8030083E803000DF10C0C039420
:1044B000049405940694079408948CE803000C2354
:1044C0008DF814300D238DF815300F4B06932023F3
:1044D00007938DF820208DF821200C4B00930BAB17
:1044E00011AA61460A4804F0C3FF054621464FF46D
:1044F000E13018F099FE284619B030BD3C41020069
:104500000000014000420400102800203028002054
:104510008428002008B50349034805F011FBFFF784
:1045200099FF08BD54200020A828002008B50248A3
:104530001AF083F908BD00BF8428002008B502489E
:104540001AF07BF908BD00BF8428002008B5024B93
:104550001A6A1868904708BD8428002008B50248E8
:1045600018F0C6FE08BD00BF6041020003460B4ABA
:10457000107828B10A4A12789A4202D2002000E04C
:104580000120084A12783AB1074A127842FA03F336
:1045900013F0010F00D10020704700BFDA21002086
:1045A000D9210020164F0020D821002008B5084B43
:1045B00001221A70074B00221A70074B04221A704E
:1045C000064B1F221A7004F07BFD054B186008BDD6
:1045D000DA210020164F0020D9210020D821002008
:1045E000B028002000B591B000F0F0F950B903A850
:1045F00000F054FA069BABB901200F4B187011B0B4
:104600005DF804FB0120FFF7B1FF08B90020F6E7D1
:1046100018F0CAFD18F0C9FD0849094B186819F0CF
:10462000F8FEF3E701A9002000F050FA0028E3D1DA
:10463000019A044B1A60DFE7174F0020784102000F
:10464000B0280020B428002008B5064B1B782BB1F9
:1046500000F0E6F9034B00221A7008BDFFF7C2FF15
:10466000F6E700BF174F002008B50121054801F00B
:104670004BF918F0FAFC012018F0AEFD00F076F8C6
:1046800008BD00BF00350A0008B50121014801F04E
:104690003BF908BD00350A002DE9F04180460F4680
:1046A00001F109050026344604E05B21082000F0F2
:1046B00093FC0134AC4233D2052C1BD801A353F830
:1046C00024F000BFAB460000DD46000011470000AB
:1046D000E5460000E9460000ED460000FBB2043369
:1046E000D9B2E3E78021E1E70021DFE7731C31461F
:1046F000DEB2DBE7BB1DA3420CD0FB1DA3420BD0F7
:1047000007F10803A34209D0A31F18F80310CDE74F
:10471000D121CBE75A21C9E75A21C7E75D21C5E777
:104720000020BDE8F08100BF00B583B000220092F8
:10473000019202218DF80010054818F05FFD0190EC
:1047400008216846FFF7A8FF03B05DF804FB00BF2F
:10475000006A1800014B1022DA60704700A0004484
:10476000014B1022DA60704700A0004670B588B097
:104770000DF1040C374C0FCCACE80F0094E80700A7
:104780008CE807000121344801F0BEF8334E0121C6
:10479000304601F0B9F801258DF81250304B0393E3
:1047A000304C01A9204618F0C0FF2B4604220621F8
:1047B000022002F045FB00232A460721022002F0D6
:1047C0003FFB2B4604220821022002F039FB2B4636
:1047D00004221146002002F033FB234BA3670B2376
:1047E00063674FF4487006F0B7FBFFF7B3FF142080
:1047F00006F0B2FBFFF7B4FF232006F0ADFBFFF796
:10480000A9FFB921204618F0DAFFFFF7A9FF00231E
:104810001A460621022002F013FB00231A46072144
:10482000022002F00DFB2B4600220821022002F09C
:1048300007FB2B4600220421104602F001FB204614
:1048400002F0AAFE0021A1676167304601F05CF822
:1048500008B070BD9441020000350A000052040007
:1048600000127A00000401400B0B000B08B500F0A9
:1048700087F8124A0AE01068516850F8230041F89E
:104880002300013391688B42F5D30C320C4B9A42D2
:1048900001D20023F6E70B4A08E01168002041F836
:1048A0002300013351688B42F7D30832064B9A42FA
:1048B00001D20023F6E7FDF73FFB00BF806D020049
:1048C0008C6D02008C6D02008C6D020000487047F8
:1048D00000F04902114BD3F8943003F00703023B78
:1048E000032B0DD8DFE803F0050F02080C4B186806
:1048F0000BE00C4B186808E00B4B1868400804E00C
:10490000094B186801E04FF40040044BD3F8003124
:10491000C3F304230133B0FBF3F0704700400E40B3
:104920006C200020702000206420002008B5FFF7D4
:10493000D1FF054BD3F80831C3F308230133B0FB93
:10494000F3F0024B186008BD00400E4068200020C4
:10495000014B1868704700BF7020002008B5064B57
:104960001860064BD3F8943003F00703022B00D0F5
:1049700008BDFFF7DBFFFBE77020002000400E4082
:10498000044B054A9A60D3F8882042F47002C3F8B9
:104990008820704700ED00E000000000014B18681F
:1049A000704700BF6C200020BFF34F8F0549CA68D5
:1049B00002F4E062044B1343CB60BFF34F8F00BFA0
:1049C000FDE700BF00ED00E00400FA0508B5114B5B
:1049D000D3F82828A2F17E63A3F58433B3F5104FF2
:1049E00011D211680C4B994210D10C4B1B781BB1A2
:1049F000022B01D0002008E0D369984728B9074B63
:104A000001221A7001E04FF4817008BD4FF48170EB
:104A1000FBE700BF0000E10F07B0CD5E184F00209C
:104A200008B5104BD3F82828A2F17E63A3F5843390
:104A3000B3F5104F10D211680B4B99420FD10B4BAD
:104A40001B78012B01D0002008E0136A984728B991
:104A5000064B02221A7001E04FF4817008BD4FF43A
:104A60008170FBE70000E10F07B0CD5E184F00201A
:104A700008B54FF0005340F202221A804FF20F02A5
:104A80005A80054A01239360136823F4E06343F4DA
:104A900080631360FFF788FF00500E4008B50A4B93
:104AA000D3F82828A2F17E63A3F58433B3F5104F21
:104AB00009D2126BA2F17E63A3F58433B3F5104FD4
:104AC00001D25368984708BD0000E10F08B50D4BAF
:104AD000D3F82828A2F17E63A3F58433B3F5104FF1
:104AE0000AD2126BA2F17E63A3F58433B3F5104FA3
:104AF00005D29368984701E04FF4817008BD4FF4E8
:104B00008170FBE70000E10F38B50D4CD4F8284860
:104B1000A4F17E6CACF5843CBCF5104F0AD2256B39
:104B2000A5F17E64A4F58434B4F5104F05D2EC6889
:104B3000A04701E04FF4817038BD4FF48170FBE76E
:104B40000000E10F38B50D4CD4F82848A4F17E6C74
:104B5000ACF5843CBCF5104F0AD2256BA5F17E6400
:104B6000A4F58434B4F5104F05D22C69A04701E0B8
:104B70004FF4817038BD4FF48170FBE70000E10F06
:104B800008B50D4BD3F82828A2F17E63A3F5843332
:104B9000B3F5104F0AD2126BA2F17E63A3F58433F2
:104BA000B3F5104F05D25369984701E04FF4817077
:104BB00008BD4FF48170FBE70000E10F00B583B042
:104BC00001900F4BD3F82828A2F17E63A3F584331C
:104BD000B3F5104F0CD2126BA2F17E63A3F58433B0
:104BE000B3F5104F09D29369012101A8984701E05C
:104BF0004FF4817003B05DF804FB4FF48170F9E766
:104C00000000E10F10B50A4BD3F82848A4F17E63E9
:104C1000A3F58433B3F5104F04D2236B2BB15B6A39
:104C2000984701E04FF4017010BD4FF40170FBE7AD
:104C30000000E10F08B50D4BD3F82828A2F17E63E0
:104C4000A3F58433B3F5104F0AD2126BA2F17E6341
:104C5000A3F58433B3F5104F05D2936A984701E06A
:104C60004FF4017008BD4FF40170FBE70000E10F45
:104C700030B5E1B0124BD3F82838A3F17E63A3F529
:104C80008433B3F5104F15D20C464FF4C072694609
:104C9000FFF7B8FF054678B921466846FFF7CAFF17
:104CA00040F201239842F7D040F20323984203D008
:104CB000054601E04FF40175284661B030BD00BFE4
:104CC0000000E10F10B50D4BD3F82848A4F17E6326
:104CD000A3F58433B3F5104F0AD2246BA4F17E639D
:104CE000A3F58433B3F5104F05D2636B984701E009
:104CF00040F2011010BD40F20110FBE70000E10F8F
:104D000010B50D4BD3F82848A4F17E63A3F5843386
:104D1000B3F5104F0AD2246BA4F17E63A3F584335C
:104D2000B3F5104F05D2A36B984701E040F2011094
:104D300010BD40F20110FBE70000E10F08B50D4B7C
:104D4000D3F82828A2F17E63A3F58433B3F5104F7E
:104D50000AD2126BA2F17E63A3F58433B3F5104F30
:104D600005D2D36B984701E040F2011008BD40F234
:104D70000110FBE70000E10FF0B18446F1B110B47F
:104D800009E004F120000FE02033C01A18D1BCB1B3
:104D90000CF1010C01319CF800400B4B1B5D03F042
:104DA0000303012BEDD020460B78074AD25C02F0BA
:104DB0000302012AE9D1E7E701207047012070478B
:104DC0005DF8044B704700BF1B6C02000346064AA7
:104DD00010680344054A934202D8034A136070479F
:104DE0004FF0FF30704700BF742000200000042007
:104DF0000B681A78022A00D1704710B508461A7954
:104E0000597902EB42021201064C144401EBC40230
:104E100092001268B2FA82F252091A7018F06FFA10
:104E200010BD00BF1CA0100230B583B00546046859
:104E30000121174800F068FD0023012261792079E3
:104E400001F0FEFF2379627903EB43031B01114953
:104E5000194402EBC1039B001B68B3FA83F35B099F
:104E60002370A379022B02D0002003B030BD00F0E4
:104E7000E9FB2A460849607900F00CFC024661799A
:104E8000207901230193009301F084FFECE700BF38
:104E900000350A001CA01002F14D000002681378D2
:104EA000022B15D01379517903EB43031B011548ED
:104EB000184401EBC0039B0019680B1E18BF0123A7
:104EC0009079012805D018B9B1FA81F1490911701A
:104ED00070475188490089B20B4343F47F4343F044
:104EE000C0034FF6E0718B4205D04FF6DF718B4265
:104EF00004D05380704701211170FAE7002111702E
:104F0000F7E700BF1CA0100208B50121294800F0F6
:104F1000FBFC012304220221052001F091FF002067
:104F200001F02CFF0121244BC3F810180A4604207D
:104F300001F05CF8214800F0A5FE214BD3F8F020E9
:104F400042F00102C3F8F020D3F8FC2042F0807256
:104F5000C3F8FC20A3F55D431A4A1A6000F5D5207A
:104F600000F2FC40C008184BA3FB0030800A013857
:104F7000164B18610222C3F8F0204FF48072C3F878
:104F800004234FF06043124AC3F8B02F114AC3F80C
:104F9000802ED3F8002E42F48072C3F8002EFF2238
:104FA00083F82020D3F8002E22F48072C3F8002E5C
:104FB000002008BD00350A000080144206000E00E3
:104FC00000ED00E0FF03004017916502000004E0DF
:104FD00055CEACC5090001004FF06043D3F8803EC8
:104FE00013F0010F01D1112070470E4AD2F8FC30A6
:104FF00043F08073C2F8FC304FF06043D3F8002ECA
:105000004FF0010C0CFA00FC42EA0C02C3F8002E2F
:1050100053F82030002BE8D04FF0604303F8201005
:105020000020704700ED00E070B584B00446012117
:105030002A4800F069FC2368294A934215D002F5FA
:105040008062934247D12748012100F05DFC012393
:105050000A226179207901F0F3FE01230A22E17925
:10506000A07901F0EDFE00251AE01F48ECE7237956
:10507000617903EB43031B01012606FA01F11B4A88
:10508000D150642005F068FF2379627903EB430374
:105090001B019640164AD650642005F05DFF01358D
:1050A000092DE4DD236803225A64637A227A43EAF5
:1050B00002232268936401238DF800308DF80130BB
:1050C00023690293E3680193237D8DF80C306946D0
:1050D000206801F047FF04B070BD00BF40410500EB
:1050E00000C0004000920400008204000CA00044B4
:1050F0000CA00046F0B585B00C4694469DF83410DF
:10510000664A1278002A00F0BD800546BCF1070F00
:1051100000F2BA800A9A002A00F0B8800B9A002A9E
:1051200000F0B6800E9AB2F5006F00F3B38001284C
:105130005BD05B4A02EB0C12127B002A00F0AC80C1
:1051400000220092019202920392564A02EB4C1EF8
:10515000002C4FD14FEA4C1600209051CEF804009D
:10516000CEF80800CEF80C009EF8020040F01000C7
:105170008EF802009EF8030040F030008EF8030025
:1051800021B9C1B241F003018EF8031000930E9BC8
:10519000013B444A4FEA4C1002EB4C11165A63F3A0
:1051A0000E1616520A9B8B600B9B4B60CB789DF8BA
:1051B0003C2062F38303CB70012D36D0109B002B73
:1051C00056D0374A4FEA0C1102EB0C13109850508E
:1051D000119A5A6000249C605D737246694660466D
:1051E00001F02AFF204605B0F0BD0C9A002AA0D19C
:1051F0002D48F8E72B4F4FEA4C1607EB4C120020D6
:10520000B85150609060D060907840F0100090707D
:10521000D07840F00300D0700029B7D107EB4C12D2
:10522000C1B241F03001D170B0E70E460A7B42F0C6
:1052300001020A73D2B242F002020A73CA68042160
:1052400061F39F02F26006F1100796E80F0087E80D
:105250000F00F2696FF0030161F39F02F2610C9B92
:105260007361012CAAD10B9AB2610C9A7260A5E706
:10527000002DA6D10B4B03EB4C139A786FF304125D
:105280009A709EE70948AEE70748ACE70648AAE7E8
:105290000548A8E70448A6E70548A4E7194F0020F9
:1052A000B8290020B8280020018000F0028000F01A
:1052B000078000F0134B1B78FBB110B50446F0B12A
:1052C00018F0DBF80023072B13D80F4A02EB031268
:1052D000127B0AB10133F6E723600B4A190102EB96
:1052E000031301241C730024545018F0CCF82046FA
:1052F00002E018F0C8F8054810BD05487047054899
:10530000FAE700BF194F0020B8290020048000F000
:10531000028000F0018000F038B518F0AEF80446C5
:105320000023072B06DC0C4A02EB0312127B12B996
:105330000133F6E7002222B1204618F0A4F807480E
:1053400038BD01F02DFE0025054B1D70204618F0DC
:105350009AF82846F4E700BFB8290020058000F03D
:10536000194F00200F4B1B78BBB110B5044607281E
:1053700015D818F082F80C4B03EB04131B7B1BB9F8
:1053800018F081F809480BE0074B03EB04130024E5
:105390001C7318F078F8204602E00548704705486D
:1053A00010BD00BF194F0020B8290020068000F072
:1053B000028000F0018000F000B583B0144B1B6840
:1053C000019300238DF8043018F057F8114B1B7827
:1053D00033B9104B01221A7018F055F8002309E078
:1053E00018F051F80C480FE00C4A02EB03120021B0
:1053F00011730133072BF7DD04238DF807300DEB14
:10540000030001F0EFFD002003B05DF804FB00BFD6
:1054100000420200194F0020038000F0B82900204C
:1054200008B50A4B1B785BB107280BD8084B03EB78
:1054300000131B7B43B1002101F0CAFD002008BD11
:105440000448FCE70448FAE70448F8E7194F00204D
:10545000B8290020028000F0018000F0078000F0F1
:1054600008B50A4B1B785BB107280BD8084B03EB38
:1054700000131B7B43B1012101F0AAFD002008BDF0
:105480000448FCE70448FAE70448F8E7194F00200D
:10549000B8290020028000F0018000F0078000F0B1
:1054A00008B50A4B1B7853B107280AD8084B03EB01
:1054B00000131B7B3BB101F013FE002008BD054823
:1054C000FCE70548FAE70548F8E700BF194F002058
:1054D000B8290020028000F0018000F0078000F071
:1054E000104B1B78ABB1072815D8B1B10E4B03EBAD
:1054F00000131B7B9BB10D4B1B6E0122824013EAF4
:10550000020003D001230B700020704700230B70B2
:105510007047074870470748704706487047064875
:10552000704700BF194F0020B829002000200E400E
:10553000028000F0018000F0078000F00C4B1B7827
:1055400073B110B50C4607280CD869B1094B03EBB1
:1055500000131B7B53B101F0D7FD2070002010BD5C
:10556000054870470548FAE70448F8E70448F6E7B5
:10557000194F0020B8290020028000F0018000F0BF
:10558000078000F0F8B5194B1F6EDB6E1F4002D488
:105590000125002402E0FEE701346D00072C24D829
:1055A0003D42F9D0114B9D662301114AD358002B7F
:1055B000F2D002EB0416B1680131B1607268204686
:1055C000984780F00100C0B2737B012BE4D1002822
:1055D000E2D0084B03EB44131A7B6FF341021A73BA
:1055E0001A7F6FF341021A77D6E7F8BD00200E400C
:1055F000B8290020B828002010B5044602E0202079
:1056000007E09047DCB194FAA4F00028F7D0B0FA94
:1056100080F00123834024EA0304094B03EB0013C9
:105620005A68002AEED0064B03EB00131B7B002BBD
:10563000E7D0034B03EB001399689047E2E710BDF6
:10564000382A002008B5122000F046FE28B1084B89
:105650004FF48022C3F880211A600A2000F03CFE3B
:1056600028B1034B4FF48062C3F880211A6008BD53
:1056700000E100E038B505460C4617F0FEFE044B8D
:1056800003EB05135C6000221A7317F0FCFE38BDB3
:10569000382A0020F8B505460F46164617F0EDFEED
:1056A00005F0FC0C0F4BD3F828140023032B0BD868
:1056B0005C1904F00304644421FA04F212F0010FAF
:1056C00003D00133DBB2F1E7FF24FF2C06D0064BF9
:1056D00003EB04135F609E6001221A7317F0D3FE80
:1056E0002046F8BD00A00040382A002008B5064B2F
:1056F000D3F82804D3F81C24104000F05530C3F828
:105700002404FFF779FF08BD00A0004008B5064B50
:10571000D3F82804D3F81C24104000F0AA30C3F8B2
:105720002404FFF769FF08BD00A0004008B5034B43
:105730001968034B18680EF017F808BD7820002090
:1057400098200020B0F1FF3F01D010B97047024807
:1057500070470248704700BF21E000F024E000F0ED
:10576000F8B505460E469400224617F08FFFFFF766
:10577000E9FF074628B92246314628461CF0C8FBF7
:1057800008B93846F8BD014FFBE700BF10E000F054
:1057900038B5044601F08CFDFFF7D4FF054608B18B
:1057A000284638BD01F0A6FE0146204617F002FE4D
:1057B0000028F5D1004DF3E70EE000F008B517F032
:1057C0004DFE014B186008BD2833002008B5024B80
:1057D000186817F047FE08BD28330020074BDB6B25
:1057E00013F0400F04D1064BD3F8C830002BFAD188
:1057F000024B5868C0F30140704700BF00300E40B4
:105800000000C6430C4B984205D90C4B984210D867
:1058100001210A4601E000210A46094B1A64094A9F
:10582000D2F8003123F0807343EA0163C2F80031FB
:10583000704702210122F0E70048E8010090D00300
:105840000000C84300400E40014B1868704700BF7D
:105850009C200020114B5B68002300E00133042BE7
:105860000CD80F4A02EBC30292F804C0CAB29445A6
:10587000F4D10B4A52F833208242EFD3052B0BD0E0
:10588000074A02EBC3035979044A536823F0407373
:1058900043EA0163536070470321F5E700000E40BF
:1058A0002842020008B5FFF715F8044BD3F8003181
:1058B000C3F3042303FB000008BD00BF00400E40FB
:1058C00010B5084B1C6CA4B241F671321A64FEF795
:1058D000FDFF0021FFF7BEFF14B1024B00221A6446
:1058E00010BD00BF00000E4010B5064B1C6CA4B2EA
:1058F00041F671321A64FFF7ADFF14B1014B00227B
:105900001A6410BD00000E4010B4C0F30323013B25
:10591000092B21D8DFE803F00508202030232620BA
:10592000292D0024164A01E00024164AC0F3043051
:1059300054B1134BD3F8443113F0010F04D1104B81
:10594000D3F840311C42FAD102F1424303F58013EF
:1059500000EBC300800001605DF8044B7047012438
:10596000094AE3E71024094AE0E74FF48034084A83
:10597000DCE70024074AD9E70024074AD6E700BF3E
:1059800000400E40C0400E40E0400E40E8400E4057
:10599000F0400E4050410E40B0400E40C0F30313A3
:1059A000013B092B6BD8DFE803F0050B111B6A6A7A
:1059B0002127415F334BD3F80001C0F30420704727
:1059C000304BD3F81401C0F3042070472D4BD3F8AB
:1059D0000031C3F300630133012098400138704760
:1059E000284BD3F80C01C0F308207047254BD3F89F
:1059F0000801C0F308207047234B984204D0234B82
:105A000098420AD0002070471E4BD3F8203103F093
:105A10000F0301209840013870471A4BD3F820310A
:105A2000C3F301130120984001387047184B984286
:105A300007D003F5B01303F5805398420AD0002035
:105A40007047104BD3F82831C3F30113012098405D
:105A5000013870470B4BD3F82831C3F301230433CB
:105A600001209840013870470A4B984201D000202D
:105A70007047044BD3F8300100F00300704700205A
:105A8000704700BF00400E408006160080162E00B2
:105A900090171A00A009140000F00F000138072821
:105AA00065D8DFE800F0041B2A643E4D64553B4B8B
:105AB000D3F8943003F00703023B052B0CD8DFE842
:105AC00003F0055803070B090220704704207047B4
:105AD0000B2070470C207047052070472F4BD3F8E0
