:100000000020002085240000975101009751010035
:10001000875A010097510100975101009751010043
:10002000975101009751010097510100975101002C
:1000300097510100AC8B01009751010097510100CD
:1000400097510100F1180100CD6C0000975101009B
:1000500021110100637D01005F7D01001119010084
:10006000577D0100E92B00009751010097510100D5
:100070003122000021220000975101009751010018
:1000800097510100AD1F00009751010097510100E9
:1000900097510100975101009751010097510100BC
:1000A00097510100975101009751010097510100AC
:1000B000451901005B7D0100C56400008119010044
:1000C00097510100A9FC00009751010097510100D0
:1000D000975101009751010097510100975101007C
:1000E000975101009751010097510100975101006C
:1000F000975101009751010097510100975101005C
:100100009751010097510100975101000000000034
:10011000013800D0FCE7704700000000000000003C
:1001200001F0FF01102A2BDB10F0070F08D010F8A8
:10013000013B013A8B422DD010F0070F42B3F6D1AC
:10014000F0B441EA012141EA014122F007047FF0C5
:1001500000070023F0E80256083C85EA010586EA1C
:10016000010685FA47F5A3FA87F586FA47F6A5FA58
:1001700087F68EB9EED1F0BC01F0FF0102F0070264
:1001800032B110F8013B013A83EA010313B1F8D10F
:100190000020704701387047002D06BF35460338F0
:1001A000073815F0010F07D1013015F4807F02BF29
:1001B000013015F4C03F0130F0BC0138704700BF7A
:1001C0002DE9F04F2DED028B91B082460C469346FF
:1001D0001D46DDE91C231046194613F005FF0028D3
:1001E00000F007814FF0FF32B14BDDE91C0113F045
:1001F00023FF002840F0FD804FF0FF326FF48013A2
:10020000DDE91C0113F0FAFE002840F0F280002224
:100210000023DDE91C0113F0F1FE002840F0FE8010
:100220009DED1C7B8DED067B209B13F480630F936B
:1002300001D106231E93DDE906010246C1F30A50EF
:10024000C1F31303904643F07F5949F44019A0F2DB
:10025000FF3013F0F7FB84A3D3E9002313F05CFC19
:1002600083A3D3E9002313F0A1FA06460F46002228
:10027000904B4046494613F097FA7FA3D3E90023F9
:1002800013F04AFC02460B463046394613F08EFA0C
:1002900013F0DCFE064613F0D5FB8046894678A3B2
:1002A000D3E9002313F038FC0022834B13F07EFACD
:1002B00013F0CCFE074674A3D3E900234046494619
:1002C00013F02AFC80468946384613F0BBFB70A326
:1002D000D3E9002313F020FC02460B464046494672
:1002E00013F062FA8046894602460B4613F014FC6E
:1002F000CDE90A0107F2FF3700210022CDE90812FB
:100300003B0509930023089342464B464046494625
:1003100013F04CFACDE90C0142464B4600204FF059
:10032000804113F041FA804689460022634BDDE9A3
:100330000A0113F01BFD0022614B13F037FA02464D
:100340000B46DDE90A0113F011FD00225D4B13F0AD
:100350002DFA02460B46DDE90A0113F007FD0246BD
:100360000B464046494613F021FA02460B46DDE9AA
:100370000C0113F0FBFC0022534B13F017FADDE9DC
:10038000082313F0C9FB8046894649EC188BDDE948
:10039000062313F051FE40B1013E0022484B404677
:1003A000494613F0E3FC41EC180B06F16303C62B3E
:1003B0003FD80427209B13F4006F44D036A3D3E921
:1003C0000023DDE906894046494613F02BFE00284C
:1003D0003FD033A3D3E900234046494613F00EFE35
:1003E000002836D01E9BB34225DD9E1B731E1E9334
:1003F00023E0209B04931F9B03931E9B02939DED80
:100400001C7B8DED007B2B465A462146504600F062
:10041000CFF811B0BDEC028BBDE8F08F9FED227BD1
:100420008DED067B1C9B06931D9B03F100430793F8
:10043000FAE60527BEE700231E93209B43F4806362
:10044000209300273E461F9B9F423FD2A3EB070805
:100450003EE01E9B002BF6D00F9B002BF3D01E9B83
:10046000013B1E93EFE700BFFB799F501344D33F3E
:10047000B3C8608B288AC63F61436F63A787D23FAA
:1004800071A379094F930A401655B5BBB16B024071
:10049000EF39FAFE422EE63F2D431CEBE2361A3FBF
:1004A0000000000080842E410000000000000000D9
:1004B000FFFFEF7F0000F83F0000E03F00002C400E
:1004C00000002440000018400000F03F4FF00008FA
:1004D000209B13F0020902D00FB14FF000083EB18B
:1004E00053EC182BDDE9060113F040FCCDE90601C1
:1004F00000220023DDE91C0113F080FD00283DD11E
:10050000209B23F400630493CDF80C801E9B029380
:100510009DED067B8DED007B2B465A4621465046CD
:1005200000F046F8002F3FF474AF209B13F0200F2B
:100530002CD04FF0450C00F101082B460246214615
:100540006046D04786EAE672A2EBE6720523059381
:10055000013F0497002303930A230293F30F0193AF
:1005600000922B4642462146504615F0EFFDB9F168
:10057000000F3FF44EAF02461F9F10E0DDE9060179
:10058000024601F10043CDE90623B9E74FF0650CBF
:10059000D1E7561C2B4621462020D0473246A2EBFD
:1005A0000B03BB42F5D3104633E700BF0000000049
:1005B0002DE9F04F2DED028B95B007900A919246F0
:1005C0009B46DDE92089229D42464B4640464946EE
:1005D00013F00AFD002840D04FF0FF326FF4801373
:1005E0004046494613F00AFD002845D14FF0FF323E
:1005F0009F4B4046494613F01FFD00284BD198A35E
:10060000D3E900234046494613F016FD00285AD18D
:1006100095A3D3E900234046494613F0EFFC002898
:1006200051D1002200234046494613F0E7FC002840
:1006300057D100230B93249B13F4806F5CD00024CC
:100640001F2C5BD8092D59D904F150036B4430227B
:1006500003F8202C013D0134F2E7249B0393239BF4
:10066000029303230193834B00935B4652460A99FE
:10067000079815F091FC2CE1249B0393239B029394
:10068000042301937C4B00935B4652460A990798DA
:1006900015F082FC1DE1249B13F004030FD0774A70
:1006A0007BB1042324990391239902910193009231
:1006B0005B4652460A99079815F06EFC09E1704AAC
:1006C000EEE70323EEE7249B0493239B0393029519
:1006D000CDE900895B4652460A990798FFF770FDFD
:1006E000F7E042464B460020002113F05DF88046BB
:1006F000894601230B939EE70625A0E7404649461D
:1007000013F0A4FC064613F09DF902460B46404642
:10071000494613F049F85B4B03EBC50393ED008B9F
:1007200053EC182B13F0F8F902460B46CDE90823D9
:1007300013F0B4FC074613F075F902460B46DDE9E9
:10074000080113F031F802460B46CDE908230022D8
:100750004D4B13F071FC50B30137384613F062F97A
:1007600002460B4651EC180B13F052FC08B101364F
:10077000002755BB304613F065F902460B4640464C
:10078000494613F011F80746884600223E4B13F005
:1007900035FC38B100223C4B3846414613F04CFC46
:1007A000002842D016F0010F3FD001363DE0002274
:1007B000354BDDE9080113F021FC0028D9D117B130
:1007C00017F0010FD5D00137D3E71F2C17D8013D03
:1007D0002E4BA3FB0723DB08194603EB8303A7EB90
:1007E0004303621C303304F150000DEB000404F8A5
:1007F000203C092F02D90F461446E6E714461F2C69
:100800000AD86B1E45B104F150026A44302102F847
:10081000201C1D460134F2E71F2C06D804F15003BA
:100820006B442E2203F8202C01341F2C33D8184A95
:1008300082FB0632F317C3EBA2031A4603EB8303D2
:10084000A6EB4303611C303304F150000DEB0004B0
:1008500004F8203C1646EAB10C46E6E7AFF3008008
:100860000000000065CDCD410000000065CDCDC188
:10087000FFFFEF7F8C9001009090010080900100BD
:1008800088900100989001000000E03FCDCCCCCCD6
:10089000676666660C46249B03F00303012B1DD09C
:1008A0001F2C09D80B9B002B35D004F150036B444F
:1008B0002D2203F8202C0134249B0393239B0293C5
:1008C00001940CAB00935B4652460A99079815F0C9
:1008D00063FB15B0BDEC028BBDE8F08F239BB3B179
:1008E0000B9B1BB9249B13F00C0F12D0239B013BD5
:1008F0002393194606E004F150036B44302203F8B9
:10090000202C01348C42CBD21F2CF4D9C8E7239978
:10091000F8E72399F6E7249B13F0040F07D004F1BE
:1009200050036B442B2203F8202C0134C4E7249B92
:1009300013F0080FC0D004F150036B44202203F8D9
:10094000202C0134B8E700BF7FB54E6802A90446E9
:1009500016F0ECFE9DF808300E2B19D1134BB3F9AD
:100960000050134B9E4218D804F056F90346006815
:1009700000909B88ADF804306946204616F0C3FE0F
:1009800070B10C490C4840F21C6206F049FDFEE7CC
:1009900020460CF081FC0546E3E704F039F9E5E771
:1009A0002946204616F0C4FE04B070BD2A4400203B
:1009B000FFC99A3B299301000191010038B5044613
:1009C0000D4614F08BFC064A13889BB22DB12343CD
:1009D0001380BDE8384014F087BC23EA0403F7E72E
:1009E000383F0020034B002201214FF480709A70A1
:1009F000E4E700BF383F00207FB50023134C03938A
:100A0000CDE90133FF238DF8043014F067FC228810
:100A100063880F4E9A4205460DD061887068218028
:100A200001AA0CF027FA58B10A490B4840F2976224
:100A300006F0F6FCFEE7706816F027FD0128ECD002
:100A4000284614F051FC04B070BD00BF7420002093
:100A5000383F0020299301000191010038B50F4C67
:100A6000A56835B90E490F4840F27C7206F0D8FCF3
:100A7000FEE715F040FC284408F0B0F900F007004C
:100A8000032809D1A4680921204615F050FD205CF7
:100A9000031F5842584138BD0020FCE7383F002072
:100AA000299301000191010010B5114CA378042B8A
:100AB00006D01049104840F2445206F0B1FCFEE75F
:100AC00023881B0706D40B490B4840F2455206F019
:100AD000A7FCFEE700210820FFF770FF074B6068C6
:100AE00002221A710CF094F9BDE8104015F0A2B979
:100AF000383F00202993010001910100742000205B
:100B000010B5084C60680CF083F9606816F0BDFC05
:100B1000012806D0012260681146BDE8104016F099
:100B2000B6BC10BD383F002038B5194DAB7833B195
:100B3000184919484FF4DC6206F072FCFEE714F025
:100B4000CDFB298811F00601044609D001214FF49C
:100B50008070FFF733FF2046BDE8384014F0C4BB77
:100B60004FF48070FFF72AFF09F0A6FE012805D098
:100B700010F0FD0F05D1FFF73FFFECE7FFF7C0FFD7
:100B8000E9E70449044840F2F66206F049FCFEE752
:100B9000383F0020299301000191010070B5074DF5
:100BA00095F90C600446FFF7BFFF09F085FDAA68C0
:100BB00031462046BDE8704009F0BCBB383F0020FC
:100BC00008B50A4B1B88DB0606D40949094840F2E0
:100BD000695206F025FCFEE700211020FFF7EEFE2B
:100BE00009F0E6FEBDE8084015F024B9383F0020C2
:100BF00029930100019101000D4B1B889B0710B543
:100C0000044613D500210220FFF7D8FE094B5A797C
:100C1000FF2A06D00849094840F29A4206F000FC33
:100C2000FEE75C71BDE8104015F004B910BD00BFCF
:100C3000383F002074200020299301000191010019
:100C40007047704710B50E4CA37833B10D490E486C
:100C500040F2C51206F0E4FBFEE7A06019B1A17CEA
:100C6000003918BF01212020FFF7A8FE074B0848D4
:100C70009B7923770223A370BDE8104006F018BFCC
:100C8000383F0020299301000191010074200020C9
:100C9000583F002008B507F00DFD80F00100C0B2FC
:100CA00008BD0A4B9A780AB1062A0CD11B8803F4B6
:100CB0008B7343B9064B5A79FF2A04D11879FF3850
:100CC00018BF012070470120704700BF383F002047
:100CD0007420002008B507F0DDFC0028FBD108BD1A
:100CE0000C4B42881A8242789A740278DA748288AD
:100CF0009A82C288DA82C2689A61074A017A91713F
:100D0000028A198D914204D001214FF400701A8596
:100D100054E67047383F002074200020094B1A8A9F
:100D200042809A7C4270DA7C02709A8A8280DA8AE7
:100D3000C2809A69C260044A1B8D92790272038252
:100D4000704700BF383F0020742000204B1E012B4D
:100D500070B50C4606D91B491B484FF42A7206F0A1
:100D60005FFBFEE7194D0A460146686816F0F4FD80
:100D700030B11449144840F2AA2206F051FBFEE7B4
:100D80006E6806F009FE22460146304616F0DEFD8A
:100D900030B10C490C4840F2AE2206F041FBFEE7B0
:100DA0006D6806F005FE22460146284616F0DAFD7B
:100DB00030B10449044840F2B22206F031FBFEE7AC
:100DC00070BD00BF2993010001910100383F002050
:100DD000054BDB791B0913F00E0003D0052B8CBFEC
:100DE00000200120704700BF74200020044BDB79F5
:100DF0001B0913F00E0F0CBF01200020704700BF2D
:100E0000742000202DE9F04F16469A0591B08146D6
:100E10001F4603D501218020FFF7D0FDF3014FF0DD
:100E2000000852D59A4C23889D074ED5994D6B7971
:100E3000FF2B06D09849994840F2664206F0F0FA36
:100E4000FEE7A36833B99449944840F2674206F03C
:100E5000E7FAFEE741460220FFF7B0FDA37885F8E8
:100E60000580042B03D101210820FFF7A7FD8C4A40
:100E70006068002116F07BFC30B18749874840F25A
:100E8000714206F0CDFAFEE7FFF7A2FFA8B9D4F849
:100E9000048015F030FA0546A06815F037FA2918D5
:100EA0007F4A89B2404616F073FC30B17A497B48DC
:100EB00040F2774206F0B4FAFEE7A378032B02D1A2
:100EC00060680BF0A5FF14F0B5FFB80702D501204C
:100ED000FFF792FE16F0A84F02D00220FFF78CFE1B
:100EE000B10220D50021402005ACFFF767FD214667
:100EF000484616F05DFDB0B99DF81C30022B0AAAD9
:100F000022D18DF83030BDF81430ADF828301046BD
:100F100009F0DAFB38B1484616F048FD18B901214E
:100F20004020FFF74BFD320752D5594D05AA68689E
:100F3000032116F0DCFC804688B95749574840F237
:100F4000B34206F06DFAFEE7032B05BFD4E90001BA
:100F50008DF830308DF83000C2E90001D7E79DF8F8
:100F600014306868072B40F022810AAA414616F027
:100F7000C2FC824630B14849484840F2B64206F0C9
:100F80004FFAFEE7FFF724FFBDF8161090B9FFF700
:100F90002DFF68B10431686889B20AAA16F0ADFC69
:100FA00040B13D493D4840F2C74206F039FAFEE7FC
:100FB0000231F0E7BDF816000730012180B207F0DA
:100FC000C3FA039000284AD101210C2014F080FFBD
:100FD000B10705D52E4B1B881A0701D5FFF764FD15
:100FE000B3010AD500210420FFF7E8FC284B9A78CA
:100FF000012A02D158680BF00BFF16F0284F03D0DE
:1010000000210420FFF7DAFC7E060CD5204C238853
:101010001D0701D5FFF748FD2388580703D5002198
:101020000420FFF7CBFCF90540F1CF80484616F0CD
:101030002AFA022802D0032840F0C080144C2388EA
:101040005A0703D500210420FFF7B8FC23889B072B
:1010500040F1BB80012011B0BDE8F04FCCE507F0B6
:1010600049F94FF0000BCDF800B0BDF8163002463C
:1010700004464146686816F05AFCBDF816308342B3
:1010800010D0054905484FF49B6206F0C9F9FEE708
:10109000383F0020742000202993010001910100B5
:1010A000643F002015F027F9204407F097FE00F078
:1010B0000700022823D1AB78042B89D115F01BF946
:1010C000434B20441B7882789A4281D159460820AC
:1010D000FFF774FC15F00FF9204407F07FFE3D4B3D
:1010E000C0F3001018719DF836302B73FFF7B6FC73
:1010F00000287FF46DAF68680BF08AFE68E715F092
:10110000FAF8204407F06AFE830649D515F0F3F893
:10111000204407F063FE00F00700032828D00121D7
:101120000420FFF74BFC16F00CFC2863BDF81630CA
:101130009DF83620E254BDF816309DF83720234440
:1011400001209A71BDF816100A9A0131214407F066
:1011500053FEBDF8163003981C4484F805A007F030
:1011600087FA1D4B187806F0A9FD14F063FE2FE7EF
:101170000921204615F0DBF9205C04284FF001011D
:10118000CED1FFF71BFC16F0DCFB28632B8858063A
:10119000CCD559464020FFF711FC4FF0010AC5E7B6
:1011A000AB78012BC2D168680BF032FEBEE716F0B7
:1011B00098FB6868414616F0B7FB09E707490848FD
:1011C00040F2B55206F02CF9FEE711B0BDE8F08F01
:1011D000A53F002074200020A83E00202993010094
:1011E0000191010008B50246FFF7F2FD30B1072A70
:1011F00006D8044B002083F8342008BD7020FCE79B
:101200000220FAE7383F002008B50246FFF7E0FD6C
:1012100028B1044B93F834301370002008BD7020BF
:10122000FCE700BF383F002008B5074B014600220D
:10123000586816F091FB30B1044905484FF43772F5
:1012400006F0EEF8FEE708BD383F002029930100C4
:101250000191010008B5074B01460022586816F0BD
:1012600075FB30B10449054840F2E22206F0D8F897
:10127000FEE708BD383F00202993010001910100DD
:1012800008B5074B0146586816F072FB30B10549A6
:1012900005484FF43A7206F0C3F8FEE708BD00BFF8
:1012A000383F0020299301000191010008B5064B49
:1012B0009B7833B10549064840F2F22206F0B0F8B7
:1012C000FEE7BDE808402FE4383F002029930100E5
:1012D0000191010008B5044B0146586816F028FA40
:1012E000002818BF8B2008BD383F0020014B5868EC
:1012F0000BF0D2BF383F0020014B5888704700BF29
:10130000742000207FB50123ADF80E3009484FF658
:10131000FE7300930DF10E02002304A9406816F03D
:1013200086F9012894BFBDF810004FF6FF7007B092
:101330005DF804FB383F002008B5044B01465868AF
:1013400016F0FBF8B0FA80F0400908BD383F0020E5
:1013500038B50B4DAB78012B04460DD8FFF7ECFFE9
:1013600060B1084B5C80AB781BB9FFF7DDFB002058
:1013700038BDFFF741FBFAE73E20F9E78A20F7E79F
:10138000383F002074200020024B9B780BB9FFF7F8
:10139000CBBB7047383F0020014BD874704700BF6B
:1013A000383F002008B5054B0121586816F092F827
:1013B0000028B8BF033040F3870008BD383F002045
:1013C00008B5044B586816F0B4F8034BB3FBF0F0C3
:1013D00080B208BD383F002040420F0030B58DB0CC
:1013E0002C220446002101A817F004F80123264D01
:1013F0008DF808304FF002326423CDE903230693C1
:101400000B238DF82C302B8DADF80A30FFF7E0FC64
:10141000A0B140F2F23307934FF47A7305930CB9FD
:10142000FFF76EFB686801A90CF00AF8B8B117491C
:10143000174840F2696205F0F3FFFEE7FFF7C0FFCF
:101440000C234343902BA3F10A0207930592DCBFC0
:1014500091230793059B8B2BE1D88C23DEE7FFF7C5
:10146000C5FC60B101226868114616F08FFA30B1F0
:101470000649074840F26C6205F0D2FFFEE70CB95E
:10148000FFF752FB0DB030BD383F0020299301001B
:1014900001910100F8B5574C13F020FF2388D905BE
:1014A000064603D5A37843BBFFF73EFB524D6B794D
:1014B000FF2B13D06B7903F0FF0723BBFF236B7166
:1014C000A378032B0AD100233046A37013F00CFF3E
:1014D0003846FFF763FB13F001FF0646A378042BA1
:1014E00008D12B79FF2B05D02B79022B14D143483F
:1014F00006F0DEFAFF232B7128E000214FF4807004
:10150000FFF75CFAD2E76B79012B4FF0FF036B71A9
:1015100014BF89278D27D6E72B7913B12B79012B9F
:101520001FD1FFF79BFA2B790022FF212971DBB233
:1015300084F820200546002848D0012B0AD12F48E6
:10154000A370642106F0BFFAFFF756FA304613F095
:10155000CBFE06E03046A27013F0C6FE3120FFF746
:101560001DFB23881A0608D500218020FFF726FAE4
:10157000606816F050F909F0FCF923889B0507D53F
:101580004FF400700021FFF719FA0020FFF726FF43
:1015900007F080F8E08628B306F0ACFE012105468E
:1015A000002014F095FCA678012E15D1002684F8B1
:1015B0002060A670FFF7B8FA284608F0F5FDA3787A
:1015C000E6867BB9BDE8F84009F076B8A0703046F1
:1015D00013F08AFE2846C2E72EB1284608F0E4FD43
:1015E0000023E386F8BDFFF79FFA284608F0DCFDEC
:1015F000E686F7E7383F002074200020583F00209F
:101600007FB5794C2388DB0700F1E7800121774D16
:101610000846FFF7D3F905237549A37005F10800C3
:101620000BF0C8FB606028B972497348F32205F0DB
:10163000F7FEFEE7714815F069FF69A3D3E90023BF
:10164000CDE900234FF0FF324FF0FF33606815F013
:10165000ECFF4FF4881160680BF07CFE014630B15E
:101660006449654840F20B1205F0DAFEFEE7644B70
:101670001B78012B0ED1634A60680BF0F7FD6068A0
:101680000BF00CFFE0B15B495B4840F2171205F02C
:10169000C7FEFEE75C4E316831B9564956484FF4F3
:1016A0008D7205F0BDFEFEE7564A60680BF0DEFD68
:1016B00033689B6823B1DB6913B15B7803B1EB71CD
:1016C000FFF720FE514B68801B78C3EB431203EBFE
:1016D0008203DB0001202385FFF780FE656806F0AA
:1016E00067F900220146284616F03CF9054630B15C
:1016F0004049414840F22D1205F092FEFEE740F2CB
:1017000003532382424B04261B78E374A674FFF72D
:1017100057FE00EB80039B00A382FFF751FEC00041
:10172000E08231466068A56115F001FF30B13149B2
:1017300031484FF49E7205F073FEFEE76068324652
:1017400003A915F09AFF042806D02A492A484FF425
:10175000A07205F065FEFEE703A9012007F05AFB21
:1017600005F0D8FA606808224FF0FF3115F067FFE6
:1017700030B12049204840F2491205F051FEFEE701
:101780000BF0FAFF30B11B491B4840F24F1205F035
:1017900047FEFEE7FFF71CFB68B113F07DFE014634
:1017A000606815F0B0FF30B11249134840F253128F
:1017B00005F036FEFEE76468FFF7A4FD154B014611
:1017C00003F10C0220460BF063FB30B109490A48D3
:1017D0004FF4AD7205F024FEFEE704B070BD00BF0B
:1017E0000A0020FF42030000383F00207420002040
:1017F000E50900002993010001910100690345EC0E
:101800008A3F002049090000002000205A210020C2
:10181000592100205493010008B5044B586815F075
:101820008AFE034BB3FBF0F080B208BD383F0020C6
:1018300040420F002DE9F043864D2B889B0787B06F
:1018400006D48549854840F2017205F0E9FDFEE7BE
:10185000AB78033B012B06D97F49804840F20372E5
:1018600005F0DEFDFEE7AA6832B97B497B4840F20D
:10187000067205F0D5FDFEE7794E2C88F77914F055
:10188000200418BF4FF47A744FEA1718FFF7A0FA34
:10189000002872D0B8F1020F0AD0A8F10303022B7E
:1018A00069D96D496D4840F21A7205F0B9FDFEE73D
:1018B000032795F8343008EBC8089844694B03EBCC
:1018C00048031046B3F81C8014F020FD4FF4FA537F
:1018D00043437822B3FBF8F37733B3FBF2F31F44AF
:1018E000C7EB0717AB78FF00BFB204F5347417FAE3
:1018F00084F4042BA4B203D107F6E8072744BCB252
:10190000D5F8088014F0F7FC0746A86814F0FEFC30
:10191000074414F016FDBFB23F1A14F0ECFC40442B
:1019200007F05CFA64238DF80C304F4BD5F8049027
:10193000CDE90434C0F3401414F00FFDBFB20346E8
:1019400041463A46484615F0CEFF2B8871883180D3
:1019500013F0200F03AB75D000936868434B224609
:101960000BF06CFA002872D03B493C4840F2D96237
:1019700005F056FDFEE706279BE7FFF737FA00283C
:1019800044D0384B07F00F0708EBC801394403EB8C
:1019900041031046B3F81C9014F0B8FCB8F1000FE6
:1019A0002AD0B8F1010F2AD1400080B24FF00408CC
:1019B000F3191B7E4BB10233034443449BB24FF4F3
:1019C000FA525343B3FBF9F39CB2AB78042B97D193
:1019D0003744FFF7F5FC3B7E053398448146FFF71B
:1019E0001BFF0C2308FB00F003FB09F909EBC009FE
:1019F000A1441FFA89F483E74FF00208D8E716499B
:101A0000164840F23B7205F00BFDFEE7FFF704FFBE
:101A10000746A86814F07AFCAB780930784304EBE9
:101A2000C000042B84B27FF46BAFFFF7C9FC0746FC
:101A3000FFF7F2FE602358430C2303FB070020440A
:101A400084B25DE7686822460BF0EAF98AE707B0DE
:101A5000BDE8F083383F0020299301000191010087
:101A6000742000205493010020A10700483F00206B
:101A7000F8B5484C258815F0020506D04649474878
:101A80004FF4B37205F0CCFCFEE784F8205013F05D
:101A900025FC23885A0706460AD515F052FF236B0A
:101AA000C01A238D984203D929460420FEF786FFE9
:101AB000304613F019FCA778022F37D113F00EFC33
:101AC000238813F00405064607D0354805F0F0FFDB
:101AD0003046BDE8F84013F007BC13F005FCA068E1
:101AE00008F022FE20B1A570BDE8F840FFF756B817
:101AF00013F0F4FBA668054614F0FDFB304407F034
:101B00006DF910F0200F0CBF032304230121384688
:101B1000A370FEF753FFFFF78DFE284613F0E4FB9A
:101B200001210846BDE8F84014F0D2B9042F27D1AE
:101B30001C4B1B79FF2B2CD1237FF3B113F0CEFB71
:101B400023885B07054604D5154805F0B1FF2846F4
:101B5000BFE713F0C9FB237F013B237713F0BEFBE4
:101B6000012104460220FEF729FFFFF763FE20460D
:101B700013F0BAFB01210820D4E7A3704020B3E79B
:101B8000012F06D160680023A3700BF041F93120CA
:101B9000AAE7F8BD383F0020299301000191010018
:101BA000583F00207420002038B501210446102041
:101BB000FEF704FF064B5D68FFF702FC054B00FBD8
:101BC00004F10122284615F066FC002038BD00BF54
:101BD000383F0020C10B000010B50A4C2388DB06FB
:101BE00006D40949094840F2753205F019FCFEE7B0
:101BF00010200021FEF7E2FE6068BDE8104015F0FD
:101C000058BC00BF383F002029930100019101001A
:101C100038B50D4DE88E30B90C490D4840F282328E
:101C200005F0FEFBFEE706F065FB0446E88E06F0D5
:101C30007DFB811F2144012007F0ECF8044615F0DC
:101C400080FE001B38BD00BF383F002029930100F3
:101C50000191010010B5074CA36833B90649074844
:101C600040F2913205F0DCFBFEE715F06AFEE36A14
:101C7000C01A10BD383F00202993010001910100D6
:101C800038B50A4DE88E30B909490A4840F29B320E
:101C900005F0C6FBFEE706F02DFB0446E88E06F0D5
:101CA00045FB044414F8020C38BD00BF383F002047
:101CB000299301000191010038B50A4DE88E30B931
:101CC00009490A4840F2AA3205F0AAFBFEE706F0ED
:101CD00011FB0446E88E06F029FB044414F9070CB6
:101CE00038BD00BF383F0020299301000191010059
:101CF00038B50A4DE88E30B909490A4840F2B93280
:101D000005F08EFBFEE706F0F5FA0446E88E06F0D5
:101D10000DFB044414F9010C38BD00BF383F00200E
:101D20002993010001910100024B1888C0F3C010F3
:101D3000704700BF383F002030B50F4B05460FCB32
:101D400085B06C4684E80F000DB12B6800930B4BF7
:101D50002146586800220BF0B5FA044630B1084914
:101D6000084840F2D73205F05BFBFEE7FEF744FE81
:101D7000204605B030BD00BFDC930100383F002095
:101D8000299301000191010008B5074B01465868ED
:101D900015F043FD30B10549054840F2E53205F044
:101DA0003FFBFEE708BD00BF383F0020299301003C
:101DB0000191010008B5064B586815F045FD30B19A
:101DC000044905484FF47C7205F02AFBFEE708BD84
:101DD000383F00202993010001910100024B0122AC
:101DE0005868114615F053BB383F00207047F8B5CE
:101DF000054604200C4614F060FA03061DD5104E6B
:101E0000B778D7B91DB1012D02D00220F8BD012746
:101E10002046FFF791FA0028F7D070683A4621462D
:101E200015F04EFB30B1074907484FF4866205F0C4
:101E3000F7FAFEE70623B370E8E77020E6E700BF95
:101E4000383F0020299301000191010010B50420C2
:101E500014F033FA030610D5094CA378062B0CD1E5
:101E6000606815F030FB30B10649074840F249423E
:101E700005F0D6FAFEE7A07010BD7020FCE700BFA9
:101E8000383F0020299301000191010008B5034962
:101E9000034840F2615205F0C3FAFEE729930100BE
:101EA000019101000348044B834202D0034B03B16C
:101EB0001847704784210020842100200000000082
:101EC0000548064B1B1AD90F01EBA301491002D09C
:101ED000034B03B118477047842100208421002060
:101EE0000000000010B5064C237843B9FFF7DAFF75
:101EF000044B13B10448AFF300800123237010BDDD
:101F00004644002000000000E8B2010008B5054B7F
:101F10001BB105490548AFF30080BDE80840FFF755
:101F2000CFBF00BF00000000B8230020E8B20100CE
:101F3000A3F5803A704700BF174B002B08BF134B27
:101F40009D46FFF7F5FF00218B460F461348144AC4
:101F5000121A16F04FFA0E4B002B00D098470D4B7B
:101F6000002B00D098470020002104000D000D48F0
:101F7000002802D00C48AFF3008012F039FA20009C
:101F8000290013F00DF812F021FA00BF000008003C
:101F9000000000000000000000200020842100203C
:101FA00090440020000000000000000010B4184B16
:101FB0005B6B13F0040F17D0164A00211180144AEE
:101FC000D1690421D16313F4803F0AD0104B4FF440
:101FD0008032DA630F4B1B889BB213B10E4B012288
:101FE0001A705DF8044B704713F0200FEBD0094ACC
:101FF000128892B2FF2AE6D8054AD169054C228898
:1020000092B2501C80B22080C9B204488154DAE7F1
:1020100000C000402044002047440020D02300207E
:1020200008B5024B1B6803B1984708BD0025002086
:1020300008B5024B5B6803B1984708BD0025002036
:1020400008B5024B9B6803B1984708BD00250020E6
:1020500008B5024BDB6803B1984708BD0025002096
:1020600008B5024B1B6903B1984708BD0025002045
:1020700008B5024B5B6903B1984708BD00250020F5
:1020800038B501F007FB01210D4800F0D5FE012213
:102090001146002001F042FA0A4C0225C4F8805093
:1020A00001221146002001F039FAC4F884500122BF
:1020B0001146002001F032FAC4F88850002038BDE3
:1020C00030253E0000400E4008B5164B01225A64F0
:1020D00002F0D2FB024668B9134B4AF6E851C3F846
:1020E0009011D3F8981141F00401C3F89811002120
:1020F000C3F89011012A0DD90C4A136A23F4441332
:1021000043F488131362A2F58042136843F480738A
:10211000136008BD044AD2F8643143F40053C2F896
:102120006431E9E700000E4000300E4000400E40F0
:10213000012900D9704708B5034B1B68186808B11E
:10214000436A984708BD00BF1020002030B599B001
:10215000274D11ACAC46BCE80F000FC49CE807004B
:1021600084E8070000240B940C940D940E940F94B3
:102170001094204B0B93204B0C9301228DF83720A9
:1021800002238DF8393003238DF83B301E238DF860
:102190003F308DF8403009AB1C3595E8030083E8EB
:1021A00003000DF10C0C0394049405940694079419
:1021B00008948CE803000C238DF814300D238DF85F
:1021C00015300E4B0693202307938DF821200C4BDE
:1021D00000930BAB11AA61460A4802F0A3FF054623
:1021E00021464FF4E13012F0C4FF284619B030BD4B
:1021F0006C8B010000000140004204001825002003
:10220000382500208C25002008B50349034803F039
:10221000F1FAFFF79BFF08BD14200020B025002035
:1022200008B5024813F0A9FB08BD00BF8C250020AB
:1022300008B5024813F0A1FB08BD00BF8C250020A3
:1022400008B5024B1A6A1868904708BD8C25002013
:1022500008B5084B01221A70074B00221A70074B71
:1022600004221A70064B1F221A7002F083FD054BE0
:10227000186008BD56210020484400205521002048
:1022800054210020B825002008B50121034800F0A2
:10229000D3FD12F0B0FE00F075F808BD00350A005D
:1022A00008B50121014800F0C7FD08BD00350A004E
:1022B0002DE9F04180460F4601F10905002634461C
:1022C00004E05B21082000F01FFA0134AC4233D255
:1022D000052C1BD801A353F824F000BFC322000033
:1022E000F522000029230000FD2200000123000048
:1022F00005230000FBB20433D9B2E3E78021E1E714
:102300000021DFE7731C3146DEB2DBE7BB1DA342D1
:102310000CD0FB1DA3420BD007F10803A34209D048
:10232000A31F18F80310CDE7D121CBE75A21C9E745
:102330005A21C7E75D21C5E70020BDE8F08100BF55
:1023400000B583B000220092019202218DF80010A6
:10235000054812F0F8FE019008216846FFF7A8FF33
:1023600003B05DF804FB00BF006A1800014B1022A7
:10237000DA60704700A00044014B1022DA60704719
:1023800000A0004670B588B00DF1040C374C0FCC9E
:10239000ACE80F0094E807008CE8070001213448FE
:1023A00000F04AFD334E0121304600F045FD012585
:1023B0008DF81250304B0393304C01A9204613F096
:1023C0000FF82B4604220621022001F06BFF0023A8
:1023D0002A460721022001F065FF2B46042208212E
:1023E000022001F05FFF2B4604221146002001F07D
:1023F00059FF234BA3670B2363674FF4487004F026
:1024000059FBFFF7B3FF142004F054FBFFF7B4FFB0
:10241000232004F04FFBFFF7A9FFB921204613F05A
:1024200029F8FFF7A9FF00231A460621022001F030
:1024300039FF00231A460721022001F033FF2B4603
:1024400000220821022001F02DFF2B46002204214A
:10245000104601F027FF204602F068FA0021A1672C
:102460006167304600F0E8FC08B070BD908B010059
:1024700000350A000052040000127A0000040140F6
:102480000B0B000B08B500F087F8124A0AE0106841
:10249000516850F8230041F82300013391688B42C2
:1024A000F5D30C320C4B9A4201D20023F6E70B4ACB
:1024B00008E01168002041F82300013351688B4285
:1024C000F7D30832064B9A4201D20023F6E7FFF712
:1024D00033FD00BFF0B20100FCB20100FCB201000C
:1024E000FCB201000048704700F04902114BD3F8DC
:1024F000943003F00703023B032B0DD8DFE803F011
:10250000050F02080C4B18680BE00C4B186808E02C
:102510000B4B1868400804E0094B186801E04FF4C1
:102520000040044BD3F80031C3F304230133B0FB64
:10253000F3F0704700400E402420002028200020A7
:102540001C20002008B5FFF7D1FF054BD3F8083158
:10255000C3F308230133B0FBF3F0024B186008BD4E
:1025600000400E4020200020014B1868704700BF3B
:102570002820002008B5064B1860064BD3F894308D
:1025800003F00703022B00D008BDFFF7DBFFFBE7DA
:102590002820002000400E40044B054A9A60D3F8E2
:1025A000882042F47002C3F88820704700ED00E0F4
:1025B00000000000014B1868704700BF2420002075
:1025C00008B5114BD3F82828A2F17E63A3F5843314
:1025D000B3F5104F11D211680C4B994210D10C4B2E
:1025E0001B781BB1022B01D0002008E0D36998476B
:1025F00028B9074B01221A7001E04FF4817008BD21
:102600004FF48170FBE700BF0000E10F07B0CD5E23
:10261000494400200346064A10680344054A934291
:1026200002D8034A136070474FF0FF30704700BF75
:102630002C2000200000042008B50121294800F0CA
:10264000FBFB012304220221052001F02BFE0020C8
:1026500001F01CFE0121244BC3F810180A46042087
:1026600000F05CFF214800F0A5FD214BD3F8F020DD
:1026700042F00102C3F8F020D3F8FC2042F080724F
:10268000C3F8FC20A3F55D431A4A1A6000F5D52073
:1026900000F2FC40C008184BA3FB0030800A013850
:1026A000164B18610222C3F8F0204FF48072C3F871
:1026B00004234FF06043124AC3F8B02F114AC3F805
:1026C000802ED3F8002E42F48072C3F8002EFF2231
:1026D00083F82020D3F8002E22F48072C3F8002E55
:1026E000002008BD00350A000080144206000E00DC
:1026F00000ED00E0FF03004017916502000004E0D8
:1027000055CEACC5090001004FF06043D3F8803EC0
:1027100013F0010F01D1112070470E4AD2F8FC309E
:1027200043F08073C2F8FC304FF06043D3F8002EC2
:102730004FF0010C0CFA00FC42EA0C02C3F8002E28
:1027400053F82030002BE8D04FF0604303F82010FE
:102750000020704700ED00E0F0B585B00C469446CF
:102760009DF83410664A1278002A00F0BD800546B4
:10277000BCF1070F00F2BA800A9A002A00F0B88074
:102780000B9A002A00F0B6800E9AB2F5006F00F3A3
:10279000B38001285BD05B4A02EB0C12127B002A4B
:1027A00000F0AC8000220092019202920392564AFD
:1027B00002EB4C1E002C4FD14FEA4C1600209051DA
:1027C000CEF80400CEF80800CEF80C009EF8020007
:1027D00040F010008EF802009EF8030040F0300038
:1027E0008EF8030021B9C1B241F003018EF8031045
:1027F00000930E9B013B444A4FEA4C1002EB4C11F4
:10280000165A63F30E1616520A9B8B600B9B4B6095
:10281000CB789DF83C2062F38303CB70012D36D03A
:10282000109B002B56D0374A4FEA0C1102EB0C13C9
:1028300010985050119A5A6000249C605D73724643
:102840006946604601F0CAFD204605B0F0BD0C9A0D
:10285000002AA0D12D48F8E72B4F4FEA4C1607EB82
:102860004C120020B85150609060D060907840F0D9
:1028700010009070D07840F00300D0700029B7D1DC
:1028800007EB4C12C1B241F03001D170B0E70E46F7
:102890000A7B42F001020A73D2B242F002020A73CA
:1028A000CA68042161F39F02F26006F1100796E8FE
:1028B0000F0087E80F00F2696FF0030161F39F02D8
:1028C000F2610C9B7361012CAAD10B9AB2610C9A34
:1028D0007260A5E7002DA6D10B4B03EB4C139A7841
:1028E0006FF304129A709EE70948AEE70748ACE719
:1028F0000648AAE70548A8E70448A6E70548A4E76C
:102900004A440020BC260020BC250020018000F0A5
:10291000028000F0078000F0134B1B78FBB110B56C
:102920000446F0B112F0DAFC0023072B13D80F4A4B
:1029300002EB0312127B0AB10133F6E723600B4A64
:10294000190102EB031301241C730024545012F0EC
:10295000CBFC204602E012F0C7FC054810BD05483C
:1029600070470548FAE700BF4A440020BC26002013
:10297000048000F0028000F0018000F038B512F011
:10298000ADFC04460023072B06DC0C4A02EB0312C5
:10299000127B12B90133F6E7002222B1204612F071
:1029A000A3FC074838BD01F0CDFC0025054B1D7088
:1029B000204612F099FC2846F4E700BFBC26002010
:1029C000058000F04A4400200F4B1B78BBB110B5C6
:1029D0000446072815D812F081FC0C4B03EB0413B6
:1029E0001B7B1BB912F080FC09480BE0074B03EB83
:1029F000041300241C7312F077FC204602E0054803
:102A00007047054810BD00BF4A440020BC26002086
:102A1000068000F0028000F0018000F000B583B075
:102A2000144B1B68019300238DF8043012F056FC00
:102A3000114B1B7833B9104B01221A7012F054FC61
:102A4000002309E012F050FC0C480FE00C4A02EBA6
:102A50000312002111730133072BF7DD04238DF8D6
:102A600007300DEB030001F08FFC002003B05DF890
:102A700004FB00BFFC8B01004A440020038000F0EF
:102A8000BC26002008B50A4B1B785BB107280BD881
:102A9000084B03EB00131B7B43B1002101F06AFCE0
:102AA000002008BD0448FCE70448FAE70448F8E7BA
:102AB0004A440020BC260020028000F0018000F083
:102AC000078000F008B50A4B1B785BB107280BD8CC
:102AD000084B03EB00131B7B43B1012101F04AFCBF
:102AE000002008BD0448FCE70448FAE70448F8E77A
:102AF0004A440020BC260020028000F0018000F043
:102B0000078000F008B50A4B1B7853B107280AD894
:102B1000084B03EB00131B7B3BB101F0B3FC00201F
:102B200008BD0548FCE70548FAE70548F8E700BF97
:102B30004A440020BC260020028000F0018000F002
:102B4000078000F0104B1B78ABB1072815D8B1B146
:102B50000E4B03EB00131B7B9BB10D4B1B6E012235
:102B6000824013EA020003D001230B70002070475B
:102B700000230B70704707487047074870470648A6
:102B800070470648704700BF4A440020BC2600201A
:102B900000200E40028000F0018000F0078000F06D
:102BA0000C4B1B7873B110B50C4607280CD869B1D3
:102BB000094B03EB00131B7B53B101F077FC207032
:102BC000002010BD054870470548FAE70448F8E7BB
:102BD0000448F6E74A440020BC260020028000F0AA
:102BE000018000F0078000F0F8B5194B1F6EDB6E16
:102BF0001F4002D40125002402E0FEE701346D00ED
:102C0000072C24D83D42F9D0114B9D662301114A6F
:102C1000D358002BF2D002EB0416B1680131B16039
:102C200072682046984780F00100C0B2737B012B88
:102C3000E4D10028E2D0084B03EB44131A7B6FF376
:102C400041021A731A7F6FF341021A77D6E7F8BD73
:102C500000200E40BC260020BC25002008B5034BF8
:102C60001968034B186809F0CDFC08BD302000201E
:102C700050200020B0F1FF3F01D010B9704702484A
:102C800070470248704700BF21E000F024E000F0E8
:102C9000F8B505460E469400224612F052FBFFF7A7
:102CA000E9FF074628B922463146284615F078FB49
:102CB00008B93846F8BD014FFBE700BF10E000F04F
:102CC00038B5044601F0C6FCFFF7D4FF054608B14D
:102CD000284638BD01F0D8FD0146204612F09BFA87
:102CE0000028F5D1004DF3E70EE000F008B512F032
:102CF000E6FA014B186008BD2C2E002008B5024BE7
:102D0000186812F0E0FA08BD2C2E0020074BDB6B90
:102D100013F0400F04D1064BD3F8C830002BFAD182
:102D2000024B5868C0F30140704700BF00300E40AE
:102D30000000C6430C4B984205D90C4B984210D862
:102D400001210A4601E000210A46094B1A64094A9A
:102D5000D2F8003123F0807343EA0163C2F80031F6
:102D6000704702210122F0E70048E8010090D003FB
:102D70000000C84300400E40014B1868704700BF78
:102D800054200020114B5B68002300E00133042B2A
:102D90000CD80F4A02EBC30292F804C0CAB29445A1
:102DA000F4D10B4A52F833208242EFD3052B0BD0DB
:102DB000074A02EBC3035979044A536823F040736E
:102DC00043EA0163536070470321F5E700000E40BA
:102DD000248C010008B5FFF789FB044BD3F80031C0
:102DE000C3F3042303FB000008BD00BF00400E40F6
:102DF00010B5084B1C6CA4B241F671321A64FFF78F
:102E000071FB0021FFF7BEFF14B1024B00221A64D0
:102E100010BD00BF00000E4010B5064B1C6CA4B2E4
:102E200041F671321A64FFF7ADFF14B1014B002275
:102E30001A6410BD00000E4010B4C0F30323013B20
:102E4000092B21D8DFE803F00508202030232620B5
:102E5000292D0024164A01E00024164AC0F304304C
:102E600054B1134BD3F8443113F0010F04D1104B7C
:102E7000D3F840311C42FAD102F1424303F58013EA
:102E800000EBC300800001605DF8044B7047012433
:102E9000094AE3E71024094AE0E74FF48034084A7E
:102EA000DCE70024074AD9E70024074AD6E700BF39
:102EB00000400E40C0400E40E0400E40E8400E4052
:102EC000F0400E4050410E40B0400E40C0F303139E
:102ED000013B092B6BD8DFE803F0050B111B6A6A75
:102EE0002127415F334BD3F80001C0F30420704722
:102EF000304BD3F81401C0F3042070472D4BD3F8A6
:102F00000031C3F30063013301209840013870475A
:102F1000284BD3F80C01C0F308207047254BD3F899
:102F20000801C0F308207047234B984204D0234B7C
:102F300098420AD0002070471E4BD3F8203103F08E
:102F40000F0301209840013870471A4BD3F8203105
:102F5000C3F301130120984001387047184B984281
:102F600007D003F5B01303F5805398420AD0002030
:102F70007047104BD3F82831C3F301130120984058
:102F8000013870470B4BD3F82831C3F301230433C6
:102F900001209840013870470A4B984201D0002028
:102FA0007047044BD3F8300100F003007047002055
:102FB000704700BF00400E408006160080162E00AD
:102FC00090171A00A009140000F00F00013807281C
:102FD00065D8DFE800F0041B2A643E4D64553B4B86
:102FE000D3F8943003F00703023B052B0CD8DFE83D
:102FF00003F0055803070B090220704704207047AF
:103000000B2070470C207047052070472F4BD3F8DA
:10301000803003F00703022B45D0042B45D0012B51
:1030200001D00120704703207047284BD3F884302B
:1030300003F00703013B032B09D8DFE803F0023854
:103040000604032070470A207047062070470120BD
:1030500070471E4BD3F8883003F00703022B28D0AB
:10306000042B28D0012B01D001207047032070478A
:10307000164B1B6F13F001031FD003B309207047D9
:10308000124BD3F85C3103F03003202B19D0302BD6
:1030900019D0102B01D00120704707207047002065
:1030A000704703207047022070470A2070470220B3
:1030B0007047022070470A207047072070470120A0
:1030C0007047042070470820704700BF00400E4042
:1030D00010B50446FFF778FF1B4B9C4212D01B4BE8
:1030E0009C4215D01A4B9C4206D00138032828D8A0
:1030F000DFE800F014171D1A164BD3F8800000F01B
:103100000700F2E7134BD3F8840000F00700ECE768
:10311000104BD3F8880000F00700E6E712F03CF807
:1031200010BDFFF747FAFBE712F039F8F8E7FFF7B1
:10313000DDF9084BD3F80031C3F300630133D84005
:10314000EEE70020ECE700BF0300200005002400AC
:1031500002001E0000400E4008B50748FFF734FF8C
:10316000072804D0092805D1FFF7C0F903E0FFF7CD
:1031700003FE00E0002008BD06000E0008B100209C
:10318000704710B504460A48FFF71EFF072805D010
:10319000082809D0042804D0204610BDFFF7ECFD14
:1031A000FBE7FFF7E1F9F8E7FFF714FEF5E700BFEB
:1031B000B800320038B500F47813B3F5B01F00F052
:1031C000938005463BD8B3F5402F00F0828010D99C
:1031D000B3F5801F00F0AA80B3F5A01F27D1574890
:1031E000FFF776FF564BD3F8303103F00303D84096
:1031F0001CE0B3F5802F61D005D9B3F5202F14D191
:10320000FFF774F912E0002B55D0B3F5003F0AD157
:10321000FFF76CF94A4BD3F80831C3F308230133A5
:10322000B0FBF3F002E0002000E0002038BDB3F571
:10323000602F02D1FFF790FFF8E70020F6E7B3F523
:10324000381F5BD00ED9B3F5481F72D0B3F5781F85
:1032500021D1FFF74BF90446284612F02BF8B4FBB6
:10326000F0F0E3E7B3F5001F52D006D9B3F5101F15
:103270000FD13248FFF72CFFD8E7B3F5D01F4BD062
:10328000B3F5F01F03D12F48FFF722FFCEE7002050
:10329000CCE70020CAE7B3F5401F0AD12A48FFF760
:1032A00017FF274BD3F82831C3F301230433D84049
:1032B000BCE70020BAE7FFF719F9B7E7FFF716F9FF
:1032C0001F4BD3F80C31C3F308230133B0FBF3F0E9
:1032D000ACE7FFF70BF91A4BD3F81431C3F304230F
:1032E0000133B0FBF3F0A1E71648FFF7F1FE144BF2
:1032F000D3F8203103F00F03D84097E71148FFF7C8
:10330000E7FE0F4BD3F82031C3F30113D8408DE70C
:103310000D48FFF7DDFE89E70B48FFF7D9FE084BA4
:10332000D3F82831C3F30113D8407FE7FFF724FD1A
:103330007CE70020FFF722FF78E700BF05002400AC
:1033400000400E4002001E000300200010B5FFF7F1
:103350004FFD084B07225A67FFF7C8F8FFF7EAFC52
:10336000FFF7F0F80446FFF7D1FC01462046FFF7CF
:1033700053FD10BD00400E40014B1880704700BF48
:1033800036210020014B1880704700BF34210020F7
:1033900004281ED8DFE800F0180312080D000E4BB9
:1033A000186AC0F3080070470B4B186900F07F00E3
:1033B0007047094B986900F07F007047064BD3F8BF
:1033C0009C00C0F30A007047034B986B00F07F002D
:1033D00070470020704700BF00400E4038B50C46D3
:1033E000042813D8DFE800F043032F132100C1F3B2
:1033F0000804274BD3F86838002BFAD1254A136A02
:1034000023F4FF7323F001032343136238BD01F05B
:103410007F041F4BD3F86038002BFAD11D4A136983
:1034200023F07F0323431361F0E701F07F04184B7F
:10343000D3F86438002BFAD1164A936923F07F033E
:1034400023439361E2E7134DD5F890306B6A23F084
:10345000300343F010036B62C1F3C31011F024FF7B
:103460002A6B0D4B1340234303432B63CEE74F29B5
:1034700028BF4F24064BD3F87438002BFAD1054AE5
:10348000936B23F07F03E4B21C439463BEE700BF59
:103490000020C84300400E4000F8FF0F134B5B6A4A
:1034A00013F0300F09D0202914D0302915D009B1DC
:1034B0000F4A04E04FF4400201E04FF440020B4B8E
:1034C000D3F8903032EA0303F9D112F4800F07D118
:1034D000012070474FF40002F1E74FF44002EEE79D
:1034E000024BD3F8A000C0F38020704700400E408C
:1034F000FF33E107022801D00120704710B529B140
:10350000054B4FF48064C3F8A84059660AB90120FE
:1035100010BDFFF7C3FFFBE700400E4070B5042865
:1035200000F28580DFE800F0484250033C000223AF
:1035300001250024AC46002967D002284AD000218A
:103540003B4B1D663B4B23449B001B68002BF9D073
:10355000002A6CD0374C6444A4002368002BF9D0B7
:10356000022864D1002962D0314B5B6A13F0010F4D
:1035700046D001222021FFF7BDFF0220FFF708FF00
:103580000646012200210220FFF7C8FF3146022033
:10359000FFF724FF264B1D662368002BFCD046E076
:1035A0002023102504244FF0050CC4E78023402578
:1035B00006244FF0070CBEE74FF400734FF48075FC
:1035C00008244FF0090CB6E70823042502244FF025
:1035D000030CB0E7164B5B6A13F0300F0ED1164B9D
:1035E000DB6B134B5B6A13F0010FA9D0104E736AAB
:1035F00023F0300343F010037362A1E700219FE73B
:1036000000210220FFF74AFFB7E709490B66084B84
:10361000D3F890100123A3401942F8D13AB1044BDA
:10362000D3F89020012303FA0CF31A42F7D170BDAE
:1036300000400E408004F21000300E4010B50446E9
:10364000A8B1012818D0FFF7D3FBDCB9104B042236
:103650005A67FEF74BFFFFF76DFBFEF773FF04465B
:10366000FFF754FB01462046FFF7D6FB10BD0122B1
:103670001146FFF753FFE6E7012211461046FFF718
:103680004DFFE0E7012CE4D1014B03225A67E0E74C
:1036900000400E4038B5FEF767FF0446002100F0F9
:1036A000A5FB1648FFF746FB012211460220FFF753
:1036B00035FFFFF79DFB4CB1114BDB6B13F0400F57
:1036C00004D1104BD3F8C830002BFAD10E4B022294
:1036D0005A67FEF70BFFFFF72DFBFEF733FF05469A
:1036E000FFF714FB01462846FFF796FB04B138BDEF
:1036F0000121002000F07AFBF9E700BF0148E80152
:1037000000300E400000C64300400E4010B50122BC
:1037100011460320FFF702FFFFF76AFB084B052263
:103720005A67FEF7E3FEFFF705FBFEF70BFF0446C3
:10373000FFF7ECFA01462046FFF76EFB10BD00BF15
:1037400000400E4070B504461120FFF73DFC0122F9
:1037500000210220FFF7E2FE237C022B2AD0002268
:10376000154E736A23F00103134373622278134BDF
:10377000C3F8A024A288637A43EAC223F362356BBC
:1037800005F07F65E38845EAC325A37A1D43207AC7
:1037900045EAC01511F088FD05433563627BA37BC4
:1037A0001B0143EA0233E27B1343227B43EA0243D9
:1037B000736370BD0122D3E700400E400000C84390
:1037C00038B505461120FFF7FFFB0D4A916B0D4CF4
:1037D0000C4029780C436B7844EAC324AB7844EA64
:1037E0000364EB7844EA0324936BA34200D138BD11
:1037F000012200210846FFF791FE014B9C63F6E78A
:1038000000400E4080E4FFF8074BDB6B13F0400FE5
:1038100004D1064BD3F8C830002BFAD1024B5868BC
:10382000C0F30140704700BF00300E400000C643A7
:10383000114BDB6B13F0400F1DD10F4BDB6B13F003
:10384000400F04D10D4BD3F8C830002BFAD10A4BEE
:103850001A68C2F301225B68C3F301439A4205D997
:10386000054A136843F0100313607047024A136857
:1038700023F010031360704700300E400000C64371
:10388000074B1B6813F0100F05D0064B1B69C3F3E1
:103890000443082B00D07047034B044A1A60FAE730
:1038A00000300E4000400E401C200020C0EA2101E4
:1038B0001A48C26CC2F30322194B1B8803F128017A
:1038C00003EB51032833013202EB8201B3FBF1F326
:1038D000013B072B28BF0723C16C21F0EE6141EAB1
:1038E000036343F48013C3640E4BB3F90030002B21
:1038F00013DB9BB203F1280103EB5103283351087A
:1039000001EB4202B3FBF2F3072B28BF0723026D42
:1039100022F0700242EA03130365704700300E4044
:103920002644002022440020024B1880024B1980BC
:10393000704700BF264400202244002010B1012817
:1039400004D07047034B044A9A657047014B034A01
:103950009A65704700300E4077402057372110B7E6
:103960001A4BD3F83032032929D8DFE801F00212CC
:103970001518DBB24AB91B0333F4704121D1144846
:10398000C16E21F470411943C166012A09D001209A
:103990007047C3F30723EDE7C3F30743EAE71B0EC2
:1039A000E8E71B0333F470420DD10949D1F8EC204C
:1039B00022F470421343C1F8EC300120704700201C
:1039C0007047002070470020704700BF0081E00F63
:1039D00000300E401B02A2B101221343B3F5007F59
:1039E0004DD022D8B3F5807F42D00CD940F20112DD
:1039F000934215D1294BD3F824321A0EC3F307434F
:103A000010E00022E9E763B3012B06D1234BD3F882
:103A10002432C3F30722DBB204E00022134601E0A4
:103A20000022134603600A607047B3F5407F2DD033
:103A300040F20132934206D1184BD3F828321A0EC5
:103A4000C3F30743EEE740F20122934206D1134B42
:103A5000D3F82832C3F30722DBB2E3E70022134690
:103A6000E0E70E4BD3F81C32C3F30722DBB2D9E7F1
:103A70000A4BD3F81C321A0EC3F30743D2E7074BA5
:103A8000D3F82032C3F30722DBB2CBE7034BD3F8E2
:103A900020321A0EC3F30743C4E700BF0081E00FD2
:103AA00038B5002850D04B4BDB6B13F0400F07D1DB
:103AB000494B1A78C2F1020210239340454A136120
:103AC000464AD2F8804104F0010445F60E03C2F8DC
:103AD0008031434B1B6803F0010103F010000143E8
:103AE00003F04000084303F00401014303F4807332
:103AF0000B431366374BDB6B13F0400F04D1394B8C
:103B0000D3F8C830002BFAD1324B1B6813F0100FDA
:103B10000DD0324BD3F8403113F0807FF9D1324BC6
:103B20001A682E4B1A61314B1B78052B2BD02F4B6B
:103B30001B78023B0A2B32D8DFE803F02E3F4331DB
:103B40003131313131464900244BD3F89020244B98
:103B50001A601120FFF738FA244B18701D4BDB6BED
:103B600013F0400F04D11F4BD3F8C830002BFAD10B
:103B7000184B5B68C3F30143174A1370174B1A695C
:103B8000194B1A6018E01A4B1D68FFF73DFE0146FD
:103B90002846FFF741F9CAE70020FFF74FFD104B19
:103BA0001B6813F0010F02D10C4B02221A661CB1E4
:103BB0000A4B0022C3F8802138BD0120FFF73EFDEB
:103BC000EDE7FFF767FDEAE7FFF7A0FDE7E7FFF79F
:103BD000BDFBE4E700300E404B44002000400E40A7
:103BE000342E00200000C643302E00204C4400201C
:103BF0001C200020074A136823F44073417843EAED
:103C0000012313604378022B00D07047024B5B6A9C
:103C1000FBE700BF00300E4000400E4038B50446C0
:103C2000F8B9FFF705FE184A136943F0040313615E
:103C300011F06CFB11F06BFB144B154AC3F82424F4
:103C400003F559231B6813F0100F0ED130BF11F08C
:103C50005FFB01F08DFF8CB10120FFF721FF84B1E4
:103C600038BD0020FFF71CFFDBE711F028FB0546FD
:103C700014F0F2FD284611F026FBE8E7FFF700FEFE
:103C8000EDE7FEF75FFCEBE700ED00E000A0004091
:103C90000000FFFF38B5044650BBFFF7C9FD1E4BBF
:103CA000D3F8802145F60E01C3F880114FF420713E
:103CB000196612F0010F02D00022C3F88021174AC2
:103CC000136943F004031361154B164AC3F8242407
:103CD00011F01CFB144B1B6813F0100F0CD130BFFC
:103CE00001F046FF8CB10120FFF7DAFE84B138BD48
:103CF0000020FFF7D5FED0E711F0E1FA054614F0F9
:103D0000ABFD284611F0DFFAEAE7FFF7B9FDEDE772
:103D1000FEF718FCEBE700BF00400E4000ED00E0AE
:103D200000A000400000FFFF00300E40134B9A69D6
:103D300022F03F020378D3B104234178C9B10221B4
:103D40000B438178B9B108210B43C178012900D018
:103D500000210B4301790B431343084A9361136815
:103D600023F44033417943EA014313607047002351
:103D7000E3E70021E4E70021E6E700BF00300E4062
:103D8000174BDB6B13F0400F29D170B504460D467D
:103D9000FFF73AFDA04218D0124BD3F80031FEF7DE
:103DA000A5FB0646022C11D0C4F102021023934059
:103DB0000B4A136145B1D36B13F0400F04D10A4B8A
:103DC000D3F8C830002BFAD124B170BD0221FFF71F
:103DD00023F8E9E700213046FFF71EF8F5E77047C2
:103DE00000300E4000400E400000C64338B5114B75
:103DF000DB6B13F0400F0BD10C4650B10E4B1B7810
:103E000013B10E4B98420FD921460020FFF7B8FF9F
:103E100038BD0B4BD3F80051C5F304250135FEF72F
:103E200065FB05FB00F0E9E721460220FFF7A8FF4C
:103E3000EEE700BF00300E40382E0020002D31018B
:103E400000400E4008B50278034B1A700121002093
:103E5000FFF7CCFF08BD00BF382E002010B42C4B5C
:103E60005A6B4AF6E8515963294B9B6F13F0010FC7
:103E7000FAD1274B1B6C13F0030303D0254901240F
:103E8000C1F8B44AD9B2814221D0032B00D01BB96A
:103E9000431EDBB2012B21D91D4B9B6F13F0010F89
:103EA000FAD11B490B6C23F0030303430B64184B3B
:103EB0009B6F13F0010FFAD1003818BF0120154B8A
:103EC000C3F8B40A012A1FD05DF8044B70470028DC
:103ED000FAD1104B0022C3F8B42AF5E70C4B4FF48B
:103EE0000021D9620A4B9B6F13F0010FFAD10849E8
:103EF0000B6C23F0030343F001030B64044B5B6A78
:103F000013F4002FFAD0C7E7014B00225A63DBE716
:103F100000300E400000C6432DE9F04F8DB00091F7
:103F20000192002309930A930B9306930793089336
:103F3000039304930593654A1288ADF808208DF821
:103F40000A30A0F5E163B3F5966F00F2AE80064645
:103F5000B0F5E16F8CBF4FF001094FF000096DD94A
:103F60004FF4966A4FF4E164B6F5E16F6BD9584BA4
:103F7000D3F8183208931A0E0592C3F30743089337
:103F8000544DEF6CC7F301778DF808703B464A46F5
:103F900003A906A8FFF71EFDD5F8EC30C3F30128EE
:103FA0008DF8098043464A4604A907A8FFF712FD89
:103FB000321B089B0599C91A02FB01F1B1FBFAF10A
:103FC0000B9119440B91DDF80CB0DDF818C0ABEB88
:103FD0000C0502FB05F5B5FBFAF509956544099555
:103FE000DDF810E00798AEEB000404FB02F2B2FB30
:103FF000FAF20A9284180A94059A8A4259D38B429B
:1040000059D8A64559D3A04259D8AB4559D3AC4548
:1040100059D8019B73B12F4BDB6D23F4FE4323F082
:10402000020343EA0123B6F5E16F16D902221343D6
:10403000284AD365009B93B9012037E04FF4167AE4
:104040004FF4966490E7224BD3F818320893C3F3E9
:1040500007220592DBB2089392E70022E7E70022ED
:1040600039464846FFF77CFC00B3012241464846EA
:10407000FFF776FCD0B1A54238BF25460995E72D5C
:1040800028BFE7250995134B5B6E23F4FF7323F0DC
:10409000010343EA4503B6F5E16F04D90122134356
:1040A0000C4A536602E00022F9E700200DB0BDE89B
:1040B000F08F0020FAE70020F8E70020F6E7002064
:1040C000F4E70020F2E70020F0E700BF4C8C01008D
:1040D0000081E00F00300E4008B5214B1A6FDB6CF9
:1040E00013F0010F09D012F0060F06D013281FD9C4
:1040F000143813281ED8082323E0194BDB6C13F067
:10410000010F09D112F0060F06D1092814D90A3877
:10411000092813D8082314E0114BDB6C13F00103BA
:104120000FD012F0060F0BD1272817D8082308E06C
:10413000042306E0102304E0042302E0102300E03F
:104140000023013B1A0342EA03220549CB6C23F406
:104150007F431343CB64FFF7ABFB08BD1023F0E7AD
:1041600000300E4008B5074BD3F88039064A136F6C
:1041700023F0070303431367044B1888FFF7ACFFD2
:1041800008BD00BF0000C64300300E40244400209C
:1041900008B5084AD36E43F08073D366064BD3F854
:1041A00080391BB10420FFF7DDFF08BD0020FFF7B9
:1041B000D9FFFAE700300E400000C64338B5304B57
:1041C00002229A639B6B03F00F03934254D104467F
:1041D000B0F90C10C3884A2B09D9B3F5FA7F41D343
:1041E00040F6C312934240D84FF0005200E0002244
:1041F000234BDB6C23F0405323F00103002937DB12
:1042000001210A4313431E4AD364D2F8EC3043F42D
:104210004073C2F8EC30A2881A4B1A80FFF7B8FF3F
:10422000B4F90C102089FFF77FFBA088FFF754FF3B
:10423000A07BFFF783FB012211466088FFF76CFE2D
:104240000546D0B10E4AD36B43F48063D3636078E4
:10425000FFF704FEA37A202B0CD000220A4BC3F8F0
:1042600094270AE04FF08052C2E74FF04052BFE778
:104270000021C6E70122F1E70025284638BD00BF2E
:1042800000300E40244400200000C643044AD2F807
:10429000443423F003030343C2F84434704700BF9F
:1042A00000A00040F8B504460D461E4617463AB138
:1042B000FBB100EB400109010122AA401D4B5A50FD
:1042C000072D1ED8A90004EB44031B0107FA01F2D5
:1042D0000F2000FA01F11848184411F024F83FB9F2
:1042E000FEB104EB440424010122AA40114B1A51EF
:1042F000F8BD00EB400109010122AA400F4B5A50C2
:10430000DEE7A5F108039B0004EB440C4FEA0C1C0C
:1043100007FA03F20F2199400948604411F003F8AD
:10432000DDE704EB440424010122AA40034B1A51A7
:10433000DEE700BF0CA0004604A000400CA0004433
:1043400008A0004008B5094B4FF40072C3F8802064
:10435000BFF34F8FBFF36F8F054B0021D9661962F2
:104360004FF4AA40FEF768FD08BD00BF00E100E081
:1043700000200E4081F00101024B03449B001960B4
:10438000704700BFA001F11010B5044601214FF4A1
:10439000AA40FEF751FD23786178A27842EA012213
:1043A00042EA03620B4B1A6000221A62DA625A6315
:1043B0004FF00042DA664FF0FF329A66064A4FF439
:1043C0000071C2F88011E3785B01DBB282F8093337
:1043D000116010BD00200E4000E100E070B50C46F9
:1043E000C3B201259D40254EB5660B6800EB400128
:1043F00006EB0111C1F88030637BC1F8883094F876
:104400000AC0E37A1B0543EA0C4394F80CC043EA64
:104410004C53C1F8843022F00302C1F8982010F008
:104420005DFFF36E2B43F366237A13B1736B2B435B
:104430007363637A1BB1114AD36A2B43D3620F4B68
:104440001B68227922B1D243120262F47F421340E8
:1044500062790AB143EA0223A2791AB1D24362F027
:10446000FF021340E27902B11343044A1360044B84
:104470009D62D56310F038FF70BD00BF00200E4074
:1044800000200E4410B5C0B20124844010F026FF75
:10449000044AD36E23EA0403D366034B1C6210F074
:1044A00023FF10BD00200E4000200E4410B5C0B206
:1044B0000124844010F012FF084B1B6A234205D1EF
:1044C000064B9B6A9C4306D0002400E0002410F0B9
:1044D0000BFF204610BD0124F9E700BF00200E406D
:1044E000054B5A685B68054B41F671321A649A684D
:1044F00022F001029A60704700300E4000000E402A
:10450000034B9A6822F001029A6000221A647047F5
:1045100000000E400C4B0D4AD26912F0010F02D080
:104520000BB1013BF7E74BB1084B18610122DA6090
:10453000DB6913F0040F04D1002070476FF0020014
:1045400070474FF0FF3070478096980000000E4093
:104550008C46E9B900207047013B124AD26912F03B
:10456000010F04D0002BF7D16FF0020070479BB110
:104570000C4BDB6913F0020F11D161450AD250F8E0
:10458000042B084B9A6101310822DA60064BE4E7FC
:104590000021F2E7002070476FF0020070476FF0D3
:1045A0000100704700000E40809698002DE9F0470A
:1045B00080460E46254B196C1FFA81F941F6713180
:1045C0001964234948684968996841F00101996074
:1045D000970800231D4614E01C498A6822F0010256
:1045E0008A60B9F1000F2DD00A460021116429E03C
:1045F00051463046FFF7ACFF0346C0B9554406EBC1
:104600008A06BD4213D208EB85042046FFF782FFDD
:1046100003460028E0D1C4F30A04C4F50064A308EB
:10462000A7EB050ABAEB940FE2D39A46E0E70749F5
:104630008A6822F001028A60B9F1000F02D00A46AE
:10464000002111641846BDE8F08700BF00000E404D
:1046500000300E4010B42B4B196C89B241F6713208
:104660001A64294A546852689A6842F001029A60B2
:1046700018610122DA60DB6913F0040F0BD1214BC2
:104680000222DA60214B1F4AD26912F0010F0ED0CC
:104690006BB1013BF7E71B4A936823F0010393607A
:1046A00011B1134600221A644FF0FF300DE0154A95
:1046B000D26912F0020F0BD1B3B1124A936823F002
:1046C00001039360E1B1002010645DF8044B704772
:1046D0000C4A936823F00103936011B11346002242
:1046E0001A646FF00100F0E7064A936823F00103B3
:1046F000936011B1134600221A646FF00200E4E7E0
:104700000020E2E700000E4000300E408096980046
:10471000014B01229A60704700500E4010B4184BB4
:104720005C68002318460BE0B2F5803F21D0154AA3
:1047300052F83320224202D0214200D110430133EB
:10474000082B19D80F4A02EBC30251680E4AD2F85F
:10475000E82112F0040FEAD10A4A52F83320B2F5E8
:10476000006F06D0E0D8B2F5007F02D0B2F5806FBE
:10477000DDD141F48071DAE75DF8044B704700BF8A
:1047800000500E40508C01000040E00F4A790B7839
:1047900091F801C043EA8C0391F802C043EA8C13FC
:1047A00091F803C043EA0C1391F804C043EACC2308
:1047B00043EA02338A7943EA424304300001014A62
:1047C0001350704700200440014B1860704700BF31
:1047D00000008442037813B3012342780AB3042211
:1047E00013438278FAB110221343C278EAB120222F
:1047F0001343027943EA0223427943EA023382797E
:10480000AAB14FF400421343C27943EA0243027A49
:104810007AB14FF400321343074A13607047002304
:10482000DBE70022DCE70022DEE70022E0E70022EF
:10483000E9E70022EFE700BF002004400D4AD2F86C
:10484000E4309B0003F03C03D2F8E010C1F3811187
:104850000B438370D2F8E03003F03F034370D2F88B
:10486000E83003F0F003D2F8EC20C2F30312134354
:104870000370704700FF0FE0024BD3F8FC00000EFE
:10488000704700BF0081E00F044BD3F8E4301B0EEB
:104890000A3303F01F030120984070470081E00FA6
:1048A00070B5054616461C460846D1B1402C20D0AE
:1048B0001BD804B3202C13D1082306FB03F25308A2
:1048C00003EB4013B3FBF2F3203B0C4A02EAC303B1
:1048D0002A6822F060022A602A6814432C606B6107
:1048E00070BD0748FEF766FCE0E7602CF8D10423B2
:1048F000E3E70623E1E71023DFE700BFF8FF7F00CF
:104900004041050038B5054614460B4631B1013B20
:104910006400B3FBF4F31B026B6138BD0248FEF781
:1049200049FC0346F3E700BF4041050040F6AA6397
:10493000C3600023036041F205024260836043616B
:10494000C364134A8264036643678367C367114B7A
:1049500098420BD003F58063984207D003F580633B
:10496000984203D003F58063984201D10023036588
:104970000023836503F1804303F58233984203D01B
:1049800003F50063984201D10023C365704700BF5F
:10499000F9FF01000000014038B5044612F0C4FEE2
:1049A000054DA446BCE80F000FC59CE80F0085E844
:1049B0000F00002038BD00BF3C2E002047F6FF73DB
:1049C0009A4200F08480062900F2838070B5444B3F
:1049D00013F801E0BEF1020F7DD8424B03EBCE018C
:1049E00091F802C0BCF1010F38BF4FF0010C6046D6
:1049F00013F83E30012B26D03A4B03EBCE035C6814
:104A0000002C6AD0B4F90030934204DBB4F90230D0
:104A1000934200DC1346A288FF2A2CD000212826CE
:104A2000C8221D46D21A92FBF6F20A4412B22D4B4E
:104A300003EBCE0393F801E0964501DD002A2FDA5F
:104A40000EF1FF322CE0CB78A3EB0C0300249C4248
:104A50000ED2191BA3EB5101224800EBCE00406897
:104A600030F91100904201DC0C46F0E74B1EEEE7F6
:104A70006344D8B230E0B4F90620B4F908600121EB
:104A8000CFE75C331849A1FB03139B09013212B233
:104A9000164696450FDD04EBC201898899420AD378
:104AA00004EBC2018B68B1F9061001FB0533002B42
:104AB000E7DA0023E5E7013E04EBC604A2889A4248
:104AC00000D31A46624500D31046C0B204E0FF206E
:104AD000704700207047002070BD0020FCE700BF39
:104AE000988C01003C2E0020D34D6210062975D809
:104AF0003E4B5B5C022B73D83D4911F83310012902
:104B000023D0002A6ED010B4394901EBC3014C68A0
:104B1000002C69D0201D364901EBC30189789142F0
:104B20002FD2334901EBC301C97891422ED93049C4
:104B300001EBC30393F801C00CF1FF3C5FFA8CFC5E
:104B4000A388FF2B25D0002327E0294901EBC301CF
:104B5000C978914200D20A46254800EBC30080780C
:104B600001282CBF121A02F1FF32D2B2091A8A426E
:104B700000DD00221E4901EBC3035B6833F912001C
:104B80007047B4F902005DF8044B7047B4F90000B7
:104B9000F9E7012301E00133DBB2634504D2591C7C
:104BA00030F831109142F6D24FF47A7101FB02F2E3
:104BB00000EBC3004368D31AB0F9022002EBD271B4
:104BC00003EB610393FBF2F3B4F900009842DADBE4
:104BD000B4F902009842D6DC18B2D4E70548704711
:104BE00004487047044870470248CCE7988C01009D
:104BF0003C2E00200080FFFF0CFEFFFF08B503489D
:104C0000FFF7CAFE012012F0D7FD08BDA08C0100FD
:104C1000004870476020002000487047582000205E
:104C200000B587B000230193029303930493059387
:104C300002238DF804300D4B029306228DF80C20D0
:104C400001238DF80D300C218DF80E108DF81220F7
:104C50008DF813300D238DF8143001A94FF0FF307B
:104C600012F06CFE07B05DF804FB00BF006A18008C
:104C700000B585B0054BEC460FCB8CE80F006046C5
:104C8000FFF79CFA002005B05DF804FB588D010089
:104C900010B586B00DF1040C144C0FCCACE80F002D
:104CA0002368ACF80030124BD3F8B43013F4002F63
:104CB00008D0104B1B884FF6FF72934207D140F289
:104CC000431304E00A4BD3F8B830C3F30803ADF83C
:104CD0000A300948FDF74EFC01A8FEF733FD3220EB
:104CE000FEF750FB002006B010BD00BF688D01002C
:104CF0000081E00F0001E00F00F0490200B583B031
:104D0000074B1B68019320238DF8043001A8FEF7A0
:104D100057FD3220FEF730FB002003B05DF804FBA6
:104D20007C8D01006FF0040307E003F00F010A4AD5
:104D30000A44A021117601335BB2322B09DC002B2F
:104D4000F3DB03F1604202F56142A02182F8001317
:104D5000F1E70020704700BFFCEC00E010B504460E
:104D600010F0ADFA024B1C6010F0ADFA002010BD3F
:104D70005C2E002010B510F0A2FA034B1C6810F056
:104D8000A2FA204610BD00BF5C2E002038B50C46AC
:104D90001546014640B12B462246064802F056FB16
:104DA000002805DD002038BDFFF7E4FF0146F2E7EB
:104DB0003720F8E74555010008B5044B1868002373
:104DC0000222194680680FF0B5FC08BDD8200020EB
:104DD000002807DB00F01F02400901239340024A2C
:104DE00042F82030704700BF00E100E000280CDBF3
:104DF00000F01F024009012393402030034A42F88B
:104E00002030BFF34F8FBFF36F8F704700E100E09A
:104E100010B586B01446137A03EB43031B0103F16C
:104E2000804303F56223D3F89420E16823690B449F
:104E30009A4216D06169914215D38B1AABB90123FE
:104E4000637694F82D304BB1002384F83530E36954
:104E5000132120469847636A20469847002006B0F1
:104E600010BD0A46E6E79B1AE8E70494054903915A
:104E7000002102910193012300936368216810F0DF
:104E8000AFF9EBE7114E000038B504460568FFF7AF
:104E900071FF844233D095F93630002B08DB03F0E4
:104EA0001F015B0901228A406033174941F8232022
:104EB00095F93600FFF79AFF95F93730002B08DB9C
:104EC00003F01F015B0901228A4060330E4941F85B
:104ED000232095F93700FFF789FF287AFDF712FEA6
:104EE000287AFDF771FDFDF749FD0023236063601B
:104EF000A36023616361AB6A2846984738BD0020F0
:104F0000FFF72CFFC7E700BF00E100E030B589B034
:104F1000044600234376007AFDF7B4FD207A00EBC7
:104F200040031B0103F1804303F56223D3F894206F
:104F3000E56823692B449A4219D06369934218D0DB
:104F4000012323760DF11F01FDF72AFE9DF81F3086
:104F500043B30DF11E01207AFDF7F4FD9DF81E30DC
:104F600003BB22460021207AFFF752FF1AE02A46AF
:104F7000E3E700232376656194F82D3003B12563C0
:104F8000636A2046984723690494094A03920022E1
:104F9000029201930123009363682A462168207AD4
:104FA00010F01EF9207AFDF78DFD09B030BD00BF6D
:104FB000114E0000F0B587B006460C4615461F4658
:104FC00040220021204613F015FA95E8030084E8FA
:104FD000030000232376EB68E3602A6922616361A2
:104FE0002A7D84F82C20AA7D84F82D2023630123B8
:104FF00084F8343084F83530E7610C9B23620D9BD4
:1050000063620E9BA36295F9083084F8363095F9F7
:10501000093084F837303460374B7360374BB360F6
:10502000374B3361374B7361374BF360FDF7F6FC59
:1050300010B1364A904259D1002104F10800FDF721
:105040006BFC002854D1324B3362012384F83C308E
:10505000304AB261304AF2619DF8402084F83B202A
:105060009DF83C2084F83A20002284F8392084F806
:105070003830697D204610F0F0FB95F90930002B9F
:1050800008DB03F01F015B0901228A4060332349DA
:1050900041F8232095F90900FFF79AFE236904944B
:1050A0001F4A039200220292019301230093636836
:1050B000E2682168207A10F093F80446D0B995F997
:1050C0000830002B08DB03F01F015B0901228A4036
:1050D0006033124941F8232095F90800FFF778FE64
:1050E0003046FFF73BFE204607B0F0BD1024FAE73C
:1050F0001024F8E71024F6E7375801005357010051
:10510000EF550100F5550100894E0000038000F0C5
:10511000BD5501005B580100FB55010000E100E0B6
:10512000114E00002DE9F04186B016461C460C9D3C
:10513000012304930393584B0293584B0193584B0C
:105140000093584B0A462946FFF734FF074618B12B
:10515000384606B0BDE8F08123682B6463686B6451
:10516000637A85F84930237A85F84830E37A85F800
:105170004B30A37A85F84A30637B85F84D30237B2A
:1051800085F84C30E37B85F84F30A37B85F84E30B3
:1051900001214548FDF750FE01214448FDF74CFE32
:1051A00001230422617A207AFFF77CF8012302228E
:1051B000E17AA07AFFF776F801216068FDF73CFEFE
:1051C0004FF0000886F800803146206810F0C8F8DB
:1051D0002268536F43F0030353672268936F23F4ED
:1051E000F85323F01F03617C43EA0123A17C0B43A6
:1051F0009367236803225A6785F85080737E202BBB
:1052000031D027D8002B33D0102B21D1012385F8A2
:105210005030002600230222617B207BFFF742F8FA
:10522000E27C2368DA672268536E43F00403536616
:105230002268536F43F010035367DEB92A6CD36CB6
:1052400043F00403D3640521206810F082F87FE75F
:1052500023277DE7302B04D1032385F85030012626
:10526000D8E7232774E7022385F850300126E4E7C6
:105270000026E2E700230422E17BA07BFFF712F87F
:105280002268D36F217D43EA0123D3672268536FDD
:1052900043F020035367D1E7E1580100B5580100FE
:1052A000C15801006F5901004041050000350A0056
:1052B000BFF34F8F0549CA6802F4E062044B134301
:1052C000CB60BFF34F8F00BFFDE700BF00ED00E0F4
:1052D0000400FA05BFF35F8F074B5A6A22F480324D
:1052E0005A62D3F8942022F00102C3F89420BFF34D
:1052F0004F8FBFF36F8F704700ED00E070B586B041
:10530000002305930493FFF7E5FF4FF0005010F0E2
:10531000AEFB36490B68400000F03E0040F098506C
:1053200040F00110324AC2F898304FF00054C2F8F1
:105330009C40C2F8A00001330B602E4D2E4CA542BC
:1053400013D1BFF35F8F2A4B0522C3F894205A6A0A
:1053500042F480325A62BFF34F8FBFF36F8FBFF3B7
:105360004F8FBFF36F8F06B070BD03AB019304ABDB
:10537000009305AB2A1B2946204610F05CFB0398DE
:10538000C208072800D82022049B5B1BB3FBF2F362
:10539000012101FA03F3DBB2013BDBB2059E013DC3
:1053A000AD1BB5FBF2F50D44AB40DBB2A41BB4FB67
:1053B000F2F401FA04F4013CE4B21C4310F057FB90
:1053C0000A4D2A68430003F03E0343EA042343F0F6
:1053D000407343F001130649C1F89820C1F89C605E
:1053E000C1F8A03001322A60ABE700BF602E002078
:1053F00000ED00E07C2100206421002070B586B023
:1054000004460D461646002305930493FFF762FFFA
:1054100003AB019304AB009305AB3246294620460B
:1054200010F009FB0398C208072800D82022049B2B
:105430005B1B1344013BB3FBF2F3012101FA03F3BD
:10544000DBB2013BDBB2059EAD1B013DB5FBF2F5C6
:10545000AB40DBB2A41B1444013CB4FBF2F401FAF0
:1054600004F4013CE4B21C43FF2C29D010F0FFFAF5
:10547000144D2968430003F03E0343EA042343F03C
:10548000985343F00113104AC2F89810C2F89C6078
:10549000C2F8A03001312960BFF35F8F0523C2F845
:1054A0009430536A43F480335362BFF34F8FBFF39A
:1054B0006F8FBFF34F8FBFF36F8F002006B070BDAB
:1054C0002820FBE7602E002000ED00E0012000E036
:1054D0000130022804D8431E024AD35C002BF7D0C7
:1054E000C0B270478C2E0020F8B506460F4603293F
:1054F00003D8DFE801F00A040608002506E00425C9
:1055000004E0102502E0402500E00125032E05D827
:10551000DFE806F002070A0D45F002050B4B1C6898
:1055200009E045F00805F9E745F02005F6E745F004
:105530008005F3E7246844B163681A682A42F9D009
:105540005B68394630469847F4E7F8BD942E002052
:10555000134B1B7813B310B5124B1B785BB90020AB
:1055600010F0ADFA68B9104B01221A700F4B1A787F
:105570000F4B1A7010BD10F0A1FA0A4B00221A70DE
:10558000EDE700F017FB064B00221A70074C0121D3
:105590002078FFF7A9FF01232370EBE7704700BFD6
:1055A0005244002050440020534400205644002020
:1055B0005444002008B50B4B1B78024660B1012112
:1055C0000B4408490B7032B1074B1B78012B02D9F1
:1055D000064B1B7813B108BDFF21F1E7FFF7B8FFB9
:1055E000F9E700BF8C2E00205644002053440020D1
:1055F00010B50FF064FE0446054B1B782BB9FFF77E
:10560000A7FF20460FF05FFE10BD0FF05CFEFBE72A
:105610004F44002010B50FF052FE0446164B1B7885
:10562000D3B1164B1B782BB9144B01221A70144BB3
:1056300000221A70134B1B7893B920460FF043FEDB
:10564000012010F03CFA0FF03AFE04460B4B1B7899
:1056500063B9094B00221A7020460FF034FE10BDCA
:1056600010F02CFA074B00221A70E6E700F0A2FABD
:10567000024B00221A70ECE7524400204F440020F5
:10568000534400205044002010B584B0A0B1831EC4
:10569000DBB2012B13D803A9002000F06DFC70B918
:1056A0001C4B1B68039A9A4212D80120FFF782FF15
:1056B000194B01221A7002E0174B1B780BB904B08A
:1056C00010BD0020FFF776FF134B00221A70F6E79B
:1056D000124B1C6800F0B4FA0444039B9C4206D3AE
:1056E0000120FFF767FF0C4B01221A70E7E700F07B
:1056F000D1FA60B9002343F0020301930023009321
:10570000074A0399091B074810F0E1F9D7E704237A
:10571000F1E700BF682E002051440020642E0020D5
:10572000F15500006C2E002038B50FF0C8FD04467E
:10573000134B1B788BB900F093FB0546E0B9AFF330
:10574000008010480FF02EFD00F0E2FE0E4B00220C
:105750001A6000F073FC0D4B186000F085F910F032
:10576000B0F90B4B1860064B01221A7020460FF05F
:10577000AAFD0025284638BD20460FF0A4FDF9E714
:1057800057440020942E0020642E0020902E0020EC
:10579000682E002038B50138144B1B5C0A46A1B1B5
:1057A00001210B4411490B5472B1114B1D78012D8D
:1057B0000AD9FFF78BFE0446012808D9032D09D02A
:1057C0000B4B1878A0420AD138BDFF21E9E7FFF75B
:1057D00021FFF5E70228F3D100F040FAF0E7214677
:1057E000FFF782FE024B1C70EEE700BF8C2E0020FC
:1057F0005644002038B5044641600FF060FD054670
:10580000214603480FF0D1FC28460FF05CFD38BD5F
:10581000942E0020014B1868704700BF642E0020B2
:1058200038B50FF04CFD0546094B1B78012B0AD902
:10583000FFF7F0FF044600F003FA044428460FF097
:1058400042FD204638BD0FF03EFD0024F9E700BFC1
:1058500056440020064B1B6803FB00F000F5742043
:1058600000F23F20034BA3FB0030800C704700BFC9
:10587000902E002083DE1B4338B510F008F9054652
:10588000AFF300800FF00EFC00283CD1AFF3008096
:10589000284610F000F998E00020FFF78BFE4B4BF4
:1058A00000221A7033E010F004F93DE02146FFF7C2
:1058B0001BFE41E0464B01221A70464B187800F05F
:1058C000A5F9454B1B781BB1444B1A78414B1A7014
:1058D000AFF30080284610F0DEF810F0D8F8054647
:1058E0003F4B1B7843B13E4B00221A70394B1B785B
:1058F0003A4A1078834231D03A4800F0EDFA0FF07E
:10590000DFFB002830D0314B1B78002BC4D1FFF7D0
:10591000DDFDFFF7B9FEFFF7D9FD0446012803D9E5
:105920002B4B1B78002BBED02A4B1878A04205D0F9
:10593000294B1B78002BB9D0264B1C70012CBCD9ED
:10594000234B1B78002BB8D1274B1B78002BB1D1F0
:1059500010F0B3F8254B01221A70ABE701211D4B63
:105960001970FFF7C1FDC7E7194B1B78F3B11A4B4C
:1059700000221A701D4B1B7873B110F09FF81B4B5F
:1059800000221A7008E0012000F040F9284610F0CB
:1059900082F810F07CF80546002010F090F80028FE
:1059A000F1D000F007F90A4B00221A700020FFF72F
:1059B0006BFE084C00212078FFF796FD0023237032
:1059C000AFF30080284610F066F838BD514400203F
:1059D00052440020564400205344002054440020E8
:1059E0004D4400206C2E00205544002050440020DF
:1059F00010B50FF064FC054B1C7800221A700FF0F4
:105A000062FC00F085FC2043C0B210BD4E44002073
:105A1000134B1B78834222D010B582B0044600237A
:105A20008DF804308DF8053010B902238DF805305B
:105A300001A8FEF7DFF854B11E20FFF70BFF094A5B
:105A400013681B1A1360064B1C7002B010BD1E2099
:105A5000FFF700FF034A136803441360F3E770473E
:105A6000572100209C2E002030B583B0394C636A4A
:105A7000636A00258DF8045001A8FEF7E3F9284673
:105A8000FFF7C6FFD4F89030C3F38003324A137097
:105A9000D4F89020C2F3003230490A70D3B92F4BAA
:105AA0001B78F3B92E4B1B68C3F3032301209840E6
:105AB000C0F1010000EB80006430FFF7CBFE294A03
:105AC000136803441360234BD3F89020264B1A60CD
:105AD00003B030BD4FF41670FFF7BCFE234B1860C7
